{
	"CrNFTMarketPlace/josueS/NFTMarketplace.sol": {
		"NFTMarketplace": {
			"abi": [
				{
					"inputs": [
						{
							"internalType": "uint256",
							"name": "_feePercent",
							"type": "uint256"
						}
					],
					"stateMutability": "nonpayable",
					"type": "constructor"
				},
				{
					"anonymous": false,
					"inputs": [
						{
							"indexed": true,
							"internalType": "uint256",
							"name": "tokenId",
							"type": "uint256"
						},
						{
							"indexed": false,
							"internalType": "uint256",
							"name": "price",
							"type": "uint256"
						}
					],
					"name": "NFTListed",
					"type": "event"
				},
				{
					"anonymous": false,
					"inputs": [
						{
							"indexed": true,
							"internalType": "address",
							"name": "owner",
							"type": "address"
						},
						{
							"indexed": true,
							"internalType": "uint256",
							"name": "tokenId",
							"type": "uint256"
						}
					],
					"name": "NFTMinted",
					"type": "event"
				},
				{
					"anonymous": false,
					"inputs": [
						{
							"indexed": true,
							"internalType": "address",
							"name": "buyer",
							"type": "address"
						},
						{
							"indexed": true,
							"internalType": "uint256",
							"name": "tokenId",
							"type": "uint256"
						},
						{
							"indexed": false,
							"internalType": "uint256",
							"name": "price",
							"type": "uint256"
						},
						{
							"indexed": false,
							"internalType": "uint256",
							"name": "fee",
							"type": "uint256"
						}
					],
					"name": "NFTPurchased",
					"type": "event"
				},
				{
					"inputs": [],
					"name": "fee",
					"outputs": [
						{
							"internalType": "uint256",
							"name": "",
							"type": "uint256"
						}
					],
					"stateMutability": "view",
					"type": "function"
				},
				{
					"inputs": [
						{
							"internalType": "address",
							"name": "_owner",
							"type": "address"
						}
					],
					"name": "getOwnerTokens",
					"outputs": [
						{
							"internalType": "uint256[]",
							"name": "",
							"type": "uint256[]"
						}
					],
					"stateMutability": "view",
					"type": "function"
				},
				{
					"inputs": [
						{
							"internalType": "uint256",
							"name": "_tokenId",
							"type": "uint256"
						}
					],
					"name": "getTokenURI",
					"outputs": [
						{
							"internalType": "string",
							"name": "",
							"type": "string"
						}
					],
					"stateMutability": "view",
					"type": "function"
				},
				{
					"inputs": [
						{
							"internalType": "uint256",
							"name": "_tokenId",
							"type": "uint256"
						},
						{
							"internalType": "uint256",
							"name": "_price",
							"type": "uint256"
						}
					],
					"name": "listNFT",
					"outputs": [],
					"stateMutability": "nonpayable",
					"type": "function"
				},
				{
					"inputs": [
						{
							"internalType": "uint256",
							"name": "",
							"type": "uint256"
						}
					],
					"name": "listings",
					"outputs": [
						{
							"internalType": "uint256",
							"name": "price",
							"type": "uint256"
						},
						{
							"internalType": "address",
							"name": "seller",
							"type": "address"
						},
						{
							"internalType": "bool",
							"name": "active",
							"type": "bool"
						}
					],
					"stateMutability": "view",
					"type": "function"
				},
				{
					"inputs": [
						{
							"internalType": "string",
							"name": "_tokenURI",
							"type": "string"
						}
					],
					"name": "mint",
					"outputs": [],
					"stateMutability": "nonpayable",
					"type": "function"
				},
				{
					"inputs": [
						{
							"internalType": "uint256",
							"name": "",
							"type": "uint256"
						}
					],
					"name": "nfts",
					"outputs": [
						{
							"internalType": "uint256",
							"name": "tokenId",
							"type": "uint256"
						},
						{
							"internalType": "address",
							"name": "owner",
							"type": "address"
						},
						{
							"internalType": "string",
							"name": "tokenURI",
							"type": "string"
						}
					],
					"stateMutability": "view",
					"type": "function"
				},
				{
					"inputs": [],
					"name": "owner",
					"outputs": [
						{
							"internalType": "address",
							"name": "",
							"type": "address"
						}
					],
					"stateMutability": "view",
					"type": "function"
				},
				{
					"inputs": [
						{
							"internalType": "address",
							"name": "",
							"type": "address"
						},
						{
							"internalType": "uint256",
							"name": "",
							"type": "uint256"
						}
					],
					"name": "ownerTokens",
					"outputs": [
						{
							"internalType": "uint256",
							"name": "",
							"type": "uint256"
						}
					],
					"stateMutability": "view",
					"type": "function"
				},
				{
					"inputs": [
						{
							"internalType": "uint256",
							"name": "_tokenId",
							"type": "uint256"
						}
					],
					"name": "purchaseNFT",
					"outputs": [],
					"stateMutability": "payable",
					"type": "function"
				},
				{
					"inputs": [],
					"name": "totalSupply",
					"outputs": [
						{
							"internalType": "uint256",
							"name": "",
							"type": "uint256"
						}
					],
					"stateMutability": "view",
					"type": "function"
				}
			],
			"devdoc": {
				"kind": "dev",
				"methods": {},
				"version": 1
			},
			"evm": {
				"assembly": "    /* \"CrNFTMarketPlace/josueS/NFTMarketplace.sol\":122:3930  contract NFTMarketplace is ReentrancyGuard{... */\n  mstore(0x40, 0x80)\n    /* \"CrNFTMarketPlace/josueS/NFTMarketplace.sol\":986:1081  constructor(uint256 _feePercent) {... */\n  callvalue\n  dup1\n  iszero\n  tag_1\n  jumpi\n  revert(0x00, 0x00)\ntag_1:\n  pop\n  mload(0x40)\n  sub(codesize, bytecodeSize)\n  dup1\n  bytecodeSize\n  dup4\n  codecopy\n  dup2\n  dup2\n  add\n  0x40\n  mstore\n  dup2\n  add\n  swap1\n  tag_2\n  swap2\n  swap1\n  tag_3\n  jump\t// in\ntag_2:\n    /* \"@openzeppelin/contracts/security/ReentrancyGuard.sol\":1716:1717  1 */\n  0x01\n    /* \"@openzeppelin/contracts/security/ReentrancyGuard.sol\":1821:1828  _status */\n  0x00\n    /* \"@openzeppelin/contracts/security/ReentrancyGuard.sol\":1821:1843  _status = _NOT_ENTERED */\n  dup2\n  swap1\n  sstore\n  pop\n    /* \"CrNFTMarketPlace/josueS/NFTMarketplace.sol\":1037:1047  msg.sender */\n  caller\n    /* \"CrNFTMarketPlace/josueS/NFTMarketplace.sol\":1029:1034  owner */\n  0x01\n  0x00\n    /* \"CrNFTMarketPlace/josueS/NFTMarketplace.sol\":1029:1047  owner = msg.sender */\n  0x0100\n  exp\n  dup2\n  sload\n  dup2\n  0xffffffffffffffffffffffffffffffffffffffff\n  mul\n  not\n  and\n  swap1\n  dup4\n  0xffffffffffffffffffffffffffffffffffffffff\n  and\n  mul\n  or\n  swap1\n  sstore\n  pop\n    /* \"CrNFTMarketPlace/josueS/NFTMarketplace.sol\":1063:1074  _feePercent */\n  dup1\n    /* \"CrNFTMarketPlace/josueS/NFTMarketplace.sol\":1057:1060  fee */\n  0x02\n    /* \"CrNFTMarketPlace/josueS/NFTMarketplace.sol\":1057:1074  fee = _feePercent */\n  dup2\n  swap1\n  sstore\n  pop\n    /* \"CrNFTMarketPlace/josueS/NFTMarketplace.sol\":986:1081  constructor(uint256 _feePercent) {... */\n  pop\n    /* \"CrNFTMarketPlace/josueS/NFTMarketplace.sol\":122:3930  contract NFTMarketplace is ReentrancyGuard{... */\n  jump(tag_8)\n    /* \"#utility.yul\":88:205   */\ntag_10:\n    /* \"#utility.yul\":197:198   */\n  0x00\n    /* \"#utility.yul\":194:195   */\n  0x00\n    /* \"#utility.yul\":187:199   */\n  revert\n    /* \"#utility.yul\":334:411   */\ntag_12:\n    /* \"#utility.yul\":371:378   */\n  0x00\n    /* \"#utility.yul\":400:405   */\n  dup2\n    /* \"#utility.yul\":389:405   */\n  swap1\n  pop\n    /* \"#utility.yul\":334:411   */\n  swap2\n  swap1\n  pop\n  jump\t// out\n    /* \"#utility.yul\":417:539   */\ntag_13:\n    /* \"#utility.yul\":490:514   */\n  tag_21\n    /* \"#utility.yul\":508:513   */\n  dup2\n    /* \"#utility.yul\":490:514   */\n  tag_12\n  jump\t// in\ntag_21:\n    /* \"#utility.yul\":483:488   */\n  dup2\n    /* \"#utility.yul\":480:515   */\n  eq\n    /* \"#utility.yul\":470:533   */\n  tag_22\n  jumpi\n    /* \"#utility.yul\":529:530   */\n  0x00\n    /* \"#utility.yul\":526:527   */\n  0x00\n    /* \"#utility.yul\":519:531   */\n  revert\n    /* \"#utility.yul\":470:533   */\ntag_22:\n    /* \"#utility.yul\":417:539   */\n  pop\n  jump\t// out\n    /* \"#utility.yul\":545:688   */\ntag_14:\n    /* \"#utility.yul\":602:607   */\n  0x00\n    /* \"#utility.yul\":633:639   */\n  dup2\n    /* \"#utility.yul\":627:640   */\n  mload\n    /* \"#utility.yul\":618:640   */\n  swap1\n  pop\n    /* \"#utility.yul\":649:682   */\n  tag_24\n    /* \"#utility.yul\":676:681   */\n  dup2\n    /* \"#utility.yul\":649:682   */\n  tag_13\n  jump\t// in\ntag_24:\n    /* \"#utility.yul\":545:688   */\n  swap3\n  swap2\n  pop\n  pop\n  jump\t// out\n    /* \"#utility.yul\":694:1045   */\ntag_3:\n    /* \"#utility.yul\":764:770   */\n  0x00\n    /* \"#utility.yul\":813:815   */\n  0x20\n    /* \"#utility.yul\":801:810   */\n  dup3\n    /* \"#utility.yul\":792:799   */\n  dup5\n    /* \"#utility.yul\":788:811   */\n  sub\n    /* \"#utility.yul\":784:816   */\n  slt\n    /* \"#utility.yul\":781:900   */\n  iszero\n  tag_26\n  jumpi\n    /* \"#utility.yul\":819:898   */\n  tag_27\n  tag_10\n  jump\t// in\ntag_27:\n    /* \"#utility.yul\":781:900   */\ntag_26:\n    /* \"#utility.yul\":939:940   */\n  0x00\n    /* \"#utility.yul\":964:1028   */\n  tag_28\n    /* \"#utility.yul\":1020:1027   */\n  dup5\n    /* \"#utility.yul\":1011:1017   */\n  dup3\n    /* \"#utility.yul\":1000:1009   */\n  dup6\n    /* \"#utility.yul\":996:1018   */\n  add\n    /* \"#utility.yul\":964:1028   */\n  tag_14\n  jump\t// in\ntag_28:\n    /* \"#utility.yul\":954:1028   */\n  swap2\n  pop\n    /* \"#utility.yul\":910:1038   */\n  pop\n    /* \"#utility.yul\":694:1045   */\n  swap3\n  swap2\n  pop\n  pop\n  jump\t// out\n    /* \"CrNFTMarketPlace/josueS/NFTMarketplace.sol\":122:3930  contract NFTMarketplace is ReentrancyGuard{... */\ntag_8:\n  dataSize(sub_0)\n  dup1\n  dataOffset(sub_0)\n  0x00\n  codecopy\n  0x00\n  return\nstop\n\nsub_0: assembly {\n        /* \"CrNFTMarketPlace/josueS/NFTMarketplace.sol\":122:3930  contract NFTMarketplace is ReentrancyGuard{... */\n      mstore(0x40, 0x80)\n      jumpi(tag_1, lt(calldatasize, 0x04))\n      shr(0xe0, calldataload(0x00))\n      dup1\n      0x8da5cb5b\n      gt\n      tag_13\n      jumpi\n      dup1\n      0x8da5cb5b\n      eq\n      tag_7\n      jumpi\n      dup1\n      0x94383f14\n      eq\n      tag_8\n      jumpi\n      dup1\n      0xd63d4af0\n      eq\n      tag_9\n      jumpi\n      dup1\n      0xd85d3d27\n      eq\n      tag_10\n      jumpi\n      dup1\n      0xddca3f43\n      eq\n      tag_11\n      jumpi\n      dup1\n      0xde74e57b\n      eq\n      tag_12\n      jumpi\n      jump(tag_1)\n    tag_13:\n      dup1\n      0x150bde03\n      eq\n      tag_2\n      jumpi\n      dup1\n      0x18160ddd\n      eq\n      tag_3\n      jumpi\n      dup1\n      0x265aa621\n      eq\n      tag_4\n      jumpi\n      dup1\n      0x28b60031\n      eq\n      tag_5\n      jumpi\n      dup1\n      0x3bb3a24d\n      eq\n      tag_6\n      jumpi\n    tag_1:\n      revert(0x00, 0x00)\n        /* \"CrNFTMarketPlace/josueS/NFTMarketplace.sol\":1843:3243  function purchaseNFT(uint256 _tokenId) external payable nonReentrant {... */\n    tag_2:\n      tag_14\n      0x04\n      dup1\n      calldatasize\n      sub\n      dup2\n      add\n      swap1\n      tag_15\n      swap2\n      swap1\n      tag_16\n      jump\t// in\n    tag_15:\n      tag_17\n      jump\t// in\n    tag_14:\n      stop\n        /* \"CrNFTMarketPlace/josueS/NFTMarketplace.sol\":683:709  uint256 public totalSupply */\n    tag_3:\n      callvalue\n      dup1\n      iszero\n      tag_18\n      jumpi\n      revert(0x00, 0x00)\n    tag_18:\n      pop\n      tag_19\n      tag_20\n      jump\t// in\n    tag_19:\n      mload(0x40)\n      tag_21\n      swap2\n      swap1\n      tag_22\n      jump\t// in\n    tag_21:\n      mload(0x40)\n      dup1\n      swap2\n      sub\n      swap1\n      return\n        /* \"CrNFTMarketPlace/josueS/NFTMarketplace.sol\":715:750  mapping(uint256 => NFT) public nfts */\n    tag_4:\n      callvalue\n      dup1\n      iszero\n      tag_23\n      jumpi\n      revert(0x00, 0x00)\n    tag_23:\n      pop\n      tag_24\n      0x04\n      dup1\n      calldatasize\n      sub\n      dup2\n      add\n      swap1\n      tag_25\n      swap2\n      swap1\n      tag_16\n      jump\t// in\n    tag_25:\n      tag_26\n      jump\t// in\n    tag_24:\n      mload(0x40)\n      tag_27\n      swap4\n      swap3\n      swap2\n      swap1\n      tag_28\n      jump\t// in\n    tag_27:\n      mload(0x40)\n      dup1\n      swap2\n      sub\n      swap1\n      return\n        /* \"CrNFTMarketPlace/josueS/NFTMarketplace.sol\":805:853  mapping(address => uint256[]) public ownerTokens */\n    tag_5:\n      callvalue\n      dup1\n      iszero\n      tag_29\n      jumpi\n      revert(0x00, 0x00)\n    tag_29:\n      pop\n      tag_30\n      0x04\n      dup1\n      calldatasize\n      sub\n      dup2\n      add\n      swap1\n      tag_31\n      swap2\n      swap1\n      tag_32\n      jump\t// in\n    tag_31:\n      tag_33\n      jump\t// in\n    tag_30:\n      mload(0x40)\n      tag_34\n      swap2\n      swap1\n      tag_22\n      jump\t// in\n    tag_34:\n      mload(0x40)\n      dup1\n      swap2\n      sub\n      swap1\n      return\n        /* \"CrNFTMarketPlace/josueS/NFTMarketplace.sol\":3776:3928  function getTokenURI(uint256 _tokenId)... */\n    tag_6:\n      callvalue\n      dup1\n      iszero\n      tag_35\n      jumpi\n      revert(0x00, 0x00)\n    tag_35:\n      pop\n      tag_36\n      0x04\n      dup1\n      calldatasize\n      sub\n      dup2\n      add\n      swap1\n      tag_37\n      swap2\n      swap1\n      tag_16\n      jump\t// in\n    tag_37:\n      tag_38\n      jump\t// in\n    tag_36:\n      mload(0x40)\n      tag_39\n      swap2\n      swap1\n      tag_40\n      jump\t// in\n    tag_39:\n      mload(0x40)\n      dup1\n      swap2\n      sub\n      swap1\n      return\n        /* \"CrNFTMarketPlace/josueS/NFTMarketplace.sol\":170:190  address public owner */\n    tag_7:\n      callvalue\n      dup1\n      iszero\n      tag_41\n      jumpi\n      revert(0x00, 0x00)\n    tag_41:\n      pop\n      tag_42\n      tag_43\n      jump\t// in\n    tag_42:\n      mload(0x40)\n      tag_44\n      swap2\n      swap1\n      tag_45\n      jump\t// in\n    tag_44:\n      mload(0x40)\n      dup1\n      swap2\n      sub\n      swap1\n      return\n        /* \"CrNFTMarketPlace/josueS/NFTMarketplace.sol\":1460:1840  function listNFT(uint256 _tokenId, uint256 _price) external {... */\n    tag_8:\n      callvalue\n      dup1\n      iszero\n      tag_46\n      jumpi\n      revert(0x00, 0x00)\n    tag_46:\n      pop\n      tag_47\n      0x04\n      dup1\n      calldatasize\n      sub\n      dup2\n      add\n      swap1\n      tag_48\n      swap2\n      swap1\n      tag_49\n      jump\t// in\n    tag_48:\n      tag_50\n      jump\t// in\n    tag_47:\n      stop\n        /* \"CrNFTMarketPlace/josueS/NFTMarketplace.sol\":3618:3770  function getOwnerTokens(address _owner)... */\n    tag_9:\n      callvalue\n      dup1\n      iszero\n      tag_51\n      jumpi\n      revert(0x00, 0x00)\n    tag_51:\n      pop\n      tag_52\n      0x04\n      dup1\n      calldatasize\n      sub\n      dup2\n      add\n      swap1\n      tag_53\n      swap2\n      swap1\n      tag_54\n      jump\t// in\n    tag_53:\n      tag_55\n      jump\t// in\n    tag_52:\n      mload(0x40)\n      tag_56\n      swap2\n      swap1\n      tag_57\n      jump\t// in\n    tag_56:\n      mload(0x40)\n      dup1\n      swap2\n      sub\n      swap1\n      return\n        /* \"CrNFTMarketPlace/josueS/NFTMarketplace.sol\":1087:1454  function mint(string memory _tokenURI) external {... */\n    tag_10:\n      callvalue\n      dup1\n      iszero\n      tag_58\n      jumpi\n      revert(0x00, 0x00)\n    tag_58:\n      pop\n      tag_59\n      0x04\n      dup1\n      calldatasize\n      sub\n      dup2\n      add\n      swap1\n      tag_60\n      swap2\n      swap1\n      tag_61\n      jump\t// in\n    tag_60:\n      tag_62\n      jump\t// in\n    tag_59:\n      stop\n        /* \"CrNFTMarketPlace/josueS/NFTMarketplace.sol\":196:214  uint256 public fee */\n    tag_11:\n      callvalue\n      dup1\n      iszero\n      tag_63\n      jumpi\n      revert(0x00, 0x00)\n    tag_63:\n      pop\n      tag_64\n      tag_65\n      jump\t// in\n    tag_64:\n      mload(0x40)\n      tag_66\n      swap2\n      swap1\n      tag_22\n      jump\t// in\n    tag_66:\n      mload(0x40)\n      dup1\n      swap2\n      sub\n      swap1\n      return\n        /* \"CrNFTMarketPlace/josueS/NFTMarketplace.sol\":756:799  mapping(uint256 => Listing) public listings */\n    tag_12:\n      callvalue\n      dup1\n      iszero\n      tag_67\n      jumpi\n      revert(0x00, 0x00)\n    tag_67:\n      pop\n      tag_68\n      0x04\n      dup1\n      calldatasize\n      sub\n      dup2\n      add\n      swap1\n      tag_69\n      swap2\n      swap1\n      tag_16\n      jump\t// in\n    tag_69:\n      tag_70\n      jump\t// in\n    tag_68:\n      mload(0x40)\n      tag_71\n      swap4\n      swap3\n      swap2\n      swap1\n      tag_72\n      jump\t// in\n    tag_71:\n      mload(0x40)\n      dup1\n      swap2\n      sub\n      swap1\n      return\n        /* \"CrNFTMarketPlace/josueS/NFTMarketplace.sol\":1843:3243  function purchaseNFT(uint256 _tokenId) external payable nonReentrant {... */\n    tag_17:\n        /* \"@openzeppelin/contracts/security/ReentrancyGuard.sol\":2261:2282  _nonReentrantBefore() */\n      tag_74\n        /* \"@openzeppelin/contracts/security/ReentrancyGuard.sol\":2261:2280  _nonReentrantBefore */\n      tag_75\n        /* \"@openzeppelin/contracts/security/ReentrancyGuard.sol\":2261:2282  _nonReentrantBefore() */\n      jump\t// in\n    tag_74:\n        /* \"CrNFTMarketPlace/josueS/NFTMarketplace.sol\":1918:1940  Listing memory listing */\n      0x00\n        /* \"CrNFTMarketPlace/josueS/NFTMarketplace.sol\":1943:1951  listings */\n      0x05\n        /* \"CrNFTMarketPlace/josueS/NFTMarketplace.sol\":1943:1961  listings[_tokenId] */\n      0x00\n        /* \"CrNFTMarketPlace/josueS/NFTMarketplace.sol\":1952:1960  _tokenId */\n      dup4\n        /* \"CrNFTMarketPlace/josueS/NFTMarketplace.sol\":1943:1961  listings[_tokenId] */\n      dup2\n      mstore\n      0x20\n      add\n      swap1\n      dup2\n      mstore\n      0x20\n      add\n      0x00\n      keccak256\n        /* \"CrNFTMarketPlace/josueS/NFTMarketplace.sol\":1918:1961  Listing memory listing = listings[_tokenId] */\n      mload(0x40)\n      dup1\n      0x60\n      add\n      0x40\n      mstore\n      swap1\n      dup2\n      0x00\n      dup3\n      add\n      sload\n      dup2\n      mstore\n      0x20\n      add\n      0x01\n      dup3\n      add\n      0x00\n      swap1\n      sload\n      swap1\n      0x0100\n      exp\n      swap1\n      div\n      0xffffffffffffffffffffffffffffffffffffffff\n      and\n      0xffffffffffffffffffffffffffffffffffffffff\n      and\n      0xffffffffffffffffffffffffffffffffffffffff\n      and\n      dup2\n      mstore\n      0x20\n      add\n      0x01\n      dup3\n      add\n      0x14\n      swap1\n      sload\n      swap1\n      0x0100\n      exp\n      swap1\n      div\n      0xff\n      and\n      iszero\n      iszero\n      iszero\n      iszero\n      dup2\n      mstore\n      pop\n      pop\n      swap1\n      pop\n        /* \"CrNFTMarketPlace/josueS/NFTMarketplace.sol\":1976:1983  listing */\n      dup1\n        /* \"CrNFTMarketPlace/josueS/NFTMarketplace.sol\":1976:1990  listing.active */\n      0x40\n      add\n      mload\n        /* \"CrNFTMarketPlace/josueS/NFTMarketplace.sol\":1968:2014  require(listing.active, \"NFT is not for sale\") */\n      tag_77\n      jumpi\n      mload(0x40)\n      0x08c379a000000000000000000000000000000000000000000000000000000000\n      dup2\n      mstore\n      0x04\n      add\n      tag_78\n      swap1\n      tag_79\n      jump\t// in\n    tag_78:\n      mload(0x40)\n      dup1\n      swap2\n      sub\n      swap1\n      revert\n    tag_77:\n        /* \"CrNFTMarketPlace/josueS/NFTMarketplace.sol\":2041:2048  listing */\n      dup1\n        /* \"CrNFTMarketPlace/josueS/NFTMarketplace.sol\":2041:2054  listing.price */\n      0x00\n      add\n      mload\n        /* \"CrNFTMarketPlace/josueS/NFTMarketplace.sol\":2028:2037  msg.value */\n      callvalue\n        /* \"CrNFTMarketPlace/josueS/NFTMarketplace.sol\":2028:2054  msg.value >= listing.price */\n      lt\n      iszero\n        /* \"CrNFTMarketPlace/josueS/NFTMarketplace.sol\":2020:2077  require(msg.value >= listing.price, \"Insufficient funds\") */\n      tag_80\n      jumpi\n      mload(0x40)\n      0x08c379a000000000000000000000000000000000000000000000000000000000\n      dup2\n      mstore\n      0x04\n      add\n      tag_81\n      swap1\n      tag_82\n      jump\t// in\n    tag_81:\n      mload(0x40)\n      dup1\n      swap2\n      sub\n      swap1\n      revert\n    tag_80:\n        /* \"CrNFTMarketPlace/josueS/NFTMarketplace.sol\":2084:2097  uint256 price */\n      0x00\n        /* \"CrNFTMarketPlace/josueS/NFTMarketplace.sol\":2100:2107  listing */\n      dup2\n        /* \"CrNFTMarketPlace/josueS/NFTMarketplace.sol\":2100:2113  listing.price */\n      0x00\n      add\n      mload\n        /* \"CrNFTMarketPlace/josueS/NFTMarketplace.sol\":2084:2113  uint256 price = listing.price */\n      swap1\n      pop\n        /* \"CrNFTMarketPlace/josueS/NFTMarketplace.sol\":2119:2133  address seller */\n      0x00\n        /* \"CrNFTMarketPlace/josueS/NFTMarketplace.sol\":2136:2143  listing */\n      dup3\n        /* \"CrNFTMarketPlace/josueS/NFTMarketplace.sol\":2136:2150  listing.seller */\n      0x20\n      add\n      mload\n        /* \"CrNFTMarketPlace/josueS/NFTMarketplace.sol\":2119:2150  address seller = listing.seller */\n      swap1\n      pop\n        /* \"CrNFTMarketPlace/josueS/NFTMarketplace.sol\":2183:2184  0 */\n      0x00\n        /* \"CrNFTMarketPlace/josueS/NFTMarketplace.sol\":2165:2185  seller != address(0) */\n      0xffffffffffffffffffffffffffffffffffffffff\n      and\n        /* \"CrNFTMarketPlace/josueS/NFTMarketplace.sol\":2165:2171  seller */\n      dup2\n        /* \"CrNFTMarketPlace/josueS/NFTMarketplace.sol\":2165:2185  seller != address(0) */\n      0xffffffffffffffffffffffffffffffffffffffff\n      and\n      sub\n        /* \"CrNFTMarketPlace/josueS/NFTMarketplace.sol\":2157:2212  require(seller != address(0), \"Seller address is zero\") */\n      tag_83\n      jumpi\n      mload(0x40)\n      0x08c379a000000000000000000000000000000000000000000000000000000000\n      dup2\n      mstore\n      0x04\n      add\n      tag_84\n      swap1\n      tag_85\n      jump\t// in\n    tag_84:\n      mload(0x40)\n      dup1\n      swap2\n      sub\n      swap1\n      revert\n    tag_83:\n        /* \"CrNFTMarketPlace/josueS/NFTMarketplace.sol\":2243:2244  0 */\n      0x00\n        /* \"CrNFTMarketPlace/josueS/NFTMarketplace.sol\":2226:2245  owner != address(0) */\n      0xffffffffffffffffffffffffffffffffffffffff\n      and\n        /* \"CrNFTMarketPlace/josueS/NFTMarketplace.sol\":2226:2231  owner */\n      0x01\n      0x00\n      swap1\n      sload\n      swap1\n      0x0100\n      exp\n      swap1\n      div\n      0xffffffffffffffffffffffffffffffffffffffff\n      and\n        /* \"CrNFTMarketPlace/josueS/NFTMarketplace.sol\":2226:2245  owner != address(0) */\n      0xffffffffffffffffffffffffffffffffffffffff\n      and\n      sub\n        /* \"CrNFTMarketPlace/josueS/NFTMarketplace.sol\":2218:2271  require(owner != address(0), \"Owner address is zero\") */\n      tag_86\n      jumpi\n      mload(0x40)\n      0x08c379a000000000000000000000000000000000000000000000000000000000\n      dup2\n      mstore\n      0x04\n      add\n      tag_87\n      swap1\n      tag_88\n      jump\t// in\n    tag_87:\n      mload(0x40)\n      dup1\n      swap2\n      sub\n      swap1\n      revert\n    tag_86:\n        /* \"CrNFTMarketPlace/josueS/NFTMarketplace.sol\":2309:2315  seller */\n      dup1\n        /* \"CrNFTMarketPlace/josueS/NFTMarketplace.sol\":2285:2315  nfts[_tokenId].owner == seller */\n      0xffffffffffffffffffffffffffffffffffffffff\n      and\n        /* \"CrNFTMarketPlace/josueS/NFTMarketplace.sol\":2285:2289  nfts */\n      0x04\n        /* \"CrNFTMarketPlace/josueS/NFTMarketplace.sol\":2285:2299  nfts[_tokenId] */\n      0x00\n        /* \"CrNFTMarketPlace/josueS/NFTMarketplace.sol\":2290:2298  _tokenId */\n      dup7\n        /* \"CrNFTMarketPlace/josueS/NFTMarketplace.sol\":2285:2299  nfts[_tokenId] */\n      dup2\n      mstore\n      0x20\n      add\n      swap1\n      dup2\n      mstore\n      0x20\n      add\n      0x00\n      keccak256\n        /* \"CrNFTMarketPlace/josueS/NFTMarketplace.sol\":2285:2305  nfts[_tokenId].owner */\n      0x01\n      add\n      0x00\n      swap1\n      sload\n      swap1\n      0x0100\n      exp\n      swap1\n      div\n      0xffffffffffffffffffffffffffffffffffffffff\n      and\n        /* \"CrNFTMarketPlace/josueS/NFTMarketplace.sol\":2285:2315  nfts[_tokenId].owner == seller */\n      0xffffffffffffffffffffffffffffffffffffffff\n      and\n      eq\n        /* \"CrNFTMarketPlace/josueS/NFTMarketplace.sol\":2277:2350  require(nfts[_tokenId].owner == seller, \"Seller no longer owns this NFT\") */\n      tag_89\n      jumpi\n      mload(0x40)\n      0x08c379a000000000000000000000000000000000000000000000000000000000\n      dup2\n      mstore\n      0x04\n      add\n      tag_90\n      swap1\n      tag_91\n      jump\t// in\n    tag_90:\n      mload(0x40)\n      dup1\n      swap2\n      sub\n      swap1\n      revert\n    tag_89:\n        /* \"CrNFTMarketPlace/josueS/NFTMarketplace.sol\":2357:2374  uint256 feeAmount */\n      0x00\n        /* \"CrNFTMarketPlace/josueS/NFTMarketplace.sol\":2393:2396  100 */\n      0x64\n        /* \"CrNFTMarketPlace/josueS/NFTMarketplace.sol\":2386:2389  fee */\n      sload(0x02)\n        /* \"CrNFTMarketPlace/josueS/NFTMarketplace.sol\":2378:2383  price */\n      dup5\n        /* \"CrNFTMarketPlace/josueS/NFTMarketplace.sol\":2378:2389  price * fee */\n      tag_92\n      swap2\n      swap1\n      tag_93\n      jump\t// in\n    tag_92:\n        /* \"CrNFTMarketPlace/josueS/NFTMarketplace.sol\":2377:2396  (price * fee) / 100 */\n      tag_94\n      swap2\n      swap1\n      tag_95\n      jump\t// in\n    tag_94:\n        /* \"CrNFTMarketPlace/josueS/NFTMarketplace.sol\":2357:2396  uint256 feeAmount = (price * fee) / 100 */\n      swap1\n      pop\n        /* \"CrNFTMarketPlace/josueS/NFTMarketplace.sol\":2402:2422  uint256 sellerAmount */\n      0x00\n        /* \"CrNFTMarketPlace/josueS/NFTMarketplace.sol\":2433:2442  feeAmount */\n      dup2\n        /* \"CrNFTMarketPlace/josueS/NFTMarketplace.sol\":2425:2430  price */\n      dup5\n        /* \"CrNFTMarketPlace/josueS/NFTMarketplace.sol\":2425:2442  price - feeAmount */\n      tag_96\n      swap2\n      swap1\n      tag_97\n      jump\t// in\n    tag_96:\n        /* \"CrNFTMarketPlace/josueS/NFTMarketplace.sol\":2402:2442  uint256 sellerAmount = price - feeAmount */\n      swap1\n      pop\n        /* \"CrNFTMarketPlace/josueS/NFTMarketplace.sol\":2498:2508  msg.sender */\n      caller\n        /* \"CrNFTMarketPlace/josueS/NFTMarketplace.sol\":2475:2479  nfts */\n      0x04\n        /* \"CrNFTMarketPlace/josueS/NFTMarketplace.sol\":2475:2489  nfts[_tokenId] */\n      0x00\n        /* \"CrNFTMarketPlace/josueS/NFTMarketplace.sol\":2480:2488  _tokenId */\n      dup9\n        /* \"CrNFTMarketPlace/josueS/NFTMarketplace.sol\":2475:2489  nfts[_tokenId] */\n      dup2\n      mstore\n      0x20\n      add\n      swap1\n      dup2\n      mstore\n      0x20\n      add\n      0x00\n      keccak256\n        /* \"CrNFTMarketPlace/josueS/NFTMarketplace.sol\":2475:2495  nfts[_tokenId].owner */\n      0x01\n      add\n      0x00\n        /* \"CrNFTMarketPlace/josueS/NFTMarketplace.sol\":2475:2508  nfts[_tokenId].owner = msg.sender */\n      0x0100\n      exp\n      dup2\n      sload\n      dup2\n      0xffffffffffffffffffffffffffffffffffffffff\n      mul\n      not\n      and\n      swap1\n      dup4\n      0xffffffffffffffffffffffffffffffffffffffff\n      and\n      mul\n      or\n      swap1\n      sstore\n      pop\n        /* \"CrNFTMarketPlace/josueS/NFTMarketplace.sol\":2514:2552  removeTokenFromOwner(seller, _tokenId) */\n      tag_98\n        /* \"CrNFTMarketPlace/josueS/NFTMarketplace.sol\":2535:2541  seller */\n      dup4\n        /* \"CrNFTMarketPlace/josueS/NFTMarketplace.sol\":2543:2551  _tokenId */\n      dup8\n        /* \"CrNFTMarketPlace/josueS/NFTMarketplace.sol\":2514:2534  removeTokenFromOwner */\n      tag_99\n        /* \"CrNFTMarketPlace/josueS/NFTMarketplace.sol\":2514:2552  removeTokenFromOwner(seller, _tokenId) */\n      jump\t// in\n    tag_98:\n        /* \"CrNFTMarketPlace/josueS/NFTMarketplace.sol\":2558:2569  ownerTokens */\n      0x06\n        /* \"CrNFTMarketPlace/josueS/NFTMarketplace.sol\":2558:2581  ownerTokens[msg.sender] */\n      0x00\n        /* \"CrNFTMarketPlace/josueS/NFTMarketplace.sol\":2570:2580  msg.sender */\n      caller\n        /* \"CrNFTMarketPlace/josueS/NFTMarketplace.sol\":2558:2581  ownerTokens[msg.sender] */\n      0xffffffffffffffffffffffffffffffffffffffff\n      and\n      0xffffffffffffffffffffffffffffffffffffffff\n      and\n      dup2\n      mstore\n      0x20\n      add\n      swap1\n      dup2\n      mstore\n      0x20\n      add\n      0x00\n      keccak256\n        /* \"CrNFTMarketPlace/josueS/NFTMarketplace.sol\":2587:2595  _tokenId */\n      dup7\n        /* \"CrNFTMarketPlace/josueS/NFTMarketplace.sol\":2558:2596  ownerTokens[msg.sender].push(_tokenId) */\n      swap1\n      dup1\n      0x01\n      dup2\n      sload\n      add\n      dup1\n      dup3\n      sstore\n      dup1\n      swap2\n      pop\n      pop\n      0x01\n      swap1\n      sub\n      swap1\n      0x00\n      mstore\n      keccak256(0x00, 0x20)\n      add\n      0x00\n      swap1\n      swap2\n      swap1\n      swap2\n      swap1\n      swap2\n      pop\n      sstore\n        /* \"CrNFTMarketPlace/josueS/NFTMarketplace.sol\":2657:2662  false */\n      0x00\n        /* \"CrNFTMarketPlace/josueS/NFTMarketplace.sol\":2629:2637  listings */\n      0x05\n        /* \"CrNFTMarketPlace/josueS/NFTMarketplace.sol\":2629:2647  listings[_tokenId] */\n      0x00\n        /* \"CrNFTMarketPlace/josueS/NFTMarketplace.sol\":2638:2646  _tokenId */\n      dup9\n        /* \"CrNFTMarketPlace/josueS/NFTMarketplace.sol\":2629:2647  listings[_tokenId] */\n      dup2\n      mstore\n      0x20\n      add\n      swap1\n      dup2\n      mstore\n      0x20\n      add\n      0x00\n      keccak256\n        /* \"CrNFTMarketPlace/josueS/NFTMarketplace.sol\":2629:2654  listings[_tokenId].active */\n      0x01\n      add\n      0x14\n        /* \"CrNFTMarketPlace/josueS/NFTMarketplace.sol\":2629:2662  listings[_tokenId].active = false */\n      0x0100\n      exp\n      dup2\n      sload\n      dup2\n      0xff\n      mul\n      not\n      and\n      swap1\n      dup4\n      iszero\n      iszero\n      mul\n      or\n      swap1\n      sstore\n      pop\n        /* \"CrNFTMarketPlace/josueS/NFTMarketplace.sol\":2695:2711  bool sentToOwner */\n      0x00\n        /* \"CrNFTMarketPlace/josueS/NFTMarketplace.sol\":2717:2722  owner */\n      0x01\n      0x00\n      swap1\n      sload\n      swap1\n      0x0100\n      exp\n      swap1\n      div\n      0xffffffffffffffffffffffffffffffffffffffff\n      and\n        /* \"CrNFTMarketPlace/josueS/NFTMarketplace.sol\":2717:2727  owner.call */\n      0xffffffffffffffffffffffffffffffffffffffff\n      and\n        /* \"CrNFTMarketPlace/josueS/NFTMarketplace.sol\":2735:2744  feeAmount */\n      dup4\n        /* \"CrNFTMarketPlace/josueS/NFTMarketplace.sol\":2717:2749  owner.call{value: feeAmount}(\"\") */\n      mload(0x40)\n      tag_101\n      swap1\n      tag_102\n      jump\t// in\n    tag_101:\n      0x00\n      mload(0x40)\n      dup1\n      dup4\n      sub\n      dup2\n      dup6\n      dup8\n      gas\n      call\n      swap3\n      pop\n      pop\n      pop\n      returndatasize\n      dup1\n      0x00\n      dup2\n      eq\n      tag_105\n      jumpi\n      mload(0x40)\n      swap2\n      pop\n      and(add(returndatasize, 0x3f), not(0x1f))\n      dup3\n      add\n      0x40\n      mstore\n      returndatasize\n      dup3\n      mstore\n      returndatasize\n      0x00\n      0x20\n      dup5\n      add\n      returndatacopy\n      jump(tag_104)\n    tag_105:\n      0x60\n      swap2\n      pop\n    tag_104:\n      pop\n        /* \"CrNFTMarketPlace/josueS/NFTMarketplace.sol\":2694:2749  (bool sentToOwner, ) = owner.call{value: feeAmount}(\"\") */\n      pop\n      swap1\n      pop\n        /* \"CrNFTMarketPlace/josueS/NFTMarketplace.sol\":2763:2774  sentToOwner */\n      dup1\n        /* \"CrNFTMarketPlace/josueS/NFTMarketplace.sol\":2755:2806  require(sentToOwner, \"Failed to send fee to owner\") */\n      tag_106\n      jumpi\n      mload(0x40)\n      0x08c379a000000000000000000000000000000000000000000000000000000000\n      dup2\n      mstore\n      0x04\n      add\n      tag_107\n      swap1\n      tag_108\n      jump\t// in\n    tag_107:\n      mload(0x40)\n      dup1\n      swap2\n      sub\n      swap1\n      revert\n    tag_106:\n        /* \"CrNFTMarketPlace/josueS/NFTMarketplace.sol\":2814:2831  bool sentToSeller */\n      0x00\n        /* \"CrNFTMarketPlace/josueS/NFTMarketplace.sol\":2837:2843  seller */\n      dup5\n        /* \"CrNFTMarketPlace/josueS/NFTMarketplace.sol\":2837:2848  seller.call */\n      0xffffffffffffffffffffffffffffffffffffffff\n      and\n        /* \"CrNFTMarketPlace/josueS/NFTMarketplace.sol\":2856:2868  sellerAmount */\n      dup4\n        /* \"CrNFTMarketPlace/josueS/NFTMarketplace.sol\":2837:2873  seller.call{value: sellerAmount}(\"\") */\n      mload(0x40)\n      tag_109\n      swap1\n      tag_102\n      jump\t// in\n    tag_109:\n      0x00\n      mload(0x40)\n      dup1\n      dup4\n      sub\n      dup2\n      dup6\n      dup8\n      gas\n      call\n      swap3\n      pop\n      pop\n      pop\n      returndatasize\n      dup1\n      0x00\n      dup2\n      eq\n      tag_112\n      jumpi\n      mload(0x40)\n      swap2\n      pop\n      and(add(returndatasize, 0x3f), not(0x1f))\n      dup3\n      add\n      0x40\n      mstore\n      returndatasize\n      dup3\n      mstore\n      returndatasize\n      0x00\n      0x20\n      dup5\n      add\n      returndatacopy\n      jump(tag_111)\n    tag_112:\n      0x60\n      swap2\n      pop\n    tag_111:\n      pop\n        /* \"CrNFTMarketPlace/josueS/NFTMarketplace.sol\":2813:2873  (bool sentToSeller, ) = seller.call{value: sellerAmount}(\"\") */\n      pop\n      swap1\n      pop\n        /* \"CrNFTMarketPlace/josueS/NFTMarketplace.sol\":2887:2899  sentToSeller */\n      dup1\n        /* \"CrNFTMarketPlace/josueS/NFTMarketplace.sol\":2879:2935  require(sentToSeller, \"Failed to send amount to seller\") */\n      tag_113\n      jumpi\n      mload(0x40)\n      0x08c379a000000000000000000000000000000000000000000000000000000000\n      dup2\n      mstore\n      0x04\n      add\n      tag_114\n      swap1\n      tag_115\n      jump\t// in\n    tag_114:\n      mload(0x40)\n      dup1\n      swap2\n      sub\n      swap1\n      revert\n    tag_113:\n        /* \"CrNFTMarketPlace/josueS/NFTMarketplace.sol\":2971:2991  uint256 excessAmount */\n      0x00\n        /* \"CrNFTMarketPlace/josueS/NFTMarketplace.sol\":3006:3011  price */\n      dup7\n        /* \"CrNFTMarketPlace/josueS/NFTMarketplace.sol\":2994:3003  msg.value */\n      callvalue\n        /* \"CrNFTMarketPlace/josueS/NFTMarketplace.sol\":2994:3011  msg.value - price */\n      tag_116\n      swap2\n      swap1\n      tag_97\n      jump\t// in\n    tag_116:\n        /* \"CrNFTMarketPlace/josueS/NFTMarketplace.sol\":2971:3011  uint256 excessAmount = msg.value - price */\n      swap1\n      pop\n        /* \"CrNFTMarketPlace/josueS/NFTMarketplace.sol\":3036:3037  0 */\n      0x00\n        /* \"CrNFTMarketPlace/josueS/NFTMarketplace.sol\":3021:3033  excessAmount */\n      dup2\n        /* \"CrNFTMarketPlace/josueS/NFTMarketplace.sol\":3021:3037  excessAmount > 0 */\n      gt\n        /* \"CrNFTMarketPlace/josueS/NFTMarketplace.sol\":3017:3177  if (excessAmount > 0) {... */\n      iszero\n      tag_117\n      jumpi\n        /* \"CrNFTMarketPlace/josueS/NFTMarketplace.sol\":3050:3063  bool refunded */\n      0x00\n        /* \"CrNFTMarketPlace/josueS/NFTMarketplace.sol\":3069:3079  msg.sender */\n      caller\n        /* \"CrNFTMarketPlace/josueS/NFTMarketplace.sol\":3069:3084  msg.sender.call */\n      0xffffffffffffffffffffffffffffffffffffffff\n      and\n        /* \"CrNFTMarketPlace/josueS/NFTMarketplace.sol\":3092:3104  excessAmount */\n      dup3\n        /* \"CrNFTMarketPlace/josueS/NFTMarketplace.sol\":3069:3109  msg.sender.call{value: excessAmount}(\"\") */\n      mload(0x40)\n      tag_118\n      swap1\n      tag_102\n      jump\t// in\n    tag_118:\n      0x00\n      mload(0x40)\n      dup1\n      dup4\n      sub\n      dup2\n      dup6\n      dup8\n      gas\n      call\n      swap3\n      pop\n      pop\n      pop\n      returndatasize\n      dup1\n      0x00\n      dup2\n      eq\n      tag_121\n      jumpi\n      mload(0x40)\n      swap2\n      pop\n      and(add(returndatasize, 0x3f), not(0x1f))\n      dup3\n      add\n      0x40\n      mstore\n      returndatasize\n      dup3\n      mstore\n      returndatasize\n      0x00\n      0x20\n      dup5\n      add\n      returndatacopy\n      jump(tag_120)\n    tag_121:\n      0x60\n      swap2\n      pop\n    tag_120:\n      pop\n        /* \"CrNFTMarketPlace/josueS/NFTMarketplace.sol\":3049:3109  (bool refunded, ) = msg.sender.call{value: excessAmount}(\"\") */\n      pop\n      swap1\n      pop\n        /* \"CrNFTMarketPlace/josueS/NFTMarketplace.sol\":3127:3135  refunded */\n      dup1\n        /* \"CrNFTMarketPlace/josueS/NFTMarketplace.sol\":3119:3170  require(refunded, \"Failed to refund excess amount\") */\n      tag_122\n      jumpi\n      mload(0x40)\n      0x08c379a000000000000000000000000000000000000000000000000000000000\n      dup2\n      mstore\n      0x04\n      add\n      tag_123\n      swap1\n      tag_124\n      jump\t// in\n    tag_123:\n      mload(0x40)\n      dup1\n      swap2\n      sub\n      swap1\n      revert\n    tag_122:\n        /* \"CrNFTMarketPlace/josueS/NFTMarketplace.sol\":3039:3177  {... */\n      pop\n        /* \"CrNFTMarketPlace/josueS/NFTMarketplace.sol\":3017:3177  if (excessAmount > 0) {... */\n    tag_117:\n        /* \"CrNFTMarketPlace/josueS/NFTMarketplace.sol\":3213:3221  _tokenId */\n      dup9\n        /* \"CrNFTMarketPlace/josueS/NFTMarketplace.sol\":3201:3211  msg.sender */\n      caller\n        /* \"CrNFTMarketPlace/josueS/NFTMarketplace.sol\":3188:3240  NFTPurchased(msg.sender, _tokenId, price, feeAmount) */\n      0xffffffffffffffffffffffffffffffffffffffff\n      and\n      0x25d1144310b3f5e9cb8ad2e2bd379aef97847a57087ab9cbcd95a06105a4629c\n        /* \"CrNFTMarketPlace/josueS/NFTMarketplace.sol\":3223:3228  price */\n      dup10\n        /* \"CrNFTMarketPlace/josueS/NFTMarketplace.sol\":3230:3239  feeAmount */\n      dup9\n        /* \"CrNFTMarketPlace/josueS/NFTMarketplace.sol\":3188:3240  NFTPurchased(msg.sender, _tokenId, price, feeAmount) */\n      mload(0x40)\n      tag_125\n      swap3\n      swap2\n      swap1\n      tag_126\n      jump\t// in\n    tag_125:\n      mload(0x40)\n      dup1\n      swap2\n      sub\n      swap1\n      log3\n        /* \"CrNFTMarketPlace/josueS/NFTMarketplace.sol\":1912:3243  {... */\n      pop\n      pop\n      pop\n      pop\n      pop\n      pop\n      pop\n      pop\n        /* \"@openzeppelin/contracts/security/ReentrancyGuard.sol\":2303:2323  _nonReentrantAfter() */\n      tag_127\n        /* \"@openzeppelin/contracts/security/ReentrancyGuard.sol\":2303:2321  _nonReentrantAfter */\n      tag_128\n        /* \"@openzeppelin/contracts/security/ReentrancyGuard.sol\":2303:2323  _nonReentrantAfter() */\n      jump\t// in\n    tag_127:\n        /* \"CrNFTMarketPlace/josueS/NFTMarketplace.sol\":1843:3243  function purchaseNFT(uint256 _tokenId) external payable nonReentrant {... */\n      pop\n      jump\t// out\n        /* \"CrNFTMarketPlace/josueS/NFTMarketplace.sol\":683:709  uint256 public totalSupply */\n    tag_20:\n      sload(0x03)\n      dup2\n      jump\t// out\n        /* \"CrNFTMarketPlace/josueS/NFTMarketplace.sol\":715:750  mapping(uint256 => NFT) public nfts */\n    tag_26:\n      mstore(0x20, 0x04)\n      dup1\n      0x00\n      mstore\n      keccak256(0x00, 0x40)\n      0x00\n      swap2\n      pop\n      swap1\n      pop\n      dup1\n      0x00\n      add\n      sload\n      swap1\n      dup1\n      0x01\n      add\n      0x00\n      swap1\n      sload\n      swap1\n      0x0100\n      exp\n      swap1\n      div\n      0xffffffffffffffffffffffffffffffffffffffff\n      and\n      swap1\n      dup1\n      0x02\n      add\n      dup1\n      sload\n      tag_129\n      swap1\n      tag_130\n      jump\t// in\n    tag_129:\n      dup1\n      0x1f\n      add\n      0x20\n      dup1\n      swap2\n      div\n      mul\n      0x20\n      add\n      mload(0x40)\n      swap1\n      dup2\n      add\n      0x40\n      mstore\n      dup1\n      swap3\n      swap2\n      swap1\n      dup2\n      dup2\n      mstore\n      0x20\n      add\n      dup3\n      dup1\n      sload\n      tag_131\n      swap1\n      tag_130\n      jump\t// in\n    tag_131:\n      dup1\n      iszero\n      tag_132\n      jumpi\n      dup1\n      0x1f\n      lt\n      tag_133\n      jumpi\n      0x0100\n      dup1\n      dup4\n      sload\n      div\n      mul\n      dup4\n      mstore\n      swap2\n      0x20\n      add\n      swap2\n      jump(tag_132)\n    tag_133:\n      dup3\n      add\n      swap2\n      swap1\n      0x00\n      mstore\n      keccak256(0x00, 0x20)\n      swap1\n    tag_134:\n      dup2\n      sload\n      dup2\n      mstore\n      swap1\n      0x01\n      add\n      swap1\n      0x20\n      add\n      dup1\n      dup4\n      gt\n      tag_134\n      jumpi\n      dup3\n      swap1\n      sub\n      0x1f\n      and\n      dup3\n      add\n      swap2\n    tag_132:\n      pop\n      pop\n      pop\n      pop\n      pop\n      swap1\n      pop\n      dup4\n      jump\t// out\n        /* \"CrNFTMarketPlace/josueS/NFTMarketplace.sol\":805:853  mapping(address => uint256[]) public ownerTokens */\n    tag_33:\n      mstore(0x20, 0x06)\n      dup2\n      0x00\n      mstore\n      keccak256(0x00, 0x40)\n      dup2\n      dup2\n      sload\n      dup2\n      lt\n      tag_135\n      jumpi\n      0x00\n      dup1\n      revert\n    tag_135:\n      swap1\n      0x00\n      mstore\n      keccak256(0x00, 0x20)\n      add\n      0x00\n      swap2\n      pop\n      swap2\n      pop\n      pop\n      sload\n      dup2\n      jump\t// out\n        /* \"CrNFTMarketPlace/josueS/NFTMarketplace.sol\":3776:3928  function getTokenURI(uint256 _tokenId)... */\n    tag_38:\n        /* \"CrNFTMarketPlace/josueS/NFTMarketplace.sol\":3862:3875  string memory */\n      0x60\n        /* \"CrNFTMarketPlace/josueS/NFTMarketplace.sol\":3898:3902  nfts */\n      0x04\n        /* \"CrNFTMarketPlace/josueS/NFTMarketplace.sol\":3898:3912  nfts[_tokenId] */\n      0x00\n        /* \"CrNFTMarketPlace/josueS/NFTMarketplace.sol\":3903:3911  _tokenId */\n      dup4\n        /* \"CrNFTMarketPlace/josueS/NFTMarketplace.sol\":3898:3912  nfts[_tokenId] */\n      dup2\n      mstore\n      0x20\n      add\n      swap1\n      dup2\n      mstore\n      0x20\n      add\n      0x00\n      keccak256\n        /* \"CrNFTMarketPlace/josueS/NFTMarketplace.sol\":3898:3921  nfts[_tokenId].tokenURI */\n      0x02\n      add\n        /* \"CrNFTMarketPlace/josueS/NFTMarketplace.sol\":3891:3921  return nfts[_tokenId].tokenURI */\n      dup1\n      sload\n      tag_138\n      swap1\n      tag_130\n      jump\t// in\n    tag_138:\n      dup1\n      0x1f\n      add\n      0x20\n      dup1\n      swap2\n      div\n      mul\n      0x20\n      add\n      mload(0x40)\n      swap1\n      dup2\n      add\n      0x40\n      mstore\n      dup1\n      swap3\n      swap2\n      swap1\n      dup2\n      dup2\n      mstore\n      0x20\n      add\n      dup3\n      dup1\n      sload\n      tag_139\n      swap1\n      tag_130\n      jump\t// in\n    tag_139:\n      dup1\n      iszero\n      tag_140\n      jumpi\n      dup1\n      0x1f\n      lt\n      tag_141\n      jumpi\n      0x0100\n      dup1\n      dup4\n      sload\n      div\n      mul\n      dup4\n      mstore\n      swap2\n      0x20\n      add\n      swap2\n      jump(tag_140)\n    tag_141:\n      dup3\n      add\n      swap2\n      swap1\n      0x00\n      mstore\n      keccak256(0x00, 0x20)\n      swap1\n    tag_142:\n      dup2\n      sload\n      dup2\n      mstore\n      swap1\n      0x01\n      add\n      swap1\n      0x20\n      add\n      dup1\n      dup4\n      gt\n      tag_142\n      jumpi\n      dup3\n      swap1\n      sub\n      0x1f\n      and\n      dup3\n      add\n      swap2\n    tag_140:\n      pop\n      pop\n      pop\n      pop\n      pop\n      swap1\n      pop\n        /* \"CrNFTMarketPlace/josueS/NFTMarketplace.sol\":3776:3928  function getTokenURI(uint256 _tokenId)... */\n      swap2\n      swap1\n      pop\n      jump\t// out\n        /* \"CrNFTMarketPlace/josueS/NFTMarketplace.sol\":170:190  address public owner */\n    tag_43:\n      0x01\n      0x00\n      swap1\n      sload\n      swap1\n      0x0100\n      exp\n      swap1\n      div\n      0xffffffffffffffffffffffffffffffffffffffff\n      and\n      dup2\n      jump\t// out\n        /* \"CrNFTMarketPlace/josueS/NFTMarketplace.sol\":1460:1840  function listNFT(uint256 _tokenId, uint256 _price) external {... */\n    tag_50:\n        /* \"CrNFTMarketPlace/josueS/NFTMarketplace.sol\":1562:1572  msg.sender */\n      caller\n        /* \"CrNFTMarketPlace/josueS/NFTMarketplace.sol\":1538:1572  nfts[_tokenId].owner == msg.sender */\n      0xffffffffffffffffffffffffffffffffffffffff\n      and\n        /* \"CrNFTMarketPlace/josueS/NFTMarketplace.sol\":1538:1542  nfts */\n      0x04\n        /* \"CrNFTMarketPlace/josueS/NFTMarketplace.sol\":1538:1552  nfts[_tokenId] */\n      0x00\n        /* \"CrNFTMarketPlace/josueS/NFTMarketplace.sol\":1543:1551  _tokenId */\n      dup5\n        /* \"CrNFTMarketPlace/josueS/NFTMarketplace.sol\":1538:1552  nfts[_tokenId] */\n      dup2\n      mstore\n      0x20\n      add\n      swap1\n      dup2\n      mstore\n      0x20\n      add\n      0x00\n      keccak256\n        /* \"CrNFTMarketPlace/josueS/NFTMarketplace.sol\":1538:1558  nfts[_tokenId].owner */\n      0x01\n      add\n      0x00\n      swap1\n      sload\n      swap1\n      0x0100\n      exp\n      swap1\n      div\n      0xffffffffffffffffffffffffffffffffffffffff\n      and\n        /* \"CrNFTMarketPlace/josueS/NFTMarketplace.sol\":1538:1572  nfts[_tokenId].owner == msg.sender */\n      0xffffffffffffffffffffffffffffffffffffffff\n      and\n      eq\n        /* \"CrNFTMarketPlace/josueS/NFTMarketplace.sol\":1530:1590  require(nfts[_tokenId].owner == msg.sender, \"Not the owner\") */\n      tag_144\n      jumpi\n      mload(0x40)\n      0x08c379a000000000000000000000000000000000000000000000000000000000\n      dup2\n      mstore\n      0x04\n      add\n      tag_145\n      swap1\n      tag_146\n      jump\t// in\n    tag_145:\n      mload(0x40)\n      dup1\n      swap2\n      sub\n      swap1\n      revert\n    tag_144:\n        /* \"CrNFTMarketPlace/josueS/NFTMarketplace.sol\":1617:1618  0 */\n      0x00\n        /* \"CrNFTMarketPlace/josueS/NFTMarketplace.sol\":1608:1614  _price */\n      dup2\n        /* \"CrNFTMarketPlace/josueS/NFTMarketplace.sol\":1608:1618  _price > 0 */\n      gt\n        /* \"CrNFTMarketPlace/josueS/NFTMarketplace.sol\":1600:1654  require(_price > 0, \"Price must be greater than zero\") */\n      tag_147\n      jumpi\n      mload(0x40)\n      0x08c379a000000000000000000000000000000000000000000000000000000000\n      dup2\n      mstore\n      0x04\n      add\n      tag_148\n      swap1\n      tag_149\n      jump\t// in\n    tag_148:\n      mload(0x40)\n      dup1\n      swap2\n      sub\n      swap1\n      revert\n    tag_147:\n        /* \"CrNFTMarketPlace/josueS/NFTMarketplace.sol\":1686:1790  Listing({... */\n      mload(0x40)\n      dup1\n      0x60\n      add\n      0x40\n      mstore\n      dup1\n        /* \"CrNFTMarketPlace/josueS/NFTMarketplace.sol\":1715:1721  _price */\n      dup3\n        /* \"CrNFTMarketPlace/josueS/NFTMarketplace.sol\":1686:1790  Listing({... */\n      dup2\n      mstore\n      0x20\n      add\n        /* \"CrNFTMarketPlace/josueS/NFTMarketplace.sol\":1743:1753  msg.sender */\n      caller\n        /* \"CrNFTMarketPlace/josueS/NFTMarketplace.sol\":1686:1790  Listing({... */\n      0xffffffffffffffffffffffffffffffffffffffff\n      and\n      dup2\n      mstore\n      0x20\n      add\n        /* \"CrNFTMarketPlace/josueS/NFTMarketplace.sol\":1775:1779  true */\n      0x01\n        /* \"CrNFTMarketPlace/josueS/NFTMarketplace.sol\":1686:1790  Listing({... */\n      iszero\n      iszero\n      dup2\n      mstore\n      pop\n        /* \"CrNFTMarketPlace/josueS/NFTMarketplace.sol\":1665:1673  listings */\n      0x05\n        /* \"CrNFTMarketPlace/josueS/NFTMarketplace.sol\":1665:1683  listings[_tokenId] */\n      0x00\n        /* \"CrNFTMarketPlace/josueS/NFTMarketplace.sol\":1674:1682  _tokenId */\n      dup5\n        /* \"CrNFTMarketPlace/josueS/NFTMarketplace.sol\":1665:1683  listings[_tokenId] */\n      dup2\n      mstore\n      0x20\n      add\n      swap1\n      dup2\n      mstore\n      0x20\n      add\n      0x00\n      keccak256\n        /* \"CrNFTMarketPlace/josueS/NFTMarketplace.sol\":1665:1790  listings[_tokenId] = Listing({... */\n      0x00\n      dup3\n      add\n      mload\n      dup2\n      0x00\n      add\n      sstore\n      0x20\n      dup3\n      add\n      mload\n      dup2\n      0x01\n      add\n      exp(0x0100, 0x00)\n      dup2\n      sload\n      dup2\n      0xffffffffffffffffffffffffffffffffffffffff\n      mul\n      not\n      and\n      swap1\n      dup4\n      0xffffffffffffffffffffffffffffffffffffffff\n      and\n      mul\n      or\n      swap1\n      sstore\n      pop\n      0x40\n      dup3\n      add\n      mload\n      dup2\n      0x01\n      add\n      exp(0x0100, 0x14)\n      dup2\n      sload\n      dup2\n      0xff\n      mul\n      not\n      and\n      swap1\n      dup4\n      iszero\n      iszero\n      mul\n      or\n      swap1\n      sstore\n      pop\n      swap1\n      pop\n      pop\n        /* \"CrNFTMarketPlace/josueS/NFTMarketplace.sol\":1816:1824  _tokenId */\n      dup2\n        /* \"CrNFTMarketPlace/josueS/NFTMarketplace.sol\":1806:1833  NFTListed(_tokenId, _price) */\n      0xa6cd73580a273eec6c1026108f6b63479fbaef5356dde4ff43e4b38dd187485f\n        /* \"CrNFTMarketPlace/josueS/NFTMarketplace.sol\":1826:1832  _price */\n      dup3\n        /* \"CrNFTMarketPlace/josueS/NFTMarketplace.sol\":1806:1833  NFTListed(_tokenId, _price) */\n      mload(0x40)\n      tag_150\n      swap2\n      swap1\n      tag_22\n      jump\t// in\n    tag_150:\n      mload(0x40)\n      dup1\n      swap2\n      sub\n      swap1\n      log2\n        /* \"CrNFTMarketPlace/josueS/NFTMarketplace.sol\":1460:1840  function listNFT(uint256 _tokenId, uint256 _price) external {... */\n      pop\n      pop\n      jump\t// out\n        /* \"CrNFTMarketPlace/josueS/NFTMarketplace.sol\":3618:3770  function getOwnerTokens(address _owner)... */\n    tag_55:\n        /* \"CrNFTMarketPlace/josueS/NFTMarketplace.sol\":3705:3721  uint256[] memory */\n      0x60\n        /* \"CrNFTMarketPlace/josueS/NFTMarketplace.sol\":3744:3755  ownerTokens */\n      0x06\n        /* \"CrNFTMarketPlace/josueS/NFTMarketplace.sol\":3744:3763  ownerTokens[_owner] */\n      0x00\n        /* \"CrNFTMarketPlace/josueS/NFTMarketplace.sol\":3756:3762  _owner */\n      dup4\n        /* \"CrNFTMarketPlace/josueS/NFTMarketplace.sol\":3744:3763  ownerTokens[_owner] */\n      0xffffffffffffffffffffffffffffffffffffffff\n      and\n      0xffffffffffffffffffffffffffffffffffffffff\n      and\n      dup2\n      mstore\n      0x20\n      add\n      swap1\n      dup2\n      mstore\n      0x20\n      add\n      0x00\n      keccak256\n        /* \"CrNFTMarketPlace/josueS/NFTMarketplace.sol\":3737:3763  return ownerTokens[_owner] */\n      dup1\n      sload\n      dup1\n      0x20\n      mul\n      0x20\n      add\n      mload(0x40)\n      swap1\n      dup2\n      add\n      0x40\n      mstore\n      dup1\n      swap3\n      swap2\n      swap1\n      dup2\n      dup2\n      mstore\n      0x20\n      add\n      dup3\n      dup1\n      sload\n      dup1\n      iszero\n      tag_152\n      jumpi\n      0x20\n      mul\n      dup3\n      add\n      swap2\n      swap1\n      0x00\n      mstore\n      keccak256(0x00, 0x20)\n      swap1\n    tag_153:\n      dup2\n      sload\n      dup2\n      mstore\n      0x20\n      add\n      swap1\n      0x01\n      add\n      swap1\n      dup1\n      dup4\n      gt\n      tag_153\n      jumpi\n    tag_152:\n      pop\n      pop\n      pop\n      pop\n      pop\n      swap1\n      pop\n        /* \"CrNFTMarketPlace/josueS/NFTMarketplace.sol\":3618:3770  function getOwnerTokens(address _owner)... */\n      swap2\n      swap1\n      pop\n      jump\t// out\n        /* \"CrNFTMarketPlace/josueS/NFTMarketplace.sol\":1087:1454  function mint(string memory _tokenURI) external {... */\n    tag_62:\n        /* \"CrNFTMarketPlace/josueS/NFTMarketplace.sol\":1145:1163  uint256 newTokenId */\n      0x00\n        /* \"CrNFTMarketPlace/josueS/NFTMarketplace.sol\":1180:1181  1 */\n      0x01\n        /* \"CrNFTMarketPlace/josueS/NFTMarketplace.sol\":1166:1177  totalSupply */\n      sload(0x03)\n        /* \"CrNFTMarketPlace/josueS/NFTMarketplace.sol\":1166:1181  totalSupply + 1 */\n      tag_155\n      swap2\n      swap1\n      tag_156\n      jump\t// in\n    tag_155:\n        /* \"CrNFTMarketPlace/josueS/NFTMarketplace.sol\":1145:1181  uint256 newTokenId = totalSupply + 1 */\n      swap1\n      pop\n        /* \"CrNFTMarketPlace/josueS/NFTMarketplace.sol\":1211:1323  NFT({... */\n      mload(0x40)\n      dup1\n      0x60\n      add\n      0x40\n      mstore\n      dup1\n        /* \"CrNFTMarketPlace/josueS/NFTMarketplace.sol\":1238:1248  newTokenId */\n      dup3\n        /* \"CrNFTMarketPlace/josueS/NFTMarketplace.sol\":1211:1323  NFT({... */\n      dup2\n      mstore\n      0x20\n      add\n        /* \"CrNFTMarketPlace/josueS/NFTMarketplace.sol\":1269:1279  msg.sender */\n      caller\n        /* \"CrNFTMarketPlace/josueS/NFTMarketplace.sol\":1211:1323  NFT({... */\n      0xffffffffffffffffffffffffffffffffffffffff\n      and\n      dup2\n      mstore\n      0x20\n      add\n        /* \"CrNFTMarketPlace/josueS/NFTMarketplace.sol\":1303:1312  _tokenURI */\n      dup4\n        /* \"CrNFTMarketPlace/josueS/NFTMarketplace.sol\":1211:1323  NFT({... */\n      dup2\n      mstore\n      pop\n        /* \"CrNFTMarketPlace/josueS/NFTMarketplace.sol\":1192:1196  nfts */\n      0x04\n        /* \"CrNFTMarketPlace/josueS/NFTMarketplace.sol\":1192:1208  nfts[newTokenId] */\n      0x00\n        /* \"CrNFTMarketPlace/josueS/NFTMarketplace.sol\":1197:1207  newTokenId */\n      dup4\n        /* \"CrNFTMarketPlace/josueS/NFTMarketplace.sol\":1192:1208  nfts[newTokenId] */\n      dup2\n      mstore\n      0x20\n      add\n      swap1\n      dup2\n      mstore\n      0x20\n      add\n      0x00\n      keccak256\n        /* \"CrNFTMarketPlace/josueS/NFTMarketplace.sol\":1192:1323  nfts[newTokenId] = NFT({... */\n      0x00\n      dup3\n      add\n      mload\n      dup2\n      0x00\n      add\n      sstore\n      0x20\n      dup3\n      add\n      mload\n      dup2\n      0x01\n      add\n      exp(0x0100, 0x00)\n      dup2\n      sload\n      dup2\n      0xffffffffffffffffffffffffffffffffffffffff\n      mul\n      not\n      and\n      swap1\n      dup4\n      0xffffffffffffffffffffffffffffffffffffffff\n      and\n      mul\n      or\n      swap1\n      sstore\n      pop\n      0x40\n      dup3\n      add\n      mload\n      dup2\n      0x02\n      add\n      swap1\n      dup2\n      tag_157\n      swap2\n      swap1\n      tag_158\n      jump\t// in\n    tag_157:\n      pop\n      swap1\n      pop\n      pop\n        /* \"CrNFTMarketPlace/josueS/NFTMarketplace.sol\":1334:1345  ownerTokens */\n      0x06\n        /* \"CrNFTMarketPlace/josueS/NFTMarketplace.sol\":1334:1357  ownerTokens[msg.sender] */\n      0x00\n        /* \"CrNFTMarketPlace/josueS/NFTMarketplace.sol\":1346:1356  msg.sender */\n      caller\n        /* \"CrNFTMarketPlace/josueS/NFTMarketplace.sol\":1334:1357  ownerTokens[msg.sender] */\n      0xffffffffffffffffffffffffffffffffffffffff\n      and\n      0xffffffffffffffffffffffffffffffffffffffff\n      and\n      dup2\n      mstore\n      0x20\n      add\n      swap1\n      dup2\n      mstore\n      0x20\n      add\n      0x00\n      keccak256\n        /* \"CrNFTMarketPlace/josueS/NFTMarketplace.sol\":1363:1373  newTokenId */\n      dup2\n        /* \"CrNFTMarketPlace/josueS/NFTMarketplace.sol\":1334:1374  ownerTokens[msg.sender].push(newTokenId) */\n      swap1\n      dup1\n      0x01\n      dup2\n      sload\n      add\n      dup1\n      dup3\n      sstore\n      dup1\n      swap2\n      pop\n      pop\n      0x01\n      swap1\n      sub\n      swap1\n      0x00\n      mstore\n      keccak256(0x00, 0x20)\n      add\n      0x00\n      swap1\n      swap2\n      swap1\n      swap2\n      swap1\n      swap2\n      pop\n      sstore\n        /* \"CrNFTMarketPlace/josueS/NFTMarketplace.sol\":1385:1396  totalSupply */\n      0x03\n      0x00\n        /* \"CrNFTMarketPlace/josueS/NFTMarketplace.sol\":1385:1398  totalSupply++ */\n      dup2\n      sload\n      dup1\n      swap3\n      swap2\n      swap1\n      tag_160\n      swap1\n      tag_161\n      jump\t// in\n    tag_160:\n      swap2\n      swap1\n      pop\n      sstore\n      pop\n        /* \"CrNFTMarketPlace/josueS/NFTMarketplace.sol\":1436:1446  newTokenId */\n      dup1\n        /* \"CrNFTMarketPlace/josueS/NFTMarketplace.sol\":1424:1434  msg.sender */\n      caller\n        /* \"CrNFTMarketPlace/josueS/NFTMarketplace.sol\":1414:1447  NFTMinted(msg.sender, newTokenId) */\n      0xffffffffffffffffffffffffffffffffffffffff\n      and\n      0x4cc0a9c4a99ddc700de1af2c9f916a7cbfdb71f14801ccff94061ad1ef8a8040\n      mload(0x40)\n      mload(0x40)\n      dup1\n      swap2\n      sub\n      swap1\n      log3\n        /* \"CrNFTMarketPlace/josueS/NFTMarketplace.sol\":1135:1454  {... */\n      pop\n        /* \"CrNFTMarketPlace/josueS/NFTMarketplace.sol\":1087:1454  function mint(string memory _tokenURI) external {... */\n      pop\n      jump\t// out\n        /* \"CrNFTMarketPlace/josueS/NFTMarketplace.sol\":196:214  uint256 public fee */\n    tag_65:\n      sload(0x02)\n      dup2\n      jump\t// out\n        /* \"CrNFTMarketPlace/josueS/NFTMarketplace.sol\":756:799  mapping(uint256 => Listing) public listings */\n    tag_70:\n      mstore(0x20, 0x05)\n      dup1\n      0x00\n      mstore\n      keccak256(0x00, 0x40)\n      0x00\n      swap2\n      pop\n      swap1\n      pop\n      dup1\n      0x00\n      add\n      sload\n      swap1\n      dup1\n      0x01\n      add\n      0x00\n      swap1\n      sload\n      swap1\n      0x0100\n      exp\n      swap1\n      div\n      0xffffffffffffffffffffffffffffffffffffffff\n      and\n      swap1\n      dup1\n      0x01\n      add\n      0x14\n      swap1\n      sload\n      swap1\n      0x0100\n      exp\n      swap1\n      div\n      0xff\n      and\n      swap1\n      pop\n      dup4\n      jump\t// out\n        /* \"@openzeppelin/contracts/security/ReentrancyGuard.sol\":2336:2623  function _nonReentrantBefore() private {... */\n    tag_75:\n        /* \"@openzeppelin/contracts/security/ReentrancyGuard.sol\":1759:1760  2 */\n      0x02\n        /* \"@openzeppelin/contracts/security/ReentrancyGuard.sol\":2468:2475  _status */\n      sload(0x00)\n        /* \"@openzeppelin/contracts/security/ReentrancyGuard.sol\":2468:2487  _status != _ENTERED */\n      sub\n        /* \"@openzeppelin/contracts/security/ReentrancyGuard.sol\":2460:2523  require(_status != _ENTERED, \"ReentrancyGuard: reentrant call\") */\n      tag_163\n      jumpi\n      mload(0x40)\n      0x08c379a000000000000000000000000000000000000000000000000000000000\n      dup2\n      mstore\n      0x04\n      add\n      tag_164\n      swap1\n      tag_165\n      jump\t// in\n    tag_164:\n      mload(0x40)\n      dup1\n      swap2\n      sub\n      swap1\n      revert\n    tag_163:\n        /* \"@openzeppelin/contracts/security/ReentrancyGuard.sol\":1759:1760  2 */\n      0x02\n        /* \"@openzeppelin/contracts/security/ReentrancyGuard.sol\":2598:2605  _status */\n      0x00\n        /* \"@openzeppelin/contracts/security/ReentrancyGuard.sol\":2598:2616  _status = _ENTERED */\n      dup2\n      swap1\n      sstore\n      pop\n        /* \"@openzeppelin/contracts/security/ReentrancyGuard.sol\":2336:2623  function _nonReentrantBefore() private {... */\n      jump\t// out\n        /* \"CrNFTMarketPlace/josueS/NFTMarketplace.sol\":3249:3612  function removeTokenFromOwner(address _owner, uint256 _tokenId) internal {... */\n    tag_99:\n        /* \"CrNFTMarketPlace/josueS/NFTMarketplace.sol\":3332:3356  uint256[] storage tokens */\n      0x00\n        /* \"CrNFTMarketPlace/josueS/NFTMarketplace.sol\":3359:3370  ownerTokens */\n      0x06\n        /* \"CrNFTMarketPlace/josueS/NFTMarketplace.sol\":3359:3378  ownerTokens[_owner] */\n      0x00\n        /* \"CrNFTMarketPlace/josueS/NFTMarketplace.sol\":3371:3377  _owner */\n      dup5\n        /* \"CrNFTMarketPlace/josueS/NFTMarketplace.sol\":3359:3378  ownerTokens[_owner] */\n      0xffffffffffffffffffffffffffffffffffffffff\n      and\n      0xffffffffffffffffffffffffffffffffffffffff\n      and\n      dup2\n      mstore\n      0x20\n      add\n      swap1\n      dup2\n      mstore\n      0x20\n      add\n      0x00\n      keccak256\n        /* \"CrNFTMarketPlace/josueS/NFTMarketplace.sol\":3332:3378  uint256[] storage tokens = ownerTokens[_owner] */\n      swap1\n      pop\n        /* \"CrNFTMarketPlace/josueS/NFTMarketplace.sol\":3393:3402  uint256 i */\n      0x00\n        /* \"CrNFTMarketPlace/josueS/NFTMarketplace.sol\":3405:3406  0 */\n      0x00\n        /* \"CrNFTMarketPlace/josueS/NFTMarketplace.sol\":3393:3406  uint256 i = 0 */\n      swap1\n      pop\n        /* \"CrNFTMarketPlace/josueS/NFTMarketplace.sol\":3388:3606  for (uint256 i = 0; i < tokens.length; i++) {... */\n    tag_167:\n        /* \"CrNFTMarketPlace/josueS/NFTMarketplace.sol\":3412:3418  tokens */\n      dup2\n        /* \"CrNFTMarketPlace/josueS/NFTMarketplace.sol\":3412:3425  tokens.length */\n      dup1\n      sload\n      swap1\n      pop\n        /* \"CrNFTMarketPlace/josueS/NFTMarketplace.sol\":3408:3409  i */\n      dup2\n        /* \"CrNFTMarketPlace/josueS/NFTMarketplace.sol\":3408:3425  i < tokens.length */\n      lt\n        /* \"CrNFTMarketPlace/josueS/NFTMarketplace.sol\":3388:3606  for (uint256 i = 0; i < tokens.length; i++) {... */\n      iszero\n      tag_168\n      jumpi\n        /* \"CrNFTMarketPlace/josueS/NFTMarketplace.sol\":3463:3471  _tokenId */\n      dup3\n        /* \"CrNFTMarketPlace/josueS/NFTMarketplace.sol\":3450:3456  tokens */\n      dup3\n        /* \"CrNFTMarketPlace/josueS/NFTMarketplace.sol\":3457:3458  i */\n      dup3\n        /* \"CrNFTMarketPlace/josueS/NFTMarketplace.sol\":3450:3459  tokens[i] */\n      dup2\n      sload\n      dup2\n      lt\n      tag_170\n      jumpi\n      tag_171\n      tag_172\n      jump\t// in\n    tag_171:\n    tag_170:\n      swap1\n      0x00\n      mstore\n      keccak256(0x00, 0x20)\n      add\n      sload\n        /* \"CrNFTMarketPlace/josueS/NFTMarketplace.sol\":3450:3471  tokens[i] == _tokenId */\n      sub\n        /* \"CrNFTMarketPlace/josueS/NFTMarketplace.sol\":3446:3596  if (tokens[i] == _tokenId) {... */\n      tag_174\n      jumpi\n        /* \"CrNFTMarketPlace/josueS/NFTMarketplace.sol\":3503:3509  tokens */\n      dup2\n        /* \"CrNFTMarketPlace/josueS/NFTMarketplace.sol\":3526:3527  1 */\n      0x01\n        /* \"CrNFTMarketPlace/josueS/NFTMarketplace.sol\":3510:3516  tokens */\n      dup4\n        /* \"CrNFTMarketPlace/josueS/NFTMarketplace.sol\":3510:3523  tokens.length */\n      dup1\n      sload\n      swap1\n      pop\n        /* \"CrNFTMarketPlace/josueS/NFTMarketplace.sol\":3510:3527  tokens.length - 1 */\n      tag_175\n      swap2\n      swap1\n      tag_97\n      jump\t// in\n    tag_175:\n        /* \"CrNFTMarketPlace/josueS/NFTMarketplace.sol\":3503:3528  tokens[tokens.length - 1] */\n      dup2\n      sload\n      dup2\n      lt\n      tag_176\n      jumpi\n      tag_177\n      tag_172\n      jump\t// in\n    tag_177:\n    tag_176:\n      swap1\n      0x00\n      mstore\n      keccak256(0x00, 0x20)\n      add\n      sload\n        /* \"CrNFTMarketPlace/josueS/NFTMarketplace.sol\":3491:3497  tokens */\n      dup3\n        /* \"CrNFTMarketPlace/josueS/NFTMarketplace.sol\":3498:3499  i */\n      dup3\n        /* \"CrNFTMarketPlace/josueS/NFTMarketplace.sol\":3491:3500  tokens[i] */\n      dup2\n      sload\n      dup2\n      lt\n      tag_179\n      jumpi\n      tag_180\n      tag_172\n      jump\t// in\n    tag_180:\n    tag_179:\n      swap1\n      0x00\n      mstore\n      keccak256(0x00, 0x20)\n      add\n        /* \"CrNFTMarketPlace/josueS/NFTMarketplace.sol\":3491:3528  tokens[i] = tokens[tokens.length - 1] */\n      dup2\n      swap1\n      sstore\n      pop\n        /* \"CrNFTMarketPlace/josueS/NFTMarketplace.sol\":3546:3552  tokens */\n      dup2\n        /* \"CrNFTMarketPlace/josueS/NFTMarketplace.sol\":3546:3558  tokens.pop() */\n      dup1\n      sload\n      dup1\n      tag_182\n      jumpi\n      tag_183\n      tag_184\n      jump\t// in\n    tag_183:\n    tag_182:\n      0x01\n      swap1\n      sub\n      dup2\n      dup2\n      swap1\n      0x00\n      mstore\n      keccak256(0x00, 0x20)\n      add\n      0x00\n      swap1\n      sstore\n      swap1\n      sstore\n        /* \"CrNFTMarketPlace/josueS/NFTMarketplace.sol\":3576:3581  break */\n      jump(tag_168)\n        /* \"CrNFTMarketPlace/josueS/NFTMarketplace.sol\":3446:3596  if (tokens[i] == _tokenId) {... */\n    tag_174:\n        /* \"CrNFTMarketPlace/josueS/NFTMarketplace.sol\":3427:3430  i++ */\n      dup1\n      dup1\n      0x01\n      add\n      swap2\n      pop\n      pop\n        /* \"CrNFTMarketPlace/josueS/NFTMarketplace.sol\":3388:3606  for (uint256 i = 0; i < tokens.length; i++) {... */\n      jump(tag_167)\n    tag_168:\n      pop\n        /* \"CrNFTMarketPlace/josueS/NFTMarketplace.sol\":3322:3612  {... */\n      pop\n        /* \"CrNFTMarketPlace/josueS/NFTMarketplace.sol\":3249:3612  function removeTokenFromOwner(address _owner, uint256 _tokenId) internal {... */\n      pop\n      pop\n      jump\t// out\n        /* \"@openzeppelin/contracts/security/ReentrancyGuard.sol\":2629:2838  function _nonReentrantAfter() private {... */\n    tag_128:\n        /* \"@openzeppelin/contracts/security/ReentrancyGuard.sol\":1716:1717  1 */\n      0x01\n        /* \"@openzeppelin/contracts/security/ReentrancyGuard.sol\":2809:2816  _status */\n      0x00\n        /* \"@openzeppelin/contracts/security/ReentrancyGuard.sol\":2809:2831  _status = _NOT_ENTERED */\n      dup2\n      swap1\n      sstore\n      pop\n        /* \"@openzeppelin/contracts/security/ReentrancyGuard.sol\":2629:2838  function _nonReentrantAfter() private {... */\n      jump\t// out\n        /* \"#utility.yul\":7:82   */\n    tag_187:\n        /* \"#utility.yul\":40:46   */\n      0x00\n        /* \"#utility.yul\":73:75   */\n      0x40\n        /* \"#utility.yul\":67:76   */\n      mload\n        /* \"#utility.yul\":57:76   */\n      swap1\n      pop\n        /* \"#utility.yul\":7:82   */\n      swap1\n      jump\t// out\n        /* \"#utility.yul\":88:205   */\n    tag_188:\n        /* \"#utility.yul\":197:198   */\n      0x00\n        /* \"#utility.yul\":194:195   */\n      0x00\n        /* \"#utility.yul\":187:199   */\n      revert\n        /* \"#utility.yul\":211:328   */\n    tag_189:\n        /* \"#utility.yul\":320:321   */\n      0x00\n        /* \"#utility.yul\":317:318   */\n      0x00\n        /* \"#utility.yul\":310:322   */\n      revert\n        /* \"#utility.yul\":334:411   */\n    tag_190:\n        /* \"#utility.yul\":371:378   */\n      0x00\n        /* \"#utility.yul\":400:405   */\n      dup2\n        /* \"#utility.yul\":389:405   */\n      swap1\n      pop\n        /* \"#utility.yul\":334:411   */\n      swap2\n      swap1\n      pop\n      jump\t// out\n        /* \"#utility.yul\":417:539   */\n    tag_191:\n        /* \"#utility.yul\":490:514   */\n      tag_271\n        /* \"#utility.yul\":508:513   */\n      dup2\n        /* \"#utility.yul\":490:514   */\n      tag_190\n      jump\t// in\n    tag_271:\n        /* \"#utility.yul\":483:488   */\n      dup2\n        /* \"#utility.yul\":480:515   */\n      eq\n        /* \"#utility.yul\":470:533   */\n      tag_272\n      jumpi\n        /* \"#utility.yul\":529:530   */\n      0x00\n        /* \"#utility.yul\":526:527   */\n      0x00\n        /* \"#utility.yul\":519:531   */\n      revert\n        /* \"#utility.yul\":470:533   */\n    tag_272:\n        /* \"#utility.yul\":417:539   */\n      pop\n      jump\t// out\n        /* \"#utility.yul\":545:684   */\n    tag_192:\n        /* \"#utility.yul\":591:596   */\n      0x00\n        /* \"#utility.yul\":629:635   */\n      dup2\n        /* \"#utility.yul\":616:636   */\n      calldataload\n        /* \"#utility.yul\":607:636   */\n      swap1\n      pop\n        /* \"#utility.yul\":645:678   */\n      tag_274\n        /* \"#utility.yul\":672:677   */\n      dup2\n        /* \"#utility.yul\":645:678   */\n      tag_191\n      jump\t// in\n    tag_274:\n        /* \"#utility.yul\":545:684   */\n      swap3\n      swap2\n      pop\n      pop\n      jump\t// out\n        /* \"#utility.yul\":690:1019   */\n    tag_16:\n        /* \"#utility.yul\":749:755   */\n      0x00\n        /* \"#utility.yul\":798:800   */\n      0x20\n        /* \"#utility.yul\":786:795   */\n      dup3\n        /* \"#utility.yul\":777:784   */\n      dup5\n        /* \"#utility.yul\":773:796   */\n      sub\n        /* \"#utility.yul\":769:801   */\n      slt\n        /* \"#utility.yul\":766:885   */\n      iszero\n      tag_276\n      jumpi\n        /* \"#utility.yul\":804:883   */\n      tag_277\n      tag_188\n      jump\t// in\n    tag_277:\n        /* \"#utility.yul\":766:885   */\n    tag_276:\n        /* \"#utility.yul\":924:925   */\n      0x00\n        /* \"#utility.yul\":949:1002   */\n      tag_278\n        /* \"#utility.yul\":994:1001   */\n      dup5\n        /* \"#utility.yul\":985:991   */\n      dup3\n        /* \"#utility.yul\":974:983   */\n      dup6\n        /* \"#utility.yul\":970:992   */\n      add\n        /* \"#utility.yul\":949:1002   */\n      tag_192\n      jump\t// in\n    tag_278:\n        /* \"#utility.yul\":939:1002   */\n      swap2\n      pop\n        /* \"#utility.yul\":895:1012   */\n      pop\n        /* \"#utility.yul\":690:1019   */\n      swap3\n      swap2\n      pop\n      pop\n      jump\t// out\n        /* \"#utility.yul\":1025:1143   */\n    tag_193:\n        /* \"#utility.yul\":1112:1136   */\n      tag_280\n        /* \"#utility.yul\":1130:1135   */\n      dup2\n        /* \"#utility.yul\":1112:1136   */\n      tag_190\n      jump\t// in\n    tag_280:\n        /* \"#utility.yul\":1107:1110   */\n      dup3\n        /* \"#utility.yul\":1100:1137   */\n      mstore\n        /* \"#utility.yul\":1025:1143   */\n      pop\n      pop\n      jump\t// out\n        /* \"#utility.yul\":1149:1371   */\n    tag_22:\n        /* \"#utility.yul\":1242:1246   */\n      0x00\n        /* \"#utility.yul\":1280:1282   */\n      0x20\n        /* \"#utility.yul\":1269:1278   */\n      dup3\n        /* \"#utility.yul\":1265:1283   */\n      add\n        /* \"#utility.yul\":1257:1283   */\n      swap1\n      pop\n        /* \"#utility.yul\":1293:1364   */\n      tag_282\n        /* \"#utility.yul\":1361:1362   */\n      0x00\n        /* \"#utility.yul\":1350:1359   */\n      dup4\n        /* \"#utility.yul\":1346:1363   */\n      add\n        /* \"#utility.yul\":1337:1343   */\n      dup5\n        /* \"#utility.yul\":1293:1364   */\n      tag_193\n      jump\t// in\n    tag_282:\n        /* \"#utility.yul\":1149:1371   */\n      swap3\n      swap2\n      pop\n      pop\n      jump\t// out\n        /* \"#utility.yul\":1377:1503   */\n    tag_194:\n        /* \"#utility.yul\":1414:1421   */\n      0x00\n        /* \"#utility.yul\":1454:1496   */\n      0xffffffffffffffffffffffffffffffffffffffff\n        /* \"#utility.yul\":1447:1452   */\n      dup3\n        /* \"#utility.yul\":1443:1497   */\n      and\n        /* \"#utility.yul\":1432:1497   */\n      swap1\n      pop\n        /* \"#utility.yul\":1377:1503   */\n      swap2\n      swap1\n      pop\n      jump\t// out\n        /* \"#utility.yul\":1509:1605   */\n    tag_195:\n        /* \"#utility.yul\":1546:1553   */\n      0x00\n        /* \"#utility.yul\":1575:1599   */\n      tag_285\n        /* \"#utility.yul\":1593:1598   */\n      dup3\n        /* \"#utility.yul\":1575:1599   */\n      tag_194\n      jump\t// in\n    tag_285:\n        /* \"#utility.yul\":1564:1599   */\n      swap1\n      pop\n        /* \"#utility.yul\":1509:1605   */\n      swap2\n      swap1\n      pop\n      jump\t// out\n        /* \"#utility.yul\":1611:1729   */\n    tag_196:\n        /* \"#utility.yul\":1698:1722   */\n      tag_287\n        /* \"#utility.yul\":1716:1721   */\n      dup2\n        /* \"#utility.yul\":1698:1722   */\n      tag_195\n      jump\t// in\n    tag_287:\n        /* \"#utility.yul\":1693:1696   */\n      dup3\n        /* \"#utility.yul\":1686:1723   */\n      mstore\n        /* \"#utility.yul\":1611:1729   */\n      pop\n      pop\n      jump\t// out\n        /* \"#utility.yul\":1735:1834   */\n    tag_197:\n        /* \"#utility.yul\":1787:1793   */\n      0x00\n        /* \"#utility.yul\":1821:1826   */\n      dup2\n        /* \"#utility.yul\":1815:1827   */\n      mload\n        /* \"#utility.yul\":1805:1827   */\n      swap1\n      pop\n        /* \"#utility.yul\":1735:1834   */\n      swap2\n      swap1\n      pop\n      jump\t// out\n        /* \"#utility.yul\":1840:2009   */\n    tag_198:\n        /* \"#utility.yul\":1924:1935   */\n      0x00\n        /* \"#utility.yul\":1958:1964   */\n      dup3\n        /* \"#utility.yul\":1953:1956   */\n      dup3\n        /* \"#utility.yul\":1946:1965   */\n      mstore\n        /* \"#utility.yul\":1998:2002   */\n      0x20\n        /* \"#utility.yul\":1993:1996   */\n      dup3\n        /* \"#utility.yul\":1989:2003   */\n      add\n        /* \"#utility.yul\":1974:2003   */\n      swap1\n      pop\n        /* \"#utility.yul\":1840:2009   */\n      swap3\n      swap2\n      pop\n      pop\n      jump\t// out\n        /* \"#utility.yul\":2015:2154   */\n    tag_199:\n        /* \"#utility.yul\":2104:2110   */\n      dup3\n        /* \"#utility.yul\":2099:2102   */\n      dup2\n        /* \"#utility.yul\":2094:2097   */\n      dup4\n        /* \"#utility.yul\":2088:2111   */\n      mcopy\n        /* \"#utility.yul\":2145:2146   */\n      0x00\n        /* \"#utility.yul\":2136:2142   */\n      dup4\n        /* \"#utility.yul\":2131:2134   */\n      dup4\n        /* \"#utility.yul\":2127:2143   */\n      add\n        /* \"#utility.yul\":2120:2147   */\n      mstore\n        /* \"#utility.yul\":2015:2154   */\n      pop\n      pop\n      pop\n      jump\t// out\n        /* \"#utility.yul\":2160:2262   */\n    tag_200:\n        /* \"#utility.yul\":2201:2207   */\n      0x00\n        /* \"#utility.yul\":2252:2254   */\n      0x1f\n        /* \"#utility.yul\":2248:2255   */\n      not\n        /* \"#utility.yul\":2243:2245   */\n      0x1f\n        /* \"#utility.yul\":2236:2241   */\n      dup4\n        /* \"#utility.yul\":2232:2246   */\n      add\n        /* \"#utility.yul\":2228:2256   */\n      and\n        /* \"#utility.yul\":2218:2256   */\n      swap1\n      pop\n        /* \"#utility.yul\":2160:2262   */\n      swap2\n      swap1\n      pop\n      jump\t// out\n        /* \"#utility.yul\":2268:2645   */\n    tag_201:\n        /* \"#utility.yul\":2356:2359   */\n      0x00\n        /* \"#utility.yul\":2384:2423   */\n      tag_293\n        /* \"#utility.yul\":2417:2422   */\n      dup3\n        /* \"#utility.yul\":2384:2423   */\n      tag_197\n      jump\t// in\n    tag_293:\n        /* \"#utility.yul\":2439:2510   */\n      tag_294\n        /* \"#utility.yul\":2503:2509   */\n      dup2\n        /* \"#utility.yul\":2498:2501   */\n      dup6\n        /* \"#utility.yul\":2439:2510   */\n      tag_198\n      jump\t// in\n    tag_294:\n        /* \"#utility.yul\":2432:2510   */\n      swap4\n      pop\n        /* \"#utility.yul\":2519:2584   */\n      tag_295\n        /* \"#utility.yul\":2577:2583   */\n      dup2\n        /* \"#utility.yul\":2572:2575   */\n      dup6\n        /* \"#utility.yul\":2565:2569   */\n      0x20\n        /* \"#utility.yul\":2558:2563   */\n      dup7\n        /* \"#utility.yul\":2554:2570   */\n      add\n        /* \"#utility.yul\":2519:2584   */\n      tag_199\n      jump\t// in\n    tag_295:\n        /* \"#utility.yul\":2609:2638   */\n      tag_296\n        /* \"#utility.yul\":2631:2637   */\n      dup2\n        /* \"#utility.yul\":2609:2638   */\n      tag_200\n      jump\t// in\n    tag_296:\n        /* \"#utility.yul\":2604:2607   */\n      dup5\n        /* \"#utility.yul\":2600:2639   */\n      add\n        /* \"#utility.yul\":2593:2639   */\n      swap2\n      pop\n        /* \"#utility.yul\":2360:2645   */\n      pop\n        /* \"#utility.yul\":2268:2645   */\n      swap3\n      swap2\n      pop\n      pop\n      jump\t// out\n        /* \"#utility.yul\":2651:3184   */\n    tag_28:\n        /* \"#utility.yul\":2820:2824   */\n      0x00\n        /* \"#utility.yul\":2858:2860   */\n      0x60\n        /* \"#utility.yul\":2847:2856   */\n      dup3\n        /* \"#utility.yul\":2843:2861   */\n      add\n        /* \"#utility.yul\":2835:2861   */\n      swap1\n      pop\n        /* \"#utility.yul\":2871:2942   */\n      tag_298\n        /* \"#utility.yul\":2939:2940   */\n      0x00\n        /* \"#utility.yul\":2928:2937   */\n      dup4\n        /* \"#utility.yul\":2924:2941   */\n      add\n        /* \"#utility.yul\":2915:2921   */\n      dup7\n        /* \"#utility.yul\":2871:2942   */\n      tag_193\n      jump\t// in\n    tag_298:\n        /* \"#utility.yul\":2952:3024   */\n      tag_299\n        /* \"#utility.yul\":3020:3022   */\n      0x20\n        /* \"#utility.yul\":3009:3018   */\n      dup4\n        /* \"#utility.yul\":3005:3023   */\n      add\n        /* \"#utility.yul\":2996:3002   */\n      dup6\n        /* \"#utility.yul\":2952:3024   */\n      tag_196\n      jump\t// in\n    tag_299:\n        /* \"#utility.yul\":3071:3080   */\n      dup2\n        /* \"#utility.yul\":3065:3069   */\n      dup2\n        /* \"#utility.yul\":3061:3081   */\n      sub\n        /* \"#utility.yul\":3056:3058   */\n      0x40\n        /* \"#utility.yul\":3045:3054   */\n      dup4\n        /* \"#utility.yul\":3041:3059   */\n      add\n        /* \"#utility.yul\":3034:3082   */\n      mstore\n        /* \"#utility.yul\":3099:3177   */\n      tag_300\n        /* \"#utility.yul\":3172:3176   */\n      dup2\n        /* \"#utility.yul\":3163:3169   */\n      dup5\n        /* \"#utility.yul\":3099:3177   */\n      tag_201\n      jump\t// in\n    tag_300:\n        /* \"#utility.yul\":3091:3177   */\n      swap1\n      pop\n        /* \"#utility.yul\":2651:3184   */\n      swap5\n      swap4\n      pop\n      pop\n      pop\n      pop\n      jump\t// out\n        /* \"#utility.yul\":3190:3312   */\n    tag_202:\n        /* \"#utility.yul\":3263:3287   */\n      tag_302\n        /* \"#utility.yul\":3281:3286   */\n      dup2\n        /* \"#utility.yul\":3263:3287   */\n      tag_195\n      jump\t// in\n    tag_302:\n        /* \"#utility.yul\":3256:3261   */\n      dup2\n        /* \"#utility.yul\":3253:3288   */\n      eq\n        /* \"#utility.yul\":3243:3306   */\n      tag_303\n      jumpi\n        /* \"#utility.yul\":3302:3303   */\n      0x00\n        /* \"#utility.yul\":3299:3300   */\n      0x00\n        /* \"#utility.yul\":3292:3304   */\n      revert\n        /* \"#utility.yul\":3243:3306   */\n    tag_303:\n        /* \"#utility.yul\":3190:3312   */\n      pop\n      jump\t// out\n        /* \"#utility.yul\":3318:3457   */\n    tag_203:\n        /* \"#utility.yul\":3364:3369   */\n      0x00\n        /* \"#utility.yul\":3402:3408   */\n      dup2\n        /* \"#utility.yul\":3389:3409   */\n      calldataload\n        /* \"#utility.yul\":3380:3409   */\n      swap1\n      pop\n        /* \"#utility.yul\":3418:3451   */\n      tag_305\n        /* \"#utility.yul\":3445:3450   */\n      dup2\n        /* \"#utility.yul\":3418:3451   */\n      tag_202\n      jump\t// in\n    tag_305:\n        /* \"#utility.yul\":3318:3457   */\n      swap3\n      swap2\n      pop\n      pop\n      jump\t// out\n        /* \"#utility.yul\":3463:3937   */\n    tag_32:\n        /* \"#utility.yul\":3531:3537   */\n      0x00\n        /* \"#utility.yul\":3539:3545   */\n      0x00\n        /* \"#utility.yul\":3588:3590   */\n      0x40\n        /* \"#utility.yul\":3576:3585   */\n      dup4\n        /* \"#utility.yul\":3567:3574   */\n      dup6\n        /* \"#utility.yul\":3563:3586   */\n      sub\n        /* \"#utility.yul\":3559:3591   */\n      slt\n        /* \"#utility.yul\":3556:3675   */\n      iszero\n      tag_307\n      jumpi\n        /* \"#utility.yul\":3594:3673   */\n      tag_308\n      tag_188\n      jump\t// in\n    tag_308:\n        /* \"#utility.yul\":3556:3675   */\n    tag_307:\n        /* \"#utility.yul\":3714:3715   */\n      0x00\n        /* \"#utility.yul\":3739:3792   */\n      tag_309\n        /* \"#utility.yul\":3784:3791   */\n      dup6\n        /* \"#utility.yul\":3775:3781   */\n      dup3\n        /* \"#utility.yul\":3764:3773   */\n      dup7\n        /* \"#utility.yul\":3760:3782   */\n      add\n        /* \"#utility.yul\":3739:3792   */\n      tag_203\n      jump\t// in\n    tag_309:\n        /* \"#utility.yul\":3729:3792   */\n      swap3\n      pop\n        /* \"#utility.yul\":3685:3802   */\n      pop\n        /* \"#utility.yul\":3841:3843   */\n      0x20\n        /* \"#utility.yul\":3867:3920   */\n      tag_310\n        /* \"#utility.yul\":3912:3919   */\n      dup6\n        /* \"#utility.yul\":3903:3909   */\n      dup3\n        /* \"#utility.yul\":3892:3901   */\n      dup7\n        /* \"#utility.yul\":3888:3910   */\n      add\n        /* \"#utility.yul\":3867:3920   */\n      tag_192\n      jump\t// in\n    tag_310:\n        /* \"#utility.yul\":3857:3920   */\n      swap2\n      pop\n        /* \"#utility.yul\":3812:3930   */\n      pop\n        /* \"#utility.yul\":3463:3937   */\n      swap3\n      pop\n      swap3\n      swap1\n      pop\n      jump\t// out\n        /* \"#utility.yul\":3943:4256   */\n    tag_40:\n        /* \"#utility.yul\":4056:4060   */\n      0x00\n        /* \"#utility.yul\":4094:4096   */\n      0x20\n        /* \"#utility.yul\":4083:4092   */\n      dup3\n        /* \"#utility.yul\":4079:4097   */\n      add\n        /* \"#utility.yul\":4071:4097   */\n      swap1\n      pop\n        /* \"#utility.yul\":4143:4152   */\n      dup2\n        /* \"#utility.yul\":4137:4141   */\n      dup2\n        /* \"#utility.yul\":4133:4153   */\n      sub\n        /* \"#utility.yul\":4129:4130   */\n      0x00\n        /* \"#utility.yul\":4118:4127   */\n      dup4\n        /* \"#utility.yul\":4114:4131   */\n      add\n        /* \"#utility.yul\":4107:4154   */\n      mstore\n        /* \"#utility.yul\":4171:4249   */\n      tag_312\n        /* \"#utility.yul\":4244:4248   */\n      dup2\n        /* \"#utility.yul\":4235:4241   */\n      dup5\n        /* \"#utility.yul\":4171:4249   */\n      tag_201\n      jump\t// in\n    tag_312:\n        /* \"#utility.yul\":4163:4249   */\n      swap1\n      pop\n        /* \"#utility.yul\":3943:4256   */\n      swap3\n      swap2\n      pop\n      pop\n      jump\t// out\n        /* \"#utility.yul\":4262:4484   */\n    tag_45:\n        /* \"#utility.yul\":4355:4359   */\n      0x00\n        /* \"#utility.yul\":4393:4395   */\n      0x20\n        /* \"#utility.yul\":4382:4391   */\n      dup3\n        /* \"#utility.yul\":4378:4396   */\n      add\n        /* \"#utility.yul\":4370:4396   */\n      swap1\n      pop\n        /* \"#utility.yul\":4406:4477   */\n      tag_314\n        /* \"#utility.yul\":4474:4475   */\n      0x00\n        /* \"#utility.yul\":4463:4472   */\n      dup4\n        /* \"#utility.yul\":4459:4476   */\n      add\n        /* \"#utility.yul\":4450:4456   */\n      dup5\n        /* \"#utility.yul\":4406:4477   */\n      tag_196\n      jump\t// in\n    tag_314:\n        /* \"#utility.yul\":4262:4484   */\n      swap3\n      swap2\n      pop\n      pop\n      jump\t// out\n        /* \"#utility.yul\":4490:4964   */\n    tag_49:\n        /* \"#utility.yul\":4558:4564   */\n      0x00\n        /* \"#utility.yul\":4566:4572   */\n      0x00\n        /* \"#utility.yul\":4615:4617   */\n      0x40\n        /* \"#utility.yul\":4603:4612   */\n      dup4\n        /* \"#utility.yul\":4594:4601   */\n      dup6\n        /* \"#utility.yul\":4590:4613   */\n      sub\n        /* \"#utility.yul\":4586:4618   */\n      slt\n        /* \"#utility.yul\":4583:4702   */\n      iszero\n      tag_316\n      jumpi\n        /* \"#utility.yul\":4621:4700   */\n      tag_317\n      tag_188\n      jump\t// in\n    tag_317:\n        /* \"#utility.yul\":4583:4702   */\n    tag_316:\n        /* \"#utility.yul\":4741:4742   */\n      0x00\n        /* \"#utility.yul\":4766:4819   */\n      tag_318\n        /* \"#utility.yul\":4811:4818   */\n      dup6\n        /* \"#utility.yul\":4802:4808   */\n      dup3\n        /* \"#utility.yul\":4791:4800   */\n      dup7\n        /* \"#utility.yul\":4787:4809   */\n      add\n        /* \"#utility.yul\":4766:4819   */\n      tag_192\n      jump\t// in\n    tag_318:\n        /* \"#utility.yul\":4756:4819   */\n      swap3\n      pop\n        /* \"#utility.yul\":4712:4829   */\n      pop\n        /* \"#utility.yul\":4868:4870   */\n      0x20\n        /* \"#utility.yul\":4894:4947   */\n      tag_319\n        /* \"#utility.yul\":4939:4946   */\n      dup6\n        /* \"#utility.yul\":4930:4936   */\n      dup3\n        /* \"#utility.yul\":4919:4928   */\n      dup7\n        /* \"#utility.yul\":4915:4937   */\n      add\n        /* \"#utility.yul\":4894:4947   */\n      tag_192\n      jump\t// in\n    tag_319:\n        /* \"#utility.yul\":4884:4947   */\n      swap2\n      pop\n        /* \"#utility.yul\":4839:4957   */\n      pop\n        /* \"#utility.yul\":4490:4964   */\n      swap3\n      pop\n      swap3\n      swap1\n      pop\n      jump\t// out\n        /* \"#utility.yul\":4970:5299   */\n    tag_54:\n        /* \"#utility.yul\":5029:5035   */\n      0x00\n        /* \"#utility.yul\":5078:5080   */\n      0x20\n        /* \"#utility.yul\":5066:5075   */\n      dup3\n        /* \"#utility.yul\":5057:5064   */\n      dup5\n        /* \"#utility.yul\":5053:5076   */\n      sub\n        /* \"#utility.yul\":5049:5081   */\n      slt\n        /* \"#utility.yul\":5046:5165   */\n      iszero\n      tag_321\n      jumpi\n        /* \"#utility.yul\":5084:5163   */\n      tag_322\n      tag_188\n      jump\t// in\n    tag_322:\n        /* \"#utility.yul\":5046:5165   */\n    tag_321:\n        /* \"#utility.yul\":5204:5205   */\n      0x00\n        /* \"#utility.yul\":5229:5282   */\n      tag_323\n        /* \"#utility.yul\":5274:5281   */\n      dup5\n        /* \"#utility.yul\":5265:5271   */\n      dup3\n        /* \"#utility.yul\":5254:5263   */\n      dup6\n        /* \"#utility.yul\":5250:5272   */\n      add\n        /* \"#utility.yul\":5229:5282   */\n      tag_203\n      jump\t// in\n    tag_323:\n        /* \"#utility.yul\":5219:5282   */\n      swap2\n      pop\n        /* \"#utility.yul\":5175:5292   */\n      pop\n        /* \"#utility.yul\":4970:5299   */\n      swap3\n      swap2\n      pop\n      pop\n      jump\t// out\n        /* \"#utility.yul\":5305:5419   */\n    tag_204:\n        /* \"#utility.yul\":5372:5378   */\n      0x00\n        /* \"#utility.yul\":5406:5411   */\n      dup2\n        /* \"#utility.yul\":5400:5412   */\n      mload\n        /* \"#utility.yul\":5390:5412   */\n      swap1\n      pop\n        /* \"#utility.yul\":5305:5419   */\n      swap2\n      swap1\n      pop\n      jump\t// out\n        /* \"#utility.yul\":5425:5609   */\n    tag_205:\n        /* \"#utility.yul\":5524:5535   */\n      0x00\n        /* \"#utility.yul\":5558:5564   */\n      dup3\n        /* \"#utility.yul\":5553:5556   */\n      dup3\n        /* \"#utility.yul\":5546:5565   */\n      mstore\n        /* \"#utility.yul\":5598:5602   */\n      0x20\n        /* \"#utility.yul\":5593:5596   */\n      dup3\n        /* \"#utility.yul\":5589:5603   */\n      add\n        /* \"#utility.yul\":5574:5603   */\n      swap1\n      pop\n        /* \"#utility.yul\":5425:5609   */\n      swap3\n      swap2\n      pop\n      pop\n      jump\t// out\n        /* \"#utility.yul\":5615:5747   */\n    tag_206:\n        /* \"#utility.yul\":5682:5686   */\n      0x00\n        /* \"#utility.yul\":5705:5708   */\n      dup2\n        /* \"#utility.yul\":5697:5708   */\n      swap1\n      pop\n        /* \"#utility.yul\":5735:5739   */\n      0x20\n        /* \"#utility.yul\":5730:5733   */\n      dup3\n        /* \"#utility.yul\":5726:5740   */\n      add\n        /* \"#utility.yul\":5718:5740   */\n      swap1\n      pop\n        /* \"#utility.yul\":5615:5747   */\n      swap2\n      swap1\n      pop\n      jump\t// out\n        /* \"#utility.yul\":5753:5861   */\n    tag_207:\n        /* \"#utility.yul\":5830:5854   */\n      tag_328\n        /* \"#utility.yul\":5848:5853   */\n      dup2\n        /* \"#utility.yul\":5830:5854   */\n      tag_190\n      jump\t// in\n    tag_328:\n        /* \"#utility.yul\":5825:5828   */\n      dup3\n        /* \"#utility.yul\":5818:5855   */\n      mstore\n        /* \"#utility.yul\":5753:5861   */\n      pop\n      pop\n      jump\t// out\n        /* \"#utility.yul\":5867:6046   */\n    tag_208:\n        /* \"#utility.yul\":5936:5946   */\n      0x00\n        /* \"#utility.yul\":5957:6003   */\n      tag_330\n        /* \"#utility.yul\":5999:6002   */\n      dup4\n        /* \"#utility.yul\":5991:5997   */\n      dup4\n        /* \"#utility.yul\":5957:6003   */\n      tag_207\n      jump\t// in\n    tag_330:\n        /* \"#utility.yul\":6035:6039   */\n      0x20\n        /* \"#utility.yul\":6030:6033   */\n      dup4\n        /* \"#utility.yul\":6026:6040   */\n      add\n        /* \"#utility.yul\":6012:6040   */\n      swap1\n      pop\n        /* \"#utility.yul\":5867:6046   */\n      swap3\n      swap2\n      pop\n      pop\n      jump\t// out\n        /* \"#utility.yul\":6052:6165   */\n    tag_209:\n        /* \"#utility.yul\":6122:6126   */\n      0x00\n        /* \"#utility.yul\":6154:6158   */\n      0x20\n        /* \"#utility.yul\":6149:6152   */\n      dup3\n        /* \"#utility.yul\":6145:6159   */\n      add\n        /* \"#utility.yul\":6137:6159   */\n      swap1\n      pop\n        /* \"#utility.yul\":6052:6165   */\n      swap2\n      swap1\n      pop\n      jump\t// out\n        /* \"#utility.yul\":6201:6933   */\n    tag_210:\n        /* \"#utility.yul\":6320:6323   */\n      0x00\n        /* \"#utility.yul\":6349:6403   */\n      tag_333\n        /* \"#utility.yul\":6397:6402   */\n      dup3\n        /* \"#utility.yul\":6349:6403   */\n      tag_204\n      jump\t// in\n    tag_333:\n        /* \"#utility.yul\":6419:6505   */\n      tag_334\n        /* \"#utility.yul\":6498:6504   */\n      dup2\n        /* \"#utility.yul\":6493:6496   */\n      dup6\n        /* \"#utility.yul\":6419:6505   */\n      tag_205\n      jump\t// in\n    tag_334:\n        /* \"#utility.yul\":6412:6505   */\n      swap4\n      pop\n        /* \"#utility.yul\":6529:6585   */\n      tag_335\n        /* \"#utility.yul\":6579:6584   */\n      dup4\n        /* \"#utility.yul\":6529:6585   */\n      tag_206\n      jump\t// in\n    tag_335:\n        /* \"#utility.yul\":6608:6615   */\n      dup1\n        /* \"#utility.yul\":6639:6640   */\n      0x00\n        /* \"#utility.yul\":6624:6908   */\n    tag_336:\n        /* \"#utility.yul\":6649:6655   */\n      dup4\n        /* \"#utility.yul\":6646:6647   */\n      dup2\n        /* \"#utility.yul\":6643:6656   */\n      lt\n        /* \"#utility.yul\":6624:6908   */\n      iszero\n      tag_338\n      jumpi\n        /* \"#utility.yul\":6725:6731   */\n      dup2\n        /* \"#utility.yul\":6719:6732   */\n      mload\n        /* \"#utility.yul\":6752:6815   */\n      tag_339\n        /* \"#utility.yul\":6811:6814   */\n      dup9\n        /* \"#utility.yul\":6796:6809   */\n      dup3\n        /* \"#utility.yul\":6752:6815   */\n      tag_208\n      jump\t// in\n    tag_339:\n        /* \"#utility.yul\":6745:6815   */\n      swap8\n      pop\n        /* \"#utility.yul\":6838:6898   */\n      tag_340\n        /* \"#utility.yul\":6891:6897   */\n      dup4\n        /* \"#utility.yul\":6838:6898   */\n      tag_209\n      jump\t// in\n    tag_340:\n        /* \"#utility.yul\":6828:6898   */\n      swap3\n      pop\n        /* \"#utility.yul\":6684:6908   */\n      pop\n        /* \"#utility.yul\":6671:6672   */\n      0x01\n        /* \"#utility.yul\":6668:6669   */\n      dup2\n        /* \"#utility.yul\":6664:6673   */\n      add\n        /* \"#utility.yul\":6659:6673   */\n      swap1\n      pop\n        /* \"#utility.yul\":6624:6908   */\n      jump(tag_336)\n    tag_338:\n        /* \"#utility.yul\":6628:6642   */\n      pop\n        /* \"#utility.yul\":6924:6927   */\n      dup6\n        /* \"#utility.yul\":6917:6927   */\n      swap4\n      pop\n        /* \"#utility.yul\":6325:6933   */\n      pop\n      pop\n      pop\n        /* \"#utility.yul\":6201:6933   */\n      swap3\n      swap2\n      pop\n      pop\n      jump\t// out\n        /* \"#utility.yul\":6939:7312   */\n    tag_57:\n        /* \"#utility.yul\":7082:7086   */\n      0x00\n        /* \"#utility.yul\":7120:7122   */\n      0x20\n        /* \"#utility.yul\":7109:7118   */\n      dup3\n        /* \"#utility.yul\":7105:7123   */\n      add\n        /* \"#utility.yul\":7097:7123   */\n      swap1\n      pop\n        /* \"#utility.yul\":7169:7178   */\n      dup2\n        /* \"#utility.yul\":7163:7167   */\n      dup2\n        /* \"#utility.yul\":7159:7179   */\n      sub\n        /* \"#utility.yul\":7155:7156   */\n      0x00\n        /* \"#utility.yul\":7144:7153   */\n      dup4\n        /* \"#utility.yul\":7140:7157   */\n      add\n        /* \"#utility.yul\":7133:7180   */\n      mstore\n        /* \"#utility.yul\":7197:7305   */\n      tag_342\n        /* \"#utility.yul\":7300:7304   */\n      dup2\n        /* \"#utility.yul\":7291:7297   */\n      dup5\n        /* \"#utility.yul\":7197:7305   */\n      tag_210\n      jump\t// in\n    tag_342:\n        /* \"#utility.yul\":7189:7305   */\n      swap1\n      pop\n        /* \"#utility.yul\":6939:7312   */\n      swap3\n      swap2\n      pop\n      pop\n      jump\t// out\n        /* \"#utility.yul\":7318:7435   */\n    tag_211:\n        /* \"#utility.yul\":7427:7428   */\n      0x00\n        /* \"#utility.yul\":7424:7425   */\n      0x00\n        /* \"#utility.yul\":7417:7429   */\n      revert\n        /* \"#utility.yul\":7441:7558   */\n    tag_212:\n        /* \"#utility.yul\":7550:7551   */\n      0x00\n        /* \"#utility.yul\":7547:7548   */\n      0x00\n        /* \"#utility.yul\":7540:7552   */\n      revert\n        /* \"#utility.yul\":7564:7744   */\n    tag_213:\n        /* \"#utility.yul\":7612:7689   */\n      0x4e487b7100000000000000000000000000000000000000000000000000000000\n        /* \"#utility.yul\":7609:7610   */\n      0x00\n        /* \"#utility.yul\":7602:7690   */\n      mstore\n        /* \"#utility.yul\":7709:7713   */\n      0x41\n        /* \"#utility.yul\":7706:7707   */\n      0x04\n        /* \"#utility.yul\":7699:7714   */\n      mstore\n        /* \"#utility.yul\":7733:7737   */\n      0x24\n        /* \"#utility.yul\":7730:7731   */\n      0x00\n        /* \"#utility.yul\":7723:7738   */\n      revert\n        /* \"#utility.yul\":7750:8031   */\n    tag_214:\n        /* \"#utility.yul\":7833:7860   */\n      tag_347\n        /* \"#utility.yul\":7855:7859   */\n      dup3\n        /* \"#utility.yul\":7833:7860   */\n      tag_200\n      jump\t// in\n    tag_347:\n        /* \"#utility.yul\":7825:7831   */\n      dup2\n        /* \"#utility.yul\":7821:7861   */\n      add\n        /* \"#utility.yul\":7963:7969   */\n      dup2\n        /* \"#utility.yul\":7951:7961   */\n      dup2\n        /* \"#utility.yul\":7948:7970   */\n      lt\n        /* \"#utility.yul\":7927:7945   */\n      0xffffffffffffffff\n        /* \"#utility.yul\":7915:7925   */\n      dup3\n        /* \"#utility.yul\":7912:7946   */\n      gt\n        /* \"#utility.yul\":7909:7971   */\n      or\n        /* \"#utility.yul\":7906:7994   */\n      iszero\n      tag_348\n      jumpi\n        /* \"#utility.yul\":7974:7992   */\n      tag_349\n      tag_213\n      jump\t// in\n    tag_349:\n        /* \"#utility.yul\":7906:7994   */\n    tag_348:\n        /* \"#utility.yul\":8014:8024   */\n      dup1\n        /* \"#utility.yul\":8010:8012   */\n      0x40\n        /* \"#utility.yul\":8003:8025   */\n      mstore\n        /* \"#utility.yul\":7793:8031   */\n      pop\n        /* \"#utility.yul\":7750:8031   */\n      pop\n      pop\n      jump\t// out\n        /* \"#utility.yul\":8037:8166   */\n    tag_215:\n        /* \"#utility.yul\":8071:8077   */\n      0x00\n        /* \"#utility.yul\":8098:8118   */\n      tag_351\n      tag_187\n      jump\t// in\n    tag_351:\n        /* \"#utility.yul\":8088:8118   */\n      swap1\n      pop\n        /* \"#utility.yul\":8127:8160   */\n      tag_352\n        /* \"#utility.yul\":8155:8159   */\n      dup3\n        /* \"#utility.yul\":8147:8153   */\n      dup3\n        /* \"#utility.yul\":8127:8160   */\n      tag_214\n      jump\t// in\n    tag_352:\n        /* \"#utility.yul\":8037:8166   */\n      swap2\n      swap1\n      pop\n      jump\t// out\n        /* \"#utility.yul\":8172:8480   */\n    tag_216:\n        /* \"#utility.yul\":8234:8238   */\n      0x00\n        /* \"#utility.yul\":8324:8342   */\n      0xffffffffffffffff\n        /* \"#utility.yul\":8316:8322   */\n      dup3\n        /* \"#utility.yul\":8313:8343   */\n      gt\n        /* \"#utility.yul\":8310:8366   */\n      iszero\n      tag_354\n      jumpi\n        /* \"#utility.yul\":8346:8364   */\n      tag_355\n      tag_213\n      jump\t// in\n    tag_355:\n        /* \"#utility.yul\":8310:8366   */\n    tag_354:\n        /* \"#utility.yul\":8384:8413   */\n      tag_356\n        /* \"#utility.yul\":8406:8412   */\n      dup3\n        /* \"#utility.yul\":8384:8413   */\n      tag_200\n      jump\t// in\n    tag_356:\n        /* \"#utility.yul\":8376:8413   */\n      swap1\n      pop\n        /* \"#utility.yul\":8468:8472   */\n      0x20\n        /* \"#utility.yul\":8462:8466   */\n      dup2\n        /* \"#utility.yul\":8458:8473   */\n      add\n        /* \"#utility.yul\":8450:8473   */\n      swap1\n      pop\n        /* \"#utility.yul\":8172:8480   */\n      swap2\n      swap1\n      pop\n      jump\t// out\n        /* \"#utility.yul\":8486:8634   */\n    tag_217:\n        /* \"#utility.yul\":8584:8590   */\n      dup3\n        /* \"#utility.yul\":8579:8582   */\n      dup2\n        /* \"#utility.yul\":8574:8577   */\n      dup4\n        /* \"#utility.yul\":8561:8591   */\n      calldatacopy\n        /* \"#utility.yul\":8625:8626   */\n      0x00\n        /* \"#utility.yul\":8616:8622   */\n      dup4\n        /* \"#utility.yul\":8611:8614   */\n      dup4\n        /* \"#utility.yul\":8607:8623   */\n      add\n        /* \"#utility.yul\":8600:8627   */\n      mstore\n        /* \"#utility.yul\":8486:8634   */\n      pop\n      pop\n      pop\n      jump\t// out\n        /* \"#utility.yul\":8640:9065   */\n    tag_218:\n        /* \"#utility.yul\":8718:8723   */\n      0x00\n        /* \"#utility.yul\":8743:8809   */\n      tag_359\n        /* \"#utility.yul\":8759:8808   */\n      tag_360\n        /* \"#utility.yul\":8801:8807   */\n      dup5\n        /* \"#utility.yul\":8759:8808   */\n      tag_216\n      jump\t// in\n    tag_360:\n        /* \"#utility.yul\":8743:8809   */\n      tag_215\n      jump\t// in\n    tag_359:\n        /* \"#utility.yul\":8734:8809   */\n      swap1\n      pop\n        /* \"#utility.yul\":8832:8838   */\n      dup3\n        /* \"#utility.yul\":8825:8830   */\n      dup2\n        /* \"#utility.yul\":8818:8839   */\n      mstore\n        /* \"#utility.yul\":8870:8874   */\n      0x20\n        /* \"#utility.yul\":8863:8868   */\n      dup2\n        /* \"#utility.yul\":8859:8875   */\n      add\n        /* \"#utility.yul\":8908:8911   */\n      dup5\n        /* \"#utility.yul\":8899:8905   */\n      dup5\n        /* \"#utility.yul\":8894:8897   */\n      dup5\n        /* \"#utility.yul\":8890:8906   */\n      add\n        /* \"#utility.yul\":8887:8912   */\n      gt\n        /* \"#utility.yul\":8884:8996   */\n      iszero\n      tag_361\n      jumpi\n        /* \"#utility.yul\":8915:8994   */\n      tag_362\n      tag_212\n      jump\t// in\n    tag_362:\n        /* \"#utility.yul\":8884:8996   */\n    tag_361:\n        /* \"#utility.yul\":9005:9059   */\n      tag_363\n        /* \"#utility.yul\":9052:9058   */\n      dup5\n        /* \"#utility.yul\":9047:9050   */\n      dup3\n        /* \"#utility.yul\":9042:9045   */\n      dup6\n        /* \"#utility.yul\":9005:9059   */\n      tag_217\n      jump\t// in\n    tag_363:\n        /* \"#utility.yul\":8724:9065   */\n      pop\n        /* \"#utility.yul\":8640:9065   */\n      swap4\n      swap3\n      pop\n      pop\n      pop\n      jump\t// out\n        /* \"#utility.yul\":9085:9425   */\n    tag_219:\n        /* \"#utility.yul\":9141:9146   */\n      0x00\n        /* \"#utility.yul\":9190:9193   */\n      dup3\n        /* \"#utility.yul\":9183:9187   */\n      0x1f\n        /* \"#utility.yul\":9175:9181   */\n      dup4\n        /* \"#utility.yul\":9171:9188   */\n      add\n        /* \"#utility.yul\":9167:9194   */\n      slt\n        /* \"#utility.yul\":9157:9279   */\n      tag_365\n      jumpi\n        /* \"#utility.yul\":9198:9277   */\n      tag_366\n      tag_211\n      jump\t// in\n    tag_366:\n        /* \"#utility.yul\":9157:9279   */\n    tag_365:\n        /* \"#utility.yul\":9315:9321   */\n      dup2\n        /* \"#utility.yul\":9302:9322   */\n      calldataload\n        /* \"#utility.yul\":9340:9419   */\n      tag_367\n        /* \"#utility.yul\":9415:9418   */\n      dup5\n        /* \"#utility.yul\":9407:9413   */\n      dup3\n        /* \"#utility.yul\":9400:9404   */\n      0x20\n        /* \"#utility.yul\":9392:9398   */\n      dup7\n        /* \"#utility.yul\":9388:9405   */\n      add\n        /* \"#utility.yul\":9340:9419   */\n      tag_218\n      jump\t// in\n    tag_367:\n        /* \"#utility.yul\":9331:9419   */\n      swap2\n      pop\n        /* \"#utility.yul\":9147:9425   */\n      pop\n        /* \"#utility.yul\":9085:9425   */\n      swap3\n      swap2\n      pop\n      pop\n      jump\t// out\n        /* \"#utility.yul\":9431:9940   */\n    tag_61:\n        /* \"#utility.yul\":9500:9506   */\n      0x00\n        /* \"#utility.yul\":9549:9551   */\n      0x20\n        /* \"#utility.yul\":9537:9546   */\n      dup3\n        /* \"#utility.yul\":9528:9535   */\n      dup5\n        /* \"#utility.yul\":9524:9547   */\n      sub\n        /* \"#utility.yul\":9520:9552   */\n      slt\n        /* \"#utility.yul\":9517:9636   */\n      iszero\n      tag_369\n      jumpi\n        /* \"#utility.yul\":9555:9634   */\n      tag_370\n      tag_188\n      jump\t// in\n    tag_370:\n        /* \"#utility.yul\":9517:9636   */\n    tag_369:\n        /* \"#utility.yul\":9703:9704   */\n      0x00\n        /* \"#utility.yul\":9692:9701   */\n      dup3\n        /* \"#utility.yul\":9688:9705   */\n      add\n        /* \"#utility.yul\":9675:9706   */\n      calldataload\n        /* \"#utility.yul\":9733:9751   */\n      0xffffffffffffffff\n        /* \"#utility.yul\":9725:9731   */\n      dup2\n        /* \"#utility.yul\":9722:9752   */\n      gt\n        /* \"#utility.yul\":9719:9836   */\n      iszero\n      tag_371\n      jumpi\n        /* \"#utility.yul\":9755:9834   */\n      tag_372\n      tag_189\n      jump\t// in\n    tag_372:\n        /* \"#utility.yul\":9719:9836   */\n    tag_371:\n        /* \"#utility.yul\":9860:9923   */\n      tag_373\n        /* \"#utility.yul\":9915:9922   */\n      dup5\n        /* \"#utility.yul\":9906:9912   */\n      dup3\n        /* \"#utility.yul\":9895:9904   */\n      dup6\n        /* \"#utility.yul\":9891:9913   */\n      add\n        /* \"#utility.yul\":9860:9923   */\n      tag_219\n      jump\t// in\n    tag_373:\n        /* \"#utility.yul\":9850:9923   */\n      swap2\n      pop\n        /* \"#utility.yul\":9646:9933   */\n      pop\n        /* \"#utility.yul\":9431:9940   */\n      swap3\n      swap2\n      pop\n      pop\n      jump\t// out\n        /* \"#utility.yul\":9946:10036   */\n    tag_220:\n        /* \"#utility.yul\":9980:9987   */\n      0x00\n        /* \"#utility.yul\":10023:10028   */\n      dup2\n        /* \"#utility.yul\":10016:10029   */\n      iszero\n        /* \"#utility.yul\":10009:10030   */\n      iszero\n        /* \"#utility.yul\":9998:10030   */\n      swap1\n      pop\n        /* \"#utility.yul\":9946:10036   */\n      swap2\n      swap1\n      pop\n      jump\t// out\n        /* \"#utility.yul\":10042:10151   */\n    tag_221:\n        /* \"#utility.yul\":10123:10144   */\n      tag_376\n        /* \"#utility.yul\":10138:10143   */\n      dup2\n        /* \"#utility.yul\":10123:10144   */\n      tag_220\n      jump\t// in\n    tag_376:\n        /* \"#utility.yul\":10118:10121   */\n      dup3\n        /* \"#utility.yul\":10111:10145   */\n      mstore\n        /* \"#utility.yul\":10042:10151   */\n      pop\n      pop\n      jump\t// out\n        /* \"#utility.yul\":10157:10587   */\n    tag_72:\n        /* \"#utility.yul\":10300:10304   */\n      0x00\n        /* \"#utility.yul\":10338:10340   */\n      0x60\n        /* \"#utility.yul\":10327:10336   */\n      dup3\n        /* \"#utility.yul\":10323:10341   */\n      add\n        /* \"#utility.yul\":10315:10341   */\n      swap1\n      pop\n        /* \"#utility.yul\":10351:10422   */\n      tag_378\n        /* \"#utility.yul\":10419:10420   */\n      0x00\n        /* \"#utility.yul\":10408:10417   */\n      dup4\n        /* \"#utility.yul\":10404:10421   */\n      add\n        /* \"#utility.yul\":10395:10401   */\n      dup7\n        /* \"#utility.yul\":10351:10422   */\n      tag_193\n      jump\t// in\n    tag_378:\n        /* \"#utility.yul\":10432:10504   */\n      tag_379\n        /* \"#utility.yul\":10500:10502   */\n      0x20\n        /* \"#utility.yul\":10489:10498   */\n      dup4\n        /* \"#utility.yul\":10485:10503   */\n      add\n        /* \"#utility.yul\":10476:10482   */\n      dup6\n        /* \"#utility.yul\":10432:10504   */\n      tag_196\n      jump\t// in\n    tag_379:\n        /* \"#utility.yul\":10514:10580   */\n      tag_380\n        /* \"#utility.yul\":10576:10578   */\n      0x40\n        /* \"#utility.yul\":10565:10574   */\n      dup4\n        /* \"#utility.yul\":10561:10579   */\n      add\n        /* \"#utility.yul\":10552:10558   */\n      dup5\n        /* \"#utility.yul\":10514:10580   */\n      tag_221\n      jump\t// in\n    tag_380:\n        /* \"#utility.yul\":10157:10587   */\n      swap5\n      swap4\n      pop\n      pop\n      pop\n      pop\n      jump\t// out\n        /* \"#utility.yul\":10593:10762   */\n    tag_222:\n        /* \"#utility.yul\":10733:10754   */\n      0x4e4654206973206e6f7420666f722073616c6500000000000000000000000000\n        /* \"#utility.yul\":10729:10730   */\n      0x00\n        /* \"#utility.yul\":10721:10727   */\n      dup3\n        /* \"#utility.yul\":10717:10731   */\n      add\n        /* \"#utility.yul\":10710:10755   */\n      mstore\n        /* \"#utility.yul\":10593:10762   */\n      pop\n      jump\t// out\n        /* \"#utility.yul\":10768:11134   */\n    tag_223:\n        /* \"#utility.yul\":10910:10913   */\n      0x00\n        /* \"#utility.yul\":10931:10998   */\n      tag_383\n        /* \"#utility.yul\":10995:10997   */\n      0x13\n        /* \"#utility.yul\":10990:10993   */\n      dup4\n        /* \"#utility.yul\":10931:10998   */\n      tag_198\n      jump\t// in\n    tag_383:\n        /* \"#utility.yul\":10924:10998   */\n      swap2\n      pop\n        /* \"#utility.yul\":11007:11100   */\n      tag_384\n        /* \"#utility.yul\":11096:11099   */\n      dup3\n        /* \"#utility.yul\":11007:11100   */\n      tag_222\n      jump\t// in\n    tag_384:\n        /* \"#utility.yul\":11125:11127   */\n      0x20\n        /* \"#utility.yul\":11120:11123   */\n      dup3\n        /* \"#utility.yul\":11116:11128   */\n      add\n        /* \"#utility.yul\":11109:11128   */\n      swap1\n      pop\n        /* \"#utility.yul\":10768:11134   */\n      swap2\n      swap1\n      pop\n      jump\t// out\n        /* \"#utility.yul\":11140:11559   */\n    tag_79:\n        /* \"#utility.yul\":11306:11310   */\n      0x00\n        /* \"#utility.yul\":11344:11346   */\n      0x20\n        /* \"#utility.yul\":11333:11342   */\n      dup3\n        /* \"#utility.yul\":11329:11347   */\n      add\n        /* \"#utility.yul\":11321:11347   */\n      swap1\n      pop\n        /* \"#utility.yul\":11393:11402   */\n      dup2\n        /* \"#utility.yul\":11387:11391   */\n      dup2\n        /* \"#utility.yul\":11383:11403   */\n      sub\n        /* \"#utility.yul\":11379:11380   */\n      0x00\n        /* \"#utility.yul\":11368:11377   */\n      dup4\n        /* \"#utility.yul\":11364:11381   */\n      add\n        /* \"#utility.yul\":11357:11404   */\n      mstore\n        /* \"#utility.yul\":11421:11552   */\n      tag_386\n        /* \"#utility.yul\":11547:11551   */\n      dup2\n        /* \"#utility.yul\":11421:11552   */\n      tag_223\n      jump\t// in\n    tag_386:\n        /* \"#utility.yul\":11413:11552   */\n      swap1\n      pop\n        /* \"#utility.yul\":11140:11559   */\n      swap2\n      swap1\n      pop\n      jump\t// out\n        /* \"#utility.yul\":11565:11733   */\n    tag_224:\n        /* \"#utility.yul\":11705:11725   */\n      0x496e73756666696369656e742066756e64730000000000000000000000000000\n        /* \"#utility.yul\":11701:11702   */\n      0x00\n        /* \"#utility.yul\":11693:11699   */\n      dup3\n        /* \"#utility.yul\":11689:11703   */\n      add\n        /* \"#utility.yul\":11682:11726   */\n      mstore\n        /* \"#utility.yul\":11565:11733   */\n      pop\n      jump\t// out\n        /* \"#utility.yul\":11739:12105   */\n    tag_225:\n        /* \"#utility.yul\":11881:11884   */\n      0x00\n        /* \"#utility.yul\":11902:11969   */\n      tag_389\n        /* \"#utility.yul\":11966:11968   */\n      0x12\n        /* \"#utility.yul\":11961:11964   */\n      dup4\n        /* \"#utility.yul\":11902:11969   */\n      tag_198\n      jump\t// in\n    tag_389:\n        /* \"#utility.yul\":11895:11969   */\n      swap2\n      pop\n        /* \"#utility.yul\":11978:12071   */\n      tag_390\n        /* \"#utility.yul\":12067:12070   */\n      dup3\n        /* \"#utility.yul\":11978:12071   */\n      tag_224\n      jump\t// in\n    tag_390:\n        /* \"#utility.yul\":12096:12098   */\n      0x20\n        /* \"#utility.yul\":12091:12094   */\n      dup3\n        /* \"#utility.yul\":12087:12099   */\n      add\n        /* \"#utility.yul\":12080:12099   */\n      swap1\n      pop\n        /* \"#utility.yul\":11739:12105   */\n      swap2\n      swap1\n      pop\n      jump\t// out\n        /* \"#utility.yul\":12111:12530   */\n    tag_82:\n        /* \"#utility.yul\":12277:12281   */\n      0x00\n        /* \"#utility.yul\":12315:12317   */\n      0x20\n        /* \"#utility.yul\":12304:12313   */\n      dup3\n        /* \"#utility.yul\":12300:12318   */\n      add\n        /* \"#utility.yul\":12292:12318   */\n      swap1\n      pop\n        /* \"#utility.yul\":12364:12373   */\n      dup2\n        /* \"#utility.yul\":12358:12362   */\n      dup2\n        /* \"#utility.yul\":12354:12374   */\n      sub\n        /* \"#utility.yul\":12350:12351   */\n      0x00\n        /* \"#utility.yul\":12339:12348   */\n      dup4\n        /* \"#utility.yul\":12335:12352   */\n      add\n        /* \"#utility.yul\":12328:12375   */\n      mstore\n        /* \"#utility.yul\":12392:12523   */\n      tag_392\n        /* \"#utility.yul\":12518:12522   */\n      dup2\n        /* \"#utility.yul\":12392:12523   */\n      tag_225\n      jump\t// in\n    tag_392:\n        /* \"#utility.yul\":12384:12523   */\n      swap1\n      pop\n        /* \"#utility.yul\":12111:12530   */\n      swap2\n      swap1\n      pop\n      jump\t// out\n        /* \"#utility.yul\":12536:12708   */\n    tag_226:\n        /* \"#utility.yul\":12676:12700   */\n      0x53656c6c65722061646472657373206973207a65726f00000000000000000000\n        /* \"#utility.yul\":12672:12673   */\n      0x00\n        /* \"#utility.yul\":12664:12670   */\n      dup3\n        /* \"#utility.yul\":12660:12674   */\n      add\n        /* \"#utility.yul\":12653:12701   */\n      mstore\n        /* \"#utility.yul\":12536:12708   */\n      pop\n      jump\t// out\n        /* \"#utility.yul\":12714:13080   */\n    tag_227:\n        /* \"#utility.yul\":12856:12859   */\n      0x00\n        /* \"#utility.yul\":12877:12944   */\n      tag_395\n        /* \"#utility.yul\":12941:12943   */\n      0x16\n        /* \"#utility.yul\":12936:12939   */\n      dup4\n        /* \"#utility.yul\":12877:12944   */\n      tag_198\n      jump\t// in\n    tag_395:\n        /* \"#utility.yul\":12870:12944   */\n      swap2\n      pop\n        /* \"#utility.yul\":12953:13046   */\n      tag_396\n        /* \"#utility.yul\":13042:13045   */\n      dup3\n        /* \"#utility.yul\":12953:13046   */\n      tag_226\n      jump\t// in\n    tag_396:\n        /* \"#utility.yul\":13071:13073   */\n      0x20\n        /* \"#utility.yul\":13066:13069   */\n      dup3\n        /* \"#utility.yul\":13062:13074   */\n      add\n        /* \"#utility.yul\":13055:13074   */\n      swap1\n      pop\n        /* \"#utility.yul\":12714:13080   */\n      swap2\n      swap1\n      pop\n      jump\t// out\n        /* \"#utility.yul\":13086:13505   */\n    tag_85:\n        /* \"#utility.yul\":13252:13256   */\n      0x00\n        /* \"#utility.yul\":13290:13292   */\n      0x20\n        /* \"#utility.yul\":13279:13288   */\n      dup3\n        /* \"#utility.yul\":13275:13293   */\n      add\n        /* \"#utility.yul\":13267:13293   */\n      swap1\n      pop\n        /* \"#utility.yul\":13339:13348   */\n      dup2\n        /* \"#utility.yul\":13333:13337   */\n      dup2\n        /* \"#utility.yul\":13329:13349   */\n      sub\n        /* \"#utility.yul\":13325:13326   */\n      0x00\n        /* \"#utility.yul\":13314:13323   */\n      dup4\n        /* \"#utility.yul\":13310:13327   */\n      add\n        /* \"#utility.yul\":13303:13350   */\n      mstore\n        /* \"#utility.yul\":13367:13498   */\n      tag_398\n        /* \"#utility.yul\":13493:13497   */\n      dup2\n        /* \"#utility.yul\":13367:13498   */\n      tag_227\n      jump\t// in\n    tag_398:\n        /* \"#utility.yul\":13359:13498   */\n      swap1\n      pop\n        /* \"#utility.yul\":13086:13505   */\n      swap2\n      swap1\n      pop\n      jump\t// out\n        /* \"#utility.yul\":13511:13682   */\n    tag_228:\n        /* \"#utility.yul\":13651:13674   */\n      0x4f776e65722061646472657373206973207a65726f0000000000000000000000\n        /* \"#utility.yul\":13647:13648   */\n      0x00\n        /* \"#utility.yul\":13639:13645   */\n      dup3\n        /* \"#utility.yul\":13635:13649   */\n      add\n        /* \"#utility.yul\":13628:13675   */\n      mstore\n        /* \"#utility.yul\":13511:13682   */\n      pop\n      jump\t// out\n        /* \"#utility.yul\":13688:14054   */\n    tag_229:\n        /* \"#utility.yul\":13830:13833   */\n      0x00\n        /* \"#utility.yul\":13851:13918   */\n      tag_401\n        /* \"#utility.yul\":13915:13917   */\n      0x15\n        /* \"#utility.yul\":13910:13913   */\n      dup4\n        /* \"#utility.yul\":13851:13918   */\n      tag_198\n      jump\t// in\n    tag_401:\n        /* \"#utility.yul\":13844:13918   */\n      swap2\n      pop\n        /* \"#utility.yul\":13927:14020   */\n      tag_402\n        /* \"#utility.yul\":14016:14019   */\n      dup3\n        /* \"#utility.yul\":13927:14020   */\n      tag_228\n      jump\t// in\n    tag_402:\n        /* \"#utility.yul\":14045:14047   */\n      0x20\n        /* \"#utility.yul\":14040:14043   */\n      dup3\n        /* \"#utility.yul\":14036:14048   */\n      add\n        /* \"#utility.yul\":14029:14048   */\n      swap1\n      pop\n        /* \"#utility.yul\":13688:14054   */\n      swap2\n      swap1\n      pop\n      jump\t// out\n        /* \"#utility.yul\":14060:14479   */\n    tag_88:\n        /* \"#utility.yul\":14226:14230   */\n      0x00\n        /* \"#utility.yul\":14264:14266   */\n      0x20\n        /* \"#utility.yul\":14253:14262   */\n      dup3\n        /* \"#utility.yul\":14249:14267   */\n      add\n        /* \"#utility.yul\":14241:14267   */\n      swap1\n      pop\n        /* \"#utility.yul\":14313:14322   */\n      dup2\n        /* \"#utility.yul\":14307:14311   */\n      dup2\n        /* \"#utility.yul\":14303:14323   */\n      sub\n        /* \"#utility.yul\":14299:14300   */\n      0x00\n        /* \"#utility.yul\":14288:14297   */\n      dup4\n        /* \"#utility.yul\":14284:14301   */\n      add\n        /* \"#utility.yul\":14277:14324   */\n      mstore\n        /* \"#utility.yul\":14341:14472   */\n      tag_404\n        /* \"#utility.yul\":14467:14471   */\n      dup2\n        /* \"#utility.yul\":14341:14472   */\n      tag_229\n      jump\t// in\n    tag_404:\n        /* \"#utility.yul\":14333:14472   */\n      swap1\n      pop\n        /* \"#utility.yul\":14060:14479   */\n      swap2\n      swap1\n      pop\n      jump\t// out\n        /* \"#utility.yul\":14485:14665   */\n    tag_230:\n        /* \"#utility.yul\":14625:14657   */\n      0x53656c6c6572206e6f206c6f6e676572206f776e732074686973204e46540000\n        /* \"#utility.yul\":14621:14622   */\n      0x00\n        /* \"#utility.yul\":14613:14619   */\n      dup3\n        /* \"#utility.yul\":14609:14623   */\n      add\n        /* \"#utility.yul\":14602:14658   */\n      mstore\n        /* \"#utility.yul\":14485:14665   */\n      pop\n      jump\t// out\n        /* \"#utility.yul\":14671:15037   */\n    tag_231:\n        /* \"#utility.yul\":14813:14816   */\n      0x00\n        /* \"#utility.yul\":14834:14901   */\n      tag_407\n        /* \"#utility.yul\":14898:14900   */\n      0x1e\n        /* \"#utility.yul\":14893:14896   */\n      dup4\n        /* \"#utility.yul\":14834:14901   */\n      tag_198\n      jump\t// in\n    tag_407:\n        /* \"#utility.yul\":14827:14901   */\n      swap2\n      pop\n        /* \"#utility.yul\":14910:15003   */\n      tag_408\n        /* \"#utility.yul\":14999:15002   */\n      dup3\n        /* \"#utility.yul\":14910:15003   */\n      tag_230\n      jump\t// in\n    tag_408:\n        /* \"#utility.yul\":15028:15030   */\n      0x20\n        /* \"#utility.yul\":15023:15026   */\n      dup3\n        /* \"#utility.yul\":15019:15031   */\n      add\n        /* \"#utility.yul\":15012:15031   */\n      swap1\n      pop\n        /* \"#utility.yul\":14671:15037   */\n      swap2\n      swap1\n      pop\n      jump\t// out\n        /* \"#utility.yul\":15043:15462   */\n    tag_91:\n        /* \"#utility.yul\":15209:15213   */\n      0x00\n        /* \"#utility.yul\":15247:15249   */\n      0x20\n        /* \"#utility.yul\":15236:15245   */\n      dup3\n        /* \"#utility.yul\":15232:15250   */\n      add\n        /* \"#utility.yul\":15224:15250   */\n      swap1\n      pop\n        /* \"#utility.yul\":15296:15305   */\n      dup2\n        /* \"#utility.yul\":15290:15294   */\n      dup2\n        /* \"#utility.yul\":15286:15306   */\n      sub\n        /* \"#utility.yul\":15282:15283   */\n      0x00\n        /* \"#utility.yul\":15271:15280   */\n      dup4\n        /* \"#utility.yul\":15267:15284   */\n      add\n        /* \"#utility.yul\":15260:15307   */\n      mstore\n        /* \"#utility.yul\":15324:15455   */\n      tag_410\n        /* \"#utility.yul\":15450:15454   */\n      dup2\n        /* \"#utility.yul\":15324:15455   */\n      tag_231\n      jump\t// in\n    tag_410:\n        /* \"#utility.yul\":15316:15455   */\n      swap1\n      pop\n        /* \"#utility.yul\":15043:15462   */\n      swap2\n      swap1\n      pop\n      jump\t// out\n        /* \"#utility.yul\":15468:15648   */\n    tag_232:\n        /* \"#utility.yul\":15516:15593   */\n      0x4e487b7100000000000000000000000000000000000000000000000000000000\n        /* \"#utility.yul\":15513:15514   */\n      0x00\n        /* \"#utility.yul\":15506:15594   */\n      mstore\n        /* \"#utility.yul\":15613:15617   */\n      0x11\n        /* \"#utility.yul\":15610:15611   */\n      0x04\n        /* \"#utility.yul\":15603:15618   */\n      mstore\n        /* \"#utility.yul\":15637:15641   */\n      0x24\n        /* \"#utility.yul\":15634:15635   */\n      0x00\n        /* \"#utility.yul\":15627:15642   */\n      revert\n        /* \"#utility.yul\":15654:16064   */\n    tag_93:\n        /* \"#utility.yul\":15694:15701   */\n      0x00\n        /* \"#utility.yul\":15717:15737   */\n      tag_413\n        /* \"#utility.yul\":15735:15736   */\n      dup3\n        /* \"#utility.yul\":15717:15737   */\n      tag_190\n      jump\t// in\n    tag_413:\n        /* \"#utility.yul\":15712:15737   */\n      swap2\n      pop\n        /* \"#utility.yul\":15751:15771   */\n      tag_414\n        /* \"#utility.yul\":15769:15770   */\n      dup4\n        /* \"#utility.yul\":15751:15771   */\n      tag_190\n      jump\t// in\n    tag_414:\n        /* \"#utility.yul\":15746:15771   */\n      swap3\n      pop\n        /* \"#utility.yul\":15806:15807   */\n      dup3\n        /* \"#utility.yul\":15803:15804   */\n      dup3\n        /* \"#utility.yul\":15799:15808   */\n      mul\n        /* \"#utility.yul\":15828:15858   */\n      tag_415\n        /* \"#utility.yul\":15846:15857   */\n      dup2\n        /* \"#utility.yul\":15828:15858   */\n      tag_190\n      jump\t// in\n    tag_415:\n        /* \"#utility.yul\":15817:15858   */\n      swap2\n      pop\n        /* \"#utility.yul\":16007:16008   */\n      dup3\n        /* \"#utility.yul\":15998:16005   */\n      dup3\n        /* \"#utility.yul\":15994:16009   */\n      div\n        /* \"#utility.yul\":15991:15992   */\n      dup5\n        /* \"#utility.yul\":15988:16010   */\n      eq\n        /* \"#utility.yul\":15968:15969   */\n      dup4\n        /* \"#utility.yul\":15961:15970   */\n      iszero\n        /* \"#utility.yul\":15941:16024   */\n      or\n        /* \"#utility.yul\":15918:16057   */\n      tag_416\n      jumpi\n        /* \"#utility.yul\":16037:16055   */\n      tag_417\n      tag_232\n      jump\t// in\n    tag_417:\n        /* \"#utility.yul\":15918:16057   */\n    tag_416:\n        /* \"#utility.yul\":15702:16064   */\n      pop\n        /* \"#utility.yul\":15654:16064   */\n      swap3\n      swap2\n      pop\n      pop\n      jump\t// out\n        /* \"#utility.yul\":16070:16250   */\n    tag_233:\n        /* \"#utility.yul\":16118:16195   */\n      0x4e487b7100000000000000000000000000000000000000000000000000000000\n        /* \"#utility.yul\":16115:16116   */\n      0x00\n        /* \"#utility.yul\":16108:16196   */\n      mstore\n        /* \"#utility.yul\":16215:16219   */\n      0x12\n        /* \"#utility.yul\":16212:16213   */\n      0x04\n        /* \"#utility.yul\":16205:16220   */\n      mstore\n        /* \"#utility.yul\":16239:16243   */\n      0x24\n        /* \"#utility.yul\":16236:16237   */\n      0x00\n        /* \"#utility.yul\":16229:16244   */\n      revert\n        /* \"#utility.yul\":16256:16441   */\n    tag_95:\n        /* \"#utility.yul\":16296:16297   */\n      0x00\n        /* \"#utility.yul\":16313:16333   */\n      tag_420\n        /* \"#utility.yul\":16331:16332   */\n      dup3\n        /* \"#utility.yul\":16313:16333   */\n      tag_190\n      jump\t// in\n    tag_420:\n        /* \"#utility.yul\":16308:16333   */\n      swap2\n      pop\n        /* \"#utility.yul\":16347:16367   */\n      tag_421\n        /* \"#utility.yul\":16365:16366   */\n      dup4\n        /* \"#utility.yul\":16347:16367   */\n      tag_190\n      jump\t// in\n    tag_421:\n        /* \"#utility.yul\":16342:16367   */\n      swap3\n      pop\n        /* \"#utility.yul\":16386:16387   */\n      dup3\n        /* \"#utility.yul\":16376:16411   */\n      tag_422\n      jumpi\n        /* \"#utility.yul\":16391:16409   */\n      tag_423\n      tag_233\n      jump\t// in\n    tag_423:\n        /* \"#utility.yul\":16376:16411   */\n    tag_422:\n        /* \"#utility.yul\":16433:16434   */\n      dup3\n        /* \"#utility.yul\":16430:16431   */\n      dup3\n        /* \"#utility.yul\":16426:16435   */\n      div\n        /* \"#utility.yul\":16421:16435   */\n      swap1\n      pop\n        /* \"#utility.yul\":16256:16441   */\n      swap3\n      swap2\n      pop\n      pop\n      jump\t// out\n        /* \"#utility.yul\":16447:16641   */\n    tag_97:\n        /* \"#utility.yul\":16487:16491   */\n      0x00\n        /* \"#utility.yul\":16507:16527   */\n      tag_425\n        /* \"#utility.yul\":16525:16526   */\n      dup3\n        /* \"#utility.yul\":16507:16527   */\n      tag_190\n      jump\t// in\n    tag_425:\n        /* \"#utility.yul\":16502:16527   */\n      swap2\n      pop\n        /* \"#utility.yul\":16541:16561   */\n      tag_426\n        /* \"#utility.yul\":16559:16560   */\n      dup4\n        /* \"#utility.yul\":16541:16561   */\n      tag_190\n      jump\t// in\n    tag_426:\n        /* \"#utility.yul\":16536:16561   */\n      swap3\n      pop\n        /* \"#utility.yul\":16585:16586   */\n      dup3\n        /* \"#utility.yul\":16582:16583   */\n      dup3\n        /* \"#utility.yul\":16578:16587   */\n      sub\n        /* \"#utility.yul\":16570:16587   */\n      swap1\n      pop\n        /* \"#utility.yul\":16609:16610   */\n      dup2\n        /* \"#utility.yul\":16603:16607   */\n      dup2\n        /* \"#utility.yul\":16600:16611   */\n      gt\n        /* \"#utility.yul\":16597:16634   */\n      iszero\n      tag_427\n      jumpi\n        /* \"#utility.yul\":16614:16632   */\n      tag_428\n      tag_232\n      jump\t// in\n    tag_428:\n        /* \"#utility.yul\":16597:16634   */\n    tag_427:\n        /* \"#utility.yul\":16447:16641   */\n      swap3\n      swap2\n      pop\n      pop\n      jump\t// out\n        /* \"#utility.yul\":16647:16794   */\n    tag_234:\n        /* \"#utility.yul\":16748:16759   */\n      0x00\n        /* \"#utility.yul\":16785:16788   */\n      dup2\n        /* \"#utility.yul\":16770:16788   */\n      swap1\n      pop\n        /* \"#utility.yul\":16647:16794   */\n      swap3\n      swap2\n      pop\n      pop\n      jump\t// out\n        /* \"#utility.yul\":16800:16914   */\n    tag_235:\n      pop\n      jump\t// out\n        /* \"#utility.yul\":16920:17318   */\n    tag_236:\n        /* \"#utility.yul\":17079:17082   */\n      0x00\n        /* \"#utility.yul\":17100:17183   */\n      tag_432\n        /* \"#utility.yul\":17181:17182   */\n      0x00\n        /* \"#utility.yul\":17176:17179   */\n      dup4\n        /* \"#utility.yul\":17100:17183   */\n      tag_234\n      jump\t// in\n    tag_432:\n        /* \"#utility.yul\":17093:17183   */\n      swap2\n      pop\n        /* \"#utility.yul\":17192:17285   */\n      tag_433\n        /* \"#utility.yul\":17281:17284   */\n      dup3\n        /* \"#utility.yul\":17192:17285   */\n      tag_235\n      jump\t// in\n    tag_433:\n        /* \"#utility.yul\":17310:17311   */\n      0x00\n        /* \"#utility.yul\":17305:17308   */\n      dup3\n        /* \"#utility.yul\":17301:17312   */\n      add\n        /* \"#utility.yul\":17294:17312   */\n      swap1\n      pop\n        /* \"#utility.yul\":16920:17318   */\n      swap2\n      swap1\n      pop\n      jump\t// out\n        /* \"#utility.yul\":17324:17703   */\n    tag_102:\n        /* \"#utility.yul\":17508:17511   */\n      0x00\n        /* \"#utility.yul\":17530:17677   */\n      tag_435\n        /* \"#utility.yul\":17673:17676   */\n      dup3\n        /* \"#utility.yul\":17530:17677   */\n      tag_236\n      jump\t// in\n    tag_435:\n        /* \"#utility.yul\":17523:17677   */\n      swap2\n      pop\n        /* \"#utility.yul\":17694:17697   */\n      dup2\n        /* \"#utility.yul\":17687:17697   */\n      swap1\n      pop\n        /* \"#utility.yul\":17324:17703   */\n      swap2\n      swap1\n      pop\n      jump\t// out\n        /* \"#utility.yul\":17709:17886   */\n    tag_237:\n        /* \"#utility.yul\":17849:17878   */\n      0x4661696c656420746f2073656e642066656520746f206f776e65720000000000\n        /* \"#utility.yul\":17845:17846   */\n      0x00\n        /* \"#utility.yul\":17837:17843   */\n      dup3\n        /* \"#utility.yul\":17833:17847   */\n      add\n        /* \"#utility.yul\":17826:17879   */\n      mstore\n        /* \"#utility.yul\":17709:17886   */\n      pop\n      jump\t// out\n        /* \"#utility.yul\":17892:18258   */\n    tag_238:\n        /* \"#utility.yul\":18034:18037   */\n      0x00\n        /* \"#utility.yul\":18055:18122   */\n      tag_438\n        /* \"#utility.yul\":18119:18121   */\n      0x1b\n        /* \"#utility.yul\":18114:18117   */\n      dup4\n        /* \"#utility.yul\":18055:18122   */\n      tag_198\n      jump\t// in\n    tag_438:\n        /* \"#utility.yul\":18048:18122   */\n      swap2\n      pop\n        /* \"#utility.yul\":18131:18224   */\n      tag_439\n        /* \"#utility.yul\":18220:18223   */\n      dup3\n        /* \"#utility.yul\":18131:18224   */\n      tag_237\n      jump\t// in\n    tag_439:\n        /* \"#utility.yul\":18249:18251   */\n      0x20\n        /* \"#utility.yul\":18244:18247   */\n      dup3\n        /* \"#utility.yul\":18240:18252   */\n      add\n        /* \"#utility.yul\":18233:18252   */\n      swap1\n      pop\n        /* \"#utility.yul\":17892:18258   */\n      swap2\n      swap1\n      pop\n      jump\t// out\n        /* \"#utility.yul\":18264:18683   */\n    tag_108:\n        /* \"#utility.yul\":18430:18434   */\n      0x00\n        /* \"#utility.yul\":18468:18470   */\n      0x20\n        /* \"#utility.yul\":18457:18466   */\n      dup3\n        /* \"#utility.yul\":18453:18471   */\n      add\n        /* \"#utility.yul\":18445:18471   */\n      swap1\n      pop\n        /* \"#utility.yul\":18517:18526   */\n      dup2\n        /* \"#utility.yul\":18511:18515   */\n      dup2\n        /* \"#utility.yul\":18507:18527   */\n      sub\n        /* \"#utility.yul\":18503:18504   */\n      0x00\n        /* \"#utility.yul\":18492:18501   */\n      dup4\n        /* \"#utility.yul\":18488:18505   */\n      add\n        /* \"#utility.yul\":18481:18528   */\n      mstore\n        /* \"#utility.yul\":18545:18676   */\n      tag_441\n        /* \"#utility.yul\":18671:18675   */\n      dup2\n        /* \"#utility.yul\":18545:18676   */\n      tag_238\n      jump\t// in\n    tag_441:\n        /* \"#utility.yul\":18537:18676   */\n      swap1\n      pop\n        /* \"#utility.yul\":18264:18683   */\n      swap2\n      swap1\n      pop\n      jump\t// out\n        /* \"#utility.yul\":18689:18870   */\n    tag_239:\n        /* \"#utility.yul\":18829:18862   */\n      0x4661696c656420746f2073656e6420616d6f756e7420746f2073656c6c657200\n        /* \"#utility.yul\":18825:18826   */\n      0x00\n        /* \"#utility.yul\":18817:18823   */\n      dup3\n        /* \"#utility.yul\":18813:18827   */\n      add\n        /* \"#utility.yul\":18806:18863   */\n      mstore\n        /* \"#utility.yul\":18689:18870   */\n      pop\n      jump\t// out\n        /* \"#utility.yul\":18876:19242   */\n    tag_240:\n        /* \"#utility.yul\":19018:19021   */\n      0x00\n        /* \"#utility.yul\":19039:19106   */\n      tag_444\n        /* \"#utility.yul\":19103:19105   */\n      0x1f\n        /* \"#utility.yul\":19098:19101   */\n      dup4\n        /* \"#utility.yul\":19039:19106   */\n      tag_198\n      jump\t// in\n    tag_444:\n        /* \"#utility.yul\":19032:19106   */\n      swap2\n      pop\n        /* \"#utility.yul\":19115:19208   */\n      tag_445\n        /* \"#utility.yul\":19204:19207   */\n      dup3\n        /* \"#utility.yul\":19115:19208   */\n      tag_239\n      jump\t// in\n    tag_445:\n        /* \"#utility.yul\":19233:19235   */\n      0x20\n        /* \"#utility.yul\":19228:19231   */\n      dup3\n        /* \"#utility.yul\":19224:19236   */\n      add\n        /* \"#utility.yul\":19217:19236   */\n      swap1\n      pop\n        /* \"#utility.yul\":18876:19242   */\n      swap2\n      swap1\n      pop\n      jump\t// out\n        /* \"#utility.yul\":19248:19667   */\n    tag_115:\n        /* \"#utility.yul\":19414:19418   */\n      0x00\n        /* \"#utility.yul\":19452:19454   */\n      0x20\n        /* \"#utility.yul\":19441:19450   */\n      dup3\n        /* \"#utility.yul\":19437:19455   */\n      add\n        /* \"#utility.yul\":19429:19455   */\n      swap1\n      pop\n        /* \"#utility.yul\":19501:19510   */\n      dup2\n        /* \"#utility.yul\":19495:19499   */\n      dup2\n        /* \"#utility.yul\":19491:19511   */\n      sub\n        /* \"#utility.yul\":19487:19488   */\n      0x00\n        /* \"#utility.yul\":19476:19485   */\n      dup4\n        /* \"#utility.yul\":19472:19489   */\n      add\n        /* \"#utility.yul\":19465:19512   */\n      mstore\n        /* \"#utility.yul\":19529:19660   */\n      tag_447\n        /* \"#utility.yul\":19655:19659   */\n      dup2\n        /* \"#utility.yul\":19529:19660   */\n      tag_240\n      jump\t// in\n    tag_447:\n        /* \"#utility.yul\":19521:19660   */\n      swap1\n      pop\n        /* \"#utility.yul\":19248:19667   */\n      swap2\n      swap1\n      pop\n      jump\t// out\n        /* \"#utility.yul\":19673:19853   */\n    tag_241:\n        /* \"#utility.yul\":19813:19845   */\n      0x4661696c656420746f20726566756e642065786365737320616d6f756e740000\n        /* \"#utility.yul\":19809:19810   */\n      0x00\n        /* \"#utility.yul\":19801:19807   */\n      dup3\n        /* \"#utility.yul\":19797:19811   */\n      add\n        /* \"#utility.yul\":19790:19846   */\n      mstore\n        /* \"#utility.yul\":19673:19853   */\n      pop\n      jump\t// out\n        /* \"#utility.yul\":19859:20225   */\n    tag_242:\n        /* \"#utility.yul\":20001:20004   */\n      0x00\n        /* \"#utility.yul\":20022:20089   */\n      tag_450\n        /* \"#utility.yul\":20086:20088   */\n      0x1e\n        /* \"#utility.yul\":20081:20084   */\n      dup4\n        /* \"#utility.yul\":20022:20089   */\n      tag_198\n      jump\t// in\n    tag_450:\n        /* \"#utility.yul\":20015:20089   */\n      swap2\n      pop\n        /* \"#utility.yul\":20098:20191   */\n      tag_451\n        /* \"#utility.yul\":20187:20190   */\n      dup3\n        /* \"#utility.yul\":20098:20191   */\n      tag_241\n      jump\t// in\n    tag_451:\n        /* \"#utility.yul\":20216:20218   */\n      0x20\n        /* \"#utility.yul\":20211:20214   */\n      dup3\n        /* \"#utility.yul\":20207:20219   */\n      add\n        /* \"#utility.yul\":20200:20219   */\n      swap1\n      pop\n        /* \"#utility.yul\":19859:20225   */\n      swap2\n      swap1\n      pop\n      jump\t// out\n        /* \"#utility.yul\":20231:20650   */\n    tag_124:\n        /* \"#utility.yul\":20397:20401   */\n      0x00\n        /* \"#utility.yul\":20435:20437   */\n      0x20\n        /* \"#utility.yul\":20424:20433   */\n      dup3\n        /* \"#utility.yul\":20420:20438   */\n      add\n        /* \"#utility.yul\":20412:20438   */\n      swap1\n      pop\n        /* \"#utility.yul\":20484:20493   */\n      dup2\n        /* \"#utility.yul\":20478:20482   */\n      dup2\n        /* \"#utility.yul\":20474:20494   */\n      sub\n        /* \"#utility.yul\":20470:20471   */\n      0x00\n        /* \"#utility.yul\":20459:20468   */\n      dup4\n        /* \"#utility.yul\":20455:20472   */\n      add\n        /* \"#utility.yul\":20448:20495   */\n      mstore\n        /* \"#utility.yul\":20512:20643   */\n      tag_453\n        /* \"#utility.yul\":20638:20642   */\n      dup2\n        /* \"#utility.yul\":20512:20643   */\n      tag_242\n      jump\t// in\n    tag_453:\n        /* \"#utility.yul\":20504:20643   */\n      swap1\n      pop\n        /* \"#utility.yul\":20231:20650   */\n      swap2\n      swap1\n      pop\n      jump\t// out\n        /* \"#utility.yul\":20656:20988   */\n    tag_126:\n        /* \"#utility.yul\":20777:20781   */\n      0x00\n        /* \"#utility.yul\":20815:20817   */\n      0x40\n        /* \"#utility.yul\":20804:20813   */\n      dup3\n        /* \"#utility.yul\":20800:20818   */\n      add\n        /* \"#utility.yul\":20792:20818   */\n      swap1\n      pop\n        /* \"#utility.yul\":20828:20899   */\n      tag_455\n        /* \"#utility.yul\":20896:20897   */\n      0x00\n        /* \"#utility.yul\":20885:20894   */\n      dup4\n        /* \"#utility.yul\":20881:20898   */\n      add\n        /* \"#utility.yul\":20872:20878   */\n      dup6\n        /* \"#utility.yul\":20828:20899   */\n      tag_193\n      jump\t// in\n    tag_455:\n        /* \"#utility.yul\":20909:20981   */\n      tag_456\n        /* \"#utility.yul\":20977:20979   */\n      0x20\n        /* \"#utility.yul\":20966:20975   */\n      dup4\n        /* \"#utility.yul\":20962:20980   */\n      add\n        /* \"#utility.yul\":20953:20959   */\n      dup5\n        /* \"#utility.yul\":20909:20981   */\n      tag_193\n      jump\t// in\n    tag_456:\n        /* \"#utility.yul\":20656:20988   */\n      swap4\n      swap3\n      pop\n      pop\n      pop\n      jump\t// out\n        /* \"#utility.yul\":20994:21174   */\n    tag_243:\n        /* \"#utility.yul\":21042:21119   */\n      0x4e487b7100000000000000000000000000000000000000000000000000000000\n        /* \"#utility.yul\":21039:21040   */\n      0x00\n        /* \"#utility.yul\":21032:21120   */\n      mstore\n        /* \"#utility.yul\":21139:21143   */\n      0x22\n        /* \"#utility.yul\":21136:21137   */\n      0x04\n        /* \"#utility.yul\":21129:21144   */\n      mstore\n        /* \"#utility.yul\":21163:21167   */\n      0x24\n        /* \"#utility.yul\":21160:21161   */\n      0x00\n        /* \"#utility.yul\":21153:21168   */\n      revert\n        /* \"#utility.yul\":21180:21500   */\n    tag_130:\n        /* \"#utility.yul\":21224:21230   */\n      0x00\n        /* \"#utility.yul\":21261:21262   */\n      0x02\n        /* \"#utility.yul\":21255:21259   */\n      dup3\n        /* \"#utility.yul\":21251:21263   */\n      div\n        /* \"#utility.yul\":21241:21263   */\n      swap1\n      pop\n        /* \"#utility.yul\":21308:21309   */\n      0x01\n        /* \"#utility.yul\":21302:21306   */\n      dup3\n        /* \"#utility.yul\":21298:21310   */\n      and\n        /* \"#utility.yul\":21329:21347   */\n      dup1\n        /* \"#utility.yul\":21319:21400   */\n      tag_459\n      jumpi\n        /* \"#utility.yul\":21385:21389   */\n      0x7f\n        /* \"#utility.yul\":21377:21383   */\n      dup3\n        /* \"#utility.yul\":21373:21390   */\n      and\n        /* \"#utility.yul\":21363:21390   */\n      swap2\n      pop\n        /* \"#utility.yul\":21319:21400   */\n    tag_459:\n        /* \"#utility.yul\":21447:21449   */\n      0x20\n        /* \"#utility.yul\":21439:21445   */\n      dup3\n        /* \"#utility.yul\":21436:21450   */\n      lt\n        /* \"#utility.yul\":21416:21434   */\n      dup2\n        /* \"#utility.yul\":21413:21451   */\n      sub\n        /* \"#utility.yul\":21410:21494   */\n      tag_460\n      jumpi\n        /* \"#utility.yul\":21466:21484   */\n      tag_461\n      tag_243\n      jump\t// in\n    tag_461:\n        /* \"#utility.yul\":21410:21494   */\n    tag_460:\n        /* \"#utility.yul\":21231:21500   */\n      pop\n        /* \"#utility.yul\":21180:21500   */\n      swap2\n      swap1\n      pop\n      jump\t// out\n        /* \"#utility.yul\":21506:21669   */\n    tag_244:\n        /* \"#utility.yul\":21646:21661   */\n      0x4e6f7420746865206f776e657200000000000000000000000000000000000000\n        /* \"#utility.yul\":21642:21643   */\n      0x00\n        /* \"#utility.yul\":21634:21640   */\n      dup3\n        /* \"#utility.yul\":21630:21644   */\n      add\n        /* \"#utility.yul\":21623:21662   */\n      mstore\n        /* \"#utility.yul\":21506:21669   */\n      pop\n      jump\t// out\n        /* \"#utility.yul\":21675:22041   */\n    tag_245:\n        /* \"#utility.yul\":21817:21820   */\n      0x00\n        /* \"#utility.yul\":21838:21905   */\n      tag_464\n        /* \"#utility.yul\":21902:21904   */\n      0x0d\n        /* \"#utility.yul\":21897:21900   */\n      dup4\n        /* \"#utility.yul\":21838:21905   */\n      tag_198\n      jump\t// in\n    tag_464:\n        /* \"#utility.yul\":21831:21905   */\n      swap2\n      pop\n        /* \"#utility.yul\":21914:22007   */\n      tag_465\n        /* \"#utility.yul\":22003:22006   */\n      dup3\n        /* \"#utility.yul\":21914:22007   */\n      tag_244\n      jump\t// in\n    tag_465:\n        /* \"#utility.yul\":22032:22034   */\n      0x20\n        /* \"#utility.yul\":22027:22030   */\n      dup3\n        /* \"#utility.yul\":22023:22035   */\n      add\n        /* \"#utility.yul\":22016:22035   */\n      swap1\n      pop\n        /* \"#utility.yul\":21675:22041   */\n      swap2\n      swap1\n      pop\n      jump\t// out\n        /* \"#utility.yul\":22047:22466   */\n    tag_146:\n        /* \"#utility.yul\":22213:22217   */\n      0x00\n        /* \"#utility.yul\":22251:22253   */\n      0x20\n        /* \"#utility.yul\":22240:22249   */\n      dup3\n        /* \"#utility.yul\":22236:22254   */\n      add\n        /* \"#utility.yul\":22228:22254   */\n      swap1\n      pop\n        /* \"#utility.yul\":22300:22309   */\n      dup2\n        /* \"#utility.yul\":22294:22298   */\n      dup2\n        /* \"#utility.yul\":22290:22310   */\n      sub\n        /* \"#utility.yul\":22286:22287   */\n      0x00\n        /* \"#utility.yul\":22275:22284   */\n      dup4\n        /* \"#utility.yul\":22271:22288   */\n      add\n        /* \"#utility.yul\":22264:22311   */\n      mstore\n        /* \"#utility.yul\":22328:22459   */\n      tag_467\n        /* \"#utility.yul\":22454:22458   */\n      dup2\n        /* \"#utility.yul\":22328:22459   */\n      tag_245\n      jump\t// in\n    tag_467:\n        /* \"#utility.yul\":22320:22459   */\n      swap1\n      pop\n        /* \"#utility.yul\":22047:22466   */\n      swap2\n      swap1\n      pop\n      jump\t// out\n        /* \"#utility.yul\":22472:22653   */\n    tag_246:\n        /* \"#utility.yul\":22612:22645   */\n      0x5072696365206d7573742062652067726561746572207468616e207a65726f00\n        /* \"#utility.yul\":22608:22609   */\n      0x00\n        /* \"#utility.yul\":22600:22606   */\n      dup3\n        /* \"#utility.yul\":22596:22610   */\n      add\n        /* \"#utility.yul\":22589:22646   */\n      mstore\n        /* \"#utility.yul\":22472:22653   */\n      pop\n      jump\t// out\n        /* \"#utility.yul\":22659:23025   */\n    tag_247:\n        /* \"#utility.yul\":22801:22804   */\n      0x00\n        /* \"#utility.yul\":22822:22889   */\n      tag_470\n        /* \"#utility.yul\":22886:22888   */\n      0x1f\n        /* \"#utility.yul\":22881:22884   */\n      dup4\n        /* \"#utility.yul\":22822:22889   */\n      tag_198\n      jump\t// in\n    tag_470:\n        /* \"#utility.yul\":22815:22889   */\n      swap2\n      pop\n        /* \"#utility.yul\":22898:22991   */\n      tag_471\n        /* \"#utility.yul\":22987:22990   */\n      dup3\n        /* \"#utility.yul\":22898:22991   */\n      tag_246\n      jump\t// in\n    tag_471:\n        /* \"#utility.yul\":23016:23018   */\n      0x20\n        /* \"#utility.yul\":23011:23014   */\n      dup3\n        /* \"#utility.yul\":23007:23019   */\n      add\n        /* \"#utility.yul\":23000:23019   */\n      swap1\n      pop\n        /* \"#utility.yul\":22659:23025   */\n      swap2\n      swap1\n      pop\n      jump\t// out\n        /* \"#utility.yul\":23031:23450   */\n    tag_149:\n        /* \"#utility.yul\":23197:23201   */\n      0x00\n        /* \"#utility.yul\":23235:23237   */\n      0x20\n        /* \"#utility.yul\":23224:23233   */\n      dup3\n        /* \"#utility.yul\":23220:23238   */\n      add\n        /* \"#utility.yul\":23212:23238   */\n      swap1\n      pop\n        /* \"#utility.yul\":23284:23293   */\n      dup2\n        /* \"#utility.yul\":23278:23282   */\n      dup2\n        /* \"#utility.yul\":23274:23294   */\n      sub\n        /* \"#utility.yul\":23270:23271   */\n      0x00\n        /* \"#utility.yul\":23259:23268   */\n      dup4\n        /* \"#utility.yul\":23255:23272   */\n      add\n        /* \"#utility.yul\":23248:23295   */\n      mstore\n        /* \"#utility.yul\":23312:23443   */\n      tag_473\n        /* \"#utility.yul\":23438:23442   */\n      dup2\n        /* \"#utility.yul\":23312:23443   */\n      tag_247\n      jump\t// in\n    tag_473:\n        /* \"#utility.yul\":23304:23443   */\n      swap1\n      pop\n        /* \"#utility.yul\":23031:23450   */\n      swap2\n      swap1\n      pop\n      jump\t// out\n        /* \"#utility.yul\":23456:23647   */\n    tag_156:\n        /* \"#utility.yul\":23496:23499   */\n      0x00\n        /* \"#utility.yul\":23515:23535   */\n      tag_475\n        /* \"#utility.yul\":23533:23534   */\n      dup3\n        /* \"#utility.yul\":23515:23535   */\n      tag_190\n      jump\t// in\n    tag_475:\n        /* \"#utility.yul\":23510:23535   */\n      swap2\n      pop\n        /* \"#utility.yul\":23549:23569   */\n      tag_476\n        /* \"#utility.yul\":23567:23568   */\n      dup4\n        /* \"#utility.yul\":23549:23569   */\n      tag_190\n      jump\t// in\n    tag_476:\n        /* \"#utility.yul\":23544:23569   */\n      swap3\n      pop\n        /* \"#utility.yul\":23592:23593   */\n      dup3\n        /* \"#utility.yul\":23589:23590   */\n      dup3\n        /* \"#utility.yul\":23585:23594   */\n      add\n        /* \"#utility.yul\":23578:23594   */\n      swap1\n      pop\n        /* \"#utility.yul\":23613:23616   */\n      dup1\n        /* \"#utility.yul\":23610:23611   */\n      dup3\n        /* \"#utility.yul\":23607:23617   */\n      gt\n        /* \"#utility.yul\":23604:23640   */\n      iszero\n      tag_477\n      jumpi\n        /* \"#utility.yul\":23620:23638   */\n      tag_478\n      tag_232\n      jump\t// in\n    tag_478:\n        /* \"#utility.yul\":23604:23640   */\n    tag_477:\n        /* \"#utility.yul\":23456:23647   */\n      swap3\n      swap2\n      pop\n      pop\n      jump\t// out\n        /* \"#utility.yul\":23653:23794   */\n    tag_248:\n        /* \"#utility.yul\":23702:23706   */\n      0x00\n        /* \"#utility.yul\":23725:23728   */\n      dup2\n        /* \"#utility.yul\":23717:23728   */\n      swap1\n      pop\n        /* \"#utility.yul\":23748:23751   */\n      dup2\n        /* \"#utility.yul\":23745:23746   */\n      0x00\n        /* \"#utility.yul\":23738:23752   */\n      mstore\n        /* \"#utility.yul\":23782:23786   */\n      0x20\n        /* \"#utility.yul\":23779:23780   */\n      0x00\n        /* \"#utility.yul\":23769:23787   */\n      keccak256\n        /* \"#utility.yul\":23761:23787   */\n      swap1\n      pop\n        /* \"#utility.yul\":23653:23794   */\n      swap2\n      swap1\n      pop\n      jump\t// out\n        /* \"#utility.yul\":23800:23893   */\n    tag_249:\n        /* \"#utility.yul\":23837:23843   */\n      0x00\n        /* \"#utility.yul\":23884:23886   */\n      0x20\n        /* \"#utility.yul\":23879:23881   */\n      0x1f\n        /* \"#utility.yul\":23872:23877   */\n      dup4\n        /* \"#utility.yul\":23868:23882   */\n      add\n        /* \"#utility.yul\":23864:23887   */\n      div\n        /* \"#utility.yul\":23854:23887   */\n      swap1\n      pop\n        /* \"#utility.yul\":23800:23893   */\n      swap2\n      swap1\n      pop\n      jump\t// out\n        /* \"#utility.yul\":23899:24006   */\n    tag_250:\n        /* \"#utility.yul\":23943:23951   */\n      0x00\n        /* \"#utility.yul\":23993:23998   */\n      dup3\n        /* \"#utility.yul\":23987:23991   */\n      dup3\n        /* \"#utility.yul\":23983:23999   */\n      shl\n        /* \"#utility.yul\":23962:23999   */\n      swap1\n      pop\n        /* \"#utility.yul\":23899:24006   */\n      swap3\n      swap2\n      pop\n      pop\n      jump\t// out\n        /* \"#utility.yul\":24012:24405   */\n    tag_251:\n        /* \"#utility.yul\":24081:24087   */\n      0x00\n        /* \"#utility.yul\":24131:24132   */\n      0x08\n        /* \"#utility.yul\":24119:24129   */\n      dup4\n        /* \"#utility.yul\":24115:24133   */\n      mul\n        /* \"#utility.yul\":24154:24251   */\n      tag_483\n        /* \"#utility.yul\":24184:24250   */\n      0xffffffffffffffffffffffffffffffffffffffffffffffffffffffffffffffff\n        /* \"#utility.yul\":24173:24182   */\n      dup3\n        /* \"#utility.yul\":24154:24251   */\n      tag_250\n      jump\t// in\n    tag_483:\n        /* \"#utility.yul\":24272:24311   */\n      tag_484\n        /* \"#utility.yul\":24302:24310   */\n      dup7\n        /* \"#utility.yul\":24291:24300   */\n      dup4\n        /* \"#utility.yul\":24272:24311   */\n      tag_250\n      jump\t// in\n    tag_484:\n        /* \"#utility.yul\":24260:24311   */\n      swap6\n      pop\n        /* \"#utility.yul\":24344:24348   */\n      dup1\n        /* \"#utility.yul\":24340:24349   */\n      not\n        /* \"#utility.yul\":24333:24338   */\n      dup5\n        /* \"#utility.yul\":24329:24350   */\n      and\n        /* \"#utility.yul\":24320:24350   */\n      swap4\n      pop\n        /* \"#utility.yul\":24393:24397   */\n      dup1\n        /* \"#utility.yul\":24383:24391   */\n      dup7\n        /* \"#utility.yul\":24379:24398   */\n      and\n        /* \"#utility.yul\":24372:24377   */\n      dup5\n        /* \"#utility.yul\":24369:24399   */\n      or\n        /* \"#utility.yul\":24359:24399   */\n      swap3\n      pop\n        /* \"#utility.yul\":24088:24405   */\n      pop\n      pop\n        /* \"#utility.yul\":24012:24405   */\n      swap4\n      swap3\n      pop\n      pop\n      pop\n      jump\t// out\n        /* \"#utility.yul\":24411:24471   */\n    tag_252:\n        /* \"#utility.yul\":24439:24442   */\n      0x00\n        /* \"#utility.yul\":24460:24465   */\n      dup2\n        /* \"#utility.yul\":24453:24465   */\n      swap1\n      pop\n        /* \"#utility.yul\":24411:24471   */\n      swap2\n      swap1\n      pop\n      jump\t// out\n        /* \"#utility.yul\":24477:24619   */\n    tag_253:\n        /* \"#utility.yul\":24527:24536   */\n      0x00\n        /* \"#utility.yul\":24560:24613   */\n      tag_487\n        /* \"#utility.yul\":24578:24612   */\n      tag_488\n        /* \"#utility.yul\":24587:24611   */\n      tag_489\n        /* \"#utility.yul\":24605:24610   */\n      dup5\n        /* \"#utility.yul\":24587:24611   */\n      tag_190\n      jump\t// in\n    tag_489:\n        /* \"#utility.yul\":24578:24612   */\n      tag_252\n      jump\t// in\n    tag_488:\n        /* \"#utility.yul\":24560:24613   */\n      tag_190\n      jump\t// in\n    tag_487:\n        /* \"#utility.yul\":24547:24613   */\n      swap1\n      pop\n        /* \"#utility.yul\":24477:24619   */\n      swap2\n      swap1\n      pop\n      jump\t// out\n        /* \"#utility.yul\":24625:24700   */\n    tag_254:\n        /* \"#utility.yul\":24668:24671   */\n      0x00\n        /* \"#utility.yul\":24689:24694   */\n      dup2\n        /* \"#utility.yul\":24682:24694   */\n      swap1\n      pop\n        /* \"#utility.yul\":24625:24700   */\n      swap2\n      swap1\n      pop\n      jump\t// out\n        /* \"#utility.yul\":24706:24975   */\n    tag_255:\n        /* \"#utility.yul\":24816:24855   */\n      tag_492\n        /* \"#utility.yul\":24847:24854   */\n      dup4\n        /* \"#utility.yul\":24816:24855   */\n      tag_253\n      jump\t// in\n    tag_492:\n        /* \"#utility.yul\":24877:24968   */\n      tag_493\n        /* \"#utility.yul\":24926:24967   */\n      tag_494\n        /* \"#utility.yul\":24950:24966   */\n      dup3\n        /* \"#utility.yul\":24926:24967   */\n      tag_254\n      jump\t// in\n    tag_494:\n        /* \"#utility.yul\":24918:24924   */\n      dup5\n        /* \"#utility.yul\":24911:24915   */\n      dup5\n        /* \"#utility.yul\":24905:24916   */\n      sload\n        /* \"#utility.yul\":24877:24968   */\n      tag_251\n      jump\t// in\n    tag_493:\n        /* \"#utility.yul\":24871:24875   */\n      dup3\n        /* \"#utility.yul\":24864:24969   */\n      sstore\n        /* \"#utility.yul\":24782:24975   */\n      pop\n        /* \"#utility.yul\":24706:24975   */\n      pop\n      pop\n      pop\n      jump\t// out\n        /* \"#utility.yul\":24981:25054   */\n    tag_256:\n        /* \"#utility.yul\":25026:25029   */\n      0x00\n        /* \"#utility.yul\":25047:25048   */\n      0x00\n        /* \"#utility.yul\":25040:25048   */\n      swap1\n      pop\n        /* \"#utility.yul\":24981:25054   */\n      swap1\n      jump\t// out\n        /* \"#utility.yul\":25060:25249   */\n    tag_257:\n        /* \"#utility.yul\":25137:25169   */\n      tag_497\n      tag_256\n      jump\t// in\n    tag_497:\n        /* \"#utility.yul\":25178:25243   */\n      tag_498\n        /* \"#utility.yul\":25236:25242   */\n      dup2\n        /* \"#utility.yul\":25228:25234   */\n      dup5\n        /* \"#utility.yul\":25222:25226   */\n      dup5\n        /* \"#utility.yul\":25178:25243   */\n      tag_255\n      jump\t// in\n    tag_498:\n        /* \"#utility.yul\":25113:25249   */\n      pop\n        /* \"#utility.yul\":25060:25249   */\n      pop\n      pop\n      jump\t// out\n        /* \"#utility.yul\":25255:25441   */\n    tag_258:\n        /* \"#utility.yul\":25315:25435   */\n    tag_500:\n        /* \"#utility.yul\":25332:25335   */\n      dup2\n        /* \"#utility.yul\":25325:25330   */\n      dup2\n        /* \"#utility.yul\":25322:25336   */\n      lt\n        /* \"#utility.yul\":25315:25435   */\n      iszero\n      tag_502\n      jumpi\n        /* \"#utility.yul\":25386:25425   */\n      tag_503\n        /* \"#utility.yul\":25423:25424   */\n      0x00\n        /* \"#utility.yul\":25416:25421   */\n      dup3\n        /* \"#utility.yul\":25386:25425   */\n      tag_257\n      jump\t// in\n    tag_503:\n        /* \"#utility.yul\":25359:25360   */\n      0x01\n        /* \"#utility.yul\":25352:25357   */\n      dup2\n        /* \"#utility.yul\":25348:25361   */\n      add\n        /* \"#utility.yul\":25339:25361   */\n      swap1\n      pop\n        /* \"#utility.yul\":25315:25435   */\n      jump(tag_500)\n    tag_502:\n        /* \"#utility.yul\":25255:25441   */\n      pop\n      pop\n      jump\t// out\n        /* \"#utility.yul\":25447:25990   */\n    tag_259:\n        /* \"#utility.yul\":25548:25550   */\n      0x1f\n        /* \"#utility.yul\":25543:25546   */\n      dup3\n        /* \"#utility.yul\":25540:25551   */\n      gt\n        /* \"#utility.yul\":25537:25983   */\n      iszero\n      tag_505\n      jumpi\n        /* \"#utility.yul\":25582:25620   */\n      tag_506\n        /* \"#utility.yul\":25614:25619   */\n      dup2\n        /* \"#utility.yul\":25582:25620   */\n      tag_248\n      jump\t// in\n    tag_506:\n        /* \"#utility.yul\":25666:25695   */\n      tag_507\n        /* \"#utility.yul\":25684:25694   */\n      dup5\n        /* \"#utility.yul\":25666:25695   */\n      tag_249\n      jump\t// in\n    tag_507:\n        /* \"#utility.yul\":25656:25664   */\n      dup2\n        /* \"#utility.yul\":25652:25696   */\n      add\n        /* \"#utility.yul\":25849:25851   */\n      0x20\n        /* \"#utility.yul\":25837:25847   */\n      dup6\n        /* \"#utility.yul\":25834:25852   */\n      lt\n        /* \"#utility.yul\":25831:25880   */\n      iszero\n      tag_508\n      jumpi\n        /* \"#utility.yul\":25870:25878   */\n      dup2\n        /* \"#utility.yul\":25855:25878   */\n      swap1\n      pop\n        /* \"#utility.yul\":25831:25880   */\n    tag_508:\n        /* \"#utility.yul\":25893:25973   */\n      tag_509\n        /* \"#utility.yul\":25949:25971   */\n      tag_510\n        /* \"#utility.yul\":25967:25970   */\n      dup6\n        /* \"#utility.yul\":25949:25971   */\n      tag_249\n      jump\t// in\n    tag_510:\n        /* \"#utility.yul\":25939:25947   */\n      dup4\n        /* \"#utility.yul\":25935:25972   */\n      add\n        /* \"#utility.yul\":25922:25933   */\n      dup3\n        /* \"#utility.yul\":25893:25973   */\n      tag_258\n      jump\t// in\n    tag_509:\n        /* \"#utility.yul\":25552:25983   */\n      pop\n      pop\n        /* \"#utility.yul\":25537:25983   */\n    tag_505:\n        /* \"#utility.yul\":25447:25990   */\n      pop\n      pop\n      pop\n      jump\t// out\n        /* \"#utility.yul\":25996:26113   */\n    tag_260:\n        /* \"#utility.yul\":26050:26058   */\n      0x00\n        /* \"#utility.yul\":26100:26105   */\n      dup3\n        /* \"#utility.yul\":26094:26098   */\n      dup3\n        /* \"#utility.yul\":26090:26106   */\n      shr\n        /* \"#utility.yul\":26069:26106   */\n      swap1\n      pop\n        /* \"#utility.yul\":25996:26113   */\n      swap3\n      swap2\n      pop\n      pop\n      jump\t// out\n        /* \"#utility.yul\":26119:26288   */\n    tag_261:\n        /* \"#utility.yul\":26163:26169   */\n      0x00\n        /* \"#utility.yul\":26196:26247   */\n      tag_513\n        /* \"#utility.yul\":26244:26245   */\n      0x00\n        /* \"#utility.yul\":26240:26246   */\n      not\n        /* \"#utility.yul\":26232:26237   */\n      dup5\n        /* \"#utility.yul\":26229:26230   */\n      0x08\n        /* \"#utility.yul\":26225:26238   */\n      mul\n        /* \"#utility.yul\":26196:26247   */\n      tag_260\n      jump\t// in\n    tag_513:\n        /* \"#utility.yul\":26192:26248   */\n      not\n        /* \"#utility.yul\":26277:26281   */\n      dup1\n        /* \"#utility.yul\":26271:26275   */\n      dup4\n        /* \"#utility.yul\":26267:26282   */\n      and\n        /* \"#utility.yul\":26257:26282   */\n      swap2\n      pop\n        /* \"#utility.yul\":26170:26288   */\n      pop\n        /* \"#utility.yul\":26119:26288   */\n      swap3\n      swap2\n      pop\n      pop\n      jump\t// out\n        /* \"#utility.yul\":26293:26588   */\n    tag_262:\n        /* \"#utility.yul\":26369:26373   */\n      0x00\n        /* \"#utility.yul\":26515:26544   */\n      tag_515\n        /* \"#utility.yul\":26540:26543   */\n      dup4\n        /* \"#utility.yul\":26534:26538   */\n      dup4\n        /* \"#utility.yul\":26515:26544   */\n      tag_261\n      jump\t// in\n    tag_515:\n        /* \"#utility.yul\":26507:26544   */\n      swap2\n      pop\n        /* \"#utility.yul\":26577:26580   */\n      dup3\n        /* \"#utility.yul\":26574:26575   */\n      0x02\n        /* \"#utility.yul\":26570:26581   */\n      mul\n        /* \"#utility.yul\":26564:26568   */\n      dup3\n        /* \"#utility.yul\":26561:26582   */\n      or\n        /* \"#utility.yul\":26553:26582   */\n      swap1\n      pop\n        /* \"#utility.yul\":26293:26588   */\n      swap3\n      swap2\n      pop\n      pop\n      jump\t// out\n        /* \"#utility.yul\":26593:27988   */\n    tag_158:\n        /* \"#utility.yul\":26710:26747   */\n      tag_517\n        /* \"#utility.yul\":26743:26746   */\n      dup3\n        /* \"#utility.yul\":26710:26747   */\n      tag_197\n      jump\t// in\n    tag_517:\n        /* \"#utility.yul\":26812:26830   */\n      0xffffffffffffffff\n        /* \"#utility.yul\":26804:26810   */\n      dup2\n        /* \"#utility.yul\":26801:26831   */\n      gt\n        /* \"#utility.yul\":26798:26854   */\n      iszero\n      tag_518\n      jumpi\n        /* \"#utility.yul\":26834:26852   */\n      tag_519\n      tag_213\n      jump\t// in\n    tag_519:\n        /* \"#utility.yul\":26798:26854   */\n    tag_518:\n        /* \"#utility.yul\":26878:26916   */\n      tag_520\n        /* \"#utility.yul\":26910:26914   */\n      dup3\n        /* \"#utility.yul\":26904:26915   */\n      sload\n        /* \"#utility.yul\":26878:26916   */\n      tag_130\n      jump\t// in\n    tag_520:\n        /* \"#utility.yul\":26963:27030   */\n      tag_521\n        /* \"#utility.yul\":27023:27029   */\n      dup3\n        /* \"#utility.yul\":27015:27021   */\n      dup3\n        /* \"#utility.yul\":27009:27013   */\n      dup6\n        /* \"#utility.yul\":26963:27030   */\n      tag_259\n      jump\t// in\n    tag_521:\n        /* \"#utility.yul\":27057:27058   */\n      0x00\n        /* \"#utility.yul\":27081:27085   */\n      0x20\n        /* \"#utility.yul\":27068:27085   */\n      swap1\n      pop\n        /* \"#utility.yul\":27113:27115   */\n      0x1f\n        /* \"#utility.yul\":27105:27111   */\n      dup4\n        /* \"#utility.yul\":27102:27116   */\n      gt\n        /* \"#utility.yul\":27130:27131   */\n      0x01\n        /* \"#utility.yul\":27125:27743   */\n      dup2\n      eq\n      tag_523\n      jumpi\n        /* \"#utility.yul\":27787:27788   */\n      0x00\n        /* \"#utility.yul\":27804:27810   */\n      dup5\n        /* \"#utility.yul\":27801:27878   */\n      iszero\n      tag_524\n      jumpi\n        /* \"#utility.yul\":27853:27862   */\n      dup3\n        /* \"#utility.yul\":27848:27851   */\n      dup8\n        /* \"#utility.yul\":27844:27863   */\n      add\n        /* \"#utility.yul\":27838:27864   */\n      mload\n        /* \"#utility.yul\":27829:27864   */\n      swap1\n      pop\n        /* \"#utility.yul\":27801:27878   */\n    tag_524:\n        /* \"#utility.yul\":27904:27971   */\n      tag_525\n        /* \"#utility.yul\":27964:27970   */\n      dup6\n        /* \"#utility.yul\":27957:27962   */\n      dup3\n        /* \"#utility.yul\":27904:27971   */\n      tag_262\n      jump\t// in\n    tag_525:\n        /* \"#utility.yul\":27898:27902   */\n      dup7\n        /* \"#utility.yul\":27891:27972   */\n      sstore\n        /* \"#utility.yul\":27760:27982   */\n      pop\n        /* \"#utility.yul\":27095:27982   */\n      jump(tag_522)\n        /* \"#utility.yul\":27125:27743   */\n    tag_523:\n        /* \"#utility.yul\":27177:27181   */\n      0x1f\n        /* \"#utility.yul\":27173:27182   */\n      not\n        /* \"#utility.yul\":27165:27171   */\n      dup5\n        /* \"#utility.yul\":27161:27183   */\n      and\n        /* \"#utility.yul\":27211:27248   */\n      tag_526\n        /* \"#utility.yul\":27243:27247   */\n      dup7\n        /* \"#utility.yul\":27211:27248   */\n      tag_248\n      jump\t// in\n    tag_526:\n        /* \"#utility.yul\":27270:27271   */\n      0x00\n        /* \"#utility.yul\":27284:27492   */\n    tag_527:\n        /* \"#utility.yul\":27298:27305   */\n      dup3\n        /* \"#utility.yul\":27295:27296   */\n      dup2\n        /* \"#utility.yul\":27292:27306   */\n      lt\n        /* \"#utility.yul\":27284:27492   */\n      iszero\n      tag_529\n      jumpi\n        /* \"#utility.yul\":27377:27386   */\n      dup5\n        /* \"#utility.yul\":27372:27375   */\n      dup10\n        /* \"#utility.yul\":27368:27387   */\n      add\n        /* \"#utility.yul\":27362:27388   */\n      mload\n        /* \"#utility.yul\":27354:27360   */\n      dup3\n        /* \"#utility.yul\":27347:27389   */\n      sstore\n        /* \"#utility.yul\":27428:27429   */\n      0x01\n        /* \"#utility.yul\":27420:27426   */\n      dup3\n        /* \"#utility.yul\":27416:27430   */\n      add\n        /* \"#utility.yul\":27406:27430   */\n      swap2\n      pop\n        /* \"#utility.yul\":27475:27477   */\n      0x20\n        /* \"#utility.yul\":27464:27473   */\n      dup6\n        /* \"#utility.yul\":27460:27478   */\n      add\n        /* \"#utility.yul\":27447:27478   */\n      swap5\n      pop\n        /* \"#utility.yul\":27321:27325   */\n      0x20\n        /* \"#utility.yul\":27318:27319   */\n      dup2\n        /* \"#utility.yul\":27314:27326   */\n      add\n        /* \"#utility.yul\":27309:27326   */\n      swap1\n      pop\n        /* \"#utility.yul\":27284:27492   */\n      jump(tag_527)\n    tag_529:\n        /* \"#utility.yul\":27520:27526   */\n      dup7\n        /* \"#utility.yul\":27511:27518   */\n      dup4\n        /* \"#utility.yul\":27508:27527   */\n      lt\n        /* \"#utility.yul\":27505:27684   */\n      iszero\n      tag_530\n      jumpi\n        /* \"#utility.yul\":27578:27587   */\n      dup5\n        /* \"#utility.yul\":27573:27576   */\n      dup10\n        /* \"#utility.yul\":27569:27588   */\n      add\n        /* \"#utility.yul\":27563:27589   */\n      mload\n        /* \"#utility.yul\":27621:27669   */\n      tag_531\n        /* \"#utility.yul\":27663:27667   */\n      0x1f\n        /* \"#utility.yul\":27655:27661   */\n      dup10\n        /* \"#utility.yul\":27651:27668   */\n      and\n        /* \"#utility.yul\":27640:27649   */\n      dup3\n        /* \"#utility.yul\":27621:27669   */\n      tag_261\n      jump\t// in\n    tag_531:\n        /* \"#utility.yul\":27613:27619   */\n      dup4\n        /* \"#utility.yul\":27606:27670   */\n      sstore\n        /* \"#utility.yul\":27528:27684   */\n      pop\n        /* \"#utility.yul\":27505:27684   */\n    tag_530:\n        /* \"#utility.yul\":27730:27731   */\n      0x01\n        /* \"#utility.yul\":27726:27727   */\n      0x02\n        /* \"#utility.yul\":27718:27724   */\n      dup9\n        /* \"#utility.yul\":27714:27728   */\n      mul\n        /* \"#utility.yul\":27710:27732   */\n      add\n        /* \"#utility.yul\":27704:27708   */\n      dup9\n        /* \"#utility.yul\":27697:27733   */\n      sstore\n        /* \"#utility.yul\":27132:27743   */\n      pop\n      pop\n      pop\n        /* \"#utility.yul\":27095:27982   */\n    tag_522:\n      pop\n        /* \"#utility.yul\":26685:27988   */\n      pop\n      pop\n      pop\n        /* \"#utility.yul\":26593:27988   */\n      pop\n      pop\n      jump\t// out\n        /* \"#utility.yul\":27994:28227   */\n    tag_161:\n        /* \"#utility.yul\":28033:28036   */\n      0x00\n        /* \"#utility.yul\":28056:28080   */\n      tag_533\n        /* \"#utility.yul\":28074:28079   */\n      dup3\n        /* \"#utility.yul\":28056:28080   */\n      tag_190\n      jump\t// in\n    tag_533:\n        /* \"#utility.yul\":28047:28080   */\n      swap2\n      pop\n        /* \"#utility.yul\":28102:28168   */\n      0xffffffffffffffffffffffffffffffffffffffffffffffffffffffffffffffff\n        /* \"#utility.yul\":28095:28100   */\n      dup3\n        /* \"#utility.yul\":28092:28169   */\n      sub\n        /* \"#utility.yul\":28089:28192   */\n      tag_534\n      jumpi\n        /* \"#utility.yul\":28172:28190   */\n      tag_535\n      tag_232\n      jump\t// in\n    tag_535:\n        /* \"#utility.yul\":28089:28192   */\n    tag_534:\n        /* \"#utility.yul\":28219:28220   */\n      0x01\n        /* \"#utility.yul\":28212:28217   */\n      dup3\n        /* \"#utility.yul\":28208:28221   */\n      add\n        /* \"#utility.yul\":28201:28221   */\n      swap1\n      pop\n        /* \"#utility.yul\":27994:28227   */\n      swap2\n      swap1\n      pop\n      jump\t// out\n        /* \"#utility.yul\":28233:28414   */\n    tag_263:\n        /* \"#utility.yul\":28373:28406   */\n      0x5265656e7472616e637947756172643a207265656e7472616e742063616c6c00\n        /* \"#utility.yul\":28369:28370   */\n      0x00\n        /* \"#utility.yul\":28361:28367   */\n      dup3\n        /* \"#utility.yul\":28357:28371   */\n      add\n        /* \"#utility.yul\":28350:28407   */\n      mstore\n        /* \"#utility.yul\":28233:28414   */\n      pop\n      jump\t// out\n        /* \"#utility.yul\":28420:28786   */\n    tag_264:\n        /* \"#utility.yul\":28562:28565   */\n      0x00\n        /* \"#utility.yul\":28583:28650   */\n      tag_538\n        /* \"#utility.yul\":28647:28649   */\n      0x1f\n        /* \"#utility.yul\":28642:28645   */\n      dup4\n        /* \"#utility.yul\":28583:28650   */\n      tag_198\n      jump\t// in\n    tag_538:\n        /* \"#utility.yul\":28576:28650   */\n      swap2\n      pop\n        /* \"#utility.yul\":28659:28752   */\n      tag_539\n        /* \"#utility.yul\":28748:28751   */\n      dup3\n        /* \"#utility.yul\":28659:28752   */\n      tag_263\n      jump\t// in\n    tag_539:\n        /* \"#utility.yul\":28777:28779   */\n      0x20\n        /* \"#utility.yul\":28772:28775   */\n      dup3\n        /* \"#utility.yul\":28768:28780   */\n      add\n        /* \"#utility.yul\":28761:28780   */\n      swap1\n      pop\n        /* \"#utility.yul\":28420:28786   */\n      swap2\n      swap1\n      pop\n      jump\t// out\n        /* \"#utility.yul\":28792:29211   */\n    tag_165:\n        /* \"#utility.yul\":28958:28962   */\n      0x00\n        /* \"#utility.yul\":28996:28998   */\n      0x20\n        /* \"#utility.yul\":28985:28994   */\n      dup3\n        /* \"#utility.yul\":28981:28999   */\n      add\n        /* \"#utility.yul\":28973:28999   */\n      swap1\n      pop\n        /* \"#utility.yul\":29045:29054   */\n      dup2\n        /* \"#utility.yul\":29039:29043   */\n      dup2\n        /* \"#utility.yul\":29035:29055   */\n      sub\n        /* \"#utility.yul\":29031:29032   */\n      0x00\n        /* \"#utility.yul\":29020:29029   */\n      dup4\n        /* \"#utility.yul\":29016:29033   */\n      add\n        /* \"#utility.yul\":29009:29056   */\n      mstore\n        /* \"#utility.yul\":29073:29204   */\n      tag_541\n        /* \"#utility.yul\":29199:29203   */\n      dup2\n        /* \"#utility.yul\":29073:29204   */\n      tag_264\n      jump\t// in\n    tag_541:\n        /* \"#utility.yul\":29065:29204   */\n      swap1\n      pop\n        /* \"#utility.yul\":28792:29211   */\n      swap2\n      swap1\n      pop\n      jump\t// out\n        /* \"#utility.yul\":29217:29397   */\n    tag_172:\n        /* \"#utility.yul\":29265:29342   */\n      0x4e487b7100000000000000000000000000000000000000000000000000000000\n        /* \"#utility.yul\":29262:29263   */\n      0x00\n        /* \"#utility.yul\":29255:29343   */\n      mstore\n        /* \"#utility.yul\":29362:29366   */\n      0x32\n        /* \"#utility.yul\":29359:29360   */\n      0x04\n        /* \"#utility.yul\":29352:29367   */\n      mstore\n        /* \"#utility.yul\":29386:29390   */\n      0x24\n        /* \"#utility.yul\":29383:29384   */\n      0x00\n        /* \"#utility.yul\":29376:29391   */\n      revert\n        /* \"#utility.yul\":29403:29583   */\n    tag_184:\n        /* \"#utility.yul\":29451:29528   */\n      0x4e487b7100000000000000000000000000000000000000000000000000000000\n        /* \"#utility.yul\":29448:29449   */\n      0x00\n        /* \"#utility.yul\":29441:29529   */\n      mstore\n        /* \"#utility.yul\":29548:29552   */\n      0x31\n        /* \"#utility.yul\":29545:29546   */\n      0x04\n        /* \"#utility.yul\":29538:29553   */\n      mstore\n        /* \"#utility.yul\":29572:29576   */\n      0x24\n        /* \"#utility.yul\":29569:29570   */\n      0x00\n        /* \"#utility.yul\":29562:29577   */\n      revert\n\n    auxdata: 0xa2646970667358221220a1007de4bd5cb11cdbf523fa66fecb3b9eeb988e65417d4c4c24b9c6367d8ee664736f6c634300081b0033\n}\n",
				"bytecode": {
					"linkReferences": {},
					"object": "6080604052348015600e575f5ffd5b5060405161204a38038061204a8339818101604052810190602e919060b3565b60015f819055503360015f6101000a81548173ffffffffffffffffffffffffffffffffffffffff021916908373ffffffffffffffffffffffffffffffffffffffff160217905550806002819055505060d9565b5f5ffd5b5f819050919050565b6095816085565b8114609e575f5ffd5b50565b5f8151905060ad81608e565b92915050565b5f6020828403121560c55760c46081565b5b5f60d08482850160a1565b91505092915050565b611f64806100e65f395ff3fe60806040526004361061009b575f3560e01c80638da5cb5b116100635780638da5cb5b1461019b57806394383f14146101c5578063d63d4af0146101ed578063d85d3d2714610229578063ddca3f4314610251578063de74e57b1461027b5761009b565b8063150bde031461009f57806318160ddd146100bb578063265aa621146100e557806328b60031146101235780633bb3a24d1461015f575b5f5ffd5b6100b960048036038101906100b491906110cf565b6102b9565b005b3480156100c6575f5ffd5b506100cf61093b565b6040516100dc9190611109565b60405180910390f35b3480156100f0575f5ffd5b5061010b600480360381019061010691906110cf565b610941565b60405161011a939291906111d1565b60405180910390f35b34801561012e575f5ffd5b5061014960048036038101906101449190611237565b610a0c565b6040516101569190611109565b60405180910390f35b34801561016a575f5ffd5b50610185600480360381019061018091906110cf565b610a37565b6040516101929190611275565b60405180910390f35b3480156101a6575f5ffd5b506101af610adb565b6040516101bc9190611295565b60405180910390f35b3480156101d0575f5ffd5b506101eb60048036038101906101e691906112ae565b610b00565b005b3480156101f8575f5ffd5b50610213600480360381019061020e91906112ec565b610cd5565b60405161022091906113ce565b60405180910390f35b348015610234575f5ffd5b5061024f600480360381019061024a919061151a565b610d68565b005b34801561025c575f5ffd5b50610265610ee3565b6040516102729190611109565b60405180910390f35b348015610286575f5ffd5b506102a1600480360381019061029c91906110cf565b610ee9565b6040516102b09392919061157b565b60405180910390f35b6102c1610f3b565b5f60055f8381526020019081526020015f206040518060600160405290815f8201548152602001600182015f9054906101000a900473ffffffffffffffffffffffffffffffffffffffff1673ffffffffffffffffffffffffffffffffffffffff1673ffffffffffffffffffffffffffffffffffffffff1681526020016001820160149054906101000a900460ff1615151515815250509050806040015161039d576040517f08c379a0000000000000000000000000000000000000000000000000000000008152600401610394906115fa565b60405180910390fd5b805f01513410156103e3576040517f08c379a00000000000000000000000000000000000000000000000000000000081526004016103da90611662565b60405180910390fd5b5f815f015190505f826020015190505f73ffffffffffffffffffffffffffffffffffffffff168173ffffffffffffffffffffffffffffffffffffffff1603610460576040517f08c379a0000000000000000000000000000000000000000000000000000000008152600401610457906116ca565b60405180910390fd5b5f73ffffffffffffffffffffffffffffffffffffffff1660015f9054906101000a900473ffffffffffffffffffffffffffffffffffffffff1673ffffffffffffffffffffffffffffffffffffffff16036104ef576040517f08c379a00000000000000000000000000000000000000000000000000000000081526004016104e690611732565b60405180910390fd5b8073ffffffffffffffffffffffffffffffffffffffff1660045f8681526020019081526020015f206001015f9054906101000a900473ffffffffffffffffffffffffffffffffffffffff1673ffffffffffffffffffffffffffffffffffffffff1614610590576040517f08c379a00000000000000000000000000000000000000000000000000000000081526004016105879061179a565b60405180910390fd5b5f6064600254846105a191906117e5565b6105ab9190611853565b90505f81846105ba9190611883565b90503360045f8881526020019081526020015f206001015f6101000a81548173ffffffffffffffffffffffffffffffffffffffff021916908373ffffffffffffffffffffffffffffffffffffffff1602179055506106188387610f88565b60065f3373ffffffffffffffffffffffffffffffffffffffff1673ffffffffffffffffffffffffffffffffffffffff1681526020019081526020015f2086908060018154018082558091505060019003905f5260205f20015f90919091909150555f60055f8881526020019081526020015f2060010160146101000a81548160ff0219169083151502179055505f60015f9054906101000a900473ffffffffffffffffffffffffffffffffffffffff1673ffffffffffffffffffffffffffffffffffffffff16836040516106eb906118e3565b5f6040518083038185875af1925050503d805f8114610725576040519150601f19603f3d011682016040523d82523d5f602084013e61072a565b606091505b505090508061076e576040517f08c379a000000000000000000000000000000000000000000000000000000000815260040161076590611941565b60405180910390fd5b5f8473ffffffffffffffffffffffffffffffffffffffff1683604051610793906118e3565b5f6040518083038185875af1925050503d805f81146107cd576040519150601f19603f3d011682016040523d82523d5f602084013e6107d2565b606091505b5050905080610816576040517f08c379a000000000000000000000000000000000000000000000000000000000815260040161080d906119a9565b60405180910390fd5b5f86346108239190611883565b90505f8111156108d7575f3373ffffffffffffffffffffffffffffffffffffffff1682604051610852906118e3565b5f6040518083038185875af1925050503d805f811461088c576040519150601f19603f3d011682016040523d82523d5f602084013e610891565b606091505b50509050806108d5576040517f08c379a00000000000000000000000000000000000000000000000000000000081526004016108cc90611a11565b60405180910390fd5b505b883373ffffffffffffffffffffffffffffffffffffffff167f25d1144310b3f5e9cb8ad2e2bd379aef97847a57087ab9cbcd95a06105a4629c8988604051610920929190611a2f565b60405180910390a35050505050505050610938611082565b50565b60035481565b6004602052805f5260405f205f91509050805f015490806001015f9054906101000a900473ffffffffffffffffffffffffffffffffffffffff169080600201805461098b90611a83565b80601f01602080910402602001604051908101604052809291908181526020018280546109b790611a83565b8015610a025780601f106109d957610100808354040283529160200191610a02565b820191905f5260205f20905b8154815290600101906020018083116109e557829003601f168201915b5050505050905083565b6006602052815f5260405f208181548110610a25575f80fd5b905f5260205f20015f91509150505481565b606060045f8381526020019081526020015f206002018054610a5890611a83565b80601f0160208091040260200160405190810160405280929190818152602001828054610a8490611a83565b8015610acf5780601f10610aa657610100808354040283529160200191610acf565b820191905f5260205f20905b815481529060010190602001808311610ab257829003601f168201915b50505050509050919050565b60015f9054906101000a900473ffffffffffffffffffffffffffffffffffffffff1681565b3373ffffffffffffffffffffffffffffffffffffffff1660045f8481526020019081526020015f206001015f9054906101000a900473ffffffffffffffffffffffffffffffffffffffff1673ffffffffffffffffffffffffffffffffffffffff1614610ba1576040517f08c379a0000000000000000000000000000000000000000000000000000000008152600401610b9890611afd565b60405180910390fd5b5f8111610be3576040517f08c379a0000000000000000000000000000000000000000000000000000000008152600401610bda90611b65565b60405180910390fd5b60405180606001604052808281526020013373ffffffffffffffffffffffffffffffffffffffff1681526020016001151581525060055f8481526020019081526020015f205f820151815f01556020820151816001015f6101000a81548173ffffffffffffffffffffffffffffffffffffffff021916908373ffffffffffffffffffffffffffffffffffffffff16021790555060408201518160010160146101000a81548160ff021916908315150217905550905050817fa6cd73580a273eec6c1026108f6b63479fbaef5356dde4ff43e4b38dd187485f82604051610cc99190611109565b60405180910390a25050565b606060065f8373ffffffffffffffffffffffffffffffffffffffff1673ffffffffffffffffffffffffffffffffffffffff1681526020019081526020015f20805480602002602001604051908101604052809291908181526020018280548015610d5c57602002820191905f5260205f20905b815481526020019060010190808311610d48575b50505050509050919050565b5f6001600354610d789190611b83565b905060405180606001604052808281526020013373ffffffffffffffffffffffffffffffffffffffff1681526020018381525060045f8381526020019081526020015f205f820151815f01556020820151816001015f6101000a81548173ffffffffffffffffffffffffffffffffffffffff021916908373ffffffffffffffffffffffffffffffffffffffff1602179055506040820151816002019081610e1f9190611d56565b5090505060065f3373ffffffffffffffffffffffffffffffffffffffff1673ffffffffffffffffffffffffffffffffffffffff1681526020019081526020015f2081908060018154018082558091505060019003905f5260205f20015f909190919091505560035f815480929190610e9690611e25565b9190505550803373ffffffffffffffffffffffffffffffffffffffff167f4cc0a9c4a99ddc700de1af2c9f916a7cbfdb71f14801ccff94061ad1ef8a804060405160405180910390a35050565b60025481565b6005602052805f5260405f205f91509050805f015490806001015f9054906101000a900473ffffffffffffffffffffffffffffffffffffffff16908060010160149054906101000a900460ff16905083565b60025f5403610f7f576040517f08c379a0000000000000000000000000000000000000000000000000000000008152600401610f7690611eb6565b60405180910390fd5b60025f81905550565b5f60065f8473ffffffffffffffffffffffffffffffffffffffff1673ffffffffffffffffffffffffffffffffffffffff1681526020019081526020015f2090505f5f90505b818054905081101561107c5782828281548110610fed57610fec611ed4565b5b905f5260205f2001540361106f57816001838054905061100d9190611883565b8154811061101e5761101d611ed4565b5b905f5260205f20015482828154811061103a57611039611ed4565b5b905f5260205f2001819055508180548061105757611056611f01565b5b600190038181905f5260205f20015f9055905561107c565b8080600101915050610fcd565b50505050565b60015f81905550565b5f604051905090565b5f5ffd5b5f5ffd5b5f819050919050565b6110ae8161109c565b81146110b8575f5ffd5b50565b5f813590506110c9816110a5565b92915050565b5f602082840312156110e4576110e3611094565b5b5f6110f1848285016110bb565b91505092915050565b6111038161109c565b82525050565b5f60208201905061111c5f8301846110fa565b92915050565b5f73ffffffffffffffffffffffffffffffffffffffff82169050919050565b5f61114b82611122565b9050919050565b61115b81611141565b82525050565b5f81519050919050565b5f82825260208201905092915050565b8281835e5f83830152505050565b5f601f19601f8301169050919050565b5f6111a382611161565b6111ad818561116b565b93506111bd81856020860161117b565b6111c681611189565b840191505092915050565b5f6060820190506111e45f8301866110fa565b6111f16020830185611152565b81810360408301526112038184611199565b9050949350505050565b61121681611141565b8114611220575f5ffd5b50565b5f813590506112318161120d565b92915050565b5f5f6040838503121561124d5761124c611094565b5b5f61125a85828601611223565b925050602061126b858286016110bb565b9150509250929050565b5f6020820190508181035f83015261128d8184611199565b905092915050565b5f6020820190506112a85f830184611152565b92915050565b5f5f604083850312156112c4576112c3611094565b5b5f6112d1858286016110bb565b92505060206112e2858286016110bb565b9150509250929050565b5f6020828403121561130157611300611094565b5b5f61130e84828501611223565b91505092915050565b5f81519050919050565b5f82825260208201905092915050565b5f819050602082019050919050565b6113498161109c565b82525050565b5f61135a8383611340565b60208301905092915050565b5f602082019050919050565b5f61137c82611317565b6113868185611321565b935061139183611331565b805f5b838110156113c15781516113a8888261134f565b97506113b383611366565b925050600181019050611394565b5085935050505092915050565b5f6020820190508181035f8301526113e68184611372565b905092915050565b5f5ffd5b5f5ffd5b7f4e487b71000000000000000000000000000000000000000000000000000000005f52604160045260245ffd5b61142c82611189565b810181811067ffffffffffffffff8211171561144b5761144a6113f6565b5b80604052505050565b5f61145d61108b565b90506114698282611423565b919050565b5f67ffffffffffffffff821115611488576114876113f6565b5b61149182611189565b9050602081019050919050565b828183375f83830152505050565b5f6114be6114b98461146e565b611454565b9050828152602081018484840111156114da576114d96113f2565b5b6114e584828561149e565b509392505050565b5f82601f830112611501576115006113ee565b5b81356115118482602086016114ac565b91505092915050565b5f6020828403121561152f5761152e611094565b5b5f82013567ffffffffffffffff81111561154c5761154b611098565b5b611558848285016114ed565b91505092915050565b5f8115159050919050565b61157581611561565b82525050565b5f60608201905061158e5f8301866110fa565b61159b6020830185611152565b6115a8604083018461156c565b949350505050565b7f4e4654206973206e6f7420666f722073616c65000000000000000000000000005f82015250565b5f6115e460138361116b565b91506115ef826115b0565b602082019050919050565b5f6020820190508181035f830152611611816115d8565b9050919050565b7f496e73756666696369656e742066756e647300000000000000000000000000005f82015250565b5f61164c60128361116b565b915061165782611618565b602082019050919050565b5f6020820190508181035f83015261167981611640565b9050919050565b7f53656c6c65722061646472657373206973207a65726f000000000000000000005f82015250565b5f6116b460168361116b565b91506116bf82611680565b602082019050919050565b5f6020820190508181035f8301526116e1816116a8565b9050919050565b7f4f776e65722061646472657373206973207a65726f00000000000000000000005f82015250565b5f61171c60158361116b565b9150611727826116e8565b602082019050919050565b5f6020820190508181035f83015261174981611710565b9050919050565b7f53656c6c6572206e6f206c6f6e676572206f776e732074686973204e465400005f82015250565b5f611784601e8361116b565b915061178f82611750565b602082019050919050565b5f6020820190508181035f8301526117b181611778565b9050919050565b7f4e487b71000000000000000000000000000000000000000000000000000000005f52601160045260245ffd5b5f6117ef8261109c565b91506117fa8361109c565b92508282026118088161109c565b9150828204841483151761181f5761181e6117b8565b5b5092915050565b7f4e487b71000000000000000000000000000000000000000000000000000000005f52601260045260245ffd5b5f61185d8261109c565b91506118688361109c565b92508261187857611877611826565b5b828204905092915050565b5f61188d8261109c565b91506118988361109c565b92508282039050818111156118b0576118af6117b8565b5b92915050565b5f81905092915050565b50565b5f6118ce5f836118b6565b91506118d9826118c0565b5f82019050919050565b5f6118ed826118c3565b9150819050919050565b7f4661696c656420746f2073656e642066656520746f206f776e657200000000005f82015250565b5f61192b601b8361116b565b9150611936826118f7565b602082019050919050565b5f6020820190508181035f8301526119588161191f565b9050919050565b7f4661696c656420746f2073656e6420616d6f756e7420746f2073656c6c6572005f82015250565b5f611993601f8361116b565b915061199e8261195f565b602082019050919050565b5f6020820190508181035f8301526119c081611987565b9050919050565b7f4661696c656420746f20726566756e642065786365737320616d6f756e7400005f82015250565b5f6119fb601e8361116b565b9150611a06826119c7565b602082019050919050565b5f6020820190508181035f830152611a28816119ef565b9050919050565b5f604082019050611a425f8301856110fa565b611a4f60208301846110fa565b9392505050565b7f4e487b71000000000000000000000000000000000000000000000000000000005f52602260045260245ffd5b5f6002820490506001821680611a9a57607f821691505b602082108103611aad57611aac611a56565b5b50919050565b7f4e6f7420746865206f776e6572000000000000000000000000000000000000005f82015250565b5f611ae7600d8361116b565b9150611af282611ab3565b602082019050919050565b5f6020820190508181035f830152611b1481611adb565b9050919050565b7f5072696365206d7573742062652067726561746572207468616e207a65726f005f82015250565b5f611b4f601f8361116b565b9150611b5a82611b1b565b602082019050919050565b5f6020820190508181035f830152611b7c81611b43565b9050919050565b5f611b8d8261109c565b9150611b988361109c565b9250828201905080821115611bb057611baf6117b8565b5b92915050565b5f819050815f5260205f209050919050565b5f6020601f8301049050919050565b5f82821b905092915050565b5f60088302611c127fffffffffffffffffffffffffffffffffffffffffffffffffffffffffffffffff82611bd7565b611c1c8683611bd7565b95508019841693508086168417925050509392505050565b5f819050919050565b5f611c57611c52611c4d8461109c565b611c34565b61109c565b9050919050565b5f819050919050565b611c7083611c3d565b611c84611c7c82611c5e565b848454611be3565b825550505050565b5f5f905090565b611c9b611c8c565b611ca6818484611c67565b505050565b5b81811015611cc957611cbe5f82611c93565b600181019050611cac565b5050565b601f821115611d0e57611cdf81611bb6565b611ce884611bc8565b81016020851015611cf7578190505b611d0b611d0385611bc8565b830182611cab565b50505b505050565b5f82821c905092915050565b5f611d2e5f1984600802611d13565b1980831691505092915050565b5f611d468383611d1f565b9150826002028217905092915050565b611d5f82611161565b67ffffffffffffffff811115611d7857611d776113f6565b5b611d828254611a83565b611d8d828285611ccd565b5f60209050601f831160018114611dbe575f8415611dac578287015190505b611db68582611d3b565b865550611e1d565b601f198416611dcc86611bb6565b5f5b82811015611df357848901518255600182019150602085019450602081019050611dce565b86831015611e105784890151611e0c601f891682611d1f565b8355505b6001600288020188555050505b505050505050565b5f611e2f8261109c565b91507fffffffffffffffffffffffffffffffffffffffffffffffffffffffffffffffff8203611e6157611e606117b8565b5b600182019050919050565b7f5265656e7472616e637947756172643a207265656e7472616e742063616c6c005f82015250565b5f611ea0601f8361116b565b9150611eab82611e6c565b602082019050919050565b5f6020820190508181035f830152611ecd81611e94565b9050919050565b7f4e487b71000000000000000000000000000000000000000000000000000000005f52603260045260245ffd5b7f4e487b71000000000000000000000000000000000000000000000000000000005f52603160045260245ffdfea2646970667358221220a1007de4bd5cb11cdbf523fa66fecb3b9eeb988e65417d4c4c24b9c6367d8ee664736f6c634300081b0033",
					"opcodes": "PUSH1 0x80 PUSH1 0x40 MSTORE CALLVALUE DUP1 ISZERO PUSH1 0xE JUMPI PUSH0 PUSH0 REVERT JUMPDEST POP PUSH1 0x40 MLOAD PUSH2 0x204A CODESIZE SUB DUP1 PUSH2 0x204A DUP4 CODECOPY DUP2 DUP2 ADD PUSH1 0x40 MSTORE DUP2 ADD SWAP1 PUSH1 0x2E SWAP2 SWAP1 PUSH1 0xB3 JUMP JUMPDEST PUSH1 0x1 PUSH0 DUP2 SWAP1 SSTORE POP CALLER PUSH1 0x1 PUSH0 PUSH2 0x100 EXP DUP2 SLOAD DUP2 PUSH20 0xFFFFFFFFFFFFFFFFFFFFFFFFFFFFFFFFFFFFFFFF MUL NOT AND SWAP1 DUP4 PUSH20 0xFFFFFFFFFFFFFFFFFFFFFFFFFFFFFFFFFFFFFFFF AND MUL OR SWAP1 SSTORE POP DUP1 PUSH1 0x2 DUP2 SWAP1 SSTORE POP POP PUSH1 0xD9 JUMP JUMPDEST PUSH0 PUSH0 REVERT JUMPDEST PUSH0 DUP2 SWAP1 POP SWAP2 SWAP1 POP JUMP JUMPDEST PUSH1 0x95 DUP2 PUSH1 0x85 JUMP JUMPDEST DUP2 EQ PUSH1 0x9E JUMPI PUSH0 PUSH0 REVERT JUMPDEST POP JUMP JUMPDEST PUSH0 DUP2 MLOAD SWAP1 POP PUSH1 0xAD DUP2 PUSH1 0x8E JUMP JUMPDEST SWAP3 SWAP2 POP POP JUMP JUMPDEST PUSH0 PUSH1 0x20 DUP3 DUP5 SUB SLT ISZERO PUSH1 0xC5 JUMPI PUSH1 0xC4 PUSH1 0x81 JUMP JUMPDEST JUMPDEST PUSH0 PUSH1 0xD0 DUP5 DUP3 DUP6 ADD PUSH1 0xA1 JUMP JUMPDEST SWAP2 POP POP SWAP3 SWAP2 POP POP JUMP JUMPDEST PUSH2 0x1F64 DUP1 PUSH2 0xE6 PUSH0 CODECOPY PUSH0 RETURN INVALID PUSH1 0x80 PUSH1 0x40 MSTORE PUSH1 0x4 CALLDATASIZE LT PUSH2 0x9B JUMPI PUSH0 CALLDATALOAD PUSH1 0xE0 SHR DUP1 PUSH4 0x8DA5CB5B GT PUSH2 0x63 JUMPI DUP1 PUSH4 0x8DA5CB5B EQ PUSH2 0x19B JUMPI DUP1 PUSH4 0x94383F14 EQ PUSH2 0x1C5 JUMPI DUP1 PUSH4 0xD63D4AF0 EQ PUSH2 0x1ED JUMPI DUP1 PUSH4 0xD85D3D27 EQ PUSH2 0x229 JUMPI DUP1 PUSH4 0xDDCA3F43 EQ PUSH2 0x251 JUMPI DUP1 PUSH4 0xDE74E57B EQ PUSH2 0x27B JUMPI PUSH2 0x9B JUMP JUMPDEST DUP1 PUSH4 0x150BDE03 EQ PUSH2 0x9F JUMPI DUP1 PUSH4 0x18160DDD EQ PUSH2 0xBB JUMPI DUP1 PUSH4 0x265AA621 EQ PUSH2 0xE5 JUMPI DUP1 PUSH4 0x28B60031 EQ PUSH2 0x123 JUMPI DUP1 PUSH4 0x3BB3A24D EQ PUSH2 0x15F JUMPI JUMPDEST PUSH0 PUSH0 REVERT JUMPDEST PUSH2 0xB9 PUSH1 0x4 DUP1 CALLDATASIZE SUB DUP2 ADD SWAP1 PUSH2 0xB4 SWAP2 SWAP1 PUSH2 0x10CF JUMP JUMPDEST PUSH2 0x2B9 JUMP JUMPDEST STOP JUMPDEST CALLVALUE DUP1 ISZERO PUSH2 0xC6 JUMPI PUSH0 PUSH0 REVERT JUMPDEST POP PUSH2 0xCF PUSH2 0x93B JUMP JUMPDEST PUSH1 0x40 MLOAD PUSH2 0xDC SWAP2 SWAP1 PUSH2 0x1109 JUMP JUMPDEST PUSH1 0x40 MLOAD DUP1 SWAP2 SUB SWAP1 RETURN JUMPDEST CALLVALUE DUP1 ISZERO PUSH2 0xF0 JUMPI PUSH0 PUSH0 REVERT JUMPDEST POP PUSH2 0x10B PUSH1 0x4 DUP1 CALLDATASIZE SUB DUP2 ADD SWAP1 PUSH2 0x106 SWAP2 SWAP1 PUSH2 0x10CF JUMP JUMPDEST PUSH2 0x941 JUMP JUMPDEST PUSH1 0x40 MLOAD PUSH2 0x11A SWAP4 SWAP3 SWAP2 SWAP1 PUSH2 0x11D1 JUMP JUMPDEST PUSH1 0x40 MLOAD DUP1 SWAP2 SUB SWAP1 RETURN JUMPDEST CALLVALUE DUP1 ISZERO PUSH2 0x12E JUMPI PUSH0 PUSH0 REVERT JUMPDEST POP PUSH2 0x149 PUSH1 0x4 DUP1 CALLDATASIZE SUB DUP2 ADD SWAP1 PUSH2 0x144 SWAP2 SWAP1 PUSH2 0x1237 JUMP JUMPDEST PUSH2 0xA0C JUMP JUMPDEST PUSH1 0x40 MLOAD PUSH2 0x156 SWAP2 SWAP1 PUSH2 0x1109 JUMP JUMPDEST PUSH1 0x40 MLOAD DUP1 SWAP2 SUB SWAP1 RETURN JUMPDEST CALLVALUE DUP1 ISZERO PUSH2 0x16A JUMPI PUSH0 PUSH0 REVERT JUMPDEST POP PUSH2 0x185 PUSH1 0x4 DUP1 CALLDATASIZE SUB DUP2 ADD SWAP1 PUSH2 0x180 SWAP2 SWAP1 PUSH2 0x10CF JUMP JUMPDEST PUSH2 0xA37 JUMP JUMPDEST PUSH1 0x40 MLOAD PUSH2 0x192 SWAP2 SWAP1 PUSH2 0x1275 JUMP JUMPDEST PUSH1 0x40 MLOAD DUP1 SWAP2 SUB SWAP1 RETURN JUMPDEST CALLVALUE DUP1 ISZERO PUSH2 0x1A6 JUMPI PUSH0 PUSH0 REVERT JUMPDEST POP PUSH2 0x1AF PUSH2 0xADB JUMP JUMPDEST PUSH1 0x40 MLOAD PUSH2 0x1BC SWAP2 SWAP1 PUSH2 0x1295 JUMP JUMPDEST PUSH1 0x40 MLOAD DUP1 SWAP2 SUB SWAP1 RETURN JUMPDEST CALLVALUE DUP1 ISZERO PUSH2 0x1D0 JUMPI PUSH0 PUSH0 REVERT JUMPDEST POP PUSH2 0x1EB PUSH1 0x4 DUP1 CALLDATASIZE SUB DUP2 ADD SWAP1 PUSH2 0x1E6 SWAP2 SWAP1 PUSH2 0x12AE JUMP JUMPDEST PUSH2 0xB00 JUMP JUMPDEST STOP JUMPDEST CALLVALUE DUP1 ISZERO PUSH2 0x1F8 JUMPI PUSH0 PUSH0 REVERT JUMPDEST POP PUSH2 0x213 PUSH1 0x4 DUP1 CALLDATASIZE SUB DUP2 ADD SWAP1 PUSH2 0x20E SWAP2 SWAP1 PUSH2 0x12EC JUMP JUMPDEST PUSH2 0xCD5 JUMP JUMPDEST PUSH1 0x40 MLOAD PUSH2 0x220 SWAP2 SWAP1 PUSH2 0x13CE JUMP JUMPDEST PUSH1 0x40 MLOAD DUP1 SWAP2 SUB SWAP1 RETURN JUMPDEST CALLVALUE DUP1 ISZERO PUSH2 0x234 JUMPI PUSH0 PUSH0 REVERT JUMPDEST POP PUSH2 0x24F PUSH1 0x4 DUP1 CALLDATASIZE SUB DUP2 ADD SWAP1 PUSH2 0x24A SWAP2 SWAP1 PUSH2 0x151A JUMP JUMPDEST PUSH2 0xD68 JUMP JUMPDEST STOP JUMPDEST CALLVALUE DUP1 ISZERO PUSH2 0x25C JUMPI PUSH0 PUSH0 REVERT JUMPDEST POP PUSH2 0x265 PUSH2 0xEE3 JUMP JUMPDEST PUSH1 0x40 MLOAD PUSH2 0x272 SWAP2 SWAP1 PUSH2 0x1109 JUMP JUMPDEST PUSH1 0x40 MLOAD DUP1 SWAP2 SUB SWAP1 RETURN JUMPDEST CALLVALUE DUP1 ISZERO PUSH2 0x286 JUMPI PUSH0 PUSH0 REVERT JUMPDEST POP PUSH2 0x2A1 PUSH1 0x4 DUP1 CALLDATASIZE SUB DUP2 ADD SWAP1 PUSH2 0x29C SWAP2 SWAP1 PUSH2 0x10CF JUMP JUMPDEST PUSH2 0xEE9 JUMP JUMPDEST PUSH1 0x40 MLOAD PUSH2 0x2B0 SWAP4 SWAP3 SWAP2 SWAP1 PUSH2 0x157B JUMP JUMPDEST PUSH1 0x40 MLOAD DUP1 SWAP2 SUB SWAP1 RETURN JUMPDEST PUSH2 0x2C1 PUSH2 0xF3B JUMP JUMPDEST PUSH0 PUSH1 0x5 PUSH0 DUP4 DUP2 MSTORE PUSH1 0x20 ADD SWAP1 DUP2 MSTORE PUSH1 0x20 ADD PUSH0 KECCAK256 PUSH1 0x40 MLOAD DUP1 PUSH1 0x60 ADD PUSH1 0x40 MSTORE SWAP1 DUP2 PUSH0 DUP3 ADD SLOAD DUP2 MSTORE PUSH1 0x20 ADD PUSH1 0x1 DUP3 ADD PUSH0 SWAP1 SLOAD SWAP1 PUSH2 0x100 EXP SWAP1 DIV PUSH20 0xFFFFFFFFFFFFFFFFFFFFFFFFFFFFFFFFFFFFFFFF AND PUSH20 0xFFFFFFFFFFFFFFFFFFFFFFFFFFFFFFFFFFFFFFFF AND PUSH20 0xFFFFFFFFFFFFFFFFFFFFFFFFFFFFFFFFFFFFFFFF AND DUP2 MSTORE PUSH1 0x20 ADD PUSH1 0x1 DUP3 ADD PUSH1 0x14 SWAP1 SLOAD SWAP1 PUSH2 0x100 EXP SWAP1 DIV PUSH1 0xFF AND ISZERO ISZERO ISZERO ISZERO DUP2 MSTORE POP POP SWAP1 POP DUP1 PUSH1 0x40 ADD MLOAD PUSH2 0x39D JUMPI PUSH1 0x40 MLOAD PUSH32 0x8C379A000000000000000000000000000000000000000000000000000000000 DUP2 MSTORE PUSH1 0x4 ADD PUSH2 0x394 SWAP1 PUSH2 0x15FA JUMP JUMPDEST PUSH1 0x40 MLOAD DUP1 SWAP2 SUB SWAP1 REVERT JUMPDEST DUP1 PUSH0 ADD MLOAD CALLVALUE LT ISZERO PUSH2 0x3E3 JUMPI PUSH1 0x40 MLOAD PUSH32 0x8C379A000000000000000000000000000000000000000000000000000000000 DUP2 MSTORE PUSH1 0x4 ADD PUSH2 0x3DA SWAP1 PUSH2 0x1662 JUMP JUMPDEST PUSH1 0x40 MLOAD DUP1 SWAP2 SUB SWAP1 REVERT JUMPDEST PUSH0 DUP2 PUSH0 ADD MLOAD SWAP1 POP PUSH0 DUP3 PUSH1 0x20 ADD MLOAD SWAP1 POP PUSH0 PUSH20 0xFFFFFFFFFFFFFFFFFFFFFFFFFFFFFFFFFFFFFFFF AND DUP2 PUSH20 0xFFFFFFFFFFFFFFFFFFFFFFFFFFFFFFFFFFFFFFFF AND SUB PUSH2 0x460 JUMPI PUSH1 0x40 MLOAD PUSH32 0x8C379A000000000000000000000000000000000000000000000000000000000 DUP2 MSTORE PUSH1 0x4 ADD PUSH2 0x457 SWAP1 PUSH2 0x16CA JUMP JUMPDEST PUSH1 0x40 MLOAD DUP1 SWAP2 SUB SWAP1 REVERT JUMPDEST PUSH0 PUSH20 0xFFFFFFFFFFFFFFFFFFFFFFFFFFFFFFFFFFFFFFFF AND PUSH1 0x1 PUSH0 SWAP1 SLOAD SWAP1 PUSH2 0x100 EXP SWAP1 DIV PUSH20 0xFFFFFFFFFFFFFFFFFFFFFFFFFFFFFFFFFFFFFFFF AND PUSH20 0xFFFFFFFFFFFFFFFFFFFFFFFFFFFFFFFFFFFFFFFF AND SUB PUSH2 0x4EF JUMPI PUSH1 0x40 MLOAD PUSH32 0x8C379A000000000000000000000000000000000000000000000000000000000 DUP2 MSTORE PUSH1 0x4 ADD PUSH2 0x4E6 SWAP1 PUSH2 0x1732 JUMP JUMPDEST PUSH1 0x40 MLOAD DUP1 SWAP2 SUB SWAP1 REVERT JUMPDEST DUP1 PUSH20 0xFFFFFFFFFFFFFFFFFFFFFFFFFFFFFFFFFFFFFFFF AND PUSH1 0x4 PUSH0 DUP7 DUP2 MSTORE PUSH1 0x20 ADD SWAP1 DUP2 MSTORE PUSH1 0x20 ADD PUSH0 KECCAK256 PUSH1 0x1 ADD PUSH0 SWAP1 SLOAD SWAP1 PUSH2 0x100 EXP SWAP1 DIV PUSH20 0xFFFFFFFFFFFFFFFFFFFFFFFFFFFFFFFFFFFFFFFF AND PUSH20 0xFFFFFFFFFFFFFFFFFFFFFFFFFFFFFFFFFFFFFFFF AND EQ PUSH2 0x590 JUMPI PUSH1 0x40 MLOAD PUSH32 0x8C379A000000000000000000000000000000000000000000000000000000000 DUP2 MSTORE PUSH1 0x4 ADD PUSH2 0x587 SWAP1 PUSH2 0x179A JUMP JUMPDEST PUSH1 0x40 MLOAD DUP1 SWAP2 SUB SWAP1 REVERT JUMPDEST PUSH0 PUSH1 0x64 PUSH1 0x2 SLOAD DUP5 PUSH2 0x5A1 SWAP2 SWAP1 PUSH2 0x17E5 JUMP JUMPDEST PUSH2 0x5AB SWAP2 SWAP1 PUSH2 0x1853 JUMP JUMPDEST SWAP1 POP PUSH0 DUP2 DUP5 PUSH2 0x5BA SWAP2 SWAP1 PUSH2 0x1883 JUMP JUMPDEST SWAP1 POP CALLER PUSH1 0x4 PUSH0 DUP9 DUP2 MSTORE PUSH1 0x20 ADD SWAP1 DUP2 MSTORE PUSH1 0x20 ADD PUSH0 KECCAK256 PUSH1 0x1 ADD PUSH0 PUSH2 0x100 EXP DUP2 SLOAD DUP2 PUSH20 0xFFFFFFFFFFFFFFFFFFFFFFFFFFFFFFFFFFFFFFFF MUL NOT AND SWAP1 DUP4 PUSH20 0xFFFFFFFFFFFFFFFFFFFFFFFFFFFFFFFFFFFFFFFF AND MUL OR SWAP1 SSTORE POP PUSH2 0x618 DUP4 DUP8 PUSH2 0xF88 JUMP JUMPDEST PUSH1 0x6 PUSH0 CALLER PUSH20 0xFFFFFFFFFFFFFFFFFFFFFFFFFFFFFFFFFFFFFFFF AND PUSH20 0xFFFFFFFFFFFFFFFFFFFFFFFFFFFFFFFFFFFFFFFF AND DUP2 MSTORE PUSH1 0x20 ADD SWAP1 DUP2 MSTORE PUSH1 0x20 ADD PUSH0 KECCAK256 DUP7 SWAP1 DUP1 PUSH1 0x1 DUP2 SLOAD ADD DUP1 DUP3 SSTORE DUP1 SWAP2 POP POP PUSH1 0x1 SWAP1 SUB SWAP1 PUSH0 MSTORE PUSH1 0x20 PUSH0 KECCAK256 ADD PUSH0 SWAP1 SWAP2 SWAP1 SWAP2 SWAP1 SWAP2 POP SSTORE PUSH0 PUSH1 0x5 PUSH0 DUP9 DUP2 MSTORE PUSH1 0x20 ADD SWAP1 DUP2 MSTORE PUSH1 0x20 ADD PUSH0 KECCAK256 PUSH1 0x1 ADD PUSH1 0x14 PUSH2 0x100 EXP DUP2 SLOAD DUP2 PUSH1 0xFF MUL NOT AND SWAP1 DUP4 ISZERO ISZERO MUL OR SWAP1 SSTORE POP PUSH0 PUSH1 0x1 PUSH0 SWAP1 SLOAD SWAP1 PUSH2 0x100 EXP SWAP1 DIV PUSH20 0xFFFFFFFFFFFFFFFFFFFFFFFFFFFFFFFFFFFFFFFF AND PUSH20 0xFFFFFFFFFFFFFFFFFFFFFFFFFFFFFFFFFFFFFFFF AND DUP4 PUSH1 0x40 MLOAD PUSH2 0x6EB SWAP1 PUSH2 0x18E3 JUMP JUMPDEST PUSH0 PUSH1 0x40 MLOAD DUP1 DUP4 SUB DUP2 DUP6 DUP8 GAS CALL SWAP3 POP POP POP RETURNDATASIZE DUP1 PUSH0 DUP2 EQ PUSH2 0x725 JUMPI PUSH1 0x40 MLOAD SWAP2 POP PUSH1 0x1F NOT PUSH1 0x3F RETURNDATASIZE ADD AND DUP3 ADD PUSH1 0x40 MSTORE RETURNDATASIZE DUP3 MSTORE RETURNDATASIZE PUSH0 PUSH1 0x20 DUP5 ADD RETURNDATACOPY PUSH2 0x72A JUMP JUMPDEST PUSH1 0x60 SWAP2 POP JUMPDEST POP POP SWAP1 POP DUP1 PUSH2 0x76E JUMPI PUSH1 0x40 MLOAD PUSH32 0x8C379A000000000000000000000000000000000000000000000000000000000 DUP2 MSTORE PUSH1 0x4 ADD PUSH2 0x765 SWAP1 PUSH2 0x1941 JUMP JUMPDEST PUSH1 0x40 MLOAD DUP1 SWAP2 SUB SWAP1 REVERT JUMPDEST PUSH0 DUP5 PUSH20 0xFFFFFFFFFFFFFFFFFFFFFFFFFFFFFFFFFFFFFFFF AND DUP4 PUSH1 0x40 MLOAD PUSH2 0x793 SWAP1 PUSH2 0x18E3 JUMP JUMPDEST PUSH0 PUSH1 0x40 MLOAD DUP1 DUP4 SUB DUP2 DUP6 DUP8 GAS CALL SWAP3 POP POP POP RETURNDATASIZE DUP1 PUSH0 DUP2 EQ PUSH2 0x7CD JUMPI PUSH1 0x40 MLOAD SWAP2 POP PUSH1 0x1F NOT PUSH1 0x3F RETURNDATASIZE ADD AND DUP3 ADD PUSH1 0x40 MSTORE RETURNDATASIZE DUP3 MSTORE RETURNDATASIZE PUSH0 PUSH1 0x20 DUP5 ADD RETURNDATACOPY PUSH2 0x7D2 JUMP JUMPDEST PUSH1 0x60 SWAP2 POP JUMPDEST POP POP SWAP1 POP DUP1 PUSH2 0x816 JUMPI PUSH1 0x40 MLOAD PUSH32 0x8C379A000000000000000000000000000000000000000000000000000000000 DUP2 MSTORE PUSH1 0x4 ADD PUSH2 0x80D SWAP1 PUSH2 0x19A9 JUMP JUMPDEST PUSH1 0x40 MLOAD DUP1 SWAP2 SUB SWAP1 REVERT JUMPDEST PUSH0 DUP7 CALLVALUE PUSH2 0x823 SWAP2 SWAP1 PUSH2 0x1883 JUMP JUMPDEST SWAP1 POP PUSH0 DUP2 GT ISZERO PUSH2 0x8D7 JUMPI PUSH0 CALLER PUSH20 0xFFFFFFFFFFFFFFFFFFFFFFFFFFFFFFFFFFFFFFFF AND DUP3 PUSH1 0x40 MLOAD PUSH2 0x852 SWAP1 PUSH2 0x18E3 JUMP JUMPDEST PUSH0 PUSH1 0x40 MLOAD DUP1 DUP4 SUB DUP2 DUP6 DUP8 GAS CALL SWAP3 POP POP POP RETURNDATASIZE DUP1 PUSH0 DUP2 EQ PUSH2 0x88C JUMPI PUSH1 0x40 MLOAD SWAP2 POP PUSH1 0x1F NOT PUSH1 0x3F RETURNDATASIZE ADD AND DUP3 ADD PUSH1 0x40 MSTORE RETURNDATASIZE DUP3 MSTORE RETURNDATASIZE PUSH0 PUSH1 0x20 DUP5 ADD RETURNDATACOPY PUSH2 0x891 JUMP JUMPDEST PUSH1 0x60 SWAP2 POP JUMPDEST POP POP SWAP1 POP DUP1 PUSH2 0x8D5 JUMPI PUSH1 0x40 MLOAD PUSH32 0x8C379A000000000000000000000000000000000000000000000000000000000 DUP2 MSTORE PUSH1 0x4 ADD PUSH2 0x8CC SWAP1 PUSH2 0x1A11 JUMP JUMPDEST PUSH1 0x40 MLOAD DUP1 SWAP2 SUB SWAP1 REVERT JUMPDEST POP JUMPDEST DUP9 CALLER PUSH20 0xFFFFFFFFFFFFFFFFFFFFFFFFFFFFFFFFFFFFFFFF AND PUSH32 0x25D1144310B3F5E9CB8AD2E2BD379AEF97847A57087AB9CBCD95A06105A4629C DUP10 DUP9 PUSH1 0x40 MLOAD PUSH2 0x920 SWAP3 SWAP2 SWAP1 PUSH2 0x1A2F JUMP JUMPDEST PUSH1 0x40 MLOAD DUP1 SWAP2 SUB SWAP1 LOG3 POP POP POP POP POP POP POP POP PUSH2 0x938 PUSH2 0x1082 JUMP JUMPDEST POP JUMP JUMPDEST PUSH1 0x3 SLOAD DUP2 JUMP JUMPDEST PUSH1 0x4 PUSH1 0x20 MSTORE DUP1 PUSH0 MSTORE PUSH1 0x40 PUSH0 KECCAK256 PUSH0 SWAP2 POP SWAP1 POP DUP1 PUSH0 ADD SLOAD SWAP1 DUP1 PUSH1 0x1 ADD PUSH0 SWAP1 SLOAD SWAP1 PUSH2 0x100 EXP SWAP1 DIV PUSH20 0xFFFFFFFFFFFFFFFFFFFFFFFFFFFFFFFFFFFFFFFF AND SWAP1 DUP1 PUSH1 0x2 ADD DUP1 SLOAD PUSH2 0x98B SWAP1 PUSH2 0x1A83 JUMP JUMPDEST DUP1 PUSH1 0x1F ADD PUSH1 0x20 DUP1 SWAP2 DIV MUL PUSH1 0x20 ADD PUSH1 0x40 MLOAD SWAP1 DUP2 ADD PUSH1 0x40 MSTORE DUP1 SWAP3 SWAP2 SWAP1 DUP2 DUP2 MSTORE PUSH1 0x20 ADD DUP3 DUP1 SLOAD PUSH2 0x9B7 SWAP1 PUSH2 0x1A83 JUMP JUMPDEST DUP1 ISZERO PUSH2 0xA02 JUMPI DUP1 PUSH1 0x1F LT PUSH2 0x9D9 JUMPI PUSH2 0x100 DUP1 DUP4 SLOAD DIV MUL DUP4 MSTORE SWAP2 PUSH1 0x20 ADD SWAP2 PUSH2 0xA02 JUMP JUMPDEST DUP3 ADD SWAP2 SWAP1 PUSH0 MSTORE PUSH1 0x20 PUSH0 KECCAK256 SWAP1 JUMPDEST DUP2 SLOAD DUP2 MSTORE SWAP1 PUSH1 0x1 ADD SWAP1 PUSH1 0x20 ADD DUP1 DUP4 GT PUSH2 0x9E5 JUMPI DUP3 SWAP1 SUB PUSH1 0x1F AND DUP3 ADD SWAP2 JUMPDEST POP POP POP POP POP SWAP1 POP DUP4 JUMP JUMPDEST PUSH1 0x6 PUSH1 0x20 MSTORE DUP2 PUSH0 MSTORE PUSH1 0x40 PUSH0 KECCAK256 DUP2 DUP2 SLOAD DUP2 LT PUSH2 0xA25 JUMPI PUSH0 DUP1 REVERT JUMPDEST SWAP1 PUSH0 MSTORE PUSH1 0x20 PUSH0 KECCAK256 ADD PUSH0 SWAP2 POP SWAP2 POP POP SLOAD DUP2 JUMP JUMPDEST PUSH1 0x60 PUSH1 0x4 PUSH0 DUP4 DUP2 MSTORE PUSH1 0x20 ADD SWAP1 DUP2 MSTORE PUSH1 0x20 ADD PUSH0 KECCAK256 PUSH1 0x2 ADD DUP1 SLOAD PUSH2 0xA58 SWAP1 PUSH2 0x1A83 JUMP JUMPDEST DUP1 PUSH1 0x1F ADD PUSH1 0x20 DUP1 SWAP2 DIV MUL PUSH1 0x20 ADD PUSH1 0x40 MLOAD SWAP1 DUP2 ADD PUSH1 0x40 MSTORE DUP1 SWAP3 SWAP2 SWAP1 DUP2 DUP2 MSTORE PUSH1 0x20 ADD DUP3 DUP1 SLOAD PUSH2 0xA84 SWAP1 PUSH2 0x1A83 JUMP JUMPDEST DUP1 ISZERO PUSH2 0xACF JUMPI DUP1 PUSH1 0x1F LT PUSH2 0xAA6 JUMPI PUSH2 0x100 DUP1 DUP4 SLOAD DIV MUL DUP4 MSTORE SWAP2 PUSH1 0x20 ADD SWAP2 PUSH2 0xACF JUMP JUMPDEST DUP3 ADD SWAP2 SWAP1 PUSH0 MSTORE PUSH1 0x20 PUSH0 KECCAK256 SWAP1 JUMPDEST DUP2 SLOAD DUP2 MSTORE SWAP1 PUSH1 0x1 ADD SWAP1 PUSH1 0x20 ADD DUP1 DUP4 GT PUSH2 0xAB2 JUMPI DUP3 SWAP1 SUB PUSH1 0x1F AND DUP3 ADD SWAP2 JUMPDEST POP POP POP POP POP SWAP1 POP SWAP2 SWAP1 POP JUMP JUMPDEST PUSH1 0x1 PUSH0 SWAP1 SLOAD SWAP1 PUSH2 0x100 EXP SWAP1 DIV PUSH20 0xFFFFFFFFFFFFFFFFFFFFFFFFFFFFFFFFFFFFFFFF AND DUP2 JUMP JUMPDEST CALLER PUSH20 0xFFFFFFFFFFFFFFFFFFFFFFFFFFFFFFFFFFFFFFFF AND PUSH1 0x4 PUSH0 DUP5 DUP2 MSTORE PUSH1 0x20 ADD SWAP1 DUP2 MSTORE PUSH1 0x20 ADD PUSH0 KECCAK256 PUSH1 0x1 ADD PUSH0 SWAP1 SLOAD SWAP1 PUSH2 0x100 EXP SWAP1 DIV PUSH20 0xFFFFFFFFFFFFFFFFFFFFFFFFFFFFFFFFFFFFFFFF AND PUSH20 0xFFFFFFFFFFFFFFFFFFFFFFFFFFFFFFFFFFFFFFFF AND EQ PUSH2 0xBA1 JUMPI PUSH1 0x40 MLOAD PUSH32 0x8C379A000000000000000000000000000000000000000000000000000000000 DUP2 MSTORE PUSH1 0x4 ADD PUSH2 0xB98 SWAP1 PUSH2 0x1AFD JUMP JUMPDEST PUSH1 0x40 MLOAD DUP1 SWAP2 SUB SWAP1 REVERT JUMPDEST PUSH0 DUP2 GT PUSH2 0xBE3 JUMPI PUSH1 0x40 MLOAD PUSH32 0x8C379A000000000000000000000000000000000000000000000000000000000 DUP2 MSTORE PUSH1 0x4 ADD PUSH2 0xBDA SWAP1 PUSH2 0x1B65 JUMP JUMPDEST PUSH1 0x40 MLOAD DUP1 SWAP2 SUB SWAP1 REVERT JUMPDEST PUSH1 0x40 MLOAD DUP1 PUSH1 0x60 ADD PUSH1 0x40 MSTORE DUP1 DUP3 DUP2 MSTORE PUSH1 0x20 ADD CALLER PUSH20 0xFFFFFFFFFFFFFFFFFFFFFFFFFFFFFFFFFFFFFFFF AND DUP2 MSTORE PUSH1 0x20 ADD PUSH1 0x1 ISZERO ISZERO DUP2 MSTORE POP PUSH1 0x5 PUSH0 DUP5 DUP2 MSTORE PUSH1 0x20 ADD SWAP1 DUP2 MSTORE PUSH1 0x20 ADD PUSH0 KECCAK256 PUSH0 DUP3 ADD MLOAD DUP2 PUSH0 ADD SSTORE PUSH1 0x20 DUP3 ADD MLOAD DUP2 PUSH1 0x1 ADD PUSH0 PUSH2 0x100 EXP DUP2 SLOAD DUP2 PUSH20 0xFFFFFFFFFFFFFFFFFFFFFFFFFFFFFFFFFFFFFFFF MUL NOT AND SWAP1 DUP4 PUSH20 0xFFFFFFFFFFFFFFFFFFFFFFFFFFFFFFFFFFFFFFFF AND MUL OR SWAP1 SSTORE POP PUSH1 0x40 DUP3 ADD MLOAD DUP2 PUSH1 0x1 ADD PUSH1 0x14 PUSH2 0x100 EXP DUP2 SLOAD DUP2 PUSH1 0xFF MUL NOT AND SWAP1 DUP4 ISZERO ISZERO MUL OR SWAP1 SSTORE POP SWAP1 POP POP DUP2 PUSH32 0xA6CD73580A273EEC6C1026108F6B63479FBAEF5356DDE4FF43E4B38DD187485F DUP3 PUSH1 0x40 MLOAD PUSH2 0xCC9 SWAP2 SWAP1 PUSH2 0x1109 JUMP JUMPDEST PUSH1 0x40 MLOAD DUP1 SWAP2 SUB SWAP1 LOG2 POP POP JUMP JUMPDEST PUSH1 0x60 PUSH1 0x6 PUSH0 DUP4 PUSH20 0xFFFFFFFFFFFFFFFFFFFFFFFFFFFFFFFFFFFFFFFF AND PUSH20 0xFFFFFFFFFFFFFFFFFFFFFFFFFFFFFFFFFFFFFFFF AND DUP2 MSTORE PUSH1 0x20 ADD SWAP1 DUP2 MSTORE PUSH1 0x20 ADD PUSH0 KECCAK256 DUP1 SLOAD DUP1 PUSH1 0x20 MUL PUSH1 0x20 ADD PUSH1 0x40 MLOAD SWAP1 DUP2 ADD PUSH1 0x40 MSTORE DUP1 SWAP3 SWAP2 SWAP1 DUP2 DUP2 MSTORE PUSH1 0x20 ADD DUP3 DUP1 SLOAD DUP1 ISZERO PUSH2 0xD5C JUMPI PUSH1 0x20 MUL DUP3 ADD SWAP2 SWAP1 PUSH0 MSTORE PUSH1 0x20 PUSH0 KECCAK256 SWAP1 JUMPDEST DUP2 SLOAD DUP2 MSTORE PUSH1 0x20 ADD SWAP1 PUSH1 0x1 ADD SWAP1 DUP1 DUP4 GT PUSH2 0xD48 JUMPI JUMPDEST POP POP POP POP POP SWAP1 POP SWAP2 SWAP1 POP JUMP JUMPDEST PUSH0 PUSH1 0x1 PUSH1 0x3 SLOAD PUSH2 0xD78 SWAP2 SWAP1 PUSH2 0x1B83 JUMP JUMPDEST SWAP1 POP PUSH1 0x40 MLOAD DUP1 PUSH1 0x60 ADD PUSH1 0x40 MSTORE DUP1 DUP3 DUP2 MSTORE PUSH1 0x20 ADD CALLER PUSH20 0xFFFFFFFFFFFFFFFFFFFFFFFFFFFFFFFFFFFFFFFF AND DUP2 MSTORE PUSH1 0x20 ADD DUP4 DUP2 MSTORE POP PUSH1 0x4 PUSH0 DUP4 DUP2 MSTORE PUSH1 0x20 ADD SWAP1 DUP2 MSTORE PUSH1 0x20 ADD PUSH0 KECCAK256 PUSH0 DUP3 ADD MLOAD DUP2 PUSH0 ADD SSTORE PUSH1 0x20 DUP3 ADD MLOAD DUP2 PUSH1 0x1 ADD PUSH0 PUSH2 0x100 EXP DUP2 SLOAD DUP2 PUSH20 0xFFFFFFFFFFFFFFFFFFFFFFFFFFFFFFFFFFFFFFFF MUL NOT AND SWAP1 DUP4 PUSH20 0xFFFFFFFFFFFFFFFFFFFFFFFFFFFFFFFFFFFFFFFF AND MUL OR SWAP1 SSTORE POP PUSH1 0x40 DUP3 ADD MLOAD DUP2 PUSH1 0x2 ADD SWAP1 DUP2 PUSH2 0xE1F SWAP2 SWAP1 PUSH2 0x1D56 JUMP JUMPDEST POP SWAP1 POP POP PUSH1 0x6 PUSH0 CALLER PUSH20 0xFFFFFFFFFFFFFFFFFFFFFFFFFFFFFFFFFFFFFFFF AND PUSH20 0xFFFFFFFFFFFFFFFFFFFFFFFFFFFFFFFFFFFFFFFF AND DUP2 MSTORE PUSH1 0x20 ADD SWAP1 DUP2 MSTORE PUSH1 0x20 ADD PUSH0 KECCAK256 DUP2 SWAP1 DUP1 PUSH1 0x1 DUP2 SLOAD ADD DUP1 DUP3 SSTORE DUP1 SWAP2 POP POP PUSH1 0x1 SWAP1 SUB SWAP1 PUSH0 MSTORE PUSH1 0x20 PUSH0 KECCAK256 ADD PUSH0 SWAP1 SWAP2 SWAP1 SWAP2 SWAP1 SWAP2 POP SSTORE PUSH1 0x3 PUSH0 DUP2 SLOAD DUP1 SWAP3 SWAP2 SWAP1 PUSH2 0xE96 SWAP1 PUSH2 0x1E25 JUMP JUMPDEST SWAP2 SWAP1 POP SSTORE POP DUP1 CALLER PUSH20 0xFFFFFFFFFFFFFFFFFFFFFFFFFFFFFFFFFFFFFFFF AND PUSH32 0x4CC0A9C4A99DDC700DE1AF2C9F916A7CBFDB71F14801CCFF94061AD1EF8A8040 PUSH1 0x40 MLOAD PUSH1 0x40 MLOAD DUP1 SWAP2 SUB SWAP1 LOG3 POP POP JUMP JUMPDEST PUSH1 0x2 SLOAD DUP2 JUMP JUMPDEST PUSH1 0x5 PUSH1 0x20 MSTORE DUP1 PUSH0 MSTORE PUSH1 0x40 PUSH0 KECCAK256 PUSH0 SWAP2 POP SWAP1 POP DUP1 PUSH0 ADD SLOAD SWAP1 DUP1 PUSH1 0x1 ADD PUSH0 SWAP1 SLOAD SWAP1 PUSH2 0x100 EXP SWAP1 DIV PUSH20 0xFFFFFFFFFFFFFFFFFFFFFFFFFFFFFFFFFFFFFFFF AND SWAP1 DUP1 PUSH1 0x1 ADD PUSH1 0x14 SWAP1 SLOAD SWAP1 PUSH2 0x100 EXP SWAP1 DIV PUSH1 0xFF AND SWAP1 POP DUP4 JUMP JUMPDEST PUSH1 0x2 PUSH0 SLOAD SUB PUSH2 0xF7F JUMPI PUSH1 0x40 MLOAD PUSH32 0x8C379A000000000000000000000000000000000000000000000000000000000 DUP2 MSTORE PUSH1 0x4 ADD PUSH2 0xF76 SWAP1 PUSH2 0x1EB6 JUMP JUMPDEST PUSH1 0x40 MLOAD DUP1 SWAP2 SUB SWAP1 REVERT JUMPDEST PUSH1 0x2 PUSH0 DUP2 SWAP1 SSTORE POP JUMP JUMPDEST PUSH0 PUSH1 0x6 PUSH0 DUP5 PUSH20 0xFFFFFFFFFFFFFFFFFFFFFFFFFFFFFFFFFFFFFFFF AND PUSH20 0xFFFFFFFFFFFFFFFFFFFFFFFFFFFFFFFFFFFFFFFF AND DUP2 MSTORE PUSH1 0x20 ADD SWAP1 DUP2 MSTORE PUSH1 0x20 ADD PUSH0 KECCAK256 SWAP1 POP PUSH0 PUSH0 SWAP1 POP JUMPDEST DUP2 DUP1 SLOAD SWAP1 POP DUP2 LT ISZERO PUSH2 0x107C JUMPI DUP3 DUP3 DUP3 DUP2 SLOAD DUP2 LT PUSH2 0xFED JUMPI PUSH2 0xFEC PUSH2 0x1ED4 JUMP JUMPDEST JUMPDEST SWAP1 PUSH0 MSTORE PUSH1 0x20 PUSH0 KECCAK256 ADD SLOAD SUB PUSH2 0x106F JUMPI DUP2 PUSH1 0x1 DUP4 DUP1 SLOAD SWAP1 POP PUSH2 0x100D SWAP2 SWAP1 PUSH2 0x1883 JUMP JUMPDEST DUP2 SLOAD DUP2 LT PUSH2 0x101E JUMPI PUSH2 0x101D PUSH2 0x1ED4 JUMP JUMPDEST JUMPDEST SWAP1 PUSH0 MSTORE PUSH1 0x20 PUSH0 KECCAK256 ADD SLOAD DUP3 DUP3 DUP2 SLOAD DUP2 LT PUSH2 0x103A JUMPI PUSH2 0x1039 PUSH2 0x1ED4 JUMP JUMPDEST JUMPDEST SWAP1 PUSH0 MSTORE PUSH1 0x20 PUSH0 KECCAK256 ADD DUP2 SWAP1 SSTORE POP DUP2 DUP1 SLOAD DUP1 PUSH2 0x1057 JUMPI PUSH2 0x1056 PUSH2 0x1F01 JUMP JUMPDEST JUMPDEST PUSH1 0x1 SWAP1 SUB DUP2 DUP2 SWAP1 PUSH0 MSTORE PUSH1 0x20 PUSH0 KECCAK256 ADD PUSH0 SWAP1 SSTORE SWAP1 SSTORE PUSH2 0x107C JUMP JUMPDEST DUP1 DUP1 PUSH1 0x1 ADD SWAP2 POP POP PUSH2 0xFCD JUMP JUMPDEST POP POP POP POP JUMP JUMPDEST PUSH1 0x1 PUSH0 DUP2 SWAP1 SSTORE POP JUMP JUMPDEST PUSH0 PUSH1 0x40 MLOAD SWAP1 POP SWAP1 JUMP JUMPDEST PUSH0 PUSH0 REVERT JUMPDEST PUSH0 PUSH0 REVERT JUMPDEST PUSH0 DUP2 SWAP1 POP SWAP2 SWAP1 POP JUMP JUMPDEST PUSH2 0x10AE DUP2 PUSH2 0x109C JUMP JUMPDEST DUP2 EQ PUSH2 0x10B8 JUMPI PUSH0 PUSH0 REVERT JUMPDEST POP JUMP JUMPDEST PUSH0 DUP2 CALLDATALOAD SWAP1 POP PUSH2 0x10C9 DUP2 PUSH2 0x10A5 JUMP JUMPDEST SWAP3 SWAP2 POP POP JUMP JUMPDEST PUSH0 PUSH1 0x20 DUP3 DUP5 SUB SLT ISZERO PUSH2 0x10E4 JUMPI PUSH2 0x10E3 PUSH2 0x1094 JUMP JUMPDEST JUMPDEST PUSH0 PUSH2 0x10F1 DUP5 DUP3 DUP6 ADD PUSH2 0x10BB JUMP JUMPDEST SWAP2 POP POP SWAP3 SWAP2 POP POP JUMP JUMPDEST PUSH2 0x1103 DUP2 PUSH2 0x109C JUMP JUMPDEST DUP3 MSTORE POP POP JUMP JUMPDEST PUSH0 PUSH1 0x20 DUP3 ADD SWAP1 POP PUSH2 0x111C PUSH0 DUP4 ADD DUP5 PUSH2 0x10FA JUMP JUMPDEST SWAP3 SWAP2 POP POP JUMP JUMPDEST PUSH0 PUSH20 0xFFFFFFFFFFFFFFFFFFFFFFFFFFFFFFFFFFFFFFFF DUP3 AND SWAP1 POP SWAP2 SWAP1 POP JUMP JUMPDEST PUSH0 PUSH2 0x114B DUP3 PUSH2 0x1122 JUMP JUMPDEST SWAP1 POP SWAP2 SWAP1 POP JUMP JUMPDEST PUSH2 0x115B DUP2 PUSH2 0x1141 JUMP JUMPDEST DUP3 MSTORE POP POP JUMP JUMPDEST PUSH0 DUP2 MLOAD SWAP1 POP SWAP2 SWAP1 POP JUMP JUMPDEST PUSH0 DUP3 DUP3 MSTORE PUSH1 0x20 DUP3 ADD SWAP1 POP SWAP3 SWAP2 POP POP JUMP JUMPDEST DUP3 DUP2 DUP4 MCOPY PUSH0 DUP4 DUP4 ADD MSTORE POP POP POP JUMP JUMPDEST PUSH0 PUSH1 0x1F NOT PUSH1 0x1F DUP4 ADD AND SWAP1 POP SWAP2 SWAP1 POP JUMP JUMPDEST PUSH0 PUSH2 0x11A3 DUP3 PUSH2 0x1161 JUMP JUMPDEST PUSH2 0x11AD DUP2 DUP6 PUSH2 0x116B JUMP JUMPDEST SWAP4 POP PUSH2 0x11BD DUP2 DUP6 PUSH1 0x20 DUP7 ADD PUSH2 0x117B JUMP JUMPDEST PUSH2 0x11C6 DUP2 PUSH2 0x1189 JUMP JUMPDEST DUP5 ADD SWAP2 POP POP SWAP3 SWAP2 POP POP JUMP JUMPDEST PUSH0 PUSH1 0x60 DUP3 ADD SWAP1 POP PUSH2 0x11E4 PUSH0 DUP4 ADD DUP7 PUSH2 0x10FA JUMP JUMPDEST PUSH2 0x11F1 PUSH1 0x20 DUP4 ADD DUP6 PUSH2 0x1152 JUMP JUMPDEST DUP2 DUP2 SUB PUSH1 0x40 DUP4 ADD MSTORE PUSH2 0x1203 DUP2 DUP5 PUSH2 0x1199 JUMP JUMPDEST SWAP1 POP SWAP5 SWAP4 POP POP POP POP JUMP JUMPDEST PUSH2 0x1216 DUP2 PUSH2 0x1141 JUMP JUMPDEST DUP2 EQ PUSH2 0x1220 JUMPI PUSH0 PUSH0 REVERT JUMPDEST POP JUMP JUMPDEST PUSH0 DUP2 CALLDATALOAD SWAP1 POP PUSH2 0x1231 DUP2 PUSH2 0x120D JUMP JUMPDEST SWAP3 SWAP2 POP POP JUMP JUMPDEST PUSH0 PUSH0 PUSH1 0x40 DUP4 DUP6 SUB SLT ISZERO PUSH2 0x124D JUMPI PUSH2 0x124C PUSH2 0x1094 JUMP JUMPDEST JUMPDEST PUSH0 PUSH2 0x125A DUP6 DUP3 DUP7 ADD PUSH2 0x1223 JUMP JUMPDEST SWAP3 POP POP PUSH1 0x20 PUSH2 0x126B DUP6 DUP3 DUP7 ADD PUSH2 0x10BB JUMP JUMPDEST SWAP2 POP POP SWAP3 POP SWAP3 SWAP1 POP JUMP JUMPDEST PUSH0 PUSH1 0x20 DUP3 ADD SWAP1 POP DUP2 DUP2 SUB PUSH0 DUP4 ADD MSTORE PUSH2 0x128D DUP2 DUP5 PUSH2 0x1199 JUMP JUMPDEST SWAP1 POP SWAP3 SWAP2 POP POP JUMP JUMPDEST PUSH0 PUSH1 0x20 DUP3 ADD SWAP1 POP PUSH2 0x12A8 PUSH0 DUP4 ADD DUP5 PUSH2 0x1152 JUMP JUMPDEST SWAP3 SWAP2 POP POP JUMP JUMPDEST PUSH0 PUSH0 PUSH1 0x40 DUP4 DUP6 SUB SLT ISZERO PUSH2 0x12C4 JUMPI PUSH2 0x12C3 PUSH2 0x1094 JUMP JUMPDEST JUMPDEST PUSH0 PUSH2 0x12D1 DUP6 DUP3 DUP7 ADD PUSH2 0x10BB JUMP JUMPDEST SWAP3 POP POP PUSH1 0x20 PUSH2 0x12E2 DUP6 DUP3 DUP7 ADD PUSH2 0x10BB JUMP JUMPDEST SWAP2 POP POP SWAP3 POP SWAP3 SWAP1 POP JUMP JUMPDEST PUSH0 PUSH1 0x20 DUP3 DUP5 SUB SLT ISZERO PUSH2 0x1301 JUMPI PUSH2 0x1300 PUSH2 0x1094 JUMP JUMPDEST JUMPDEST PUSH0 PUSH2 0x130E DUP5 DUP3 DUP6 ADD PUSH2 0x1223 JUMP JUMPDEST SWAP2 POP POP SWAP3 SWAP2 POP POP JUMP JUMPDEST PUSH0 DUP2 MLOAD SWAP1 POP SWAP2 SWAP1 POP JUMP JUMPDEST PUSH0 DUP3 DUP3 MSTORE PUSH1 0x20 DUP3 ADD SWAP1 POP SWAP3 SWAP2 POP POP JUMP JUMPDEST PUSH0 DUP2 SWAP1 POP PUSH1 0x20 DUP3 ADD SWAP1 POP SWAP2 SWAP1 POP JUMP JUMPDEST PUSH2 0x1349 DUP2 PUSH2 0x109C JUMP JUMPDEST DUP3 MSTORE POP POP JUMP JUMPDEST PUSH0 PUSH2 0x135A DUP4 DUP4 PUSH2 0x1340 JUMP JUMPDEST PUSH1 0x20 DUP4 ADD SWAP1 POP SWAP3 SWAP2 POP POP JUMP JUMPDEST PUSH0 PUSH1 0x20 DUP3 ADD SWAP1 POP SWAP2 SWAP1 POP JUMP JUMPDEST PUSH0 PUSH2 0x137C DUP3 PUSH2 0x1317 JUMP JUMPDEST PUSH2 0x1386 DUP2 DUP6 PUSH2 0x1321 JUMP JUMPDEST SWAP4 POP PUSH2 0x1391 DUP4 PUSH2 0x1331 JUMP JUMPDEST DUP1 PUSH0 JUMPDEST DUP4 DUP2 LT ISZERO PUSH2 0x13C1 JUMPI DUP2 MLOAD PUSH2 0x13A8 DUP9 DUP3 PUSH2 0x134F JUMP JUMPDEST SWAP8 POP PUSH2 0x13B3 DUP4 PUSH2 0x1366 JUMP JUMPDEST SWAP3 POP POP PUSH1 0x1 DUP2 ADD SWAP1 POP PUSH2 0x1394 JUMP JUMPDEST POP DUP6 SWAP4 POP POP POP POP SWAP3 SWAP2 POP POP JUMP JUMPDEST PUSH0 PUSH1 0x20 DUP3 ADD SWAP1 POP DUP2 DUP2 SUB PUSH0 DUP4 ADD MSTORE PUSH2 0x13E6 DUP2 DUP5 PUSH2 0x1372 JUMP JUMPDEST SWAP1 POP SWAP3 SWAP2 POP POP JUMP JUMPDEST PUSH0 PUSH0 REVERT JUMPDEST PUSH0 PUSH0 REVERT JUMPDEST PUSH32 0x4E487B7100000000000000000000000000000000000000000000000000000000 PUSH0 MSTORE PUSH1 0x41 PUSH1 0x4 MSTORE PUSH1 0x24 PUSH0 REVERT JUMPDEST PUSH2 0x142C DUP3 PUSH2 0x1189 JUMP JUMPDEST DUP2 ADD DUP2 DUP2 LT PUSH8 0xFFFFFFFFFFFFFFFF DUP3 GT OR ISZERO PUSH2 0x144B JUMPI PUSH2 0x144A PUSH2 0x13F6 JUMP JUMPDEST JUMPDEST DUP1 PUSH1 0x40 MSTORE POP POP POP JUMP JUMPDEST PUSH0 PUSH2 0x145D PUSH2 0x108B JUMP JUMPDEST SWAP1 POP PUSH2 0x1469 DUP3 DUP3 PUSH2 0x1423 JUMP JUMPDEST SWAP2 SWAP1 POP JUMP JUMPDEST PUSH0 PUSH8 0xFFFFFFFFFFFFFFFF DUP3 GT ISZERO PUSH2 0x1488 JUMPI PUSH2 0x1487 PUSH2 0x13F6 JUMP JUMPDEST JUMPDEST PUSH2 0x1491 DUP3 PUSH2 0x1189 JUMP JUMPDEST SWAP1 POP PUSH1 0x20 DUP2 ADD SWAP1 POP SWAP2 SWAP1 POP JUMP JUMPDEST DUP3 DUP2 DUP4 CALLDATACOPY PUSH0 DUP4 DUP4 ADD MSTORE POP POP POP JUMP JUMPDEST PUSH0 PUSH2 0x14BE PUSH2 0x14B9 DUP5 PUSH2 0x146E JUMP JUMPDEST PUSH2 0x1454 JUMP JUMPDEST SWAP1 POP DUP3 DUP2 MSTORE PUSH1 0x20 DUP2 ADD DUP5 DUP5 DUP5 ADD GT ISZERO PUSH2 0x14DA JUMPI PUSH2 0x14D9 PUSH2 0x13F2 JUMP JUMPDEST JUMPDEST PUSH2 0x14E5 DUP5 DUP3 DUP6 PUSH2 0x149E JUMP JUMPDEST POP SWAP4 SWAP3 POP POP POP JUMP JUMPDEST PUSH0 DUP3 PUSH1 0x1F DUP4 ADD SLT PUSH2 0x1501 JUMPI PUSH2 0x1500 PUSH2 0x13EE JUMP JUMPDEST JUMPDEST DUP2 CALLDATALOAD PUSH2 0x1511 DUP5 DUP3 PUSH1 0x20 DUP7 ADD PUSH2 0x14AC JUMP JUMPDEST SWAP2 POP POP SWAP3 SWAP2 POP POP JUMP JUMPDEST PUSH0 PUSH1 0x20 DUP3 DUP5 SUB SLT ISZERO PUSH2 0x152F JUMPI PUSH2 0x152E PUSH2 0x1094 JUMP JUMPDEST JUMPDEST PUSH0 DUP3 ADD CALLDATALOAD PUSH8 0xFFFFFFFFFFFFFFFF DUP2 GT ISZERO PUSH2 0x154C JUMPI PUSH2 0x154B PUSH2 0x1098 JUMP JUMPDEST JUMPDEST PUSH2 0x1558 DUP5 DUP3 DUP6 ADD PUSH2 0x14ED JUMP JUMPDEST SWAP2 POP POP SWAP3 SWAP2 POP POP JUMP JUMPDEST PUSH0 DUP2 ISZERO ISZERO SWAP1 POP SWAP2 SWAP1 POP JUMP JUMPDEST PUSH2 0x1575 DUP2 PUSH2 0x1561 JUMP JUMPDEST DUP3 MSTORE POP POP JUMP JUMPDEST PUSH0 PUSH1 0x60 DUP3 ADD SWAP1 POP PUSH2 0x158E PUSH0 DUP4 ADD DUP7 PUSH2 0x10FA JUMP JUMPDEST PUSH2 0x159B PUSH1 0x20 DUP4 ADD DUP6 PUSH2 0x1152 JUMP JUMPDEST PUSH2 0x15A8 PUSH1 0x40 DUP4 ADD DUP5 PUSH2 0x156C JUMP JUMPDEST SWAP5 SWAP4 POP POP POP POP JUMP JUMPDEST PUSH32 0x4E4654206973206E6F7420666F722073616C6500000000000000000000000000 PUSH0 DUP3 ADD MSTORE POP JUMP JUMPDEST PUSH0 PUSH2 0x15E4 PUSH1 0x13 DUP4 PUSH2 0x116B JUMP JUMPDEST SWAP2 POP PUSH2 0x15EF DUP3 PUSH2 0x15B0 JUMP JUMPDEST PUSH1 0x20 DUP3 ADD SWAP1 POP SWAP2 SWAP1 POP JUMP JUMPDEST PUSH0 PUSH1 0x20 DUP3 ADD SWAP1 POP DUP2 DUP2 SUB PUSH0 DUP4 ADD MSTORE PUSH2 0x1611 DUP2 PUSH2 0x15D8 JUMP JUMPDEST SWAP1 POP SWAP2 SWAP1 POP JUMP JUMPDEST PUSH32 0x496E73756666696369656E742066756E64730000000000000000000000000000 PUSH0 DUP3 ADD MSTORE POP JUMP JUMPDEST PUSH0 PUSH2 0x164C PUSH1 0x12 DUP4 PUSH2 0x116B JUMP JUMPDEST SWAP2 POP PUSH2 0x1657 DUP3 PUSH2 0x1618 JUMP JUMPDEST PUSH1 0x20 DUP3 ADD SWAP1 POP SWAP2 SWAP1 POP JUMP JUMPDEST PUSH0 PUSH1 0x20 DUP3 ADD SWAP1 POP DUP2 DUP2 SUB PUSH0 DUP4 ADD MSTORE PUSH2 0x1679 DUP2 PUSH2 0x1640 JUMP JUMPDEST SWAP1 POP SWAP2 SWAP1 POP JUMP JUMPDEST PUSH32 0x53656C6C65722061646472657373206973207A65726F00000000000000000000 PUSH0 DUP3 ADD MSTORE POP JUMP JUMPDEST PUSH0 PUSH2 0x16B4 PUSH1 0x16 DUP4 PUSH2 0x116B JUMP JUMPDEST SWAP2 POP PUSH2 0x16BF DUP3 PUSH2 0x1680 JUMP JUMPDEST PUSH1 0x20 DUP3 ADD SWAP1 POP SWAP2 SWAP1 POP JUMP JUMPDEST PUSH0 PUSH1 0x20 DUP3 ADD SWAP1 POP DUP2 DUP2 SUB PUSH0 DUP4 ADD MSTORE PUSH2 0x16E1 DUP2 PUSH2 0x16A8 JUMP JUMPDEST SWAP1 POP SWAP2 SWAP1 POP JUMP JUMPDEST PUSH32 0x4F776E65722061646472657373206973207A65726F0000000000000000000000 PUSH0 DUP3 ADD MSTORE POP JUMP JUMPDEST PUSH0 PUSH2 0x171C PUSH1 0x15 DUP4 PUSH2 0x116B JUMP JUMPDEST SWAP2 POP PUSH2 0x1727 DUP3 PUSH2 0x16E8 JUMP JUMPDEST PUSH1 0x20 DUP3 ADD SWAP1 POP SWAP2 SWAP1 POP JUMP JUMPDEST PUSH0 PUSH1 0x20 DUP3 ADD SWAP1 POP DUP2 DUP2 SUB PUSH0 DUP4 ADD MSTORE PUSH2 0x1749 DUP2 PUSH2 0x1710 JUMP JUMPDEST SWAP1 POP SWAP2 SWAP1 POP JUMP JUMPDEST PUSH32 0x53656C6C6572206E6F206C6F6E676572206F776E732074686973204E46540000 PUSH0 DUP3 ADD MSTORE POP JUMP JUMPDEST PUSH0 PUSH2 0x1784 PUSH1 0x1E DUP4 PUSH2 0x116B JUMP JUMPDEST SWAP2 POP PUSH2 0x178F DUP3 PUSH2 0x1750 JUMP JUMPDEST PUSH1 0x20 DUP3 ADD SWAP1 POP SWAP2 SWAP1 POP JUMP JUMPDEST PUSH0 PUSH1 0x20 DUP3 ADD SWAP1 POP DUP2 DUP2 SUB PUSH0 DUP4 ADD MSTORE PUSH2 0x17B1 DUP2 PUSH2 0x1778 JUMP JUMPDEST SWAP1 POP SWAP2 SWAP1 POP JUMP JUMPDEST PUSH32 0x4E487B7100000000000000000000000000000000000000000000000000000000 PUSH0 MSTORE PUSH1 0x11 PUSH1 0x4 MSTORE PUSH1 0x24 PUSH0 REVERT JUMPDEST PUSH0 PUSH2 0x17EF DUP3 PUSH2 0x109C JUMP JUMPDEST SWAP2 POP PUSH2 0x17FA DUP4 PUSH2 0x109C JUMP JUMPDEST SWAP3 POP DUP3 DUP3 MUL PUSH2 0x1808 DUP2 PUSH2 0x109C JUMP JUMPDEST SWAP2 POP DUP3 DUP3 DIV DUP5 EQ DUP4 ISZERO OR PUSH2 0x181F JUMPI PUSH2 0x181E PUSH2 0x17B8 JUMP JUMPDEST JUMPDEST POP SWAP3 SWAP2 POP POP JUMP JUMPDEST PUSH32 0x4E487B7100000000000000000000000000000000000000000000000000000000 PUSH0 MSTORE PUSH1 0x12 PUSH1 0x4 MSTORE PUSH1 0x24 PUSH0 REVERT JUMPDEST PUSH0 PUSH2 0x185D DUP3 PUSH2 0x109C JUMP JUMPDEST SWAP2 POP PUSH2 0x1868 DUP4 PUSH2 0x109C JUMP JUMPDEST SWAP3 POP DUP3 PUSH2 0x1878 JUMPI PUSH2 0x1877 PUSH2 0x1826 JUMP JUMPDEST JUMPDEST DUP3 DUP3 DIV SWAP1 POP SWAP3 SWAP2 POP POP JUMP JUMPDEST PUSH0 PUSH2 0x188D DUP3 PUSH2 0x109C JUMP JUMPDEST SWAP2 POP PUSH2 0x1898 DUP4 PUSH2 0x109C JUMP JUMPDEST SWAP3 POP DUP3 DUP3 SUB SWAP1 POP DUP2 DUP2 GT ISZERO PUSH2 0x18B0 JUMPI PUSH2 0x18AF PUSH2 0x17B8 JUMP JUMPDEST JUMPDEST SWAP3 SWAP2 POP POP JUMP JUMPDEST PUSH0 DUP2 SWAP1 POP SWAP3 SWAP2 POP POP JUMP JUMPDEST POP JUMP JUMPDEST PUSH0 PUSH2 0x18CE PUSH0 DUP4 PUSH2 0x18B6 JUMP JUMPDEST SWAP2 POP PUSH2 0x18D9 DUP3 PUSH2 0x18C0 JUMP JUMPDEST PUSH0 DUP3 ADD SWAP1 POP SWAP2 SWAP1 POP JUMP JUMPDEST PUSH0 PUSH2 0x18ED DUP3 PUSH2 0x18C3 JUMP JUMPDEST SWAP2 POP DUP2 SWAP1 POP SWAP2 SWAP1 POP JUMP JUMPDEST PUSH32 0x4661696C656420746F2073656E642066656520746F206F776E65720000000000 PUSH0 DUP3 ADD MSTORE POP JUMP JUMPDEST PUSH0 PUSH2 0x192B PUSH1 0x1B DUP4 PUSH2 0x116B JUMP JUMPDEST SWAP2 POP PUSH2 0x1936 DUP3 PUSH2 0x18F7 JUMP JUMPDEST PUSH1 0x20 DUP3 ADD SWAP1 POP SWAP2 SWAP1 POP JUMP JUMPDEST PUSH0 PUSH1 0x20 DUP3 ADD SWAP1 POP DUP2 DUP2 SUB PUSH0 DUP4 ADD MSTORE PUSH2 0x1958 DUP2 PUSH2 0x191F JUMP JUMPDEST SWAP1 POP SWAP2 SWAP1 POP JUMP JUMPDEST PUSH32 0x4661696C656420746F2073656E6420616D6F756E7420746F2073656C6C657200 PUSH0 DUP3 ADD MSTORE POP JUMP JUMPDEST PUSH0 PUSH2 0x1993 PUSH1 0x1F DUP4 PUSH2 0x116B JUMP JUMPDEST SWAP2 POP PUSH2 0x199E DUP3 PUSH2 0x195F JUMP JUMPDEST PUSH1 0x20 DUP3 ADD SWAP1 POP SWAP2 SWAP1 POP JUMP JUMPDEST PUSH0 PUSH1 0x20 DUP3 ADD SWAP1 POP DUP2 DUP2 SUB PUSH0 DUP4 ADD MSTORE PUSH2 0x19C0 DUP2 PUSH2 0x1987 JUMP JUMPDEST SWAP1 POP SWAP2 SWAP1 POP JUMP JUMPDEST PUSH32 0x4661696C656420746F20726566756E642065786365737320616D6F756E740000 PUSH0 DUP3 ADD MSTORE POP JUMP JUMPDEST PUSH0 PUSH2 0x19FB PUSH1 0x1E DUP4 PUSH2 0x116B JUMP JUMPDEST SWAP2 POP PUSH2 0x1A06 DUP3 PUSH2 0x19C7 JUMP JUMPDEST PUSH1 0x20 DUP3 ADD SWAP1 POP SWAP2 SWAP1 POP JUMP JUMPDEST PUSH0 PUSH1 0x20 DUP3 ADD SWAP1 POP DUP2 DUP2 SUB PUSH0 DUP4 ADD MSTORE PUSH2 0x1A28 DUP2 PUSH2 0x19EF JUMP JUMPDEST SWAP1 POP SWAP2 SWAP1 POP JUMP JUMPDEST PUSH0 PUSH1 0x40 DUP3 ADD SWAP1 POP PUSH2 0x1A42 PUSH0 DUP4 ADD DUP6 PUSH2 0x10FA JUMP JUMPDEST PUSH2 0x1A4F PUSH1 0x20 DUP4 ADD DUP5 PUSH2 0x10FA JUMP JUMPDEST SWAP4 SWAP3 POP POP POP JUMP JUMPDEST PUSH32 0x4E487B7100000000000000000000000000000000000000000000000000000000 PUSH0 MSTORE PUSH1 0x22 PUSH1 0x4 MSTORE PUSH1 0x24 PUSH0 REVERT JUMPDEST PUSH0 PUSH1 0x2 DUP3 DIV SWAP1 POP PUSH1 0x1 DUP3 AND DUP1 PUSH2 0x1A9A JUMPI PUSH1 0x7F DUP3 AND SWAP2 POP JUMPDEST PUSH1 0x20 DUP3 LT DUP2 SUB PUSH2 0x1AAD JUMPI PUSH2 0x1AAC PUSH2 0x1A56 JUMP JUMPDEST JUMPDEST POP SWAP2 SWAP1 POP JUMP JUMPDEST PUSH32 0x4E6F7420746865206F776E657200000000000000000000000000000000000000 PUSH0 DUP3 ADD MSTORE POP JUMP JUMPDEST PUSH0 PUSH2 0x1AE7 PUSH1 0xD DUP4 PUSH2 0x116B JUMP JUMPDEST SWAP2 POP PUSH2 0x1AF2 DUP3 PUSH2 0x1AB3 JUMP JUMPDEST PUSH1 0x20 DUP3 ADD SWAP1 POP SWAP2 SWAP1 POP JUMP JUMPDEST PUSH0 PUSH1 0x20 DUP3 ADD SWAP1 POP DUP2 DUP2 SUB PUSH0 DUP4 ADD MSTORE PUSH2 0x1B14 DUP2 PUSH2 0x1ADB JUMP JUMPDEST SWAP1 POP SWAP2 SWAP1 POP JUMP JUMPDEST PUSH32 0x5072696365206D7573742062652067726561746572207468616E207A65726F00 PUSH0 DUP3 ADD MSTORE POP JUMP JUMPDEST PUSH0 PUSH2 0x1B4F PUSH1 0x1F DUP4 PUSH2 0x116B JUMP JUMPDEST SWAP2 POP PUSH2 0x1B5A DUP3 PUSH2 0x1B1B JUMP JUMPDEST PUSH1 0x20 DUP3 ADD SWAP1 POP SWAP2 SWAP1 POP JUMP JUMPDEST PUSH0 PUSH1 0x20 DUP3 ADD SWAP1 POP DUP2 DUP2 SUB PUSH0 DUP4 ADD MSTORE PUSH2 0x1B7C DUP2 PUSH2 0x1B43 JUMP JUMPDEST SWAP1 POP SWAP2 SWAP1 POP JUMP JUMPDEST PUSH0 PUSH2 0x1B8D DUP3 PUSH2 0x109C JUMP JUMPDEST SWAP2 POP PUSH2 0x1B98 DUP4 PUSH2 0x109C JUMP JUMPDEST SWAP3 POP DUP3 DUP3 ADD SWAP1 POP DUP1 DUP3 GT ISZERO PUSH2 0x1BB0 JUMPI PUSH2 0x1BAF PUSH2 0x17B8 JUMP JUMPDEST JUMPDEST SWAP3 SWAP2 POP POP JUMP JUMPDEST PUSH0 DUP2 SWAP1 POP DUP2 PUSH0 MSTORE PUSH1 0x20 PUSH0 KECCAK256 SWAP1 POP SWAP2 SWAP1 POP JUMP JUMPDEST PUSH0 PUSH1 0x20 PUSH1 0x1F DUP4 ADD DIV SWAP1 POP SWAP2 SWAP1 POP JUMP JUMPDEST PUSH0 DUP3 DUP3 SHL SWAP1 POP SWAP3 SWAP2 POP POP JUMP JUMPDEST PUSH0 PUSH1 0x8 DUP4 MUL PUSH2 0x1C12 PUSH32 0xFFFFFFFFFFFFFFFFFFFFFFFFFFFFFFFFFFFFFFFFFFFFFFFFFFFFFFFFFFFFFFFF DUP3 PUSH2 0x1BD7 JUMP JUMPDEST PUSH2 0x1C1C DUP7 DUP4 PUSH2 0x1BD7 JUMP JUMPDEST SWAP6 POP DUP1 NOT DUP5 AND SWAP4 POP DUP1 DUP7 AND DUP5 OR SWAP3 POP POP POP SWAP4 SWAP3 POP POP POP JUMP JUMPDEST PUSH0 DUP2 SWAP1 POP SWAP2 SWAP1 POP JUMP JUMPDEST PUSH0 PUSH2 0x1C57 PUSH2 0x1C52 PUSH2 0x1C4D DUP5 PUSH2 0x109C JUMP JUMPDEST PUSH2 0x1C34 JUMP JUMPDEST PUSH2 0x109C JUMP JUMPDEST SWAP1 POP SWAP2 SWAP1 POP JUMP JUMPDEST PUSH0 DUP2 SWAP1 POP SWAP2 SWAP1 POP JUMP JUMPDEST PUSH2 0x1C70 DUP4 PUSH2 0x1C3D JUMP JUMPDEST PUSH2 0x1C84 PUSH2 0x1C7C DUP3 PUSH2 0x1C5E JUMP JUMPDEST DUP5 DUP5 SLOAD PUSH2 0x1BE3 JUMP JUMPDEST DUP3 SSTORE POP POP POP POP JUMP JUMPDEST PUSH0 PUSH0 SWAP1 POP SWAP1 JUMP JUMPDEST PUSH2 0x1C9B PUSH2 0x1C8C JUMP JUMPDEST PUSH2 0x1CA6 DUP2 DUP5 DUP5 PUSH2 0x1C67 JUMP JUMPDEST POP POP POP JUMP JUMPDEST JUMPDEST DUP2 DUP2 LT ISZERO PUSH2 0x1CC9 JUMPI PUSH2 0x1CBE PUSH0 DUP3 PUSH2 0x1C93 JUMP JUMPDEST PUSH1 0x1 DUP2 ADD SWAP1 POP PUSH2 0x1CAC JUMP JUMPDEST POP POP JUMP JUMPDEST PUSH1 0x1F DUP3 GT ISZERO PUSH2 0x1D0E JUMPI PUSH2 0x1CDF DUP2 PUSH2 0x1BB6 JUMP JUMPDEST PUSH2 0x1CE8 DUP5 PUSH2 0x1BC8 JUMP JUMPDEST DUP2 ADD PUSH1 0x20 DUP6 LT ISZERO PUSH2 0x1CF7 JUMPI DUP2 SWAP1 POP JUMPDEST PUSH2 0x1D0B PUSH2 0x1D03 DUP6 PUSH2 0x1BC8 JUMP JUMPDEST DUP4 ADD DUP3 PUSH2 0x1CAB JUMP JUMPDEST POP POP JUMPDEST POP POP POP JUMP JUMPDEST PUSH0 DUP3 DUP3 SHR SWAP1 POP SWAP3 SWAP2 POP POP JUMP JUMPDEST PUSH0 PUSH2 0x1D2E PUSH0 NOT DUP5 PUSH1 0x8 MUL PUSH2 0x1D13 JUMP JUMPDEST NOT DUP1 DUP4 AND SWAP2 POP POP SWAP3 SWAP2 POP POP JUMP JUMPDEST PUSH0 PUSH2 0x1D46 DUP4 DUP4 PUSH2 0x1D1F JUMP JUMPDEST SWAP2 POP DUP3 PUSH1 0x2 MUL DUP3 OR SWAP1 POP SWAP3 SWAP2 POP POP JUMP JUMPDEST PUSH2 0x1D5F DUP3 PUSH2 0x1161 JUMP JUMPDEST PUSH8 0xFFFFFFFFFFFFFFFF DUP2 GT ISZERO PUSH2 0x1D78 JUMPI PUSH2 0x1D77 PUSH2 0x13F6 JUMP JUMPDEST JUMPDEST PUSH2 0x1D82 DUP3 SLOAD PUSH2 0x1A83 JUMP JUMPDEST PUSH2 0x1D8D DUP3 DUP3 DUP6 PUSH2 0x1CCD JUMP JUMPDEST PUSH0 PUSH1 0x20 SWAP1 POP PUSH1 0x1F DUP4 GT PUSH1 0x1 DUP2 EQ PUSH2 0x1DBE JUMPI PUSH0 DUP5 ISZERO PUSH2 0x1DAC JUMPI DUP3 DUP8 ADD MLOAD SWAP1 POP JUMPDEST PUSH2 0x1DB6 DUP6 DUP3 PUSH2 0x1D3B JUMP JUMPDEST DUP7 SSTORE POP PUSH2 0x1E1D JUMP JUMPDEST PUSH1 0x1F NOT DUP5 AND PUSH2 0x1DCC DUP7 PUSH2 0x1BB6 JUMP JUMPDEST PUSH0 JUMPDEST DUP3 DUP2 LT ISZERO PUSH2 0x1DF3 JUMPI DUP5 DUP10 ADD MLOAD DUP3 SSTORE PUSH1 0x1 DUP3 ADD SWAP2 POP PUSH1 0x20 DUP6 ADD SWAP5 POP PUSH1 0x20 DUP2 ADD SWAP1 POP PUSH2 0x1DCE JUMP JUMPDEST DUP7 DUP4 LT ISZERO PUSH2 0x1E10 JUMPI DUP5 DUP10 ADD MLOAD PUSH2 0x1E0C PUSH1 0x1F DUP10 AND DUP3 PUSH2 0x1D1F JUMP JUMPDEST DUP4 SSTORE POP JUMPDEST PUSH1 0x1 PUSH1 0x2 DUP9 MUL ADD DUP9 SSTORE POP POP POP JUMPDEST POP POP POP POP POP POP JUMP JUMPDEST PUSH0 PUSH2 0x1E2F DUP3 PUSH2 0x109C JUMP JUMPDEST SWAP2 POP PUSH32 0xFFFFFFFFFFFFFFFFFFFFFFFFFFFFFFFFFFFFFFFFFFFFFFFFFFFFFFFFFFFFFFFF DUP3 SUB PUSH2 0x1E61 JUMPI PUSH2 0x1E60 PUSH2 0x17B8 JUMP JUMPDEST JUMPDEST PUSH1 0x1 DUP3 ADD SWAP1 POP SWAP2 SWAP1 POP JUMP JUMPDEST PUSH32 0x5265656E7472616E637947756172643A207265656E7472616E742063616C6C00 PUSH0 DUP3 ADD MSTORE POP JUMP JUMPDEST PUSH0 PUSH2 0x1EA0 PUSH1 0x1F DUP4 PUSH2 0x116B JUMP JUMPDEST SWAP2 POP PUSH2 0x1EAB DUP3 PUSH2 0x1E6C JUMP JUMPDEST PUSH1 0x20 DUP3 ADD SWAP1 POP SWAP2 SWAP1 POP JUMP JUMPDEST PUSH0 PUSH1 0x20 DUP3 ADD SWAP1 POP DUP2 DUP2 SUB PUSH0 DUP4 ADD MSTORE PUSH2 0x1ECD DUP2 PUSH2 0x1E94 JUMP JUMPDEST SWAP1 POP SWAP2 SWAP1 POP JUMP JUMPDEST PUSH32 0x4E487B7100000000000000000000000000000000000000000000000000000000 PUSH0 MSTORE PUSH1 0x32 PUSH1 0x4 MSTORE PUSH1 0x24 PUSH0 REVERT JUMPDEST PUSH32 0x4E487B7100000000000000000000000000000000000000000000000000000000 PUSH0 MSTORE PUSH1 0x31 PUSH1 0x4 MSTORE PUSH1 0x24 PUSH0 REVERT INVALID LOG2 PUSH5 0x6970667358 0x22 SLT KECCAK256 LOG1 STOP PUSH30 0xE4BD5CB11CDBF523FA66FECB3B9EEB988E65417D4C4C24B9C6367D8EE664 PUSH20 0x6F6C634300081B00330000000000000000000000 "
				},
				"gasEstimates": {
					"creation": {
						"codeDepositCost": "1607200",
						"executionCost": "infinite",
						"totalCost": "infinite"
					},
					"external": {
						"fee()": "2513",
						"getOwnerTokens(address)": "infinite",
						"getTokenURI(uint256)": "infinite",
						"listNFT(uint256,uint256)": "infinite",
						"listings(uint256)": "infinite",
						"mint(string)": "infinite",
						"nfts(uint256)": "infinite",
						"owner()": "2508",
						"ownerTokens(address,uint256)": "infinite",
						"purchaseNFT(uint256)": "infinite",
						"totalSupply()": "2448"
					},
					"internal": {
						"removeTokenFromOwner(address,uint256)": "infinite"
					}
				},
				"methodIdentifiers": {
					"fee()": "ddca3f43",
					"getOwnerTokens(address)": "d63d4af0",
					"getTokenURI(uint256)": "3bb3a24d",
					"listNFT(uint256,uint256)": "94383f14",
					"listings(uint256)": "de74e57b",
					"mint(string)": "d85d3d27",
					"nfts(uint256)": "265aa621",
					"owner()": "8da5cb5b",
					"ownerTokens(address,uint256)": "28b60031",
					"purchaseNFT(uint256)": "150bde03",
					"totalSupply()": "18160ddd"
				}
			},
			"storageLayout": {
				"storage": [
					{
						"astId": 10,
						"contract": "CrNFTMarketPlace/josueS/NFTMarketplace.sol:NFTMarketplace",
						"label": "_status",
						"offset": 0,
						"slot": "0",
						"type": "t_uint256"
					},
					{
						"astId": 71,
						"contract": "CrNFTMarketPlace/josueS/NFTMarketplace.sol:NFTMarketplace",
						"label": "owner",
						"offset": 0,
						"slot": "1",
						"type": "t_address"
					},
					{
						"astId": 73,
						"contract": "CrNFTMarketPlace/josueS/NFTMarketplace.sol:NFTMarketplace",
						"label": "fee",
						"offset": 0,
						"slot": "2",
						"type": "t_uint256"
					},
					{
						"astId": 111,
						"contract": "CrNFTMarketPlace/josueS/NFTMarketplace.sol:NFTMarketplace",
						"label": "totalSupply",
						"offset": 0,
						"slot": "3",
						"type": "t_uint256"
					},
					{
						"astId": 116,
						"contract": "CrNFTMarketPlace/josueS/NFTMarketplace.sol:NFTMarketplace",
						"label": "nfts",
						"offset": 0,
						"slot": "4",
						"type": "t_mapping(t_uint256,t_struct(NFT)102_storage)"
					},
					{
						"astId": 121,
						"contract": "CrNFTMarketPlace/josueS/NFTMarketplace.sol:NFTMarketplace",
						"label": "listings",
						"offset": 0,
						"slot": "5",
						"type": "t_mapping(t_uint256,t_struct(Listing)109_storage)"
					},
					{
						"astId": 126,
						"contract": "CrNFTMarketPlace/josueS/NFTMarketplace.sol:NFTMarketplace",
						"label": "ownerTokens",
						"offset": 0,
						"slot": "6",
						"type": "t_mapping(t_address,t_array(t_uint256)dyn_storage)"
					}
				],
				"types": {
					"t_address": {
						"encoding": "inplace",
						"label": "address",
						"numberOfBytes": "20"
					},
					"t_array(t_uint256)dyn_storage": {
						"base": "t_uint256",
						"encoding": "dynamic_array",
						"label": "uint256[]",
						"numberOfBytes": "32"
					},
					"t_bool": {
						"encoding": "inplace",
						"label": "bool",
						"numberOfBytes": "1"
					},
					"t_mapping(t_address,t_array(t_uint256)dyn_storage)": {
						"encoding": "mapping",
						"key": "t_address",
						"label": "mapping(address => uint256[])",
						"numberOfBytes": "32",
						"value": "t_array(t_uint256)dyn_storage"
					},
					"t_mapping(t_uint256,t_struct(Listing)109_storage)": {
						"encoding": "mapping",
						"key": "t_uint256",
						"label": "mapping(uint256 => struct NFTMarketplace.Listing)",
						"numberOfBytes": "32",
						"value": "t_struct(Listing)109_storage"
					},
					"t_mapping(t_uint256,t_struct(NFT)102_storage)": {
						"encoding": "mapping",
						"key": "t_uint256",
						"label": "mapping(uint256 => struct NFTMarketplace.NFT)",
						"numberOfBytes": "32",
						"value": "t_struct(NFT)102_storage"
					},
					"t_string_storage": {
						"encoding": "bytes",
						"label": "string",
						"numberOfBytes": "32"
					},
					"t_struct(Listing)109_storage": {
						"encoding": "inplace",
						"label": "struct NFTMarketplace.Listing",
						"members": [
							{
								"astId": 104,
								"contract": "CrNFTMarketPlace/josueS/NFTMarketplace.sol:NFTMarketplace",
								"label": "price",
								"offset": 0,
								"slot": "0",
								"type": "t_uint256"
							},
							{
								"astId": 106,
								"contract": "CrNFTMarketPlace/josueS/NFTMarketplace.sol:NFTMarketplace",
								"label": "seller",
								"offset": 0,
								"slot": "1",
								"type": "t_address"
							},
							{
								"astId": 108,
								"contract": "CrNFTMarketPlace/josueS/NFTMarketplace.sol:NFTMarketplace",
								"label": "active",
								"offset": 20,
								"slot": "1",
								"type": "t_bool"
							}
						],
						"numberOfBytes": "64"
					},
					"t_struct(NFT)102_storage": {
						"encoding": "inplace",
						"label": "struct NFTMarketplace.NFT",
						"members": [
							{
								"astId": 97,
								"contract": "CrNFTMarketPlace/josueS/NFTMarketplace.sol:NFTMarketplace",
								"label": "tokenId",
								"offset": 0,
								"slot": "0",
								"type": "t_uint256"
							},
							{
								"astId": 99,
								"contract": "CrNFTMarketPlace/josueS/NFTMarketplace.sol:NFTMarketplace",
								"label": "owner",
								"offset": 0,
								"slot": "1",
								"type": "t_address"
							},
							{
								"astId": 101,
								"contract": "CrNFTMarketPlace/josueS/NFTMarketplace.sol:NFTMarketplace",
								"label": "tokenURI",
								"offset": 0,
								"slot": "2",
								"type": "t_string_storage"
							}
						],
						"numberOfBytes": "96"
					},
					"t_uint256": {
						"encoding": "inplace",
						"label": "uint256",
						"numberOfBytes": "32"
					}
				}
			},
			"userdoc": {
				"kind": "user",
				"methods": {},
				"version": 1
			}
		}
	}
}