{
	"CrNFTMarketPlace/contracts/test.sol": {
		"NFTMarketplace": {
			"abi": [
				{
					"inputs": [
						{
							"internalType": "uint256",
							"name": "_fee",
							"type": "uint256"
						}
					],
					"stateMutability": "nonpayable",
					"type": "constructor"
				},
				{
					"anonymous": false,
					"inputs": [
						{
							"indexed": false,
							"internalType": "uint256",
							"name": "listingId",
							"type": "uint256"
						},
						{
							"indexed": false,
							"internalType": "address",
							"name": "seller",
							"type": "address"
						},
						{
							"indexed": false,
							"internalType": "address",
							"name": "nftContract",
							"type": "address"
						},
						{
							"indexed": false,
							"internalType": "uint256",
							"name": "tokenId",
							"type": "uint256"
						},
						{
							"indexed": false,
							"internalType": "uint256",
							"name": "price",
							"type": "uint256"
						}
					],
					"name": "NFTListed",
					"type": "event"
				},
				{
					"anonymous": false,
					"inputs": [
						{
							"indexed": false,
							"internalType": "uint256",
							"name": "listingId",
							"type": "uint256"
						},
						{
							"indexed": false,
							"internalType": "address",
							"name": "buyer",
							"type": "address"
						},
						{
							"indexed": false,
							"internalType": "uint256",
							"name": "price",
							"type": "uint256"
						}
					],
					"name": "NFTPurchased",
					"type": "event"
				},
				{
					"inputs": [
						{
							"internalType": "uint256",
							"name": "listingId",
							"type": "uint256"
						}
					],
					"name": "buyNFT",
					"outputs": [],
					"stateMutability": "payable",
					"type": "function"
				},
				{
					"inputs": [
						{
							"internalType": "uint256",
							"name": "listingId",
							"type": "uint256"
						}
					],
					"name": "cancelListing",
					"outputs": [],
					"stateMutability": "nonpayable",
					"type": "function"
				},
				{
					"inputs": [],
					"name": "currentListingId",
					"outputs": [
						{
							"internalType": "uint256",
							"name": "",
							"type": "uint256"
						}
					],
					"stateMutability": "view",
					"type": "function"
				},
				{
					"inputs": [
						{
							"internalType": "address",
							"name": "nftContract",
							"type": "address"
						},
						{
							"internalType": "uint256",
							"name": "tokenId",
							"type": "uint256"
						},
						{
							"internalType": "uint256",
							"name": "price",
							"type": "uint256"
						}
					],
					"name": "listNFT",
					"outputs": [],
					"stateMutability": "nonpayable",
					"type": "function"
				},
				{
					"inputs": [
						{
							"internalType": "uint256",
							"name": "",
							"type": "uint256"
						}
					],
					"name": "listings",
					"outputs": [
						{
							"internalType": "address",
							"name": "seller",
							"type": "address"
						},
						{
							"internalType": "address",
							"name": "nftContract",
							"type": "address"
						},
						{
							"internalType": "uint256",
							"name": "tokenId",
							"type": "uint256"
						},
						{
							"internalType": "uint256",
							"name": "price",
							"type": "uint256"
						},
						{
							"internalType": "bool",
							"name": "isSold",
							"type": "bool"
						}
					],
					"stateMutability": "view",
					"type": "function"
				},
				{
					"inputs": [],
					"name": "marketplaceFee",
					"outputs": [
						{
							"internalType": "uint256",
							"name": "",
							"type": "uint256"
						}
					],
					"stateMutability": "view",
					"type": "function"
				},
				{
					"inputs": [],
					"name": "owner",
					"outputs": [
						{
							"internalType": "address",
							"name": "",
							"type": "address"
						}
					],
					"stateMutability": "view",
					"type": "function"
				},
				{
					"inputs": [
						{
							"internalType": "uint256",
							"name": "_fee",
							"type": "uint256"
						}
					],
					"name": "setMarketplaceFee",
					"outputs": [],
					"stateMutability": "nonpayable",
					"type": "function"
				},
				{
					"inputs": [],
					"name": "withdraw",
					"outputs": [],
					"stateMutability": "nonpayable",
					"type": "function"
				}
			],
			"devdoc": {
				"kind": "dev",
				"methods": {},
				"version": 1
			},
			"evm": {
				"assembly": "    /* \"CrNFTMarketPlace/contracts/test.sol\":230:3112  contract NFTMarketplace {... */\n  mstore(0x40, 0x80)\n    /* \"CrNFTMarketPlace/contracts/test.sol\":362:454  constructor(uint256 _fee) {... */\n  callvalue\n  dup1\n  iszero\n  tag_1\n  jumpi\n  revert(0x00, 0x00)\ntag_1:\n  pop\n  mload(0x40)\n  sub(codesize, bytecodeSize)\n  dup1\n  bytecodeSize\n  dup4\n  codecopy\n  dup2\n  dup2\n  add\n  0x40\n  mstore\n  dup2\n  add\n  swap1\n  tag_2\n  swap2\n  swap1\n  tag_3\n  jump\t// in\ntag_2:\n    /* \"CrNFTMarketPlace/contracts/test.sol\":406:416  msg.sender */\n  caller\n    /* \"CrNFTMarketPlace/contracts/test.sol\":398:403  owner */\n  0x00\n  0x00\n    /* \"CrNFTMarketPlace/contracts/test.sol\":398:416  owner = msg.sender */\n  0x0100\n  exp\n  dup2\n  sload\n  dup2\n  0xffffffffffffffffffffffffffffffffffffffff\n  mul\n  not\n  and\n  swap1\n  dup4\n  0xffffffffffffffffffffffffffffffffffffffff\n  and\n  mul\n  or\n  swap1\n  sstore\n  pop\n    /* \"CrNFTMarketPlace/contracts/test.sol\":443:447  _fee */\n  dup1\n    /* \"CrNFTMarketPlace/contracts/test.sol\":426:440  marketplaceFee */\n  0x01\n    /* \"CrNFTMarketPlace/contracts/test.sol\":426:447  marketplaceFee = _fee */\n  dup2\n  swap1\n  sstore\n  pop\n    /* \"CrNFTMarketPlace/contracts/test.sol\":362:454  constructor(uint256 _fee) {... */\n  pop\n    /* \"CrNFTMarketPlace/contracts/test.sol\":230:3112  contract NFTMarketplace {... */\n  jump(tag_6)\n    /* \"#utility.yul\":88:205   */\ntag_8:\n    /* \"#utility.yul\":197:198   */\n  0x00\n    /* \"#utility.yul\":194:195   */\n  0x00\n    /* \"#utility.yul\":187:199   */\n  revert\n    /* \"#utility.yul\":334:411   */\ntag_10:\n    /* \"#utility.yul\":371:378   */\n  0x00\n    /* \"#utility.yul\":400:405   */\n  dup2\n    /* \"#utility.yul\":389:405   */\n  swap1\n  pop\n    /* \"#utility.yul\":334:411   */\n  swap2\n  swap1\n  pop\n  jump\t// out\n    /* \"#utility.yul\":417:539   */\ntag_11:\n    /* \"#utility.yul\":490:514   */\n  tag_19\n    /* \"#utility.yul\":508:513   */\n  dup2\n    /* \"#utility.yul\":490:514   */\n  tag_10\n  jump\t// in\ntag_19:\n    /* \"#utility.yul\":483:488   */\n  dup2\n    /* \"#utility.yul\":480:515   */\n  eq\n    /* \"#utility.yul\":470:533   */\n  tag_20\n  jumpi\n    /* \"#utility.yul\":529:530   */\n  0x00\n    /* \"#utility.yul\":526:527   */\n  0x00\n    /* \"#utility.yul\":519:531   */\n  revert\n    /* \"#utility.yul\":470:533   */\ntag_20:\n    /* \"#utility.yul\":417:539   */\n  pop\n  jump\t// out\n    /* \"#utility.yul\":545:688   */\ntag_12:\n    /* \"#utility.yul\":602:607   */\n  0x00\n    /* \"#utility.yul\":633:639   */\n  dup2\n    /* \"#utility.yul\":627:640   */\n  mload\n    /* \"#utility.yul\":618:640   */\n  swap1\n  pop\n    /* \"#utility.yul\":649:682   */\n  tag_22\n    /* \"#utility.yul\":676:681   */\n  dup2\n    /* \"#utility.yul\":649:682   */\n  tag_11\n  jump\t// in\ntag_22:\n    /* \"#utility.yul\":545:688   */\n  swap3\n  swap2\n  pop\n  pop\n  jump\t// out\n    /* \"#utility.yul\":694:1045   */\ntag_3:\n    /* \"#utility.yul\":764:770   */\n  0x00\n    /* \"#utility.yul\":813:815   */\n  0x20\n    /* \"#utility.yul\":801:810   */\n  dup3\n    /* \"#utility.yul\":792:799   */\n  dup5\n    /* \"#utility.yul\":788:811   */\n  sub\n    /* \"#utility.yul\":784:816   */\n  slt\n    /* \"#utility.yul\":781:900   */\n  iszero\n  tag_24\n  jumpi\n    /* \"#utility.yul\":819:898   */\n  tag_25\n  tag_8\n  jump\t// in\ntag_25:\n    /* \"#utility.yul\":781:900   */\ntag_24:\n    /* \"#utility.yul\":939:940   */\n  0x00\n    /* \"#utility.yul\":964:1028   */\n  tag_26\n    /* \"#utility.yul\":1020:1027   */\n  dup5\n    /* \"#utility.yul\":1011:1017   */\n  dup3\n    /* \"#utility.yul\":1000:1009   */\n  dup6\n    /* \"#utility.yul\":996:1018   */\n  add\n    /* \"#utility.yul\":964:1028   */\n  tag_12\n  jump\t// in\ntag_26:\n    /* \"#utility.yul\":954:1028   */\n  swap2\n  pop\n    /* \"#utility.yul\":910:1038   */\n  pop\n    /* \"#utility.yul\":694:1045   */\n  swap3\n  swap2\n  pop\n  pop\n  jump\t// out\n    /* \"CrNFTMarketPlace/contracts/test.sol\":230:3112  contract NFTMarketplace {... */\ntag_6:\n  dataSize(sub_0)\n  dup1\n  dataOffset(sub_0)\n  0x00\n  codecopy\n  0x00\n  return\nstop\n\nsub_0: assembly {\n        /* \"CrNFTMarketPlace/contracts/test.sol\":230:3112  contract NFTMarketplace {... */\n      mstore(0x40, 0x80)\n      jumpi(tag_1, lt(calldatasize, 0x04))\n      shr(0xe0, calldataload(0x00))\n      dup1\n      0x6a166964\n      gt\n      tag_11\n      jumpi\n      dup1\n      0x6a166964\n      eq\n      tag_6\n      jumpi\n      dup1\n      0x8da5cb5b\n      eq\n      tag_7\n      jumpi\n      dup1\n      0x9407ea98\n      eq\n      tag_8\n      jumpi\n      dup1\n      0xad05f1b4\n      eq\n      tag_9\n      jumpi\n      dup1\n      0xde74e57b\n      eq\n      tag_10\n      jumpi\n      jump(tag_1)\n    tag_11:\n      dup1\n      0x1d6a45a7\n      eq\n      tag_2\n      jumpi\n      dup1\n      0x305a67a8\n      eq\n      tag_3\n      jumpi\n      dup1\n      0x3ccfd60b\n      eq\n      tag_4\n      jumpi\n      dup1\n      0x51ed8288\n      eq\n      tag_5\n      jumpi\n    tag_1:\n      revert(0x00, 0x00)\n        /* \"CrNFTMarketPlace/contracts/test.sol\":780:811  uint256 public currentListingId */\n    tag_2:\n      callvalue\n      dup1\n      iszero\n      tag_12\n      jumpi\n      revert(0x00, 0x00)\n    tag_12:\n      pop\n      tag_13\n      tag_14\n      jump\t// in\n    tag_13:\n      mload(0x40)\n      tag_15\n      swap2\n      swap1\n      tag_16\n      jump\t// in\n    tag_15:\n      mload(0x40)\n      dup1\n      swap2\n      sub\n      swap1\n      return\n        /* \"CrNFTMarketPlace/contracts/test.sol\":2392:2859  function cancelListing(uint256 listingId) public {... */\n    tag_3:\n      callvalue\n      dup1\n      iszero\n      tag_17\n      jumpi\n      revert(0x00, 0x00)\n    tag_17:\n      pop\n      tag_18\n      0x04\n      dup1\n      calldatasize\n      sub\n      dup2\n      add\n      swap1\n      tag_19\n      swap2\n      swap1\n      tag_20\n      jump\t// in\n    tag_19:\n      tag_21\n      jump\t// in\n    tag_18:\n      stop\n        /* \"CrNFTMarketPlace/contracts/test.sol\":3010:3110  function withdraw() public onlyOwner {... */\n    tag_4:\n      callvalue\n      dup1\n      iszero\n      tag_22\n      jumpi\n      revert(0x00, 0x00)\n    tag_22:\n      pop\n      tag_23\n      tag_24\n      jump\t// in\n    tag_23:\n      stop\n        /* \"CrNFTMarketPlace/contracts/test.sol\":1590:2386  function buyNFT(uint256 listingId) public payable {... */\n    tag_5:\n      tag_25\n      0x04\n      dup1\n      calldatasize\n      sub\n      dup2\n      add\n      swap1\n      tag_26\n      swap2\n      swap1\n      tag_20\n      jump\t// in\n    tag_26:\n      tag_27\n      jump\t// in\n    tag_25:\n      stop\n        /* \"CrNFTMarketPlace/contracts/test.sol\":286:315  uint256 public marketplaceFee */\n    tag_6:\n      callvalue\n      dup1\n      iszero\n      tag_28\n      jumpi\n      revert(0x00, 0x00)\n    tag_28:\n      pop\n      tag_29\n      tag_30\n      jump\t// in\n    tag_29:\n      mload(0x40)\n      tag_31\n      swap2\n      swap1\n      tag_16\n      jump\t// in\n    tag_31:\n      mload(0x40)\n      dup1\n      swap2\n      sub\n      swap1\n      return\n        /* \"CrNFTMarketPlace/contracts/test.sol\":260:280  address public owner */\n    tag_7:\n      callvalue\n      dup1\n      iszero\n      tag_32\n      jumpi\n      revert(0x00, 0x00)\n    tag_32:\n      pop\n      tag_33\n      tag_34\n      jump\t// in\n    tag_33:\n      mload(0x40)\n      tag_35\n      swap2\n      swap1\n      tag_36\n      jump\t// in\n    tag_35:\n      mload(0x40)\n      dup1\n      swap2\n      sub\n      swap1\n      return\n        /* \"CrNFTMarketPlace/contracts/test.sol\":2865:3004  function setMarketplaceFee(uint256 _fee) public onlyOwner {... */\n    tag_8:\n      callvalue\n      dup1\n      iszero\n      tag_37\n      jumpi\n      revert(0x00, 0x00)\n    tag_37:\n      pop\n      tag_38\n      0x04\n      dup1\n      calldatasize\n      sub\n      dup2\n      add\n      swap1\n      tag_39\n      swap2\n      swap1\n      tag_20\n      jump\t// in\n    tag_39:\n      tag_40\n      jump\t// in\n    tag_38:\n      stop\n        /* \"CrNFTMarketPlace/contracts/test.sol\":1001:1584  function listNFT(address nftContract, uint256 tokenId, uint256 price) public {... */\n    tag_9:\n      callvalue\n      dup1\n      iszero\n      tag_41\n      jumpi\n      revert(0x00, 0x00)\n    tag_41:\n      pop\n      tag_42\n      0x04\n      dup1\n      calldatasize\n      sub\n      dup2\n      add\n      swap1\n      tag_43\n      swap2\n      swap1\n      tag_44\n      jump\t// in\n    tag_43:\n      tag_45\n      jump\t// in\n    tag_42:\n      stop\n        /* \"CrNFTMarketPlace/contracts/test.sol\":731:774  mapping(uint256 => Listing) public listings */\n    tag_10:\n      callvalue\n      dup1\n      iszero\n      tag_46\n      jumpi\n      revert(0x00, 0x00)\n    tag_46:\n      pop\n      tag_47\n      0x04\n      dup1\n      calldatasize\n      sub\n      dup2\n      add\n      swap1\n      tag_48\n      swap2\n      swap1\n      tag_20\n      jump\t// in\n    tag_48:\n      tag_49\n      jump\t// in\n    tag_47:\n      mload(0x40)\n      tag_50\n      swap6\n      swap5\n      swap4\n      swap3\n      swap2\n      swap1\n      tag_51\n      jump\t// in\n    tag_50:\n      mload(0x40)\n      dup1\n      swap2\n      sub\n      swap1\n      return\n        /* \"CrNFTMarketPlace/contracts/test.sol\":780:811  uint256 public currentListingId */\n    tag_14:\n      sload(0x03)\n      dup2\n      jump\t// out\n        /* \"CrNFTMarketPlace/contracts/test.sol\":2392:2859  function cancelListing(uint256 listingId) public {... */\n    tag_21:\n        /* \"CrNFTMarketPlace/contracts/test.sol\":2451:2474  Listing storage listing */\n      0x00\n        /* \"CrNFTMarketPlace/contracts/test.sol\":2477:2485  listings */\n      0x02\n        /* \"CrNFTMarketPlace/contracts/test.sol\":2477:2496  listings[listingId] */\n      0x00\n        /* \"CrNFTMarketPlace/contracts/test.sol\":2486:2495  listingId */\n      dup4\n        /* \"CrNFTMarketPlace/contracts/test.sol\":2477:2496  listings[listingId] */\n      dup2\n      mstore\n      0x20\n      add\n      swap1\n      dup2\n      mstore\n      0x20\n      add\n      0x00\n      keccak256\n        /* \"CrNFTMarketPlace/contracts/test.sol\":2451:2496  Listing storage listing = listings[listingId] */\n      swap1\n      pop\n        /* \"CrNFTMarketPlace/contracts/test.sol\":2528:2535  listing */\n      dup1\n        /* \"CrNFTMarketPlace/contracts/test.sol\":2528:2542  listing.seller */\n      0x00\n      add\n      0x00\n      swap1\n      sload\n      swap1\n      0x0100\n      exp\n      swap1\n      div\n      0xffffffffffffffffffffffffffffffffffffffff\n      and\n        /* \"CrNFTMarketPlace/contracts/test.sol\":2514:2542  msg.sender == listing.seller */\n      0xffffffffffffffffffffffffffffffffffffffff\n      and\n        /* \"CrNFTMarketPlace/contracts/test.sol\":2514:2524  msg.sender */\n      caller\n        /* \"CrNFTMarketPlace/contracts/test.sol\":2514:2542  msg.sender == listing.seller */\n      0xffffffffffffffffffffffffffffffffffffffff\n      and\n      eq\n        /* \"CrNFTMarketPlace/contracts/test.sol\":2506:2585  require(msg.sender == listing.seller, \"Only the seller can cancel the listing\") */\n      tag_53\n      jumpi\n      mload(0x40)\n      0x08c379a000000000000000000000000000000000000000000000000000000000\n      dup2\n      mstore\n      0x04\n      add\n      tag_54\n      swap1\n      tag_55\n      jump\t// in\n    tag_54:\n      mload(0x40)\n      dup1\n      swap2\n      sub\n      swap1\n      revert\n    tag_53:\n        /* \"CrNFTMarketPlace/contracts/test.sol\":2604:2611  listing */\n      dup1\n        /* \"CrNFTMarketPlace/contracts/test.sol\":2604:2618  listing.isSold */\n      0x04\n      add\n      0x00\n      swap1\n      sload\n      swap1\n      0x0100\n      exp\n      swap1\n      div\n      0xff\n      and\n        /* \"CrNFTMarketPlace/contracts/test.sol\":2603:2618  !listing.isSold */\n      iszero\n        /* \"CrNFTMarketPlace/contracts/test.sol\":2595:2642  require(!listing.isSold, \"NFT is already sold\") */\n      tag_56\n      jumpi\n      mload(0x40)\n      0x08c379a000000000000000000000000000000000000000000000000000000000\n      dup2\n      mstore\n      0x04\n      add\n      tag_57\n      swap1\n      tag_58\n      jump\t// in\n    tag_57:\n      mload(0x40)\n      dup1\n      swap2\n      sub\n      swap1\n      revert\n    tag_56:\n        /* \"CrNFTMarketPlace/contracts/test.sol\":2700:2707  listing */\n      dup1\n        /* \"CrNFTMarketPlace/contracts/test.sol\":2700:2719  listing.nftContract */\n      0x01\n      add\n      0x00\n      swap1\n      sload\n      swap1\n      0x0100\n      exp\n      swap1\n      div\n      0xffffffffffffffffffffffffffffffffffffffff\n      and\n        /* \"CrNFTMarketPlace/contracts/test.sol\":2692:2733  IERC721(listing.nftContract).transferFrom */\n      0xffffffffffffffffffffffffffffffffffffffff\n      and\n      0x23b872dd\n        /* \"CrNFTMarketPlace/contracts/test.sol\":2742:2746  this */\n      address\n        /* \"CrNFTMarketPlace/contracts/test.sol\":2749:2756  listing */\n      dup4\n        /* \"CrNFTMarketPlace/contracts/test.sol\":2749:2763  listing.seller */\n      0x00\n      add\n      0x00\n      swap1\n      sload\n      swap1\n      0x0100\n      exp\n      swap1\n      div\n      0xffffffffffffffffffffffffffffffffffffffff\n      and\n        /* \"CrNFTMarketPlace/contracts/test.sol\":2765:2772  listing */\n      dup5\n        /* \"CrNFTMarketPlace/contracts/test.sol\":2765:2780  listing.tokenId */\n      0x02\n      add\n      sload\n        /* \"CrNFTMarketPlace/contracts/test.sol\":2692:2781  IERC721(listing.nftContract).transferFrom(address(this), listing.seller, listing.tokenId) */\n      mload(0x40)\n      dup5\n      0xffffffff\n      and\n      0xe0\n      shl\n      dup2\n      mstore\n      0x04\n      add\n      tag_59\n      swap4\n      swap3\n      swap2\n      swap1\n      tag_60\n      jump\t// in\n    tag_59:\n      0x00\n      mload(0x40)\n      dup1\n      dup4\n      sub\n      dup2\n      0x00\n      dup8\n      dup1\n      extcodesize\n      iszero\n      dup1\n      iszero\n      tag_61\n      jumpi\n      revert(0x00, 0x00)\n    tag_61:\n      pop\n      gas\n      call\n      iszero\n      dup1\n      iszero\n      tag_63\n      jumpi\n      returndatacopy(0x00, 0x00, returndatasize)\n      revert(0x00, returndatasize)\n    tag_63:\n      pop\n      pop\n      pop\n      pop\n        /* \"CrNFTMarketPlace/contracts/test.sol\":2848:2852  true */\n      0x01\n        /* \"CrNFTMarketPlace/contracts/test.sol\":2831:2838  listing */\n      dup2\n        /* \"CrNFTMarketPlace/contracts/test.sol\":2831:2845  listing.isSold */\n      0x04\n      add\n      0x00\n        /* \"CrNFTMarketPlace/contracts/test.sol\":2831:2852  listing.isSold = true */\n      0x0100\n      exp\n      dup2\n      sload\n      dup2\n      0xff\n      mul\n      not\n      and\n      swap1\n      dup4\n      iszero\n      iszero\n      mul\n      or\n      swap1\n      sstore\n      pop\n        /* \"CrNFTMarketPlace/contracts/test.sol\":2441:2859  {... */\n      pop\n        /* \"CrNFTMarketPlace/contracts/test.sol\":2392:2859  function cancelListing(uint256 listingId) public {... */\n      pop\n      jump\t// out\n        /* \"CrNFTMarketPlace/contracts/test.sol\":3010:3110  function withdraw() public onlyOwner {... */\n    tag_24:\n        /* \"CrNFTMarketPlace/contracts/test.sol\":513:518  owner */\n      0x00\n      0x00\n      swap1\n      sload\n      swap1\n      0x0100\n      exp\n      swap1\n      div\n      0xffffffffffffffffffffffffffffffffffffffff\n      and\n        /* \"CrNFTMarketPlace/contracts/test.sol\":499:518  msg.sender == owner */\n      0xffffffffffffffffffffffffffffffffffffffff\n      and\n        /* \"CrNFTMarketPlace/contracts/test.sol\":499:509  msg.sender */\n      caller\n        /* \"CrNFTMarketPlace/contracts/test.sol\":499:518  msg.sender == owner */\n      0xffffffffffffffffffffffffffffffffffffffff\n      and\n      eq\n        /* \"CrNFTMarketPlace/contracts/test.sol\":491:557  require(msg.sender == owner, \"Only owner can perform this action\") */\n      tag_65\n      jumpi\n      mload(0x40)\n      0x08c379a000000000000000000000000000000000000000000000000000000000\n      dup2\n      mstore\n      0x04\n      add\n      tag_66\n      swap1\n      tag_67\n      jump\t// in\n    tag_66:\n      mload(0x40)\n      dup1\n      swap2\n      sub\n      swap1\n      revert\n    tag_65:\n        /* \"CrNFTMarketPlace/contracts/test.sol\":3065:3070  owner */\n      0x00\n      0x00\n      swap1\n      sload\n      swap1\n      0x0100\n      exp\n      swap1\n      div\n      0xffffffffffffffffffffffffffffffffffffffff\n      and\n        /* \"CrNFTMarketPlace/contracts/test.sol\":3057:3080  payable(owner).transfer */\n      0xffffffffffffffffffffffffffffffffffffffff\n      and\n        /* \"CrNFTMarketPlace/contracts/test.sol\":3057:3103  payable(owner).transfer(address(this).balance) */\n      0x08fc\n        /* \"CrNFTMarketPlace/contracts/test.sol\":3081:3102  address(this).balance */\n      selfbalance\n        /* \"CrNFTMarketPlace/contracts/test.sol\":3057:3103  payable(owner).transfer(address(this).balance) */\n      swap1\n      dup2\n      iszero\n      mul\n      swap1\n      mload(0x40)\n      0x00\n      mload(0x40)\n      dup1\n      dup4\n      sub\n      dup2\n      dup6\n      dup9\n      dup9\n      call\n      swap4\n      pop\n      pop\n      pop\n      pop\n      iszero\n      dup1\n      iszero\n      tag_70\n      jumpi\n      returndatacopy(0x00, 0x00, returndatasize)\n      revert(0x00, returndatasize)\n    tag_70:\n      pop\n        /* \"CrNFTMarketPlace/contracts/test.sol\":3010:3110  function withdraw() public onlyOwner {... */\n      jump\t// out\n        /* \"CrNFTMarketPlace/contracts/test.sol\":1590:2386  function buyNFT(uint256 listingId) public payable {... */\n    tag_27:\n        /* \"CrNFTMarketPlace/contracts/test.sol\":1650:1673  Listing storage listing */\n      0x00\n        /* \"CrNFTMarketPlace/contracts/test.sol\":1676:1684  listings */\n      0x02\n        /* \"CrNFTMarketPlace/contracts/test.sol\":1676:1695  listings[listingId] */\n      0x00\n        /* \"CrNFTMarketPlace/contracts/test.sol\":1685:1694  listingId */\n      dup4\n        /* \"CrNFTMarketPlace/contracts/test.sol\":1676:1695  listings[listingId] */\n      dup2\n      mstore\n      0x20\n      add\n      swap1\n      dup2\n      mstore\n      0x20\n      add\n      0x00\n      keccak256\n        /* \"CrNFTMarketPlace/contracts/test.sol\":1650:1695  Listing storage listing = listings[listingId] */\n      swap1\n      pop\n        /* \"CrNFTMarketPlace/contracts/test.sol\":1714:1721  listing */\n      dup1\n        /* \"CrNFTMarketPlace/contracts/test.sol\":1714:1728  listing.isSold */\n      0x04\n      add\n      0x00\n      swap1\n      sload\n      swap1\n      0x0100\n      exp\n      swap1\n      div\n      0xff\n      and\n        /* \"CrNFTMarketPlace/contracts/test.sol\":1713:1728  !listing.isSold */\n      iszero\n        /* \"CrNFTMarketPlace/contracts/test.sol\":1705:1752  require(!listing.isSold, \"NFT is already sold\") */\n      tag_72\n      jumpi\n      mload(0x40)\n      0x08c379a000000000000000000000000000000000000000000000000000000000\n      dup2\n      mstore\n      0x04\n      add\n      tag_73\n      swap1\n      tag_58\n      jump\t// in\n    tag_73:\n      mload(0x40)\n      dup1\n      swap2\n      sub\n      swap1\n      revert\n    tag_72:\n        /* \"CrNFTMarketPlace/contracts/test.sol\":1783:1790  listing */\n      dup1\n        /* \"CrNFTMarketPlace/contracts/test.sol\":1783:1796  listing.price */\n      0x03\n      add\n      sload\n        /* \"CrNFTMarketPlace/contracts/test.sol\":1770:1779  msg.value */\n      callvalue\n        /* \"CrNFTMarketPlace/contracts/test.sol\":1770:1796  msg.value >= listing.price */\n      lt\n      iszero\n        /* \"CrNFTMarketPlace/contracts/test.sol\":1762:1821  require(msg.value >= listing.price, \"Insufficient payment\") */\n      tag_74\n      jumpi\n      mload(0x40)\n      0x08c379a000000000000000000000000000000000000000000000000000000000\n      dup2\n      mstore\n      0x04\n      add\n      tag_75\n      swap1\n      tag_76\n      jump\t// in\n    tag_75:\n      mload(0x40)\n      dup1\n      swap2\n      sub\n      swap1\n      revert\n    tag_74:\n        /* \"CrNFTMarketPlace/contracts/test.sol\":1832:1843  uint256 fee */\n      0x00\n        /* \"CrNFTMarketPlace/contracts/test.sol\":1881:1886  10000 */\n      0x2710\n        /* \"CrNFTMarketPlace/contracts/test.sol\":1863:1877  marketplaceFee */\n      sload(0x01)\n        /* \"CrNFTMarketPlace/contracts/test.sol\":1847:1854  listing */\n      dup4\n        /* \"CrNFTMarketPlace/contracts/test.sol\":1847:1860  listing.price */\n      0x03\n      add\n      sload\n        /* \"CrNFTMarketPlace/contracts/test.sol\":1847:1877  listing.price * marketplaceFee */\n      tag_77\n      swap2\n      swap1\n      tag_78\n      jump\t// in\n    tag_77:\n        /* \"CrNFTMarketPlace/contracts/test.sol\":1846:1886  (listing.price * marketplaceFee) / 10000 */\n      tag_79\n      swap2\n      swap1\n      tag_80\n      jump\t// in\n    tag_79:\n        /* \"CrNFTMarketPlace/contracts/test.sol\":1832:1886  uint256 fee = (listing.price * marketplaceFee) / 10000 */\n      swap1\n      pop\n        /* \"CrNFTMarketPlace/contracts/test.sol\":1896:1918  uint256 sellerProceeds */\n      0x00\n        /* \"CrNFTMarketPlace/contracts/test.sol\":1937:1940  fee */\n      dup2\n        /* \"CrNFTMarketPlace/contracts/test.sol\":1921:1928  listing */\n      dup4\n        /* \"CrNFTMarketPlace/contracts/test.sol\":1921:1934  listing.price */\n      0x03\n      add\n      sload\n        /* \"CrNFTMarketPlace/contracts/test.sol\":1921:1940  listing.price - fee */\n      tag_81\n      swap2\n      swap1\n      tag_82\n      jump\t// in\n    tag_81:\n        /* \"CrNFTMarketPlace/contracts/test.sol\":1896:1940  uint256 sellerProceeds = listing.price - fee */\n      swap1\n      pop\n        /* \"CrNFTMarketPlace/contracts/test.sol\":2004:2009  owner */\n      0x00\n      0x00\n      swap1\n      sload\n      swap1\n      0x0100\n      exp\n      swap1\n      div\n      0xffffffffffffffffffffffffffffffffffffffff\n      and\n        /* \"CrNFTMarketPlace/contracts/test.sol\":1996:2019  payable(owner).transfer */\n      0xffffffffffffffffffffffffffffffffffffffff\n      and\n        /* \"CrNFTMarketPlace/contracts/test.sol\":1996:2024  payable(owner).transfer(fee) */\n      0x08fc\n        /* \"CrNFTMarketPlace/contracts/test.sol\":2020:2023  fee */\n      dup4\n        /* \"CrNFTMarketPlace/contracts/test.sol\":1996:2024  payable(owner).transfer(fee) */\n      swap1\n      dup2\n      iszero\n      mul\n      swap1\n      mload(0x40)\n      0x00\n      mload(0x40)\n      dup1\n      dup4\n      sub\n      dup2\n      dup6\n      dup9\n      dup9\n      call\n      swap4\n      pop\n      pop\n      pop\n      pop\n      iszero\n      dup1\n      iszero\n      tag_84\n      jumpi\n      returndatacopy(0x00, 0x00, returndatasize)\n      revert(0x00, returndatasize)\n    tag_84:\n      pop\n        /* \"CrNFTMarketPlace/contracts/test.sol\":2088:2095  listing */\n      dup3\n        /* \"CrNFTMarketPlace/contracts/test.sol\":2088:2102  listing.seller */\n      0x00\n      add\n      0x00\n      swap1\n      sload\n      swap1\n      0x0100\n      exp\n      swap1\n      div\n      0xffffffffffffffffffffffffffffffffffffffff\n      and\n        /* \"CrNFTMarketPlace/contracts/test.sol\":2080:2112  payable(listing.seller).transfer */\n      0xffffffffffffffffffffffffffffffffffffffff\n      and\n        /* \"CrNFTMarketPlace/contracts/test.sol\":2080:2128  payable(listing.seller).transfer(sellerProceeds) */\n      0x08fc\n        /* \"CrNFTMarketPlace/contracts/test.sol\":2113:2127  sellerProceeds */\n      dup3\n        /* \"CrNFTMarketPlace/contracts/test.sol\":2080:2128  payable(listing.seller).transfer(sellerProceeds) */\n      swap1\n      dup2\n      iszero\n      mul\n      swap1\n      mload(0x40)\n      0x00\n      mload(0x40)\n      dup1\n      dup4\n      sub\n      dup2\n      dup6\n      dup9\n      dup9\n      call\n      swap4\n      pop\n      pop\n      pop\n      pop\n      iszero\n      dup1\n      iszero\n      tag_86\n      jumpi\n      returndatacopy(0x00, 0x00, returndatasize)\n      revert(0x00, returndatasize)\n    tag_86:\n      pop\n        /* \"CrNFTMarketPlace/contracts/test.sol\":2180:2187  listing */\n      dup3\n        /* \"CrNFTMarketPlace/contracts/test.sol\":2180:2199  listing.nftContract */\n      0x01\n      add\n      0x00\n      swap1\n      sload\n      swap1\n      0x0100\n      exp\n      swap1\n      div\n      0xffffffffffffffffffffffffffffffffffffffff\n      and\n        /* \"CrNFTMarketPlace/contracts/test.sol\":2172:2213  IERC721(listing.nftContract).transferFrom */\n      0xffffffffffffffffffffffffffffffffffffffff\n      and\n      0x23b872dd\n        /* \"CrNFTMarketPlace/contracts/test.sol\":2222:2226  this */\n      address\n        /* \"CrNFTMarketPlace/contracts/test.sol\":2229:2239  msg.sender */\n      caller\n        /* \"CrNFTMarketPlace/contracts/test.sol\":2241:2248  listing */\n      dup7\n        /* \"CrNFTMarketPlace/contracts/test.sol\":2241:2256  listing.tokenId */\n      0x02\n      add\n      sload\n        /* \"CrNFTMarketPlace/contracts/test.sol\":2172:2257  IERC721(listing.nftContract).transferFrom(address(this), msg.sender, listing.tokenId) */\n      mload(0x40)\n      dup5\n      0xffffffff\n      and\n      0xe0\n      shl\n      dup2\n      mstore\n      0x04\n      add\n      tag_87\n      swap4\n      swap3\n      swap2\n      swap1\n      tag_60\n      jump\t// in\n    tag_87:\n      0x00\n      mload(0x40)\n      dup1\n      dup4\n      sub\n      dup2\n      0x00\n      dup8\n      dup1\n      extcodesize\n      iszero\n      dup1\n      iszero\n      tag_88\n      jumpi\n      revert(0x00, 0x00)\n    tag_88:\n      pop\n      gas\n      call\n      iszero\n      dup1\n      iszero\n      tag_90\n      jumpi\n      returndatacopy(0x00, 0x00, returndatasize)\n      revert(0x00, returndatasize)\n    tag_90:\n      pop\n      pop\n      pop\n      pop\n        /* \"CrNFTMarketPlace/contracts/test.sol\":2309:2313  true */\n      0x01\n        /* \"CrNFTMarketPlace/contracts/test.sol\":2292:2299  listing */\n      dup4\n        /* \"CrNFTMarketPlace/contracts/test.sol\":2292:2306  listing.isSold */\n      0x04\n      add\n      0x00\n        /* \"CrNFTMarketPlace/contracts/test.sol\":2292:2313  listing.isSold = true */\n      0x0100\n      exp\n      dup2\n      sload\n      dup2\n      0xff\n      mul\n      not\n      and\n      swap1\n      dup4\n      iszero\n      iszero\n      mul\n      or\n      swap1\n      sstore\n      pop\n        /* \"CrNFTMarketPlace/contracts/test.sol\":2329:2379  NFTPurchased(listingId, msg.sender, listing.price) */\n      0xad546cba5af920bc2c64678bbd69f3d8965ac26d1b82f7ebf6f098aaa8335282\n        /* \"CrNFTMarketPlace/contracts/test.sol\":2342:2351  listingId */\n      dup5\n        /* \"CrNFTMarketPlace/contracts/test.sol\":2353:2363  msg.sender */\n      caller\n        /* \"CrNFTMarketPlace/contracts/test.sol\":2365:2372  listing */\n      dup6\n        /* \"CrNFTMarketPlace/contracts/test.sol\":2365:2378  listing.price */\n      0x03\n      add\n      sload\n        /* \"CrNFTMarketPlace/contracts/test.sol\":2329:2379  NFTPurchased(listingId, msg.sender, listing.price) */\n      mload(0x40)\n      tag_91\n      swap4\n      swap3\n      swap2\n      swap1\n      tag_92\n      jump\t// in\n    tag_91:\n      mload(0x40)\n      dup1\n      swap2\n      sub\n      swap1\n      log1\n        /* \"CrNFTMarketPlace/contracts/test.sol\":1640:2386  {... */\n      pop\n      pop\n      pop\n        /* \"CrNFTMarketPlace/contracts/test.sol\":1590:2386  function buyNFT(uint256 listingId) public payable {... */\n      pop\n      jump\t// out\n        /* \"CrNFTMarketPlace/contracts/test.sol\":286:315  uint256 public marketplaceFee */\n    tag_30:\n      sload(0x01)\n      dup2\n      jump\t// out\n        /* \"CrNFTMarketPlace/contracts/test.sol\":260:280  address public owner */\n    tag_34:\n      0x00\n      0x00\n      swap1\n      sload\n      swap1\n      0x0100\n      exp\n      swap1\n      div\n      0xffffffffffffffffffffffffffffffffffffffff\n      and\n      dup2\n      jump\t// out\n        /* \"CrNFTMarketPlace/contracts/test.sol\":2865:3004  function setMarketplaceFee(uint256 _fee) public onlyOwner {... */\n    tag_40:\n        /* \"CrNFTMarketPlace/contracts/test.sol\":513:518  owner */\n      0x00\n      0x00\n      swap1\n      sload\n      swap1\n      0x0100\n      exp\n      swap1\n      div\n      0xffffffffffffffffffffffffffffffffffffffff\n      and\n        /* \"CrNFTMarketPlace/contracts/test.sol\":499:518  msg.sender == owner */\n      0xffffffffffffffffffffffffffffffffffffffff\n      and\n        /* \"CrNFTMarketPlace/contracts/test.sol\":499:509  msg.sender */\n      caller\n        /* \"CrNFTMarketPlace/contracts/test.sol\":499:518  msg.sender == owner */\n      0xffffffffffffffffffffffffffffffffffffffff\n      and\n      eq\n        /* \"CrNFTMarketPlace/contracts/test.sol\":491:557  require(msg.sender == owner, \"Only owner can perform this action\") */\n      tag_94\n      jumpi\n      mload(0x40)\n      0x08c379a000000000000000000000000000000000000000000000000000000000\n      dup2\n      mstore\n      0x04\n      add\n      tag_95\n      swap1\n      tag_67\n      jump\t// in\n    tag_95:\n      mload(0x40)\n      dup1\n      swap2\n      sub\n      swap1\n      revert\n    tag_94:\n        /* \"CrNFTMarketPlace/contracts/test.sol\":2949:2950  0 */\n      0x00\n        /* \"CrNFTMarketPlace/contracts/test.sol\":2941:2945  _fee */\n      dup2\n        /* \"CrNFTMarketPlace/contracts/test.sol\":2941:2950  _fee >= 0 */\n      lt\n      iszero\n        /* \"CrNFTMarketPlace/contracts/test.sol\":2933:2966  require(_fee >= 0, \"Invalid fee\") */\n      tag_97\n      jumpi\n      mload(0x40)\n      0x08c379a000000000000000000000000000000000000000000000000000000000\n      dup2\n      mstore\n      0x04\n      add\n      tag_98\n      swap1\n      tag_99\n      jump\t// in\n    tag_98:\n      mload(0x40)\n      dup1\n      swap2\n      sub\n      swap1\n      revert\n    tag_97:\n        /* \"CrNFTMarketPlace/contracts/test.sol\":2993:2997  _fee */\n      dup1\n        /* \"CrNFTMarketPlace/contracts/test.sol\":2976:2990  marketplaceFee */\n      0x01\n        /* \"CrNFTMarketPlace/contracts/test.sol\":2976:2997  marketplaceFee = _fee */\n      dup2\n      swap1\n      sstore\n      pop\n        /* \"CrNFTMarketPlace/contracts/test.sol\":2865:3004  function setMarketplaceFee(uint256 _fee) public onlyOwner {... */\n      pop\n      jump\t// out\n        /* \"CrNFTMarketPlace/contracts/test.sol\":1001:1584  function listNFT(address nftContract, uint256 tokenId, uint256 price) public {... */\n    tag_45:\n        /* \"CrNFTMarketPlace/contracts/test.sol\":1104:1105  0 */\n      0x00\n        /* \"CrNFTMarketPlace/contracts/test.sol\":1096:1101  price */\n      dup2\n        /* \"CrNFTMarketPlace/contracts/test.sol\":1096:1105  price > 0 */\n      gt\n        /* \"CrNFTMarketPlace/contracts/test.sol\":1088:1141  require(price > 0, \"Price must be greater than zero\") */\n      tag_101\n      jumpi\n      mload(0x40)\n      0x08c379a000000000000000000000000000000000000000000000000000000000\n      dup2\n      mstore\n      0x04\n      add\n      tag_102\n      swap1\n      tag_103\n      jump\t// in\n    tag_102:\n      mload(0x40)\n      dup1\n      swap2\n      sub\n      swap1\n      revert\n    tag_101:\n        /* \"CrNFTMarketPlace/contracts/test.sol\":1160:1171  nftContract */\n      dup3\n        /* \"CrNFTMarketPlace/contracts/test.sol\":1152:1185  IERC721(nftContract).transferFrom */\n      0xffffffffffffffffffffffffffffffffffffffff\n      and\n      0x23b872dd\n        /* \"CrNFTMarketPlace/contracts/test.sol\":1186:1196  msg.sender */\n      caller\n        /* \"CrNFTMarketPlace/contracts/test.sol\":1206:1210  this */\n      address\n        /* \"CrNFTMarketPlace/contracts/test.sol\":1213:1220  tokenId */\n      dup6\n        /* \"CrNFTMarketPlace/contracts/test.sol\":1152:1221  IERC721(nftContract).transferFrom(msg.sender, address(this), tokenId) */\n      mload(0x40)\n      dup5\n      0xffffffff\n      and\n      0xe0\n      shl\n      dup2\n      mstore\n      0x04\n      add\n      tag_104\n      swap4\n      swap3\n      swap2\n      swap1\n      tag_60\n      jump\t// in\n    tag_104:\n      0x00\n      mload(0x40)\n      dup1\n      dup4\n      sub\n      dup2\n      0x00\n      dup8\n      dup1\n      extcodesize\n      iszero\n      dup1\n      iszero\n      tag_105\n      jumpi\n      revert(0x00, 0x00)\n    tag_105:\n      pop\n      gas\n      call\n      iszero\n      dup1\n      iszero\n      tag_107\n      jumpi\n      returndatacopy(0x00, 0x00, returndatasize)\n      revert(0x00, returndatasize)\n    tag_107:\n      pop\n      pop\n      pop\n      pop\n        /* \"CrNFTMarketPlace/contracts/test.sol\":1292:1464  Listing({... */\n      mload(0x40)\n      dup1\n      0xa0\n      add\n      0x40\n      mstore\n      dup1\n        /* \"CrNFTMarketPlace/contracts/test.sol\":1322:1332  msg.sender */\n      caller\n        /* \"CrNFTMarketPlace/contracts/test.sol\":1292:1464  Listing({... */\n      0xffffffffffffffffffffffffffffffffffffffff\n      and\n      dup2\n      mstore\n      0x20\n      add\n        /* \"CrNFTMarketPlace/contracts/test.sol\":1359:1370  nftContract */\n      dup5\n        /* \"CrNFTMarketPlace/contracts/test.sol\":1292:1464  Listing({... */\n      0xffffffffffffffffffffffffffffffffffffffff\n      and\n      dup2\n      mstore\n      0x20\n      add\n        /* \"CrNFTMarketPlace/contracts/test.sol\":1393:1400  tokenId */\n      dup4\n        /* \"CrNFTMarketPlace/contracts/test.sol\":1292:1464  Listing({... */\n      dup2\n      mstore\n      0x20\n      add\n        /* \"CrNFTMarketPlace/contracts/test.sol\":1421:1426  price */\n      dup3\n        /* \"CrNFTMarketPlace/contracts/test.sol\":1292:1464  Listing({... */\n      dup2\n      mstore\n      0x20\n      add\n        /* \"CrNFTMarketPlace/contracts/test.sol\":1448:1453  false */\n      0x00\n        /* \"CrNFTMarketPlace/contracts/test.sol\":1292:1464  Listing({... */\n      iszero\n      iszero\n      dup2\n      mstore\n      pop\n        /* \"CrNFTMarketPlace/contracts/test.sol\":1263:1271  listings */\n      0x02\n        /* \"CrNFTMarketPlace/contracts/test.sol\":1263:1289  listings[currentListingId] */\n      0x00\n        /* \"CrNFTMarketPlace/contracts/test.sol\":1272:1288  currentListingId */\n      sload(0x03)\n        /* \"CrNFTMarketPlace/contracts/test.sol\":1263:1289  listings[currentListingId] */\n      dup2\n      mstore\n      0x20\n      add\n      swap1\n      dup2\n      mstore\n      0x20\n      add\n      0x00\n      keccak256\n        /* \"CrNFTMarketPlace/contracts/test.sol\":1263:1464  listings[currentListingId] = Listing({... */\n      0x00\n      dup3\n      add\n      mload\n      dup2\n      0x00\n      add\n      exp(0x0100, 0x00)\n      dup2\n      sload\n      dup2\n      0xffffffffffffffffffffffffffffffffffffffff\n      mul\n      not\n      and\n      swap1\n      dup4\n      0xffffffffffffffffffffffffffffffffffffffff\n      and\n      mul\n      or\n      swap1\n      sstore\n      pop\n      0x20\n      dup3\n      add\n      mload\n      dup2\n      0x01\n      add\n      exp(0x0100, 0x00)\n      dup2\n      sload\n      dup2\n      0xffffffffffffffffffffffffffffffffffffffff\n      mul\n      not\n      and\n      swap1\n      dup4\n      0xffffffffffffffffffffffffffffffffffffffff\n      and\n      mul\n      or\n      swap1\n      sstore\n      pop\n      0x40\n      dup3\n      add\n      mload\n      dup2\n      0x02\n      add\n      sstore\n      0x60\n      dup3\n      add\n      mload\n      dup2\n      0x03\n      add\n      sstore\n      0x80\n      dup3\n      add\n      mload\n      dup2\n      0x04\n      add\n      exp(0x0100, 0x00)\n      dup2\n      sload\n      dup2\n      0xff\n      mul\n      not\n      and\n      swap1\n      dup4\n      iszero\n      iszero\n      mul\n      or\n      swap1\n      sstore\n      pop\n      swap1\n      pop\n      pop\n        /* \"CrNFTMarketPlace/contracts/test.sol\":1480:1548  NFTListed(currentListingId, msg.sender, nftContract, tokenId, price) */\n      0xb0fe4922ac99799c17a4130d5c045ba2ecdf6e15b75b9ea84aaf0dc28724a42b\n        /* \"CrNFTMarketPlace/contracts/test.sol\":1490:1506  currentListingId */\n      sload(0x03)\n        /* \"CrNFTMarketPlace/contracts/test.sol\":1508:1518  msg.sender */\n      caller\n        /* \"CrNFTMarketPlace/contracts/test.sol\":1520:1531  nftContract */\n      dup6\n        /* \"CrNFTMarketPlace/contracts/test.sol\":1533:1540  tokenId */\n      dup6\n        /* \"CrNFTMarketPlace/contracts/test.sol\":1542:1547  price */\n      dup6\n        /* \"CrNFTMarketPlace/contracts/test.sol\":1480:1548  NFTListed(currentListingId, msg.sender, nftContract, tokenId, price) */\n      mload(0x40)\n      tag_108\n      swap6\n      swap5\n      swap4\n      swap3\n      swap2\n      swap1\n      tag_109\n      jump\t// in\n    tag_108:\n      mload(0x40)\n      dup1\n      swap2\n      sub\n      swap1\n      log1\n        /* \"CrNFTMarketPlace/contracts/test.sol\":1559:1575  currentListingId */\n      0x03\n      0x00\n        /* \"CrNFTMarketPlace/contracts/test.sol\":1559:1577  currentListingId++ */\n      dup2\n      sload\n      dup1\n      swap3\n      swap2\n      swap1\n      tag_110\n      swap1\n      tag_111\n      jump\t// in\n    tag_110:\n      swap2\n      swap1\n      pop\n      sstore\n      pop\n        /* \"CrNFTMarketPlace/contracts/test.sol\":1001:1584  function listNFT(address nftContract, uint256 tokenId, uint256 price) public {... */\n      pop\n      pop\n      pop\n      jump\t// out\n        /* \"CrNFTMarketPlace/contracts/test.sol\":731:774  mapping(uint256 => Listing) public listings */\n    tag_49:\n      mstore(0x20, 0x02)\n      dup1\n      0x00\n      mstore\n      keccak256(0x00, 0x40)\n      0x00\n      swap2\n      pop\n      swap1\n      pop\n      dup1\n      0x00\n      add\n      0x00\n      swap1\n      sload\n      swap1\n      0x0100\n      exp\n      swap1\n      div\n      0xffffffffffffffffffffffffffffffffffffffff\n      and\n      swap1\n      dup1\n      0x01\n      add\n      0x00\n      swap1\n      sload\n      swap1\n      0x0100\n      exp\n      swap1\n      div\n      0xffffffffffffffffffffffffffffffffffffffff\n      and\n      swap1\n      dup1\n      0x02\n      add\n      sload\n      swap1\n      dup1\n      0x03\n      add\n      sload\n      swap1\n      dup1\n      0x04\n      add\n      0x00\n      swap1\n      sload\n      swap1\n      0x0100\n      exp\n      swap1\n      div\n      0xff\n      and\n      swap1\n      pop\n      dup6\n      jump\t// out\n        /* \"#utility.yul\":7:84   */\n    tag_112:\n        /* \"#utility.yul\":44:51   */\n      0x00\n        /* \"#utility.yul\":73:78   */\n      dup2\n        /* \"#utility.yul\":62:78   */\n      swap1\n      pop\n        /* \"#utility.yul\":7:84   */\n      swap2\n      swap1\n      pop\n      jump\t// out\n        /* \"#utility.yul\":90:208   */\n    tag_113:\n        /* \"#utility.yul\":177:201   */\n      tag_144\n        /* \"#utility.yul\":195:200   */\n      dup2\n        /* \"#utility.yul\":177:201   */\n      tag_112\n      jump\t// in\n    tag_144:\n        /* \"#utility.yul\":172:175   */\n      dup3\n        /* \"#utility.yul\":165:202   */\n      mstore\n        /* \"#utility.yul\":90:208   */\n      pop\n      pop\n      jump\t// out\n        /* \"#utility.yul\":214:436   */\n    tag_16:\n        /* \"#utility.yul\":307:311   */\n      0x00\n        /* \"#utility.yul\":345:347   */\n      0x20\n        /* \"#utility.yul\":334:343   */\n      dup3\n        /* \"#utility.yul\":330:348   */\n      add\n        /* \"#utility.yul\":322:348   */\n      swap1\n      pop\n        /* \"#utility.yul\":358:429   */\n      tag_146\n        /* \"#utility.yul\":426:427   */\n      0x00\n        /* \"#utility.yul\":415:424   */\n      dup4\n        /* \"#utility.yul\":411:428   */\n      add\n        /* \"#utility.yul\":402:408   */\n      dup5\n        /* \"#utility.yul\":358:429   */\n      tag_113\n      jump\t// in\n    tag_146:\n        /* \"#utility.yul\":214:436   */\n      swap3\n      swap2\n      pop\n      pop\n      jump\t// out\n        /* \"#utility.yul\":523:640   */\n    tag_115:\n        /* \"#utility.yul\":632:633   */\n      0x00\n        /* \"#utility.yul\":629:630   */\n      0x00\n        /* \"#utility.yul\":622:634   */\n      revert\n        /* \"#utility.yul\":769:891   */\n    tag_117:\n        /* \"#utility.yul\":842:866   */\n      tag_151\n        /* \"#utility.yul\":860:865   */\n      dup2\n        /* \"#utility.yul\":842:866   */\n      tag_112\n      jump\t// in\n    tag_151:\n        /* \"#utility.yul\":835:840   */\n      dup2\n        /* \"#utility.yul\":832:867   */\n      eq\n        /* \"#utility.yul\":822:885   */\n      tag_152\n      jumpi\n        /* \"#utility.yul\":881:882   */\n      0x00\n        /* \"#utility.yul\":878:879   */\n      0x00\n        /* \"#utility.yul\":871:883   */\n      revert\n        /* \"#utility.yul\":822:885   */\n    tag_152:\n        /* \"#utility.yul\":769:891   */\n      pop\n      jump\t// out\n        /* \"#utility.yul\":897:1036   */\n    tag_118:\n        /* \"#utility.yul\":943:948   */\n      0x00\n        /* \"#utility.yul\":981:987   */\n      dup2\n        /* \"#utility.yul\":968:988   */\n      calldataload\n        /* \"#utility.yul\":959:988   */\n      swap1\n      pop\n        /* \"#utility.yul\":997:1030   */\n      tag_154\n        /* \"#utility.yul\":1024:1029   */\n      dup2\n        /* \"#utility.yul\":997:1030   */\n      tag_117\n      jump\t// in\n    tag_154:\n        /* \"#utility.yul\":897:1036   */\n      swap3\n      swap2\n      pop\n      pop\n      jump\t// out\n        /* \"#utility.yul\":1042:1371   */\n    tag_20:\n        /* \"#utility.yul\":1101:1107   */\n      0x00\n        /* \"#utility.yul\":1150:1152   */\n      0x20\n        /* \"#utility.yul\":1138:1147   */\n      dup3\n        /* \"#utility.yul\":1129:1136   */\n      dup5\n        /* \"#utility.yul\":1125:1148   */\n      sub\n        /* \"#utility.yul\":1121:1153   */\n      slt\n        /* \"#utility.yul\":1118:1237   */\n      iszero\n      tag_156\n      jumpi\n        /* \"#utility.yul\":1156:1235   */\n      tag_157\n      tag_115\n      jump\t// in\n    tag_157:\n        /* \"#utility.yul\":1118:1237   */\n    tag_156:\n        /* \"#utility.yul\":1276:1277   */\n      0x00\n        /* \"#utility.yul\":1301:1354   */\n      tag_158\n        /* \"#utility.yul\":1346:1353   */\n      dup5\n        /* \"#utility.yul\":1337:1343   */\n      dup3\n        /* \"#utility.yul\":1326:1335   */\n      dup6\n        /* \"#utility.yul\":1322:1344   */\n      add\n        /* \"#utility.yul\":1301:1354   */\n      tag_118\n      jump\t// in\n    tag_158:\n        /* \"#utility.yul\":1291:1354   */\n      swap2\n      pop\n        /* \"#utility.yul\":1247:1364   */\n      pop\n        /* \"#utility.yul\":1042:1371   */\n      swap3\n      swap2\n      pop\n      pop\n      jump\t// out\n        /* \"#utility.yul\":1377:1503   */\n    tag_119:\n        /* \"#utility.yul\":1414:1421   */\n      0x00\n        /* \"#utility.yul\":1454:1496   */\n      0xffffffffffffffffffffffffffffffffffffffff\n        /* \"#utility.yul\":1447:1452   */\n      dup3\n        /* \"#utility.yul\":1443:1497   */\n      and\n        /* \"#utility.yul\":1432:1497   */\n      swap1\n      pop\n        /* \"#utility.yul\":1377:1503   */\n      swap2\n      swap1\n      pop\n      jump\t// out\n        /* \"#utility.yul\":1509:1605   */\n    tag_120:\n        /* \"#utility.yul\":1546:1553   */\n      0x00\n        /* \"#utility.yul\":1575:1599   */\n      tag_161\n        /* \"#utility.yul\":1593:1598   */\n      dup3\n        /* \"#utility.yul\":1575:1599   */\n      tag_119\n      jump\t// in\n    tag_161:\n        /* \"#utility.yul\":1564:1599   */\n      swap1\n      pop\n        /* \"#utility.yul\":1509:1605   */\n      swap2\n      swap1\n      pop\n      jump\t// out\n        /* \"#utility.yul\":1611:1729   */\n    tag_121:\n        /* \"#utility.yul\":1698:1722   */\n      tag_163\n        /* \"#utility.yul\":1716:1721   */\n      dup2\n        /* \"#utility.yul\":1698:1722   */\n      tag_120\n      jump\t// in\n    tag_163:\n        /* \"#utility.yul\":1693:1696   */\n      dup3\n        /* \"#utility.yul\":1686:1723   */\n      mstore\n        /* \"#utility.yul\":1611:1729   */\n      pop\n      pop\n      jump\t// out\n        /* \"#utility.yul\":1735:1957   */\n    tag_36:\n        /* \"#utility.yul\":1828:1832   */\n      0x00\n        /* \"#utility.yul\":1866:1868   */\n      0x20\n        /* \"#utility.yul\":1855:1864   */\n      dup3\n        /* \"#utility.yul\":1851:1869   */\n      add\n        /* \"#utility.yul\":1843:1869   */\n      swap1\n      pop\n        /* \"#utility.yul\":1879:1950   */\n      tag_165\n        /* \"#utility.yul\":1947:1948   */\n      0x00\n        /* \"#utility.yul\":1936:1945   */\n      dup4\n        /* \"#utility.yul\":1932:1949   */\n      add\n        /* \"#utility.yul\":1923:1929   */\n      dup5\n        /* \"#utility.yul\":1879:1950   */\n      tag_121\n      jump\t// in\n    tag_165:\n        /* \"#utility.yul\":1735:1957   */\n      swap3\n      swap2\n      pop\n      pop\n      jump\t// out\n        /* \"#utility.yul\":1963:2085   */\n    tag_122:\n        /* \"#utility.yul\":2036:2060   */\n      tag_167\n        /* \"#utility.yul\":2054:2059   */\n      dup2\n        /* \"#utility.yul\":2036:2060   */\n      tag_120\n      jump\t// in\n    tag_167:\n        /* \"#utility.yul\":2029:2034   */\n      dup2\n        /* \"#utility.yul\":2026:2061   */\n      eq\n        /* \"#utility.yul\":2016:2079   */\n      tag_168\n      jumpi\n        /* \"#utility.yul\":2075:2076   */\n      0x00\n        /* \"#utility.yul\":2072:2073   */\n      0x00\n        /* \"#utility.yul\":2065:2077   */\n      revert\n        /* \"#utility.yul\":2016:2079   */\n    tag_168:\n        /* \"#utility.yul\":1963:2085   */\n      pop\n      jump\t// out\n        /* \"#utility.yul\":2091:2230   */\n    tag_123:\n        /* \"#utility.yul\":2137:2142   */\n      0x00\n        /* \"#utility.yul\":2175:2181   */\n      dup2\n        /* \"#utility.yul\":2162:2182   */\n      calldataload\n        /* \"#utility.yul\":2153:2182   */\n      swap1\n      pop\n        /* \"#utility.yul\":2191:2224   */\n      tag_170\n        /* \"#utility.yul\":2218:2223   */\n      dup2\n        /* \"#utility.yul\":2191:2224   */\n      tag_122\n      jump\t// in\n    tag_170:\n        /* \"#utility.yul\":2091:2230   */\n      swap3\n      swap2\n      pop\n      pop\n      jump\t// out\n        /* \"#utility.yul\":2236:2855   */\n    tag_44:\n        /* \"#utility.yul\":2313:2319   */\n      0x00\n        /* \"#utility.yul\":2321:2327   */\n      0x00\n        /* \"#utility.yul\":2329:2335   */\n      0x00\n        /* \"#utility.yul\":2378:2380   */\n      0x60\n        /* \"#utility.yul\":2366:2375   */\n      dup5\n        /* \"#utility.yul\":2357:2364   */\n      dup7\n        /* \"#utility.yul\":2353:2376   */\n      sub\n        /* \"#utility.yul\":2349:2381   */\n      slt\n        /* \"#utility.yul\":2346:2465   */\n      iszero\n      tag_172\n      jumpi\n        /* \"#utility.yul\":2384:2463   */\n      tag_173\n      tag_115\n      jump\t// in\n    tag_173:\n        /* \"#utility.yul\":2346:2465   */\n    tag_172:\n        /* \"#utility.yul\":2504:2505   */\n      0x00\n        /* \"#utility.yul\":2529:2582   */\n      tag_174\n        /* \"#utility.yul\":2574:2581   */\n      dup7\n        /* \"#utility.yul\":2565:2571   */\n      dup3\n        /* \"#utility.yul\":2554:2563   */\n      dup8\n        /* \"#utility.yul\":2550:2572   */\n      add\n        /* \"#utility.yul\":2529:2582   */\n      tag_123\n      jump\t// in\n    tag_174:\n        /* \"#utility.yul\":2519:2582   */\n      swap4\n      pop\n        /* \"#utility.yul\":2475:2592   */\n      pop\n        /* \"#utility.yul\":2631:2633   */\n      0x20\n        /* \"#utility.yul\":2657:2710   */\n      tag_175\n        /* \"#utility.yul\":2702:2709   */\n      dup7\n        /* \"#utility.yul\":2693:2699   */\n      dup3\n        /* \"#utility.yul\":2682:2691   */\n      dup8\n        /* \"#utility.yul\":2678:2700   */\n      add\n        /* \"#utility.yul\":2657:2710   */\n      tag_118\n      jump\t// in\n    tag_175:\n        /* \"#utility.yul\":2647:2710   */\n      swap3\n      pop\n        /* \"#utility.yul\":2602:2720   */\n      pop\n        /* \"#utility.yul\":2759:2761   */\n      0x40\n        /* \"#utility.yul\":2785:2838   */\n      tag_176\n        /* \"#utility.yul\":2830:2837   */\n      dup7\n        /* \"#utility.yul\":2821:2827   */\n      dup3\n        /* \"#utility.yul\":2810:2819   */\n      dup8\n        /* \"#utility.yul\":2806:2828   */\n      add\n        /* \"#utility.yul\":2785:2838   */\n      tag_118\n      jump\t// in\n    tag_176:\n        /* \"#utility.yul\":2775:2838   */\n      swap2\n      pop\n        /* \"#utility.yul\":2730:2848   */\n      pop\n        /* \"#utility.yul\":2236:2855   */\n      swap3\n      pop\n      swap3\n      pop\n      swap3\n      jump\t// out\n        /* \"#utility.yul\":2861:2951   */\n    tag_124:\n        /* \"#utility.yul\":2895:2902   */\n      0x00\n        /* \"#utility.yul\":2938:2943   */\n      dup2\n        /* \"#utility.yul\":2931:2944   */\n      iszero\n        /* \"#utility.yul\":2924:2945   */\n      iszero\n        /* \"#utility.yul\":2913:2945   */\n      swap1\n      pop\n        /* \"#utility.yul\":2861:2951   */\n      swap2\n      swap1\n      pop\n      jump\t// out\n        /* \"#utility.yul\":2957:3066   */\n    tag_125:\n        /* \"#utility.yul\":3038:3059   */\n      tag_179\n        /* \"#utility.yul\":3053:3058   */\n      dup2\n        /* \"#utility.yul\":3038:3059   */\n      tag_124\n      jump\t// in\n    tag_179:\n        /* \"#utility.yul\":3033:3036   */\n      dup3\n        /* \"#utility.yul\":3026:3060   */\n      mstore\n        /* \"#utility.yul\":2957:3066   */\n      pop\n      pop\n      jump\t// out\n        /* \"#utility.yul\":3072:3724   */\n    tag_51:\n        /* \"#utility.yul\":3271:3275   */\n      0x00\n        /* \"#utility.yul\":3309:3312   */\n      0xa0\n        /* \"#utility.yul\":3298:3307   */\n      dup3\n        /* \"#utility.yul\":3294:3313   */\n      add\n        /* \"#utility.yul\":3286:3313   */\n      swap1\n      pop\n        /* \"#utility.yul\":3323:3394   */\n      tag_181\n        /* \"#utility.yul\":3391:3392   */\n      0x00\n        /* \"#utility.yul\":3380:3389   */\n      dup4\n        /* \"#utility.yul\":3376:3393   */\n      add\n        /* \"#utility.yul\":3367:3373   */\n      dup9\n        /* \"#utility.yul\":3323:3394   */\n      tag_121\n      jump\t// in\n    tag_181:\n        /* \"#utility.yul\":3404:3476   */\n      tag_182\n        /* \"#utility.yul\":3472:3474   */\n      0x20\n        /* \"#utility.yul\":3461:3470   */\n      dup4\n        /* \"#utility.yul\":3457:3475   */\n      add\n        /* \"#utility.yul\":3448:3454   */\n      dup8\n        /* \"#utility.yul\":3404:3476   */\n      tag_121\n      jump\t// in\n    tag_182:\n        /* \"#utility.yul\":3486:3558   */\n      tag_183\n        /* \"#utility.yul\":3554:3556   */\n      0x40\n        /* \"#utility.yul\":3543:3552   */\n      dup4\n        /* \"#utility.yul\":3539:3557   */\n      add\n        /* \"#utility.yul\":3530:3536   */\n      dup7\n        /* \"#utility.yul\":3486:3558   */\n      tag_113\n      jump\t// in\n    tag_183:\n        /* \"#utility.yul\":3568:3640   */\n      tag_184\n        /* \"#utility.yul\":3636:3638   */\n      0x60\n        /* \"#utility.yul\":3625:3634   */\n      dup4\n        /* \"#utility.yul\":3621:3639   */\n      add\n        /* \"#utility.yul\":3612:3618   */\n      dup6\n        /* \"#utility.yul\":3568:3640   */\n      tag_113\n      jump\t// in\n    tag_184:\n        /* \"#utility.yul\":3650:3717   */\n      tag_185\n        /* \"#utility.yul\":3712:3715   */\n      0x80\n        /* \"#utility.yul\":3701:3710   */\n      dup4\n        /* \"#utility.yul\":3697:3716   */\n      add\n        /* \"#utility.yul\":3688:3694   */\n      dup5\n        /* \"#utility.yul\":3650:3717   */\n      tag_125\n      jump\t// in\n    tag_185:\n        /* \"#utility.yul\":3072:3724   */\n      swap7\n      swap6\n      pop\n      pop\n      pop\n      pop\n      pop\n      pop\n      jump\t// out\n        /* \"#utility.yul\":3730:3899   */\n    tag_126:\n        /* \"#utility.yul\":3814:3825   */\n      0x00\n        /* \"#utility.yul\":3848:3854   */\n      dup3\n        /* \"#utility.yul\":3843:3846   */\n      dup3\n        /* \"#utility.yul\":3836:3855   */\n      mstore\n        /* \"#utility.yul\":3888:3892   */\n      0x20\n        /* \"#utility.yul\":3883:3886   */\n      dup3\n        /* \"#utility.yul\":3879:3893   */\n      add\n        /* \"#utility.yul\":3864:3893   */\n      swap1\n      pop\n        /* \"#utility.yul\":3730:3899   */\n      swap3\n      swap2\n      pop\n      pop\n      jump\t// out\n        /* \"#utility.yul\":3905:4130   */\n    tag_127:\n        /* \"#utility.yul\":4045:4079   */\n      0x4f6e6c79207468652073656c6c65722063616e2063616e63656c20746865206c\n        /* \"#utility.yul\":4041:4042   */\n      0x00\n        /* \"#utility.yul\":4033:4039   */\n      dup3\n        /* \"#utility.yul\":4029:4043   */\n      add\n        /* \"#utility.yul\":4022:4080   */\n      mstore\n        /* \"#utility.yul\":4114:4122   */\n      0x697374696e670000000000000000000000000000000000000000000000000000\n        /* \"#utility.yul\":4109:4111   */\n      0x20\n        /* \"#utility.yul\":4101:4107   */\n      dup3\n        /* \"#utility.yul\":4097:4112   */\n      add\n        /* \"#utility.yul\":4090:4123   */\n      mstore\n        /* \"#utility.yul\":3905:4130   */\n      pop\n      jump\t// out\n        /* \"#utility.yul\":4136:4502   */\n    tag_128:\n        /* \"#utility.yul\":4278:4281   */\n      0x00\n        /* \"#utility.yul\":4299:4366   */\n      tag_189\n        /* \"#utility.yul\":4363:4365   */\n      0x26\n        /* \"#utility.yul\":4358:4361   */\n      dup4\n        /* \"#utility.yul\":4299:4366   */\n      tag_126\n      jump\t// in\n    tag_189:\n        /* \"#utility.yul\":4292:4366   */\n      swap2\n      pop\n        /* \"#utility.yul\":4375:4468   */\n      tag_190\n        /* \"#utility.yul\":4464:4467   */\n      dup3\n        /* \"#utility.yul\":4375:4468   */\n      tag_127\n      jump\t// in\n    tag_190:\n        /* \"#utility.yul\":4493:4495   */\n      0x40\n        /* \"#utility.yul\":4488:4491   */\n      dup3\n        /* \"#utility.yul\":4484:4496   */\n      add\n        /* \"#utility.yul\":4477:4496   */\n      swap1\n      pop\n        /* \"#utility.yul\":4136:4502   */\n      swap2\n      swap1\n      pop\n      jump\t// out\n        /* \"#utility.yul\":4508:4927   */\n    tag_55:\n        /* \"#utility.yul\":4674:4678   */\n      0x00\n        /* \"#utility.yul\":4712:4714   */\n      0x20\n        /* \"#utility.yul\":4701:4710   */\n      dup3\n        /* \"#utility.yul\":4697:4715   */\n      add\n        /* \"#utility.yul\":4689:4715   */\n      swap1\n      pop\n        /* \"#utility.yul\":4761:4770   */\n      dup2\n        /* \"#utility.yul\":4755:4759   */\n      dup2\n        /* \"#utility.yul\":4751:4771   */\n      sub\n        /* \"#utility.yul\":4747:4748   */\n      0x00\n        /* \"#utility.yul\":4736:4745   */\n      dup4\n        /* \"#utility.yul\":4732:4749   */\n      add\n        /* \"#utility.yul\":4725:4772   */\n      mstore\n        /* \"#utility.yul\":4789:4920   */\n      tag_192\n        /* \"#utility.yul\":4915:4919   */\n      dup2\n        /* \"#utility.yul\":4789:4920   */\n      tag_128\n      jump\t// in\n    tag_192:\n        /* \"#utility.yul\":4781:4920   */\n      swap1\n      pop\n        /* \"#utility.yul\":4508:4927   */\n      swap2\n      swap1\n      pop\n      jump\t// out\n        /* \"#utility.yul\":4933:5102   */\n    tag_129:\n        /* \"#utility.yul\":5073:5094   */\n      0x4e465420697320616c726561647920736f6c6400000000000000000000000000\n        /* \"#utility.yul\":5069:5070   */\n      0x00\n        /* \"#utility.yul\":5061:5067   */\n      dup3\n        /* \"#utility.yul\":5057:5071   */\n      add\n        /* \"#utility.yul\":5050:5095   */\n      mstore\n        /* \"#utility.yul\":4933:5102   */\n      pop\n      jump\t// out\n        /* \"#utility.yul\":5108:5474   */\n    tag_130:\n        /* \"#utility.yul\":5250:5253   */\n      0x00\n        /* \"#utility.yul\":5271:5338   */\n      tag_195\n        /* \"#utility.yul\":5335:5337   */\n      0x13\n        /* \"#utility.yul\":5330:5333   */\n      dup4\n        /* \"#utility.yul\":5271:5338   */\n      tag_126\n      jump\t// in\n    tag_195:\n        /* \"#utility.yul\":5264:5338   */\n      swap2\n      pop\n        /* \"#utility.yul\":5347:5440   */\n      tag_196\n        /* \"#utility.yul\":5436:5439   */\n      dup3\n        /* \"#utility.yul\":5347:5440   */\n      tag_129\n      jump\t// in\n    tag_196:\n        /* \"#utility.yul\":5465:5467   */\n      0x20\n        /* \"#utility.yul\":5460:5463   */\n      dup3\n        /* \"#utility.yul\":5456:5468   */\n      add\n        /* \"#utility.yul\":5449:5468   */\n      swap1\n      pop\n        /* \"#utility.yul\":5108:5474   */\n      swap2\n      swap1\n      pop\n      jump\t// out\n        /* \"#utility.yul\":5480:5899   */\n    tag_58:\n        /* \"#utility.yul\":5646:5650   */\n      0x00\n        /* \"#utility.yul\":5684:5686   */\n      0x20\n        /* \"#utility.yul\":5673:5682   */\n      dup3\n        /* \"#utility.yul\":5669:5687   */\n      add\n        /* \"#utility.yul\":5661:5687   */\n      swap1\n      pop\n        /* \"#utility.yul\":5733:5742   */\n      dup2\n        /* \"#utility.yul\":5727:5731   */\n      dup2\n        /* \"#utility.yul\":5723:5743   */\n      sub\n        /* \"#utility.yul\":5719:5720   */\n      0x00\n        /* \"#utility.yul\":5708:5717   */\n      dup4\n        /* \"#utility.yul\":5704:5721   */\n      add\n        /* \"#utility.yul\":5697:5744   */\n      mstore\n        /* \"#utility.yul\":5761:5892   */\n      tag_198\n        /* \"#utility.yul\":5887:5891   */\n      dup2\n        /* \"#utility.yul\":5761:5892   */\n      tag_130\n      jump\t// in\n    tag_198:\n        /* \"#utility.yul\":5753:5892   */\n      swap1\n      pop\n        /* \"#utility.yul\":5480:5899   */\n      swap2\n      swap1\n      pop\n      jump\t// out\n        /* \"#utility.yul\":5905:6347   */\n    tag_60:\n        /* \"#utility.yul\":6054:6058   */\n      0x00\n        /* \"#utility.yul\":6092:6094   */\n      0x60\n        /* \"#utility.yul\":6081:6090   */\n      dup3\n        /* \"#utility.yul\":6077:6095   */\n      add\n        /* \"#utility.yul\":6069:6095   */\n      swap1\n      pop\n        /* \"#utility.yul\":6105:6176   */\n      tag_200\n        /* \"#utility.yul\":6173:6174   */\n      0x00\n        /* \"#utility.yul\":6162:6171   */\n      dup4\n        /* \"#utility.yul\":6158:6175   */\n      add\n        /* \"#utility.yul\":6149:6155   */\n      dup7\n        /* \"#utility.yul\":6105:6176   */\n      tag_121\n      jump\t// in\n    tag_200:\n        /* \"#utility.yul\":6186:6258   */\n      tag_201\n        /* \"#utility.yul\":6254:6256   */\n      0x20\n        /* \"#utility.yul\":6243:6252   */\n      dup4\n        /* \"#utility.yul\":6239:6257   */\n      add\n        /* \"#utility.yul\":6230:6236   */\n      dup6\n        /* \"#utility.yul\":6186:6258   */\n      tag_121\n      jump\t// in\n    tag_201:\n        /* \"#utility.yul\":6268:6340   */\n      tag_202\n        /* \"#utility.yul\":6336:6338   */\n      0x40\n        /* \"#utility.yul\":6325:6334   */\n      dup4\n        /* \"#utility.yul\":6321:6339   */\n      add\n        /* \"#utility.yul\":6312:6318   */\n      dup5\n        /* \"#utility.yul\":6268:6340   */\n      tag_113\n      jump\t// in\n    tag_202:\n        /* \"#utility.yul\":5905:6347   */\n      swap5\n      swap4\n      pop\n      pop\n      pop\n      pop\n      jump\t// out\n        /* \"#utility.yul\":6353:6574   */\n    tag_131:\n        /* \"#utility.yul\":6493:6527   */\n      0x4f6e6c79206f776e65722063616e20706572666f726d20746869732061637469\n        /* \"#utility.yul\":6489:6490   */\n      0x00\n        /* \"#utility.yul\":6481:6487   */\n      dup3\n        /* \"#utility.yul\":6477:6491   */\n      add\n        /* \"#utility.yul\":6470:6528   */\n      mstore\n        /* \"#utility.yul\":6562:6566   */\n      0x6f6e000000000000000000000000000000000000000000000000000000000000\n        /* \"#utility.yul\":6557:6559   */\n      0x20\n        /* \"#utility.yul\":6549:6555   */\n      dup3\n        /* \"#utility.yul\":6545:6560   */\n      add\n        /* \"#utility.yul\":6538:6567   */\n      mstore\n        /* \"#utility.yul\":6353:6574   */\n      pop\n      jump\t// out\n        /* \"#utility.yul\":6580:6946   */\n    tag_132:\n        /* \"#utility.yul\":6722:6725   */\n      0x00\n        /* \"#utility.yul\":6743:6810   */\n      tag_205\n        /* \"#utility.yul\":6807:6809   */\n      0x22\n        /* \"#utility.yul\":6802:6805   */\n      dup4\n        /* \"#utility.yul\":6743:6810   */\n      tag_126\n      jump\t// in\n    tag_205:\n        /* \"#utility.yul\":6736:6810   */\n      swap2\n      pop\n        /* \"#utility.yul\":6819:6912   */\n      tag_206\n        /* \"#utility.yul\":6908:6911   */\n      dup3\n        /* \"#utility.yul\":6819:6912   */\n      tag_131\n      jump\t// in\n    tag_206:\n        /* \"#utility.yul\":6937:6939   */\n      0x40\n        /* \"#utility.yul\":6932:6935   */\n      dup3\n        /* \"#utility.yul\":6928:6940   */\n      add\n        /* \"#utility.yul\":6921:6940   */\n      swap1\n      pop\n        /* \"#utility.yul\":6580:6946   */\n      swap2\n      swap1\n      pop\n      jump\t// out\n        /* \"#utility.yul\":6952:7371   */\n    tag_67:\n        /* \"#utility.yul\":7118:7122   */\n      0x00\n        /* \"#utility.yul\":7156:7158   */\n      0x20\n        /* \"#utility.yul\":7145:7154   */\n      dup3\n        /* \"#utility.yul\":7141:7159   */\n      add\n        /* \"#utility.yul\":7133:7159   */\n      swap1\n      pop\n        /* \"#utility.yul\":7205:7214   */\n      dup2\n        /* \"#utility.yul\":7199:7203   */\n      dup2\n        /* \"#utility.yul\":7195:7215   */\n      sub\n        /* \"#utility.yul\":7191:7192   */\n      0x00\n        /* \"#utility.yul\":7180:7189   */\n      dup4\n        /* \"#utility.yul\":7176:7193   */\n      add\n        /* \"#utility.yul\":7169:7216   */\n      mstore\n        /* \"#utility.yul\":7233:7364   */\n      tag_208\n        /* \"#utility.yul\":7359:7363   */\n      dup2\n        /* \"#utility.yul\":7233:7364   */\n      tag_132\n      jump\t// in\n    tag_208:\n        /* \"#utility.yul\":7225:7364   */\n      swap1\n      pop\n        /* \"#utility.yul\":6952:7371   */\n      swap2\n      swap1\n      pop\n      jump\t// out\n        /* \"#utility.yul\":7377:7547   */\n    tag_133:\n        /* \"#utility.yul\":7517:7539   */\n      0x496e73756666696369656e74207061796d656e74000000000000000000000000\n        /* \"#utility.yul\":7513:7514   */\n      0x00\n        /* \"#utility.yul\":7505:7511   */\n      dup3\n        /* \"#utility.yul\":7501:7515   */\n      add\n        /* \"#utility.yul\":7494:7540   */\n      mstore\n        /* \"#utility.yul\":7377:7547   */\n      pop\n      jump\t// out\n        /* \"#utility.yul\":7553:7919   */\n    tag_134:\n        /* \"#utility.yul\":7695:7698   */\n      0x00\n        /* \"#utility.yul\":7716:7783   */\n      tag_211\n        /* \"#utility.yul\":7780:7782   */\n      0x14\n        /* \"#utility.yul\":7775:7778   */\n      dup4\n        /* \"#utility.yul\":7716:7783   */\n      tag_126\n      jump\t// in\n    tag_211:\n        /* \"#utility.yul\":7709:7783   */\n      swap2\n      pop\n        /* \"#utility.yul\":7792:7885   */\n      tag_212\n        /* \"#utility.yul\":7881:7884   */\n      dup3\n        /* \"#utility.yul\":7792:7885   */\n      tag_133\n      jump\t// in\n    tag_212:\n        /* \"#utility.yul\":7910:7912   */\n      0x20\n        /* \"#utility.yul\":7905:7908   */\n      dup3\n        /* \"#utility.yul\":7901:7913   */\n      add\n        /* \"#utility.yul\":7894:7913   */\n      swap1\n      pop\n        /* \"#utility.yul\":7553:7919   */\n      swap2\n      swap1\n      pop\n      jump\t// out\n        /* \"#utility.yul\":7925:8344   */\n    tag_76:\n        /* \"#utility.yul\":8091:8095   */\n      0x00\n        /* \"#utility.yul\":8129:8131   */\n      0x20\n        /* \"#utility.yul\":8118:8127   */\n      dup3\n        /* \"#utility.yul\":8114:8132   */\n      add\n        /* \"#utility.yul\":8106:8132   */\n      swap1\n      pop\n        /* \"#utility.yul\":8178:8187   */\n      dup2\n        /* \"#utility.yul\":8172:8176   */\n      dup2\n        /* \"#utility.yul\":8168:8188   */\n      sub\n        /* \"#utility.yul\":8164:8165   */\n      0x00\n        /* \"#utility.yul\":8153:8162   */\n      dup4\n        /* \"#utility.yul\":8149:8166   */\n      add\n        /* \"#utility.yul\":8142:8189   */\n      mstore\n        /* \"#utility.yul\":8206:8337   */\n      tag_214\n        /* \"#utility.yul\":8332:8336   */\n      dup2\n        /* \"#utility.yul\":8206:8337   */\n      tag_134\n      jump\t// in\n    tag_214:\n        /* \"#utility.yul\":8198:8337   */\n      swap1\n      pop\n        /* \"#utility.yul\":7925:8344   */\n      swap2\n      swap1\n      pop\n      jump\t// out\n        /* \"#utility.yul\":8350:8530   */\n    tag_135:\n        /* \"#utility.yul\":8398:8475   */\n      0x4e487b7100000000000000000000000000000000000000000000000000000000\n        /* \"#utility.yul\":8395:8396   */\n      0x00\n        /* \"#utility.yul\":8388:8476   */\n      mstore\n        /* \"#utility.yul\":8495:8499   */\n      0x11\n        /* \"#utility.yul\":8492:8493   */\n      0x04\n        /* \"#utility.yul\":8485:8500   */\n      mstore\n        /* \"#utility.yul\":8519:8523   */\n      0x24\n        /* \"#utility.yul\":8516:8517   */\n      0x00\n        /* \"#utility.yul\":8509:8524   */\n      revert\n        /* \"#utility.yul\":8536:8946   */\n    tag_78:\n        /* \"#utility.yul\":8576:8583   */\n      0x00\n        /* \"#utility.yul\":8599:8619   */\n      tag_217\n        /* \"#utility.yul\":8617:8618   */\n      dup3\n        /* \"#utility.yul\":8599:8619   */\n      tag_112\n      jump\t// in\n    tag_217:\n        /* \"#utility.yul\":8594:8619   */\n      swap2\n      pop\n        /* \"#utility.yul\":8633:8653   */\n      tag_218\n        /* \"#utility.yul\":8651:8652   */\n      dup4\n        /* \"#utility.yul\":8633:8653   */\n      tag_112\n      jump\t// in\n    tag_218:\n        /* \"#utility.yul\":8628:8653   */\n      swap3\n      pop\n        /* \"#utility.yul\":8688:8689   */\n      dup3\n        /* \"#utility.yul\":8685:8686   */\n      dup3\n        /* \"#utility.yul\":8681:8690   */\n      mul\n        /* \"#utility.yul\":8710:8740   */\n      tag_219\n        /* \"#utility.yul\":8728:8739   */\n      dup2\n        /* \"#utility.yul\":8710:8740   */\n      tag_112\n      jump\t// in\n    tag_219:\n        /* \"#utility.yul\":8699:8740   */\n      swap2\n      pop\n        /* \"#utility.yul\":8889:8890   */\n      dup3\n        /* \"#utility.yul\":8880:8887   */\n      dup3\n        /* \"#utility.yul\":8876:8891   */\n      div\n        /* \"#utility.yul\":8873:8874   */\n      dup5\n        /* \"#utility.yul\":8870:8892   */\n      eq\n        /* \"#utility.yul\":8850:8851   */\n      dup4\n        /* \"#utility.yul\":8843:8852   */\n      iszero\n        /* \"#utility.yul\":8823:8906   */\n      or\n        /* \"#utility.yul\":8800:8939   */\n      tag_220\n      jumpi\n        /* \"#utility.yul\":8919:8937   */\n      tag_221\n      tag_135\n      jump\t// in\n    tag_221:\n        /* \"#utility.yul\":8800:8939   */\n    tag_220:\n        /* \"#utility.yul\":8584:8946   */\n      pop\n        /* \"#utility.yul\":8536:8946   */\n      swap3\n      swap2\n      pop\n      pop\n      jump\t// out\n        /* \"#utility.yul\":8952:9132   */\n    tag_136:\n        /* \"#utility.yul\":9000:9077   */\n      0x4e487b7100000000000000000000000000000000000000000000000000000000\n        /* \"#utility.yul\":8997:8998   */\n      0x00\n        /* \"#utility.yul\":8990:9078   */\n      mstore\n        /* \"#utility.yul\":9097:9101   */\n      0x12\n        /* \"#utility.yul\":9094:9095   */\n      0x04\n        /* \"#utility.yul\":9087:9102   */\n      mstore\n        /* \"#utility.yul\":9121:9125   */\n      0x24\n        /* \"#utility.yul\":9118:9119   */\n      0x00\n        /* \"#utility.yul\":9111:9126   */\n      revert\n        /* \"#utility.yul\":9138:9323   */\n    tag_80:\n        /* \"#utility.yul\":9178:9179   */\n      0x00\n        /* \"#utility.yul\":9195:9215   */\n      tag_224\n        /* \"#utility.yul\":9213:9214   */\n      dup3\n        /* \"#utility.yul\":9195:9215   */\n      tag_112\n      jump\t// in\n    tag_224:\n        /* \"#utility.yul\":9190:9215   */\n      swap2\n      pop\n        /* \"#utility.yul\":9229:9249   */\n      tag_225\n        /* \"#utility.yul\":9247:9248   */\n      dup4\n        /* \"#utility.yul\":9229:9249   */\n      tag_112\n      jump\t// in\n    tag_225:\n        /* \"#utility.yul\":9224:9249   */\n      swap3\n      pop\n        /* \"#utility.yul\":9268:9269   */\n      dup3\n        /* \"#utility.yul\":9258:9293   */\n      tag_226\n      jumpi\n        /* \"#utility.yul\":9273:9291   */\n      tag_227\n      tag_136\n      jump\t// in\n    tag_227:\n        /* \"#utility.yul\":9258:9293   */\n    tag_226:\n        /* \"#utility.yul\":9315:9316   */\n      dup3\n        /* \"#utility.yul\":9312:9313   */\n      dup3\n        /* \"#utility.yul\":9308:9317   */\n      div\n        /* \"#utility.yul\":9303:9317   */\n      swap1\n      pop\n        /* \"#utility.yul\":9138:9323   */\n      swap3\n      swap2\n      pop\n      pop\n      jump\t// out\n        /* \"#utility.yul\":9329:9523   */\n    tag_82:\n        /* \"#utility.yul\":9369:9373   */\n      0x00\n        /* \"#utility.yul\":9389:9409   */\n      tag_229\n        /* \"#utility.yul\":9407:9408   */\n      dup3\n        /* \"#utility.yul\":9389:9409   */\n      tag_112\n      jump\t// in\n    tag_229:\n        /* \"#utility.yul\":9384:9409   */\n      swap2\n      pop\n        /* \"#utility.yul\":9423:9443   */\n      tag_230\n        /* \"#utility.yul\":9441:9442   */\n      dup4\n        /* \"#utility.yul\":9423:9443   */\n      tag_112\n      jump\t// in\n    tag_230:\n        /* \"#utility.yul\":9418:9443   */\n      swap3\n      pop\n        /* \"#utility.yul\":9467:9468   */\n      dup3\n        /* \"#utility.yul\":9464:9465   */\n      dup3\n        /* \"#utility.yul\":9460:9469   */\n      sub\n        /* \"#utility.yul\":9452:9469   */\n      swap1\n      pop\n        /* \"#utility.yul\":9491:9492   */\n      dup2\n        /* \"#utility.yul\":9485:9489   */\n      dup2\n        /* \"#utility.yul\":9482:9493   */\n      gt\n        /* \"#utility.yul\":9479:9516   */\n      iszero\n      tag_231\n      jumpi\n        /* \"#utility.yul\":9496:9514   */\n      tag_232\n      tag_135\n      jump\t// in\n    tag_232:\n        /* \"#utility.yul\":9479:9516   */\n    tag_231:\n        /* \"#utility.yul\":9329:9523   */\n      swap3\n      swap2\n      pop\n      pop\n      jump\t// out\n        /* \"#utility.yul\":9529:9971   */\n    tag_92:\n        /* \"#utility.yul\":9678:9682   */\n      0x00\n        /* \"#utility.yul\":9716:9718   */\n      0x60\n        /* \"#utility.yul\":9705:9714   */\n      dup3\n        /* \"#utility.yul\":9701:9719   */\n      add\n        /* \"#utility.yul\":9693:9719   */\n      swap1\n      pop\n        /* \"#utility.yul\":9729:9800   */\n      tag_234\n        /* \"#utility.yul\":9797:9798   */\n      0x00\n        /* \"#utility.yul\":9786:9795   */\n      dup4\n        /* \"#utility.yul\":9782:9799   */\n      add\n        /* \"#utility.yul\":9773:9779   */\n      dup7\n        /* \"#utility.yul\":9729:9800   */\n      tag_113\n      jump\t// in\n    tag_234:\n        /* \"#utility.yul\":9810:9882   */\n      tag_235\n        /* \"#utility.yul\":9878:9880   */\n      0x20\n        /* \"#utility.yul\":9867:9876   */\n      dup4\n        /* \"#utility.yul\":9863:9881   */\n      add\n        /* \"#utility.yul\":9854:9860   */\n      dup6\n        /* \"#utility.yul\":9810:9882   */\n      tag_121\n      jump\t// in\n    tag_235:\n        /* \"#utility.yul\":9892:9964   */\n      tag_236\n        /* \"#utility.yul\":9960:9962   */\n      0x40\n        /* \"#utility.yul\":9949:9958   */\n      dup4\n        /* \"#utility.yul\":9945:9963   */\n      add\n        /* \"#utility.yul\":9936:9942   */\n      dup5\n        /* \"#utility.yul\":9892:9964   */\n      tag_113\n      jump\t// in\n    tag_236:\n        /* \"#utility.yul\":9529:9971   */\n      swap5\n      swap4\n      pop\n      pop\n      pop\n      pop\n      jump\t// out\n        /* \"#utility.yul\":9977:10138   */\n    tag_137:\n        /* \"#utility.yul\":10117:10130   */\n      0x496e76616c696420666565000000000000000000000000000000000000000000\n        /* \"#utility.yul\":10113:10114   */\n      0x00\n        /* \"#utility.yul\":10105:10111   */\n      dup3\n        /* \"#utility.yul\":10101:10115   */\n      add\n        /* \"#utility.yul\":10094:10131   */\n      mstore\n        /* \"#utility.yul\":9977:10138   */\n      pop\n      jump\t// out\n        /* \"#utility.yul\":10144:10510   */\n    tag_138:\n        /* \"#utility.yul\":10286:10289   */\n      0x00\n        /* \"#utility.yul\":10307:10374   */\n      tag_239\n        /* \"#utility.yul\":10371:10373   */\n      0x0b\n        /* \"#utility.yul\":10366:10369   */\n      dup4\n        /* \"#utility.yul\":10307:10374   */\n      tag_126\n      jump\t// in\n    tag_239:\n        /* \"#utility.yul\":10300:10374   */\n      swap2\n      pop\n        /* \"#utility.yul\":10383:10476   */\n      tag_240\n        /* \"#utility.yul\":10472:10475   */\n      dup3\n        /* \"#utility.yul\":10383:10476   */\n      tag_137\n      jump\t// in\n    tag_240:\n        /* \"#utility.yul\":10501:10503   */\n      0x20\n        /* \"#utility.yul\":10496:10499   */\n      dup3\n        /* \"#utility.yul\":10492:10504   */\n      add\n        /* \"#utility.yul\":10485:10504   */\n      swap1\n      pop\n        /* \"#utility.yul\":10144:10510   */\n      swap2\n      swap1\n      pop\n      jump\t// out\n        /* \"#utility.yul\":10516:10935   */\n    tag_99:\n        /* \"#utility.yul\":10682:10686   */\n      0x00\n        /* \"#utility.yul\":10720:10722   */\n      0x20\n        /* \"#utility.yul\":10709:10718   */\n      dup3\n        /* \"#utility.yul\":10705:10723   */\n      add\n        /* \"#utility.yul\":10697:10723   */\n      swap1\n      pop\n        /* \"#utility.yul\":10769:10778   */\n      dup2\n        /* \"#utility.yul\":10763:10767   */\n      dup2\n        /* \"#utility.yul\":10759:10779   */\n      sub\n        /* \"#utility.yul\":10755:10756   */\n      0x00\n        /* \"#utility.yul\":10744:10753   */\n      dup4\n        /* \"#utility.yul\":10740:10757   */\n      add\n        /* \"#utility.yul\":10733:10780   */\n      mstore\n        /* \"#utility.yul\":10797:10928   */\n      tag_242\n        /* \"#utility.yul\":10923:10927   */\n      dup2\n        /* \"#utility.yul\":10797:10928   */\n      tag_138\n      jump\t// in\n    tag_242:\n        /* \"#utility.yul\":10789:10928   */\n      swap1\n      pop\n        /* \"#utility.yul\":10516:10935   */\n      swap2\n      swap1\n      pop\n      jump\t// out\n        /* \"#utility.yul\":10941:11122   */\n    tag_139:\n        /* \"#utility.yul\":11081:11114   */\n      0x5072696365206d7573742062652067726561746572207468616e207a65726f00\n        /* \"#utility.yul\":11077:11078   */\n      0x00\n        /* \"#utility.yul\":11069:11075   */\n      dup3\n        /* \"#utility.yul\":11065:11079   */\n      add\n        /* \"#utility.yul\":11058:11115   */\n      mstore\n        /* \"#utility.yul\":10941:11122   */\n      pop\n      jump\t// out\n        /* \"#utility.yul\":11128:11494   */\n    tag_140:\n        /* \"#utility.yul\":11270:11273   */\n      0x00\n        /* \"#utility.yul\":11291:11358   */\n      tag_245\n        /* \"#utility.yul\":11355:11357   */\n      0x1f\n        /* \"#utility.yul\":11350:11353   */\n      dup4\n        /* \"#utility.yul\":11291:11358   */\n      tag_126\n      jump\t// in\n    tag_245:\n        /* \"#utility.yul\":11284:11358   */\n      swap2\n      pop\n        /* \"#utility.yul\":11367:11460   */\n      tag_246\n        /* \"#utility.yul\":11456:11459   */\n      dup3\n        /* \"#utility.yul\":11367:11460   */\n      tag_139\n      jump\t// in\n    tag_246:\n        /* \"#utility.yul\":11485:11487   */\n      0x20\n        /* \"#utility.yul\":11480:11483   */\n      dup3\n        /* \"#utility.yul\":11476:11488   */\n      add\n        /* \"#utility.yul\":11469:11488   */\n      swap1\n      pop\n        /* \"#utility.yul\":11128:11494   */\n      swap2\n      swap1\n      pop\n      jump\t// out\n        /* \"#utility.yul\":11500:11919   */\n    tag_103:\n        /* \"#utility.yul\":11666:11670   */\n      0x00\n        /* \"#utility.yul\":11704:11706   */\n      0x20\n        /* \"#utility.yul\":11693:11702   */\n      dup3\n        /* \"#utility.yul\":11689:11707   */\n      add\n        /* \"#utility.yul\":11681:11707   */\n      swap1\n      pop\n        /* \"#utility.yul\":11753:11762   */\n      dup2\n        /* \"#utility.yul\":11747:11751   */\n      dup2\n        /* \"#utility.yul\":11743:11763   */\n      sub\n        /* \"#utility.yul\":11739:11740   */\n      0x00\n        /* \"#utility.yul\":11728:11737   */\n      dup4\n        /* \"#utility.yul\":11724:11741   */\n      add\n        /* \"#utility.yul\":11717:11764   */\n      mstore\n        /* \"#utility.yul\":11781:11912   */\n      tag_248\n        /* \"#utility.yul\":11907:11911   */\n      dup2\n        /* \"#utility.yul\":11781:11912   */\n      tag_140\n      jump\t// in\n    tag_248:\n        /* \"#utility.yul\":11773:11912   */\n      swap1\n      pop\n        /* \"#utility.yul\":11500:11919   */\n      swap2\n      swap1\n      pop\n      jump\t// out\n        /* \"#utility.yul\":11925:12589   */\n    tag_109:\n        /* \"#utility.yul\":12130:12134   */\n      0x00\n        /* \"#utility.yul\":12168:12171   */\n      0xa0\n        /* \"#utility.yul\":12157:12166   */\n      dup3\n        /* \"#utility.yul\":12153:12172   */\n      add\n        /* \"#utility.yul\":12145:12172   */\n      swap1\n      pop\n        /* \"#utility.yul\":12182:12253   */\n      tag_250\n        /* \"#utility.yul\":12250:12251   */\n      0x00\n        /* \"#utility.yul\":12239:12248   */\n      dup4\n        /* \"#utility.yul\":12235:12252   */\n      add\n        /* \"#utility.yul\":12226:12232   */\n      dup9\n        /* \"#utility.yul\":12182:12253   */\n      tag_113\n      jump\t// in\n    tag_250:\n        /* \"#utility.yul\":12263:12335   */\n      tag_251\n        /* \"#utility.yul\":12331:12333   */\n      0x20\n        /* \"#utility.yul\":12320:12329   */\n      dup4\n        /* \"#utility.yul\":12316:12334   */\n      add\n        /* \"#utility.yul\":12307:12313   */\n      dup8\n        /* \"#utility.yul\":12263:12335   */\n      tag_121\n      jump\t// in\n    tag_251:\n        /* \"#utility.yul\":12345:12417   */\n      tag_252\n        /* \"#utility.yul\":12413:12415   */\n      0x40\n        /* \"#utility.yul\":12402:12411   */\n      dup4\n        /* \"#utility.yul\":12398:12416   */\n      add\n        /* \"#utility.yul\":12389:12395   */\n      dup7\n        /* \"#utility.yul\":12345:12417   */\n      tag_121\n      jump\t// in\n    tag_252:\n        /* \"#utility.yul\":12427:12499   */\n      tag_253\n        /* \"#utility.yul\":12495:12497   */\n      0x60\n        /* \"#utility.yul\":12484:12493   */\n      dup4\n        /* \"#utility.yul\":12480:12498   */\n      add\n        /* \"#utility.yul\":12471:12477   */\n      dup6\n        /* \"#utility.yul\":12427:12499   */\n      tag_113\n      jump\t// in\n    tag_253:\n        /* \"#utility.yul\":12509:12582   */\n      tag_254\n        /* \"#utility.yul\":12577:12580   */\n      0x80\n        /* \"#utility.yul\":12566:12575   */\n      dup4\n        /* \"#utility.yul\":12562:12581   */\n      add\n        /* \"#utility.yul\":12553:12559   */\n      dup5\n        /* \"#utility.yul\":12509:12582   */\n      tag_113\n      jump\t// in\n    tag_254:\n        /* \"#utility.yul\":11925:12589   */\n      swap7\n      swap6\n      pop\n      pop\n      pop\n      pop\n      pop\n      pop\n      jump\t// out\n        /* \"#utility.yul\":12595:12828   */\n    tag_111:\n        /* \"#utility.yul\":12634:12637   */\n      0x00\n        /* \"#utility.yul\":12657:12681   */\n      tag_256\n        /* \"#utility.yul\":12675:12680   */\n      dup3\n        /* \"#utility.yul\":12657:12681   */\n      tag_112\n      jump\t// in\n    tag_256:\n        /* \"#utility.yul\":12648:12681   */\n      swap2\n      pop\n        /* \"#utility.yul\":12703:12769   */\n      0xffffffffffffffffffffffffffffffffffffffffffffffffffffffffffffffff\n        /* \"#utility.yul\":12696:12701   */\n      dup3\n        /* \"#utility.yul\":12693:12770   */\n      sub\n        /* \"#utility.yul\":12690:12793   */\n      tag_257\n      jumpi\n        /* \"#utility.yul\":12773:12791   */\n      tag_258\n      tag_135\n      jump\t// in\n    tag_258:\n        /* \"#utility.yul\":12690:12793   */\n    tag_257:\n        /* \"#utility.yul\":12820:12821   */\n      0x01\n        /* \"#utility.yul\":12813:12818   */\n      dup3\n        /* \"#utility.yul\":12809:12822   */\n      add\n        /* \"#utility.yul\":12802:12822   */\n      swap1\n      pop\n        /* \"#utility.yul\":12595:12828   */\n      swap2\n      swap1\n      pop\n      jump\t// out\n\n    auxdata: 0xa26469706673582212204076a26484db8974fdfe59b4ec3e79f7f7e813bb8ac6f97821cb19900ed99a5464736f6c634300081b0033\n}\n",
				"bytecode": {
					"linkReferences": {},
					"object": "6080604052348015600e575f5ffd5b506040516112a93803806112a98339818101604052810190602e919060ab565b335f5f6101000a81548173ffffffffffffffffffffffffffffffffffffffff021916908373ffffffffffffffffffffffffffffffffffffffff160217905550806001819055505060d1565b5f5ffd5b5f819050919050565b608d81607d565b81146096575f5ffd5b50565b5f8151905060a5816086565b92915050565b5f6020828403121560bd5760bc6079565b5b5f60c8848285016099565b91505092915050565b6111cb806100de5f395ff3fe608060405260043610610085575f3560e01c80636a166964116100585780636a1669641461010d5780638da5cb5b146101375780639407ea9814610161578063ad05f1b414610189578063de74e57b146101b157610085565b80631d6a45a714610089578063305a67a8146100b35780633ccfd60b146100db57806351ed8288146100f1575b5f5ffd5b348015610094575f5ffd5b5061009d6101f1565b6040516100aa9190610b1a565b60405180910390f35b3480156100be575f5ffd5b506100d960048036038101906100d49190610b61565b6101f7565b005b3480156100e6575f5ffd5b506100ef6103bf565b005b61010b60048036038101906101069190610b61565b6104b3565b005b348015610118575f5ffd5b50610121610750565b60405161012e9190610b1a565b60405180910390f35b348015610142575f5ffd5b5061014b610756565b6040516101589190610bcb565b60405180910390f35b34801561016c575f5ffd5b5061018760048036038101906101829190610b61565b61077a565b005b348015610194575f5ffd5b506101af60048036038101906101aa9190610c0e565b610855565b005b3480156101bc575f5ffd5b506101d760048036038101906101d29190610b61565b610a86565b6040516101e8959493929190610c78565b60405180910390f35b60035481565b5f60025f8381526020019081526020015f209050805f015f9054906101000a900473ffffffffffffffffffffffffffffffffffffffff1673ffffffffffffffffffffffffffffffffffffffff163373ffffffffffffffffffffffffffffffffffffffff161461029b576040517f08c379a000000000000000000000000000000000000000000000000000000000815260040161029290610d49565b60405180910390fd5b806004015f9054906101000a900460ff16156102ec576040517f08c379a00000000000000000000000000000000000000000000000000000000081526004016102e390610db1565b60405180910390fd5b806001015f9054906101000a900473ffffffffffffffffffffffffffffffffffffffff1673ffffffffffffffffffffffffffffffffffffffff166323b872dd30835f015f9054906101000a900473ffffffffffffffffffffffffffffffffffffffff1684600201546040518463ffffffff1660e01b815260040161037293929190610dcf565b5f604051808303815f87803b158015610389575f5ffd5b505af115801561039b573d5f5f3e3d5ffd5b505050506001816004015f6101000a81548160ff0219169083151502179055505050565b5f5f9054906101000a900473ffffffffffffffffffffffffffffffffffffffff1673ffffffffffffffffffffffffffffffffffffffff163373ffffffffffffffffffffffffffffffffffffffff161461044d576040517f08c379a000000000000000000000000000000000000000000000000000000000815260040161044490610e74565b60405180910390fd5b5f5f9054906101000a900473ffffffffffffffffffffffffffffffffffffffff1673ffffffffffffffffffffffffffffffffffffffff166108fc4790811502906040515f60405180830381858888f193505050501580156104b0573d5f5f3e3d5ffd5b50565b5f60025f8381526020019081526020015f209050806004015f9054906101000a900460ff1615610518576040517f08c379a000000000000000000000000000000000000000000000000000000000815260040161050f90610db1565b60405180910390fd5b806003015434101561055f576040517f08c379a000000000000000000000000000000000000000000000000000000000815260040161055690610edc565b60405180910390fd5b5f61271060015483600301546105759190610f27565b61057f9190610f95565b90505f8183600301546105929190610fc5565b90505f5f9054906101000a900473ffffffffffffffffffffffffffffffffffffffff1673ffffffffffffffffffffffffffffffffffffffff166108fc8390811502906040515f60405180830381858888f193505050501580156105f7573d5f5f3e3d5ffd5b50825f015f9054906101000a900473ffffffffffffffffffffffffffffffffffffffff1673ffffffffffffffffffffffffffffffffffffffff166108fc8290811502906040515f60405180830381858888f1935050505015801561065d573d5f5f3e3d5ffd5b50826001015f9054906101000a900473ffffffffffffffffffffffffffffffffffffffff1673ffffffffffffffffffffffffffffffffffffffff166323b872dd303386600201546040518463ffffffff1660e01b81526004016106c293929190610dcf565b5f604051808303815f87803b1580156106d9575f5ffd5b505af11580156106eb573d5f5f3e3d5ffd5b505050506001836004015f6101000a81548160ff0219169083151502179055507fad546cba5af920bc2c64678bbd69f3d8965ac26d1b82f7ebf6f098aaa83352828433856003015460405161074293929190610ff8565b60405180910390a150505050565b60015481565b5f5f9054906101000a900473ffffffffffffffffffffffffffffffffffffffff1681565b5f5f9054906101000a900473ffffffffffffffffffffffffffffffffffffffff1673ffffffffffffffffffffffffffffffffffffffff163373ffffffffffffffffffffffffffffffffffffffff1614610808576040517f08c379a00000000000000000000000000000000000000000000000000000000081526004016107ff90610e74565b60405180910390fd5b5f81101561084b576040517f08c379a000000000000000000000000000000000000000000000000000000000815260040161084290611077565b60405180910390fd5b8060018190555050565b5f8111610897576040517f08c379a000000000000000000000000000000000000000000000000000000000815260040161088e906110df565b60405180910390fd5b8273ffffffffffffffffffffffffffffffffffffffff166323b872dd3330856040518463ffffffff1660e01b81526004016108d493929190610dcf565b5f604051808303815f87803b1580156108eb575f5ffd5b505af11580156108fd573d5f5f3e3d5ffd5b505050506040518060a001604052803373ffffffffffffffffffffffffffffffffffffffff1681526020018473ffffffffffffffffffffffffffffffffffffffff1681526020018381526020018281526020015f151581525060025f60035481526020019081526020015f205f820151815f015f6101000a81548173ffffffffffffffffffffffffffffffffffffffff021916908373ffffffffffffffffffffffffffffffffffffffff1602179055506020820151816001015f6101000a81548173ffffffffffffffffffffffffffffffffffffffff021916908373ffffffffffffffffffffffffffffffffffffffff16021790555060408201518160020155606082015181600301556080820151816004015f6101000a81548160ff0219169083151502179055509050507fb0fe4922ac99799c17a4130d5c045ba2ecdf6e15b75b9ea84aaf0dc28724a42b60035433858585604051610a629594939291906110fd565b60405180910390a160035f815480929190610a7c9061114e565b9190505550505050565b6002602052805f5260405f205f91509050805f015f9054906101000a900473ffffffffffffffffffffffffffffffffffffffff1690806001015f9054906101000a900473ffffffffffffffffffffffffffffffffffffffff1690806002015490806003015490806004015f9054906101000a900460ff16905085565b5f819050919050565b610b1481610b02565b82525050565b5f602082019050610b2d5f830184610b0b565b92915050565b5f5ffd5b610b4081610b02565b8114610b4a575f5ffd5b50565b5f81359050610b5b81610b37565b92915050565b5f60208284031215610b7657610b75610b33565b5b5f610b8384828501610b4d565b91505092915050565b5f73ffffffffffffffffffffffffffffffffffffffff82169050919050565b5f610bb582610b8c565b9050919050565b610bc581610bab565b82525050565b5f602082019050610bde5f830184610bbc565b92915050565b610bed81610bab565b8114610bf7575f5ffd5b50565b5f81359050610c0881610be4565b92915050565b5f5f5f60608486031215610c2557610c24610b33565b5b5f610c3286828701610bfa565b9350506020610c4386828701610b4d565b9250506040610c5486828701610b4d565b9150509250925092565b5f8115159050919050565b610c7281610c5e565b82525050565b5f60a082019050610c8b5f830188610bbc565b610c986020830187610bbc565b610ca56040830186610b0b565b610cb26060830185610b0b565b610cbf6080830184610c69565b9695505050505050565b5f82825260208201905092915050565b7f4f6e6c79207468652073656c6c65722063616e2063616e63656c20746865206c5f8201527f697374696e670000000000000000000000000000000000000000000000000000602082015250565b5f610d33602683610cc9565b9150610d3e82610cd9565b604082019050919050565b5f6020820190508181035f830152610d6081610d27565b9050919050565b7f4e465420697320616c726561647920736f6c64000000000000000000000000005f82015250565b5f610d9b601383610cc9565b9150610da682610d67565b602082019050919050565b5f6020820190508181035f830152610dc881610d8f565b9050919050565b5f606082019050610de25f830186610bbc565b610def6020830185610bbc565b610dfc6040830184610b0b565b949350505050565b7f4f6e6c79206f776e65722063616e20706572666f726d207468697320616374695f8201527f6f6e000000000000000000000000000000000000000000000000000000000000602082015250565b5f610e5e602283610cc9565b9150610e6982610e04565b604082019050919050565b5f6020820190508181035f830152610e8b81610e52565b9050919050565b7f496e73756666696369656e74207061796d656e740000000000000000000000005f82015250565b5f610ec6601483610cc9565b9150610ed182610e92565b602082019050919050565b5f6020820190508181035f830152610ef381610eba565b9050919050565b7f4e487b71000000000000000000000000000000000000000000000000000000005f52601160045260245ffd5b5f610f3182610b02565b9150610f3c83610b02565b9250828202610f4a81610b02565b91508282048414831517610f6157610f60610efa565b5b5092915050565b7f4e487b71000000000000000000000000000000000000000000000000000000005f52601260045260245ffd5b5f610f9f82610b02565b9150610faa83610b02565b925082610fba57610fb9610f68565b5b828204905092915050565b5f610fcf82610b02565b9150610fda83610b02565b9250828203905081811115610ff257610ff1610efa565b5b92915050565b5f60608201905061100b5f830186610b0b565b6110186020830185610bbc565b6110256040830184610b0b565b949350505050565b7f496e76616c6964206665650000000000000000000000000000000000000000005f82015250565b5f611061600b83610cc9565b915061106c8261102d565b602082019050919050565b5f6020820190508181035f83015261108e81611055565b9050919050565b7f5072696365206d7573742062652067726561746572207468616e207a65726f005f82015250565b5f6110c9601f83610cc9565b91506110d482611095565b602082019050919050565b5f6020820190508181035f8301526110f6816110bd565b9050919050565b5f60a0820190506111105f830188610b0b565b61111d6020830187610bbc565b61112a6040830186610bbc565b6111376060830185610b0b565b6111446080830184610b0b565b9695505050505050565b5f61115882610b02565b91507fffffffffffffffffffffffffffffffffffffffffffffffffffffffffffffffff820361118a57611189610efa565b5b60018201905091905056fea26469706673582212204076a26484db8974fdfe59b4ec3e79f7f7e813bb8ac6f97821cb19900ed99a5464736f6c634300081b0033",
					"opcodes": "PUSH1 0x80 PUSH1 0x40 MSTORE CALLVALUE DUP1 ISZERO PUSH1 0xE JUMPI PUSH0 PUSH0 REVERT JUMPDEST POP PUSH1 0x40 MLOAD PUSH2 0x12A9 CODESIZE SUB DUP1 PUSH2 0x12A9 DUP4 CODECOPY DUP2 DUP2 ADD PUSH1 0x40 MSTORE DUP2 ADD SWAP1 PUSH1 0x2E SWAP2 SWAP1 PUSH1 0xAB JUMP JUMPDEST CALLER PUSH0 PUSH0 PUSH2 0x100 EXP DUP2 SLOAD DUP2 PUSH20 0xFFFFFFFFFFFFFFFFFFFFFFFFFFFFFFFFFFFFFFFF MUL NOT AND SWAP1 DUP4 PUSH20 0xFFFFFFFFFFFFFFFFFFFFFFFFFFFFFFFFFFFFFFFF AND MUL OR SWAP1 SSTORE POP DUP1 PUSH1 0x1 DUP2 SWAP1 SSTORE POP POP PUSH1 0xD1 JUMP JUMPDEST PUSH0 PUSH0 REVERT JUMPDEST PUSH0 DUP2 SWAP1 POP SWAP2 SWAP1 POP JUMP JUMPDEST PUSH1 0x8D DUP2 PUSH1 0x7D JUMP JUMPDEST DUP2 EQ PUSH1 0x96 JUMPI PUSH0 PUSH0 REVERT JUMPDEST POP JUMP JUMPDEST PUSH0 DUP2 MLOAD SWAP1 POP PUSH1 0xA5 DUP2 PUSH1 0x86 JUMP JUMPDEST SWAP3 SWAP2 POP POP JUMP JUMPDEST PUSH0 PUSH1 0x20 DUP3 DUP5 SUB SLT ISZERO PUSH1 0xBD JUMPI PUSH1 0xBC PUSH1 0x79 JUMP JUMPDEST JUMPDEST PUSH0 PUSH1 0xC8 DUP5 DUP3 DUP6 ADD PUSH1 0x99 JUMP JUMPDEST SWAP2 POP POP SWAP3 SWAP2 POP POP JUMP JUMPDEST PUSH2 0x11CB DUP1 PUSH2 0xDE PUSH0 CODECOPY PUSH0 RETURN INVALID PUSH1 0x80 PUSH1 0x40 MSTORE PUSH1 0x4 CALLDATASIZE LT PUSH2 0x85 JUMPI PUSH0 CALLDATALOAD PUSH1 0xE0 SHR DUP1 PUSH4 0x6A166964 GT PUSH2 0x58 JUMPI DUP1 PUSH4 0x6A166964 EQ PUSH2 0x10D JUMPI DUP1 PUSH4 0x8DA5CB5B EQ PUSH2 0x137 JUMPI DUP1 PUSH4 0x9407EA98 EQ PUSH2 0x161 JUMPI DUP1 PUSH4 0xAD05F1B4 EQ PUSH2 0x189 JUMPI DUP1 PUSH4 0xDE74E57B EQ PUSH2 0x1B1 JUMPI PUSH2 0x85 JUMP JUMPDEST DUP1 PUSH4 0x1D6A45A7 EQ PUSH2 0x89 JUMPI DUP1 PUSH4 0x305A67A8 EQ PUSH2 0xB3 JUMPI DUP1 PUSH4 0x3CCFD60B EQ PUSH2 0xDB JUMPI DUP1 PUSH4 0x51ED8288 EQ PUSH2 0xF1 JUMPI JUMPDEST PUSH0 PUSH0 REVERT JUMPDEST CALLVALUE DUP1 ISZERO PUSH2 0x94 JUMPI PUSH0 PUSH0 REVERT JUMPDEST POP PUSH2 0x9D PUSH2 0x1F1 JUMP JUMPDEST PUSH1 0x40 MLOAD PUSH2 0xAA SWAP2 SWAP1 PUSH2 0xB1A JUMP JUMPDEST PUSH1 0x40 MLOAD DUP1 SWAP2 SUB SWAP1 RETURN JUMPDEST CALLVALUE DUP1 ISZERO PUSH2 0xBE JUMPI PUSH0 PUSH0 REVERT JUMPDEST POP PUSH2 0xD9 PUSH1 0x4 DUP1 CALLDATASIZE SUB DUP2 ADD SWAP1 PUSH2 0xD4 SWAP2 SWAP1 PUSH2 0xB61 JUMP JUMPDEST PUSH2 0x1F7 JUMP JUMPDEST STOP JUMPDEST CALLVALUE DUP1 ISZERO PUSH2 0xE6 JUMPI PUSH0 PUSH0 REVERT JUMPDEST POP PUSH2 0xEF PUSH2 0x3BF JUMP JUMPDEST STOP JUMPDEST PUSH2 0x10B PUSH1 0x4 DUP1 CALLDATASIZE SUB DUP2 ADD SWAP1 PUSH2 0x106 SWAP2 SWAP1 PUSH2 0xB61 JUMP JUMPDEST PUSH2 0x4B3 JUMP JUMPDEST STOP JUMPDEST CALLVALUE DUP1 ISZERO PUSH2 0x118 JUMPI PUSH0 PUSH0 REVERT JUMPDEST POP PUSH2 0x121 PUSH2 0x750 JUMP JUMPDEST PUSH1 0x40 MLOAD PUSH2 0x12E SWAP2 SWAP1 PUSH2 0xB1A JUMP JUMPDEST PUSH1 0x40 MLOAD DUP1 SWAP2 SUB SWAP1 RETURN JUMPDEST CALLVALUE DUP1 ISZERO PUSH2 0x142 JUMPI PUSH0 PUSH0 REVERT JUMPDEST POP PUSH2 0x14B PUSH2 0x756 JUMP JUMPDEST PUSH1 0x40 MLOAD PUSH2 0x158 SWAP2 SWAP1 PUSH2 0xBCB JUMP JUMPDEST PUSH1 0x40 MLOAD DUP1 SWAP2 SUB SWAP1 RETURN JUMPDEST CALLVALUE DUP1 ISZERO PUSH2 0x16C JUMPI PUSH0 PUSH0 REVERT JUMPDEST POP PUSH2 0x187 PUSH1 0x4 DUP1 CALLDATASIZE SUB DUP2 ADD SWAP1 PUSH2 0x182 SWAP2 SWAP1 PUSH2 0xB61 JUMP JUMPDEST PUSH2 0x77A JUMP JUMPDEST STOP JUMPDEST CALLVALUE DUP1 ISZERO PUSH2 0x194 JUMPI PUSH0 PUSH0 REVERT JUMPDEST POP PUSH2 0x1AF PUSH1 0x4 DUP1 CALLDATASIZE SUB DUP2 ADD SWAP1 PUSH2 0x1AA SWAP2 SWAP1 PUSH2 0xC0E JUMP JUMPDEST PUSH2 0x855 JUMP JUMPDEST STOP JUMPDEST CALLVALUE DUP1 ISZERO PUSH2 0x1BC JUMPI PUSH0 PUSH0 REVERT JUMPDEST POP PUSH2 0x1D7 PUSH1 0x4 DUP1 CALLDATASIZE SUB DUP2 ADD SWAP1 PUSH2 0x1D2 SWAP2 SWAP1 PUSH2 0xB61 JUMP JUMPDEST PUSH2 0xA86 JUMP JUMPDEST PUSH1 0x40 MLOAD PUSH2 0x1E8 SWAP6 SWAP5 SWAP4 SWAP3 SWAP2 SWAP1 PUSH2 0xC78 JUMP JUMPDEST PUSH1 0x40 MLOAD DUP1 SWAP2 SUB SWAP1 RETURN JUMPDEST PUSH1 0x3 SLOAD DUP2 JUMP JUMPDEST PUSH0 PUSH1 0x2 PUSH0 DUP4 DUP2 MSTORE PUSH1 0x20 ADD SWAP1 DUP2 MSTORE PUSH1 0x20 ADD PUSH0 KECCAK256 SWAP1 POP DUP1 PUSH0 ADD PUSH0 SWAP1 SLOAD SWAP1 PUSH2 0x100 EXP SWAP1 DIV PUSH20 0xFFFFFFFFFFFFFFFFFFFFFFFFFFFFFFFFFFFFFFFF AND PUSH20 0xFFFFFFFFFFFFFFFFFFFFFFFFFFFFFFFFFFFFFFFF AND CALLER PUSH20 0xFFFFFFFFFFFFFFFFFFFFFFFFFFFFFFFFFFFFFFFF AND EQ PUSH2 0x29B JUMPI PUSH1 0x40 MLOAD PUSH32 0x8C379A000000000000000000000000000000000000000000000000000000000 DUP2 MSTORE PUSH1 0x4 ADD PUSH2 0x292 SWAP1 PUSH2 0xD49 JUMP JUMPDEST PUSH1 0x40 MLOAD DUP1 SWAP2 SUB SWAP1 REVERT JUMPDEST DUP1 PUSH1 0x4 ADD PUSH0 SWAP1 SLOAD SWAP1 PUSH2 0x100 EXP SWAP1 DIV PUSH1 0xFF AND ISZERO PUSH2 0x2EC JUMPI PUSH1 0x40 MLOAD PUSH32 0x8C379A000000000000000000000000000000000000000000000000000000000 DUP2 MSTORE PUSH1 0x4 ADD PUSH2 0x2E3 SWAP1 PUSH2 0xDB1 JUMP JUMPDEST PUSH1 0x40 MLOAD DUP1 SWAP2 SUB SWAP1 REVERT JUMPDEST DUP1 PUSH1 0x1 ADD PUSH0 SWAP1 SLOAD SWAP1 PUSH2 0x100 EXP SWAP1 DIV PUSH20 0xFFFFFFFFFFFFFFFFFFFFFFFFFFFFFFFFFFFFFFFF AND PUSH20 0xFFFFFFFFFFFFFFFFFFFFFFFFFFFFFFFFFFFFFFFF AND PUSH4 0x23B872DD ADDRESS DUP4 PUSH0 ADD PUSH0 SWAP1 SLOAD SWAP1 PUSH2 0x100 EXP SWAP1 DIV PUSH20 0xFFFFFFFFFFFFFFFFFFFFFFFFFFFFFFFFFFFFFFFF AND DUP5 PUSH1 0x2 ADD SLOAD PUSH1 0x40 MLOAD DUP5 PUSH4 0xFFFFFFFF AND PUSH1 0xE0 SHL DUP2 MSTORE PUSH1 0x4 ADD PUSH2 0x372 SWAP4 SWAP3 SWAP2 SWAP1 PUSH2 0xDCF JUMP JUMPDEST PUSH0 PUSH1 0x40 MLOAD DUP1 DUP4 SUB DUP2 PUSH0 DUP8 DUP1 EXTCODESIZE ISZERO DUP1 ISZERO PUSH2 0x389 JUMPI PUSH0 PUSH0 REVERT JUMPDEST POP GAS CALL ISZERO DUP1 ISZERO PUSH2 0x39B JUMPI RETURNDATASIZE PUSH0 PUSH0 RETURNDATACOPY RETURNDATASIZE PUSH0 REVERT JUMPDEST POP POP POP POP PUSH1 0x1 DUP2 PUSH1 0x4 ADD PUSH0 PUSH2 0x100 EXP DUP2 SLOAD DUP2 PUSH1 0xFF MUL NOT AND SWAP1 DUP4 ISZERO ISZERO MUL OR SWAP1 SSTORE POP POP POP JUMP JUMPDEST PUSH0 PUSH0 SWAP1 SLOAD SWAP1 PUSH2 0x100 EXP SWAP1 DIV PUSH20 0xFFFFFFFFFFFFFFFFFFFFFFFFFFFFFFFFFFFFFFFF AND PUSH20 0xFFFFFFFFFFFFFFFFFFFFFFFFFFFFFFFFFFFFFFFF AND CALLER PUSH20 0xFFFFFFFFFFFFFFFFFFFFFFFFFFFFFFFFFFFFFFFF AND EQ PUSH2 0x44D JUMPI PUSH1 0x40 MLOAD PUSH32 0x8C379A000000000000000000000000000000000000000000000000000000000 DUP2 MSTORE PUSH1 0x4 ADD PUSH2 0x444 SWAP1 PUSH2 0xE74 JUMP JUMPDEST PUSH1 0x40 MLOAD DUP1 SWAP2 SUB SWAP1 REVERT JUMPDEST PUSH0 PUSH0 SWAP1 SLOAD SWAP1 PUSH2 0x100 EXP SWAP1 DIV PUSH20 0xFFFFFFFFFFFFFFFFFFFFFFFFFFFFFFFFFFFFFFFF AND PUSH20 0xFFFFFFFFFFFFFFFFFFFFFFFFFFFFFFFFFFFFFFFF AND PUSH2 0x8FC SELFBALANCE SWAP1 DUP2 ISZERO MUL SWAP1 PUSH1 0x40 MLOAD PUSH0 PUSH1 0x40 MLOAD DUP1 DUP4 SUB DUP2 DUP6 DUP9 DUP9 CALL SWAP4 POP POP POP POP ISZERO DUP1 ISZERO PUSH2 0x4B0 JUMPI RETURNDATASIZE PUSH0 PUSH0 RETURNDATACOPY RETURNDATASIZE PUSH0 REVERT JUMPDEST POP JUMP JUMPDEST PUSH0 PUSH1 0x2 PUSH0 DUP4 DUP2 MSTORE PUSH1 0x20 ADD SWAP1 DUP2 MSTORE PUSH1 0x20 ADD PUSH0 KECCAK256 SWAP1 POP DUP1 PUSH1 0x4 ADD PUSH0 SWAP1 SLOAD SWAP1 PUSH2 0x100 EXP SWAP1 DIV PUSH1 0xFF AND ISZERO PUSH2 0x518 JUMPI PUSH1 0x40 MLOAD PUSH32 0x8C379A000000000000000000000000000000000000000000000000000000000 DUP2 MSTORE PUSH1 0x4 ADD PUSH2 0x50F SWAP1 PUSH2 0xDB1 JUMP JUMPDEST PUSH1 0x40 MLOAD DUP1 SWAP2 SUB SWAP1 REVERT JUMPDEST DUP1 PUSH1 0x3 ADD SLOAD CALLVALUE LT ISZERO PUSH2 0x55F JUMPI PUSH1 0x40 MLOAD PUSH32 0x8C379A000000000000000000000000000000000000000000000000000000000 DUP2 MSTORE PUSH1 0x4 ADD PUSH2 0x556 SWAP1 PUSH2 0xEDC JUMP JUMPDEST PUSH1 0x40 MLOAD DUP1 SWAP2 SUB SWAP1 REVERT JUMPDEST PUSH0 PUSH2 0x2710 PUSH1 0x1 SLOAD DUP4 PUSH1 0x3 ADD SLOAD PUSH2 0x575 SWAP2 SWAP1 PUSH2 0xF27 JUMP JUMPDEST PUSH2 0x57F SWAP2 SWAP1 PUSH2 0xF95 JUMP JUMPDEST SWAP1 POP PUSH0 DUP2 DUP4 PUSH1 0x3 ADD SLOAD PUSH2 0x592 SWAP2 SWAP1 PUSH2 0xFC5 JUMP JUMPDEST SWAP1 POP PUSH0 PUSH0 SWAP1 SLOAD SWAP1 PUSH2 0x100 EXP SWAP1 DIV PUSH20 0xFFFFFFFFFFFFFFFFFFFFFFFFFFFFFFFFFFFFFFFF AND PUSH20 0xFFFFFFFFFFFFFFFFFFFFFFFFFFFFFFFFFFFFFFFF AND PUSH2 0x8FC DUP4 SWAP1 DUP2 ISZERO MUL SWAP1 PUSH1 0x40 MLOAD PUSH0 PUSH1 0x40 MLOAD DUP1 DUP4 SUB DUP2 DUP6 DUP9 DUP9 CALL SWAP4 POP POP POP POP ISZERO DUP1 ISZERO PUSH2 0x5F7 JUMPI RETURNDATASIZE PUSH0 PUSH0 RETURNDATACOPY RETURNDATASIZE PUSH0 REVERT JUMPDEST POP DUP3 PUSH0 ADD PUSH0 SWAP1 SLOAD SWAP1 PUSH2 0x100 EXP SWAP1 DIV PUSH20 0xFFFFFFFFFFFFFFFFFFFFFFFFFFFFFFFFFFFFFFFF AND PUSH20 0xFFFFFFFFFFFFFFFFFFFFFFFFFFFFFFFFFFFFFFFF AND PUSH2 0x8FC DUP3 SWAP1 DUP2 ISZERO MUL SWAP1 PUSH1 0x40 MLOAD PUSH0 PUSH1 0x40 MLOAD DUP1 DUP4 SUB DUP2 DUP6 DUP9 DUP9 CALL SWAP4 POP POP POP POP ISZERO DUP1 ISZERO PUSH2 0x65D JUMPI RETURNDATASIZE PUSH0 PUSH0 RETURNDATACOPY RETURNDATASIZE PUSH0 REVERT JUMPDEST POP DUP3 PUSH1 0x1 ADD PUSH0 SWAP1 SLOAD SWAP1 PUSH2 0x100 EXP SWAP1 DIV PUSH20 0xFFFFFFFFFFFFFFFFFFFFFFFFFFFFFFFFFFFFFFFF AND PUSH20 0xFFFFFFFFFFFFFFFFFFFFFFFFFFFFFFFFFFFFFFFF AND PUSH4 0x23B872DD ADDRESS CALLER DUP7 PUSH1 0x2 ADD SLOAD PUSH1 0x40 MLOAD DUP5 PUSH4 0xFFFFFFFF AND PUSH1 0xE0 SHL DUP2 MSTORE PUSH1 0x4 ADD PUSH2 0x6C2 SWAP4 SWAP3 SWAP2 SWAP1 PUSH2 0xDCF JUMP JUMPDEST PUSH0 PUSH1 0x40 MLOAD DUP1 DUP4 SUB DUP2 PUSH0 DUP8 DUP1 EXTCODESIZE ISZERO DUP1 ISZERO PUSH2 0x6D9 JUMPI PUSH0 PUSH0 REVERT JUMPDEST POP GAS CALL ISZERO DUP1 ISZERO PUSH2 0x6EB JUMPI RETURNDATASIZE PUSH0 PUSH0 RETURNDATACOPY RETURNDATASIZE PUSH0 REVERT JUMPDEST POP POP POP POP PUSH1 0x1 DUP4 PUSH1 0x4 ADD PUSH0 PUSH2 0x100 EXP DUP2 SLOAD DUP2 PUSH1 0xFF MUL NOT AND SWAP1 DUP4 ISZERO ISZERO MUL OR SWAP1 SSTORE POP PUSH32 0xAD546CBA5AF920BC2C64678BBD69F3D8965AC26D1B82F7EBF6F098AAA8335282 DUP5 CALLER DUP6 PUSH1 0x3 ADD SLOAD PUSH1 0x40 MLOAD PUSH2 0x742 SWAP4 SWAP3 SWAP2 SWAP1 PUSH2 0xFF8 JUMP JUMPDEST PUSH1 0x40 MLOAD DUP1 SWAP2 SUB SWAP1 LOG1 POP POP POP POP JUMP JUMPDEST PUSH1 0x1 SLOAD DUP2 JUMP JUMPDEST PUSH0 PUSH0 SWAP1 SLOAD SWAP1 PUSH2 0x100 EXP SWAP1 DIV PUSH20 0xFFFFFFFFFFFFFFFFFFFFFFFFFFFFFFFFFFFFFFFF AND DUP2 JUMP JUMPDEST PUSH0 PUSH0 SWAP1 SLOAD SWAP1 PUSH2 0x100 EXP SWAP1 DIV PUSH20 0xFFFFFFFFFFFFFFFFFFFFFFFFFFFFFFFFFFFFFFFF AND PUSH20 0xFFFFFFFFFFFFFFFFFFFFFFFFFFFFFFFFFFFFFFFF AND CALLER PUSH20 0xFFFFFFFFFFFFFFFFFFFFFFFFFFFFFFFFFFFFFFFF AND EQ PUSH2 0x808 JUMPI PUSH1 0x40 MLOAD PUSH32 0x8C379A000000000000000000000000000000000000000000000000000000000 DUP2 MSTORE PUSH1 0x4 ADD PUSH2 0x7FF SWAP1 PUSH2 0xE74 JUMP JUMPDEST PUSH1 0x40 MLOAD DUP1 SWAP2 SUB SWAP1 REVERT JUMPDEST PUSH0 DUP2 LT ISZERO PUSH2 0x84B JUMPI PUSH1 0x40 MLOAD PUSH32 0x8C379A000000000000000000000000000000000000000000000000000000000 DUP2 MSTORE PUSH1 0x4 ADD PUSH2 0x842 SWAP1 PUSH2 0x1077 JUMP JUMPDEST PUSH1 0x40 MLOAD DUP1 SWAP2 SUB SWAP1 REVERT JUMPDEST DUP1 PUSH1 0x1 DUP2 SWAP1 SSTORE POP POP JUMP JUMPDEST PUSH0 DUP2 GT PUSH2 0x897 JUMPI PUSH1 0x40 MLOAD PUSH32 0x8C379A000000000000000000000000000000000000000000000000000000000 DUP2 MSTORE PUSH1 0x4 ADD PUSH2 0x88E SWAP1 PUSH2 0x10DF JUMP JUMPDEST PUSH1 0x40 MLOAD DUP1 SWAP2 SUB SWAP1 REVERT JUMPDEST DUP3 PUSH20 0xFFFFFFFFFFFFFFFFFFFFFFFFFFFFFFFFFFFFFFFF AND PUSH4 0x23B872DD CALLER ADDRESS DUP6 PUSH1 0x40 MLOAD DUP5 PUSH4 0xFFFFFFFF AND PUSH1 0xE0 SHL DUP2 MSTORE PUSH1 0x4 ADD PUSH2 0x8D4 SWAP4 SWAP3 SWAP2 SWAP1 PUSH2 0xDCF JUMP JUMPDEST PUSH0 PUSH1 0x40 MLOAD DUP1 DUP4 SUB DUP2 PUSH0 DUP8 DUP1 EXTCODESIZE ISZERO DUP1 ISZERO PUSH2 0x8EB JUMPI PUSH0 PUSH0 REVERT JUMPDEST POP GAS CALL ISZERO DUP1 ISZERO PUSH2 0x8FD JUMPI RETURNDATASIZE PUSH0 PUSH0 RETURNDATACOPY RETURNDATASIZE PUSH0 REVERT JUMPDEST POP POP POP POP PUSH1 0x40 MLOAD DUP1 PUSH1 0xA0 ADD PUSH1 0x40 MSTORE DUP1 CALLER PUSH20 0xFFFFFFFFFFFFFFFFFFFFFFFFFFFFFFFFFFFFFFFF AND DUP2 MSTORE PUSH1 0x20 ADD DUP5 PUSH20 0xFFFFFFFFFFFFFFFFFFFFFFFFFFFFFFFFFFFFFFFF AND DUP2 MSTORE PUSH1 0x20 ADD DUP4 DUP2 MSTORE PUSH1 0x20 ADD DUP3 DUP2 MSTORE PUSH1 0x20 ADD PUSH0 ISZERO ISZERO DUP2 MSTORE POP PUSH1 0x2 PUSH0 PUSH1 0x3 SLOAD DUP2 MSTORE PUSH1 0x20 ADD SWAP1 DUP2 MSTORE PUSH1 0x20 ADD PUSH0 KECCAK256 PUSH0 DUP3 ADD MLOAD DUP2 PUSH0 ADD PUSH0 PUSH2 0x100 EXP DUP2 SLOAD DUP2 PUSH20 0xFFFFFFFFFFFFFFFFFFFFFFFFFFFFFFFFFFFFFFFF MUL NOT AND SWAP1 DUP4 PUSH20 0xFFFFFFFFFFFFFFFFFFFFFFFFFFFFFFFFFFFFFFFF AND MUL OR SWAP1 SSTORE POP PUSH1 0x20 DUP3 ADD MLOAD DUP2 PUSH1 0x1 ADD PUSH0 PUSH2 0x100 EXP DUP2 SLOAD DUP2 PUSH20 0xFFFFFFFFFFFFFFFFFFFFFFFFFFFFFFFFFFFFFFFF MUL NOT AND SWAP1 DUP4 PUSH20 0xFFFFFFFFFFFFFFFFFFFFFFFFFFFFFFFFFFFFFFFF AND MUL OR SWAP1 SSTORE POP PUSH1 0x40 DUP3 ADD MLOAD DUP2 PUSH1 0x2 ADD SSTORE PUSH1 0x60 DUP3 ADD MLOAD DUP2 PUSH1 0x3 ADD SSTORE PUSH1 0x80 DUP3 ADD MLOAD DUP2 PUSH1 0x4 ADD PUSH0 PUSH2 0x100 EXP DUP2 SLOAD DUP2 PUSH1 0xFF MUL NOT AND SWAP1 DUP4 ISZERO ISZERO MUL OR SWAP1 SSTORE POP SWAP1 POP POP PUSH32 0xB0FE4922AC99799C17A4130D5C045BA2ECDF6E15B75B9EA84AAF0DC28724A42B PUSH1 0x3 SLOAD CALLER DUP6 DUP6 DUP6 PUSH1 0x40 MLOAD PUSH2 0xA62 SWAP6 SWAP5 SWAP4 SWAP3 SWAP2 SWAP1 PUSH2 0x10FD JUMP JUMPDEST PUSH1 0x40 MLOAD DUP1 SWAP2 SUB SWAP1 LOG1 PUSH1 0x3 PUSH0 DUP2 SLOAD DUP1 SWAP3 SWAP2 SWAP1 PUSH2 0xA7C SWAP1 PUSH2 0x114E JUMP JUMPDEST SWAP2 SWAP1 POP SSTORE POP POP POP POP JUMP JUMPDEST PUSH1 0x2 PUSH1 0x20 MSTORE DUP1 PUSH0 MSTORE PUSH1 0x40 PUSH0 KECCAK256 PUSH0 SWAP2 POP SWAP1 POP DUP1 PUSH0 ADD PUSH0 SWAP1 SLOAD SWAP1 PUSH2 0x100 EXP SWAP1 DIV PUSH20 0xFFFFFFFFFFFFFFFFFFFFFFFFFFFFFFFFFFFFFFFF AND SWAP1 DUP1 PUSH1 0x1 ADD PUSH0 SWAP1 SLOAD SWAP1 PUSH2 0x100 EXP SWAP1 DIV PUSH20 0xFFFFFFFFFFFFFFFFFFFFFFFFFFFFFFFFFFFFFFFF AND SWAP1 DUP1 PUSH1 0x2 ADD SLOAD SWAP1 DUP1 PUSH1 0x3 ADD SLOAD SWAP1 DUP1 PUSH1 0x4 ADD PUSH0 SWAP1 SLOAD SWAP1 PUSH2 0x100 EXP SWAP1 DIV PUSH1 0xFF AND SWAP1 POP DUP6 JUMP JUMPDEST PUSH0 DUP2 SWAP1 POP SWAP2 SWAP1 POP JUMP JUMPDEST PUSH2 0xB14 DUP2 PUSH2 0xB02 JUMP JUMPDEST DUP3 MSTORE POP POP JUMP JUMPDEST PUSH0 PUSH1 0x20 DUP3 ADD SWAP1 POP PUSH2 0xB2D PUSH0 DUP4 ADD DUP5 PUSH2 0xB0B JUMP JUMPDEST SWAP3 SWAP2 POP POP JUMP JUMPDEST PUSH0 PUSH0 REVERT JUMPDEST PUSH2 0xB40 DUP2 PUSH2 0xB02 JUMP JUMPDEST DUP2 EQ PUSH2 0xB4A JUMPI PUSH0 PUSH0 REVERT JUMPDEST POP JUMP JUMPDEST PUSH0 DUP2 CALLDATALOAD SWAP1 POP PUSH2 0xB5B DUP2 PUSH2 0xB37 JUMP JUMPDEST SWAP3 SWAP2 POP POP JUMP JUMPDEST PUSH0 PUSH1 0x20 DUP3 DUP5 SUB SLT ISZERO PUSH2 0xB76 JUMPI PUSH2 0xB75 PUSH2 0xB33 JUMP JUMPDEST JUMPDEST PUSH0 PUSH2 0xB83 DUP5 DUP3 DUP6 ADD PUSH2 0xB4D JUMP JUMPDEST SWAP2 POP POP SWAP3 SWAP2 POP POP JUMP JUMPDEST PUSH0 PUSH20 0xFFFFFFFFFFFFFFFFFFFFFFFFFFFFFFFFFFFFFFFF DUP3 AND SWAP1 POP SWAP2 SWAP1 POP JUMP JUMPDEST PUSH0 PUSH2 0xBB5 DUP3 PUSH2 0xB8C JUMP JUMPDEST SWAP1 POP SWAP2 SWAP1 POP JUMP JUMPDEST PUSH2 0xBC5 DUP2 PUSH2 0xBAB JUMP JUMPDEST DUP3 MSTORE POP POP JUMP JUMPDEST PUSH0 PUSH1 0x20 DUP3 ADD SWAP1 POP PUSH2 0xBDE PUSH0 DUP4 ADD DUP5 PUSH2 0xBBC JUMP JUMPDEST SWAP3 SWAP2 POP POP JUMP JUMPDEST PUSH2 0xBED DUP2 PUSH2 0xBAB JUMP JUMPDEST DUP2 EQ PUSH2 0xBF7 JUMPI PUSH0 PUSH0 REVERT JUMPDEST POP JUMP JUMPDEST PUSH0 DUP2 CALLDATALOAD SWAP1 POP PUSH2 0xC08 DUP2 PUSH2 0xBE4 JUMP JUMPDEST SWAP3 SWAP2 POP POP JUMP JUMPDEST PUSH0 PUSH0 PUSH0 PUSH1 0x60 DUP5 DUP7 SUB SLT ISZERO PUSH2 0xC25 JUMPI PUSH2 0xC24 PUSH2 0xB33 JUMP JUMPDEST JUMPDEST PUSH0 PUSH2 0xC32 DUP7 DUP3 DUP8 ADD PUSH2 0xBFA JUMP JUMPDEST SWAP4 POP POP PUSH1 0x20 PUSH2 0xC43 DUP7 DUP3 DUP8 ADD PUSH2 0xB4D JUMP JUMPDEST SWAP3 POP POP PUSH1 0x40 PUSH2 0xC54 DUP7 DUP3 DUP8 ADD PUSH2 0xB4D JUMP JUMPDEST SWAP2 POP POP SWAP3 POP SWAP3 POP SWAP3 JUMP JUMPDEST PUSH0 DUP2 ISZERO ISZERO SWAP1 POP SWAP2 SWAP1 POP JUMP JUMPDEST PUSH2 0xC72 DUP2 PUSH2 0xC5E JUMP JUMPDEST DUP3 MSTORE POP POP JUMP JUMPDEST PUSH0 PUSH1 0xA0 DUP3 ADD SWAP1 POP PUSH2 0xC8B PUSH0 DUP4 ADD DUP9 PUSH2 0xBBC JUMP JUMPDEST PUSH2 0xC98 PUSH1 0x20 DUP4 ADD DUP8 PUSH2 0xBBC JUMP JUMPDEST PUSH2 0xCA5 PUSH1 0x40 DUP4 ADD DUP7 PUSH2 0xB0B JUMP JUMPDEST PUSH2 0xCB2 PUSH1 0x60 DUP4 ADD DUP6 PUSH2 0xB0B JUMP JUMPDEST PUSH2 0xCBF PUSH1 0x80 DUP4 ADD DUP5 PUSH2 0xC69 JUMP JUMPDEST SWAP7 SWAP6 POP POP POP POP POP POP JUMP JUMPDEST PUSH0 DUP3 DUP3 MSTORE PUSH1 0x20 DUP3 ADD SWAP1 POP SWAP3 SWAP2 POP POP JUMP JUMPDEST PUSH32 0x4F6E6C79207468652073656C6C65722063616E2063616E63656C20746865206C PUSH0 DUP3 ADD MSTORE PUSH32 0x697374696E670000000000000000000000000000000000000000000000000000 PUSH1 0x20 DUP3 ADD MSTORE POP JUMP JUMPDEST PUSH0 PUSH2 0xD33 PUSH1 0x26 DUP4 PUSH2 0xCC9 JUMP JUMPDEST SWAP2 POP PUSH2 0xD3E DUP3 PUSH2 0xCD9 JUMP JUMPDEST PUSH1 0x40 DUP3 ADD SWAP1 POP SWAP2 SWAP1 POP JUMP JUMPDEST PUSH0 PUSH1 0x20 DUP3 ADD SWAP1 POP DUP2 DUP2 SUB PUSH0 DUP4 ADD MSTORE PUSH2 0xD60 DUP2 PUSH2 0xD27 JUMP JUMPDEST SWAP1 POP SWAP2 SWAP1 POP JUMP JUMPDEST PUSH32 0x4E465420697320616C726561647920736F6C6400000000000000000000000000 PUSH0 DUP3 ADD MSTORE POP JUMP JUMPDEST PUSH0 PUSH2 0xD9B PUSH1 0x13 DUP4 PUSH2 0xCC9 JUMP JUMPDEST SWAP2 POP PUSH2 0xDA6 DUP3 PUSH2 0xD67 JUMP JUMPDEST PUSH1 0x20 DUP3 ADD SWAP1 POP SWAP2 SWAP1 POP JUMP JUMPDEST PUSH0 PUSH1 0x20 DUP3 ADD SWAP1 POP DUP2 DUP2 SUB PUSH0 DUP4 ADD MSTORE PUSH2 0xDC8 DUP2 PUSH2 0xD8F JUMP JUMPDEST SWAP1 POP SWAP2 SWAP1 POP JUMP JUMPDEST PUSH0 PUSH1 0x60 DUP3 ADD SWAP1 POP PUSH2 0xDE2 PUSH0 DUP4 ADD DUP7 PUSH2 0xBBC JUMP JUMPDEST PUSH2 0xDEF PUSH1 0x20 DUP4 ADD DUP6 PUSH2 0xBBC JUMP JUMPDEST PUSH2 0xDFC PUSH1 0x40 DUP4 ADD DUP5 PUSH2 0xB0B JUMP JUMPDEST SWAP5 SWAP4 POP POP POP POP JUMP JUMPDEST PUSH32 0x4F6E6C79206F776E65722063616E20706572666F726D20746869732061637469 PUSH0 DUP3 ADD MSTORE PUSH32 0x6F6E000000000000000000000000000000000000000000000000000000000000 PUSH1 0x20 DUP3 ADD MSTORE POP JUMP JUMPDEST PUSH0 PUSH2 0xE5E PUSH1 0x22 DUP4 PUSH2 0xCC9 JUMP JUMPDEST SWAP2 POP PUSH2 0xE69 DUP3 PUSH2 0xE04 JUMP JUMPDEST PUSH1 0x40 DUP3 ADD SWAP1 POP SWAP2 SWAP1 POP JUMP JUMPDEST PUSH0 PUSH1 0x20 DUP3 ADD SWAP1 POP DUP2 DUP2 SUB PUSH0 DUP4 ADD MSTORE PUSH2 0xE8B DUP2 PUSH2 0xE52 JUMP JUMPDEST SWAP1 POP SWAP2 SWAP1 POP JUMP JUMPDEST PUSH32 0x496E73756666696369656E74207061796D656E74000000000000000000000000 PUSH0 DUP3 ADD MSTORE POP JUMP JUMPDEST PUSH0 PUSH2 0xEC6 PUSH1 0x14 DUP4 PUSH2 0xCC9 JUMP JUMPDEST SWAP2 POP PUSH2 0xED1 DUP3 PUSH2 0xE92 JUMP JUMPDEST PUSH1 0x20 DUP3 ADD SWAP1 POP SWAP2 SWAP1 POP JUMP JUMPDEST PUSH0 PUSH1 0x20 DUP3 ADD SWAP1 POP DUP2 DUP2 SUB PUSH0 DUP4 ADD MSTORE PUSH2 0xEF3 DUP2 PUSH2 0xEBA JUMP JUMPDEST SWAP1 POP SWAP2 SWAP1 POP JUMP JUMPDEST PUSH32 0x4E487B7100000000000000000000000000000000000000000000000000000000 PUSH0 MSTORE PUSH1 0x11 PUSH1 0x4 MSTORE PUSH1 0x24 PUSH0 REVERT JUMPDEST PUSH0 PUSH2 0xF31 DUP3 PUSH2 0xB02 JUMP JUMPDEST SWAP2 POP PUSH2 0xF3C DUP4 PUSH2 0xB02 JUMP JUMPDEST SWAP3 POP DUP3 DUP3 MUL PUSH2 0xF4A DUP2 PUSH2 0xB02 JUMP JUMPDEST SWAP2 POP DUP3 DUP3 DIV DUP5 EQ DUP4 ISZERO OR PUSH2 0xF61 JUMPI PUSH2 0xF60 PUSH2 0xEFA JUMP JUMPDEST JUMPDEST POP SWAP3 SWAP2 POP POP JUMP JUMPDEST PUSH32 0x4E487B7100000000000000000000000000000000000000000000000000000000 PUSH0 MSTORE PUSH1 0x12 PUSH1 0x4 MSTORE PUSH1 0x24 PUSH0 REVERT JUMPDEST PUSH0 PUSH2 0xF9F DUP3 PUSH2 0xB02 JUMP JUMPDEST SWAP2 POP PUSH2 0xFAA DUP4 PUSH2 0xB02 JUMP JUMPDEST SWAP3 POP DUP3 PUSH2 0xFBA JUMPI PUSH2 0xFB9 PUSH2 0xF68 JUMP JUMPDEST JUMPDEST DUP3 DUP3 DIV SWAP1 POP SWAP3 SWAP2 POP POP JUMP JUMPDEST PUSH0 PUSH2 0xFCF DUP3 PUSH2 0xB02 JUMP JUMPDEST SWAP2 POP PUSH2 0xFDA DUP4 PUSH2 0xB02 JUMP JUMPDEST SWAP3 POP DUP3 DUP3 SUB SWAP1 POP DUP2 DUP2 GT ISZERO PUSH2 0xFF2 JUMPI PUSH2 0xFF1 PUSH2 0xEFA JUMP JUMPDEST JUMPDEST SWAP3 SWAP2 POP POP JUMP JUMPDEST PUSH0 PUSH1 0x60 DUP3 ADD SWAP1 POP PUSH2 0x100B PUSH0 DUP4 ADD DUP7 PUSH2 0xB0B JUMP JUMPDEST PUSH2 0x1018 PUSH1 0x20 DUP4 ADD DUP6 PUSH2 0xBBC JUMP JUMPDEST PUSH2 0x1025 PUSH1 0x40 DUP4 ADD DUP5 PUSH2 0xB0B JUMP JUMPDEST SWAP5 SWAP4 POP POP POP POP JUMP JUMPDEST PUSH32 0x496E76616C696420666565000000000000000000000000000000000000000000 PUSH0 DUP3 ADD MSTORE POP JUMP JUMPDEST PUSH0 PUSH2 0x1061 PUSH1 0xB DUP4 PUSH2 0xCC9 JUMP JUMPDEST SWAP2 POP PUSH2 0x106C DUP3 PUSH2 0x102D JUMP JUMPDEST PUSH1 0x20 DUP3 ADD SWAP1 POP SWAP2 SWAP1 POP JUMP JUMPDEST PUSH0 PUSH1 0x20 DUP3 ADD SWAP1 POP DUP2 DUP2 SUB PUSH0 DUP4 ADD MSTORE PUSH2 0x108E DUP2 PUSH2 0x1055 JUMP JUMPDEST SWAP1 POP SWAP2 SWAP1 POP JUMP JUMPDEST PUSH32 0x5072696365206D7573742062652067726561746572207468616E207A65726F00 PUSH0 DUP3 ADD MSTORE POP JUMP JUMPDEST PUSH0 PUSH2 0x10C9 PUSH1 0x1F DUP4 PUSH2 0xCC9 JUMP JUMPDEST SWAP2 POP PUSH2 0x10D4 DUP3 PUSH2 0x1095 JUMP JUMPDEST PUSH1 0x20 DUP3 ADD SWAP1 POP SWAP2 SWAP1 POP JUMP JUMPDEST PUSH0 PUSH1 0x20 DUP3 ADD SWAP1 POP DUP2 DUP2 SUB PUSH0 DUP4 ADD MSTORE PUSH2 0x10F6 DUP2 PUSH2 0x10BD JUMP JUMPDEST SWAP1 POP SWAP2 SWAP1 POP JUMP JUMPDEST PUSH0 PUSH1 0xA0 DUP3 ADD SWAP1 POP PUSH2 0x1110 PUSH0 DUP4 ADD DUP9 PUSH2 0xB0B JUMP JUMPDEST PUSH2 0x111D PUSH1 0x20 DUP4 ADD DUP8 PUSH2 0xBBC JUMP JUMPDEST PUSH2 0x112A PUSH1 0x40 DUP4 ADD DUP7 PUSH2 0xBBC JUMP JUMPDEST PUSH2 0x1137 PUSH1 0x60 DUP4 ADD DUP6 PUSH2 0xB0B JUMP JUMPDEST PUSH2 0x1144 PUSH1 0x80 DUP4 ADD DUP5 PUSH2 0xB0B JUMP JUMPDEST SWAP7 SWAP6 POP POP POP POP POP POP JUMP JUMPDEST PUSH0 PUSH2 0x1158 DUP3 PUSH2 0xB02 JUMP JUMPDEST SWAP2 POP PUSH32 0xFFFFFFFFFFFFFFFFFFFFFFFFFFFFFFFFFFFFFFFFFFFFFFFFFFFFFFFFFFFFFFFF DUP3 SUB PUSH2 0x118A JUMPI PUSH2 0x1189 PUSH2 0xEFA JUMP JUMPDEST JUMPDEST PUSH1 0x1 DUP3 ADD SWAP1 POP SWAP2 SWAP1 POP JUMP INVALID LOG2 PUSH5 0x6970667358 0x22 SLT KECCAK256 BLOCKHASH PUSH23 0xA26484DB8974FDFE59B4EC3E79F7F7E813BB8AC6F97821 0xCB NOT SWAP1 0xE 0xD9 SWAP11 SLOAD PUSH5 0x736F6C6343 STOP ADDMOD SHL STOP CALLER "
				},
				"gasEstimates": {
					"creation": {
						"codeDepositCost": "911000",
						"executionCost": "infinite",
						"totalCost": "infinite"
					},
					"external": {
						"buyNFT(uint256)": "infinite",
						"cancelListing(uint256)": "infinite",
						"currentListingId()": "2426",
						"listNFT(address,uint256,uint256)": "infinite",
						"listings(uint256)": "infinite",
						"marketplaceFee()": "2425",
						"owner()": "2529",
						"setMarketplaceFee(uint256)": "24752",
						"withdraw()": "infinite"
					}
				},
				"methodIdentifiers": {
					"buyNFT(uint256)": "51ed8288",
					"cancelListing(uint256)": "305a67a8",
					"currentListingId()": "1d6a45a7",
					"listNFT(address,uint256,uint256)": "ad05f1b4",
					"listings(uint256)": "de74e57b",
					"marketplaceFee()": "6a166964",
					"owner()": "8da5cb5b",
					"setMarketplaceFee(uint256)": "9407ea98",
					"withdraw()": "3ccfd60b"
				}
			},
			"storageLayout": {
				"storage": [
					{
						"astId": 20,
						"contract": "CrNFTMarketPlace/contracts/test.sol:NFTMarketplace",
						"label": "owner",
						"offset": 0,
						"slot": "0",
						"type": "t_address"
					},
					{
						"astId": 22,
						"contract": "CrNFTMarketPlace/contracts/test.sol:NFTMarketplace",
						"label": "marketplaceFee",
						"offset": 0,
						"slot": "1",
						"type": "t_uint256"
					},
					{
						"astId": 65,
						"contract": "CrNFTMarketPlace/contracts/test.sol:NFTMarketplace",
						"label": "listings",
						"offset": 0,
						"slot": "2",
						"type": "t_mapping(t_uint256,t_struct(Listing)60_storage)"
					},
					{
						"astId": 67,
						"contract": "CrNFTMarketPlace/contracts/test.sol:NFTMarketplace",
						"label": "currentListingId",
						"offset": 0,
						"slot": "3",
						"type": "t_uint256"
					}
				],
				"types": {
					"t_address": {
						"encoding": "inplace",
						"label": "address",
						"numberOfBytes": "20"
					},
					"t_bool": {
						"encoding": "inplace",
						"label": "bool",
						"numberOfBytes": "1"
					},
					"t_mapping(t_uint256,t_struct(Listing)60_storage)": {
						"encoding": "mapping",
						"key": "t_uint256",
						"label": "mapping(uint256 => struct NFTMarketplace.Listing)",
						"numberOfBytes": "32",
						"value": "t_struct(Listing)60_storage"
					},
					"t_struct(Listing)60_storage": {
						"encoding": "inplace",
						"label": "struct NFTMarketplace.Listing",
						"members": [
							{
								"astId": 51,
								"contract": "CrNFTMarketPlace/contracts/test.sol:NFTMarketplace",
								"label": "seller",
								"offset": 0,
								"slot": "0",
								"type": "t_address"
							},
							{
								"astId": 53,
								"contract": "CrNFTMarketPlace/contracts/test.sol:NFTMarketplace",
								"label": "nftContract",
								"offset": 0,
								"slot": "1",
								"type": "t_address"
							},
							{
								"astId": 55,
								"contract": "CrNFTMarketPlace/contracts/test.sol:NFTMarketplace",
								"label": "tokenId",
								"offset": 0,
								"slot": "2",
								"type": "t_uint256"
							},
							{
								"astId": 57,
								"contract": "CrNFTMarketPlace/contracts/test.sol:NFTMarketplace",
								"label": "price",
								"offset": 0,
								"slot": "3",
								"type": "t_uint256"
							},
							{
								"astId": 59,
								"contract": "CrNFTMarketPlace/contracts/test.sol:NFTMarketplace",
								"label": "isSold",
								"offset": 0,
								"slot": "4",
								"type": "t_bool"
							}
						],
						"numberOfBytes": "160"
					},
					"t_uint256": {
						"encoding": "inplace",
						"label": "uint256",
						"numberOfBytes": "32"
					}
				}
			},
			"userdoc": {
				"kind": "user",
				"methods": {},
				"version": 1
			}
		}
	}
}