{
	"CrNFTMarketPlace/contracts/CRNFTMarketplace.sol": {
		"NFTMarketplace": {
			"abi": [
				{
					"inputs": [
						{
							"internalType": "uint256",
							"name": "_feePercent",
							"type": "uint256"
						}
					],
					"stateMutability": "nonpayable",
					"type": "constructor"
				},
				{
					"inputs": [
						{
							"internalType": "address",
							"name": "owner",
							"type": "address"
						}
					],
					"name": "OwnableInvalidOwner",
					"type": "error"
				},
				{
					"inputs": [
						{
							"internalType": "address",
							"name": "account",
							"type": "address"
						}
					],
					"name": "OwnableUnauthorizedAccount",
					"type": "error"
				},
				{
					"anonymous": false,
					"inputs": [
						{
							"indexed": true,
							"internalType": "uint256",
							"name": "tokenId",
							"type": "uint256"
						},
						{
							"indexed": false,
							"internalType": "uint256",
							"name": "price",
							"type": "uint256"
						}
					],
					"name": "NFTListed",
					"type": "event"
				},
				{
					"anonymous": false,
					"inputs": [
						{
							"indexed": true,
							"internalType": "address",
							"name": "owner",
							"type": "address"
						},
						{
							"indexed": true,
							"internalType": "uint256",
							"name": "tokenId",
							"type": "uint256"
						}
					],
					"name": "NFTMinted",
					"type": "event"
				},
				{
					"anonymous": false,
					"inputs": [
						{
							"indexed": true,
							"internalType": "address",
							"name": "buyer",
							"type": "address"
						},
						{
							"indexed": true,
							"internalType": "uint256",
							"name": "tokenId",
							"type": "uint256"
						},
						{
							"indexed": false,
							"internalType": "uint256",
							"name": "price",
							"type": "uint256"
						},
						{
							"indexed": false,
							"internalType": "uint256",
							"name": "fee",
							"type": "uint256"
						}
					],
					"name": "NFTPurchased",
					"type": "event"
				},
				{
					"anonymous": false,
					"inputs": [
						{
							"indexed": true,
							"internalType": "address",
							"name": "previousOwner",
							"type": "address"
						},
						{
							"indexed": true,
							"internalType": "address",
							"name": "newOwner",
							"type": "address"
						}
					],
					"name": "OwnershipTransferred",
					"type": "event"
				},
				{
					"anonymous": false,
					"inputs": [
						{
							"indexed": false,
							"internalType": "address",
							"name": "account",
							"type": "address"
						}
					],
					"name": "Paused",
					"type": "event"
				},
				{
					"anonymous": false,
					"inputs": [],
					"name": "Paused",
					"type": "event"
				},
				{
					"anonymous": false,
					"inputs": [
						{
							"indexed": false,
							"internalType": "address",
							"name": "account",
							"type": "address"
						}
					],
					"name": "Unpaused",
					"type": "event"
				},
				{
					"anonymous": false,
					"inputs": [],
					"name": "Unpaused",
					"type": "event"
				},
				{
					"inputs": [
						{
							"internalType": "address",
							"name": "_owner",
							"type": "address"
						}
					],
					"name": "getOwnerTokens",
					"outputs": [
						{
							"internalType": "uint256[]",
							"name": "",
							"type": "uint256[]"
						}
					],
					"stateMutability": "view",
					"type": "function"
				},
				{
					"inputs": [
						{
							"internalType": "uint256",
							"name": "_tokenId",
							"type": "uint256"
						}
					],
					"name": "getTokenURI",
					"outputs": [
						{
							"internalType": "string",
							"name": "",
							"type": "string"
						}
					],
					"stateMutability": "view",
					"type": "function"
				},
				{
					"inputs": [
						{
							"internalType": "uint256",
							"name": "_tokenId",
							"type": "uint256"
						},
						{
							"internalType": "uint256",
							"name": "_price",
							"type": "uint256"
						}
					],
					"name": "listNFT",
					"outputs": [],
					"stateMutability": "nonpayable",
					"type": "function"
				},
				{
					"inputs": [
						{
							"internalType": "uint256",
							"name": "",
							"type": "uint256"
						}
					],
					"name": "listings",
					"outputs": [
						{
							"internalType": "uint256",
							"name": "price",
							"type": "uint256"
						},
						{
							"internalType": "address",
							"name": "seller",
							"type": "address"
						},
						{
							"internalType": "bool",
							"name": "active",
							"type": "bool"
						}
					],
					"stateMutability": "view",
					"type": "function"
				},
				{
					"inputs": [
						{
							"internalType": "string",
							"name": "_tokenURI",
							"type": "string"
						}
					],
					"name": "mint",
					"outputs": [],
					"stateMutability": "nonpayable",
					"type": "function"
				},
				{
					"inputs": [
						{
							"internalType": "uint256",
							"name": "",
							"type": "uint256"
						}
					],
					"name": "nfts",
					"outputs": [
						{
							"internalType": "uint256",
							"name": "tokenId",
							"type": "uint256"
						},
						{
							"internalType": "address",
							"name": "owner",
							"type": "address"
						},
						{
							"internalType": "string",
							"name": "tokenURI",
							"type": "string"
						}
					],
					"stateMutability": "view",
					"type": "function"
				},
				{
					"inputs": [],
					"name": "owner",
					"outputs": [
						{
							"internalType": "address",
							"name": "",
							"type": "address"
						}
					],
					"stateMutability": "view",
					"type": "function"
				},
				{
					"inputs": [
						{
							"internalType": "address",
							"name": "",
							"type": "address"
						},
						{
							"internalType": "uint256",
							"name": "",
							"type": "uint256"
						}
					],
					"name": "ownerTokens",
					"outputs": [
						{
							"internalType": "uint256",
							"name": "",
							"type": "uint256"
						}
					],
					"stateMutability": "view",
					"type": "function"
				},
				{
					"inputs": [],
					"name": "pause",
					"outputs": [],
					"stateMutability": "nonpayable",
					"type": "function"
				},
				{
					"inputs": [],
					"name": "paused",
					"outputs": [
						{
							"internalType": "bool",
							"name": "",
							"type": "bool"
						}
					],
					"stateMutability": "view",
					"type": "function"
				},
				{
					"inputs": [
						{
							"internalType": "uint256",
							"name": "_tokenId",
							"type": "uint256"
						}
					],
					"name": "purchaseNFT",
					"outputs": [],
					"stateMutability": "payable",
					"type": "function"
				},
				{
					"inputs": [],
					"name": "renounceOwnership",
					"outputs": [],
					"stateMutability": "nonpayable",
					"type": "function"
				},
				{
					"inputs": [],
					"name": "totalSupply",
					"outputs": [
						{
							"internalType": "uint256",
							"name": "",
							"type": "uint256"
						}
					],
					"stateMutability": "view",
					"type": "function"
				},
				{
					"inputs": [
						{
							"internalType": "address",
							"name": "newOwner",
							"type": "address"
						}
					],
					"name": "transferOwnership",
					"outputs": [],
					"stateMutability": "nonpayable",
					"type": "function"
				},
				{
					"inputs": [],
					"name": "unpause",
					"outputs": [],
					"stateMutability": "nonpayable",
					"type": "function"
				}
			],
			"devdoc": {
				"errors": {
					"OwnableInvalidOwner(address)": [
						{
							"details": "The owner is not a valid owner account. (eg. `address(0)`)"
						}
					],
					"OwnableUnauthorizedAccount(address)": [
						{
							"details": "The caller account is not authorized to perform an operation."
						}
					]
				},
				"events": {
					"Paused(address)": {
						"details": "Emitted when the pause is triggered by `account`."
					},
					"Unpaused(address)": {
						"details": "Emitted when the pause is lifted by `account`."
					}
				},
				"kind": "dev",
				"methods": {
					"owner()": {
						"details": "Returns the address of the current owner."
					},
					"paused()": {
						"details": "Returns true if the contract is paused, and false otherwise."
					},
					"renounceOwnership()": {
						"details": "Leaves the contract without owner. It will not be possible to call `onlyOwner` functions. Can only be called by the current owner. NOTE: Renouncing ownership will leave the contract without an owner, thereby disabling any functionality that is only available to the owner."
					},
					"transferOwnership(address)": {
						"details": "Transfers ownership of the contract to a new account (`newOwner`). Can only be called by the current owner."
					}
				},
				"version": 1
			},
			"evm": {
				"assembly": "    /* \"CrNFTMarketPlace/contracts/CRNFTMarketplace.sol\":231:4996  contract NFTMarketplace is Ownable, ReentrancyGuard , Pausable{... */\n  mstore(0x40, 0x80)\n    /* \"CrNFTMarketPlace/contracts/CRNFTMarketplace.sol\":1063:1177  constructor(uint256 _feePercent) Ownable(msg.sender){... */\n  callvalue\n  dup1\n  iszero\n  tag_1\n  jumpi\n  revert(0x00, 0x00)\ntag_1:\n  pop\n  mload(0x40)\n  sub(codesize, bytecodeSize)\n  dup1\n  bytecodeSize\n  dup4\n  codecopy\n  dup2\n  dup2\n  add\n  0x40\n  mstore\n  dup2\n  add\n  swap1\n  tag_2\n  swap2\n  swap1\n  tag_3\n  jump\t// in\ntag_2:\n    /* \"CrNFTMarketPlace/contracts/CRNFTMarketplace.sol\":1104:1114  msg.sender */\n  caller\n    /* \"@openzeppelin/contracts/access/Ownable.sol\":1297:1298  0 */\n  0x00\n    /* \"@openzeppelin/contracts/access/Ownable.sol\":1273:1299  initialOwner == address(0) */\n  0xffffffffffffffffffffffffffffffffffffffff\n  and\n    /* \"@openzeppelin/contracts/access/Ownable.sol\":1273:1285  initialOwner */\n  dup2\n    /* \"@openzeppelin/contracts/access/Ownable.sol\":1273:1299  initialOwner == address(0) */\n  0xffffffffffffffffffffffffffffffffffffffff\n  and\n  sub\n    /* \"@openzeppelin/contracts/access/Ownable.sol\":1269:1364  if (initialOwner == address(0)) {... */\n  tag_9\n  jumpi\n    /* \"@openzeppelin/contracts/access/Ownable.sol\":1350:1351  0 */\n  0x00\n    /* \"@openzeppelin/contracts/access/Ownable.sol\":1322:1353  OwnableInvalidOwner(address(0)) */\n  mload(0x40)\n  0x1e4fbdf700000000000000000000000000000000000000000000000000000000\n  dup2\n  mstore\n  0x04\n  add\n  tag_10\n  swap2\n  swap1\n  tag_11\n  jump\t// in\ntag_10:\n  mload(0x40)\n  dup1\n  swap2\n  sub\n  swap1\n  revert\n    /* \"@openzeppelin/contracts/access/Ownable.sol\":1269:1364  if (initialOwner == address(0)) {... */\ntag_9:\n    /* \"@openzeppelin/contracts/access/Ownable.sol\":1373:1405  _transferOwnership(initialOwner) */\n  tag_12\n    /* \"@openzeppelin/contracts/access/Ownable.sol\":1392:1404  initialOwner */\n  dup2\n    /* \"@openzeppelin/contracts/access/Ownable.sol\":1373:1391  _transferOwnership */\n  shl(0x20, tag_13)\n    /* \"@openzeppelin/contracts/access/Ownable.sol\":1373:1405  _transferOwnership(initialOwner) */\n  0x20\n  shr\n  jump\t// in\ntag_12:\n    /* \"@openzeppelin/contracts/access/Ownable.sol\":1225:1412  constructor(address initialOwner) {... */\n  pop\n    /* \"@openzeppelin/contracts/security/ReentrancyGuard.sol\":1716:1717  1 */\n  0x01\n    /* \"@openzeppelin/contracts/security/ReentrancyGuard.sol\":1821:1828  _status */\n  dup1\n    /* \"@openzeppelin/contracts/security/ReentrancyGuard.sol\":1821:1843  _status = _NOT_ENTERED */\n  dup2\n  swap1\n  sstore\n  pop\n    /* \"@openzeppelin/contracts/security/Pausable.sol\":1006:1011  false */\n  0x00\n    /* \"@openzeppelin/contracts/security/Pausable.sol\":996:1003  _paused */\n  0x02\n  0x00\n    /* \"@openzeppelin/contracts/security/Pausable.sol\":996:1011  _paused = false */\n  0x0100\n  exp\n  dup2\n  sload\n  dup2\n  0xff\n  mul\n  not\n  and\n  swap1\n  dup4\n  iszero\n  iszero\n  mul\n  or\n  swap1\n  sstore\n  pop\n    /* \"CrNFTMarketPlace/contracts/CRNFTMarketplace.sol\":1131:1142  _feePercent */\n  dup1\n    /* \"CrNFTMarketPlace/contracts/CRNFTMarketplace.sol\":1125:1128  fee */\n  0x03\n    /* \"CrNFTMarketPlace/contracts/CRNFTMarketplace.sol\":1125:1142  fee = _feePercent */\n  dup2\n  swap1\n  sstore\n  pop\n    /* \"CrNFTMarketPlace/contracts/CRNFTMarketplace.sol\":1152:1170  _setTotalSupply(0) */\n  tag_17\n    /* \"CrNFTMarketPlace/contracts/CRNFTMarketplace.sol\":1168:1169  0 */\n  0x00\n    /* \"CrNFTMarketPlace/contracts/CRNFTMarketplace.sol\":1152:1167  _setTotalSupply */\n  shl(0x20, tag_18)\n    /* \"CrNFTMarketPlace/contracts/CRNFTMarketplace.sol\":1152:1170  _setTotalSupply(0) */\n  0x20\n  shr\n  jump\t// in\ntag_17:\n    /* \"CrNFTMarketPlace/contracts/CRNFTMarketplace.sol\":1063:1177  constructor(uint256 _feePercent) Ownable(msg.sender){... */\n  pop\n    /* \"CrNFTMarketPlace/contracts/CRNFTMarketplace.sol\":231:4996  contract NFTMarketplace is Ownable, ReentrancyGuard , Pausable{... */\n  jump(tag_19)\n    /* \"@openzeppelin/contracts/access/Ownable.sol\":2912:3099  function _transferOwnership(address newOwner) internal virtual {... */\ntag_13:\n    /* \"@openzeppelin/contracts/access/Ownable.sol\":2985:3001  address oldOwner */\n  0x00\n    /* \"@openzeppelin/contracts/access/Ownable.sol\":3004:3010  _owner */\n  0x00\n  0x00\n  swap1\n  sload\n  swap1\n  0x0100\n  exp\n  swap1\n  div\n  0xffffffffffffffffffffffffffffffffffffffff\n  and\n    /* \"@openzeppelin/contracts/access/Ownable.sol\":2985:3010  address oldOwner = _owner */\n  swap1\n  pop\n    /* \"@openzeppelin/contracts/access/Ownable.sol\":3029:3037  newOwner */\n  dup2\n    /* \"@openzeppelin/contracts/access/Ownable.sol\":3020:3026  _owner */\n  0x00\n  0x00\n    /* \"@openzeppelin/contracts/access/Ownable.sol\":3020:3037  _owner = newOwner */\n  0x0100\n  exp\n  dup2\n  sload\n  dup2\n  0xffffffffffffffffffffffffffffffffffffffff\n  mul\n  not\n  and\n  swap1\n  dup4\n  0xffffffffffffffffffffffffffffffffffffffff\n  and\n  mul\n  or\n  swap1\n  sstore\n  pop\n    /* \"@openzeppelin/contracts/access/Ownable.sol\":3083:3091  newOwner */\n  dup2\n    /* \"@openzeppelin/contracts/access/Ownable.sol\":3052:3092  OwnershipTransferred(oldOwner, newOwner) */\n  0xffffffffffffffffffffffffffffffffffffffff\n  and\n    /* \"@openzeppelin/contracts/access/Ownable.sol\":3073:3081  oldOwner */\n  dup2\n    /* \"@openzeppelin/contracts/access/Ownable.sol\":3052:3092  OwnershipTransferred(oldOwner, newOwner) */\n  0xffffffffffffffffffffffffffffffffffffffff\n  and\n  0x8be0079c531659141344cd1fd0a4f28419497f9722a3daafe3b4186f6b6457e0\n  mload(0x40)\n  mload(0x40)\n  dup1\n  swap2\n  sub\n  swap1\n  log3\n    /* \"@openzeppelin/contracts/access/Ownable.sol\":2975:3099  {... */\n  pop\n    /* \"@openzeppelin/contracts/access/Ownable.sol\":2912:3099  function _transferOwnership(address newOwner) internal virtual {... */\n  pop\n  jump\t// out\n    /* \"CrNFTMarketPlace/contracts/CRNFTMarketplace.sol\":1518:1611  function _setTotalSupply(uint256 newNumber) internal {... */\ntag_18:\n    /* \"CrNFTMarketPlace/contracts/CRNFTMarketplace.sol\":1595:1604  newNumber */\n  dup1\n    /* \"CrNFTMarketPlace/contracts/CRNFTMarketplace.sol\":1581:1592  totalSupply */\n  0x04\n    /* \"CrNFTMarketPlace/contracts/CRNFTMarketplace.sol\":1581:1604  totalSupply = newNumber */\n  dup2\n  swap1\n  sstore\n  pop\n    /* \"CrNFTMarketPlace/contracts/CRNFTMarketplace.sol\":1518:1611  function _setTotalSupply(uint256 newNumber) internal {... */\n  pop\n  jump\t// out\n    /* \"#utility.yul\":88:205   */\ntag_23:\n    /* \"#utility.yul\":197:198   */\n  0x00\n    /* \"#utility.yul\":194:195   */\n  0x00\n    /* \"#utility.yul\":187:199   */\n  revert\n    /* \"#utility.yul\":334:411   */\ntag_25:\n    /* \"#utility.yul\":371:378   */\n  0x00\n    /* \"#utility.yul\":400:405   */\n  dup2\n    /* \"#utility.yul\":389:405   */\n  swap1\n  pop\n    /* \"#utility.yul\":334:411   */\n  swap2\n  swap1\n  pop\n  jump\t// out\n    /* \"#utility.yul\":417:539   */\ntag_26:\n    /* \"#utility.yul\":490:514   */\n  tag_37\n    /* \"#utility.yul\":508:513   */\n  dup2\n    /* \"#utility.yul\":490:514   */\n  tag_25\n  jump\t// in\ntag_37:\n    /* \"#utility.yul\":483:488   */\n  dup2\n    /* \"#utility.yul\":480:515   */\n  eq\n    /* \"#utility.yul\":470:533   */\n  tag_38\n  jumpi\n    /* \"#utility.yul\":529:530   */\n  0x00\n    /* \"#utility.yul\":526:527   */\n  0x00\n    /* \"#utility.yul\":519:531   */\n  revert\n    /* \"#utility.yul\":470:533   */\ntag_38:\n    /* \"#utility.yul\":417:539   */\n  pop\n  jump\t// out\n    /* \"#utility.yul\":545:688   */\ntag_27:\n    /* \"#utility.yul\":602:607   */\n  0x00\n    /* \"#utility.yul\":633:639   */\n  dup2\n    /* \"#utility.yul\":627:640   */\n  mload\n    /* \"#utility.yul\":618:640   */\n  swap1\n  pop\n    /* \"#utility.yul\":649:682   */\n  tag_40\n    /* \"#utility.yul\":676:681   */\n  dup2\n    /* \"#utility.yul\":649:682   */\n  tag_26\n  jump\t// in\ntag_40:\n    /* \"#utility.yul\":545:688   */\n  swap3\n  swap2\n  pop\n  pop\n  jump\t// out\n    /* \"#utility.yul\":694:1045   */\ntag_3:\n    /* \"#utility.yul\":764:770   */\n  0x00\n    /* \"#utility.yul\":813:815   */\n  0x20\n    /* \"#utility.yul\":801:810   */\n  dup3\n    /* \"#utility.yul\":792:799   */\n  dup5\n    /* \"#utility.yul\":788:811   */\n  sub\n    /* \"#utility.yul\":784:816   */\n  slt\n    /* \"#utility.yul\":781:900   */\n  iszero\n  tag_42\n  jumpi\n    /* \"#utility.yul\":819:898   */\n  tag_43\n  tag_23\n  jump\t// in\ntag_43:\n    /* \"#utility.yul\":781:900   */\ntag_42:\n    /* \"#utility.yul\":939:940   */\n  0x00\n    /* \"#utility.yul\":964:1028   */\n  tag_44\n    /* \"#utility.yul\":1020:1027   */\n  dup5\n    /* \"#utility.yul\":1011:1017   */\n  dup3\n    /* \"#utility.yul\":1000:1009   */\n  dup6\n    /* \"#utility.yul\":996:1018   */\n  add\n    /* \"#utility.yul\":964:1028   */\n  tag_27\n  jump\t// in\ntag_44:\n    /* \"#utility.yul\":954:1028   */\n  swap2\n  pop\n    /* \"#utility.yul\":910:1038   */\n  pop\n    /* \"#utility.yul\":694:1045   */\n  swap3\n  swap2\n  pop\n  pop\n  jump\t// out\n    /* \"#utility.yul\":1051:1177   */\ntag_28:\n    /* \"#utility.yul\":1088:1095   */\n  0x00\n    /* \"#utility.yul\":1128:1170   */\n  0xffffffffffffffffffffffffffffffffffffffff\n    /* \"#utility.yul\":1121:1126   */\n  dup3\n    /* \"#utility.yul\":1117:1171   */\n  and\n    /* \"#utility.yul\":1106:1171   */\n  swap1\n  pop\n    /* \"#utility.yul\":1051:1177   */\n  swap2\n  swap1\n  pop\n  jump\t// out\n    /* \"#utility.yul\":1183:1279   */\ntag_29:\n    /* \"#utility.yul\":1220:1227   */\n  0x00\n    /* \"#utility.yul\":1249:1273   */\n  tag_47\n    /* \"#utility.yul\":1267:1272   */\n  dup3\n    /* \"#utility.yul\":1249:1273   */\n  tag_28\n  jump\t// in\ntag_47:\n    /* \"#utility.yul\":1238:1273   */\n  swap1\n  pop\n    /* \"#utility.yul\":1183:1279   */\n  swap2\n  swap1\n  pop\n  jump\t// out\n    /* \"#utility.yul\":1285:1403   */\ntag_30:\n    /* \"#utility.yul\":1372:1396   */\n  tag_49\n    /* \"#utility.yul\":1390:1395   */\n  dup2\n    /* \"#utility.yul\":1372:1396   */\n  tag_29\n  jump\t// in\ntag_49:\n    /* \"#utility.yul\":1367:1370   */\n  dup3\n    /* \"#utility.yul\":1360:1397   */\n  mstore\n    /* \"#utility.yul\":1285:1403   */\n  pop\n  pop\n  jump\t// out\n    /* \"#utility.yul\":1409:1631   */\ntag_11:\n    /* \"#utility.yul\":1502:1506   */\n  0x00\n    /* \"#utility.yul\":1540:1542   */\n  0x20\n    /* \"#utility.yul\":1529:1538   */\n  dup3\n    /* \"#utility.yul\":1525:1543   */\n  add\n    /* \"#utility.yul\":1517:1543   */\n  swap1\n  pop\n    /* \"#utility.yul\":1553:1624   */\n  tag_51\n    /* \"#utility.yul\":1621:1622   */\n  0x00\n    /* \"#utility.yul\":1610:1619   */\n  dup4\n    /* \"#utility.yul\":1606:1623   */\n  add\n    /* \"#utility.yul\":1597:1603   */\n  dup5\n    /* \"#utility.yul\":1553:1624   */\n  tag_30\n  jump\t// in\ntag_51:\n    /* \"#utility.yul\":1409:1631   */\n  swap3\n  swap2\n  pop\n  pop\n  jump\t// out\n    /* \"CrNFTMarketPlace/contracts/CRNFTMarketplace.sol\":231:4996  contract NFTMarketplace is Ownable, ReentrancyGuard , Pausable{... */\ntag_19:\n  dataSize(sub_0)\n  dup1\n  dataOffset(sub_0)\n  0x00\n  codecopy\n  0x00\n  return\nstop\n\nsub_0: assembly {\n        /* \"CrNFTMarketPlace/contracts/CRNFTMarketplace.sol\":231:4996  contract NFTMarketplace is Ownable, ReentrancyGuard , Pausable{... */\n      mstore(0x40, 0x80)\n      jumpi(tag_1, lt(calldatasize, 0x04))\n      shr(0xe0, calldataload(0x00))\n      dup1\n      0x715018a6\n      gt\n      tag_17\n      jumpi\n      dup1\n      0xd63d4af0\n      gt\n      tag_18\n      jumpi\n      dup1\n      0xd63d4af0\n      eq\n      tag_13\n      jumpi\n      dup1\n      0xd85d3d27\n      eq\n      tag_14\n      jumpi\n      dup1\n      0xde74e57b\n      eq\n      tag_15\n      jumpi\n      dup1\n      0xf2fde38b\n      eq\n      tag_16\n      jumpi\n      jump(tag_1)\n    tag_18:\n      dup1\n      0x715018a6\n      eq\n      tag_9\n      jumpi\n      dup1\n      0x8456cb59\n      eq\n      tag_10\n      jumpi\n      dup1\n      0x8da5cb5b\n      eq\n      tag_11\n      jumpi\n      dup1\n      0x94383f14\n      eq\n      tag_12\n      jumpi\n      jump(tag_1)\n    tag_17:\n      dup1\n      0x28b60031\n      gt\n      tag_19\n      jumpi\n      dup1\n      0x28b60031\n      eq\n      tag_5\n      jumpi\n      dup1\n      0x3bb3a24d\n      eq\n      tag_6\n      jumpi\n      dup1\n      0x3f4ba83a\n      eq\n      tag_7\n      jumpi\n      dup1\n      0x5c975abb\n      eq\n      tag_8\n      jumpi\n      jump(tag_1)\n    tag_19:\n      dup1\n      0x150bde03\n      eq\n      tag_2\n      jumpi\n      dup1\n      0x18160ddd\n      eq\n      tag_3\n      jumpi\n      dup1\n      0x265aa621\n      eq\n      tag_4\n      jumpi\n    tag_1:\n      revert(0x00, 0x00)\n        /* \"CrNFTMarketPlace/contracts/CRNFTMarketplace.sol\":2859:4274  function purchaseNFT(uint256 _tokenId)... */\n    tag_2:\n      tag_20\n      0x04\n      dup1\n      calldatasize\n      sub\n      dup2\n      add\n      swap1\n      tag_21\n      swap2\n      swap1\n      tag_22\n      jump\t// in\n    tag_21:\n      tag_23\n      jump\t// in\n    tag_20:\n      stop\n        /* \"CrNFTMarketPlace/contracts/CRNFTMarketplace.sol\":832:858  uint256 public totalSupply */\n    tag_3:\n      callvalue\n      dup1\n      iszero\n      tag_24\n      jumpi\n      revert(0x00, 0x00)\n    tag_24:\n      pop\n      tag_25\n      tag_26\n      jump\t// in\n    tag_25:\n      mload(0x40)\n      tag_27\n      swap2\n      swap1\n      tag_28\n      jump\t// in\n    tag_27:\n      mload(0x40)\n      dup1\n      swap2\n      sub\n      swap1\n      return\n        /* \"CrNFTMarketPlace/contracts/CRNFTMarketplace.sol\":864:899  mapping(uint256 => NFT) public nfts */\n    tag_4:\n      callvalue\n      dup1\n      iszero\n      tag_29\n      jumpi\n      revert(0x00, 0x00)\n    tag_29:\n      pop\n      tag_30\n      0x04\n      dup1\n      calldatasize\n      sub\n      dup2\n      add\n      swap1\n      tag_31\n      swap2\n      swap1\n      tag_22\n      jump\t// in\n    tag_31:\n      tag_32\n      jump\t// in\n    tag_30:\n      mload(0x40)\n      tag_33\n      swap4\n      swap3\n      swap2\n      swap1\n      tag_34\n      jump\t// in\n    tag_33:\n      mload(0x40)\n      dup1\n      swap2\n      sub\n      swap1\n      return\n        /* \"CrNFTMarketPlace/contracts/CRNFTMarketplace.sol\":954:1002  mapping(address => uint256[]) public ownerTokens */\n    tag_5:\n      callvalue\n      dup1\n      iszero\n      tag_35\n      jumpi\n      revert(0x00, 0x00)\n    tag_35:\n      pop\n      tag_36\n      0x04\n      dup1\n      calldatasize\n      sub\n      dup2\n      add\n      swap1\n      tag_37\n      swap2\n      swap1\n      tag_38\n      jump\t// in\n    tag_37:\n      tag_39\n      jump\t// in\n    tag_36:\n      mload(0x40)\n      tag_40\n      swap2\n      swap1\n      tag_28\n      jump\t// in\n    tag_40:\n      mload(0x40)\n      dup1\n      swap2\n      sub\n      swap1\n      return\n        /* \"CrNFTMarketPlace/contracts/CRNFTMarketplace.sol\":4842:4994  function getTokenURI(uint256 _tokenId)... */\n    tag_6:\n      callvalue\n      dup1\n      iszero\n      tag_41\n      jumpi\n      revert(0x00, 0x00)\n    tag_41:\n      pop\n      tag_42\n      0x04\n      dup1\n      calldatasize\n      sub\n      dup2\n      add\n      swap1\n      tag_43\n      swap2\n      swap1\n      tag_22\n      jump\t// in\n    tag_43:\n      tag_44\n      jump\t// in\n    tag_42:\n      mload(0x40)\n      tag_45\n      swap2\n      swap1\n      tag_46\n      jump\t// in\n    tag_45:\n      mload(0x40)\n      dup1\n      swap2\n      sub\n      swap1\n      return\n        /* \"CrNFTMarketPlace/contracts/CRNFTMarketplace.sol\":1783:1871  function unpause() public onlyOwner {... */\n    tag_7:\n      callvalue\n      dup1\n      iszero\n      tag_47\n      jumpi\n      revert(0x00, 0x00)\n    tag_47:\n      pop\n      tag_48\n      tag_49\n      jump\t// in\n    tag_48:\n      stop\n        /* \"@openzeppelin/contracts/security/Pausable.sol\":1615:1699  function paused() public view virtual returns (bool) {... */\n    tag_8:\n      callvalue\n      dup1\n      iszero\n      tag_50\n      jumpi\n      revert(0x00, 0x00)\n    tag_50:\n      pop\n      tag_51\n      tag_52\n      jump\t// in\n    tag_51:\n      mload(0x40)\n      tag_53\n      swap2\n      swap1\n      tag_54\n      jump\t// in\n    tag_53:\n      mload(0x40)\n      dup1\n      swap2\n      sub\n      swap1\n      return\n        /* \"@openzeppelin/contracts/access/Ownable.sol\":2293:2394  function renounceOwnership() public virtual onlyOwner {... */\n    tag_9:\n      callvalue\n      dup1\n      iszero\n      tag_55\n      jumpi\n      revert(0x00, 0x00)\n    tag_55:\n      pop\n      tag_56\n      tag_57\n      jump\t// in\n    tag_56:\n      stop\n        /* \"CrNFTMarketPlace/contracts/CRNFTMarketplace.sol\":1695:1777  function pause() public onlyOwner {... */\n    tag_10:\n      callvalue\n      dup1\n      iszero\n      tag_58\n      jumpi\n      revert(0x00, 0x00)\n    tag_58:\n      pop\n      tag_59\n      tag_60\n      jump\t// in\n    tag_59:\n      stop\n        /* \"@openzeppelin/contracts/access/Ownable.sol\":1638:1723  function owner() public view virtual returns (address) {... */\n    tag_11:\n      callvalue\n      dup1\n      iszero\n      tag_61\n      jumpi\n      revert(0x00, 0x00)\n    tag_61:\n      pop\n      tag_62\n      tag_63\n      jump\t// in\n    tag_62:\n      mload(0x40)\n      tag_64\n      swap2\n      swap1\n      tag_65\n      jump\t// in\n    tag_64:\n      mload(0x40)\n      dup1\n      swap2\n      sub\n      swap1\n      return\n        /* \"CrNFTMarketPlace/contracts/CRNFTMarketplace.sol\":2473:2853  function listNFT(uint256 _tokenId, uint256 _price) external {... */\n    tag_12:\n      callvalue\n      dup1\n      iszero\n      tag_66\n      jumpi\n      revert(0x00, 0x00)\n    tag_66:\n      pop\n      tag_67\n      0x04\n      dup1\n      calldatasize\n      sub\n      dup2\n      add\n      swap1\n      tag_68\n      swap2\n      swap1\n      tag_69\n      jump\t// in\n    tag_68:\n      tag_70\n      jump\t// in\n    tag_67:\n      stop\n        /* \"CrNFTMarketPlace/contracts/CRNFTMarketplace.sol\":4684:4836  function getOwnerTokens(address _owner)... */\n    tag_13:\n      callvalue\n      dup1\n      iszero\n      tag_71\n      jumpi\n      revert(0x00, 0x00)\n    tag_71:\n      pop\n      tag_72\n      0x04\n      dup1\n      calldatasize\n      sub\n      dup2\n      add\n      swap1\n      tag_73\n      swap2\n      swap1\n      tag_74\n      jump\t// in\n    tag_73:\n      tag_75\n      jump\t// in\n    tag_72:\n      mload(0x40)\n      tag_76\n      swap2\n      swap1\n      tag_77\n      jump\t// in\n    tag_76:\n      mload(0x40)\n      dup1\n      swap2\n      sub\n      swap1\n      return\n        /* \"CrNFTMarketPlace/contracts/CRNFTMarketplace.sol\":1877:2467  function mint(string memory _tokenURI)... */\n    tag_14:\n      callvalue\n      dup1\n      iszero\n      tag_78\n      jumpi\n      revert(0x00, 0x00)\n    tag_78:\n      pop\n      tag_79\n      0x04\n      dup1\n      calldatasize\n      sub\n      dup2\n      add\n      swap1\n      tag_80\n      swap2\n      swap1\n      tag_81\n      jump\t// in\n    tag_80:\n      tag_82\n      jump\t// in\n    tag_79:\n      stop\n        /* \"CrNFTMarketPlace/contracts/CRNFTMarketplace.sol\":905:948  mapping(uint256 => Listing) public listings */\n    tag_15:\n      callvalue\n      dup1\n      iszero\n      tag_83\n      jumpi\n      revert(0x00, 0x00)\n    tag_83:\n      pop\n      tag_84\n      0x04\n      dup1\n      calldatasize\n      sub\n      dup2\n      add\n      swap1\n      tag_85\n      swap2\n      swap1\n      tag_22\n      jump\t// in\n    tag_85:\n      tag_86\n      jump\t// in\n    tag_84:\n      mload(0x40)\n      tag_87\n      swap4\n      swap3\n      swap2\n      swap1\n      tag_88\n      jump\t// in\n    tag_87:\n      mload(0x40)\n      dup1\n      swap2\n      sub\n      swap1\n      return\n        /* \"@openzeppelin/contracts/access/Ownable.sol\":2543:2758  function transferOwnership(address newOwner) public virtual onlyOwner {... */\n    tag_16:\n      callvalue\n      dup1\n      iszero\n      tag_89\n      jumpi\n      revert(0x00, 0x00)\n    tag_89:\n      pop\n      tag_90\n      0x04\n      dup1\n      calldatasize\n      sub\n      dup2\n      add\n      swap1\n      tag_91\n      swap2\n      swap1\n      tag_74\n      jump\t// in\n    tag_91:\n      tag_92\n      jump\t// in\n    tag_90:\n      stop\n        /* \"CrNFTMarketPlace/contracts/CRNFTMarketplace.sol\":2859:4274  function purchaseNFT(uint256 _tokenId)... */\n    tag_23:\n        /* \"@openzeppelin/contracts/security/Pausable.sol\":1239:1258  _requireNotPaused() */\n      tag_94\n        /* \"@openzeppelin/contracts/security/Pausable.sol\":1239:1256  _requireNotPaused */\n      tag_95\n        /* \"@openzeppelin/contracts/security/Pausable.sol\":1239:1258  _requireNotPaused() */\n      jump\t// in\n    tag_94:\n        /* \"@openzeppelin/contracts/security/ReentrancyGuard.sol\":2261:2282  _nonReentrantBefore() */\n      tag_97\n        /* \"@openzeppelin/contracts/security/ReentrancyGuard.sol\":2261:2280  _nonReentrantBefore */\n      tag_98\n        /* \"@openzeppelin/contracts/security/ReentrancyGuard.sol\":2261:2282  _nonReentrantBefore() */\n      jump\t// in\n    tag_97:\n        /* \"CrNFTMarketPlace/contracts/CRNFTMarketplace.sol\":2988:3010  Listing memory listing */\n      0x00\n        /* \"CrNFTMarketPlace/contracts/CRNFTMarketplace.sol\":3013:3021  listings */\n      0x06\n        /* \"CrNFTMarketPlace/contracts/CRNFTMarketplace.sol\":3013:3031  listings[_tokenId] */\n      0x00\n        /* \"CrNFTMarketPlace/contracts/CRNFTMarketplace.sol\":3022:3030  _tokenId */\n      dup4\n        /* \"CrNFTMarketPlace/contracts/CRNFTMarketplace.sol\":3013:3031  listings[_tokenId] */\n      dup2\n      mstore\n      0x20\n      add\n      swap1\n      dup2\n      mstore\n      0x20\n      add\n      0x00\n      keccak256\n        /* \"CrNFTMarketPlace/contracts/CRNFTMarketplace.sol\":2988:3031  Listing memory listing = listings[_tokenId] */\n      mload(0x40)\n      dup1\n      0x60\n      add\n      0x40\n      mstore\n      swap1\n      dup2\n      0x00\n      dup3\n      add\n      sload\n      dup2\n      mstore\n      0x20\n      add\n      0x01\n      dup3\n      add\n      0x00\n      swap1\n      sload\n      swap1\n      0x0100\n      exp\n      swap1\n      div\n      0xffffffffffffffffffffffffffffffffffffffff\n      and\n      0xffffffffffffffffffffffffffffffffffffffff\n      and\n      0xffffffffffffffffffffffffffffffffffffffff\n      and\n      dup2\n      mstore\n      0x20\n      add\n      0x01\n      dup3\n      add\n      0x14\n      swap1\n      sload\n      swap1\n      0x0100\n      exp\n      swap1\n      div\n      0xff\n      and\n      iszero\n      iszero\n      iszero\n      iszero\n      dup2\n      mstore\n      pop\n      pop\n      swap1\n      pop\n        /* \"CrNFTMarketPlace/contracts/CRNFTMarketplace.sol\":3050:3057  listing */\n      dup1\n        /* \"CrNFTMarketPlace/contracts/CRNFTMarketplace.sol\":3050:3064  listing.active */\n      0x40\n      add\n      mload\n        /* \"CrNFTMarketPlace/contracts/CRNFTMarketplace.sol\":3042:3088  require(listing.active, \"NFT is not for sale\") */\n      tag_100\n      jumpi\n      mload(0x40)\n      0x08c379a000000000000000000000000000000000000000000000000000000000\n      dup2\n      mstore\n      0x04\n      add\n      tag_101\n      swap1\n      tag_102\n      jump\t// in\n    tag_101:\n      mload(0x40)\n      dup1\n      swap2\n      sub\n      swap1\n      revert\n    tag_100:\n        /* \"CrNFTMarketPlace/contracts/CRNFTMarketplace.sol\":3119:3126  listing */\n      dup1\n        /* \"CrNFTMarketPlace/contracts/CRNFTMarketplace.sol\":3119:3132  listing.price */\n      0x00\n      add\n      mload\n        /* \"CrNFTMarketPlace/contracts/CRNFTMarketplace.sol\":3106:3115  msg.value */\n      callvalue\n        /* \"CrNFTMarketPlace/contracts/CRNFTMarketplace.sol\":3106:3132  msg.value >= listing.price */\n      lt\n      iszero\n        /* \"CrNFTMarketPlace/contracts/CRNFTMarketplace.sol\":3098:3155  require(msg.value >= listing.price, \"Insufficient funds\") */\n      tag_103\n      jumpi\n      mload(0x40)\n      0x08c379a000000000000000000000000000000000000000000000000000000000\n      dup2\n      mstore\n      0x04\n      add\n      tag_104\n      swap1\n      tag_105\n      jump\t// in\n    tag_104:\n      mload(0x40)\n      dup1\n      swap2\n      sub\n      swap1\n      revert\n    tag_103:\n        /* \"CrNFTMarketPlace/contracts/CRNFTMarketplace.sol\":3166:3179  uint256 price */\n      0x00\n        /* \"CrNFTMarketPlace/contracts/CRNFTMarketplace.sol\":3182:3189  listing */\n      dup2\n        /* \"CrNFTMarketPlace/contracts/CRNFTMarketplace.sol\":3182:3195  listing.price */\n      0x00\n      add\n      mload\n        /* \"CrNFTMarketPlace/contracts/CRNFTMarketplace.sol\":3166:3195  uint256 price = listing.price */\n      swap1\n      pop\n        /* \"CrNFTMarketPlace/contracts/CRNFTMarketplace.sol\":3205:3219  address seller */\n      0x00\n        /* \"CrNFTMarketPlace/contracts/CRNFTMarketplace.sol\":3222:3229  listing */\n      dup3\n        /* \"CrNFTMarketPlace/contracts/CRNFTMarketplace.sol\":3222:3236  listing.seller */\n      0x20\n      add\n      mload\n        /* \"CrNFTMarketPlace/contracts/CRNFTMarketplace.sol\":3205:3236  address seller = listing.seller */\n      swap1\n      pop\n        /* \"CrNFTMarketPlace/contracts/CRNFTMarketplace.sol\":3273:3274  0 */\n      0x00\n        /* \"CrNFTMarketPlace/contracts/CRNFTMarketplace.sol\":3255:3275  seller != address(0) */\n      0xffffffffffffffffffffffffffffffffffffffff\n      and\n        /* \"CrNFTMarketPlace/contracts/CRNFTMarketplace.sol\":3255:3261  seller */\n      dup2\n        /* \"CrNFTMarketPlace/contracts/CRNFTMarketplace.sol\":3255:3275  seller != address(0) */\n      0xffffffffffffffffffffffffffffffffffffffff\n      and\n      sub\n        /* \"CrNFTMarketPlace/contracts/CRNFTMarketplace.sol\":3247:3302  require(seller != address(0), \"Seller address is zero\") */\n      tag_106\n      jumpi\n      mload(0x40)\n      0x08c379a000000000000000000000000000000000000000000000000000000000\n      dup2\n      mstore\n      0x04\n      add\n      tag_107\n      swap1\n      tag_108\n      jump\t// in\n    tag_107:\n      mload(0x40)\n      dup1\n      swap2\n      sub\n      swap1\n      revert\n    tag_106:\n        /* \"CrNFTMarketPlace/contracts/CRNFTMarketplace.sol\":3339:3340  0 */\n      0x00\n        /* \"CrNFTMarketPlace/contracts/CRNFTMarketplace.sol\":3320:3341  owner() != address(0) */\n      0xffffffffffffffffffffffffffffffffffffffff\n      and\n        /* \"CrNFTMarketPlace/contracts/CRNFTMarketplace.sol\":3320:3327  owner() */\n      tag_109\n        /* \"CrNFTMarketPlace/contracts/CRNFTMarketplace.sol\":3320:3325  owner */\n      tag_63\n        /* \"CrNFTMarketPlace/contracts/CRNFTMarketplace.sol\":3320:3327  owner() */\n      jump\t// in\n    tag_109:\n        /* \"CrNFTMarketPlace/contracts/CRNFTMarketplace.sol\":3320:3341  owner() != address(0) */\n      0xffffffffffffffffffffffffffffffffffffffff\n      and\n      sub\n        /* \"CrNFTMarketPlace/contracts/CRNFTMarketplace.sol\":3312:3367  require(owner() != address(0), \"Owner address is zero\") */\n      tag_110\n      jumpi\n      mload(0x40)\n      0x08c379a000000000000000000000000000000000000000000000000000000000\n      dup2\n      mstore\n      0x04\n      add\n      tag_111\n      swap1\n      tag_112\n      jump\t// in\n    tag_111:\n      mload(0x40)\n      dup1\n      swap2\n      sub\n      swap1\n      revert\n    tag_110:\n        /* \"CrNFTMarketPlace/contracts/CRNFTMarketplace.sol\":3422:3428  seller */\n      dup1\n        /* \"CrNFTMarketPlace/contracts/CRNFTMarketplace.sol\":3398:3428  nfts[_tokenId].owner == seller */\n      0xffffffffffffffffffffffffffffffffffffffff\n      and\n        /* \"CrNFTMarketPlace/contracts/CRNFTMarketplace.sol\":3398:3402  nfts */\n      0x05\n        /* \"CrNFTMarketPlace/contracts/CRNFTMarketplace.sol\":3398:3412  nfts[_tokenId] */\n      0x00\n        /* \"CrNFTMarketPlace/contracts/CRNFTMarketplace.sol\":3403:3411  _tokenId */\n      dup7\n        /* \"CrNFTMarketPlace/contracts/CRNFTMarketplace.sol\":3398:3412  nfts[_tokenId] */\n      dup2\n      mstore\n      0x20\n      add\n      swap1\n      dup2\n      mstore\n      0x20\n      add\n      0x00\n      keccak256\n        /* \"CrNFTMarketPlace/contracts/CRNFTMarketplace.sol\":3398:3418  nfts[_tokenId].owner */\n      0x01\n      add\n      0x00\n      swap1\n      sload\n      swap1\n      0x0100\n      exp\n      swap1\n      div\n      0xffffffffffffffffffffffffffffffffffffffff\n      and\n        /* \"CrNFTMarketPlace/contracts/CRNFTMarketplace.sol\":3398:3428  nfts[_tokenId].owner == seller */\n      0xffffffffffffffffffffffffffffffffffffffff\n      and\n      eq\n        /* \"CrNFTMarketPlace/contracts/CRNFTMarketplace.sol\":3377:3484  require(... */\n      tag_113\n      jumpi\n      mload(0x40)\n      0x08c379a000000000000000000000000000000000000000000000000000000000\n      dup2\n      mstore\n      0x04\n      add\n      tag_114\n      swap1\n      tag_115\n      jump\t// in\n    tag_114:\n      mload(0x40)\n      dup1\n      swap2\n      sub\n      swap1\n      revert\n    tag_113:\n        /* \"CrNFTMarketPlace/contracts/CRNFTMarketplace.sol\":3495:3512  uint256 feeAmount */\n      0x00\n        /* \"CrNFTMarketPlace/contracts/CRNFTMarketplace.sol\":3531:3534  100 */\n      0x64\n        /* \"CrNFTMarketPlace/contracts/CRNFTMarketplace.sol\":3524:3527  fee */\n      sload(0x03)\n        /* \"CrNFTMarketPlace/contracts/CRNFTMarketplace.sol\":3516:3521  price */\n      dup5\n        /* \"CrNFTMarketPlace/contracts/CRNFTMarketplace.sol\":3516:3527  price * fee */\n      tag_116\n      swap2\n      swap1\n      tag_117\n      jump\t// in\n    tag_116:\n        /* \"CrNFTMarketPlace/contracts/CRNFTMarketplace.sol\":3515:3534  (price * fee) / 100 */\n      tag_118\n      swap2\n      swap1\n      tag_119\n      jump\t// in\n    tag_118:\n        /* \"CrNFTMarketPlace/contracts/CRNFTMarketplace.sol\":3495:3534  uint256 feeAmount = (price * fee) / 100 */\n      swap1\n      pop\n        /* \"CrNFTMarketPlace/contracts/CRNFTMarketplace.sol\":3544:3564  uint256 sellerAmount */\n      0x00\n        /* \"CrNFTMarketPlace/contracts/CRNFTMarketplace.sol\":3575:3584  feeAmount */\n      dup2\n        /* \"CrNFTMarketPlace/contracts/CRNFTMarketplace.sol\":3567:3572  price */\n      dup5\n        /* \"CrNFTMarketPlace/contracts/CRNFTMarketplace.sol\":3567:3584  price - feeAmount */\n      tag_120\n      swap2\n      swap1\n      tag_121\n      jump\t// in\n    tag_120:\n        /* \"CrNFTMarketPlace/contracts/CRNFTMarketplace.sol\":3544:3584  uint256 sellerAmount = price - feeAmount */\n      swap1\n      pop\n        /* \"CrNFTMarketPlace/contracts/CRNFTMarketplace.sol\":3618:3628  msg.sender */\n      caller\n        /* \"CrNFTMarketPlace/contracts/CRNFTMarketplace.sol\":3595:3599  nfts */\n      0x05\n        /* \"CrNFTMarketPlace/contracts/CRNFTMarketplace.sol\":3595:3609  nfts[_tokenId] */\n      0x00\n        /* \"CrNFTMarketPlace/contracts/CRNFTMarketplace.sol\":3600:3608  _tokenId */\n      dup9\n        /* \"CrNFTMarketPlace/contracts/CRNFTMarketplace.sol\":3595:3609  nfts[_tokenId] */\n      dup2\n      mstore\n      0x20\n      add\n      swap1\n      dup2\n      mstore\n      0x20\n      add\n      0x00\n      keccak256\n        /* \"CrNFTMarketPlace/contracts/CRNFTMarketplace.sol\":3595:3615  nfts[_tokenId].owner */\n      0x01\n      add\n      0x00\n        /* \"CrNFTMarketPlace/contracts/CRNFTMarketplace.sol\":3595:3628  nfts[_tokenId].owner = msg.sender */\n      0x0100\n      exp\n      dup2\n      sload\n      dup2\n      0xffffffffffffffffffffffffffffffffffffffff\n      mul\n      not\n      and\n      swap1\n      dup4\n      0xffffffffffffffffffffffffffffffffffffffff\n      and\n      mul\n      or\n      swap1\n      sstore\n      pop\n        /* \"CrNFTMarketPlace/contracts/CRNFTMarketplace.sol\":3638:3677  _removeTokenFromOwner(seller, _tokenId) */\n      tag_122\n        /* \"CrNFTMarketPlace/contracts/CRNFTMarketplace.sol\":3660:3666  seller */\n      dup4\n        /* \"CrNFTMarketPlace/contracts/CRNFTMarketplace.sol\":3668:3676  _tokenId */\n      dup8\n        /* \"CrNFTMarketPlace/contracts/CRNFTMarketplace.sol\":3638:3659  _removeTokenFromOwner */\n      tag_123\n        /* \"CrNFTMarketPlace/contracts/CRNFTMarketplace.sol\":3638:3677  _removeTokenFromOwner(seller, _tokenId) */\n      jump\t// in\n    tag_122:\n        /* \"CrNFTMarketPlace/contracts/CRNFTMarketplace.sol\":3687:3698  ownerTokens */\n      0x07\n        /* \"CrNFTMarketPlace/contracts/CRNFTMarketplace.sol\":3687:3710  ownerTokens[msg.sender] */\n      0x00\n        /* \"CrNFTMarketPlace/contracts/CRNFTMarketplace.sol\":3699:3709  msg.sender */\n      caller\n        /* \"CrNFTMarketPlace/contracts/CRNFTMarketplace.sol\":3687:3710  ownerTokens[msg.sender] */\n      0xffffffffffffffffffffffffffffffffffffffff\n      and\n      0xffffffffffffffffffffffffffffffffffffffff\n      and\n      dup2\n      mstore\n      0x20\n      add\n      swap1\n      dup2\n      mstore\n      0x20\n      add\n      0x00\n      keccak256\n        /* \"CrNFTMarketPlace/contracts/CRNFTMarketplace.sol\":3716:3724  _tokenId */\n      dup7\n        /* \"CrNFTMarketPlace/contracts/CRNFTMarketplace.sol\":3687:3725  ownerTokens[msg.sender].push(_tokenId) */\n      swap1\n      dup1\n      0x01\n      dup2\n      sload\n      add\n      dup1\n      dup3\n      sstore\n      dup1\n      swap2\n      pop\n      pop\n      0x01\n      swap1\n      sub\n      swap1\n      0x00\n      mstore\n      keccak256(0x00, 0x20)\n      add\n      0x00\n      swap1\n      swap2\n      swap1\n      swap2\n      swap1\n      swap2\n      pop\n      sstore\n        /* \"CrNFTMarketPlace/contracts/CRNFTMarketplace.sol\":3764:3769  false */\n      0x00\n        /* \"CrNFTMarketPlace/contracts/CRNFTMarketplace.sol\":3736:3744  listings */\n      0x06\n        /* \"CrNFTMarketPlace/contracts/CRNFTMarketplace.sol\":3736:3754  listings[_tokenId] */\n      0x00\n        /* \"CrNFTMarketPlace/contracts/CRNFTMarketplace.sol\":3745:3753  _tokenId */\n      dup9\n        /* \"CrNFTMarketPlace/contracts/CRNFTMarketplace.sol\":3736:3754  listings[_tokenId] */\n      dup2\n      mstore\n      0x20\n      add\n      swap1\n      dup2\n      mstore\n      0x20\n      add\n      0x00\n      keccak256\n        /* \"CrNFTMarketPlace/contracts/CRNFTMarketplace.sol\":3736:3761  listings[_tokenId].active */\n      0x01\n      add\n      0x14\n        /* \"CrNFTMarketPlace/contracts/CRNFTMarketplace.sol\":3736:3769  listings[_tokenId].active = false */\n      0x0100\n      exp\n      dup2\n      sload\n      dup2\n      0xff\n      mul\n      not\n      and\n      swap1\n      dup4\n      iszero\n      iszero\n      mul\n      or\n      swap1\n      sstore\n      pop\n        /* \"CrNFTMarketPlace/contracts/CRNFTMarketplace.sol\":3781:3797  bool sentToOwner */\n      0x00\n        /* \"CrNFTMarketPlace/contracts/CRNFTMarketplace.sol\":3803:3810  owner() */\n      tag_125\n        /* \"CrNFTMarketPlace/contracts/CRNFTMarketplace.sol\":3803:3808  owner */\n      tag_63\n        /* \"CrNFTMarketPlace/contracts/CRNFTMarketplace.sol\":3803:3810  owner() */\n      jump\t// in\n    tag_125:\n        /* \"CrNFTMarketPlace/contracts/CRNFTMarketplace.sol\":3803:3815  owner().call */\n      0xffffffffffffffffffffffffffffffffffffffff\n      and\n        /* \"CrNFTMarketPlace/contracts/CRNFTMarketplace.sol\":3823:3832  feeAmount */\n      dup4\n        /* \"CrNFTMarketPlace/contracts/CRNFTMarketplace.sol\":3803:3837  owner().call{value: feeAmount}(\"\") */\n      mload(0x40)\n      tag_126\n      swap1\n      tag_127\n      jump\t// in\n    tag_126:\n      0x00\n      mload(0x40)\n      dup1\n      dup4\n      sub\n      dup2\n      dup6\n      dup8\n      gas\n      call\n      swap3\n      pop\n      pop\n      pop\n      returndatasize\n      dup1\n      0x00\n      dup2\n      eq\n      tag_130\n      jumpi\n      mload(0x40)\n      swap2\n      pop\n      and(add(returndatasize, 0x3f), not(0x1f))\n      dup3\n      add\n      0x40\n      mstore\n      returndatasize\n      dup3\n      mstore\n      returndatasize\n      0x00\n      0x20\n      dup5\n      add\n      returndatacopy\n      jump(tag_129)\n    tag_130:\n      0x60\n      swap2\n      pop\n    tag_129:\n      pop\n        /* \"CrNFTMarketPlace/contracts/CRNFTMarketplace.sol\":3780:3837  (bool sentToOwner, ) = owner().call{value: feeAmount}(\"\") */\n      pop\n      swap1\n      pop\n        /* \"CrNFTMarketPlace/contracts/CRNFTMarketplace.sol\":3855:3866  sentToOwner */\n      dup1\n        /* \"CrNFTMarketPlace/contracts/CRNFTMarketplace.sol\":3847:3898  require(sentToOwner, \"Failed to send fee to owner\") */\n      tag_131\n      jumpi\n      mload(0x40)\n      0x08c379a000000000000000000000000000000000000000000000000000000000\n      dup2\n      mstore\n      0x04\n      add\n      tag_132\n      swap1\n      tag_133\n      jump\t// in\n    tag_132:\n      mload(0x40)\n      dup1\n      swap2\n      sub\n      swap1\n      revert\n    tag_131:\n        /* \"CrNFTMarketPlace/contracts/CRNFTMarketplace.sol\":3910:3927  bool sentToSeller */\n      0x00\n        /* \"CrNFTMarketPlace/contracts/CRNFTMarketplace.sol\":3933:3939  seller */\n      dup5\n        /* \"CrNFTMarketPlace/contracts/CRNFTMarketplace.sol\":3933:3944  seller.call */\n      0xffffffffffffffffffffffffffffffffffffffff\n      and\n        /* \"CrNFTMarketPlace/contracts/CRNFTMarketplace.sol\":3952:3964  sellerAmount */\n      dup4\n        /* \"CrNFTMarketPlace/contracts/CRNFTMarketplace.sol\":3933:3969  seller.call{value: sellerAmount}(\"\") */\n      mload(0x40)\n      tag_134\n      swap1\n      tag_127\n      jump\t// in\n    tag_134:\n      0x00\n      mload(0x40)\n      dup1\n      dup4\n      sub\n      dup2\n      dup6\n      dup8\n      gas\n      call\n      swap3\n      pop\n      pop\n      pop\n      returndatasize\n      dup1\n      0x00\n      dup2\n      eq\n      tag_137\n      jumpi\n      mload(0x40)\n      swap2\n      pop\n      and(add(returndatasize, 0x3f), not(0x1f))\n      dup3\n      add\n      0x40\n      mstore\n      returndatasize\n      dup3\n      mstore\n      returndatasize\n      0x00\n      0x20\n      dup5\n      add\n      returndatacopy\n      jump(tag_136)\n    tag_137:\n      0x60\n      swap2\n      pop\n    tag_136:\n      pop\n        /* \"CrNFTMarketPlace/contracts/CRNFTMarketplace.sol\":3909:3969  (bool sentToSeller, ) = seller.call{value: sellerAmount}(\"\") */\n      pop\n      swap1\n      pop\n        /* \"CrNFTMarketPlace/contracts/CRNFTMarketplace.sol\":3987:3999  sentToSeller */\n      dup1\n        /* \"CrNFTMarketPlace/contracts/CRNFTMarketplace.sol\":3979:4035  require(sentToSeller, \"Failed to send amount to seller\") */\n      tag_138\n      jumpi\n      mload(0x40)\n      0x08c379a000000000000000000000000000000000000000000000000000000000\n      dup2\n      mstore\n      0x04\n      add\n      tag_139\n      swap1\n      tag_140\n      jump\t// in\n    tag_139:\n      mload(0x40)\n      dup1\n      swap2\n      sub\n      swap1\n      revert\n    tag_138:\n        /* \"CrNFTMarketPlace/contracts/CRNFTMarketplace.sol\":4046:4066  uint256 excessAmount */\n      0x00\n        /* \"CrNFTMarketPlace/contracts/CRNFTMarketplace.sol\":4081:4086  price */\n      dup7\n        /* \"CrNFTMarketPlace/contracts/CRNFTMarketplace.sol\":4069:4078  msg.value */\n      callvalue\n        /* \"CrNFTMarketPlace/contracts/CRNFTMarketplace.sol\":4069:4086  msg.value - price */\n      tag_141\n      swap2\n      swap1\n      tag_121\n      jump\t// in\n    tag_141:\n        /* \"CrNFTMarketPlace/contracts/CRNFTMarketplace.sol\":4046:4086  uint256 excessAmount = msg.value - price */\n      swap1\n      pop\n        /* \"CrNFTMarketPlace/contracts/CRNFTMarketplace.sol\":4115:4116  0 */\n      0x00\n        /* \"CrNFTMarketPlace/contracts/CRNFTMarketplace.sol\":4100:4112  excessAmount */\n      dup2\n        /* \"CrNFTMarketPlace/contracts/CRNFTMarketplace.sol\":4100:4116  excessAmount > 0 */\n      gt\n        /* \"CrNFTMarketPlace/contracts/CRNFTMarketplace.sol\":4096:4268  if (excessAmount > 0) {... */\n      iszero\n      tag_142\n      jumpi\n        /* \"CrNFTMarketPlace/contracts/CRNFTMarketplace.sol\":4133:4146  bool refunded */\n      0x00\n        /* \"CrNFTMarketPlace/contracts/CRNFTMarketplace.sol\":4152:4162  msg.sender */\n      caller\n        /* \"CrNFTMarketPlace/contracts/CRNFTMarketplace.sol\":4152:4167  msg.sender.call */\n      0xffffffffffffffffffffffffffffffffffffffff\n      and\n        /* \"CrNFTMarketPlace/contracts/CRNFTMarketplace.sol\":4175:4187  excessAmount */\n      dup3\n        /* \"CrNFTMarketPlace/contracts/CRNFTMarketplace.sol\":4152:4192  msg.sender.call{value: excessAmount}(\"\") */\n      mload(0x40)\n      tag_143\n      swap1\n      tag_127\n      jump\t// in\n    tag_143:\n      0x00\n      mload(0x40)\n      dup1\n      dup4\n      sub\n      dup2\n      dup6\n      dup8\n      gas\n      call\n      swap3\n      pop\n      pop\n      pop\n      returndatasize\n      dup1\n      0x00\n      dup2\n      eq\n      tag_146\n      jumpi\n      mload(0x40)\n      swap2\n      pop\n      and(add(returndatasize, 0x3f), not(0x1f))\n      dup3\n      add\n      0x40\n      mstore\n      returndatasize\n      dup3\n      mstore\n      returndatasize\n      0x00\n      0x20\n      dup5\n      add\n      returndatacopy\n      jump(tag_145)\n    tag_146:\n      0x60\n      swap2\n      pop\n    tag_145:\n      pop\n        /* \"CrNFTMarketPlace/contracts/CRNFTMarketplace.sol\":4132:4192  (bool refunded, ) = msg.sender.call{value: excessAmount}(\"\") */\n      pop\n      swap1\n      pop\n        /* \"CrNFTMarketPlace/contracts/CRNFTMarketplace.sol\":4214:4222  refunded */\n      dup1\n        /* \"CrNFTMarketPlace/contracts/CRNFTMarketplace.sol\":4206:4257  require(refunded, \"Failed to refund excess amount\") */\n      tag_147\n      jumpi\n      mload(0x40)\n      0x08c379a000000000000000000000000000000000000000000000000000000000\n      dup2\n      mstore\n      0x04\n      add\n      tag_148\n      swap1\n      tag_149\n      jump\t// in\n    tag_148:\n      mload(0x40)\n      dup1\n      swap2\n      sub\n      swap1\n      revert\n    tag_147:\n        /* \"CrNFTMarketPlace/contracts/CRNFTMarketplace.sol\":4118:4268  {... */\n      pop\n        /* \"CrNFTMarketPlace/contracts/CRNFTMarketplace.sol\":4096:4268  if (excessAmount > 0) {... */\n    tag_142:\n        /* \"CrNFTMarketPlace/contracts/CRNFTMarketplace.sol\":2978:4274  {... */\n      pop\n      pop\n      pop\n      pop\n      pop\n      pop\n      pop\n      pop\n        /* \"@openzeppelin/contracts/security/ReentrancyGuard.sol\":2303:2323  _nonReentrantAfter() */\n      tag_150\n        /* \"@openzeppelin/contracts/security/ReentrancyGuard.sol\":2303:2321  _nonReentrantAfter */\n      tag_151\n        /* \"@openzeppelin/contracts/security/ReentrancyGuard.sol\":2303:2323  _nonReentrantAfter() */\n      jump\t// in\n    tag_150:\n        /* \"CrNFTMarketPlace/contracts/CRNFTMarketplace.sol\":2859:4274  function purchaseNFT(uint256 _tokenId)... */\n      pop\n      jump\t// out\n        /* \"CrNFTMarketPlace/contracts/CRNFTMarketplace.sol\":832:858  uint256 public totalSupply */\n    tag_26:\n      sload(0x04)\n      dup2\n      jump\t// out\n        /* \"CrNFTMarketPlace/contracts/CRNFTMarketplace.sol\":864:899  mapping(uint256 => NFT) public nfts */\n    tag_32:\n      mstore(0x20, 0x05)\n      dup1\n      0x00\n      mstore\n      keccak256(0x00, 0x40)\n      0x00\n      swap2\n      pop\n      swap1\n      pop\n      dup1\n      0x00\n      add\n      sload\n      swap1\n      dup1\n      0x01\n      add\n      0x00\n      swap1\n      sload\n      swap1\n      0x0100\n      exp\n      swap1\n      div\n      0xffffffffffffffffffffffffffffffffffffffff\n      and\n      swap1\n      dup1\n      0x02\n      add\n      dup1\n      sload\n      tag_152\n      swap1\n      tag_153\n      jump\t// in\n    tag_152:\n      dup1\n      0x1f\n      add\n      0x20\n      dup1\n      swap2\n      div\n      mul\n      0x20\n      add\n      mload(0x40)\n      swap1\n      dup2\n      add\n      0x40\n      mstore\n      dup1\n      swap3\n      swap2\n      swap1\n      dup2\n      dup2\n      mstore\n      0x20\n      add\n      dup3\n      dup1\n      sload\n      tag_154\n      swap1\n      tag_153\n      jump\t// in\n    tag_154:\n      dup1\n      iszero\n      tag_155\n      jumpi\n      dup1\n      0x1f\n      lt\n      tag_156\n      jumpi\n      0x0100\n      dup1\n      dup4\n      sload\n      div\n      mul\n      dup4\n      mstore\n      swap2\n      0x20\n      add\n      swap2\n      jump(tag_155)\n    tag_156:\n      dup3\n      add\n      swap2\n      swap1\n      0x00\n      mstore\n      keccak256(0x00, 0x20)\n      swap1\n    tag_157:\n      dup2\n      sload\n      dup2\n      mstore\n      swap1\n      0x01\n      add\n      swap1\n      0x20\n      add\n      dup1\n      dup4\n      gt\n      tag_157\n      jumpi\n      dup3\n      swap1\n      sub\n      0x1f\n      and\n      dup3\n      add\n      swap2\n    tag_155:\n      pop\n      pop\n      pop\n      pop\n      pop\n      swap1\n      pop\n      dup4\n      jump\t// out\n        /* \"CrNFTMarketPlace/contracts/CRNFTMarketplace.sol\":954:1002  mapping(address => uint256[]) public ownerTokens */\n    tag_39:\n      mstore(0x20, 0x07)\n      dup2\n      0x00\n      mstore\n      keccak256(0x00, 0x40)\n      dup2\n      dup2\n      sload\n      dup2\n      lt\n      tag_158\n      jumpi\n      0x00\n      dup1\n      revert\n    tag_158:\n      swap1\n      0x00\n      mstore\n      keccak256(0x00, 0x20)\n      add\n      0x00\n      swap2\n      pop\n      swap2\n      pop\n      pop\n      sload\n      dup2\n      jump\t// out\n        /* \"CrNFTMarketPlace/contracts/CRNFTMarketplace.sol\":4842:4994  function getTokenURI(uint256 _tokenId)... */\n    tag_44:\n        /* \"CrNFTMarketPlace/contracts/CRNFTMarketplace.sol\":4928:4941  string memory */\n      0x60\n        /* \"CrNFTMarketPlace/contracts/CRNFTMarketplace.sol\":4964:4968  nfts */\n      0x05\n        /* \"CrNFTMarketPlace/contracts/CRNFTMarketplace.sol\":4964:4978  nfts[_tokenId] */\n      0x00\n        /* \"CrNFTMarketPlace/contracts/CRNFTMarketplace.sol\":4969:4977  _tokenId */\n      dup4\n        /* \"CrNFTMarketPlace/contracts/CRNFTMarketplace.sol\":4964:4978  nfts[_tokenId] */\n      dup2\n      mstore\n      0x20\n      add\n      swap1\n      dup2\n      mstore\n      0x20\n      add\n      0x00\n      keccak256\n        /* \"CrNFTMarketPlace/contracts/CRNFTMarketplace.sol\":4964:4987  nfts[_tokenId].tokenURI */\n      0x02\n      add\n        /* \"CrNFTMarketPlace/contracts/CRNFTMarketplace.sol\":4957:4987  return nfts[_tokenId].tokenURI */\n      dup1\n      sload\n      tag_161\n      swap1\n      tag_153\n      jump\t// in\n    tag_161:\n      dup1\n      0x1f\n      add\n      0x20\n      dup1\n      swap2\n      div\n      mul\n      0x20\n      add\n      mload(0x40)\n      swap1\n      dup2\n      add\n      0x40\n      mstore\n      dup1\n      swap3\n      swap2\n      swap1\n      dup2\n      dup2\n      mstore\n      0x20\n      add\n      dup3\n      dup1\n      sload\n      tag_162\n      swap1\n      tag_153\n      jump\t// in\n    tag_162:\n      dup1\n      iszero\n      tag_163\n      jumpi\n      dup1\n      0x1f\n      lt\n      tag_164\n      jumpi\n      0x0100\n      dup1\n      dup4\n      sload\n      div\n      mul\n      dup4\n      mstore\n      swap2\n      0x20\n      add\n      swap2\n      jump(tag_163)\n    tag_164:\n      dup3\n      add\n      swap2\n      swap1\n      0x00\n      mstore\n      keccak256(0x00, 0x20)\n      swap1\n    tag_165:\n      dup2\n      sload\n      dup2\n      mstore\n      swap1\n      0x01\n      add\n      swap1\n      0x20\n      add\n      dup1\n      dup4\n      gt\n      tag_165\n      jumpi\n      dup3\n      swap1\n      sub\n      0x1f\n      and\n      dup3\n      add\n      swap2\n    tag_163:\n      pop\n      pop\n      pop\n      pop\n      pop\n      swap1\n      pop\n        /* \"CrNFTMarketPlace/contracts/CRNFTMarketplace.sol\":4842:4994  function getTokenURI(uint256 _tokenId)... */\n      swap2\n      swap1\n      pop\n      jump\t// out\n        /* \"CrNFTMarketPlace/contracts/CRNFTMarketplace.sol\":1783:1871  function unpause() public onlyOwner {... */\n    tag_49:\n        /* \"@openzeppelin/contracts/access/Ownable.sol\":1531:1544  _checkOwner() */\n      tag_167\n        /* \"@openzeppelin/contracts/access/Ownable.sol\":1531:1542  _checkOwner */\n      tag_168\n        /* \"@openzeppelin/contracts/access/Ownable.sol\":1531:1544  _checkOwner() */\n      jump\t// in\n    tag_167:\n        /* \"CrNFTMarketPlace/contracts/CRNFTMarketplace.sol\":1829:1839  _unpause() */\n      tag_170\n        /* \"CrNFTMarketPlace/contracts/CRNFTMarketplace.sol\":1829:1837  _unpause */\n      tag_171\n        /* \"CrNFTMarketPlace/contracts/CRNFTMarketplace.sol\":1829:1839  _unpause() */\n      jump\t// in\n    tag_170:\n        /* \"CrNFTMarketPlace/contracts/CRNFTMarketplace.sol\":1854:1864  Unpaused() */\n      0xa45f47fdea8a1efdd9029a5691c7f759c32b7c698632b563573e155625d16933\n      mload(0x40)\n      mload(0x40)\n      dup1\n      swap2\n      sub\n      swap1\n      log1\n        /* \"CrNFTMarketPlace/contracts/CRNFTMarketplace.sol\":1783:1871  function unpause() public onlyOwner {... */\n      jump\t// out\n        /* \"@openzeppelin/contracts/security/Pausable.sol\":1615:1699  function paused() public view virtual returns (bool) {... */\n    tag_52:\n        /* \"@openzeppelin/contracts/security/Pausable.sol\":1662:1666  bool */\n      0x00\n        /* \"@openzeppelin/contracts/security/Pausable.sol\":1685:1692  _paused */\n      0x02\n      0x00\n      swap1\n      sload\n      swap1\n      0x0100\n      exp\n      swap1\n      div\n      0xff\n      and\n        /* \"@openzeppelin/contracts/security/Pausable.sol\":1678:1692  return _paused */\n      swap1\n      pop\n        /* \"@openzeppelin/contracts/security/Pausable.sol\":1615:1699  function paused() public view virtual returns (bool) {... */\n      swap1\n      jump\t// out\n        /* \"@openzeppelin/contracts/access/Ownable.sol\":2293:2394  function renounceOwnership() public virtual onlyOwner {... */\n    tag_57:\n        /* \"@openzeppelin/contracts/access/Ownable.sol\":1531:1544  _checkOwner() */\n      tag_174\n        /* \"@openzeppelin/contracts/access/Ownable.sol\":1531:1542  _checkOwner */\n      tag_168\n        /* \"@openzeppelin/contracts/access/Ownable.sol\":1531:1544  _checkOwner() */\n      jump\t// in\n    tag_174:\n        /* \"@openzeppelin/contracts/access/Ownable.sol\":2357:2387  _transferOwnership(address(0)) */\n      tag_176\n        /* \"@openzeppelin/contracts/access/Ownable.sol\":2384:2385  0 */\n      0x00\n        /* \"@openzeppelin/contracts/access/Ownable.sol\":2357:2375  _transferOwnership */\n      tag_177\n        /* \"@openzeppelin/contracts/access/Ownable.sol\":2357:2387  _transferOwnership(address(0)) */\n      jump\t// in\n    tag_176:\n        /* \"@openzeppelin/contracts/access/Ownable.sol\":2293:2394  function renounceOwnership() public virtual onlyOwner {... */\n      jump\t// out\n        /* \"CrNFTMarketPlace/contracts/CRNFTMarketplace.sol\":1695:1777  function pause() public onlyOwner {... */\n    tag_60:\n        /* \"@openzeppelin/contracts/access/Ownable.sol\":1531:1544  _checkOwner() */\n      tag_179\n        /* \"@openzeppelin/contracts/access/Ownable.sol\":1531:1542  _checkOwner */\n      tag_168\n        /* \"@openzeppelin/contracts/access/Ownable.sol\":1531:1544  _checkOwner() */\n      jump\t// in\n    tag_179:\n        /* \"CrNFTMarketPlace/contracts/CRNFTMarketplace.sol\":1739:1747  _pause() */\n      tag_181\n        /* \"CrNFTMarketPlace/contracts/CRNFTMarketplace.sol\":1739:1745  _pause */\n      tag_182\n        /* \"CrNFTMarketPlace/contracts/CRNFTMarketplace.sol\":1739:1747  _pause() */\n      jump\t// in\n    tag_181:\n        /* \"CrNFTMarketPlace/contracts/CRNFTMarketplace.sol\":1762:1770  Paused() */\n      0x9e87fac88ff661f02d44f95383c817fece4bce600a3dab7a54406878b965e752\n      mload(0x40)\n      mload(0x40)\n      dup1\n      swap2\n      sub\n      swap1\n      log1\n        /* \"CrNFTMarketPlace/contracts/CRNFTMarketplace.sol\":1695:1777  function pause() public onlyOwner {... */\n      jump\t// out\n        /* \"@openzeppelin/contracts/access/Ownable.sol\":1638:1723  function owner() public view virtual returns (address) {... */\n    tag_63:\n        /* \"@openzeppelin/contracts/access/Ownable.sol\":1684:1691  address */\n      0x00\n        /* \"@openzeppelin/contracts/access/Ownable.sol\":1710:1716  _owner */\n      0x00\n      0x00\n      swap1\n      sload\n      swap1\n      0x0100\n      exp\n      swap1\n      div\n      0xffffffffffffffffffffffffffffffffffffffff\n      and\n        /* \"@openzeppelin/contracts/access/Ownable.sol\":1703:1716  return _owner */\n      swap1\n      pop\n        /* \"@openzeppelin/contracts/access/Ownable.sol\":1638:1723  function owner() public view virtual returns (address) {... */\n      swap1\n      jump\t// out\n        /* \"CrNFTMarketPlace/contracts/CRNFTMarketplace.sol\":2473:2853  function listNFT(uint256 _tokenId, uint256 _price) external {... */\n    tag_70:\n        /* \"CrNFTMarketPlace/contracts/CRNFTMarketplace.sol\":2575:2585  msg.sender */\n      caller\n        /* \"CrNFTMarketPlace/contracts/CRNFTMarketplace.sol\":2551:2585  nfts[_tokenId].owner == msg.sender */\n      0xffffffffffffffffffffffffffffffffffffffff\n      and\n        /* \"CrNFTMarketPlace/contracts/CRNFTMarketplace.sol\":2551:2555  nfts */\n      0x05\n        /* \"CrNFTMarketPlace/contracts/CRNFTMarketplace.sol\":2551:2565  nfts[_tokenId] */\n      0x00\n        /* \"CrNFTMarketPlace/contracts/CRNFTMarketplace.sol\":2556:2564  _tokenId */\n      dup5\n        /* \"CrNFTMarketPlace/contracts/CRNFTMarketplace.sol\":2551:2565  nfts[_tokenId] */\n      dup2\n      mstore\n      0x20\n      add\n      swap1\n      dup2\n      mstore\n      0x20\n      add\n      0x00\n      keccak256\n        /* \"CrNFTMarketPlace/contracts/CRNFTMarketplace.sol\":2551:2571  nfts[_tokenId].owner */\n      0x01\n      add\n      0x00\n      swap1\n      sload\n      swap1\n      0x0100\n      exp\n      swap1\n      div\n      0xffffffffffffffffffffffffffffffffffffffff\n      and\n        /* \"CrNFTMarketPlace/contracts/CRNFTMarketplace.sol\":2551:2585  nfts[_tokenId].owner == msg.sender */\n      0xffffffffffffffffffffffffffffffffffffffff\n      and\n      eq\n        /* \"CrNFTMarketPlace/contracts/CRNFTMarketplace.sol\":2543:2603  require(nfts[_tokenId].owner == msg.sender, \"Not the owner\") */\n      tag_185\n      jumpi\n      mload(0x40)\n      0x08c379a000000000000000000000000000000000000000000000000000000000\n      dup2\n      mstore\n      0x04\n      add\n      tag_186\n      swap1\n      tag_187\n      jump\t// in\n    tag_186:\n      mload(0x40)\n      dup1\n      swap2\n      sub\n      swap1\n      revert\n    tag_185:\n        /* \"CrNFTMarketPlace/contracts/CRNFTMarketplace.sol\":2630:2631  0 */\n      0x00\n        /* \"CrNFTMarketPlace/contracts/CRNFTMarketplace.sol\":2621:2627  _price */\n      dup2\n        /* \"CrNFTMarketPlace/contracts/CRNFTMarketplace.sol\":2621:2631  _price > 0 */\n      gt\n        /* \"CrNFTMarketPlace/contracts/CRNFTMarketplace.sol\":2613:2667  require(_price > 0, \"Price must be greater than zero\") */\n      tag_188\n      jumpi\n      mload(0x40)\n      0x08c379a000000000000000000000000000000000000000000000000000000000\n      dup2\n      mstore\n      0x04\n      add\n      tag_189\n      swap1\n      tag_190\n      jump\t// in\n    tag_189:\n      mload(0x40)\n      dup1\n      swap2\n      sub\n      swap1\n      revert\n    tag_188:\n        /* \"CrNFTMarketPlace/contracts/CRNFTMarketplace.sol\":2699:2803  Listing({... */\n      mload(0x40)\n      dup1\n      0x60\n      add\n      0x40\n      mstore\n      dup1\n        /* \"CrNFTMarketPlace/contracts/CRNFTMarketplace.sol\":2728:2734  _price */\n      dup3\n        /* \"CrNFTMarketPlace/contracts/CRNFTMarketplace.sol\":2699:2803  Listing({... */\n      dup2\n      mstore\n      0x20\n      add\n        /* \"CrNFTMarketPlace/contracts/CRNFTMarketplace.sol\":2756:2766  msg.sender */\n      caller\n        /* \"CrNFTMarketPlace/contracts/CRNFTMarketplace.sol\":2699:2803  Listing({... */\n      0xffffffffffffffffffffffffffffffffffffffff\n      and\n      dup2\n      mstore\n      0x20\n      add\n        /* \"CrNFTMarketPlace/contracts/CRNFTMarketplace.sol\":2788:2792  true */\n      0x01\n        /* \"CrNFTMarketPlace/contracts/CRNFTMarketplace.sol\":2699:2803  Listing({... */\n      iszero\n      iszero\n      dup2\n      mstore\n      pop\n        /* \"CrNFTMarketPlace/contracts/CRNFTMarketplace.sol\":2678:2686  listings */\n      0x06\n        /* \"CrNFTMarketPlace/contracts/CRNFTMarketplace.sol\":2678:2696  listings[_tokenId] */\n      0x00\n        /* \"CrNFTMarketPlace/contracts/CRNFTMarketplace.sol\":2687:2695  _tokenId */\n      dup5\n        /* \"CrNFTMarketPlace/contracts/CRNFTMarketplace.sol\":2678:2696  listings[_tokenId] */\n      dup2\n      mstore\n      0x20\n      add\n      swap1\n      dup2\n      mstore\n      0x20\n      add\n      0x00\n      keccak256\n        /* \"CrNFTMarketPlace/contracts/CRNFTMarketplace.sol\":2678:2803  listings[_tokenId] = Listing({... */\n      0x00\n      dup3\n      add\n      mload\n      dup2\n      0x00\n      add\n      sstore\n      0x20\n      dup3\n      add\n      mload\n      dup2\n      0x01\n      add\n      exp(0x0100, 0x00)\n      dup2\n      sload\n      dup2\n      0xffffffffffffffffffffffffffffffffffffffff\n      mul\n      not\n      and\n      swap1\n      dup4\n      0xffffffffffffffffffffffffffffffffffffffff\n      and\n      mul\n      or\n      swap1\n      sstore\n      pop\n      0x40\n      dup3\n      add\n      mload\n      dup2\n      0x01\n      add\n      exp(0x0100, 0x14)\n      dup2\n      sload\n      dup2\n      0xff\n      mul\n      not\n      and\n      swap1\n      dup4\n      iszero\n      iszero\n      mul\n      or\n      swap1\n      sstore\n      pop\n      swap1\n      pop\n      pop\n        /* \"CrNFTMarketPlace/contracts/CRNFTMarketplace.sol\":2829:2837  _tokenId */\n      dup2\n        /* \"CrNFTMarketPlace/contracts/CRNFTMarketplace.sol\":2819:2846  NFTListed(_tokenId, _price) */\n      0xa6cd73580a273eec6c1026108f6b63479fbaef5356dde4ff43e4b38dd187485f\n        /* \"CrNFTMarketPlace/contracts/CRNFTMarketplace.sol\":2839:2845  _price */\n      dup3\n        /* \"CrNFTMarketPlace/contracts/CRNFTMarketplace.sol\":2819:2846  NFTListed(_tokenId, _price) */\n      mload(0x40)\n      tag_191\n      swap2\n      swap1\n      tag_28\n      jump\t// in\n    tag_191:\n      mload(0x40)\n      dup1\n      swap2\n      sub\n      swap1\n      log2\n        /* \"CrNFTMarketPlace/contracts/CRNFTMarketplace.sol\":2473:2853  function listNFT(uint256 _tokenId, uint256 _price) external {... */\n      pop\n      pop\n      jump\t// out\n        /* \"CrNFTMarketPlace/contracts/CRNFTMarketplace.sol\":4684:4836  function getOwnerTokens(address _owner)... */\n    tag_75:\n        /* \"CrNFTMarketPlace/contracts/CRNFTMarketplace.sol\":4771:4787  uint256[] memory */\n      0x60\n        /* \"CrNFTMarketPlace/contracts/CRNFTMarketplace.sol\":4810:4821  ownerTokens */\n      0x07\n        /* \"CrNFTMarketPlace/contracts/CRNFTMarketplace.sol\":4810:4829  ownerTokens[_owner] */\n      0x00\n        /* \"CrNFTMarketPlace/contracts/CRNFTMarketplace.sol\":4822:4828  _owner */\n      dup4\n        /* \"CrNFTMarketPlace/contracts/CRNFTMarketplace.sol\":4810:4829  ownerTokens[_owner] */\n      0xffffffffffffffffffffffffffffffffffffffff\n      and\n      0xffffffffffffffffffffffffffffffffffffffff\n      and\n      dup2\n      mstore\n      0x20\n      add\n      swap1\n      dup2\n      mstore\n      0x20\n      add\n      0x00\n      keccak256\n        /* \"CrNFTMarketPlace/contracts/CRNFTMarketplace.sol\":4803:4829  return ownerTokens[_owner] */\n      dup1\n      sload\n      dup1\n      0x20\n      mul\n      0x20\n      add\n      mload(0x40)\n      swap1\n      dup2\n      add\n      0x40\n      mstore\n      dup1\n      swap3\n      swap2\n      swap1\n      dup2\n      dup2\n      mstore\n      0x20\n      add\n      dup3\n      dup1\n      sload\n      dup1\n      iszero\n      tag_193\n      jumpi\n      0x20\n      mul\n      dup3\n      add\n      swap2\n      swap1\n      0x00\n      mstore\n      keccak256(0x00, 0x20)\n      swap1\n    tag_194:\n      dup2\n      sload\n      dup2\n      mstore\n      0x20\n      add\n      swap1\n      0x01\n      add\n      swap1\n      dup1\n      dup4\n      gt\n      tag_194\n      jumpi\n    tag_193:\n      pop\n      pop\n      pop\n      pop\n      pop\n      swap1\n      pop\n        /* \"CrNFTMarketPlace/contracts/CRNFTMarketplace.sol\":4684:4836  function getOwnerTokens(address _owner)... */\n      swap2\n      swap1\n      pop\n      jump\t// out\n        /* \"CrNFTMarketPlace/contracts/CRNFTMarketplace.sol\":1877:2467  function mint(string memory _tokenURI)... */\n    tag_82:\n        /* \"@openzeppelin/contracts/security/Pausable.sol\":1239:1258  _requireNotPaused() */\n      tag_196\n        /* \"@openzeppelin/contracts/security/Pausable.sol\":1239:1256  _requireNotPaused */\n      tag_95\n        /* \"@openzeppelin/contracts/security/Pausable.sol\":1239:1258  _requireNotPaused() */\n      jump\t// in\n    tag_196:\n        /* \"CrNFTMarketPlace/contracts/CRNFTMarketplace.sol\":1979:1988  _tokenURI */\n      dup1\n        /* \"CrNFTMarketPlace/contracts/CRNFTMarketplace.sol\":1264:1279  _tokenURIExists */\n      0x08\n        /* \"CrNFTMarketPlace/contracts/CRNFTMarketplace.sol\":1264:1318  _tokenURIExists[keccak256(abi.encodePacked(tokenUri))] */\n      0x00\n        /* \"CrNFTMarketPlace/contracts/CRNFTMarketplace.sol\":1307:1315  tokenUri */\n      dup3\n        /* \"CrNFTMarketPlace/contracts/CRNFTMarketplace.sol\":1290:1316  abi.encodePacked(tokenUri) */\n      add(0x20, mload(0x40))\n      tag_198\n      swap2\n      swap1\n      tag_199\n      jump\t// in\n    tag_198:\n      mload(0x40)\n      0x20\n      dup2\n      dup4\n      sub\n      sub\n      dup2\n      mstore\n      swap1\n      0x40\n      mstore\n        /* \"CrNFTMarketPlace/contracts/CRNFTMarketplace.sol\":1280:1317  keccak256(abi.encodePacked(tokenUri)) */\n      dup1\n      mload\n      swap1\n      0x20\n      add\n      keccak256\n        /* \"CrNFTMarketPlace/contracts/CRNFTMarketplace.sol\":1264:1318  _tokenURIExists[keccak256(abi.encodePacked(tokenUri))] */\n      dup2\n      mstore\n      0x20\n      add\n      swap1\n      dup2\n      mstore\n      0x20\n      add\n      0x00\n      keccak256\n      0x00\n      swap1\n      sload\n      swap1\n      0x0100\n      exp\n      swap1\n      div\n      0xff\n      and\n        /* \"CrNFTMarketPlace/contracts/CRNFTMarketplace.sol\":1263:1318  !_tokenURIExists[keccak256(abi.encodePacked(tokenUri))] */\n      iszero\n        /* \"CrNFTMarketPlace/contracts/CRNFTMarketplace.sol\":1242:1368  require(... */\n      tag_200\n      jumpi\n      mload(0x40)\n      0x08c379a000000000000000000000000000000000000000000000000000000000\n      dup2\n      mstore\n      0x04\n      add\n      tag_201\n      swap1\n      tag_202\n      jump\t// in\n    tag_201:\n      mload(0x40)\n      dup1\n      swap2\n      sub\n      swap1\n      revert\n    tag_200:\n        /* \"CrNFTMarketPlace/contracts/CRNFTMarketplace.sol\":2012:2040  _isNotEmptyString(_tokenURI) */\n      tag_204\n        /* \"CrNFTMarketPlace/contracts/CRNFTMarketplace.sol\":2030:2039  _tokenURI */\n      dup3\n        /* \"CrNFTMarketPlace/contracts/CRNFTMarketplace.sol\":2012:2029  _isNotEmptyString */\n      tag_205\n        /* \"CrNFTMarketPlace/contracts/CRNFTMarketplace.sol\":2012:2040  _isNotEmptyString(_tokenURI) */\n      jump\t// in\n    tag_204:\n        /* \"CrNFTMarketPlace/contracts/CRNFTMarketplace.sol\":2004:2064  require(_isNotEmptyString(_tokenURI), \"Token URI is empty!\") */\n      tag_206\n      jumpi\n      mload(0x40)\n      0x08c379a000000000000000000000000000000000000000000000000000000000\n      dup2\n      mstore\n      0x04\n      add\n      tag_207\n      swap1\n      tag_208\n      jump\t// in\n    tag_207:\n      mload(0x40)\n      dup1\n      swap2\n      sub\n      swap1\n      revert\n    tag_206:\n        /* \"CrNFTMarketPlace/contracts/CRNFTMarketplace.sol\":2075:2093  uint256 newTokenId */\n      0x00\n        /* \"CrNFTMarketPlace/contracts/CRNFTMarketplace.sol\":2110:2111  1 */\n      0x01\n        /* \"CrNFTMarketPlace/contracts/CRNFTMarketplace.sol\":2096:2107  totalSupply */\n      sload(0x04)\n        /* \"CrNFTMarketPlace/contracts/CRNFTMarketplace.sol\":2096:2111  totalSupply + 1 */\n      tag_209\n      swap2\n      swap1\n      tag_210\n      jump\t// in\n    tag_209:\n        /* \"CrNFTMarketPlace/contracts/CRNFTMarketplace.sol\":2075:2111  uint256 newTokenId = totalSupply + 1 */\n      swap1\n      pop\n        /* \"CrNFTMarketPlace/contracts/CRNFTMarketplace.sol\":2141:2253  NFT({... */\n      mload(0x40)\n      dup1\n      0x60\n      add\n      0x40\n      mstore\n      dup1\n        /* \"CrNFTMarketPlace/contracts/CRNFTMarketplace.sol\":2168:2178  newTokenId */\n      dup3\n        /* \"CrNFTMarketPlace/contracts/CRNFTMarketplace.sol\":2141:2253  NFT({... */\n      dup2\n      mstore\n      0x20\n      add\n        /* \"CrNFTMarketPlace/contracts/CRNFTMarketplace.sol\":2199:2209  msg.sender */\n      caller\n        /* \"CrNFTMarketPlace/contracts/CRNFTMarketplace.sol\":2141:2253  NFT({... */\n      0xffffffffffffffffffffffffffffffffffffffff\n      and\n      dup2\n      mstore\n      0x20\n      add\n        /* \"CrNFTMarketPlace/contracts/CRNFTMarketplace.sol\":2233:2242  _tokenURI */\n      dup5\n        /* \"CrNFTMarketPlace/contracts/CRNFTMarketplace.sol\":2141:2253  NFT({... */\n      dup2\n      mstore\n      pop\n        /* \"CrNFTMarketPlace/contracts/CRNFTMarketplace.sol\":2122:2126  nfts */\n      0x05\n        /* \"CrNFTMarketPlace/contracts/CRNFTMarketplace.sol\":2122:2138  nfts[newTokenId] */\n      0x00\n        /* \"CrNFTMarketPlace/contracts/CRNFTMarketplace.sol\":2127:2137  newTokenId */\n      dup4\n        /* \"CrNFTMarketPlace/contracts/CRNFTMarketplace.sol\":2122:2138  nfts[newTokenId] */\n      dup2\n      mstore\n      0x20\n      add\n      swap1\n      dup2\n      mstore\n      0x20\n      add\n      0x00\n      keccak256\n        /* \"CrNFTMarketPlace/contracts/CRNFTMarketplace.sol\":2122:2253  nfts[newTokenId] = NFT({... */\n      0x00\n      dup3\n      add\n      mload\n      dup2\n      0x00\n      add\n      sstore\n      0x20\n      dup3\n      add\n      mload\n      dup2\n      0x01\n      add\n      exp(0x0100, 0x00)\n      dup2\n      sload\n      dup2\n      0xffffffffffffffffffffffffffffffffffffffff\n      mul\n      not\n      and\n      swap1\n      dup4\n      0xffffffffffffffffffffffffffffffffffffffff\n      and\n      mul\n      or\n      swap1\n      sstore\n      pop\n      0x40\n      dup3\n      add\n      mload\n      dup2\n      0x02\n      add\n      swap1\n      dup2\n      tag_211\n      swap2\n      swap1\n      tag_212\n      jump\t// in\n    tag_211:\n      pop\n      swap1\n      pop\n      pop\n        /* \"CrNFTMarketPlace/contracts/CRNFTMarketplace.sol\":2264:2275  ownerTokens */\n      0x07\n        /* \"CrNFTMarketPlace/contracts/CRNFTMarketplace.sol\":2264:2287  ownerTokens[msg.sender] */\n      0x00\n        /* \"CrNFTMarketPlace/contracts/CRNFTMarketplace.sol\":2276:2286  msg.sender */\n      caller\n        /* \"CrNFTMarketPlace/contracts/CRNFTMarketplace.sol\":2264:2287  ownerTokens[msg.sender] */\n      0xffffffffffffffffffffffffffffffffffffffff\n      and\n      0xffffffffffffffffffffffffffffffffffffffff\n      and\n      dup2\n      mstore\n      0x20\n      add\n      swap1\n      dup2\n      mstore\n      0x20\n      add\n      0x00\n      keccak256\n        /* \"CrNFTMarketPlace/contracts/CRNFTMarketplace.sol\":2293:2303  newTokenId */\n      dup2\n        /* \"CrNFTMarketPlace/contracts/CRNFTMarketplace.sol\":2264:2304  ownerTokens[msg.sender].push(newTokenId) */\n      swap1\n      dup1\n      0x01\n      dup2\n      sload\n      add\n      dup1\n      dup3\n      sstore\n      dup1\n      swap2\n      pop\n      pop\n      0x01\n      swap1\n      sub\n      swap1\n      0x00\n      mstore\n      keccak256(0x00, 0x20)\n      add\n      0x00\n      swap1\n      swap2\n      swap1\n      swap2\n      swap1\n      swap2\n      pop\n      sstore\n        /* \"CrNFTMarketPlace/contracts/CRNFTMarketplace.sol\":2373:2377  true */\n      0x01\n        /* \"CrNFTMarketPlace/contracts/CRNFTMarketplace.sol\":2315:2330  _tokenURIExists */\n      0x08\n        /* \"CrNFTMarketPlace/contracts/CRNFTMarketplace.sol\":2315:2370  _tokenURIExists[keccak256(abi.encodePacked(_tokenURI))] */\n      0x00\n        /* \"CrNFTMarketPlace/contracts/CRNFTMarketplace.sol\":2358:2367  _tokenURI */\n      dup6\n        /* \"CrNFTMarketPlace/contracts/CRNFTMarketplace.sol\":2341:2368  abi.encodePacked(_tokenURI) */\n      add(0x20, mload(0x40))\n      tag_214\n      swap2\n      swap1\n      tag_199\n      jump\t// in\n    tag_214:\n      mload(0x40)\n      0x20\n      dup2\n      dup4\n      sub\n      sub\n      dup2\n      mstore\n      swap1\n      0x40\n      mstore\n        /* \"CrNFTMarketPlace/contracts/CRNFTMarketplace.sol\":2331:2369  keccak256(abi.encodePacked(_tokenURI)) */\n      dup1\n      mload\n      swap1\n      0x20\n      add\n      keccak256\n        /* \"CrNFTMarketPlace/contracts/CRNFTMarketplace.sol\":2315:2370  _tokenURIExists[keccak256(abi.encodePacked(_tokenURI))] */\n      dup2\n      mstore\n      0x20\n      add\n      swap1\n      dup2\n      mstore\n      0x20\n      add\n      0x00\n      keccak256\n      0x00\n        /* \"CrNFTMarketPlace/contracts/CRNFTMarketplace.sol\":2315:2377  _tokenURIExists[keccak256(abi.encodePacked(_tokenURI))] = true */\n      0x0100\n      exp\n      dup2\n      sload\n      dup2\n      0xff\n      mul\n      not\n      and\n      swap1\n      dup4\n      iszero\n      iszero\n      mul\n      or\n      swap1\n      sstore\n      pop\n        /* \"CrNFTMarketPlace/contracts/CRNFTMarketplace.sol\":2388:2411  _incrementTotalSupply() */\n      tag_215\n        /* \"CrNFTMarketPlace/contracts/CRNFTMarketplace.sol\":2388:2409  _incrementTotalSupply */\n      tag_216\n        /* \"CrNFTMarketPlace/contracts/CRNFTMarketplace.sol\":2388:2411  _incrementTotalSupply() */\n      jump\t// in\n    tag_215:\n        /* \"CrNFTMarketPlace/contracts/CRNFTMarketplace.sol\":2449:2459  newTokenId */\n      dup1\n        /* \"CrNFTMarketPlace/contracts/CRNFTMarketplace.sol\":2437:2447  msg.sender */\n      caller\n        /* \"CrNFTMarketPlace/contracts/CRNFTMarketplace.sol\":2427:2460  NFTMinted(msg.sender, newTokenId) */\n      0xffffffffffffffffffffffffffffffffffffffff\n      and\n      0x4cc0a9c4a99ddc700de1af2c9f916a7cbfdb71f14801ccff94061ad1ef8a8040\n      mload(0x40)\n      mload(0x40)\n      dup1\n      swap2\n      sub\n      swap1\n      log3\n        /* \"CrNFTMarketPlace/contracts/CRNFTMarketplace.sol\":1994:2467  {... */\n      pop\n        /* \"@openzeppelin/contracts/security/Pausable.sol\":1268:1269  _ */\n      pop\n        /* \"CrNFTMarketPlace/contracts/CRNFTMarketplace.sol\":1877:2467  function mint(string memory _tokenURI)... */\n      pop\n      jump\t// out\n        /* \"CrNFTMarketPlace/contracts/CRNFTMarketplace.sol\":905:948  mapping(uint256 => Listing) public listings */\n    tag_86:\n      mstore(0x20, 0x06)\n      dup1\n      0x00\n      mstore\n      keccak256(0x00, 0x40)\n      0x00\n      swap2\n      pop\n      swap1\n      pop\n      dup1\n      0x00\n      add\n      sload\n      swap1\n      dup1\n      0x01\n      add\n      0x00\n      swap1\n      sload\n      swap1\n      0x0100\n      exp\n      swap1\n      div\n      0xffffffffffffffffffffffffffffffffffffffff\n      and\n      swap1\n      dup1\n      0x01\n      add\n      0x14\n      swap1\n      sload\n      swap1\n      0x0100\n      exp\n      swap1\n      div\n      0xff\n      and\n      swap1\n      pop\n      dup4\n      jump\t// out\n        /* \"@openzeppelin/contracts/access/Ownable.sol\":2543:2758  function transferOwnership(address newOwner) public virtual onlyOwner {... */\n    tag_92:\n        /* \"@openzeppelin/contracts/access/Ownable.sol\":1531:1544  _checkOwner() */\n      tag_218\n        /* \"@openzeppelin/contracts/access/Ownable.sol\":1531:1542  _checkOwner */\n      tag_168\n        /* \"@openzeppelin/contracts/access/Ownable.sol\":1531:1544  _checkOwner() */\n      jump\t// in\n    tag_218:\n        /* \"@openzeppelin/contracts/access/Ownable.sol\":2647:2648  0 */\n      0x00\n        /* \"@openzeppelin/contracts/access/Ownable.sol\":2627:2649  newOwner == address(0) */\n      0xffffffffffffffffffffffffffffffffffffffff\n      and\n        /* \"@openzeppelin/contracts/access/Ownable.sol\":2627:2635  newOwner */\n      dup2\n        /* \"@openzeppelin/contracts/access/Ownable.sol\":2627:2649  newOwner == address(0) */\n      0xffffffffffffffffffffffffffffffffffffffff\n      and\n      sub\n        /* \"@openzeppelin/contracts/access/Ownable.sol\":2623:2714  if (newOwner == address(0)) {... */\n      tag_220\n      jumpi\n        /* \"@openzeppelin/contracts/access/Ownable.sol\":2700:2701  0 */\n      0x00\n        /* \"@openzeppelin/contracts/access/Ownable.sol\":2672:2703  OwnableInvalidOwner(address(0)) */\n      mload(0x40)\n      0x1e4fbdf700000000000000000000000000000000000000000000000000000000\n      dup2\n      mstore\n      0x04\n      add\n      tag_221\n      swap2\n      swap1\n      tag_65\n      jump\t// in\n    tag_221:\n      mload(0x40)\n      dup1\n      swap2\n      sub\n      swap1\n      revert\n        /* \"@openzeppelin/contracts/access/Ownable.sol\":2623:2714  if (newOwner == address(0)) {... */\n    tag_220:\n        /* \"@openzeppelin/contracts/access/Ownable.sol\":2723:2751  _transferOwnership(newOwner) */\n      tag_222\n        /* \"@openzeppelin/contracts/access/Ownable.sol\":2742:2750  newOwner */\n      dup2\n        /* \"@openzeppelin/contracts/access/Ownable.sol\":2723:2741  _transferOwnership */\n      tag_177\n        /* \"@openzeppelin/contracts/access/Ownable.sol\":2723:2751  _transferOwnership(newOwner) */\n      jump\t// in\n    tag_222:\n        /* \"@openzeppelin/contracts/access/Ownable.sol\":2543:2758  function transferOwnership(address newOwner) public virtual onlyOwner {... */\n      pop\n      jump\t// out\n        /* \"@openzeppelin/contracts/security/Pausable.sol\":1767:1873  function _requireNotPaused() internal view virtual {... */\n    tag_95:\n        /* \"@openzeppelin/contracts/security/Pausable.sol\":1837:1845  paused() */\n      tag_224\n        /* \"@openzeppelin/contracts/security/Pausable.sol\":1837:1843  paused */\n      tag_52\n        /* \"@openzeppelin/contracts/security/Pausable.sol\":1837:1845  paused() */\n      jump\t// in\n    tag_224:\n        /* \"@openzeppelin/contracts/security/Pausable.sol\":1836:1845  !paused() */\n      iszero\n        /* \"@openzeppelin/contracts/security/Pausable.sol\":1828:1866  require(!paused(), \"Pausable: paused\") */\n      tag_225\n      jumpi\n      mload(0x40)\n      0x08c379a000000000000000000000000000000000000000000000000000000000\n      dup2\n      mstore\n      0x04\n      add\n      tag_226\n      swap1\n      tag_227\n      jump\t// in\n    tag_226:\n      mload(0x40)\n      dup1\n      swap2\n      sub\n      swap1\n      revert\n    tag_225:\n        /* \"@openzeppelin/contracts/security/Pausable.sol\":1767:1873  function _requireNotPaused() internal view virtual {... */\n      jump\t// out\n        /* \"@openzeppelin/contracts/security/ReentrancyGuard.sol\":2336:2623  function _nonReentrantBefore() private {... */\n    tag_98:\n        /* \"@openzeppelin/contracts/security/ReentrancyGuard.sol\":1759:1760  2 */\n      0x02\n        /* \"@openzeppelin/contracts/security/ReentrancyGuard.sol\":2468:2475  _status */\n      sload(0x01)\n        /* \"@openzeppelin/contracts/security/ReentrancyGuard.sol\":2468:2487  _status != _ENTERED */\n      sub\n        /* \"@openzeppelin/contracts/security/ReentrancyGuard.sol\":2460:2523  require(_status != _ENTERED, \"ReentrancyGuard: reentrant call\") */\n      tag_229\n      jumpi\n      mload(0x40)\n      0x08c379a000000000000000000000000000000000000000000000000000000000\n      dup2\n      mstore\n      0x04\n      add\n      tag_230\n      swap1\n      tag_231\n      jump\t// in\n    tag_230:\n      mload(0x40)\n      dup1\n      swap2\n      sub\n      swap1\n      revert\n    tag_229:\n        /* \"@openzeppelin/contracts/security/ReentrancyGuard.sol\":1759:1760  2 */\n      0x02\n        /* \"@openzeppelin/contracts/security/ReentrancyGuard.sol\":2598:2605  _status */\n      0x01\n        /* \"@openzeppelin/contracts/security/ReentrancyGuard.sol\":2598:2616  _status = _ENTERED */\n      dup2\n      swap1\n      sstore\n      pop\n        /* \"@openzeppelin/contracts/security/ReentrancyGuard.sol\":2336:2623  function _nonReentrantBefore() private {... */\n      jump\t// out\n        /* \"CrNFTMarketPlace/contracts/CRNFTMarketplace.sol\":4280:4678  function _removeTokenFromOwner(address _owner, uint256 _tokenId)... */\n    tag_123:\n        /* \"@openzeppelin/contracts/security/Pausable.sol\":1239:1258  _requireNotPaused() */\n      tag_233\n        /* \"@openzeppelin/contracts/security/Pausable.sol\":1239:1256  _requireNotPaused */\n      tag_95\n        /* \"@openzeppelin/contracts/security/Pausable.sol\":1239:1258  _requireNotPaused() */\n      jump\t// in\n    tag_233:\n        /* \"CrNFTMarketPlace/contracts/CRNFTMarketplace.sol\":4398:4422  uint256[] storage tokens */\n      0x00\n        /* \"CrNFTMarketPlace/contracts/CRNFTMarketplace.sol\":4425:4436  ownerTokens */\n      0x07\n        /* \"CrNFTMarketPlace/contracts/CRNFTMarketplace.sol\":4425:4444  ownerTokens[_owner] */\n      0x00\n        /* \"CrNFTMarketPlace/contracts/CRNFTMarketplace.sol\":4437:4443  _owner */\n      dup5\n        /* \"CrNFTMarketPlace/contracts/CRNFTMarketplace.sol\":4425:4444  ownerTokens[_owner] */\n      0xffffffffffffffffffffffffffffffffffffffff\n      and\n      0xffffffffffffffffffffffffffffffffffffffff\n      and\n      dup2\n      mstore\n      0x20\n      add\n      swap1\n      dup2\n      mstore\n      0x20\n      add\n      0x00\n      keccak256\n        /* \"CrNFTMarketPlace/contracts/CRNFTMarketplace.sol\":4398:4444  uint256[] storage tokens = ownerTokens[_owner] */\n      swap1\n      pop\n        /* \"CrNFTMarketPlace/contracts/CRNFTMarketplace.sol\":4459:4468  uint256 i */\n      0x00\n        /* \"CrNFTMarketPlace/contracts/CRNFTMarketplace.sol\":4471:4472  0 */\n      0x00\n        /* \"CrNFTMarketPlace/contracts/CRNFTMarketplace.sol\":4459:4472  uint256 i = 0 */\n      swap1\n      pop\n        /* \"CrNFTMarketPlace/contracts/CRNFTMarketplace.sol\":4454:4672  for (uint256 i = 0; i < tokens.length; i++) {... */\n    tag_235:\n        /* \"CrNFTMarketPlace/contracts/CRNFTMarketplace.sol\":4478:4484  tokens */\n      dup2\n        /* \"CrNFTMarketPlace/contracts/CRNFTMarketplace.sol\":4478:4491  tokens.length */\n      dup1\n      sload\n      swap1\n      pop\n        /* \"CrNFTMarketPlace/contracts/CRNFTMarketplace.sol\":4474:4475  i */\n      dup2\n        /* \"CrNFTMarketPlace/contracts/CRNFTMarketplace.sol\":4474:4491  i < tokens.length */\n      lt\n        /* \"CrNFTMarketPlace/contracts/CRNFTMarketplace.sol\":4454:4672  for (uint256 i = 0; i < tokens.length; i++) {... */\n      iszero\n      tag_236\n      jumpi\n        /* \"CrNFTMarketPlace/contracts/CRNFTMarketplace.sol\":4529:4537  _tokenId */\n      dup3\n        /* \"CrNFTMarketPlace/contracts/CRNFTMarketplace.sol\":4516:4522  tokens */\n      dup3\n        /* \"CrNFTMarketPlace/contracts/CRNFTMarketplace.sol\":4523:4524  i */\n      dup3\n        /* \"CrNFTMarketPlace/contracts/CRNFTMarketplace.sol\":4516:4525  tokens[i] */\n      dup2\n      sload\n      dup2\n      lt\n      tag_238\n      jumpi\n      tag_239\n      tag_240\n      jump\t// in\n    tag_239:\n    tag_238:\n      swap1\n      0x00\n      mstore\n      keccak256(0x00, 0x20)\n      add\n      sload\n        /* \"CrNFTMarketPlace/contracts/CRNFTMarketplace.sol\":4516:4537  tokens[i] == _tokenId */\n      sub\n        /* \"CrNFTMarketPlace/contracts/CRNFTMarketplace.sol\":4512:4662  if (tokens[i] == _tokenId) {... */\n      tag_242\n      jumpi\n        /* \"CrNFTMarketPlace/contracts/CRNFTMarketplace.sol\":4569:4575  tokens */\n      dup2\n        /* \"CrNFTMarketPlace/contracts/CRNFTMarketplace.sol\":4592:4593  1 */\n      0x01\n        /* \"CrNFTMarketPlace/contracts/CRNFTMarketplace.sol\":4576:4582  tokens */\n      dup4\n        /* \"CrNFTMarketPlace/contracts/CRNFTMarketplace.sol\":4576:4589  tokens.length */\n      dup1\n      sload\n      swap1\n      pop\n        /* \"CrNFTMarketPlace/contracts/CRNFTMarketplace.sol\":4576:4593  tokens.length - 1 */\n      tag_243\n      swap2\n      swap1\n      tag_121\n      jump\t// in\n    tag_243:\n        /* \"CrNFTMarketPlace/contracts/CRNFTMarketplace.sol\":4569:4594  tokens[tokens.length - 1] */\n      dup2\n      sload\n      dup2\n      lt\n      tag_244\n      jumpi\n      tag_245\n      tag_240\n      jump\t// in\n    tag_245:\n    tag_244:\n      swap1\n      0x00\n      mstore\n      keccak256(0x00, 0x20)\n      add\n      sload\n        /* \"CrNFTMarketPlace/contracts/CRNFTMarketplace.sol\":4557:4563  tokens */\n      dup3\n        /* \"CrNFTMarketPlace/contracts/CRNFTMarketplace.sol\":4564:4565  i */\n      dup3\n        /* \"CrNFTMarketPlace/contracts/CRNFTMarketplace.sol\":4557:4566  tokens[i] */\n      dup2\n      sload\n      dup2\n      lt\n      tag_247\n      jumpi\n      tag_248\n      tag_240\n      jump\t// in\n    tag_248:\n    tag_247:\n      swap1\n      0x00\n      mstore\n      keccak256(0x00, 0x20)\n      add\n        /* \"CrNFTMarketPlace/contracts/CRNFTMarketplace.sol\":4557:4594  tokens[i] = tokens[tokens.length - 1] */\n      dup2\n      swap1\n      sstore\n      pop\n        /* \"CrNFTMarketPlace/contracts/CRNFTMarketplace.sol\":4612:4618  tokens */\n      dup2\n        /* \"CrNFTMarketPlace/contracts/CRNFTMarketplace.sol\":4612:4624  tokens.pop() */\n      dup1\n      sload\n      dup1\n      tag_250\n      jumpi\n      tag_251\n      tag_252\n      jump\t// in\n    tag_251:\n    tag_250:\n      0x01\n      swap1\n      sub\n      dup2\n      dup2\n      swap1\n      0x00\n      mstore\n      keccak256(0x00, 0x20)\n      add\n      0x00\n      swap1\n      sstore\n      swap1\n      sstore\n        /* \"CrNFTMarketPlace/contracts/CRNFTMarketplace.sol\":4642:4647  break */\n      jump(tag_236)\n        /* \"CrNFTMarketPlace/contracts/CRNFTMarketplace.sol\":4512:4662  if (tokens[i] == _tokenId) {... */\n    tag_242:\n        /* \"CrNFTMarketPlace/contracts/CRNFTMarketplace.sol\":4493:4496  i++ */\n      dup1\n      dup1\n      0x01\n      add\n      swap2\n      pop\n      pop\n        /* \"CrNFTMarketPlace/contracts/CRNFTMarketplace.sol\":4454:4672  for (uint256 i = 0; i < tokens.length; i++) {... */\n      jump(tag_235)\n    tag_236:\n      pop\n        /* \"CrNFTMarketPlace/contracts/CRNFTMarketplace.sol\":4388:4678  {... */\n      pop\n        /* \"CrNFTMarketPlace/contracts/CRNFTMarketplace.sol\":4280:4678  function _removeTokenFromOwner(address _owner, uint256 _tokenId)... */\n      pop\n      pop\n      jump\t// out\n        /* \"@openzeppelin/contracts/security/ReentrancyGuard.sol\":2629:2838  function _nonReentrantAfter() private {... */\n    tag_151:\n        /* \"@openzeppelin/contracts/security/ReentrancyGuard.sol\":1716:1717  1 */\n      0x01\n        /* \"@openzeppelin/contracts/security/ReentrancyGuard.sol\":2809:2816  _status */\n      dup1\n        /* \"@openzeppelin/contracts/security/ReentrancyGuard.sol\":2809:2831  _status = _NOT_ENTERED */\n      dup2\n      swap1\n      sstore\n      pop\n        /* \"@openzeppelin/contracts/security/ReentrancyGuard.sol\":2629:2838  function _nonReentrantAfter() private {... */\n      jump\t// out\n        /* \"@openzeppelin/contracts/access/Ownable.sol\":1796:1958  function _checkOwner() internal view virtual {... */\n    tag_168:\n        /* \"@openzeppelin/contracts/access/Ownable.sol\":1866:1878  _msgSender() */\n      tag_256\n        /* \"@openzeppelin/contracts/access/Ownable.sol\":1866:1876  _msgSender */\n      tag_257\n        /* \"@openzeppelin/contracts/access/Ownable.sol\":1866:1878  _msgSender() */\n      jump\t// in\n    tag_256:\n        /* \"@openzeppelin/contracts/access/Ownable.sol\":1855:1878  owner() != _msgSender() */\n      0xffffffffffffffffffffffffffffffffffffffff\n      and\n        /* \"@openzeppelin/contracts/access/Ownable.sol\":1855:1862  owner() */\n      tag_258\n        /* \"@openzeppelin/contracts/access/Ownable.sol\":1855:1860  owner */\n      tag_63\n        /* \"@openzeppelin/contracts/access/Ownable.sol\":1855:1862  owner() */\n      jump\t// in\n    tag_258:\n        /* \"@openzeppelin/contracts/access/Ownable.sol\":1855:1878  owner() != _msgSender() */\n      0xffffffffffffffffffffffffffffffffffffffff\n      and\n      eq\n        /* \"@openzeppelin/contracts/access/Ownable.sol\":1851:1952  if (owner() != _msgSender()) {... */\n      tag_259\n      jumpi\n        /* \"@openzeppelin/contracts/access/Ownable.sol\":1928:1940  _msgSender() */\n      tag_260\n        /* \"@openzeppelin/contracts/access/Ownable.sol\":1928:1938  _msgSender */\n      tag_257\n        /* \"@openzeppelin/contracts/access/Ownable.sol\":1928:1940  _msgSender() */\n      jump\t// in\n    tag_260:\n        /* \"@openzeppelin/contracts/access/Ownable.sol\":1901:1941  OwnableUnauthorizedAccount(_msgSender()) */\n      mload(0x40)\n      0x118cdaa700000000000000000000000000000000000000000000000000000000\n      dup2\n      mstore\n      0x04\n      add\n      tag_261\n      swap2\n      swap1\n      tag_65\n      jump\t// in\n    tag_261:\n      mload(0x40)\n      dup1\n      swap2\n      sub\n      swap1\n      revert\n        /* \"@openzeppelin/contracts/access/Ownable.sol\":1851:1952  if (owner() != _msgSender()) {... */\n    tag_259:\n        /* \"@openzeppelin/contracts/access/Ownable.sol\":1796:1958  function _checkOwner() internal view virtual {... */\n      jump\t// out\n        /* \"@openzeppelin/contracts/security/Pausable.sol\":2433:2550  function _unpause() internal virtual whenPaused {... */\n    tag_171:\n        /* \"@openzeppelin/contracts/security/Pausable.sol\":1486:1502  _requirePaused() */\n      tag_263\n        /* \"@openzeppelin/contracts/security/Pausable.sol\":1486:1500  _requirePaused */\n      tag_264\n        /* \"@openzeppelin/contracts/security/Pausable.sol\":1486:1502  _requirePaused() */\n      jump\t// in\n    tag_263:\n        /* \"@openzeppelin/contracts/security/Pausable.sol\":2501:2506  false */\n      0x00\n        /* \"@openzeppelin/contracts/security/Pausable.sol\":2491:2498  _paused */\n      0x02\n      0x00\n        /* \"@openzeppelin/contracts/security/Pausable.sol\":2491:2506  _paused = false */\n      0x0100\n      exp\n      dup2\n      sload\n      dup2\n      0xff\n      mul\n      not\n      and\n      swap1\n      dup4\n      iszero\n      iszero\n      mul\n      or\n      swap1\n      sstore\n      pop\n        /* \"@openzeppelin/contracts/security/Pausable.sol\":2521:2543  Unpaused(_msgSender()) */\n      0x5db9ee0a495bf2e6ff9c91a7834c1ba4fdd244a5e8aa4e537bd38aeae4b073aa\n        /* \"@openzeppelin/contracts/security/Pausable.sol\":2530:2542  _msgSender() */\n      tag_266\n        /* \"@openzeppelin/contracts/security/Pausable.sol\":2530:2540  _msgSender */\n      tag_257\n        /* \"@openzeppelin/contracts/security/Pausable.sol\":2530:2542  _msgSender() */\n      jump\t// in\n    tag_266:\n        /* \"@openzeppelin/contracts/security/Pausable.sol\":2521:2543  Unpaused(_msgSender()) */\n      mload(0x40)\n      tag_267\n      swap2\n      swap1\n      tag_65\n      jump\t// in\n    tag_267:\n      mload(0x40)\n      dup1\n      swap2\n      sub\n      swap1\n      log1\n        /* \"@openzeppelin/contracts/security/Pausable.sol\":2433:2550  function _unpause() internal virtual whenPaused {... */\n      jump\t// out\n        /* \"@openzeppelin/contracts/access/Ownable.sol\":2912:3099  function _transferOwnership(address newOwner) internal virtual {... */\n    tag_177:\n        /* \"@openzeppelin/contracts/access/Ownable.sol\":2985:3001  address oldOwner */\n      0x00\n        /* \"@openzeppelin/contracts/access/Ownable.sol\":3004:3010  _owner */\n      0x00\n      0x00\n      swap1\n      sload\n      swap1\n      0x0100\n      exp\n      swap1\n      div\n      0xffffffffffffffffffffffffffffffffffffffff\n      and\n        /* \"@openzeppelin/contracts/access/Ownable.sol\":2985:3010  address oldOwner = _owner */\n      swap1\n      pop\n        /* \"@openzeppelin/contracts/access/Ownable.sol\":3029:3037  newOwner */\n      dup2\n        /* \"@openzeppelin/contracts/access/Ownable.sol\":3020:3026  _owner */\n      0x00\n      0x00\n        /* \"@openzeppelin/contracts/access/Ownable.sol\":3020:3037  _owner = newOwner */\n      0x0100\n      exp\n      dup2\n      sload\n      dup2\n      0xffffffffffffffffffffffffffffffffffffffff\n      mul\n      not\n      and\n      swap1\n      dup4\n      0xffffffffffffffffffffffffffffffffffffffff\n      and\n      mul\n      or\n      swap1\n      sstore\n      pop\n        /* \"@openzeppelin/contracts/access/Ownable.sol\":3083:3091  newOwner */\n      dup2\n        /* \"@openzeppelin/contracts/access/Ownable.sol\":3052:3092  OwnershipTransferred(oldOwner, newOwner) */\n      0xffffffffffffffffffffffffffffffffffffffff\n      and\n        /* \"@openzeppelin/contracts/access/Ownable.sol\":3073:3081  oldOwner */\n      dup2\n        /* \"@openzeppelin/contracts/access/Ownable.sol\":3052:3092  OwnershipTransferred(oldOwner, newOwner) */\n      0xffffffffffffffffffffffffffffffffffffffff\n      and\n      0x8be0079c531659141344cd1fd0a4f28419497f9722a3daafe3b4186f6b6457e0\n      mload(0x40)\n      mload(0x40)\n      dup1\n      swap2\n      sub\n      swap1\n      log3\n        /* \"@openzeppelin/contracts/access/Ownable.sol\":2975:3099  {... */\n      pop\n        /* \"@openzeppelin/contracts/access/Ownable.sol\":2912:3099  function _transferOwnership(address newOwner) internal virtual {... */\n      pop\n      jump\t// out\n        /* \"@openzeppelin/contracts/security/Pausable.sol\":2186:2301  function _pause() internal virtual whenNotPaused {... */\n    tag_182:\n        /* \"@openzeppelin/contracts/security/Pausable.sol\":1239:1258  _requireNotPaused() */\n      tag_270\n        /* \"@openzeppelin/contracts/security/Pausable.sol\":1239:1256  _requireNotPaused */\n      tag_95\n        /* \"@openzeppelin/contracts/security/Pausable.sol\":1239:1258  _requireNotPaused() */\n      jump\t// in\n    tag_270:\n        /* \"@openzeppelin/contracts/security/Pausable.sol\":2255:2259  true */\n      0x01\n        /* \"@openzeppelin/contracts/security/Pausable.sol\":2245:2252  _paused */\n      0x02\n      0x00\n        /* \"@openzeppelin/contracts/security/Pausable.sol\":2245:2259  _paused = true */\n      0x0100\n      exp\n      dup2\n      sload\n      dup2\n      0xff\n      mul\n      not\n      and\n      swap1\n      dup4\n      iszero\n      iszero\n      mul\n      or\n      swap1\n      sstore\n      pop\n        /* \"@openzeppelin/contracts/security/Pausable.sol\":2274:2294  Paused(_msgSender()) */\n      0x62e78cea01bee320cd4e420270b5ea74000d11b0c9f74754ebdbfc544b05a258\n        /* \"@openzeppelin/contracts/security/Pausable.sol\":2281:2293  _msgSender() */\n      tag_272\n        /* \"@openzeppelin/contracts/security/Pausable.sol\":2281:2291  _msgSender */\n      tag_257\n        /* \"@openzeppelin/contracts/security/Pausable.sol\":2281:2293  _msgSender() */\n      jump\t// in\n    tag_272:\n        /* \"@openzeppelin/contracts/security/Pausable.sol\":2274:2294  Paused(_msgSender()) */\n      mload(0x40)\n      tag_273\n      swap2\n      swap1\n      tag_65\n      jump\t// in\n    tag_273:\n      mload(0x40)\n      dup1\n      swap2\n      sub\n      swap1\n      log1\n        /* \"@openzeppelin/contracts/security/Pausable.sol\":2186:2301  function _pause() internal virtual whenNotPaused {... */\n      jump\t// out\n        /* \"CrNFTMarketPlace/contracts/CRNFTMarketplace.sol\":1392:1512  function _isNotEmptyString(string memory str) internal pure returns (bool) {... */\n    tag_205:\n        /* \"CrNFTMarketPlace/contracts/CRNFTMarketplace.sol\":1461:1465  bool */\n      0x00\n        /* \"CrNFTMarketPlace/contracts/CRNFTMarketplace.sol\":1504:1505  0 */\n      0x00\n        /* \"CrNFTMarketPlace/contracts/CRNFTMarketplace.sol\":1490:1493  str */\n      dup3\n        /* \"CrNFTMarketPlace/contracts/CRNFTMarketplace.sol\":1484:1501  bytes(str).length */\n      mload\n        /* \"CrNFTMarketPlace/contracts/CRNFTMarketplace.sol\":1484:1505  bytes(str).length > 0 */\n      gt\n        /* \"CrNFTMarketPlace/contracts/CRNFTMarketplace.sol\":1477:1505  return bytes(str).length > 0 */\n      swap1\n      pop\n        /* \"CrNFTMarketPlace/contracts/CRNFTMarketplace.sol\":1392:1512  function _isNotEmptyString(string memory str) internal pure returns (bool) {... */\n      swap2\n      swap1\n      pop\n      jump\t// out\n        /* \"CrNFTMarketPlace/contracts/CRNFTMarketplace.sol\":1617:1689  function _incrementTotalSupply() internal {... */\n    tag_216:\n        /* \"CrNFTMarketPlace/contracts/CRNFTMarketplace.sol\":1669:1680  totalSupply */\n      0x04\n      0x00\n        /* \"CrNFTMarketPlace/contracts/CRNFTMarketplace.sol\":1669:1682  totalSupply++ */\n      dup2\n      sload\n      dup1\n      swap3\n      swap2\n      swap1\n      tag_276\n      swap1\n      tag_277\n      jump\t// in\n    tag_276:\n      swap2\n      swap1\n      pop\n      sstore\n      pop\n        /* \"CrNFTMarketPlace/contracts/CRNFTMarketplace.sol\":1617:1689  function _incrementTotalSupply() internal {... */\n      jump\t// out\n        /* \"@openzeppelin/contracts/utils/Context.sol\":656:752  function _msgSender() internal view virtual returns (address) {... */\n    tag_257:\n        /* \"@openzeppelin/contracts/utils/Context.sol\":709:716  address */\n      0x00\n        /* \"@openzeppelin/contracts/utils/Context.sol\":735:745  msg.sender */\n      caller\n        /* \"@openzeppelin/contracts/utils/Context.sol\":728:745  return msg.sender */\n      swap1\n      pop\n        /* \"@openzeppelin/contracts/utils/Context.sol\":656:752  function _msgSender() internal view virtual returns (address) {... */\n      swap1\n      jump\t// out\n        /* \"@openzeppelin/contracts/security/Pausable.sol\":1945:2051  function _requirePaused() internal view virtual {... */\n    tag_264:\n        /* \"@openzeppelin/contracts/security/Pausable.sol\":2011:2019  paused() */\n      tag_280\n        /* \"@openzeppelin/contracts/security/Pausable.sol\":2011:2017  paused */\n      tag_52\n        /* \"@openzeppelin/contracts/security/Pausable.sol\":2011:2019  paused() */\n      jump\t// in\n    tag_280:\n        /* \"@openzeppelin/contracts/security/Pausable.sol\":2003:2044  require(paused(), \"Pausable: not paused\") */\n      tag_281\n      jumpi\n      mload(0x40)\n      0x08c379a000000000000000000000000000000000000000000000000000000000\n      dup2\n      mstore\n      0x04\n      add\n      tag_282\n      swap1\n      tag_283\n      jump\t// in\n    tag_282:\n      mload(0x40)\n      dup1\n      swap2\n      sub\n      swap1\n      revert\n    tag_281:\n        /* \"@openzeppelin/contracts/security/Pausable.sol\":1945:2051  function _requirePaused() internal view virtual {... */\n      jump\t// out\n        /* \"#utility.yul\":7:82   */\n    tag_284:\n        /* \"#utility.yul\":40:46   */\n      0x00\n        /* \"#utility.yul\":73:75   */\n      0x40\n        /* \"#utility.yul\":67:76   */\n      mload\n        /* \"#utility.yul\":57:76   */\n      swap1\n      pop\n        /* \"#utility.yul\":7:82   */\n      swap1\n      jump\t// out\n        /* \"#utility.yul\":88:205   */\n    tag_285:\n        /* \"#utility.yul\":197:198   */\n      0x00\n        /* \"#utility.yul\":194:195   */\n      0x00\n        /* \"#utility.yul\":187:199   */\n      revert\n        /* \"#utility.yul\":211:328   */\n    tag_286:\n        /* \"#utility.yul\":320:321   */\n      0x00\n        /* \"#utility.yul\":317:318   */\n      0x00\n        /* \"#utility.yul\":310:322   */\n      revert\n        /* \"#utility.yul\":334:411   */\n    tag_287:\n        /* \"#utility.yul\":371:378   */\n      0x00\n        /* \"#utility.yul\":400:405   */\n      dup2\n        /* \"#utility.yul\":389:405   */\n      swap1\n      pop\n        /* \"#utility.yul\":334:411   */\n      swap2\n      swap1\n      pop\n      jump\t// out\n        /* \"#utility.yul\":417:539   */\n    tag_288:\n        /* \"#utility.yul\":490:514   */\n      tag_378\n        /* \"#utility.yul\":508:513   */\n      dup2\n        /* \"#utility.yul\":490:514   */\n      tag_287\n      jump\t// in\n    tag_378:\n        /* \"#utility.yul\":483:488   */\n      dup2\n        /* \"#utility.yul\":480:515   */\n      eq\n        /* \"#utility.yul\":470:533   */\n      tag_379\n      jumpi\n        /* \"#utility.yul\":529:530   */\n      0x00\n        /* \"#utility.yul\":526:527   */\n      0x00\n        /* \"#utility.yul\":519:531   */\n      revert\n        /* \"#utility.yul\":470:533   */\n    tag_379:\n        /* \"#utility.yul\":417:539   */\n      pop\n      jump\t// out\n        /* \"#utility.yul\":545:684   */\n    tag_289:\n        /* \"#utility.yul\":591:596   */\n      0x00\n        /* \"#utility.yul\":629:635   */\n      dup2\n        /* \"#utility.yul\":616:636   */\n      calldataload\n        /* \"#utility.yul\":607:636   */\n      swap1\n      pop\n        /* \"#utility.yul\":645:678   */\n      tag_381\n        /* \"#utility.yul\":672:677   */\n      dup2\n        /* \"#utility.yul\":645:678   */\n      tag_288\n      jump\t// in\n    tag_381:\n        /* \"#utility.yul\":545:684   */\n      swap3\n      swap2\n      pop\n      pop\n      jump\t// out\n        /* \"#utility.yul\":690:1019   */\n    tag_22:\n        /* \"#utility.yul\":749:755   */\n      0x00\n        /* \"#utility.yul\":798:800   */\n      0x20\n        /* \"#utility.yul\":786:795   */\n      dup3\n        /* \"#utility.yul\":777:784   */\n      dup5\n        /* \"#utility.yul\":773:796   */\n      sub\n        /* \"#utility.yul\":769:801   */\n      slt\n        /* \"#utility.yul\":766:885   */\n      iszero\n      tag_383\n      jumpi\n        /* \"#utility.yul\":804:883   */\n      tag_384\n      tag_285\n      jump\t// in\n    tag_384:\n        /* \"#utility.yul\":766:885   */\n    tag_383:\n        /* \"#utility.yul\":924:925   */\n      0x00\n        /* \"#utility.yul\":949:1002   */\n      tag_385\n        /* \"#utility.yul\":994:1001   */\n      dup5\n        /* \"#utility.yul\":985:991   */\n      dup3\n        /* \"#utility.yul\":974:983   */\n      dup6\n        /* \"#utility.yul\":970:992   */\n      add\n        /* \"#utility.yul\":949:1002   */\n      tag_289\n      jump\t// in\n    tag_385:\n        /* \"#utility.yul\":939:1002   */\n      swap2\n      pop\n        /* \"#utility.yul\":895:1012   */\n      pop\n        /* \"#utility.yul\":690:1019   */\n      swap3\n      swap2\n      pop\n      pop\n      jump\t// out\n        /* \"#utility.yul\":1025:1143   */\n    tag_290:\n        /* \"#utility.yul\":1112:1136   */\n      tag_387\n        /* \"#utility.yul\":1130:1135   */\n      dup2\n        /* \"#utility.yul\":1112:1136   */\n      tag_287\n      jump\t// in\n    tag_387:\n        /* \"#utility.yul\":1107:1110   */\n      dup3\n        /* \"#utility.yul\":1100:1137   */\n      mstore\n        /* \"#utility.yul\":1025:1143   */\n      pop\n      pop\n      jump\t// out\n        /* \"#utility.yul\":1149:1371   */\n    tag_28:\n        /* \"#utility.yul\":1242:1246   */\n      0x00\n        /* \"#utility.yul\":1280:1282   */\n      0x20\n        /* \"#utility.yul\":1269:1278   */\n      dup3\n        /* \"#utility.yul\":1265:1283   */\n      add\n        /* \"#utility.yul\":1257:1283   */\n      swap1\n      pop\n        /* \"#utility.yul\":1293:1364   */\n      tag_389\n        /* \"#utility.yul\":1361:1362   */\n      0x00\n        /* \"#utility.yul\":1350:1359   */\n      dup4\n        /* \"#utility.yul\":1346:1363   */\n      add\n        /* \"#utility.yul\":1337:1343   */\n      dup5\n        /* \"#utility.yul\":1293:1364   */\n      tag_290\n      jump\t// in\n    tag_389:\n        /* \"#utility.yul\":1149:1371   */\n      swap3\n      swap2\n      pop\n      pop\n      jump\t// out\n        /* \"#utility.yul\":1377:1503   */\n    tag_291:\n        /* \"#utility.yul\":1414:1421   */\n      0x00\n        /* \"#utility.yul\":1454:1496   */\n      0xffffffffffffffffffffffffffffffffffffffff\n        /* \"#utility.yul\":1447:1452   */\n      dup3\n        /* \"#utility.yul\":1443:1497   */\n      and\n        /* \"#utility.yul\":1432:1497   */\n      swap1\n      pop\n        /* \"#utility.yul\":1377:1503   */\n      swap2\n      swap1\n      pop\n      jump\t// out\n        /* \"#utility.yul\":1509:1605   */\n    tag_292:\n        /* \"#utility.yul\":1546:1553   */\n      0x00\n        /* \"#utility.yul\":1575:1599   */\n      tag_392\n        /* \"#utility.yul\":1593:1598   */\n      dup3\n        /* \"#utility.yul\":1575:1599   */\n      tag_291\n      jump\t// in\n    tag_392:\n        /* \"#utility.yul\":1564:1599   */\n      swap1\n      pop\n        /* \"#utility.yul\":1509:1605   */\n      swap2\n      swap1\n      pop\n      jump\t// out\n        /* \"#utility.yul\":1611:1729   */\n    tag_293:\n        /* \"#utility.yul\":1698:1722   */\n      tag_394\n        /* \"#utility.yul\":1716:1721   */\n      dup2\n        /* \"#utility.yul\":1698:1722   */\n      tag_292\n      jump\t// in\n    tag_394:\n        /* \"#utility.yul\":1693:1696   */\n      dup3\n        /* \"#utility.yul\":1686:1723   */\n      mstore\n        /* \"#utility.yul\":1611:1729   */\n      pop\n      pop\n      jump\t// out\n        /* \"#utility.yul\":1735:1834   */\n    tag_294:\n        /* \"#utility.yul\":1787:1793   */\n      0x00\n        /* \"#utility.yul\":1821:1826   */\n      dup2\n        /* \"#utility.yul\":1815:1827   */\n      mload\n        /* \"#utility.yul\":1805:1827   */\n      swap1\n      pop\n        /* \"#utility.yul\":1735:1834   */\n      swap2\n      swap1\n      pop\n      jump\t// out\n        /* \"#utility.yul\":1840:2009   */\n    tag_295:\n        /* \"#utility.yul\":1924:1935   */\n      0x00\n        /* \"#utility.yul\":1958:1964   */\n      dup3\n        /* \"#utility.yul\":1953:1956   */\n      dup3\n        /* \"#utility.yul\":1946:1965   */\n      mstore\n        /* \"#utility.yul\":1998:2002   */\n      0x20\n        /* \"#utility.yul\":1993:1996   */\n      dup3\n        /* \"#utility.yul\":1989:2003   */\n      add\n        /* \"#utility.yul\":1974:2003   */\n      swap1\n      pop\n        /* \"#utility.yul\":1840:2009   */\n      swap3\n      swap2\n      pop\n      pop\n      jump\t// out\n        /* \"#utility.yul\":2015:2154   */\n    tag_296:\n        /* \"#utility.yul\":2104:2110   */\n      dup3\n        /* \"#utility.yul\":2099:2102   */\n      dup2\n        /* \"#utility.yul\":2094:2097   */\n      dup4\n        /* \"#utility.yul\":2088:2111   */\n      mcopy\n        /* \"#utility.yul\":2145:2146   */\n      0x00\n        /* \"#utility.yul\":2136:2142   */\n      dup4\n        /* \"#utility.yul\":2131:2134   */\n      dup4\n        /* \"#utility.yul\":2127:2143   */\n      add\n        /* \"#utility.yul\":2120:2147   */\n      mstore\n        /* \"#utility.yul\":2015:2154   */\n      pop\n      pop\n      pop\n      jump\t// out\n        /* \"#utility.yul\":2160:2262   */\n    tag_297:\n        /* \"#utility.yul\":2201:2207   */\n      0x00\n        /* \"#utility.yul\":2252:2254   */\n      0x1f\n        /* \"#utility.yul\":2248:2255   */\n      not\n        /* \"#utility.yul\":2243:2245   */\n      0x1f\n        /* \"#utility.yul\":2236:2241   */\n      dup4\n        /* \"#utility.yul\":2232:2246   */\n      add\n        /* \"#utility.yul\":2228:2256   */\n      and\n        /* \"#utility.yul\":2218:2256   */\n      swap1\n      pop\n        /* \"#utility.yul\":2160:2262   */\n      swap2\n      swap1\n      pop\n      jump\t// out\n        /* \"#utility.yul\":2268:2645   */\n    tag_298:\n        /* \"#utility.yul\":2356:2359   */\n      0x00\n        /* \"#utility.yul\":2384:2423   */\n      tag_400\n        /* \"#utility.yul\":2417:2422   */\n      dup3\n        /* \"#utility.yul\":2384:2423   */\n      tag_294\n      jump\t// in\n    tag_400:\n        /* \"#utility.yul\":2439:2510   */\n      tag_401\n        /* \"#utility.yul\":2503:2509   */\n      dup2\n        /* \"#utility.yul\":2498:2501   */\n      dup6\n        /* \"#utility.yul\":2439:2510   */\n      tag_295\n      jump\t// in\n    tag_401:\n        /* \"#utility.yul\":2432:2510   */\n      swap4\n      pop\n        /* \"#utility.yul\":2519:2584   */\n      tag_402\n        /* \"#utility.yul\":2577:2583   */\n      dup2\n        /* \"#utility.yul\":2572:2575   */\n      dup6\n        /* \"#utility.yul\":2565:2569   */\n      0x20\n        /* \"#utility.yul\":2558:2563   */\n      dup7\n        /* \"#utility.yul\":2554:2570   */\n      add\n        /* \"#utility.yul\":2519:2584   */\n      tag_296\n      jump\t// in\n    tag_402:\n        /* \"#utility.yul\":2609:2638   */\n      tag_403\n        /* \"#utility.yul\":2631:2637   */\n      dup2\n        /* \"#utility.yul\":2609:2638   */\n      tag_297\n      jump\t// in\n    tag_403:\n        /* \"#utility.yul\":2604:2607   */\n      dup5\n        /* \"#utility.yul\":2600:2639   */\n      add\n        /* \"#utility.yul\":2593:2639   */\n      swap2\n      pop\n        /* \"#utility.yul\":2360:2645   */\n      pop\n        /* \"#utility.yul\":2268:2645   */\n      swap3\n      swap2\n      pop\n      pop\n      jump\t// out\n        /* \"#utility.yul\":2651:3184   */\n    tag_34:\n        /* \"#utility.yul\":2820:2824   */\n      0x00\n        /* \"#utility.yul\":2858:2860   */\n      0x60\n        /* \"#utility.yul\":2847:2856   */\n      dup3\n        /* \"#utility.yul\":2843:2861   */\n      add\n        /* \"#utility.yul\":2835:2861   */\n      swap1\n      pop\n        /* \"#utility.yul\":2871:2942   */\n      tag_405\n        /* \"#utility.yul\":2939:2940   */\n      0x00\n        /* \"#utility.yul\":2928:2937   */\n      dup4\n        /* \"#utility.yul\":2924:2941   */\n      add\n        /* \"#utility.yul\":2915:2921   */\n      dup7\n        /* \"#utility.yul\":2871:2942   */\n      tag_290\n      jump\t// in\n    tag_405:\n        /* \"#utility.yul\":2952:3024   */\n      tag_406\n        /* \"#utility.yul\":3020:3022   */\n      0x20\n        /* \"#utility.yul\":3009:3018   */\n      dup4\n        /* \"#utility.yul\":3005:3023   */\n      add\n        /* \"#utility.yul\":2996:3002   */\n      dup6\n        /* \"#utility.yul\":2952:3024   */\n      tag_293\n      jump\t// in\n    tag_406:\n        /* \"#utility.yul\":3071:3080   */\n      dup2\n        /* \"#utility.yul\":3065:3069   */\n      dup2\n        /* \"#utility.yul\":3061:3081   */\n      sub\n        /* \"#utility.yul\":3056:3058   */\n      0x40\n        /* \"#utility.yul\":3045:3054   */\n      dup4\n        /* \"#utility.yul\":3041:3059   */\n      add\n        /* \"#utility.yul\":3034:3082   */\n      mstore\n        /* \"#utility.yul\":3099:3177   */\n      tag_407\n        /* \"#utility.yul\":3172:3176   */\n      dup2\n        /* \"#utility.yul\":3163:3169   */\n      dup5\n        /* \"#utility.yul\":3099:3177   */\n      tag_298\n      jump\t// in\n    tag_407:\n        /* \"#utility.yul\":3091:3177   */\n      swap1\n      pop\n        /* \"#utility.yul\":2651:3184   */\n      swap5\n      swap4\n      pop\n      pop\n      pop\n      pop\n      jump\t// out\n        /* \"#utility.yul\":3190:3312   */\n    tag_299:\n        /* \"#utility.yul\":3263:3287   */\n      tag_409\n        /* \"#utility.yul\":3281:3286   */\n      dup2\n        /* \"#utility.yul\":3263:3287   */\n      tag_292\n      jump\t// in\n    tag_409:\n        /* \"#utility.yul\":3256:3261   */\n      dup2\n        /* \"#utility.yul\":3253:3288   */\n      eq\n        /* \"#utility.yul\":3243:3306   */\n      tag_410\n      jumpi\n        /* \"#utility.yul\":3302:3303   */\n      0x00\n        /* \"#utility.yul\":3299:3300   */\n      0x00\n        /* \"#utility.yul\":3292:3304   */\n      revert\n        /* \"#utility.yul\":3243:3306   */\n    tag_410:\n        /* \"#utility.yul\":3190:3312   */\n      pop\n      jump\t// out\n        /* \"#utility.yul\":3318:3457   */\n    tag_300:\n        /* \"#utility.yul\":3364:3369   */\n      0x00\n        /* \"#utility.yul\":3402:3408   */\n      dup2\n        /* \"#utility.yul\":3389:3409   */\n      calldataload\n        /* \"#utility.yul\":3380:3409   */\n      swap1\n      pop\n        /* \"#utility.yul\":3418:3451   */\n      tag_412\n        /* \"#utility.yul\":3445:3450   */\n      dup2\n        /* \"#utility.yul\":3418:3451   */\n      tag_299\n      jump\t// in\n    tag_412:\n        /* \"#utility.yul\":3318:3457   */\n      swap3\n      swap2\n      pop\n      pop\n      jump\t// out\n        /* \"#utility.yul\":3463:3937   */\n    tag_38:\n        /* \"#utility.yul\":3531:3537   */\n      0x00\n        /* \"#utility.yul\":3539:3545   */\n      0x00\n        /* \"#utility.yul\":3588:3590   */\n      0x40\n        /* \"#utility.yul\":3576:3585   */\n      dup4\n        /* \"#utility.yul\":3567:3574   */\n      dup6\n        /* \"#utility.yul\":3563:3586   */\n      sub\n        /* \"#utility.yul\":3559:3591   */\n      slt\n        /* \"#utility.yul\":3556:3675   */\n      iszero\n      tag_414\n      jumpi\n        /* \"#utility.yul\":3594:3673   */\n      tag_415\n      tag_285\n      jump\t// in\n    tag_415:\n        /* \"#utility.yul\":3556:3675   */\n    tag_414:\n        /* \"#utility.yul\":3714:3715   */\n      0x00\n        /* \"#utility.yul\":3739:3792   */\n      tag_416\n        /* \"#utility.yul\":3784:3791   */\n      dup6\n        /* \"#utility.yul\":3775:3781   */\n      dup3\n        /* \"#utility.yul\":3764:3773   */\n      dup7\n        /* \"#utility.yul\":3760:3782   */\n      add\n        /* \"#utility.yul\":3739:3792   */\n      tag_300\n      jump\t// in\n    tag_416:\n        /* \"#utility.yul\":3729:3792   */\n      swap3\n      pop\n        /* \"#utility.yul\":3685:3802   */\n      pop\n        /* \"#utility.yul\":3841:3843   */\n      0x20\n        /* \"#utility.yul\":3867:3920   */\n      tag_417\n        /* \"#utility.yul\":3912:3919   */\n      dup6\n        /* \"#utility.yul\":3903:3909   */\n      dup3\n        /* \"#utility.yul\":3892:3901   */\n      dup7\n        /* \"#utility.yul\":3888:3910   */\n      add\n        /* \"#utility.yul\":3867:3920   */\n      tag_289\n      jump\t// in\n    tag_417:\n        /* \"#utility.yul\":3857:3920   */\n      swap2\n      pop\n        /* \"#utility.yul\":3812:3930   */\n      pop\n        /* \"#utility.yul\":3463:3937   */\n      swap3\n      pop\n      swap3\n      swap1\n      pop\n      jump\t// out\n        /* \"#utility.yul\":3943:4256   */\n    tag_46:\n        /* \"#utility.yul\":4056:4060   */\n      0x00\n        /* \"#utility.yul\":4094:4096   */\n      0x20\n        /* \"#utility.yul\":4083:4092   */\n      dup3\n        /* \"#utility.yul\":4079:4097   */\n      add\n        /* \"#utility.yul\":4071:4097   */\n      swap1\n      pop\n        /* \"#utility.yul\":4143:4152   */\n      dup2\n        /* \"#utility.yul\":4137:4141   */\n      dup2\n        /* \"#utility.yul\":4133:4153   */\n      sub\n        /* \"#utility.yul\":4129:4130   */\n      0x00\n        /* \"#utility.yul\":4118:4127   */\n      dup4\n        /* \"#utility.yul\":4114:4131   */\n      add\n        /* \"#utility.yul\":4107:4154   */\n      mstore\n        /* \"#utility.yul\":4171:4249   */\n      tag_419\n        /* \"#utility.yul\":4244:4248   */\n      dup2\n        /* \"#utility.yul\":4235:4241   */\n      dup5\n        /* \"#utility.yul\":4171:4249   */\n      tag_298\n      jump\t// in\n    tag_419:\n        /* \"#utility.yul\":4163:4249   */\n      swap1\n      pop\n        /* \"#utility.yul\":3943:4256   */\n      swap3\n      swap2\n      pop\n      pop\n      jump\t// out\n        /* \"#utility.yul\":4262:4352   */\n    tag_301:\n        /* \"#utility.yul\":4296:4303   */\n      0x00\n        /* \"#utility.yul\":4339:4344   */\n      dup2\n        /* \"#utility.yul\":4332:4345   */\n      iszero\n        /* \"#utility.yul\":4325:4346   */\n      iszero\n        /* \"#utility.yul\":4314:4346   */\n      swap1\n      pop\n        /* \"#utility.yul\":4262:4352   */\n      swap2\n      swap1\n      pop\n      jump\t// out\n        /* \"#utility.yul\":4358:4467   */\n    tag_302:\n        /* \"#utility.yul\":4439:4460   */\n      tag_422\n        /* \"#utility.yul\":4454:4459   */\n      dup2\n        /* \"#utility.yul\":4439:4460   */\n      tag_301\n      jump\t// in\n    tag_422:\n        /* \"#utility.yul\":4434:4437   */\n      dup3\n        /* \"#utility.yul\":4427:4461   */\n      mstore\n        /* \"#utility.yul\":4358:4467   */\n      pop\n      pop\n      jump\t// out\n        /* \"#utility.yul\":4473:4683   */\n    tag_54:\n        /* \"#utility.yul\":4560:4564   */\n      0x00\n        /* \"#utility.yul\":4598:4600   */\n      0x20\n        /* \"#utility.yul\":4587:4596   */\n      dup3\n        /* \"#utility.yul\":4583:4601   */\n      add\n        /* \"#utility.yul\":4575:4601   */\n      swap1\n      pop\n        /* \"#utility.yul\":4611:4676   */\n      tag_424\n        /* \"#utility.yul\":4673:4674   */\n      0x00\n        /* \"#utility.yul\":4662:4671   */\n      dup4\n        /* \"#utility.yul\":4658:4675   */\n      add\n        /* \"#utility.yul\":4649:4655   */\n      dup5\n        /* \"#utility.yul\":4611:4676   */\n      tag_302\n      jump\t// in\n    tag_424:\n        /* \"#utility.yul\":4473:4683   */\n      swap3\n      swap2\n      pop\n      pop\n      jump\t// out\n        /* \"#utility.yul\":4689:4911   */\n    tag_65:\n        /* \"#utility.yul\":4782:4786   */\n      0x00\n        /* \"#utility.yul\":4820:4822   */\n      0x20\n        /* \"#utility.yul\":4809:4818   */\n      dup3\n        /* \"#utility.yul\":4805:4823   */\n      add\n        /* \"#utility.yul\":4797:4823   */\n      swap1\n      pop\n        /* \"#utility.yul\":4833:4904   */\n      tag_426\n        /* \"#utility.yul\":4901:4902   */\n      0x00\n        /* \"#utility.yul\":4890:4899   */\n      dup4\n        /* \"#utility.yul\":4886:4903   */\n      add\n        /* \"#utility.yul\":4877:4883   */\n      dup5\n        /* \"#utility.yul\":4833:4904   */\n      tag_293\n      jump\t// in\n    tag_426:\n        /* \"#utility.yul\":4689:4911   */\n      swap3\n      swap2\n      pop\n      pop\n      jump\t// out\n        /* \"#utility.yul\":4917:5391   */\n    tag_69:\n        /* \"#utility.yul\":4985:4991   */\n      0x00\n        /* \"#utility.yul\":4993:4999   */\n      0x00\n        /* \"#utility.yul\":5042:5044   */\n      0x40\n        /* \"#utility.yul\":5030:5039   */\n      dup4\n        /* \"#utility.yul\":5021:5028   */\n      dup6\n        /* \"#utility.yul\":5017:5040   */\n      sub\n        /* \"#utility.yul\":5013:5045   */\n      slt\n        /* \"#utility.yul\":5010:5129   */\n      iszero\n      tag_428\n      jumpi\n        /* \"#utility.yul\":5048:5127   */\n      tag_429\n      tag_285\n      jump\t// in\n    tag_429:\n        /* \"#utility.yul\":5010:5129   */\n    tag_428:\n        /* \"#utility.yul\":5168:5169   */\n      0x00\n        /* \"#utility.yul\":5193:5246   */\n      tag_430\n        /* \"#utility.yul\":5238:5245   */\n      dup6\n        /* \"#utility.yul\":5229:5235   */\n      dup3\n        /* \"#utility.yul\":5218:5227   */\n      dup7\n        /* \"#utility.yul\":5214:5236   */\n      add\n        /* \"#utility.yul\":5193:5246   */\n      tag_289\n      jump\t// in\n    tag_430:\n        /* \"#utility.yul\":5183:5246   */\n      swap3\n      pop\n        /* \"#utility.yul\":5139:5256   */\n      pop\n        /* \"#utility.yul\":5295:5297   */\n      0x20\n        /* \"#utility.yul\":5321:5374   */\n      tag_431\n        /* \"#utility.yul\":5366:5373   */\n      dup6\n        /* \"#utility.yul\":5357:5363   */\n      dup3\n        /* \"#utility.yul\":5346:5355   */\n      dup7\n        /* \"#utility.yul\":5342:5364   */\n      add\n        /* \"#utility.yul\":5321:5374   */\n      tag_289\n      jump\t// in\n    tag_431:\n        /* \"#utility.yul\":5311:5374   */\n      swap2\n      pop\n        /* \"#utility.yul\":5266:5384   */\n      pop\n        /* \"#utility.yul\":4917:5391   */\n      swap3\n      pop\n      swap3\n      swap1\n      pop\n      jump\t// out\n        /* \"#utility.yul\":5397:5726   */\n    tag_74:\n        /* \"#utility.yul\":5456:5462   */\n      0x00\n        /* \"#utility.yul\":5505:5507   */\n      0x20\n        /* \"#utility.yul\":5493:5502   */\n      dup3\n        /* \"#utility.yul\":5484:5491   */\n      dup5\n        /* \"#utility.yul\":5480:5503   */\n      sub\n        /* \"#utility.yul\":5476:5508   */\n      slt\n        /* \"#utility.yul\":5473:5592   */\n      iszero\n      tag_433\n      jumpi\n        /* \"#utility.yul\":5511:5590   */\n      tag_434\n      tag_285\n      jump\t// in\n    tag_434:\n        /* \"#utility.yul\":5473:5592   */\n    tag_433:\n        /* \"#utility.yul\":5631:5632   */\n      0x00\n        /* \"#utility.yul\":5656:5709   */\n      tag_435\n        /* \"#utility.yul\":5701:5708   */\n      dup5\n        /* \"#utility.yul\":5692:5698   */\n      dup3\n        /* \"#utility.yul\":5681:5690   */\n      dup6\n        /* \"#utility.yul\":5677:5699   */\n      add\n        /* \"#utility.yul\":5656:5709   */\n      tag_300\n      jump\t// in\n    tag_435:\n        /* \"#utility.yul\":5646:5709   */\n      swap2\n      pop\n        /* \"#utility.yul\":5602:5719   */\n      pop\n        /* \"#utility.yul\":5397:5726   */\n      swap3\n      swap2\n      pop\n      pop\n      jump\t// out\n        /* \"#utility.yul\":5732:5846   */\n    tag_303:\n        /* \"#utility.yul\":5799:5805   */\n      0x00\n        /* \"#utility.yul\":5833:5838   */\n      dup2\n        /* \"#utility.yul\":5827:5839   */\n      mload\n        /* \"#utility.yul\":5817:5839   */\n      swap1\n      pop\n        /* \"#utility.yul\":5732:5846   */\n      swap2\n      swap1\n      pop\n      jump\t// out\n        /* \"#utility.yul\":5852:6036   */\n    tag_304:\n        /* \"#utility.yul\":5951:5962   */\n      0x00\n        /* \"#utility.yul\":5985:5991   */\n      dup3\n        /* \"#utility.yul\":5980:5983   */\n      dup3\n        /* \"#utility.yul\":5973:5992   */\n      mstore\n        /* \"#utility.yul\":6025:6029   */\n      0x20\n        /* \"#utility.yul\":6020:6023   */\n      dup3\n        /* \"#utility.yul\":6016:6030   */\n      add\n        /* \"#utility.yul\":6001:6030   */\n      swap1\n      pop\n        /* \"#utility.yul\":5852:6036   */\n      swap3\n      swap2\n      pop\n      pop\n      jump\t// out\n        /* \"#utility.yul\":6042:6174   */\n    tag_305:\n        /* \"#utility.yul\":6109:6113   */\n      0x00\n        /* \"#utility.yul\":6132:6135   */\n      dup2\n        /* \"#utility.yul\":6124:6135   */\n      swap1\n      pop\n        /* \"#utility.yul\":6162:6166   */\n      0x20\n        /* \"#utility.yul\":6157:6160   */\n      dup3\n        /* \"#utility.yul\":6153:6167   */\n      add\n        /* \"#utility.yul\":6145:6167   */\n      swap1\n      pop\n        /* \"#utility.yul\":6042:6174   */\n      swap2\n      swap1\n      pop\n      jump\t// out\n        /* \"#utility.yul\":6180:6288   */\n    tag_306:\n        /* \"#utility.yul\":6257:6281   */\n      tag_440\n        /* \"#utility.yul\":6275:6280   */\n      dup2\n        /* \"#utility.yul\":6257:6281   */\n      tag_287\n      jump\t// in\n    tag_440:\n        /* \"#utility.yul\":6252:6255   */\n      dup3\n        /* \"#utility.yul\":6245:6282   */\n      mstore\n        /* \"#utility.yul\":6180:6288   */\n      pop\n      pop\n      jump\t// out\n        /* \"#utility.yul\":6294:6473   */\n    tag_307:\n        /* \"#utility.yul\":6363:6373   */\n      0x00\n        /* \"#utility.yul\":6384:6430   */\n      tag_442\n        /* \"#utility.yul\":6426:6429   */\n      dup4\n        /* \"#utility.yul\":6418:6424   */\n      dup4\n        /* \"#utility.yul\":6384:6430   */\n      tag_306\n      jump\t// in\n    tag_442:\n        /* \"#utility.yul\":6462:6466   */\n      0x20\n        /* \"#utility.yul\":6457:6460   */\n      dup4\n        /* \"#utility.yul\":6453:6467   */\n      add\n        /* \"#utility.yul\":6439:6467   */\n      swap1\n      pop\n        /* \"#utility.yul\":6294:6473   */\n      swap3\n      swap2\n      pop\n      pop\n      jump\t// out\n        /* \"#utility.yul\":6479:6592   */\n    tag_308:\n        /* \"#utility.yul\":6549:6553   */\n      0x00\n        /* \"#utility.yul\":6581:6585   */\n      0x20\n        /* \"#utility.yul\":6576:6579   */\n      dup3\n        /* \"#utility.yul\":6572:6586   */\n      add\n        /* \"#utility.yul\":6564:6586   */\n      swap1\n      pop\n        /* \"#utility.yul\":6479:6592   */\n      swap2\n      swap1\n      pop\n      jump\t// out\n        /* \"#utility.yul\":6628:7360   */\n    tag_309:\n        /* \"#utility.yul\":6747:6750   */\n      0x00\n        /* \"#utility.yul\":6776:6830   */\n      tag_445\n        /* \"#utility.yul\":6824:6829   */\n      dup3\n        /* \"#utility.yul\":6776:6830   */\n      tag_303\n      jump\t// in\n    tag_445:\n        /* \"#utility.yul\":6846:6932   */\n      tag_446\n        /* \"#utility.yul\":6925:6931   */\n      dup2\n        /* \"#utility.yul\":6920:6923   */\n      dup6\n        /* \"#utility.yul\":6846:6932   */\n      tag_304\n      jump\t// in\n    tag_446:\n        /* \"#utility.yul\":6839:6932   */\n      swap4\n      pop\n        /* \"#utility.yul\":6956:7012   */\n      tag_447\n        /* \"#utility.yul\":7006:7011   */\n      dup4\n        /* \"#utility.yul\":6956:7012   */\n      tag_305\n      jump\t// in\n    tag_447:\n        /* \"#utility.yul\":7035:7042   */\n      dup1\n        /* \"#utility.yul\":7066:7067   */\n      0x00\n        /* \"#utility.yul\":7051:7335   */\n    tag_448:\n        /* \"#utility.yul\":7076:7082   */\n      dup4\n        /* \"#utility.yul\":7073:7074   */\n      dup2\n        /* \"#utility.yul\":7070:7083   */\n      lt\n        /* \"#utility.yul\":7051:7335   */\n      iszero\n      tag_450\n      jumpi\n        /* \"#utility.yul\":7152:7158   */\n      dup2\n        /* \"#utility.yul\":7146:7159   */\n      mload\n        /* \"#utility.yul\":7179:7242   */\n      tag_451\n        /* \"#utility.yul\":7238:7241   */\n      dup9\n        /* \"#utility.yul\":7223:7236   */\n      dup3\n        /* \"#utility.yul\":7179:7242   */\n      tag_307\n      jump\t// in\n    tag_451:\n        /* \"#utility.yul\":7172:7242   */\n      swap8\n      pop\n        /* \"#utility.yul\":7265:7325   */\n      tag_452\n        /* \"#utility.yul\":7318:7324   */\n      dup4\n        /* \"#utility.yul\":7265:7325   */\n      tag_308\n      jump\t// in\n    tag_452:\n        /* \"#utility.yul\":7255:7325   */\n      swap3\n      pop\n        /* \"#utility.yul\":7111:7335   */\n      pop\n        /* \"#utility.yul\":7098:7099   */\n      0x01\n        /* \"#utility.yul\":7095:7096   */\n      dup2\n        /* \"#utility.yul\":7091:7100   */\n      add\n        /* \"#utility.yul\":7086:7100   */\n      swap1\n      pop\n        /* \"#utility.yul\":7051:7335   */\n      jump(tag_448)\n    tag_450:\n        /* \"#utility.yul\":7055:7069   */\n      pop\n        /* \"#utility.yul\":7351:7354   */\n      dup6\n        /* \"#utility.yul\":7344:7354   */\n      swap4\n      pop\n        /* \"#utility.yul\":6752:7360   */\n      pop\n      pop\n      pop\n        /* \"#utility.yul\":6628:7360   */\n      swap3\n      swap2\n      pop\n      pop\n      jump\t// out\n        /* \"#utility.yul\":7366:7739   */\n    tag_77:\n        /* \"#utility.yul\":7509:7513   */\n      0x00\n        /* \"#utility.yul\":7547:7549   */\n      0x20\n        /* \"#utility.yul\":7536:7545   */\n      dup3\n        /* \"#utility.yul\":7532:7550   */\n      add\n        /* \"#utility.yul\":7524:7550   */\n      swap1\n      pop\n        /* \"#utility.yul\":7596:7605   */\n      dup2\n        /* \"#utility.yul\":7590:7594   */\n      dup2\n        /* \"#utility.yul\":7586:7606   */\n      sub\n        /* \"#utility.yul\":7582:7583   */\n      0x00\n        /* \"#utility.yul\":7571:7580   */\n      dup4\n        /* \"#utility.yul\":7567:7584   */\n      add\n        /* \"#utility.yul\":7560:7607   */\n      mstore\n        /* \"#utility.yul\":7624:7732   */\n      tag_454\n        /* \"#utility.yul\":7727:7731   */\n      dup2\n        /* \"#utility.yul\":7718:7724   */\n      dup5\n        /* \"#utility.yul\":7624:7732   */\n      tag_309\n      jump\t// in\n    tag_454:\n        /* \"#utility.yul\":7616:7732   */\n      swap1\n      pop\n        /* \"#utility.yul\":7366:7739   */\n      swap3\n      swap2\n      pop\n      pop\n      jump\t// out\n        /* \"#utility.yul\":7745:7862   */\n    tag_310:\n        /* \"#utility.yul\":7854:7855   */\n      0x00\n        /* \"#utility.yul\":7851:7852   */\n      0x00\n        /* \"#utility.yul\":7844:7856   */\n      revert\n        /* \"#utility.yul\":7868:7985   */\n    tag_311:\n        /* \"#utility.yul\":7977:7978   */\n      0x00\n        /* \"#utility.yul\":7974:7975   */\n      0x00\n        /* \"#utility.yul\":7967:7979   */\n      revert\n        /* \"#utility.yul\":7991:8171   */\n    tag_312:\n        /* \"#utility.yul\":8039:8116   */\n      0x4e487b7100000000000000000000000000000000000000000000000000000000\n        /* \"#utility.yul\":8036:8037   */\n      0x00\n        /* \"#utility.yul\":8029:8117   */\n      mstore\n        /* \"#utility.yul\":8136:8140   */\n      0x41\n        /* \"#utility.yul\":8133:8134   */\n      0x04\n        /* \"#utility.yul\":8126:8141   */\n      mstore\n        /* \"#utility.yul\":8160:8164   */\n      0x24\n        /* \"#utility.yul\":8157:8158   */\n      0x00\n        /* \"#utility.yul\":8150:8165   */\n      revert\n        /* \"#utility.yul\":8177:8458   */\n    tag_313:\n        /* \"#utility.yul\":8260:8287   */\n      tag_459\n        /* \"#utility.yul\":8282:8286   */\n      dup3\n        /* \"#utility.yul\":8260:8287   */\n      tag_297\n      jump\t// in\n    tag_459:\n        /* \"#utility.yul\":8252:8258   */\n      dup2\n        /* \"#utility.yul\":8248:8288   */\n      add\n        /* \"#utility.yul\":8390:8396   */\n      dup2\n        /* \"#utility.yul\":8378:8388   */\n      dup2\n        /* \"#utility.yul\":8375:8397   */\n      lt\n        /* \"#utility.yul\":8354:8372   */\n      0xffffffffffffffff\n        /* \"#utility.yul\":8342:8352   */\n      dup3\n        /* \"#utility.yul\":8339:8373   */\n      gt\n        /* \"#utility.yul\":8336:8398   */\n      or\n        /* \"#utility.yul\":8333:8421   */\n      iszero\n      tag_460\n      jumpi\n        /* \"#utility.yul\":8401:8419   */\n      tag_461\n      tag_312\n      jump\t// in\n    tag_461:\n        /* \"#utility.yul\":8333:8421   */\n    tag_460:\n        /* \"#utility.yul\":8441:8451   */\n      dup1\n        /* \"#utility.yul\":8437:8439   */\n      0x40\n        /* \"#utility.yul\":8430:8452   */\n      mstore\n        /* \"#utility.yul\":8220:8458   */\n      pop\n        /* \"#utility.yul\":8177:8458   */\n      pop\n      pop\n      jump\t// out\n        /* \"#utility.yul\":8464:8593   */\n    tag_314:\n        /* \"#utility.yul\":8498:8504   */\n      0x00\n        /* \"#utility.yul\":8525:8545   */\n      tag_463\n      tag_284\n      jump\t// in\n    tag_463:\n        /* \"#utility.yul\":8515:8545   */\n      swap1\n      pop\n        /* \"#utility.yul\":8554:8587   */\n      tag_464\n        /* \"#utility.yul\":8582:8586   */\n      dup3\n        /* \"#utility.yul\":8574:8580   */\n      dup3\n        /* \"#utility.yul\":8554:8587   */\n      tag_313\n      jump\t// in\n    tag_464:\n        /* \"#utility.yul\":8464:8593   */\n      swap2\n      swap1\n      pop\n      jump\t// out\n        /* \"#utility.yul\":8599:8907   */\n    tag_315:\n        /* \"#utility.yul\":8661:8665   */\n      0x00\n        /* \"#utility.yul\":8751:8769   */\n      0xffffffffffffffff\n        /* \"#utility.yul\":8743:8749   */\n      dup3\n        /* \"#utility.yul\":8740:8770   */\n      gt\n        /* \"#utility.yul\":8737:8793   */\n      iszero\n      tag_466\n      jumpi\n        /* \"#utility.yul\":8773:8791   */\n      tag_467\n      tag_312\n      jump\t// in\n    tag_467:\n        /* \"#utility.yul\":8737:8793   */\n    tag_466:\n        /* \"#utility.yul\":8811:8840   */\n      tag_468\n        /* \"#utility.yul\":8833:8839   */\n      dup3\n        /* \"#utility.yul\":8811:8840   */\n      tag_297\n      jump\t// in\n    tag_468:\n        /* \"#utility.yul\":8803:8840   */\n      swap1\n      pop\n        /* \"#utility.yul\":8895:8899   */\n      0x20\n        /* \"#utility.yul\":8889:8893   */\n      dup2\n        /* \"#utility.yul\":8885:8900   */\n      add\n        /* \"#utility.yul\":8877:8900   */\n      swap1\n      pop\n        /* \"#utility.yul\":8599:8907   */\n      swap2\n      swap1\n      pop\n      jump\t// out\n        /* \"#utility.yul\":8913:9061   */\n    tag_316:\n        /* \"#utility.yul\":9011:9017   */\n      dup3\n        /* \"#utility.yul\":9006:9009   */\n      dup2\n        /* \"#utility.yul\":9001:9004   */\n      dup4\n        /* \"#utility.yul\":8988:9018   */\n      calldatacopy\n        /* \"#utility.yul\":9052:9053   */\n      0x00\n        /* \"#utility.yul\":9043:9049   */\n      dup4\n        /* \"#utility.yul\":9038:9041   */\n      dup4\n        /* \"#utility.yul\":9034:9050   */\n      add\n        /* \"#utility.yul\":9027:9054   */\n      mstore\n        /* \"#utility.yul\":8913:9061   */\n      pop\n      pop\n      pop\n      jump\t// out\n        /* \"#utility.yul\":9067:9492   */\n    tag_317:\n        /* \"#utility.yul\":9145:9150   */\n      0x00\n        /* \"#utility.yul\":9170:9236   */\n      tag_471\n        /* \"#utility.yul\":9186:9235   */\n      tag_472\n        /* \"#utility.yul\":9228:9234   */\n      dup5\n        /* \"#utility.yul\":9186:9235   */\n      tag_315\n      jump\t// in\n    tag_472:\n        /* \"#utility.yul\":9170:9236   */\n      tag_314\n      jump\t// in\n    tag_471:\n        /* \"#utility.yul\":9161:9236   */\n      swap1\n      pop\n        /* \"#utility.yul\":9259:9265   */\n      dup3\n        /* \"#utility.yul\":9252:9257   */\n      dup2\n        /* \"#utility.yul\":9245:9266   */\n      mstore\n        /* \"#utility.yul\":9297:9301   */\n      0x20\n        /* \"#utility.yul\":9290:9295   */\n      dup2\n        /* \"#utility.yul\":9286:9302   */\n      add\n        /* \"#utility.yul\":9335:9338   */\n      dup5\n        /* \"#utility.yul\":9326:9332   */\n      dup5\n        /* \"#utility.yul\":9321:9324   */\n      dup5\n        /* \"#utility.yul\":9317:9333   */\n      add\n        /* \"#utility.yul\":9314:9339   */\n      gt\n        /* \"#utility.yul\":9311:9423   */\n      iszero\n      tag_473\n      jumpi\n        /* \"#utility.yul\":9342:9421   */\n      tag_474\n      tag_311\n      jump\t// in\n    tag_474:\n        /* \"#utility.yul\":9311:9423   */\n    tag_473:\n        /* \"#utility.yul\":9432:9486   */\n      tag_475\n        /* \"#utility.yul\":9479:9485   */\n      dup5\n        /* \"#utility.yul\":9474:9477   */\n      dup3\n        /* \"#utility.yul\":9469:9472   */\n      dup6\n        /* \"#utility.yul\":9432:9486   */\n      tag_316\n      jump\t// in\n    tag_475:\n        /* \"#utility.yul\":9151:9492   */\n      pop\n        /* \"#utility.yul\":9067:9492   */\n      swap4\n      swap3\n      pop\n      pop\n      pop\n      jump\t// out\n        /* \"#utility.yul\":9512:9852   */\n    tag_318:\n        /* \"#utility.yul\":9568:9573   */\n      0x00\n        /* \"#utility.yul\":9617:9620   */\n      dup3\n        /* \"#utility.yul\":9610:9614   */\n      0x1f\n        /* \"#utility.yul\":9602:9608   */\n      dup4\n        /* \"#utility.yul\":9598:9615   */\n      add\n        /* \"#utility.yul\":9594:9621   */\n      slt\n        /* \"#utility.yul\":9584:9706   */\n      tag_477\n      jumpi\n        /* \"#utility.yul\":9625:9704   */\n      tag_478\n      tag_310\n      jump\t// in\n    tag_478:\n        /* \"#utility.yul\":9584:9706   */\n    tag_477:\n        /* \"#utility.yul\":9742:9748   */\n      dup2\n        /* \"#utility.yul\":9729:9749   */\n      calldataload\n        /* \"#utility.yul\":9767:9846   */\n      tag_479\n        /* \"#utility.yul\":9842:9845   */\n      dup5\n        /* \"#utility.yul\":9834:9840   */\n      dup3\n        /* \"#utility.yul\":9827:9831   */\n      0x20\n        /* \"#utility.yul\":9819:9825   */\n      dup7\n        /* \"#utility.yul\":9815:9832   */\n      add\n        /* \"#utility.yul\":9767:9846   */\n      tag_317\n      jump\t// in\n    tag_479:\n        /* \"#utility.yul\":9758:9846   */\n      swap2\n      pop\n        /* \"#utility.yul\":9574:9852   */\n      pop\n        /* \"#utility.yul\":9512:9852   */\n      swap3\n      swap2\n      pop\n      pop\n      jump\t// out\n        /* \"#utility.yul\":9858:10367   */\n    tag_81:\n        /* \"#utility.yul\":9927:9933   */\n      0x00\n        /* \"#utility.yul\":9976:9978   */\n      0x20\n        /* \"#utility.yul\":9964:9973   */\n      dup3\n        /* \"#utility.yul\":9955:9962   */\n      dup5\n        /* \"#utility.yul\":9951:9974   */\n      sub\n        /* \"#utility.yul\":9947:9979   */\n      slt\n        /* \"#utility.yul\":9944:10063   */\n      iszero\n      tag_481\n      jumpi\n        /* \"#utility.yul\":9982:10061   */\n      tag_482\n      tag_285\n      jump\t// in\n    tag_482:\n        /* \"#utility.yul\":9944:10063   */\n    tag_481:\n        /* \"#utility.yul\":10130:10131   */\n      0x00\n        /* \"#utility.yul\":10119:10128   */\n      dup3\n        /* \"#utility.yul\":10115:10132   */\n      add\n        /* \"#utility.yul\":10102:10133   */\n      calldataload\n        /* \"#utility.yul\":10160:10178   */\n      0xffffffffffffffff\n        /* \"#utility.yul\":10152:10158   */\n      dup2\n        /* \"#utility.yul\":10149:10179   */\n      gt\n        /* \"#utility.yul\":10146:10263   */\n      iszero\n      tag_483\n      jumpi\n        /* \"#utility.yul\":10182:10261   */\n      tag_484\n      tag_286\n      jump\t// in\n    tag_484:\n        /* \"#utility.yul\":10146:10263   */\n    tag_483:\n        /* \"#utility.yul\":10287:10350   */\n      tag_485\n        /* \"#utility.yul\":10342:10349   */\n      dup5\n        /* \"#utility.yul\":10333:10339   */\n      dup3\n        /* \"#utility.yul\":10322:10331   */\n      dup6\n        /* \"#utility.yul\":10318:10340   */\n      add\n        /* \"#utility.yul\":10287:10350   */\n      tag_318\n      jump\t// in\n    tag_485:\n        /* \"#utility.yul\":10277:10350   */\n      swap2\n      pop\n        /* \"#utility.yul\":10073:10360   */\n      pop\n        /* \"#utility.yul\":9858:10367   */\n      swap3\n      swap2\n      pop\n      pop\n      jump\t// out\n        /* \"#utility.yul\":10373:10803   */\n    tag_88:\n        /* \"#utility.yul\":10516:10520   */\n      0x00\n        /* \"#utility.yul\":10554:10556   */\n      0x60\n        /* \"#utility.yul\":10543:10552   */\n      dup3\n        /* \"#utility.yul\":10539:10557   */\n      add\n        /* \"#utility.yul\":10531:10557   */\n      swap1\n      pop\n        /* \"#utility.yul\":10567:10638   */\n      tag_487\n        /* \"#utility.yul\":10635:10636   */\n      0x00\n        /* \"#utility.yul\":10624:10633   */\n      dup4\n        /* \"#utility.yul\":10620:10637   */\n      add\n        /* \"#utility.yul\":10611:10617   */\n      dup7\n        /* \"#utility.yul\":10567:10638   */\n      tag_290\n      jump\t// in\n    tag_487:\n        /* \"#utility.yul\":10648:10720   */\n      tag_488\n        /* \"#utility.yul\":10716:10718   */\n      0x20\n        /* \"#utility.yul\":10705:10714   */\n      dup4\n        /* \"#utility.yul\":10701:10719   */\n      add\n        /* \"#utility.yul\":10692:10698   */\n      dup6\n        /* \"#utility.yul\":10648:10720   */\n      tag_293\n      jump\t// in\n    tag_488:\n        /* \"#utility.yul\":10730:10796   */\n      tag_489\n        /* \"#utility.yul\":10792:10794   */\n      0x40\n        /* \"#utility.yul\":10781:10790   */\n      dup4\n        /* \"#utility.yul\":10777:10795   */\n      add\n        /* \"#utility.yul\":10768:10774   */\n      dup5\n        /* \"#utility.yul\":10730:10796   */\n      tag_302\n      jump\t// in\n    tag_489:\n        /* \"#utility.yul\":10373:10803   */\n      swap5\n      swap4\n      pop\n      pop\n      pop\n      pop\n      jump\t// out\n        /* \"#utility.yul\":10809:10978   */\n    tag_319:\n        /* \"#utility.yul\":10949:10970   */\n      0x4e4654206973206e6f7420666f722073616c6500000000000000000000000000\n        /* \"#utility.yul\":10945:10946   */\n      0x00\n        /* \"#utility.yul\":10937:10943   */\n      dup3\n        /* \"#utility.yul\":10933:10947   */\n      add\n        /* \"#utility.yul\":10926:10971   */\n      mstore\n        /* \"#utility.yul\":10809:10978   */\n      pop\n      jump\t// out\n        /* \"#utility.yul\":10984:11350   */\n    tag_320:\n        /* \"#utility.yul\":11126:11129   */\n      0x00\n        /* \"#utility.yul\":11147:11214   */\n      tag_492\n        /* \"#utility.yul\":11211:11213   */\n      0x13\n        /* \"#utility.yul\":11206:11209   */\n      dup4\n        /* \"#utility.yul\":11147:11214   */\n      tag_295\n      jump\t// in\n    tag_492:\n        /* \"#utility.yul\":11140:11214   */\n      swap2\n      pop\n        /* \"#utility.yul\":11223:11316   */\n      tag_493\n        /* \"#utility.yul\":11312:11315   */\n      dup3\n        /* \"#utility.yul\":11223:11316   */\n      tag_319\n      jump\t// in\n    tag_493:\n        /* \"#utility.yul\":11341:11343   */\n      0x20\n        /* \"#utility.yul\":11336:11339   */\n      dup3\n        /* \"#utility.yul\":11332:11344   */\n      add\n        /* \"#utility.yul\":11325:11344   */\n      swap1\n      pop\n        /* \"#utility.yul\":10984:11350   */\n      swap2\n      swap1\n      pop\n      jump\t// out\n        /* \"#utility.yul\":11356:11775   */\n    tag_102:\n        /* \"#utility.yul\":11522:11526   */\n      0x00\n        /* \"#utility.yul\":11560:11562   */\n      0x20\n        /* \"#utility.yul\":11549:11558   */\n      dup3\n        /* \"#utility.yul\":11545:11563   */\n      add\n        /* \"#utility.yul\":11537:11563   */\n      swap1\n      pop\n        /* \"#utility.yul\":11609:11618   */\n      dup2\n        /* \"#utility.yul\":11603:11607   */\n      dup2\n        /* \"#utility.yul\":11599:11619   */\n      sub\n        /* \"#utility.yul\":11595:11596   */\n      0x00\n        /* \"#utility.yul\":11584:11593   */\n      dup4\n        /* \"#utility.yul\":11580:11597   */\n      add\n        /* \"#utility.yul\":11573:11620   */\n      mstore\n        /* \"#utility.yul\":11637:11768   */\n      tag_495\n        /* \"#utility.yul\":11763:11767   */\n      dup2\n        /* \"#utility.yul\":11637:11768   */\n      tag_320\n      jump\t// in\n    tag_495:\n        /* \"#utility.yul\":11629:11768   */\n      swap1\n      pop\n        /* \"#utility.yul\":11356:11775   */\n      swap2\n      swap1\n      pop\n      jump\t// out\n        /* \"#utility.yul\":11781:11949   */\n    tag_321:\n        /* \"#utility.yul\":11921:11941   */\n      0x496e73756666696369656e742066756e64730000000000000000000000000000\n        /* \"#utility.yul\":11917:11918   */\n      0x00\n        /* \"#utility.yul\":11909:11915   */\n      dup3\n        /* \"#utility.yul\":11905:11919   */\n      add\n        /* \"#utility.yul\":11898:11942   */\n      mstore\n        /* \"#utility.yul\":11781:11949   */\n      pop\n      jump\t// out\n        /* \"#utility.yul\":11955:12321   */\n    tag_322:\n        /* \"#utility.yul\":12097:12100   */\n      0x00\n        /* \"#utility.yul\":12118:12185   */\n      tag_498\n        /* \"#utility.yul\":12182:12184   */\n      0x12\n        /* \"#utility.yul\":12177:12180   */\n      dup4\n        /* \"#utility.yul\":12118:12185   */\n      tag_295\n      jump\t// in\n    tag_498:\n        /* \"#utility.yul\":12111:12185   */\n      swap2\n      pop\n        /* \"#utility.yul\":12194:12287   */\n      tag_499\n        /* \"#utility.yul\":12283:12286   */\n      dup3\n        /* \"#utility.yul\":12194:12287   */\n      tag_321\n      jump\t// in\n    tag_499:\n        /* \"#utility.yul\":12312:12314   */\n      0x20\n        /* \"#utility.yul\":12307:12310   */\n      dup3\n        /* \"#utility.yul\":12303:12315   */\n      add\n        /* \"#utility.yul\":12296:12315   */\n      swap1\n      pop\n        /* \"#utility.yul\":11955:12321   */\n      swap2\n      swap1\n      pop\n      jump\t// out\n        /* \"#utility.yul\":12327:12746   */\n    tag_105:\n        /* \"#utility.yul\":12493:12497   */\n      0x00\n        /* \"#utility.yul\":12531:12533   */\n      0x20\n        /* \"#utility.yul\":12520:12529   */\n      dup3\n        /* \"#utility.yul\":12516:12534   */\n      add\n        /* \"#utility.yul\":12508:12534   */\n      swap1\n      pop\n        /* \"#utility.yul\":12580:12589   */\n      dup2\n        /* \"#utility.yul\":12574:12578   */\n      dup2\n        /* \"#utility.yul\":12570:12590   */\n      sub\n        /* \"#utility.yul\":12566:12567   */\n      0x00\n        /* \"#utility.yul\":12555:12564   */\n      dup4\n        /* \"#utility.yul\":12551:12568   */\n      add\n        /* \"#utility.yul\":12544:12591   */\n      mstore\n        /* \"#utility.yul\":12608:12739   */\n      tag_501\n        /* \"#utility.yul\":12734:12738   */\n      dup2\n        /* \"#utility.yul\":12608:12739   */\n      tag_322\n      jump\t// in\n    tag_501:\n        /* \"#utility.yul\":12600:12739   */\n      swap1\n      pop\n        /* \"#utility.yul\":12327:12746   */\n      swap2\n      swap1\n      pop\n      jump\t// out\n        /* \"#utility.yul\":12752:12924   */\n    tag_323:\n        /* \"#utility.yul\":12892:12916   */\n      0x53656c6c65722061646472657373206973207a65726f00000000000000000000\n        /* \"#utility.yul\":12888:12889   */\n      0x00\n        /* \"#utility.yul\":12880:12886   */\n      dup3\n        /* \"#utility.yul\":12876:12890   */\n      add\n        /* \"#utility.yul\":12869:12917   */\n      mstore\n        /* \"#utility.yul\":12752:12924   */\n      pop\n      jump\t// out\n        /* \"#utility.yul\":12930:13296   */\n    tag_324:\n        /* \"#utility.yul\":13072:13075   */\n      0x00\n        /* \"#utility.yul\":13093:13160   */\n      tag_504\n        /* \"#utility.yul\":13157:13159   */\n      0x16\n        /* \"#utility.yul\":13152:13155   */\n      dup4\n        /* \"#utility.yul\":13093:13160   */\n      tag_295\n      jump\t// in\n    tag_504:\n        /* \"#utility.yul\":13086:13160   */\n      swap2\n      pop\n        /* \"#utility.yul\":13169:13262   */\n      tag_505\n        /* \"#utility.yul\":13258:13261   */\n      dup3\n        /* \"#utility.yul\":13169:13262   */\n      tag_323\n      jump\t// in\n    tag_505:\n        /* \"#utility.yul\":13287:13289   */\n      0x20\n        /* \"#utility.yul\":13282:13285   */\n      dup3\n        /* \"#utility.yul\":13278:13290   */\n      add\n        /* \"#utility.yul\":13271:13290   */\n      swap1\n      pop\n        /* \"#utility.yul\":12930:13296   */\n      swap2\n      swap1\n      pop\n      jump\t// out\n        /* \"#utility.yul\":13302:13721   */\n    tag_108:\n        /* \"#utility.yul\":13468:13472   */\n      0x00\n        /* \"#utility.yul\":13506:13508   */\n      0x20\n        /* \"#utility.yul\":13495:13504   */\n      dup3\n        /* \"#utility.yul\":13491:13509   */\n      add\n        /* \"#utility.yul\":13483:13509   */\n      swap1\n      pop\n        /* \"#utility.yul\":13555:13564   */\n      dup2\n        /* \"#utility.yul\":13549:13553   */\n      dup2\n        /* \"#utility.yul\":13545:13565   */\n      sub\n        /* \"#utility.yul\":13541:13542   */\n      0x00\n        /* \"#utility.yul\":13530:13539   */\n      dup4\n        /* \"#utility.yul\":13526:13543   */\n      add\n        /* \"#utility.yul\":13519:13566   */\n      mstore\n        /* \"#utility.yul\":13583:13714   */\n      tag_507\n        /* \"#utility.yul\":13709:13713   */\n      dup2\n        /* \"#utility.yul\":13583:13714   */\n      tag_324\n      jump\t// in\n    tag_507:\n        /* \"#utility.yul\":13575:13714   */\n      swap1\n      pop\n        /* \"#utility.yul\":13302:13721   */\n      swap2\n      swap1\n      pop\n      jump\t// out\n        /* \"#utility.yul\":13727:13898   */\n    tag_325:\n        /* \"#utility.yul\":13867:13890   */\n      0x4f776e65722061646472657373206973207a65726f0000000000000000000000\n        /* \"#utility.yul\":13863:13864   */\n      0x00\n        /* \"#utility.yul\":13855:13861   */\n      dup3\n        /* \"#utility.yul\":13851:13865   */\n      add\n        /* \"#utility.yul\":13844:13891   */\n      mstore\n        /* \"#utility.yul\":13727:13898   */\n      pop\n      jump\t// out\n        /* \"#utility.yul\":13904:14270   */\n    tag_326:\n        /* \"#utility.yul\":14046:14049   */\n      0x00\n        /* \"#utility.yul\":14067:14134   */\n      tag_510\n        /* \"#utility.yul\":14131:14133   */\n      0x15\n        /* \"#utility.yul\":14126:14129   */\n      dup4\n        /* \"#utility.yul\":14067:14134   */\n      tag_295\n      jump\t// in\n    tag_510:\n        /* \"#utility.yul\":14060:14134   */\n      swap2\n      pop\n        /* \"#utility.yul\":14143:14236   */\n      tag_511\n        /* \"#utility.yul\":14232:14235   */\n      dup3\n        /* \"#utility.yul\":14143:14236   */\n      tag_325\n      jump\t// in\n    tag_511:\n        /* \"#utility.yul\":14261:14263   */\n      0x20\n        /* \"#utility.yul\":14256:14259   */\n      dup3\n        /* \"#utility.yul\":14252:14264   */\n      add\n        /* \"#utility.yul\":14245:14264   */\n      swap1\n      pop\n        /* \"#utility.yul\":13904:14270   */\n      swap2\n      swap1\n      pop\n      jump\t// out\n        /* \"#utility.yul\":14276:14695   */\n    tag_112:\n        /* \"#utility.yul\":14442:14446   */\n      0x00\n        /* \"#utility.yul\":14480:14482   */\n      0x20\n        /* \"#utility.yul\":14469:14478   */\n      dup3\n        /* \"#utility.yul\":14465:14483   */\n      add\n        /* \"#utility.yul\":14457:14483   */\n      swap1\n      pop\n        /* \"#utility.yul\":14529:14538   */\n      dup2\n        /* \"#utility.yul\":14523:14527   */\n      dup2\n        /* \"#utility.yul\":14519:14539   */\n      sub\n        /* \"#utility.yul\":14515:14516   */\n      0x00\n        /* \"#utility.yul\":14504:14513   */\n      dup4\n        /* \"#utility.yul\":14500:14517   */\n      add\n        /* \"#utility.yul\":14493:14540   */\n      mstore\n        /* \"#utility.yul\":14557:14688   */\n      tag_513\n        /* \"#utility.yul\":14683:14687   */\n      dup2\n        /* \"#utility.yul\":14557:14688   */\n      tag_326\n      jump\t// in\n    tag_513:\n        /* \"#utility.yul\":14549:14688   */\n      swap1\n      pop\n        /* \"#utility.yul\":14276:14695   */\n      swap2\n      swap1\n      pop\n      jump\t// out\n        /* \"#utility.yul\":14701:14881   */\n    tag_327:\n        /* \"#utility.yul\":14841:14873   */\n      0x53656c6c6572206e6f206c6f6e676572206f776e732074686973204e46540000\n        /* \"#utility.yul\":14837:14838   */\n      0x00\n        /* \"#utility.yul\":14829:14835   */\n      dup3\n        /* \"#utility.yul\":14825:14839   */\n      add\n        /* \"#utility.yul\":14818:14874   */\n      mstore\n        /* \"#utility.yul\":14701:14881   */\n      pop\n      jump\t// out\n        /* \"#utility.yul\":14887:15253   */\n    tag_328:\n        /* \"#utility.yul\":15029:15032   */\n      0x00\n        /* \"#utility.yul\":15050:15117   */\n      tag_516\n        /* \"#utility.yul\":15114:15116   */\n      0x1e\n        /* \"#utility.yul\":15109:15112   */\n      dup4\n        /* \"#utility.yul\":15050:15117   */\n      tag_295\n      jump\t// in\n    tag_516:\n        /* \"#utility.yul\":15043:15117   */\n      swap2\n      pop\n        /* \"#utility.yul\":15126:15219   */\n      tag_517\n        /* \"#utility.yul\":15215:15218   */\n      dup3\n        /* \"#utility.yul\":15126:15219   */\n      tag_327\n      jump\t// in\n    tag_517:\n        /* \"#utility.yul\":15244:15246   */\n      0x20\n        /* \"#utility.yul\":15239:15242   */\n      dup3\n        /* \"#utility.yul\":15235:15247   */\n      add\n        /* \"#utility.yul\":15228:15247   */\n      swap1\n      pop\n        /* \"#utility.yul\":14887:15253   */\n      swap2\n      swap1\n      pop\n      jump\t// out\n        /* \"#utility.yul\":15259:15678   */\n    tag_115:\n        /* \"#utility.yul\":15425:15429   */\n      0x00\n        /* \"#utility.yul\":15463:15465   */\n      0x20\n        /* \"#utility.yul\":15452:15461   */\n      dup3\n        /* \"#utility.yul\":15448:15466   */\n      add\n        /* \"#utility.yul\":15440:15466   */\n      swap1\n      pop\n        /* \"#utility.yul\":15512:15521   */\n      dup2\n        /* \"#utility.yul\":15506:15510   */\n      dup2\n        /* \"#utility.yul\":15502:15522   */\n      sub\n        /* \"#utility.yul\":15498:15499   */\n      0x00\n        /* \"#utility.yul\":15487:15496   */\n      dup4\n        /* \"#utility.yul\":15483:15500   */\n      add\n        /* \"#utility.yul\":15476:15523   */\n      mstore\n        /* \"#utility.yul\":15540:15671   */\n      tag_519\n        /* \"#utility.yul\":15666:15670   */\n      dup2\n        /* \"#utility.yul\":15540:15671   */\n      tag_328\n      jump\t// in\n    tag_519:\n        /* \"#utility.yul\":15532:15671   */\n      swap1\n      pop\n        /* \"#utility.yul\":15259:15678   */\n      swap2\n      swap1\n      pop\n      jump\t// out\n        /* \"#utility.yul\":15684:15864   */\n    tag_329:\n        /* \"#utility.yul\":15732:15809   */\n      0x4e487b7100000000000000000000000000000000000000000000000000000000\n        /* \"#utility.yul\":15729:15730   */\n      0x00\n        /* \"#utility.yul\":15722:15810   */\n      mstore\n        /* \"#utility.yul\":15829:15833   */\n      0x11\n        /* \"#utility.yul\":15826:15827   */\n      0x04\n        /* \"#utility.yul\":15819:15834   */\n      mstore\n        /* \"#utility.yul\":15853:15857   */\n      0x24\n        /* \"#utility.yul\":15850:15851   */\n      0x00\n        /* \"#utility.yul\":15843:15858   */\n      revert\n        /* \"#utility.yul\":15870:16280   */\n    tag_117:\n        /* \"#utility.yul\":15910:15917   */\n      0x00\n        /* \"#utility.yul\":15933:15953   */\n      tag_522\n        /* \"#utility.yul\":15951:15952   */\n      dup3\n        /* \"#utility.yul\":15933:15953   */\n      tag_287\n      jump\t// in\n    tag_522:\n        /* \"#utility.yul\":15928:15953   */\n      swap2\n      pop\n        /* \"#utility.yul\":15967:15987   */\n      tag_523\n        /* \"#utility.yul\":15985:15986   */\n      dup4\n        /* \"#utility.yul\":15967:15987   */\n      tag_287\n      jump\t// in\n    tag_523:\n        /* \"#utility.yul\":15962:15987   */\n      swap3\n      pop\n        /* \"#utility.yul\":16022:16023   */\n      dup3\n        /* \"#utility.yul\":16019:16020   */\n      dup3\n        /* \"#utility.yul\":16015:16024   */\n      mul\n        /* \"#utility.yul\":16044:16074   */\n      tag_524\n        /* \"#utility.yul\":16062:16073   */\n      dup2\n        /* \"#utility.yul\":16044:16074   */\n      tag_287\n      jump\t// in\n    tag_524:\n        /* \"#utility.yul\":16033:16074   */\n      swap2\n      pop\n        /* \"#utility.yul\":16223:16224   */\n      dup3\n        /* \"#utility.yul\":16214:16221   */\n      dup3\n        /* \"#utility.yul\":16210:16225   */\n      div\n        /* \"#utility.yul\":16207:16208   */\n      dup5\n        /* \"#utility.yul\":16204:16226   */\n      eq\n        /* \"#utility.yul\":16184:16185   */\n      dup4\n        /* \"#utility.yul\":16177:16186   */\n      iszero\n        /* \"#utility.yul\":16157:16240   */\n      or\n        /* \"#utility.yul\":16134:16273   */\n      tag_525\n      jumpi\n        /* \"#utility.yul\":16253:16271   */\n      tag_526\n      tag_329\n      jump\t// in\n    tag_526:\n        /* \"#utility.yul\":16134:16273   */\n    tag_525:\n        /* \"#utility.yul\":15918:16280   */\n      pop\n        /* \"#utility.yul\":15870:16280   */\n      swap3\n      swap2\n      pop\n      pop\n      jump\t// out\n        /* \"#utility.yul\":16286:16466   */\n    tag_330:\n        /* \"#utility.yul\":16334:16411   */\n      0x4e487b7100000000000000000000000000000000000000000000000000000000\n        /* \"#utility.yul\":16331:16332   */\n      0x00\n        /* \"#utility.yul\":16324:16412   */\n      mstore\n        /* \"#utility.yul\":16431:16435   */\n      0x12\n        /* \"#utility.yul\":16428:16429   */\n      0x04\n        /* \"#utility.yul\":16421:16436   */\n      mstore\n        /* \"#utility.yul\":16455:16459   */\n      0x24\n        /* \"#utility.yul\":16452:16453   */\n      0x00\n        /* \"#utility.yul\":16445:16460   */\n      revert\n        /* \"#utility.yul\":16472:16657   */\n    tag_119:\n        /* \"#utility.yul\":16512:16513   */\n      0x00\n        /* \"#utility.yul\":16529:16549   */\n      tag_529\n        /* \"#utility.yul\":16547:16548   */\n      dup3\n        /* \"#utility.yul\":16529:16549   */\n      tag_287\n      jump\t// in\n    tag_529:\n        /* \"#utility.yul\":16524:16549   */\n      swap2\n      pop\n        /* \"#utility.yul\":16563:16583   */\n      tag_530\n        /* \"#utility.yul\":16581:16582   */\n      dup4\n        /* \"#utility.yul\":16563:16583   */\n      tag_287\n      jump\t// in\n    tag_530:\n        /* \"#utility.yul\":16558:16583   */\n      swap3\n      pop\n        /* \"#utility.yul\":16602:16603   */\n      dup3\n        /* \"#utility.yul\":16592:16627   */\n      tag_531\n      jumpi\n        /* \"#utility.yul\":16607:16625   */\n      tag_532\n      tag_330\n      jump\t// in\n    tag_532:\n        /* \"#utility.yul\":16592:16627   */\n    tag_531:\n        /* \"#utility.yul\":16649:16650   */\n      dup3\n        /* \"#utility.yul\":16646:16647   */\n      dup3\n        /* \"#utility.yul\":16642:16651   */\n      div\n        /* \"#utility.yul\":16637:16651   */\n      swap1\n      pop\n        /* \"#utility.yul\":16472:16657   */\n      swap3\n      swap2\n      pop\n      pop\n      jump\t// out\n        /* \"#utility.yul\":16663:16857   */\n    tag_121:\n        /* \"#utility.yul\":16703:16707   */\n      0x00\n        /* \"#utility.yul\":16723:16743   */\n      tag_534\n        /* \"#utility.yul\":16741:16742   */\n      dup3\n        /* \"#utility.yul\":16723:16743   */\n      tag_287\n      jump\t// in\n    tag_534:\n        /* \"#utility.yul\":16718:16743   */\n      swap2\n      pop\n        /* \"#utility.yul\":16757:16777   */\n      tag_535\n        /* \"#utility.yul\":16775:16776   */\n      dup4\n        /* \"#utility.yul\":16757:16777   */\n      tag_287\n      jump\t// in\n    tag_535:\n        /* \"#utility.yul\":16752:16777   */\n      swap3\n      pop\n        /* \"#utility.yul\":16801:16802   */\n      dup3\n        /* \"#utility.yul\":16798:16799   */\n      dup3\n        /* \"#utility.yul\":16794:16803   */\n      sub\n        /* \"#utility.yul\":16786:16803   */\n      swap1\n      pop\n        /* \"#utility.yul\":16825:16826   */\n      dup2\n        /* \"#utility.yul\":16819:16823   */\n      dup2\n        /* \"#utility.yul\":16816:16827   */\n      gt\n        /* \"#utility.yul\":16813:16850   */\n      iszero\n      tag_536\n      jumpi\n        /* \"#utility.yul\":16830:16848   */\n      tag_537\n      tag_329\n      jump\t// in\n    tag_537:\n        /* \"#utility.yul\":16813:16850   */\n    tag_536:\n        /* \"#utility.yul\":16663:16857   */\n      swap3\n      swap2\n      pop\n      pop\n      jump\t// out\n        /* \"#utility.yul\":16863:17010   */\n    tag_331:\n        /* \"#utility.yul\":16964:16975   */\n      0x00\n        /* \"#utility.yul\":17001:17004   */\n      dup2\n        /* \"#utility.yul\":16986:17004   */\n      swap1\n      pop\n        /* \"#utility.yul\":16863:17010   */\n      swap3\n      swap2\n      pop\n      pop\n      jump\t// out\n        /* \"#utility.yul\":17016:17130   */\n    tag_332:\n      pop\n      jump\t// out\n        /* \"#utility.yul\":17136:17534   */\n    tag_333:\n        /* \"#utility.yul\":17295:17298   */\n      0x00\n        /* \"#utility.yul\":17316:17399   */\n      tag_541\n        /* \"#utility.yul\":17397:17398   */\n      0x00\n        /* \"#utility.yul\":17392:17395   */\n      dup4\n        /* \"#utility.yul\":17316:17399   */\n      tag_331\n      jump\t// in\n    tag_541:\n        /* \"#utility.yul\":17309:17399   */\n      swap2\n      pop\n        /* \"#utility.yul\":17408:17501   */\n      tag_542\n        /* \"#utility.yul\":17497:17500   */\n      dup3\n        /* \"#utility.yul\":17408:17501   */\n      tag_332\n      jump\t// in\n    tag_542:\n        /* \"#utility.yul\":17526:17527   */\n      0x00\n        /* \"#utility.yul\":17521:17524   */\n      dup3\n        /* \"#utility.yul\":17517:17528   */\n      add\n        /* \"#utility.yul\":17510:17528   */\n      swap1\n      pop\n        /* \"#utility.yul\":17136:17534   */\n      swap2\n      swap1\n      pop\n      jump\t// out\n        /* \"#utility.yul\":17540:17919   */\n    tag_127:\n        /* \"#utility.yul\":17724:17727   */\n      0x00\n        /* \"#utility.yul\":17746:17893   */\n      tag_544\n        /* \"#utility.yul\":17889:17892   */\n      dup3\n        /* \"#utility.yul\":17746:17893   */\n      tag_333\n      jump\t// in\n    tag_544:\n        /* \"#utility.yul\":17739:17893   */\n      swap2\n      pop\n        /* \"#utility.yul\":17910:17913   */\n      dup2\n        /* \"#utility.yul\":17903:17913   */\n      swap1\n      pop\n        /* \"#utility.yul\":17540:17919   */\n      swap2\n      swap1\n      pop\n      jump\t// out\n        /* \"#utility.yul\":17925:18102   */\n    tag_334:\n        /* \"#utility.yul\":18065:18094   */\n      0x4661696c656420746f2073656e642066656520746f206f776e65720000000000\n        /* \"#utility.yul\":18061:18062   */\n      0x00\n        /* \"#utility.yul\":18053:18059   */\n      dup3\n        /* \"#utility.yul\":18049:18063   */\n      add\n        /* \"#utility.yul\":18042:18095   */\n      mstore\n        /* \"#utility.yul\":17925:18102   */\n      pop\n      jump\t// out\n        /* \"#utility.yul\":18108:18474   */\n    tag_335:\n        /* \"#utility.yul\":18250:18253   */\n      0x00\n        /* \"#utility.yul\":18271:18338   */\n      tag_547\n        /* \"#utility.yul\":18335:18337   */\n      0x1b\n        /* \"#utility.yul\":18330:18333   */\n      dup4\n        /* \"#utility.yul\":18271:18338   */\n      tag_295\n      jump\t// in\n    tag_547:\n        /* \"#utility.yul\":18264:18338   */\n      swap2\n      pop\n        /* \"#utility.yul\":18347:18440   */\n      tag_548\n        /* \"#utility.yul\":18436:18439   */\n      dup3\n        /* \"#utility.yul\":18347:18440   */\n      tag_334\n      jump\t// in\n    tag_548:\n        /* \"#utility.yul\":18465:18467   */\n      0x20\n        /* \"#utility.yul\":18460:18463   */\n      dup3\n        /* \"#utility.yul\":18456:18468   */\n      add\n        /* \"#utility.yul\":18449:18468   */\n      swap1\n      pop\n        /* \"#utility.yul\":18108:18474   */\n      swap2\n      swap1\n      pop\n      jump\t// out\n        /* \"#utility.yul\":18480:18899   */\n    tag_133:\n        /* \"#utility.yul\":18646:18650   */\n      0x00\n        /* \"#utility.yul\":18684:18686   */\n      0x20\n        /* \"#utility.yul\":18673:18682   */\n      dup3\n        /* \"#utility.yul\":18669:18687   */\n      add\n        /* \"#utility.yul\":18661:18687   */\n      swap1\n      pop\n        /* \"#utility.yul\":18733:18742   */\n      dup2\n        /* \"#utility.yul\":18727:18731   */\n      dup2\n        /* \"#utility.yul\":18723:18743   */\n      sub\n        /* \"#utility.yul\":18719:18720   */\n      0x00\n        /* \"#utility.yul\":18708:18717   */\n      dup4\n        /* \"#utility.yul\":18704:18721   */\n      add\n        /* \"#utility.yul\":18697:18744   */\n      mstore\n        /* \"#utility.yul\":18761:18892   */\n      tag_550\n        /* \"#utility.yul\":18887:18891   */\n      dup2\n        /* \"#utility.yul\":18761:18892   */\n      tag_335\n      jump\t// in\n    tag_550:\n        /* \"#utility.yul\":18753:18892   */\n      swap1\n      pop\n        /* \"#utility.yul\":18480:18899   */\n      swap2\n      swap1\n      pop\n      jump\t// out\n        /* \"#utility.yul\":18905:19086   */\n    tag_336:\n        /* \"#utility.yul\":19045:19078   */\n      0x4661696c656420746f2073656e6420616d6f756e7420746f2073656c6c657200\n        /* \"#utility.yul\":19041:19042   */\n      0x00\n        /* \"#utility.yul\":19033:19039   */\n      dup3\n        /* \"#utility.yul\":19029:19043   */\n      add\n        /* \"#utility.yul\":19022:19079   */\n      mstore\n        /* \"#utility.yul\":18905:19086   */\n      pop\n      jump\t// out\n        /* \"#utility.yul\":19092:19458   */\n    tag_337:\n        /* \"#utility.yul\":19234:19237   */\n      0x00\n        /* \"#utility.yul\":19255:19322   */\n      tag_553\n        /* \"#utility.yul\":19319:19321   */\n      0x1f\n        /* \"#utility.yul\":19314:19317   */\n      dup4\n        /* \"#utility.yul\":19255:19322   */\n      tag_295\n      jump\t// in\n    tag_553:\n        /* \"#utility.yul\":19248:19322   */\n      swap2\n      pop\n        /* \"#utility.yul\":19331:19424   */\n      tag_554\n        /* \"#utility.yul\":19420:19423   */\n      dup3\n        /* \"#utility.yul\":19331:19424   */\n      tag_336\n      jump\t// in\n    tag_554:\n        /* \"#utility.yul\":19449:19451   */\n      0x20\n        /* \"#utility.yul\":19444:19447   */\n      dup3\n        /* \"#utility.yul\":19440:19452   */\n      add\n        /* \"#utility.yul\":19433:19452   */\n      swap1\n      pop\n        /* \"#utility.yul\":19092:19458   */\n      swap2\n      swap1\n      pop\n      jump\t// out\n        /* \"#utility.yul\":19464:19883   */\n    tag_140:\n        /* \"#utility.yul\":19630:19634   */\n      0x00\n        /* \"#utility.yul\":19668:19670   */\n      0x20\n        /* \"#utility.yul\":19657:19666   */\n      dup3\n        /* \"#utility.yul\":19653:19671   */\n      add\n        /* \"#utility.yul\":19645:19671   */\n      swap1\n      pop\n        /* \"#utility.yul\":19717:19726   */\n      dup2\n        /* \"#utility.yul\":19711:19715   */\n      dup2\n        /* \"#utility.yul\":19707:19727   */\n      sub\n        /* \"#utility.yul\":19703:19704   */\n      0x00\n        /* \"#utility.yul\":19692:19701   */\n      dup4\n        /* \"#utility.yul\":19688:19705   */\n      add\n        /* \"#utility.yul\":19681:19728   */\n      mstore\n        /* \"#utility.yul\":19745:19876   */\n      tag_556\n        /* \"#utility.yul\":19871:19875   */\n      dup2\n        /* \"#utility.yul\":19745:19876   */\n      tag_337\n      jump\t// in\n    tag_556:\n        /* \"#utility.yul\":19737:19876   */\n      swap1\n      pop\n        /* \"#utility.yul\":19464:19883   */\n      swap2\n      swap1\n      pop\n      jump\t// out\n        /* \"#utility.yul\":19889:20069   */\n    tag_338:\n        /* \"#utility.yul\":20029:20061   */\n      0x4661696c656420746f20726566756e642065786365737320616d6f756e740000\n        /* \"#utility.yul\":20025:20026   */\n      0x00\n        /* \"#utility.yul\":20017:20023   */\n      dup3\n        /* \"#utility.yul\":20013:20027   */\n      add\n        /* \"#utility.yul\":20006:20062   */\n      mstore\n        /* \"#utility.yul\":19889:20069   */\n      pop\n      jump\t// out\n        /* \"#utility.yul\":20075:20441   */\n    tag_339:\n        /* \"#utility.yul\":20217:20220   */\n      0x00\n        /* \"#utility.yul\":20238:20305   */\n      tag_559\n        /* \"#utility.yul\":20302:20304   */\n      0x1e\n        /* \"#utility.yul\":20297:20300   */\n      dup4\n        /* \"#utility.yul\":20238:20305   */\n      tag_295\n      jump\t// in\n    tag_559:\n        /* \"#utility.yul\":20231:20305   */\n      swap2\n      pop\n        /* \"#utility.yul\":20314:20407   */\n      tag_560\n        /* \"#utility.yul\":20403:20406   */\n      dup3\n        /* \"#utility.yul\":20314:20407   */\n      tag_338\n      jump\t// in\n    tag_560:\n        /* \"#utility.yul\":20432:20434   */\n      0x20\n        /* \"#utility.yul\":20427:20430   */\n      dup3\n        /* \"#utility.yul\":20423:20435   */\n      add\n        /* \"#utility.yul\":20416:20435   */\n      swap1\n      pop\n        /* \"#utility.yul\":20075:20441   */\n      swap2\n      swap1\n      pop\n      jump\t// out\n        /* \"#utility.yul\":20447:20866   */\n    tag_149:\n        /* \"#utility.yul\":20613:20617   */\n      0x00\n        /* \"#utility.yul\":20651:20653   */\n      0x20\n        /* \"#utility.yul\":20640:20649   */\n      dup3\n        /* \"#utility.yul\":20636:20654   */\n      add\n        /* \"#utility.yul\":20628:20654   */\n      swap1\n      pop\n        /* \"#utility.yul\":20700:20709   */\n      dup2\n        /* \"#utility.yul\":20694:20698   */\n      dup2\n        /* \"#utility.yul\":20690:20710   */\n      sub\n        /* \"#utility.yul\":20686:20687   */\n      0x00\n        /* \"#utility.yul\":20675:20684   */\n      dup4\n        /* \"#utility.yul\":20671:20688   */\n      add\n        /* \"#utility.yul\":20664:20711   */\n      mstore\n        /* \"#utility.yul\":20728:20859   */\n      tag_562\n        /* \"#utility.yul\":20854:20858   */\n      dup2\n        /* \"#utility.yul\":20728:20859   */\n      tag_339\n      jump\t// in\n    tag_562:\n        /* \"#utility.yul\":20720:20859   */\n      swap1\n      pop\n        /* \"#utility.yul\":20447:20866   */\n      swap2\n      swap1\n      pop\n      jump\t// out\n        /* \"#utility.yul\":20872:21052   */\n    tag_340:\n        /* \"#utility.yul\":20920:20997   */\n      0x4e487b7100000000000000000000000000000000000000000000000000000000\n        /* \"#utility.yul\":20917:20918   */\n      0x00\n        /* \"#utility.yul\":20910:20998   */\n      mstore\n        /* \"#utility.yul\":21017:21021   */\n      0x22\n        /* \"#utility.yul\":21014:21015   */\n      0x04\n        /* \"#utility.yul\":21007:21022   */\n      mstore\n        /* \"#utility.yul\":21041:21045   */\n      0x24\n        /* \"#utility.yul\":21038:21039   */\n      0x00\n        /* \"#utility.yul\":21031:21046   */\n      revert\n        /* \"#utility.yul\":21058:21378   */\n    tag_153:\n        /* \"#utility.yul\":21102:21108   */\n      0x00\n        /* \"#utility.yul\":21139:21140   */\n      0x02\n        /* \"#utility.yul\":21133:21137   */\n      dup3\n        /* \"#utility.yul\":21129:21141   */\n      div\n        /* \"#utility.yul\":21119:21141   */\n      swap1\n      pop\n        /* \"#utility.yul\":21186:21187   */\n      0x01\n        /* \"#utility.yul\":21180:21184   */\n      dup3\n        /* \"#utility.yul\":21176:21188   */\n      and\n        /* \"#utility.yul\":21207:21225   */\n      dup1\n        /* \"#utility.yul\":21197:21278   */\n      tag_565\n      jumpi\n        /* \"#utility.yul\":21263:21267   */\n      0x7f\n        /* \"#utility.yul\":21255:21261   */\n      dup3\n        /* \"#utility.yul\":21251:21268   */\n      and\n        /* \"#utility.yul\":21241:21268   */\n      swap2\n      pop\n        /* \"#utility.yul\":21197:21278   */\n    tag_565:\n        /* \"#utility.yul\":21325:21327   */\n      0x20\n        /* \"#utility.yul\":21317:21323   */\n      dup3\n        /* \"#utility.yul\":21314:21328   */\n      lt\n        /* \"#utility.yul\":21294:21312   */\n      dup2\n        /* \"#utility.yul\":21291:21329   */\n      sub\n        /* \"#utility.yul\":21288:21372   */\n      tag_566\n      jumpi\n        /* \"#utility.yul\":21344:21362   */\n      tag_567\n      tag_340\n      jump\t// in\n    tag_567:\n        /* \"#utility.yul\":21288:21372   */\n    tag_566:\n        /* \"#utility.yul\":21109:21378   */\n      pop\n        /* \"#utility.yul\":21058:21378   */\n      swap2\n      swap1\n      pop\n      jump\t// out\n        /* \"#utility.yul\":21384:21547   */\n    tag_341:\n        /* \"#utility.yul\":21524:21539   */\n      0x4e6f7420746865206f776e657200000000000000000000000000000000000000\n        /* \"#utility.yul\":21520:21521   */\n      0x00\n        /* \"#utility.yul\":21512:21518   */\n      dup3\n        /* \"#utility.yul\":21508:21522   */\n      add\n        /* \"#utility.yul\":21501:21540   */\n      mstore\n        /* \"#utility.yul\":21384:21547   */\n      pop\n      jump\t// out\n        /* \"#utility.yul\":21553:21919   */\n    tag_342:\n        /* \"#utility.yul\":21695:21698   */\n      0x00\n        /* \"#utility.yul\":21716:21783   */\n      tag_570\n        /* \"#utility.yul\":21780:21782   */\n      0x0d\n        /* \"#utility.yul\":21775:21778   */\n      dup4\n        /* \"#utility.yul\":21716:21783   */\n      tag_295\n      jump\t// in\n    tag_570:\n        /* \"#utility.yul\":21709:21783   */\n      swap2\n      pop\n        /* \"#utility.yul\":21792:21885   */\n      tag_571\n        /* \"#utility.yul\":21881:21884   */\n      dup3\n        /* \"#utility.yul\":21792:21885   */\n      tag_341\n      jump\t// in\n    tag_571:\n        /* \"#utility.yul\":21910:21912   */\n      0x20\n        /* \"#utility.yul\":21905:21908   */\n      dup3\n        /* \"#utility.yul\":21901:21913   */\n      add\n        /* \"#utility.yul\":21894:21913   */\n      swap1\n      pop\n        /* \"#utility.yul\":21553:21919   */\n      swap2\n      swap1\n      pop\n      jump\t// out\n        /* \"#utility.yul\":21925:22344   */\n    tag_187:\n        /* \"#utility.yul\":22091:22095   */\n      0x00\n        /* \"#utility.yul\":22129:22131   */\n      0x20\n        /* \"#utility.yul\":22118:22127   */\n      dup3\n        /* \"#utility.yul\":22114:22132   */\n      add\n        /* \"#utility.yul\":22106:22132   */\n      swap1\n      pop\n        /* \"#utility.yul\":22178:22187   */\n      dup2\n        /* \"#utility.yul\":22172:22176   */\n      dup2\n        /* \"#utility.yul\":22168:22188   */\n      sub\n        /* \"#utility.yul\":22164:22165   */\n      0x00\n        /* \"#utility.yul\":22153:22162   */\n      dup4\n        /* \"#utility.yul\":22149:22166   */\n      add\n        /* \"#utility.yul\":22142:22189   */\n      mstore\n        /* \"#utility.yul\":22206:22337   */\n      tag_573\n        /* \"#utility.yul\":22332:22336   */\n      dup2\n        /* \"#utility.yul\":22206:22337   */\n      tag_342\n      jump\t// in\n    tag_573:\n        /* \"#utility.yul\":22198:22337   */\n      swap1\n      pop\n        /* \"#utility.yul\":21925:22344   */\n      swap2\n      swap1\n      pop\n      jump\t// out\n        /* \"#utility.yul\":22350:22531   */\n    tag_343:\n        /* \"#utility.yul\":22490:22523   */\n      0x5072696365206d7573742062652067726561746572207468616e207a65726f00\n        /* \"#utility.yul\":22486:22487   */\n      0x00\n        /* \"#utility.yul\":22478:22484   */\n      dup3\n        /* \"#utility.yul\":22474:22488   */\n      add\n        /* \"#utility.yul\":22467:22524   */\n      mstore\n        /* \"#utility.yul\":22350:22531   */\n      pop\n      jump\t// out\n        /* \"#utility.yul\":22537:22903   */\n    tag_344:\n        /* \"#utility.yul\":22679:22682   */\n      0x00\n        /* \"#utility.yul\":22700:22767   */\n      tag_576\n        /* \"#utility.yul\":22764:22766   */\n      0x1f\n        /* \"#utility.yul\":22759:22762   */\n      dup4\n        /* \"#utility.yul\":22700:22767   */\n      tag_295\n      jump\t// in\n    tag_576:\n        /* \"#utility.yul\":22693:22767   */\n      swap2\n      pop\n        /* \"#utility.yul\":22776:22869   */\n      tag_577\n        /* \"#utility.yul\":22865:22868   */\n      dup3\n        /* \"#utility.yul\":22776:22869   */\n      tag_343\n      jump\t// in\n    tag_577:\n        /* \"#utility.yul\":22894:22896   */\n      0x20\n        /* \"#utility.yul\":22889:22892   */\n      dup3\n        /* \"#utility.yul\":22885:22897   */\n      add\n        /* \"#utility.yul\":22878:22897   */\n      swap1\n      pop\n        /* \"#utility.yul\":22537:22903   */\n      swap2\n      swap1\n      pop\n      jump\t// out\n        /* \"#utility.yul\":22909:23328   */\n    tag_190:\n        /* \"#utility.yul\":23075:23079   */\n      0x00\n        /* \"#utility.yul\":23113:23115   */\n      0x20\n        /* \"#utility.yul\":23102:23111   */\n      dup3\n        /* \"#utility.yul\":23098:23116   */\n      add\n        /* \"#utility.yul\":23090:23116   */\n      swap1\n      pop\n        /* \"#utility.yul\":23162:23171   */\n      dup2\n        /* \"#utility.yul\":23156:23160   */\n      dup2\n        /* \"#utility.yul\":23152:23172   */\n      sub\n        /* \"#utility.yul\":23148:23149   */\n      0x00\n        /* \"#utility.yul\":23137:23146   */\n      dup4\n        /* \"#utility.yul\":23133:23150   */\n      add\n        /* \"#utility.yul\":23126:23173   */\n      mstore\n        /* \"#utility.yul\":23190:23321   */\n      tag_579\n        /* \"#utility.yul\":23316:23320   */\n      dup2\n        /* \"#utility.yul\":23190:23321   */\n      tag_344\n      jump\t// in\n    tag_579:\n        /* \"#utility.yul\":23182:23321   */\n      swap1\n      pop\n        /* \"#utility.yul\":22909:23328   */\n      swap2\n      swap1\n      pop\n      jump\t// out\n        /* \"#utility.yul\":23334:23482   */\n    tag_345:\n        /* \"#utility.yul\":23436:23447   */\n      0x00\n        /* \"#utility.yul\":23473:23476   */\n      dup2\n        /* \"#utility.yul\":23458:23476   */\n      swap1\n      pop\n        /* \"#utility.yul\":23334:23482   */\n      swap3\n      swap2\n      pop\n      pop\n      jump\t// out\n        /* \"#utility.yul\":23488:23878   */\n    tag_346:\n        /* \"#utility.yul\":23594:23597   */\n      0x00\n        /* \"#utility.yul\":23622:23661   */\n      tag_582\n        /* \"#utility.yul\":23655:23660   */\n      dup3\n        /* \"#utility.yul\":23622:23661   */\n      tag_294\n      jump\t// in\n    tag_582:\n        /* \"#utility.yul\":23677:23766   */\n      tag_583\n        /* \"#utility.yul\":23759:23765   */\n      dup2\n        /* \"#utility.yul\":23754:23757   */\n      dup6\n        /* \"#utility.yul\":23677:23766   */\n      tag_345\n      jump\t// in\n    tag_583:\n        /* \"#utility.yul\":23670:23766   */\n      swap4\n      pop\n        /* \"#utility.yul\":23775:23840   */\n      tag_584\n        /* \"#utility.yul\":23833:23839   */\n      dup2\n        /* \"#utility.yul\":23828:23831   */\n      dup6\n        /* \"#utility.yul\":23821:23825   */\n      0x20\n        /* \"#utility.yul\":23814:23819   */\n      dup7\n        /* \"#utility.yul\":23810:23826   */\n      add\n        /* \"#utility.yul\":23775:23840   */\n      tag_296\n      jump\t// in\n    tag_584:\n        /* \"#utility.yul\":23865:23871   */\n      dup1\n        /* \"#utility.yul\":23860:23863   */\n      dup5\n        /* \"#utility.yul\":23856:23872   */\n      add\n        /* \"#utility.yul\":23849:23872   */\n      swap2\n      pop\n        /* \"#utility.yul\":23598:23878   */\n      pop\n        /* \"#utility.yul\":23488:23878   */\n      swap3\n      swap2\n      pop\n      pop\n      jump\t// out\n        /* \"#utility.yul\":23884:24159   */\n    tag_199:\n        /* \"#utility.yul\":24016:24019   */\n      0x00\n        /* \"#utility.yul\":24038:24133   */\n      tag_586\n        /* \"#utility.yul\":24129:24132   */\n      dup3\n        /* \"#utility.yul\":24120:24126   */\n      dup5\n        /* \"#utility.yul\":24038:24133   */\n      tag_346\n      jump\t// in\n    tag_586:\n        /* \"#utility.yul\":24031:24133   */\n      swap2\n      pop\n        /* \"#utility.yul\":24150:24153   */\n      dup2\n        /* \"#utility.yul\":24143:24153   */\n      swap1\n      pop\n        /* \"#utility.yul\":23884:24159   */\n      swap3\n      swap2\n      pop\n      pop\n      jump\t// out\n        /* \"#utility.yul\":24165:24339   */\n    tag_347:\n        /* \"#utility.yul\":24305:24331   */\n      0x546f6b656e2055524920616c7265616479206578697374730000000000000000\n        /* \"#utility.yul\":24301:24302   */\n      0x00\n        /* \"#utility.yul\":24293:24299   */\n      dup3\n        /* \"#utility.yul\":24289:24303   */\n      add\n        /* \"#utility.yul\":24282:24332   */\n      mstore\n        /* \"#utility.yul\":24165:24339   */\n      pop\n      jump\t// out\n        /* \"#utility.yul\":24345:24711   */\n    tag_348:\n        /* \"#utility.yul\":24487:24490   */\n      0x00\n        /* \"#utility.yul\":24508:24575   */\n      tag_589\n        /* \"#utility.yul\":24572:24574   */\n      0x18\n        /* \"#utility.yul\":24567:24570   */\n      dup4\n        /* \"#utility.yul\":24508:24575   */\n      tag_295\n      jump\t// in\n    tag_589:\n        /* \"#utility.yul\":24501:24575   */\n      swap2\n      pop\n        /* \"#utility.yul\":24584:24677   */\n      tag_590\n        /* \"#utility.yul\":24673:24676   */\n      dup3\n        /* \"#utility.yul\":24584:24677   */\n      tag_347\n      jump\t// in\n    tag_590:\n        /* \"#utility.yul\":24702:24704   */\n      0x20\n        /* \"#utility.yul\":24697:24700   */\n      dup3\n        /* \"#utility.yul\":24693:24705   */\n      add\n        /* \"#utility.yul\":24686:24705   */\n      swap1\n      pop\n        /* \"#utility.yul\":24345:24711   */\n      swap2\n      swap1\n      pop\n      jump\t// out\n        /* \"#utility.yul\":24717:25136   */\n    tag_202:\n        /* \"#utility.yul\":24883:24887   */\n      0x00\n        /* \"#utility.yul\":24921:24923   */\n      0x20\n        /* \"#utility.yul\":24910:24919   */\n      dup3\n        /* \"#utility.yul\":24906:24924   */\n      add\n        /* \"#utility.yul\":24898:24924   */\n      swap1\n      pop\n        /* \"#utility.yul\":24970:24979   */\n      dup2\n        /* \"#utility.yul\":24964:24968   */\n      dup2\n        /* \"#utility.yul\":24960:24980   */\n      sub\n        /* \"#utility.yul\":24956:24957   */\n      0x00\n        /* \"#utility.yul\":24945:24954   */\n      dup4\n        /* \"#utility.yul\":24941:24958   */\n      add\n        /* \"#utility.yul\":24934:24981   */\n      mstore\n        /* \"#utility.yul\":24998:25129   */\n      tag_592\n        /* \"#utility.yul\":25124:25128   */\n      dup2\n        /* \"#utility.yul\":24998:25129   */\n      tag_348\n      jump\t// in\n    tag_592:\n        /* \"#utility.yul\":24990:25129   */\n      swap1\n      pop\n        /* \"#utility.yul\":24717:25136   */\n      swap2\n      swap1\n      pop\n      jump\t// out\n        /* \"#utility.yul\":25142:25311   */\n    tag_349:\n        /* \"#utility.yul\":25282:25303   */\n      0x546f6b656e2055524920697320656d7074792100000000000000000000000000\n        /* \"#utility.yul\":25278:25279   */\n      0x00\n        /* \"#utility.yul\":25270:25276   */\n      dup3\n        /* \"#utility.yul\":25266:25280   */\n      add\n        /* \"#utility.yul\":25259:25304   */\n      mstore\n        /* \"#utility.yul\":25142:25311   */\n      pop\n      jump\t// out\n        /* \"#utility.yul\":25317:25683   */\n    tag_350:\n        /* \"#utility.yul\":25459:25462   */\n      0x00\n        /* \"#utility.yul\":25480:25547   */\n      tag_595\n        /* \"#utility.yul\":25544:25546   */\n      0x13\n        /* \"#utility.yul\":25539:25542   */\n      dup4\n        /* \"#utility.yul\":25480:25547   */\n      tag_295\n      jump\t// in\n    tag_595:\n        /* \"#utility.yul\":25473:25547   */\n      swap2\n      pop\n        /* \"#utility.yul\":25556:25649   */\n      tag_596\n        /* \"#utility.yul\":25645:25648   */\n      dup3\n        /* \"#utility.yul\":25556:25649   */\n      tag_349\n      jump\t// in\n    tag_596:\n        /* \"#utility.yul\":25674:25676   */\n      0x20\n        /* \"#utility.yul\":25669:25672   */\n      dup3\n        /* \"#utility.yul\":25665:25677   */\n      add\n        /* \"#utility.yul\":25658:25677   */\n      swap1\n      pop\n        /* \"#utility.yul\":25317:25683   */\n      swap2\n      swap1\n      pop\n      jump\t// out\n        /* \"#utility.yul\":25689:26108   */\n    tag_208:\n        /* \"#utility.yul\":25855:25859   */\n      0x00\n        /* \"#utility.yul\":25893:25895   */\n      0x20\n        /* \"#utility.yul\":25882:25891   */\n      dup3\n        /* \"#utility.yul\":25878:25896   */\n      add\n        /* \"#utility.yul\":25870:25896   */\n      swap1\n      pop\n        /* \"#utility.yul\":25942:25951   */\n      dup2\n        /* \"#utility.yul\":25936:25940   */\n      dup2\n        /* \"#utility.yul\":25932:25952   */\n      sub\n        /* \"#utility.yul\":25928:25929   */\n      0x00\n        /* \"#utility.yul\":25917:25926   */\n      dup4\n        /* \"#utility.yul\":25913:25930   */\n      add\n        /* \"#utility.yul\":25906:25953   */\n      mstore\n        /* \"#utility.yul\":25970:26101   */\n      tag_598\n        /* \"#utility.yul\":26096:26100   */\n      dup2\n        /* \"#utility.yul\":25970:26101   */\n      tag_350\n      jump\t// in\n    tag_598:\n        /* \"#utility.yul\":25962:26101   */\n      swap1\n      pop\n        /* \"#utility.yul\":25689:26108   */\n      swap2\n      swap1\n      pop\n      jump\t// out\n        /* \"#utility.yul\":26114:26305   */\n    tag_210:\n        /* \"#utility.yul\":26154:26157   */\n      0x00\n        /* \"#utility.yul\":26173:26193   */\n      tag_600\n        /* \"#utility.yul\":26191:26192   */\n      dup3\n        /* \"#utility.yul\":26173:26193   */\n      tag_287\n      jump\t// in\n    tag_600:\n        /* \"#utility.yul\":26168:26193   */\n      swap2\n      pop\n        /* \"#utility.yul\":26207:26227   */\n      tag_601\n        /* \"#utility.yul\":26225:26226   */\n      dup4\n        /* \"#utility.yul\":26207:26227   */\n      tag_287\n      jump\t// in\n    tag_601:\n        /* \"#utility.yul\":26202:26227   */\n      swap3\n      pop\n        /* \"#utility.yul\":26250:26251   */\n      dup3\n        /* \"#utility.yul\":26247:26248   */\n      dup3\n        /* \"#utility.yul\":26243:26252   */\n      add\n        /* \"#utility.yul\":26236:26252   */\n      swap1\n      pop\n        /* \"#utility.yul\":26271:26274   */\n      dup1\n        /* \"#utility.yul\":26268:26269   */\n      dup3\n        /* \"#utility.yul\":26265:26275   */\n      gt\n        /* \"#utility.yul\":26262:26298   */\n      iszero\n      tag_602\n      jumpi\n        /* \"#utility.yul\":26278:26296   */\n      tag_603\n      tag_329\n      jump\t// in\n    tag_603:\n        /* \"#utility.yul\":26262:26298   */\n    tag_602:\n        /* \"#utility.yul\":26114:26305   */\n      swap3\n      swap2\n      pop\n      pop\n      jump\t// out\n        /* \"#utility.yul\":26311:26452   */\n    tag_351:\n        /* \"#utility.yul\":26360:26364   */\n      0x00\n        /* \"#utility.yul\":26383:26386   */\n      dup2\n        /* \"#utility.yul\":26375:26386   */\n      swap1\n      pop\n        /* \"#utility.yul\":26406:26409   */\n      dup2\n        /* \"#utility.yul\":26403:26404   */\n      0x00\n        /* \"#utility.yul\":26396:26410   */\n      mstore\n        /* \"#utility.yul\":26440:26444   */\n      0x20\n        /* \"#utility.yul\":26437:26438   */\n      0x00\n        /* \"#utility.yul\":26427:26445   */\n      keccak256\n        /* \"#utility.yul\":26419:26445   */\n      swap1\n      pop\n        /* \"#utility.yul\":26311:26452   */\n      swap2\n      swap1\n      pop\n      jump\t// out\n        /* \"#utility.yul\":26458:26551   */\n    tag_352:\n        /* \"#utility.yul\":26495:26501   */\n      0x00\n        /* \"#utility.yul\":26542:26544   */\n      0x20\n        /* \"#utility.yul\":26537:26539   */\n      0x1f\n        /* \"#utility.yul\":26530:26535   */\n      dup4\n        /* \"#utility.yul\":26526:26540   */\n      add\n        /* \"#utility.yul\":26522:26545   */\n      div\n        /* \"#utility.yul\":26512:26545   */\n      swap1\n      pop\n        /* \"#utility.yul\":26458:26551   */\n      swap2\n      swap1\n      pop\n      jump\t// out\n        /* \"#utility.yul\":26557:26664   */\n    tag_353:\n        /* \"#utility.yul\":26601:26609   */\n      0x00\n        /* \"#utility.yul\":26651:26656   */\n      dup3\n        /* \"#utility.yul\":26645:26649   */\n      dup3\n        /* \"#utility.yul\":26641:26657   */\n      shl\n        /* \"#utility.yul\":26620:26657   */\n      swap1\n      pop\n        /* \"#utility.yul\":26557:26664   */\n      swap3\n      swap2\n      pop\n      pop\n      jump\t// out\n        /* \"#utility.yul\":26670:27063   */\n    tag_354:\n        /* \"#utility.yul\":26739:26745   */\n      0x00\n        /* \"#utility.yul\":26789:26790   */\n      0x08\n        /* \"#utility.yul\":26777:26787   */\n      dup4\n        /* \"#utility.yul\":26773:26791   */\n      mul\n        /* \"#utility.yul\":26812:26909   */\n      tag_608\n        /* \"#utility.yul\":26842:26908   */\n      0xffffffffffffffffffffffffffffffffffffffffffffffffffffffffffffffff\n        /* \"#utility.yul\":26831:26840   */\n      dup3\n        /* \"#utility.yul\":26812:26909   */\n      tag_353\n      jump\t// in\n    tag_608:\n        /* \"#utility.yul\":26930:26969   */\n      tag_609\n        /* \"#utility.yul\":26960:26968   */\n      dup7\n        /* \"#utility.yul\":26949:26958   */\n      dup4\n        /* \"#utility.yul\":26930:26969   */\n      tag_353\n      jump\t// in\n    tag_609:\n        /* \"#utility.yul\":26918:26969   */\n      swap6\n      pop\n        /* \"#utility.yul\":27002:27006   */\n      dup1\n        /* \"#utility.yul\":26998:27007   */\n      not\n        /* \"#utility.yul\":26991:26996   */\n      dup5\n        /* \"#utility.yul\":26987:27008   */\n      and\n        /* \"#utility.yul\":26978:27008   */\n      swap4\n      pop\n        /* \"#utility.yul\":27051:27055   */\n      dup1\n        /* \"#utility.yul\":27041:27049   */\n      dup7\n        /* \"#utility.yul\":27037:27056   */\n      and\n        /* \"#utility.yul\":27030:27035   */\n      dup5\n        /* \"#utility.yul\":27027:27057   */\n      or\n        /* \"#utility.yul\":27017:27057   */\n      swap3\n      pop\n        /* \"#utility.yul\":26746:27063   */\n      pop\n      pop\n        /* \"#utility.yul\":26670:27063   */\n      swap4\n      swap3\n      pop\n      pop\n      pop\n      jump\t// out\n        /* \"#utility.yul\":27069:27129   */\n    tag_355:\n        /* \"#utility.yul\":27097:27100   */\n      0x00\n        /* \"#utility.yul\":27118:27123   */\n      dup2\n        /* \"#utility.yul\":27111:27123   */\n      swap1\n      pop\n        /* \"#utility.yul\":27069:27129   */\n      swap2\n      swap1\n      pop\n      jump\t// out\n        /* \"#utility.yul\":27135:27277   */\n    tag_356:\n        /* \"#utility.yul\":27185:27194   */\n      0x00\n        /* \"#utility.yul\":27218:27271   */\n      tag_612\n        /* \"#utility.yul\":27236:27270   */\n      tag_613\n        /* \"#utility.yul\":27245:27269   */\n      tag_614\n        /* \"#utility.yul\":27263:27268   */\n      dup5\n        /* \"#utility.yul\":27245:27269   */\n      tag_287\n      jump\t// in\n    tag_614:\n        /* \"#utility.yul\":27236:27270   */\n      tag_355\n      jump\t// in\n    tag_613:\n        /* \"#utility.yul\":27218:27271   */\n      tag_287\n      jump\t// in\n    tag_612:\n        /* \"#utility.yul\":27205:27271   */\n      swap1\n      pop\n        /* \"#utility.yul\":27135:27277   */\n      swap2\n      swap1\n      pop\n      jump\t// out\n        /* \"#utility.yul\":27283:27358   */\n    tag_357:\n        /* \"#utility.yul\":27326:27329   */\n      0x00\n        /* \"#utility.yul\":27347:27352   */\n      dup2\n        /* \"#utility.yul\":27340:27352   */\n      swap1\n      pop\n        /* \"#utility.yul\":27283:27358   */\n      swap2\n      swap1\n      pop\n      jump\t// out\n        /* \"#utility.yul\":27364:27633   */\n    tag_358:\n        /* \"#utility.yul\":27474:27513   */\n      tag_617\n        /* \"#utility.yul\":27505:27512   */\n      dup4\n        /* \"#utility.yul\":27474:27513   */\n      tag_356\n      jump\t// in\n    tag_617:\n        /* \"#utility.yul\":27535:27626   */\n      tag_618\n        /* \"#utility.yul\":27584:27625   */\n      tag_619\n        /* \"#utility.yul\":27608:27624   */\n      dup3\n        /* \"#utility.yul\":27584:27625   */\n      tag_357\n      jump\t// in\n    tag_619:\n        /* \"#utility.yul\":27576:27582   */\n      dup5\n        /* \"#utility.yul\":27569:27573   */\n      dup5\n        /* \"#utility.yul\":27563:27574   */\n      sload\n        /* \"#utility.yul\":27535:27626   */\n      tag_354\n      jump\t// in\n    tag_618:\n        /* \"#utility.yul\":27529:27533   */\n      dup3\n        /* \"#utility.yul\":27522:27627   */\n      sstore\n        /* \"#utility.yul\":27440:27633   */\n      pop\n        /* \"#utility.yul\":27364:27633   */\n      pop\n      pop\n      pop\n      jump\t// out\n        /* \"#utility.yul\":27639:27712   */\n    tag_359:\n        /* \"#utility.yul\":27684:27687   */\n      0x00\n        /* \"#utility.yul\":27705:27706   */\n      0x00\n        /* \"#utility.yul\":27698:27706   */\n      swap1\n      pop\n        /* \"#utility.yul\":27639:27712   */\n      swap1\n      jump\t// out\n        /* \"#utility.yul\":27718:27907   */\n    tag_360:\n        /* \"#utility.yul\":27795:27827   */\n      tag_622\n      tag_359\n      jump\t// in\n    tag_622:\n        /* \"#utility.yul\":27836:27901   */\n      tag_623\n        /* \"#utility.yul\":27894:27900   */\n      dup2\n        /* \"#utility.yul\":27886:27892   */\n      dup5\n        /* \"#utility.yul\":27880:27884   */\n      dup5\n        /* \"#utility.yul\":27836:27901   */\n      tag_358\n      jump\t// in\n    tag_623:\n        /* \"#utility.yul\":27771:27907   */\n      pop\n        /* \"#utility.yul\":27718:27907   */\n      pop\n      pop\n      jump\t// out\n        /* \"#utility.yul\":27913:28099   */\n    tag_361:\n        /* \"#utility.yul\":27973:28093   */\n    tag_625:\n        /* \"#utility.yul\":27990:27993   */\n      dup2\n        /* \"#utility.yul\":27983:27988   */\n      dup2\n        /* \"#utility.yul\":27980:27994   */\n      lt\n        /* \"#utility.yul\":27973:28093   */\n      iszero\n      tag_627\n      jumpi\n        /* \"#utility.yul\":28044:28083   */\n      tag_628\n        /* \"#utility.yul\":28081:28082   */\n      0x00\n        /* \"#utility.yul\":28074:28079   */\n      dup3\n        /* \"#utility.yul\":28044:28083   */\n      tag_360\n      jump\t// in\n    tag_628:\n        /* \"#utility.yul\":28017:28018   */\n      0x01\n        /* \"#utility.yul\":28010:28015   */\n      dup2\n        /* \"#utility.yul\":28006:28019   */\n      add\n        /* \"#utility.yul\":27997:28019   */\n      swap1\n      pop\n        /* \"#utility.yul\":27973:28093   */\n      jump(tag_625)\n    tag_627:\n        /* \"#utility.yul\":27913:28099   */\n      pop\n      pop\n      jump\t// out\n        /* \"#utility.yul\":28105:28648   */\n    tag_362:\n        /* \"#utility.yul\":28206:28208   */\n      0x1f\n        /* \"#utility.yul\":28201:28204   */\n      dup3\n        /* \"#utility.yul\":28198:28209   */\n      gt\n        /* \"#utility.yul\":28195:28641   */\n      iszero\n      tag_630\n      jumpi\n        /* \"#utility.yul\":28240:28278   */\n      tag_631\n        /* \"#utility.yul\":28272:28277   */\n      dup2\n        /* \"#utility.yul\":28240:28278   */\n      tag_351\n      jump\t// in\n    tag_631:\n        /* \"#utility.yul\":28324:28353   */\n      tag_632\n        /* \"#utility.yul\":28342:28352   */\n      dup5\n        /* \"#utility.yul\":28324:28353   */\n      tag_352\n      jump\t// in\n    tag_632:\n        /* \"#utility.yul\":28314:28322   */\n      dup2\n        /* \"#utility.yul\":28310:28354   */\n      add\n        /* \"#utility.yul\":28507:28509   */\n      0x20\n        /* \"#utility.yul\":28495:28505   */\n      dup6\n        /* \"#utility.yul\":28492:28510   */\n      lt\n        /* \"#utility.yul\":28489:28538   */\n      iszero\n      tag_633\n      jumpi\n        /* \"#utility.yul\":28528:28536   */\n      dup2\n        /* \"#utility.yul\":28513:28536   */\n      swap1\n      pop\n        /* \"#utility.yul\":28489:28538   */\n    tag_633:\n        /* \"#utility.yul\":28551:28631   */\n      tag_634\n        /* \"#utility.yul\":28607:28629   */\n      tag_635\n        /* \"#utility.yul\":28625:28628   */\n      dup6\n        /* \"#utility.yul\":28607:28629   */\n      tag_352\n      jump\t// in\n    tag_635:\n        /* \"#utility.yul\":28597:28605   */\n      dup4\n        /* \"#utility.yul\":28593:28630   */\n      add\n        /* \"#utility.yul\":28580:28591   */\n      dup3\n        /* \"#utility.yul\":28551:28631   */\n      tag_361\n      jump\t// in\n    tag_634:\n        /* \"#utility.yul\":28210:28641   */\n      pop\n      pop\n        /* \"#utility.yul\":28195:28641   */\n    tag_630:\n        /* \"#utility.yul\":28105:28648   */\n      pop\n      pop\n      pop\n      jump\t// out\n        /* \"#utility.yul\":28654:28771   */\n    tag_363:\n        /* \"#utility.yul\":28708:28716   */\n      0x00\n        /* \"#utility.yul\":28758:28763   */\n      dup3\n        /* \"#utility.yul\":28752:28756   */\n      dup3\n        /* \"#utility.yul\":28748:28764   */\n      shr\n        /* \"#utility.yul\":28727:28764   */\n      swap1\n      pop\n        /* \"#utility.yul\":28654:28771   */\n      swap3\n      swap2\n      pop\n      pop\n      jump\t// out\n        /* \"#utility.yul\":28777:28946   */\n    tag_364:\n        /* \"#utility.yul\":28821:28827   */\n      0x00\n        /* \"#utility.yul\":28854:28905   */\n      tag_638\n        /* \"#utility.yul\":28902:28903   */\n      0x00\n        /* \"#utility.yul\":28898:28904   */\n      not\n        /* \"#utility.yul\":28890:28895   */\n      dup5\n        /* \"#utility.yul\":28887:28888   */\n      0x08\n        /* \"#utility.yul\":28883:28896   */\n      mul\n        /* \"#utility.yul\":28854:28905   */\n      tag_363\n      jump\t// in\n    tag_638:\n        /* \"#utility.yul\":28850:28906   */\n      not\n        /* \"#utility.yul\":28935:28939   */\n      dup1\n        /* \"#utility.yul\":28929:28933   */\n      dup4\n        /* \"#utility.yul\":28925:28940   */\n      and\n        /* \"#utility.yul\":28915:28940   */\n      swap2\n      pop\n        /* \"#utility.yul\":28828:28946   */\n      pop\n        /* \"#utility.yul\":28777:28946   */\n      swap3\n      swap2\n      pop\n      pop\n      jump\t// out\n        /* \"#utility.yul\":28951:29246   */\n    tag_365:\n        /* \"#utility.yul\":29027:29031   */\n      0x00\n        /* \"#utility.yul\":29173:29202   */\n      tag_640\n        /* \"#utility.yul\":29198:29201   */\n      dup4\n        /* \"#utility.yul\":29192:29196   */\n      dup4\n        /* \"#utility.yul\":29173:29202   */\n      tag_364\n      jump\t// in\n    tag_640:\n        /* \"#utility.yul\":29165:29202   */\n      swap2\n      pop\n        /* \"#utility.yul\":29235:29238   */\n      dup3\n        /* \"#utility.yul\":29232:29233   */\n      0x02\n        /* \"#utility.yul\":29228:29239   */\n      mul\n        /* \"#utility.yul\":29222:29226   */\n      dup3\n        /* \"#utility.yul\":29219:29240   */\n      or\n        /* \"#utility.yul\":29211:29240   */\n      swap1\n      pop\n        /* \"#utility.yul\":28951:29246   */\n      swap3\n      swap2\n      pop\n      pop\n      jump\t// out\n        /* \"#utility.yul\":29251:30646   */\n    tag_212:\n        /* \"#utility.yul\":29368:29405   */\n      tag_642\n        /* \"#utility.yul\":29401:29404   */\n      dup3\n        /* \"#utility.yul\":29368:29405   */\n      tag_294\n      jump\t// in\n    tag_642:\n        /* \"#utility.yul\":29470:29488   */\n      0xffffffffffffffff\n        /* \"#utility.yul\":29462:29468   */\n      dup2\n        /* \"#utility.yul\":29459:29489   */\n      gt\n        /* \"#utility.yul\":29456:29512   */\n      iszero\n      tag_643\n      jumpi\n        /* \"#utility.yul\":29492:29510   */\n      tag_644\n      tag_312\n      jump\t// in\n    tag_644:\n        /* \"#utility.yul\":29456:29512   */\n    tag_643:\n        /* \"#utility.yul\":29536:29574   */\n      tag_645\n        /* \"#utility.yul\":29568:29572   */\n      dup3\n        /* \"#utility.yul\":29562:29573   */\n      sload\n        /* \"#utility.yul\":29536:29574   */\n      tag_153\n      jump\t// in\n    tag_645:\n        /* \"#utility.yul\":29621:29688   */\n      tag_646\n        /* \"#utility.yul\":29681:29687   */\n      dup3\n        /* \"#utility.yul\":29673:29679   */\n      dup3\n        /* \"#utility.yul\":29667:29671   */\n      dup6\n        /* \"#utility.yul\":29621:29688   */\n      tag_362\n      jump\t// in\n    tag_646:\n        /* \"#utility.yul\":29715:29716   */\n      0x00\n        /* \"#utility.yul\":29739:29743   */\n      0x20\n        /* \"#utility.yul\":29726:29743   */\n      swap1\n      pop\n        /* \"#utility.yul\":29771:29773   */\n      0x1f\n        /* \"#utility.yul\":29763:29769   */\n      dup4\n        /* \"#utility.yul\":29760:29774   */\n      gt\n        /* \"#utility.yul\":29788:29789   */\n      0x01\n        /* \"#utility.yul\":29783:30401   */\n      dup2\n      eq\n      tag_648\n      jumpi\n        /* \"#utility.yul\":30445:30446   */\n      0x00\n        /* \"#utility.yul\":30462:30468   */\n      dup5\n        /* \"#utility.yul\":30459:30536   */\n      iszero\n      tag_649\n      jumpi\n        /* \"#utility.yul\":30511:30520   */\n      dup3\n        /* \"#utility.yul\":30506:30509   */\n      dup8\n        /* \"#utility.yul\":30502:30521   */\n      add\n        /* \"#utility.yul\":30496:30522   */\n      mload\n        /* \"#utility.yul\":30487:30522   */\n      swap1\n      pop\n        /* \"#utility.yul\":30459:30536   */\n    tag_649:\n        /* \"#utility.yul\":30562:30629   */\n      tag_650\n        /* \"#utility.yul\":30622:30628   */\n      dup6\n        /* \"#utility.yul\":30615:30620   */\n      dup3\n        /* \"#utility.yul\":30562:30629   */\n      tag_365\n      jump\t// in\n    tag_650:\n        /* \"#utility.yul\":30556:30560   */\n      dup7\n        /* \"#utility.yul\":30549:30630   */\n      sstore\n        /* \"#utility.yul\":30418:30640   */\n      pop\n        /* \"#utility.yul\":29753:30640   */\n      jump(tag_647)\n        /* \"#utility.yul\":29783:30401   */\n    tag_648:\n        /* \"#utility.yul\":29835:29839   */\n      0x1f\n        /* \"#utility.yul\":29831:29840   */\n      not\n        /* \"#utility.yul\":29823:29829   */\n      dup5\n        /* \"#utility.yul\":29819:29841   */\n      and\n        /* \"#utility.yul\":29869:29906   */\n      tag_651\n        /* \"#utility.yul\":29901:29905   */\n      dup7\n        /* \"#utility.yul\":29869:29906   */\n      tag_351\n      jump\t// in\n    tag_651:\n        /* \"#utility.yul\":29928:29929   */\n      0x00\n        /* \"#utility.yul\":29942:30150   */\n    tag_652:\n        /* \"#utility.yul\":29956:29963   */\n      dup3\n        /* \"#utility.yul\":29953:29954   */\n      dup2\n        /* \"#utility.yul\":29950:29964   */\n      lt\n        /* \"#utility.yul\":29942:30150   */\n      iszero\n      tag_654\n      jumpi\n        /* \"#utility.yul\":30035:30044   */\n      dup5\n        /* \"#utility.yul\":30030:30033   */\n      dup10\n        /* \"#utility.yul\":30026:30045   */\n      add\n        /* \"#utility.yul\":30020:30046   */\n      mload\n        /* \"#utility.yul\":30012:30018   */\n      dup3\n        /* \"#utility.yul\":30005:30047   */\n      sstore\n        /* \"#utility.yul\":30086:30087   */\n      0x01\n        /* \"#utility.yul\":30078:30084   */\n      dup3\n        /* \"#utility.yul\":30074:30088   */\n      add\n        /* \"#utility.yul\":30064:30088   */\n      swap2\n      pop\n        /* \"#utility.yul\":30133:30135   */\n      0x20\n        /* \"#utility.yul\":30122:30131   */\n      dup6\n        /* \"#utility.yul\":30118:30136   */\n      add\n        /* \"#utility.yul\":30105:30136   */\n      swap5\n      pop\n        /* \"#utility.yul\":29979:29983   */\n      0x20\n        /* \"#utility.yul\":29976:29977   */\n      dup2\n        /* \"#utility.yul\":29972:29984   */\n      add\n        /* \"#utility.yul\":29967:29984   */\n      swap1\n      pop\n        /* \"#utility.yul\":29942:30150   */\n      jump(tag_652)\n    tag_654:\n        /* \"#utility.yul\":30178:30184   */\n      dup7\n        /* \"#utility.yul\":30169:30176   */\n      dup4\n        /* \"#utility.yul\":30166:30185   */\n      lt\n        /* \"#utility.yul\":30163:30342   */\n      iszero\n      tag_655\n      jumpi\n        /* \"#utility.yul\":30236:30245   */\n      dup5\n        /* \"#utility.yul\":30231:30234   */\n      dup10\n        /* \"#utility.yul\":30227:30246   */\n      add\n        /* \"#utility.yul\":30221:30247   */\n      mload\n        /* \"#utility.yul\":30279:30327   */\n      tag_656\n        /* \"#utility.yul\":30321:30325   */\n      0x1f\n        /* \"#utility.yul\":30313:30319   */\n      dup10\n        /* \"#utility.yul\":30309:30326   */\n      and\n        /* \"#utility.yul\":30298:30307   */\n      dup3\n        /* \"#utility.yul\":30279:30327   */\n      tag_364\n      jump\t// in\n    tag_656:\n        /* \"#utility.yul\":30271:30277   */\n      dup4\n        /* \"#utility.yul\":30264:30328   */\n      sstore\n        /* \"#utility.yul\":30186:30342   */\n      pop\n        /* \"#utility.yul\":30163:30342   */\n    tag_655:\n        /* \"#utility.yul\":30388:30389   */\n      0x01\n        /* \"#utility.yul\":30384:30385   */\n      0x02\n        /* \"#utility.yul\":30376:30382   */\n      dup9\n        /* \"#utility.yul\":30372:30386   */\n      mul\n        /* \"#utility.yul\":30368:30390   */\n      add\n        /* \"#utility.yul\":30362:30366   */\n      dup9\n        /* \"#utility.yul\":30355:30391   */\n      sstore\n        /* \"#utility.yul\":29790:30401   */\n      pop\n      pop\n      pop\n        /* \"#utility.yul\":29753:30640   */\n    tag_647:\n      pop\n        /* \"#utility.yul\":29343:30646   */\n      pop\n      pop\n      pop\n        /* \"#utility.yul\":29251:30646   */\n      pop\n      pop\n      jump\t// out\n        /* \"#utility.yul\":30652:30818   */\n    tag_366:\n        /* \"#utility.yul\":30792:30810   */\n      0x5061757361626c653a2070617573656400000000000000000000000000000000\n        /* \"#utility.yul\":30788:30789   */\n      0x00\n        /* \"#utility.yul\":30780:30786   */\n      dup3\n        /* \"#utility.yul\":30776:30790   */\n      add\n        /* \"#utility.yul\":30769:30811   */\n      mstore\n        /* \"#utility.yul\":30652:30818   */\n      pop\n      jump\t// out\n        /* \"#utility.yul\":30824:31190   */\n    tag_367:\n        /* \"#utility.yul\":30966:30969   */\n      0x00\n        /* \"#utility.yul\":30987:31054   */\n      tag_659\n        /* \"#utility.yul\":31051:31053   */\n      0x10\n        /* \"#utility.yul\":31046:31049   */\n      dup4\n        /* \"#utility.yul\":30987:31054   */\n      tag_295\n      jump\t// in\n    tag_659:\n        /* \"#utility.yul\":30980:31054   */\n      swap2\n      pop\n        /* \"#utility.yul\":31063:31156   */\n      tag_660\n        /* \"#utility.yul\":31152:31155   */\n      dup3\n        /* \"#utility.yul\":31063:31156   */\n      tag_366\n      jump\t// in\n    tag_660:\n        /* \"#utility.yul\":31181:31183   */\n      0x20\n        /* \"#utility.yul\":31176:31179   */\n      dup3\n        /* \"#utility.yul\":31172:31184   */\n      add\n        /* \"#utility.yul\":31165:31184   */\n      swap1\n      pop\n        /* \"#utility.yul\":30824:31190   */\n      swap2\n      swap1\n      pop\n      jump\t// out\n        /* \"#utility.yul\":31196:31615   */\n    tag_227:\n        /* \"#utility.yul\":31362:31366   */\n      0x00\n        /* \"#utility.yul\":31400:31402   */\n      0x20\n        /* \"#utility.yul\":31389:31398   */\n      dup3\n        /* \"#utility.yul\":31385:31403   */\n      add\n        /* \"#utility.yul\":31377:31403   */\n      swap1\n      pop\n        /* \"#utility.yul\":31449:31458   */\n      dup2\n        /* \"#utility.yul\":31443:31447   */\n      dup2\n        /* \"#utility.yul\":31439:31459   */\n      sub\n        /* \"#utility.yul\":31435:31436   */\n      0x00\n        /* \"#utility.yul\":31424:31433   */\n      dup4\n        /* \"#utility.yul\":31420:31437   */\n      add\n        /* \"#utility.yul\":31413:31460   */\n      mstore\n        /* \"#utility.yul\":31477:31608   */\n      tag_662\n        /* \"#utility.yul\":31603:31607   */\n      dup2\n        /* \"#utility.yul\":31477:31608   */\n      tag_367\n      jump\t// in\n    tag_662:\n        /* \"#utility.yul\":31469:31608   */\n      swap1\n      pop\n        /* \"#utility.yul\":31196:31615   */\n      swap2\n      swap1\n      pop\n      jump\t// out\n        /* \"#utility.yul\":31621:31802   */\n    tag_368:\n        /* \"#utility.yul\":31761:31794   */\n      0x5265656e7472616e637947756172643a207265656e7472616e742063616c6c00\n        /* \"#utility.yul\":31757:31758   */\n      0x00\n        /* \"#utility.yul\":31749:31755   */\n      dup3\n        /* \"#utility.yul\":31745:31759   */\n      add\n        /* \"#utility.yul\":31738:31795   */\n      mstore\n        /* \"#utility.yul\":31621:31802   */\n      pop\n      jump\t// out\n        /* \"#utility.yul\":31808:32174   */\n    tag_369:\n        /* \"#utility.yul\":31950:31953   */\n      0x00\n        /* \"#utility.yul\":31971:32038   */\n      tag_665\n        /* \"#utility.yul\":32035:32037   */\n      0x1f\n        /* \"#utility.yul\":32030:32033   */\n      dup4\n        /* \"#utility.yul\":31971:32038   */\n      tag_295\n      jump\t// in\n    tag_665:\n        /* \"#utility.yul\":31964:32038   */\n      swap2\n      pop\n        /* \"#utility.yul\":32047:32140   */\n      tag_666\n        /* \"#utility.yul\":32136:32139   */\n      dup3\n        /* \"#utility.yul\":32047:32140   */\n      tag_368\n      jump\t// in\n    tag_666:\n        /* \"#utility.yul\":32165:32167   */\n      0x20\n        /* \"#utility.yul\":32160:32163   */\n      dup3\n        /* \"#utility.yul\":32156:32168   */\n      add\n        /* \"#utility.yul\":32149:32168   */\n      swap1\n      pop\n        /* \"#utility.yul\":31808:32174   */\n      swap2\n      swap1\n      pop\n      jump\t// out\n        /* \"#utility.yul\":32180:32599   */\n    tag_231:\n        /* \"#utility.yul\":32346:32350   */\n      0x00\n        /* \"#utility.yul\":32384:32386   */\n      0x20\n        /* \"#utility.yul\":32373:32382   */\n      dup3\n        /* \"#utility.yul\":32369:32387   */\n      add\n        /* \"#utility.yul\":32361:32387   */\n      swap1\n      pop\n        /* \"#utility.yul\":32433:32442   */\n      dup2\n        /* \"#utility.yul\":32427:32431   */\n      dup2\n        /* \"#utility.yul\":32423:32443   */\n      sub\n        /* \"#utility.yul\":32419:32420   */\n      0x00\n        /* \"#utility.yul\":32408:32417   */\n      dup4\n        /* \"#utility.yul\":32404:32421   */\n      add\n        /* \"#utility.yul\":32397:32444   */\n      mstore\n        /* \"#utility.yul\":32461:32592   */\n      tag_668\n        /* \"#utility.yul\":32587:32591   */\n      dup2\n        /* \"#utility.yul\":32461:32592   */\n      tag_369\n      jump\t// in\n    tag_668:\n        /* \"#utility.yul\":32453:32592   */\n      swap1\n      pop\n        /* \"#utility.yul\":32180:32599   */\n      swap2\n      swap1\n      pop\n      jump\t// out\n        /* \"#utility.yul\":32605:32785   */\n    tag_240:\n        /* \"#utility.yul\":32653:32730   */\n      0x4e487b7100000000000000000000000000000000000000000000000000000000\n        /* \"#utility.yul\":32650:32651   */\n      0x00\n        /* \"#utility.yul\":32643:32731   */\n      mstore\n        /* \"#utility.yul\":32750:32754   */\n      0x32\n        /* \"#utility.yul\":32747:32748   */\n      0x04\n        /* \"#utility.yul\":32740:32755   */\n      mstore\n        /* \"#utility.yul\":32774:32778   */\n      0x24\n        /* \"#utility.yul\":32771:32772   */\n      0x00\n        /* \"#utility.yul\":32764:32779   */\n      revert\n        /* \"#utility.yul\":32791:32971   */\n    tag_252:\n        /* \"#utility.yul\":32839:32916   */\n      0x4e487b7100000000000000000000000000000000000000000000000000000000\n        /* \"#utility.yul\":32836:32837   */\n      0x00\n        /* \"#utility.yul\":32829:32917   */\n      mstore\n        /* \"#utility.yul\":32936:32940   */\n      0x31\n        /* \"#utility.yul\":32933:32934   */\n      0x04\n        /* \"#utility.yul\":32926:32941   */\n      mstore\n        /* \"#utility.yul\":32960:32964   */\n      0x24\n        /* \"#utility.yul\":32957:32958   */\n      0x00\n        /* \"#utility.yul\":32950:32965   */\n      revert\n        /* \"#utility.yul\":32977:33210   */\n    tag_277:\n        /* \"#utility.yul\":33016:33019   */\n      0x00\n        /* \"#utility.yul\":33039:33063   */\n      tag_672\n        /* \"#utility.yul\":33057:33062   */\n      dup3\n        /* \"#utility.yul\":33039:33063   */\n      tag_287\n      jump\t// in\n    tag_672:\n        /* \"#utility.yul\":33030:33063   */\n      swap2\n      pop\n        /* \"#utility.yul\":33085:33151   */\n      0xffffffffffffffffffffffffffffffffffffffffffffffffffffffffffffffff\n        /* \"#utility.yul\":33078:33083   */\n      dup3\n        /* \"#utility.yul\":33075:33152   */\n      sub\n        /* \"#utility.yul\":33072:33175   */\n      tag_673\n      jumpi\n        /* \"#utility.yul\":33155:33173   */\n      tag_674\n      tag_329\n      jump\t// in\n    tag_674:\n        /* \"#utility.yul\":33072:33175   */\n    tag_673:\n        /* \"#utility.yul\":33202:33203   */\n      0x01\n        /* \"#utility.yul\":33195:33200   */\n      dup3\n        /* \"#utility.yul\":33191:33204   */\n      add\n        /* \"#utility.yul\":33184:33204   */\n      swap1\n      pop\n        /* \"#utility.yul\":32977:33210   */\n      swap2\n      swap1\n      pop\n      jump\t// out\n        /* \"#utility.yul\":33216:33386   */\n    tag_370:\n        /* \"#utility.yul\":33356:33378   */\n      0x5061757361626c653a206e6f7420706175736564000000000000000000000000\n        /* \"#utility.yul\":33352:33353   */\n      0x00\n        /* \"#utility.yul\":33344:33350   */\n      dup3\n        /* \"#utility.yul\":33340:33354   */\n      add\n        /* \"#utility.yul\":33333:33379   */\n      mstore\n        /* \"#utility.yul\":33216:33386   */\n      pop\n      jump\t// out\n        /* \"#utility.yul\":33392:33758   */\n    tag_371:\n        /* \"#utility.yul\":33534:33537   */\n      0x00\n        /* \"#utility.yul\":33555:33622   */\n      tag_677\n        /* \"#utility.yul\":33619:33621   */\n      0x14\n        /* \"#utility.yul\":33614:33617   */\n      dup4\n        /* \"#utility.yul\":33555:33622   */\n      tag_295\n      jump\t// in\n    tag_677:\n        /* \"#utility.yul\":33548:33622   */\n      swap2\n      pop\n        /* \"#utility.yul\":33631:33724   */\n      tag_678\n        /* \"#utility.yul\":33720:33723   */\n      dup3\n        /* \"#utility.yul\":33631:33724   */\n      tag_370\n      jump\t// in\n    tag_678:\n        /* \"#utility.yul\":33749:33751   */\n      0x20\n        /* \"#utility.yul\":33744:33747   */\n      dup3\n        /* \"#utility.yul\":33740:33752   */\n      add\n        /* \"#utility.yul\":33733:33752   */\n      swap1\n      pop\n        /* \"#utility.yul\":33392:33758   */\n      swap2\n      swap1\n      pop\n      jump\t// out\n        /* \"#utility.yul\":33764:34183   */\n    tag_283:\n        /* \"#utility.yul\":33930:33934   */\n      0x00\n        /* \"#utility.yul\":33968:33970   */\n      0x20\n        /* \"#utility.yul\":33957:33966   */\n      dup3\n        /* \"#utility.yul\":33953:33971   */\n      add\n        /* \"#utility.yul\":33945:33971   */\n      swap1\n      pop\n        /* \"#utility.yul\":34017:34026   */\n      dup2\n        /* \"#utility.yul\":34011:34015   */\n      dup2\n        /* \"#utility.yul\":34007:34027   */\n      sub\n        /* \"#utility.yul\":34003:34004   */\n      0x00\n        /* \"#utility.yul\":33992:34001   */\n      dup4\n        /* \"#utility.yul\":33988:34005   */\n      add\n        /* \"#utility.yul\":33981:34028   */\n      mstore\n        /* \"#utility.yul\":34045:34176   */\n      tag_680\n        /* \"#utility.yul\":34171:34175   */\n      dup2\n        /* \"#utility.yul\":34045:34176   */\n      tag_371\n      jump\t// in\n    tag_680:\n        /* \"#utility.yul\":34037:34176   */\n      swap1\n      pop\n        /* \"#utility.yul\":33764:34183   */\n      swap2\n      swap1\n      pop\n      jump\t// out\n\n    auxdata: 0xa264697066735822122009f5d1a056f9bcaa3ec72321f88c66ca8675ac2d7428422cf6a3adfc4ac9bc4064736f6c634300081b0033\n}\n",
				"bytecode": {
					"linkReferences": {},
					"object": "608060405234801561000f575f5ffd5b5060405161290d38038061290d833981810160405281019061003191906101f0565b335f73ffffffffffffffffffffffffffffffffffffffff168173ffffffffffffffffffffffffffffffffffffffff16036100a2575f6040517f1e4fbdf7000000000000000000000000000000000000000000000000000000008152600401610099919061025a565b60405180910390fd5b6100b1816100ee60201b60201c565b50600180819055505f60025f6101000a81548160ff021916908315150217905550806003819055506100e85f6101af60201b60201c565b50610273565b5f5f5f9054906101000a900473ffffffffffffffffffffffffffffffffffffffff169050815f5f6101000a81548173ffffffffffffffffffffffffffffffffffffffff021916908373ffffffffffffffffffffffffffffffffffffffff1602179055508173ffffffffffffffffffffffffffffffffffffffff168173ffffffffffffffffffffffffffffffffffffffff167f8be0079c531659141344cd1fd0a4f28419497f9722a3daafe3b4186f6b6457e060405160405180910390a35050565b8060048190555050565b5f5ffd5b5f819050919050565b6101cf816101bd565b81146101d9575f5ffd5b50565b5f815190506101ea816101c6565b92915050565b5f60208284031215610205576102046101b9565b5b5f610212848285016101dc565b91505092915050565b5f73ffffffffffffffffffffffffffffffffffffffff82169050919050565b5f6102448261021b565b9050919050565b6102548161023a565b82525050565b5f60208201905061026d5f83018461024b565b92915050565b61268d806102805f395ff3fe6080604052600436106100e7575f3560e01c8063715018a611610089578063d63d4af011610058578063d63d4af0146102a5578063d85d3d27146102e1578063de74e57b14610309578063f2fde38b14610347576100e7565b8063715018a6146102275780638456cb591461023d5780638da5cb5b1461025357806394383f141461027d576100e7565b806328b60031116100c557806328b600311461016f5780633bb3a24d146101ab5780633f4ba83a146101e75780635c975abb146101fd576100e7565b8063150bde03146100eb57806318160ddd14610107578063265aa62114610131575b5f5ffd5b61010560048036038101906101009190611616565b61036f565b005b348015610112575f5ffd5b5061011b610974565b6040516101289190611650565b60405180910390f35b34801561013c575f5ffd5b5061015760048036038101906101529190611616565b61097a565b60405161016693929190611718565b60405180910390f35b34801561017a575f5ffd5b506101956004803603810190610190919061177e565b610a45565b6040516101a29190611650565b60405180910390f35b3480156101b6575f5ffd5b506101d160048036038101906101cc9190611616565b610a70565b6040516101de91906117bc565b60405180910390f35b3480156101f2575f5ffd5b506101fb610b14565b005b348015610208575f5ffd5b50610211610b52565b60405161021e91906117f6565b60405180910390f35b348015610232575f5ffd5b5061023b610b67565b005b348015610248575f5ffd5b50610251610b7a565b005b34801561025e575f5ffd5b50610267610bb8565b604051610274919061180f565b60405180910390f35b348015610288575f5ffd5b506102a3600480360381019061029e9190611828565b610bdf565b005b3480156102b0575f5ffd5b506102cb60048036038101906102c69190611866565b610db4565b6040516102d89190611948565b60405180910390f35b3480156102ec575f5ffd5b5061030760048036038101906103029190611a94565b610e47565b005b348015610314575f5ffd5b5061032f600480360381019061032a9190611616565b6110d8565b60405161033e93929190611adb565b60405180910390f35b348015610352575f5ffd5b5061036d60048036038101906103689190611866565b61112a565b005b6103776111ae565b61037f6111f8565b5f60065f8381526020019081526020015f206040518060600160405290815f8201548152602001600182015f9054906101000a900473ffffffffffffffffffffffffffffffffffffffff1673ffffffffffffffffffffffffffffffffffffffff1673ffffffffffffffffffffffffffffffffffffffff1681526020016001820160149054906101000a900460ff1615151515815250509050806040015161045b576040517f08c379a000000000000000000000000000000000000000000000000000000000815260040161045290611b5a565b60405180910390fd5b805f01513410156104a1576040517f08c379a000000000000000000000000000000000000000000000000000000000815260040161049890611bc2565b60405180910390fd5b5f815f015190505f826020015190505f73ffffffffffffffffffffffffffffffffffffffff168173ffffffffffffffffffffffffffffffffffffffff160361051e576040517f08c379a000000000000000000000000000000000000000000000000000000000815260040161051590611c2a565b60405180910390fd5b5f73ffffffffffffffffffffffffffffffffffffffff1661053d610bb8565b73ffffffffffffffffffffffffffffffffffffffff1603610593576040517f08c379a000000000000000000000000000000000000000000000000000000000815260040161058a90611c92565b60405180910390fd5b8073ffffffffffffffffffffffffffffffffffffffff1660055f8681526020019081526020015f206001015f9054906101000a900473ffffffffffffffffffffffffffffffffffffffff1673ffffffffffffffffffffffffffffffffffffffff1614610634576040517f08c379a000000000000000000000000000000000000000000000000000000000815260040161062b90611cfa565b60405180910390fd5b5f6064600354846106459190611d45565b61064f9190611db3565b90505f818461065e9190611de3565b90503360055f8881526020019081526020015f206001015f6101000a81548173ffffffffffffffffffffffffffffffffffffffff021916908373ffffffffffffffffffffffffffffffffffffffff1602179055506106bc8387611247565b60075f3373ffffffffffffffffffffffffffffffffffffffff1673ffffffffffffffffffffffffffffffffffffffff1681526020019081526020015f2086908060018154018082558091505060019003905f5260205f20015f90919091909150555f60065f8881526020019081526020015f2060010160146101000a81548160ff0219169083151502179055505f610752610bb8565b73ffffffffffffffffffffffffffffffffffffffff168360405161077590611e43565b5f6040518083038185875af1925050503d805f81146107af576040519150601f19603f3d011682016040523d82523d5f602084013e6107b4565b606091505b50509050806107f8576040517f08c379a00000000000000000000000000000000000000000000000000000000081526004016107ef90611ea1565b60405180910390fd5b5f8473ffffffffffffffffffffffffffffffffffffffff168360405161081d90611e43565b5f6040518083038185875af1925050503d805f8114610857576040519150601f19603f3d011682016040523d82523d5f602084013e61085c565b606091505b50509050806108a0576040517f08c379a000000000000000000000000000000000000000000000000000000000815260040161089790611f09565b60405180910390fd5b5f86346108ad9190611de3565b90505f811115610961575f3373ffffffffffffffffffffffffffffffffffffffff16826040516108dc90611e43565b5f6040518083038185875af1925050503d805f8114610916576040519150601f19603f3d011682016040523d82523d5f602084013e61091b565b606091505b505090508061095f576040517f08c379a000000000000000000000000000000000000000000000000000000000815260040161095690611f71565b60405180910390fd5b505b5050505050505050610971611349565b50565b60045481565b6005602052805f5260405f205f91509050805f015490806001015f9054906101000a900473ffffffffffffffffffffffffffffffffffffffff16908060020180546109c490611fbc565b80601f01602080910402602001604051908101604052809291908181526020018280546109f090611fbc565b8015610a3b5780601f10610a1257610100808354040283529160200191610a3b565b820191905f5260205f20905b815481529060010190602001808311610a1e57829003601f168201915b5050505050905083565b6007602052815f5260405f208181548110610a5e575f80fd5b905f5260205f20015f91509150505481565b606060055f8381526020019081526020015f206002018054610a9190611fbc565b80601f0160208091040260200160405190810160405280929190818152602001828054610abd90611fbc565b8015610b085780601f10610adf57610100808354040283529160200191610b08565b820191905f5260205f20905b815481529060010190602001808311610aeb57829003601f168201915b50505050509050919050565b610b1c611352565b610b246113d9565b7fa45f47fdea8a1efdd9029a5691c7f759c32b7c698632b563573e155625d1693360405160405180910390a1565b5f60025f9054906101000a900460ff16905090565b610b6f611352565b610b785f61143a565b565b610b82611352565b610b8a6114fb565b7f9e87fac88ff661f02d44f95383c817fece4bce600a3dab7a54406878b965e75260405160405180910390a1565b5f5f5f9054906101000a900473ffffffffffffffffffffffffffffffffffffffff16905090565b3373ffffffffffffffffffffffffffffffffffffffff1660055f8481526020019081526020015f206001015f9054906101000a900473ffffffffffffffffffffffffffffffffffffffff1673ffffffffffffffffffffffffffffffffffffffff1614610c80576040517f08c379a0000000000000000000000000000000000000000000000000000000008152600401610c7790612036565b60405180910390fd5b5f8111610cc2576040517f08c379a0000000000000000000000000000000000000000000000000000000008152600401610cb99061209e565b60405180910390fd5b60405180606001604052808281526020013373ffffffffffffffffffffffffffffffffffffffff1681526020016001151581525060065f8481526020019081526020015f205f820151815f01556020820151816001015f6101000a81548173ffffffffffffffffffffffffffffffffffffffff021916908373ffffffffffffffffffffffffffffffffffffffff16021790555060408201518160010160146101000a81548160ff021916908315150217905550905050817fa6cd73580a273eec6c1026108f6b63479fbaef5356dde4ff43e4b38dd187485f82604051610da89190611650565b60405180910390a25050565b606060075f8373ffffffffffffffffffffffffffffffffffffffff1673ffffffffffffffffffffffffffffffffffffffff1681526020019081526020015f20805480602002602001604051908101604052809291908181526020018280548015610e3b57602002820191905f5260205f20905b815481526020019060010190808311610e27575b50505050509050919050565b610e4f6111ae565b8060085f82604051602001610e6491906120f6565b6040516020818303038152906040528051906020012081526020019081526020015f205f9054906101000a900460ff1615610ed4576040517f08c379a0000000000000000000000000000000000000000000000000000000008152600401610ecb90612156565b60405180910390fd5b610edd8261155d565b610f1c576040517f08c379a0000000000000000000000000000000000000000000000000000000008152600401610f13906121be565b60405180910390fd5b5f6001600454610f2c91906121dc565b905060405180606001604052808281526020013373ffffffffffffffffffffffffffffffffffffffff1681526020018481525060055f8381526020019081526020015f205f820151815f01556020820151816001015f6101000a81548173ffffffffffffffffffffffffffffffffffffffff021916908373ffffffffffffffffffffffffffffffffffffffff1602179055506040820151816002019081610fd391906123af565b5090505060075f3373ffffffffffffffffffffffffffffffffffffffff1673ffffffffffffffffffffffffffffffffffffffff1681526020019081526020015f2081908060018154018082558091505060019003905f5260205f20015f9091909190915055600160085f8560405160200161104e91906120f6565b6040516020818303038152906040528051906020012081526020019081526020015f205f6101000a81548160ff02191690831515021790555061108f611569565b803373ffffffffffffffffffffffffffffffffffffffff167f4cc0a9c4a99ddc700de1af2c9f916a7cbfdb71f14801ccff94061ad1ef8a804060405160405180910390a3505050565b6006602052805f5260405f205f91509050805f015490806001015f9054906101000a900473ffffffffffffffffffffffffffffffffffffffff16908060010160149054906101000a900460ff16905083565b611132611352565b5f73ffffffffffffffffffffffffffffffffffffffff168173ffffffffffffffffffffffffffffffffffffffff16036111a2575f6040517f1e4fbdf7000000000000000000000000000000000000000000000000000000008152600401611199919061180f565b60405180910390fd5b6111ab8161143a565b50565b6111b6610b52565b156111f6576040517f08c379a00000000000000000000000000000000000000000000000000000000081526004016111ed906124c8565b60405180910390fd5b565b60026001540361123d576040517f08c379a000000000000000000000000000000000000000000000000000000000815260040161123490612530565b60405180910390fd5b6002600181905550565b61124f6111ae565b5f60075f8473ffffffffffffffffffffffffffffffffffffffff1673ffffffffffffffffffffffffffffffffffffffff1681526020019081526020015f2090505f5f90505b818054905081101561134357828282815481106112b4576112b361254e565b5b905f5260205f200154036113365781600183805490506112d49190611de3565b815481106112e5576112e461254e565b5b905f5260205f2001548282815481106113015761130061254e565b5b905f5260205f2001819055508180548061131e5761131d61257b565b5b600190038181905f5260205f20015f90559055611343565b8080600101915050611294565b50505050565b60018081905550565b61135a611582565b73ffffffffffffffffffffffffffffffffffffffff16611378610bb8565b73ffffffffffffffffffffffffffffffffffffffff16146113d75761139b611582565b6040517f118cdaa70000000000000000000000000000000000000000000000000000000081526004016113ce919061180f565b60405180910390fd5b565b6113e1611589565b5f60025f6101000a81548160ff0219169083151502179055507f5db9ee0a495bf2e6ff9c91a7834c1ba4fdd244a5e8aa4e537bd38aeae4b073aa611423611582565b604051611430919061180f565b60405180910390a1565b5f5f5f9054906101000a900473ffffffffffffffffffffffffffffffffffffffff169050815f5f6101000a81548173ffffffffffffffffffffffffffffffffffffffff021916908373ffffffffffffffffffffffffffffffffffffffff1602179055508173ffffffffffffffffffffffffffffffffffffffff168173ffffffffffffffffffffffffffffffffffffffff167f8be0079c531659141344cd1fd0a4f28419497f9722a3daafe3b4186f6b6457e060405160405180910390a35050565b6115036111ae565b600160025f6101000a81548160ff0219169083151502179055507f62e78cea01bee320cd4e420270b5ea74000d11b0c9f74754ebdbfc544b05a258611546611582565b604051611553919061180f565b60405180910390a1565b5f5f8251119050919050565b60045f81548092919061157b906125a8565b9190505550565b5f33905090565b611591610b52565b6115d0576040517f08c379a00000000000000000000000000000000000000000000000000000000081526004016115c790612639565b60405180910390fd5b565b5f604051905090565b5f5ffd5b5f5ffd5b5f819050919050565b6115f5816115e3565b81146115ff575f5ffd5b50565b5f81359050611610816115ec565b92915050565b5f6020828403121561162b5761162a6115db565b5b5f61163884828501611602565b91505092915050565b61164a816115e3565b82525050565b5f6020820190506116635f830184611641565b92915050565b5f73ffffffffffffffffffffffffffffffffffffffff82169050919050565b5f61169282611669565b9050919050565b6116a281611688565b82525050565b5f81519050919050565b5f82825260208201905092915050565b8281835e5f83830152505050565b5f601f19601f8301169050919050565b5f6116ea826116a8565b6116f481856116b2565b93506117048185602086016116c2565b61170d816116d0565b840191505092915050565b5f60608201905061172b5f830186611641565b6117386020830185611699565b818103604083015261174a81846116e0565b9050949350505050565b61175d81611688565b8114611767575f5ffd5b50565b5f8135905061177881611754565b92915050565b5f5f60408385031215611794576117936115db565b5b5f6117a18582860161176a565b92505060206117b285828601611602565b9150509250929050565b5f6020820190508181035f8301526117d481846116e0565b905092915050565b5f8115159050919050565b6117f0816117dc565b82525050565b5f6020820190506118095f8301846117e7565b92915050565b5f6020820190506118225f830184611699565b92915050565b5f5f6040838503121561183e5761183d6115db565b5b5f61184b85828601611602565b925050602061185c85828601611602565b9150509250929050565b5f6020828403121561187b5761187a6115db565b5b5f6118888482850161176a565b91505092915050565b5f81519050919050565b5f82825260208201905092915050565b5f819050602082019050919050565b6118c3816115e3565b82525050565b5f6118d483836118ba565b60208301905092915050565b5f602082019050919050565b5f6118f682611891565b611900818561189b565b935061190b836118ab565b805f5b8381101561193b57815161192288826118c9565b975061192d836118e0565b92505060018101905061190e565b5085935050505092915050565b5f6020820190508181035f83015261196081846118ec565b905092915050565b5f5ffd5b5f5ffd5b7f4e487b71000000000000000000000000000000000000000000000000000000005f52604160045260245ffd5b6119a6826116d0565b810181811067ffffffffffffffff821117156119c5576119c4611970565b5b80604052505050565b5f6119d76115d2565b90506119e3828261199d565b919050565b5f67ffffffffffffffff821115611a0257611a01611970565b5b611a0b826116d0565b9050602081019050919050565b828183375f83830152505050565b5f611a38611a33846119e8565b6119ce565b905082815260208101848484011115611a5457611a5361196c565b5b611a5f848285611a18565b509392505050565b5f82601f830112611a7b57611a7a611968565b5b8135611a8b848260208601611a26565b91505092915050565b5f60208284031215611aa957611aa86115db565b5b5f82013567ffffffffffffffff811115611ac657611ac56115df565b5b611ad284828501611a67565b91505092915050565b5f606082019050611aee5f830186611641565b611afb6020830185611699565b611b0860408301846117e7565b949350505050565b7f4e4654206973206e6f7420666f722073616c65000000000000000000000000005f82015250565b5f611b446013836116b2565b9150611b4f82611b10565b602082019050919050565b5f6020820190508181035f830152611b7181611b38565b9050919050565b7f496e73756666696369656e742066756e647300000000000000000000000000005f82015250565b5f611bac6012836116b2565b9150611bb782611b78565b602082019050919050565b5f6020820190508181035f830152611bd981611ba0565b9050919050565b7f53656c6c65722061646472657373206973207a65726f000000000000000000005f82015250565b5f611c146016836116b2565b9150611c1f82611be0565b602082019050919050565b5f6020820190508181035f830152611c4181611c08565b9050919050565b7f4f776e65722061646472657373206973207a65726f00000000000000000000005f82015250565b5f611c7c6015836116b2565b9150611c8782611c48565b602082019050919050565b5f6020820190508181035f830152611ca981611c70565b9050919050565b7f53656c6c6572206e6f206c6f6e676572206f776e732074686973204e465400005f82015250565b5f611ce4601e836116b2565b9150611cef82611cb0565b602082019050919050565b5f6020820190508181035f830152611d1181611cd8565b9050919050565b7f4e487b71000000000000000000000000000000000000000000000000000000005f52601160045260245ffd5b5f611d4f826115e3565b9150611d5a836115e3565b9250828202611d68816115e3565b91508282048414831517611d7f57611d7e611d18565b5b5092915050565b7f4e487b71000000000000000000000000000000000000000000000000000000005f52601260045260245ffd5b5f611dbd826115e3565b9150611dc8836115e3565b925082611dd857611dd7611d86565b5b828204905092915050565b5f611ded826115e3565b9150611df8836115e3565b9250828203905081811115611e1057611e0f611d18565b5b92915050565b5f81905092915050565b50565b5f611e2e5f83611e16565b9150611e3982611e20565b5f82019050919050565b5f611e4d82611e23565b9150819050919050565b7f4661696c656420746f2073656e642066656520746f206f776e657200000000005f82015250565b5f611e8b601b836116b2565b9150611e9682611e57565b602082019050919050565b5f6020820190508181035f830152611eb881611e7f565b9050919050565b7f4661696c656420746f2073656e6420616d6f756e7420746f2073656c6c6572005f82015250565b5f611ef3601f836116b2565b9150611efe82611ebf565b602082019050919050565b5f6020820190508181035f830152611f2081611ee7565b9050919050565b7f4661696c656420746f20726566756e642065786365737320616d6f756e7400005f82015250565b5f611f5b601e836116b2565b9150611f6682611f27565b602082019050919050565b5f6020820190508181035f830152611f8881611f4f565b9050919050565b7f4e487b71000000000000000000000000000000000000000000000000000000005f52602260045260245ffd5b5f6002820490506001821680611fd357607f821691505b602082108103611fe657611fe5611f8f565b5b50919050565b7f4e6f7420746865206f776e6572000000000000000000000000000000000000005f82015250565b5f612020600d836116b2565b915061202b82611fec565b602082019050919050565b5f6020820190508181035f83015261204d81612014565b9050919050565b7f5072696365206d7573742062652067726561746572207468616e207a65726f005f82015250565b5f612088601f836116b2565b915061209382612054565b602082019050919050565b5f6020820190508181035f8301526120b58161207c565b9050919050565b5f81905092915050565b5f6120d0826116a8565b6120da81856120bc565b93506120ea8185602086016116c2565b80840191505092915050565b5f61210182846120c6565b915081905092915050565b7f546f6b656e2055524920616c72656164792065786973747300000000000000005f82015250565b5f6121406018836116b2565b915061214b8261210c565b602082019050919050565b5f6020820190508181035f83015261216d81612134565b9050919050565b7f546f6b656e2055524920697320656d70747921000000000000000000000000005f82015250565b5f6121a86013836116b2565b91506121b382612174565b602082019050919050565b5f6020820190508181035f8301526121d58161219c565b9050919050565b5f6121e6826115e3565b91506121f1836115e3565b925082820190508082111561220957612208611d18565b5b92915050565b5f819050815f5260205f209050919050565b5f6020601f8301049050919050565b5f82821b905092915050565b5f6008830261226b7fffffffffffffffffffffffffffffffffffffffffffffffffffffffffffffffff82612230565b6122758683612230565b95508019841693508086168417925050509392505050565b5f819050919050565b5f6122b06122ab6122a6846115e3565b61228d565b6115e3565b9050919050565b5f819050919050565b6122c983612296565b6122dd6122d5826122b7565b84845461223c565b825550505050565b5f5f905090565b6122f46122e5565b6122ff8184846122c0565b505050565b5b81811015612322576123175f826122ec565b600181019050612305565b5050565b601f821115612367576123388161220f565b61234184612221565b81016020851015612350578190505b61236461235c85612221565b830182612304565b50505b505050565b5f82821c905092915050565b5f6123875f198460080261236c565b1980831691505092915050565b5f61239f8383612378565b9150826002028217905092915050565b6123b8826116a8565b67ffffffffffffffff8111156123d1576123d0611970565b5b6123db8254611fbc565b6123e6828285612326565b5f60209050601f831160018114612417575f8415612405578287015190505b61240f8582612394565b865550612476565b601f1984166124258661220f565b5f5b8281101561244c57848901518255600182019150602085019450602081019050612427565b868310156124695784890151612465601f891682612378565b8355505b6001600288020188555050505b505050505050565b7f5061757361626c653a20706175736564000000000000000000000000000000005f82015250565b5f6124b26010836116b2565b91506124bd8261247e565b602082019050919050565b5f6020820190508181035f8301526124df816124a6565b9050919050565b7f5265656e7472616e637947756172643a207265656e7472616e742063616c6c005f82015250565b5f61251a601f836116b2565b9150612525826124e6565b602082019050919050565b5f6020820190508181035f8301526125478161250e565b9050919050565b7f4e487b71000000000000000000000000000000000000000000000000000000005f52603260045260245ffd5b7f4e487b71000000000000000000000000000000000000000000000000000000005f52603160045260245ffd5b5f6125b2826115e3565b91507fffffffffffffffffffffffffffffffffffffffffffffffffffffffffffffffff82036125e4576125e3611d18565b5b600182019050919050565b7f5061757361626c653a206e6f74207061757365640000000000000000000000005f82015250565b5f6126236014836116b2565b915061262e826125ef565b602082019050919050565b5f6020820190508181035f83015261265081612617565b905091905056fea264697066735822122009f5d1a056f9bcaa3ec72321f88c66ca8675ac2d7428422cf6a3adfc4ac9bc4064736f6c634300081b0033",
					"opcodes": "PUSH1 0x80 PUSH1 0x40 MSTORE CALLVALUE DUP1 ISZERO PUSH2 0xF JUMPI PUSH0 PUSH0 REVERT JUMPDEST POP PUSH1 0x40 MLOAD PUSH2 0x290D CODESIZE SUB DUP1 PUSH2 0x290D DUP4 CODECOPY DUP2 DUP2 ADD PUSH1 0x40 MSTORE DUP2 ADD SWAP1 PUSH2 0x31 SWAP2 SWAP1 PUSH2 0x1F0 JUMP JUMPDEST CALLER PUSH0 PUSH20 0xFFFFFFFFFFFFFFFFFFFFFFFFFFFFFFFFFFFFFFFF AND DUP2 PUSH20 0xFFFFFFFFFFFFFFFFFFFFFFFFFFFFFFFFFFFFFFFF AND SUB PUSH2 0xA2 JUMPI PUSH0 PUSH1 0x40 MLOAD PUSH32 0x1E4FBDF700000000000000000000000000000000000000000000000000000000 DUP2 MSTORE PUSH1 0x4 ADD PUSH2 0x99 SWAP2 SWAP1 PUSH2 0x25A JUMP JUMPDEST PUSH1 0x40 MLOAD DUP1 SWAP2 SUB SWAP1 REVERT JUMPDEST PUSH2 0xB1 DUP2 PUSH2 0xEE PUSH1 0x20 SHL PUSH1 0x20 SHR JUMP JUMPDEST POP PUSH1 0x1 DUP1 DUP2 SWAP1 SSTORE POP PUSH0 PUSH1 0x2 PUSH0 PUSH2 0x100 EXP DUP2 SLOAD DUP2 PUSH1 0xFF MUL NOT AND SWAP1 DUP4 ISZERO ISZERO MUL OR SWAP1 SSTORE POP DUP1 PUSH1 0x3 DUP2 SWAP1 SSTORE POP PUSH2 0xE8 PUSH0 PUSH2 0x1AF PUSH1 0x20 SHL PUSH1 0x20 SHR JUMP JUMPDEST POP PUSH2 0x273 JUMP JUMPDEST PUSH0 PUSH0 PUSH0 SWAP1 SLOAD SWAP1 PUSH2 0x100 EXP SWAP1 DIV PUSH20 0xFFFFFFFFFFFFFFFFFFFFFFFFFFFFFFFFFFFFFFFF AND SWAP1 POP DUP2 PUSH0 PUSH0 PUSH2 0x100 EXP DUP2 SLOAD DUP2 PUSH20 0xFFFFFFFFFFFFFFFFFFFFFFFFFFFFFFFFFFFFFFFF MUL NOT AND SWAP1 DUP4 PUSH20 0xFFFFFFFFFFFFFFFFFFFFFFFFFFFFFFFFFFFFFFFF AND MUL OR SWAP1 SSTORE POP DUP2 PUSH20 0xFFFFFFFFFFFFFFFFFFFFFFFFFFFFFFFFFFFFFFFF AND DUP2 PUSH20 0xFFFFFFFFFFFFFFFFFFFFFFFFFFFFFFFFFFFFFFFF AND PUSH32 0x8BE0079C531659141344CD1FD0A4F28419497F9722A3DAAFE3B4186F6B6457E0 PUSH1 0x40 MLOAD PUSH1 0x40 MLOAD DUP1 SWAP2 SUB SWAP1 LOG3 POP POP JUMP JUMPDEST DUP1 PUSH1 0x4 DUP2 SWAP1 SSTORE POP POP JUMP JUMPDEST PUSH0 PUSH0 REVERT JUMPDEST PUSH0 DUP2 SWAP1 POP SWAP2 SWAP1 POP JUMP JUMPDEST PUSH2 0x1CF DUP2 PUSH2 0x1BD JUMP JUMPDEST DUP2 EQ PUSH2 0x1D9 JUMPI PUSH0 PUSH0 REVERT JUMPDEST POP JUMP JUMPDEST PUSH0 DUP2 MLOAD SWAP1 POP PUSH2 0x1EA DUP2 PUSH2 0x1C6 JUMP JUMPDEST SWAP3 SWAP2 POP POP JUMP JUMPDEST PUSH0 PUSH1 0x20 DUP3 DUP5 SUB SLT ISZERO PUSH2 0x205 JUMPI PUSH2 0x204 PUSH2 0x1B9 JUMP JUMPDEST JUMPDEST PUSH0 PUSH2 0x212 DUP5 DUP3 DUP6 ADD PUSH2 0x1DC JUMP JUMPDEST SWAP2 POP POP SWAP3 SWAP2 POP POP JUMP JUMPDEST PUSH0 PUSH20 0xFFFFFFFFFFFFFFFFFFFFFFFFFFFFFFFFFFFFFFFF DUP3 AND SWAP1 POP SWAP2 SWAP1 POP JUMP JUMPDEST PUSH0 PUSH2 0x244 DUP3 PUSH2 0x21B JUMP JUMPDEST SWAP1 POP SWAP2 SWAP1 POP JUMP JUMPDEST PUSH2 0x254 DUP2 PUSH2 0x23A JUMP JUMPDEST DUP3 MSTORE POP POP JUMP JUMPDEST PUSH0 PUSH1 0x20 DUP3 ADD SWAP1 POP PUSH2 0x26D PUSH0 DUP4 ADD DUP5 PUSH2 0x24B JUMP JUMPDEST SWAP3 SWAP2 POP POP JUMP JUMPDEST PUSH2 0x268D DUP1 PUSH2 0x280 PUSH0 CODECOPY PUSH0 RETURN INVALID PUSH1 0x80 PUSH1 0x40 MSTORE PUSH1 0x4 CALLDATASIZE LT PUSH2 0xE7 JUMPI PUSH0 CALLDATALOAD PUSH1 0xE0 SHR DUP1 PUSH4 0x715018A6 GT PUSH2 0x89 JUMPI DUP1 PUSH4 0xD63D4AF0 GT PUSH2 0x58 JUMPI DUP1 PUSH4 0xD63D4AF0 EQ PUSH2 0x2A5 JUMPI DUP1 PUSH4 0xD85D3D27 EQ PUSH2 0x2E1 JUMPI DUP1 PUSH4 0xDE74E57B EQ PUSH2 0x309 JUMPI DUP1 PUSH4 0xF2FDE38B EQ PUSH2 0x347 JUMPI PUSH2 0xE7 JUMP JUMPDEST DUP1 PUSH4 0x715018A6 EQ PUSH2 0x227 JUMPI DUP1 PUSH4 0x8456CB59 EQ PUSH2 0x23D JUMPI DUP1 PUSH4 0x8DA5CB5B EQ PUSH2 0x253 JUMPI DUP1 PUSH4 0x94383F14 EQ PUSH2 0x27D JUMPI PUSH2 0xE7 JUMP JUMPDEST DUP1 PUSH4 0x28B60031 GT PUSH2 0xC5 JUMPI DUP1 PUSH4 0x28B60031 EQ PUSH2 0x16F JUMPI DUP1 PUSH4 0x3BB3A24D EQ PUSH2 0x1AB JUMPI DUP1 PUSH4 0x3F4BA83A EQ PUSH2 0x1E7 JUMPI DUP1 PUSH4 0x5C975ABB EQ PUSH2 0x1FD JUMPI PUSH2 0xE7 JUMP JUMPDEST DUP1 PUSH4 0x150BDE03 EQ PUSH2 0xEB JUMPI DUP1 PUSH4 0x18160DDD EQ PUSH2 0x107 JUMPI DUP1 PUSH4 0x265AA621 EQ PUSH2 0x131 JUMPI JUMPDEST PUSH0 PUSH0 REVERT JUMPDEST PUSH2 0x105 PUSH1 0x4 DUP1 CALLDATASIZE SUB DUP2 ADD SWAP1 PUSH2 0x100 SWAP2 SWAP1 PUSH2 0x1616 JUMP JUMPDEST PUSH2 0x36F JUMP JUMPDEST STOP JUMPDEST CALLVALUE DUP1 ISZERO PUSH2 0x112 JUMPI PUSH0 PUSH0 REVERT JUMPDEST POP PUSH2 0x11B PUSH2 0x974 JUMP JUMPDEST PUSH1 0x40 MLOAD PUSH2 0x128 SWAP2 SWAP1 PUSH2 0x1650 JUMP JUMPDEST PUSH1 0x40 MLOAD DUP1 SWAP2 SUB SWAP1 RETURN JUMPDEST CALLVALUE DUP1 ISZERO PUSH2 0x13C JUMPI PUSH0 PUSH0 REVERT JUMPDEST POP PUSH2 0x157 PUSH1 0x4 DUP1 CALLDATASIZE SUB DUP2 ADD SWAP1 PUSH2 0x152 SWAP2 SWAP1 PUSH2 0x1616 JUMP JUMPDEST PUSH2 0x97A JUMP JUMPDEST PUSH1 0x40 MLOAD PUSH2 0x166 SWAP4 SWAP3 SWAP2 SWAP1 PUSH2 0x1718 JUMP JUMPDEST PUSH1 0x40 MLOAD DUP1 SWAP2 SUB SWAP1 RETURN JUMPDEST CALLVALUE DUP1 ISZERO PUSH2 0x17A JUMPI PUSH0 PUSH0 REVERT JUMPDEST POP PUSH2 0x195 PUSH1 0x4 DUP1 CALLDATASIZE SUB DUP2 ADD SWAP1 PUSH2 0x190 SWAP2 SWAP1 PUSH2 0x177E JUMP JUMPDEST PUSH2 0xA45 JUMP JUMPDEST PUSH1 0x40 MLOAD PUSH2 0x1A2 SWAP2 SWAP1 PUSH2 0x1650 JUMP JUMPDEST PUSH1 0x40 MLOAD DUP1 SWAP2 SUB SWAP1 RETURN JUMPDEST CALLVALUE DUP1 ISZERO PUSH2 0x1B6 JUMPI PUSH0 PUSH0 REVERT JUMPDEST POP PUSH2 0x1D1 PUSH1 0x4 DUP1 CALLDATASIZE SUB DUP2 ADD SWAP1 PUSH2 0x1CC SWAP2 SWAP1 PUSH2 0x1616 JUMP JUMPDEST PUSH2 0xA70 JUMP JUMPDEST PUSH1 0x40 MLOAD PUSH2 0x1DE SWAP2 SWAP1 PUSH2 0x17BC JUMP JUMPDEST PUSH1 0x40 MLOAD DUP1 SWAP2 SUB SWAP1 RETURN JUMPDEST CALLVALUE DUP1 ISZERO PUSH2 0x1F2 JUMPI PUSH0 PUSH0 REVERT JUMPDEST POP PUSH2 0x1FB PUSH2 0xB14 JUMP JUMPDEST STOP JUMPDEST CALLVALUE DUP1 ISZERO PUSH2 0x208 JUMPI PUSH0 PUSH0 REVERT JUMPDEST POP PUSH2 0x211 PUSH2 0xB52 JUMP JUMPDEST PUSH1 0x40 MLOAD PUSH2 0x21E SWAP2 SWAP1 PUSH2 0x17F6 JUMP JUMPDEST PUSH1 0x40 MLOAD DUP1 SWAP2 SUB SWAP1 RETURN JUMPDEST CALLVALUE DUP1 ISZERO PUSH2 0x232 JUMPI PUSH0 PUSH0 REVERT JUMPDEST POP PUSH2 0x23B PUSH2 0xB67 JUMP JUMPDEST STOP JUMPDEST CALLVALUE DUP1 ISZERO PUSH2 0x248 JUMPI PUSH0 PUSH0 REVERT JUMPDEST POP PUSH2 0x251 PUSH2 0xB7A JUMP JUMPDEST STOP JUMPDEST CALLVALUE DUP1 ISZERO PUSH2 0x25E JUMPI PUSH0 PUSH0 REVERT JUMPDEST POP PUSH2 0x267 PUSH2 0xBB8 JUMP JUMPDEST PUSH1 0x40 MLOAD PUSH2 0x274 SWAP2 SWAP1 PUSH2 0x180F JUMP JUMPDEST PUSH1 0x40 MLOAD DUP1 SWAP2 SUB SWAP1 RETURN JUMPDEST CALLVALUE DUP1 ISZERO PUSH2 0x288 JUMPI PUSH0 PUSH0 REVERT JUMPDEST POP PUSH2 0x2A3 PUSH1 0x4 DUP1 CALLDATASIZE SUB DUP2 ADD SWAP1 PUSH2 0x29E SWAP2 SWAP1 PUSH2 0x1828 JUMP JUMPDEST PUSH2 0xBDF JUMP JUMPDEST STOP JUMPDEST CALLVALUE DUP1 ISZERO PUSH2 0x2B0 JUMPI PUSH0 PUSH0 REVERT JUMPDEST POP PUSH2 0x2CB PUSH1 0x4 DUP1 CALLDATASIZE SUB DUP2 ADD SWAP1 PUSH2 0x2C6 SWAP2 SWAP1 PUSH2 0x1866 JUMP JUMPDEST PUSH2 0xDB4 JUMP JUMPDEST PUSH1 0x40 MLOAD PUSH2 0x2D8 SWAP2 SWAP1 PUSH2 0x1948 JUMP JUMPDEST PUSH1 0x40 MLOAD DUP1 SWAP2 SUB SWAP1 RETURN JUMPDEST CALLVALUE DUP1 ISZERO PUSH2 0x2EC JUMPI PUSH0 PUSH0 REVERT JUMPDEST POP PUSH2 0x307 PUSH1 0x4 DUP1 CALLDATASIZE SUB DUP2 ADD SWAP1 PUSH2 0x302 SWAP2 SWAP1 PUSH2 0x1A94 JUMP JUMPDEST PUSH2 0xE47 JUMP JUMPDEST STOP JUMPDEST CALLVALUE DUP1 ISZERO PUSH2 0x314 JUMPI PUSH0 PUSH0 REVERT JUMPDEST POP PUSH2 0x32F PUSH1 0x4 DUP1 CALLDATASIZE SUB DUP2 ADD SWAP1 PUSH2 0x32A SWAP2 SWAP1 PUSH2 0x1616 JUMP JUMPDEST PUSH2 0x10D8 JUMP JUMPDEST PUSH1 0x40 MLOAD PUSH2 0x33E SWAP4 SWAP3 SWAP2 SWAP1 PUSH2 0x1ADB JUMP JUMPDEST PUSH1 0x40 MLOAD DUP1 SWAP2 SUB SWAP1 RETURN JUMPDEST CALLVALUE DUP1 ISZERO PUSH2 0x352 JUMPI PUSH0 PUSH0 REVERT JUMPDEST POP PUSH2 0x36D PUSH1 0x4 DUP1 CALLDATASIZE SUB DUP2 ADD SWAP1 PUSH2 0x368 SWAP2 SWAP1 PUSH2 0x1866 JUMP JUMPDEST PUSH2 0x112A JUMP JUMPDEST STOP JUMPDEST PUSH2 0x377 PUSH2 0x11AE JUMP JUMPDEST PUSH2 0x37F PUSH2 0x11F8 JUMP JUMPDEST PUSH0 PUSH1 0x6 PUSH0 DUP4 DUP2 MSTORE PUSH1 0x20 ADD SWAP1 DUP2 MSTORE PUSH1 0x20 ADD PUSH0 KECCAK256 PUSH1 0x40 MLOAD DUP1 PUSH1 0x60 ADD PUSH1 0x40 MSTORE SWAP1 DUP2 PUSH0 DUP3 ADD SLOAD DUP2 MSTORE PUSH1 0x20 ADD PUSH1 0x1 DUP3 ADD PUSH0 SWAP1 SLOAD SWAP1 PUSH2 0x100 EXP SWAP1 DIV PUSH20 0xFFFFFFFFFFFFFFFFFFFFFFFFFFFFFFFFFFFFFFFF AND PUSH20 0xFFFFFFFFFFFFFFFFFFFFFFFFFFFFFFFFFFFFFFFF AND PUSH20 0xFFFFFFFFFFFFFFFFFFFFFFFFFFFFFFFFFFFFFFFF AND DUP2 MSTORE PUSH1 0x20 ADD PUSH1 0x1 DUP3 ADD PUSH1 0x14 SWAP1 SLOAD SWAP1 PUSH2 0x100 EXP SWAP1 DIV PUSH1 0xFF AND ISZERO ISZERO ISZERO ISZERO DUP2 MSTORE POP POP SWAP1 POP DUP1 PUSH1 0x40 ADD MLOAD PUSH2 0x45B JUMPI PUSH1 0x40 MLOAD PUSH32 0x8C379A000000000000000000000000000000000000000000000000000000000 DUP2 MSTORE PUSH1 0x4 ADD PUSH2 0x452 SWAP1 PUSH2 0x1B5A JUMP JUMPDEST PUSH1 0x40 MLOAD DUP1 SWAP2 SUB SWAP1 REVERT JUMPDEST DUP1 PUSH0 ADD MLOAD CALLVALUE LT ISZERO PUSH2 0x4A1 JUMPI PUSH1 0x40 MLOAD PUSH32 0x8C379A000000000000000000000000000000000000000000000000000000000 DUP2 MSTORE PUSH1 0x4 ADD PUSH2 0x498 SWAP1 PUSH2 0x1BC2 JUMP JUMPDEST PUSH1 0x40 MLOAD DUP1 SWAP2 SUB SWAP1 REVERT JUMPDEST PUSH0 DUP2 PUSH0 ADD MLOAD SWAP1 POP PUSH0 DUP3 PUSH1 0x20 ADD MLOAD SWAP1 POP PUSH0 PUSH20 0xFFFFFFFFFFFFFFFFFFFFFFFFFFFFFFFFFFFFFFFF AND DUP2 PUSH20 0xFFFFFFFFFFFFFFFFFFFFFFFFFFFFFFFFFFFFFFFF AND SUB PUSH2 0x51E JUMPI PUSH1 0x40 MLOAD PUSH32 0x8C379A000000000000000000000000000000000000000000000000000000000 DUP2 MSTORE PUSH1 0x4 ADD PUSH2 0x515 SWAP1 PUSH2 0x1C2A JUMP JUMPDEST PUSH1 0x40 MLOAD DUP1 SWAP2 SUB SWAP1 REVERT JUMPDEST PUSH0 PUSH20 0xFFFFFFFFFFFFFFFFFFFFFFFFFFFFFFFFFFFFFFFF AND PUSH2 0x53D PUSH2 0xBB8 JUMP JUMPDEST PUSH20 0xFFFFFFFFFFFFFFFFFFFFFFFFFFFFFFFFFFFFFFFF AND SUB PUSH2 0x593 JUMPI PUSH1 0x40 MLOAD PUSH32 0x8C379A000000000000000000000000000000000000000000000000000000000 DUP2 MSTORE PUSH1 0x4 ADD PUSH2 0x58A SWAP1 PUSH2 0x1C92 JUMP JUMPDEST PUSH1 0x40 MLOAD DUP1 SWAP2 SUB SWAP1 REVERT JUMPDEST DUP1 PUSH20 0xFFFFFFFFFFFFFFFFFFFFFFFFFFFFFFFFFFFFFFFF AND PUSH1 0x5 PUSH0 DUP7 DUP2 MSTORE PUSH1 0x20 ADD SWAP1 DUP2 MSTORE PUSH1 0x20 ADD PUSH0 KECCAK256 PUSH1 0x1 ADD PUSH0 SWAP1 SLOAD SWAP1 PUSH2 0x100 EXP SWAP1 DIV PUSH20 0xFFFFFFFFFFFFFFFFFFFFFFFFFFFFFFFFFFFFFFFF AND PUSH20 0xFFFFFFFFFFFFFFFFFFFFFFFFFFFFFFFFFFFFFFFF AND EQ PUSH2 0x634 JUMPI PUSH1 0x40 MLOAD PUSH32 0x8C379A000000000000000000000000000000000000000000000000000000000 DUP2 MSTORE PUSH1 0x4 ADD PUSH2 0x62B SWAP1 PUSH2 0x1CFA JUMP JUMPDEST PUSH1 0x40 MLOAD DUP1 SWAP2 SUB SWAP1 REVERT JUMPDEST PUSH0 PUSH1 0x64 PUSH1 0x3 SLOAD DUP5 PUSH2 0x645 SWAP2 SWAP1 PUSH2 0x1D45 JUMP JUMPDEST PUSH2 0x64F SWAP2 SWAP1 PUSH2 0x1DB3 JUMP JUMPDEST SWAP1 POP PUSH0 DUP2 DUP5 PUSH2 0x65E SWAP2 SWAP1 PUSH2 0x1DE3 JUMP JUMPDEST SWAP1 POP CALLER PUSH1 0x5 PUSH0 DUP9 DUP2 MSTORE PUSH1 0x20 ADD SWAP1 DUP2 MSTORE PUSH1 0x20 ADD PUSH0 KECCAK256 PUSH1 0x1 ADD PUSH0 PUSH2 0x100 EXP DUP2 SLOAD DUP2 PUSH20 0xFFFFFFFFFFFFFFFFFFFFFFFFFFFFFFFFFFFFFFFF MUL NOT AND SWAP1 DUP4 PUSH20 0xFFFFFFFFFFFFFFFFFFFFFFFFFFFFFFFFFFFFFFFF AND MUL OR SWAP1 SSTORE POP PUSH2 0x6BC DUP4 DUP8 PUSH2 0x1247 JUMP JUMPDEST PUSH1 0x7 PUSH0 CALLER PUSH20 0xFFFFFFFFFFFFFFFFFFFFFFFFFFFFFFFFFFFFFFFF AND PUSH20 0xFFFFFFFFFFFFFFFFFFFFFFFFFFFFFFFFFFFFFFFF AND DUP2 MSTORE PUSH1 0x20 ADD SWAP1 DUP2 MSTORE PUSH1 0x20 ADD PUSH0 KECCAK256 DUP7 SWAP1 DUP1 PUSH1 0x1 DUP2 SLOAD ADD DUP1 DUP3 SSTORE DUP1 SWAP2 POP POP PUSH1 0x1 SWAP1 SUB SWAP1 PUSH0 MSTORE PUSH1 0x20 PUSH0 KECCAK256 ADD PUSH0 SWAP1 SWAP2 SWAP1 SWAP2 SWAP1 SWAP2 POP SSTORE PUSH0 PUSH1 0x6 PUSH0 DUP9 DUP2 MSTORE PUSH1 0x20 ADD SWAP1 DUP2 MSTORE PUSH1 0x20 ADD PUSH0 KECCAK256 PUSH1 0x1 ADD PUSH1 0x14 PUSH2 0x100 EXP DUP2 SLOAD DUP2 PUSH1 0xFF MUL NOT AND SWAP1 DUP4 ISZERO ISZERO MUL OR SWAP1 SSTORE POP PUSH0 PUSH2 0x752 PUSH2 0xBB8 JUMP JUMPDEST PUSH20 0xFFFFFFFFFFFFFFFFFFFFFFFFFFFFFFFFFFFFFFFF AND DUP4 PUSH1 0x40 MLOAD PUSH2 0x775 SWAP1 PUSH2 0x1E43 JUMP JUMPDEST PUSH0 PUSH1 0x40 MLOAD DUP1 DUP4 SUB DUP2 DUP6 DUP8 GAS CALL SWAP3 POP POP POP RETURNDATASIZE DUP1 PUSH0 DUP2 EQ PUSH2 0x7AF JUMPI PUSH1 0x40 MLOAD SWAP2 POP PUSH1 0x1F NOT PUSH1 0x3F RETURNDATASIZE ADD AND DUP3 ADD PUSH1 0x40 MSTORE RETURNDATASIZE DUP3 MSTORE RETURNDATASIZE PUSH0 PUSH1 0x20 DUP5 ADD RETURNDATACOPY PUSH2 0x7B4 JUMP JUMPDEST PUSH1 0x60 SWAP2 POP JUMPDEST POP POP SWAP1 POP DUP1 PUSH2 0x7F8 JUMPI PUSH1 0x40 MLOAD PUSH32 0x8C379A000000000000000000000000000000000000000000000000000000000 DUP2 MSTORE PUSH1 0x4 ADD PUSH2 0x7EF SWAP1 PUSH2 0x1EA1 JUMP JUMPDEST PUSH1 0x40 MLOAD DUP1 SWAP2 SUB SWAP1 REVERT JUMPDEST PUSH0 DUP5 PUSH20 0xFFFFFFFFFFFFFFFFFFFFFFFFFFFFFFFFFFFFFFFF AND DUP4 PUSH1 0x40 MLOAD PUSH2 0x81D SWAP1 PUSH2 0x1E43 JUMP JUMPDEST PUSH0 PUSH1 0x40 MLOAD DUP1 DUP4 SUB DUP2 DUP6 DUP8 GAS CALL SWAP3 POP POP POP RETURNDATASIZE DUP1 PUSH0 DUP2 EQ PUSH2 0x857 JUMPI PUSH1 0x40 MLOAD SWAP2 POP PUSH1 0x1F NOT PUSH1 0x3F RETURNDATASIZE ADD AND DUP3 ADD PUSH1 0x40 MSTORE RETURNDATASIZE DUP3 MSTORE RETURNDATASIZE PUSH0 PUSH1 0x20 DUP5 ADD RETURNDATACOPY PUSH2 0x85C JUMP JUMPDEST PUSH1 0x60 SWAP2 POP JUMPDEST POP POP SWAP1 POP DUP1 PUSH2 0x8A0 JUMPI PUSH1 0x40 MLOAD PUSH32 0x8C379A000000000000000000000000000000000000000000000000000000000 DUP2 MSTORE PUSH1 0x4 ADD PUSH2 0x897 SWAP1 PUSH2 0x1F09 JUMP JUMPDEST PUSH1 0x40 MLOAD DUP1 SWAP2 SUB SWAP1 REVERT JUMPDEST PUSH0 DUP7 CALLVALUE PUSH2 0x8AD SWAP2 SWAP1 PUSH2 0x1DE3 JUMP JUMPDEST SWAP1 POP PUSH0 DUP2 GT ISZERO PUSH2 0x961 JUMPI PUSH0 CALLER PUSH20 0xFFFFFFFFFFFFFFFFFFFFFFFFFFFFFFFFFFFFFFFF AND DUP3 PUSH1 0x40 MLOAD PUSH2 0x8DC SWAP1 PUSH2 0x1E43 JUMP JUMPDEST PUSH0 PUSH1 0x40 MLOAD DUP1 DUP4 SUB DUP2 DUP6 DUP8 GAS CALL SWAP3 POP POP POP RETURNDATASIZE DUP1 PUSH0 DUP2 EQ PUSH2 0x916 JUMPI PUSH1 0x40 MLOAD SWAP2 POP PUSH1 0x1F NOT PUSH1 0x3F RETURNDATASIZE ADD AND DUP3 ADD PUSH1 0x40 MSTORE RETURNDATASIZE DUP3 MSTORE RETURNDATASIZE PUSH0 PUSH1 0x20 DUP5 ADD RETURNDATACOPY PUSH2 0x91B JUMP JUMPDEST PUSH1 0x60 SWAP2 POP JUMPDEST POP POP SWAP1 POP DUP1 PUSH2 0x95F JUMPI PUSH1 0x40 MLOAD PUSH32 0x8C379A000000000000000000000000000000000000000000000000000000000 DUP2 MSTORE PUSH1 0x4 ADD PUSH2 0x956 SWAP1 PUSH2 0x1F71 JUMP JUMPDEST PUSH1 0x40 MLOAD DUP1 SWAP2 SUB SWAP1 REVERT JUMPDEST POP JUMPDEST POP POP POP POP POP POP POP POP PUSH2 0x971 PUSH2 0x1349 JUMP JUMPDEST POP JUMP JUMPDEST PUSH1 0x4 SLOAD DUP2 JUMP JUMPDEST PUSH1 0x5 PUSH1 0x20 MSTORE DUP1 PUSH0 MSTORE PUSH1 0x40 PUSH0 KECCAK256 PUSH0 SWAP2 POP SWAP1 POP DUP1 PUSH0 ADD SLOAD SWAP1 DUP1 PUSH1 0x1 ADD PUSH0 SWAP1 SLOAD SWAP1 PUSH2 0x100 EXP SWAP1 DIV PUSH20 0xFFFFFFFFFFFFFFFFFFFFFFFFFFFFFFFFFFFFFFFF AND SWAP1 DUP1 PUSH1 0x2 ADD DUP1 SLOAD PUSH2 0x9C4 SWAP1 PUSH2 0x1FBC JUMP JUMPDEST DUP1 PUSH1 0x1F ADD PUSH1 0x20 DUP1 SWAP2 DIV MUL PUSH1 0x20 ADD PUSH1 0x40 MLOAD SWAP1 DUP2 ADD PUSH1 0x40 MSTORE DUP1 SWAP3 SWAP2 SWAP1 DUP2 DUP2 MSTORE PUSH1 0x20 ADD DUP3 DUP1 SLOAD PUSH2 0x9F0 SWAP1 PUSH2 0x1FBC JUMP JUMPDEST DUP1 ISZERO PUSH2 0xA3B JUMPI DUP1 PUSH1 0x1F LT PUSH2 0xA12 JUMPI PUSH2 0x100 DUP1 DUP4 SLOAD DIV MUL DUP4 MSTORE SWAP2 PUSH1 0x20 ADD SWAP2 PUSH2 0xA3B JUMP JUMPDEST DUP3 ADD SWAP2 SWAP1 PUSH0 MSTORE PUSH1 0x20 PUSH0 KECCAK256 SWAP1 JUMPDEST DUP2 SLOAD DUP2 MSTORE SWAP1 PUSH1 0x1 ADD SWAP1 PUSH1 0x20 ADD DUP1 DUP4 GT PUSH2 0xA1E JUMPI DUP3 SWAP1 SUB PUSH1 0x1F AND DUP3 ADD SWAP2 JUMPDEST POP POP POP POP POP SWAP1 POP DUP4 JUMP JUMPDEST PUSH1 0x7 PUSH1 0x20 MSTORE DUP2 PUSH0 MSTORE PUSH1 0x40 PUSH0 KECCAK256 DUP2 DUP2 SLOAD DUP2 LT PUSH2 0xA5E JUMPI PUSH0 DUP1 REVERT JUMPDEST SWAP1 PUSH0 MSTORE PUSH1 0x20 PUSH0 KECCAK256 ADD PUSH0 SWAP2 POP SWAP2 POP POP SLOAD DUP2 JUMP JUMPDEST PUSH1 0x60 PUSH1 0x5 PUSH0 DUP4 DUP2 MSTORE PUSH1 0x20 ADD SWAP1 DUP2 MSTORE PUSH1 0x20 ADD PUSH0 KECCAK256 PUSH1 0x2 ADD DUP1 SLOAD PUSH2 0xA91 SWAP1 PUSH2 0x1FBC JUMP JUMPDEST DUP1 PUSH1 0x1F ADD PUSH1 0x20 DUP1 SWAP2 DIV MUL PUSH1 0x20 ADD PUSH1 0x40 MLOAD SWAP1 DUP2 ADD PUSH1 0x40 MSTORE DUP1 SWAP3 SWAP2 SWAP1 DUP2 DUP2 MSTORE PUSH1 0x20 ADD DUP3 DUP1 SLOAD PUSH2 0xABD SWAP1 PUSH2 0x1FBC JUMP JUMPDEST DUP1 ISZERO PUSH2 0xB08 JUMPI DUP1 PUSH1 0x1F LT PUSH2 0xADF JUMPI PUSH2 0x100 DUP1 DUP4 SLOAD DIV MUL DUP4 MSTORE SWAP2 PUSH1 0x20 ADD SWAP2 PUSH2 0xB08 JUMP JUMPDEST DUP3 ADD SWAP2 SWAP1 PUSH0 MSTORE PUSH1 0x20 PUSH0 KECCAK256 SWAP1 JUMPDEST DUP2 SLOAD DUP2 MSTORE SWAP1 PUSH1 0x1 ADD SWAP1 PUSH1 0x20 ADD DUP1 DUP4 GT PUSH2 0xAEB JUMPI DUP3 SWAP1 SUB PUSH1 0x1F AND DUP3 ADD SWAP2 JUMPDEST POP POP POP POP POP SWAP1 POP SWAP2 SWAP1 POP JUMP JUMPDEST PUSH2 0xB1C PUSH2 0x1352 JUMP JUMPDEST PUSH2 0xB24 PUSH2 0x13D9 JUMP JUMPDEST PUSH32 0xA45F47FDEA8A1EFDD9029A5691C7F759C32B7C698632B563573E155625D16933 PUSH1 0x40 MLOAD PUSH1 0x40 MLOAD DUP1 SWAP2 SUB SWAP1 LOG1 JUMP JUMPDEST PUSH0 PUSH1 0x2 PUSH0 SWAP1 SLOAD SWAP1 PUSH2 0x100 EXP SWAP1 DIV PUSH1 0xFF AND SWAP1 POP SWAP1 JUMP JUMPDEST PUSH2 0xB6F PUSH2 0x1352 JUMP JUMPDEST PUSH2 0xB78 PUSH0 PUSH2 0x143A JUMP JUMPDEST JUMP JUMPDEST PUSH2 0xB82 PUSH2 0x1352 JUMP JUMPDEST PUSH2 0xB8A PUSH2 0x14FB JUMP JUMPDEST PUSH32 0x9E87FAC88FF661F02D44F95383C817FECE4BCE600A3DAB7A54406878B965E752 PUSH1 0x40 MLOAD PUSH1 0x40 MLOAD DUP1 SWAP2 SUB SWAP1 LOG1 JUMP JUMPDEST PUSH0 PUSH0 PUSH0 SWAP1 SLOAD SWAP1 PUSH2 0x100 EXP SWAP1 DIV PUSH20 0xFFFFFFFFFFFFFFFFFFFFFFFFFFFFFFFFFFFFFFFF AND SWAP1 POP SWAP1 JUMP JUMPDEST CALLER PUSH20 0xFFFFFFFFFFFFFFFFFFFFFFFFFFFFFFFFFFFFFFFF AND PUSH1 0x5 PUSH0 DUP5 DUP2 MSTORE PUSH1 0x20 ADD SWAP1 DUP2 MSTORE PUSH1 0x20 ADD PUSH0 KECCAK256 PUSH1 0x1 ADD PUSH0 SWAP1 SLOAD SWAP1 PUSH2 0x100 EXP SWAP1 DIV PUSH20 0xFFFFFFFFFFFFFFFFFFFFFFFFFFFFFFFFFFFFFFFF AND PUSH20 0xFFFFFFFFFFFFFFFFFFFFFFFFFFFFFFFFFFFFFFFF AND EQ PUSH2 0xC80 JUMPI PUSH1 0x40 MLOAD PUSH32 0x8C379A000000000000000000000000000000000000000000000000000000000 DUP2 MSTORE PUSH1 0x4 ADD PUSH2 0xC77 SWAP1 PUSH2 0x2036 JUMP JUMPDEST PUSH1 0x40 MLOAD DUP1 SWAP2 SUB SWAP1 REVERT JUMPDEST PUSH0 DUP2 GT PUSH2 0xCC2 JUMPI PUSH1 0x40 MLOAD PUSH32 0x8C379A000000000000000000000000000000000000000000000000000000000 DUP2 MSTORE PUSH1 0x4 ADD PUSH2 0xCB9 SWAP1 PUSH2 0x209E JUMP JUMPDEST PUSH1 0x40 MLOAD DUP1 SWAP2 SUB SWAP1 REVERT JUMPDEST PUSH1 0x40 MLOAD DUP1 PUSH1 0x60 ADD PUSH1 0x40 MSTORE DUP1 DUP3 DUP2 MSTORE PUSH1 0x20 ADD CALLER PUSH20 0xFFFFFFFFFFFFFFFFFFFFFFFFFFFFFFFFFFFFFFFF AND DUP2 MSTORE PUSH1 0x20 ADD PUSH1 0x1 ISZERO ISZERO DUP2 MSTORE POP PUSH1 0x6 PUSH0 DUP5 DUP2 MSTORE PUSH1 0x20 ADD SWAP1 DUP2 MSTORE PUSH1 0x20 ADD PUSH0 KECCAK256 PUSH0 DUP3 ADD MLOAD DUP2 PUSH0 ADD SSTORE PUSH1 0x20 DUP3 ADD MLOAD DUP2 PUSH1 0x1 ADD PUSH0 PUSH2 0x100 EXP DUP2 SLOAD DUP2 PUSH20 0xFFFFFFFFFFFFFFFFFFFFFFFFFFFFFFFFFFFFFFFF MUL NOT AND SWAP1 DUP4 PUSH20 0xFFFFFFFFFFFFFFFFFFFFFFFFFFFFFFFFFFFFFFFF AND MUL OR SWAP1 SSTORE POP PUSH1 0x40 DUP3 ADD MLOAD DUP2 PUSH1 0x1 ADD PUSH1 0x14 PUSH2 0x100 EXP DUP2 SLOAD DUP2 PUSH1 0xFF MUL NOT AND SWAP1 DUP4 ISZERO ISZERO MUL OR SWAP1 SSTORE POP SWAP1 POP POP DUP2 PUSH32 0xA6CD73580A273EEC6C1026108F6B63479FBAEF5356DDE4FF43E4B38DD187485F DUP3 PUSH1 0x40 MLOAD PUSH2 0xDA8 SWAP2 SWAP1 PUSH2 0x1650 JUMP JUMPDEST PUSH1 0x40 MLOAD DUP1 SWAP2 SUB SWAP1 LOG2 POP POP JUMP JUMPDEST PUSH1 0x60 PUSH1 0x7 PUSH0 DUP4 PUSH20 0xFFFFFFFFFFFFFFFFFFFFFFFFFFFFFFFFFFFFFFFF AND PUSH20 0xFFFFFFFFFFFFFFFFFFFFFFFFFFFFFFFFFFFFFFFF AND DUP2 MSTORE PUSH1 0x20 ADD SWAP1 DUP2 MSTORE PUSH1 0x20 ADD PUSH0 KECCAK256 DUP1 SLOAD DUP1 PUSH1 0x20 MUL PUSH1 0x20 ADD PUSH1 0x40 MLOAD SWAP1 DUP2 ADD PUSH1 0x40 MSTORE DUP1 SWAP3 SWAP2 SWAP1 DUP2 DUP2 MSTORE PUSH1 0x20 ADD DUP3 DUP1 SLOAD DUP1 ISZERO PUSH2 0xE3B JUMPI PUSH1 0x20 MUL DUP3 ADD SWAP2 SWAP1 PUSH0 MSTORE PUSH1 0x20 PUSH0 KECCAK256 SWAP1 JUMPDEST DUP2 SLOAD DUP2 MSTORE PUSH1 0x20 ADD SWAP1 PUSH1 0x1 ADD SWAP1 DUP1 DUP4 GT PUSH2 0xE27 JUMPI JUMPDEST POP POP POP POP POP SWAP1 POP SWAP2 SWAP1 POP JUMP JUMPDEST PUSH2 0xE4F PUSH2 0x11AE JUMP JUMPDEST DUP1 PUSH1 0x8 PUSH0 DUP3 PUSH1 0x40 MLOAD PUSH1 0x20 ADD PUSH2 0xE64 SWAP2 SWAP1 PUSH2 0x20F6 JUMP JUMPDEST PUSH1 0x40 MLOAD PUSH1 0x20 DUP2 DUP4 SUB SUB DUP2 MSTORE SWAP1 PUSH1 0x40 MSTORE DUP1 MLOAD SWAP1 PUSH1 0x20 ADD KECCAK256 DUP2 MSTORE PUSH1 0x20 ADD SWAP1 DUP2 MSTORE PUSH1 0x20 ADD PUSH0 KECCAK256 PUSH0 SWAP1 SLOAD SWAP1 PUSH2 0x100 EXP SWAP1 DIV PUSH1 0xFF AND ISZERO PUSH2 0xED4 JUMPI PUSH1 0x40 MLOAD PUSH32 0x8C379A000000000000000000000000000000000000000000000000000000000 DUP2 MSTORE PUSH1 0x4 ADD PUSH2 0xECB SWAP1 PUSH2 0x2156 JUMP JUMPDEST PUSH1 0x40 MLOAD DUP1 SWAP2 SUB SWAP1 REVERT JUMPDEST PUSH2 0xEDD DUP3 PUSH2 0x155D JUMP JUMPDEST PUSH2 0xF1C JUMPI PUSH1 0x40 MLOAD PUSH32 0x8C379A000000000000000000000000000000000000000000000000000000000 DUP2 MSTORE PUSH1 0x4 ADD PUSH2 0xF13 SWAP1 PUSH2 0x21BE JUMP JUMPDEST PUSH1 0x40 MLOAD DUP1 SWAP2 SUB SWAP1 REVERT JUMPDEST PUSH0 PUSH1 0x1 PUSH1 0x4 SLOAD PUSH2 0xF2C SWAP2 SWAP1 PUSH2 0x21DC JUMP JUMPDEST SWAP1 POP PUSH1 0x40 MLOAD DUP1 PUSH1 0x60 ADD PUSH1 0x40 MSTORE DUP1 DUP3 DUP2 MSTORE PUSH1 0x20 ADD CALLER PUSH20 0xFFFFFFFFFFFFFFFFFFFFFFFFFFFFFFFFFFFFFFFF AND DUP2 MSTORE PUSH1 0x20 ADD DUP5 DUP2 MSTORE POP PUSH1 0x5 PUSH0 DUP4 DUP2 MSTORE PUSH1 0x20 ADD SWAP1 DUP2 MSTORE PUSH1 0x20 ADD PUSH0 KECCAK256 PUSH0 DUP3 ADD MLOAD DUP2 PUSH0 ADD SSTORE PUSH1 0x20 DUP3 ADD MLOAD DUP2 PUSH1 0x1 ADD PUSH0 PUSH2 0x100 EXP DUP2 SLOAD DUP2 PUSH20 0xFFFFFFFFFFFFFFFFFFFFFFFFFFFFFFFFFFFFFFFF MUL NOT AND SWAP1 DUP4 PUSH20 0xFFFFFFFFFFFFFFFFFFFFFFFFFFFFFFFFFFFFFFFF AND MUL OR SWAP1 SSTORE POP PUSH1 0x40 DUP3 ADD MLOAD DUP2 PUSH1 0x2 ADD SWAP1 DUP2 PUSH2 0xFD3 SWAP2 SWAP1 PUSH2 0x23AF JUMP JUMPDEST POP SWAP1 POP POP PUSH1 0x7 PUSH0 CALLER PUSH20 0xFFFFFFFFFFFFFFFFFFFFFFFFFFFFFFFFFFFFFFFF AND PUSH20 0xFFFFFFFFFFFFFFFFFFFFFFFFFFFFFFFFFFFFFFFF AND DUP2 MSTORE PUSH1 0x20 ADD SWAP1 DUP2 MSTORE PUSH1 0x20 ADD PUSH0 KECCAK256 DUP2 SWAP1 DUP1 PUSH1 0x1 DUP2 SLOAD ADD DUP1 DUP3 SSTORE DUP1 SWAP2 POP POP PUSH1 0x1 SWAP1 SUB SWAP1 PUSH0 MSTORE PUSH1 0x20 PUSH0 KECCAK256 ADD PUSH0 SWAP1 SWAP2 SWAP1 SWAP2 SWAP1 SWAP2 POP SSTORE PUSH1 0x1 PUSH1 0x8 PUSH0 DUP6 PUSH1 0x40 MLOAD PUSH1 0x20 ADD PUSH2 0x104E SWAP2 SWAP1 PUSH2 0x20F6 JUMP JUMPDEST PUSH1 0x40 MLOAD PUSH1 0x20 DUP2 DUP4 SUB SUB DUP2 MSTORE SWAP1 PUSH1 0x40 MSTORE DUP1 MLOAD SWAP1 PUSH1 0x20 ADD KECCAK256 DUP2 MSTORE PUSH1 0x20 ADD SWAP1 DUP2 MSTORE PUSH1 0x20 ADD PUSH0 KECCAK256 PUSH0 PUSH2 0x100 EXP DUP2 SLOAD DUP2 PUSH1 0xFF MUL NOT AND SWAP1 DUP4 ISZERO ISZERO MUL OR SWAP1 SSTORE POP PUSH2 0x108F PUSH2 0x1569 JUMP JUMPDEST DUP1 CALLER PUSH20 0xFFFFFFFFFFFFFFFFFFFFFFFFFFFFFFFFFFFFFFFF AND PUSH32 0x4CC0A9C4A99DDC700DE1AF2C9F916A7CBFDB71F14801CCFF94061AD1EF8A8040 PUSH1 0x40 MLOAD PUSH1 0x40 MLOAD DUP1 SWAP2 SUB SWAP1 LOG3 POP POP POP JUMP JUMPDEST PUSH1 0x6 PUSH1 0x20 MSTORE DUP1 PUSH0 MSTORE PUSH1 0x40 PUSH0 KECCAK256 PUSH0 SWAP2 POP SWAP1 POP DUP1 PUSH0 ADD SLOAD SWAP1 DUP1 PUSH1 0x1 ADD PUSH0 SWAP1 SLOAD SWAP1 PUSH2 0x100 EXP SWAP1 DIV PUSH20 0xFFFFFFFFFFFFFFFFFFFFFFFFFFFFFFFFFFFFFFFF AND SWAP1 DUP1 PUSH1 0x1 ADD PUSH1 0x14 SWAP1 SLOAD SWAP1 PUSH2 0x100 EXP SWAP1 DIV PUSH1 0xFF AND SWAP1 POP DUP4 JUMP JUMPDEST PUSH2 0x1132 PUSH2 0x1352 JUMP JUMPDEST PUSH0 PUSH20 0xFFFFFFFFFFFFFFFFFFFFFFFFFFFFFFFFFFFFFFFF AND DUP2 PUSH20 0xFFFFFFFFFFFFFFFFFFFFFFFFFFFFFFFFFFFFFFFF AND SUB PUSH2 0x11A2 JUMPI PUSH0 PUSH1 0x40 MLOAD PUSH32 0x1E4FBDF700000000000000000000000000000000000000000000000000000000 DUP2 MSTORE PUSH1 0x4 ADD PUSH2 0x1199 SWAP2 SWAP1 PUSH2 0x180F JUMP JUMPDEST PUSH1 0x40 MLOAD DUP1 SWAP2 SUB SWAP1 REVERT JUMPDEST PUSH2 0x11AB DUP2 PUSH2 0x143A JUMP JUMPDEST POP JUMP JUMPDEST PUSH2 0x11B6 PUSH2 0xB52 JUMP JUMPDEST ISZERO PUSH2 0x11F6 JUMPI PUSH1 0x40 MLOAD PUSH32 0x8C379A000000000000000000000000000000000000000000000000000000000 DUP2 MSTORE PUSH1 0x4 ADD PUSH2 0x11ED SWAP1 PUSH2 0x24C8 JUMP JUMPDEST PUSH1 0x40 MLOAD DUP1 SWAP2 SUB SWAP1 REVERT JUMPDEST JUMP JUMPDEST PUSH1 0x2 PUSH1 0x1 SLOAD SUB PUSH2 0x123D JUMPI PUSH1 0x40 MLOAD PUSH32 0x8C379A000000000000000000000000000000000000000000000000000000000 DUP2 MSTORE PUSH1 0x4 ADD PUSH2 0x1234 SWAP1 PUSH2 0x2530 JUMP JUMPDEST PUSH1 0x40 MLOAD DUP1 SWAP2 SUB SWAP1 REVERT JUMPDEST PUSH1 0x2 PUSH1 0x1 DUP2 SWAP1 SSTORE POP JUMP JUMPDEST PUSH2 0x124F PUSH2 0x11AE JUMP JUMPDEST PUSH0 PUSH1 0x7 PUSH0 DUP5 PUSH20 0xFFFFFFFFFFFFFFFFFFFFFFFFFFFFFFFFFFFFFFFF AND PUSH20 0xFFFFFFFFFFFFFFFFFFFFFFFFFFFFFFFFFFFFFFFF AND DUP2 MSTORE PUSH1 0x20 ADD SWAP1 DUP2 MSTORE PUSH1 0x20 ADD PUSH0 KECCAK256 SWAP1 POP PUSH0 PUSH0 SWAP1 POP JUMPDEST DUP2 DUP1 SLOAD SWAP1 POP DUP2 LT ISZERO PUSH2 0x1343 JUMPI DUP3 DUP3 DUP3 DUP2 SLOAD DUP2 LT PUSH2 0x12B4 JUMPI PUSH2 0x12B3 PUSH2 0x254E JUMP JUMPDEST JUMPDEST SWAP1 PUSH0 MSTORE PUSH1 0x20 PUSH0 KECCAK256 ADD SLOAD SUB PUSH2 0x1336 JUMPI DUP2 PUSH1 0x1 DUP4 DUP1 SLOAD SWAP1 POP PUSH2 0x12D4 SWAP2 SWAP1 PUSH2 0x1DE3 JUMP JUMPDEST DUP2 SLOAD DUP2 LT PUSH2 0x12E5 JUMPI PUSH2 0x12E4 PUSH2 0x254E JUMP JUMPDEST JUMPDEST SWAP1 PUSH0 MSTORE PUSH1 0x20 PUSH0 KECCAK256 ADD SLOAD DUP3 DUP3 DUP2 SLOAD DUP2 LT PUSH2 0x1301 JUMPI PUSH2 0x1300 PUSH2 0x254E JUMP JUMPDEST JUMPDEST SWAP1 PUSH0 MSTORE PUSH1 0x20 PUSH0 KECCAK256 ADD DUP2 SWAP1 SSTORE POP DUP2 DUP1 SLOAD DUP1 PUSH2 0x131E JUMPI PUSH2 0x131D PUSH2 0x257B JUMP JUMPDEST JUMPDEST PUSH1 0x1 SWAP1 SUB DUP2 DUP2 SWAP1 PUSH0 MSTORE PUSH1 0x20 PUSH0 KECCAK256 ADD PUSH0 SWAP1 SSTORE SWAP1 SSTORE PUSH2 0x1343 JUMP JUMPDEST DUP1 DUP1 PUSH1 0x1 ADD SWAP2 POP POP PUSH2 0x1294 JUMP JUMPDEST POP POP POP POP JUMP JUMPDEST PUSH1 0x1 DUP1 DUP2 SWAP1 SSTORE POP JUMP JUMPDEST PUSH2 0x135A PUSH2 0x1582 JUMP JUMPDEST PUSH20 0xFFFFFFFFFFFFFFFFFFFFFFFFFFFFFFFFFFFFFFFF AND PUSH2 0x1378 PUSH2 0xBB8 JUMP JUMPDEST PUSH20 0xFFFFFFFFFFFFFFFFFFFFFFFFFFFFFFFFFFFFFFFF AND EQ PUSH2 0x13D7 JUMPI PUSH2 0x139B PUSH2 0x1582 JUMP JUMPDEST PUSH1 0x40 MLOAD PUSH32 0x118CDAA700000000000000000000000000000000000000000000000000000000 DUP2 MSTORE PUSH1 0x4 ADD PUSH2 0x13CE SWAP2 SWAP1 PUSH2 0x180F JUMP JUMPDEST PUSH1 0x40 MLOAD DUP1 SWAP2 SUB SWAP1 REVERT JUMPDEST JUMP JUMPDEST PUSH2 0x13E1 PUSH2 0x1589 JUMP JUMPDEST PUSH0 PUSH1 0x2 PUSH0 PUSH2 0x100 EXP DUP2 SLOAD DUP2 PUSH1 0xFF MUL NOT AND SWAP1 DUP4 ISZERO ISZERO MUL OR SWAP1 SSTORE POP PUSH32 0x5DB9EE0A495BF2E6FF9C91A7834C1BA4FDD244A5E8AA4E537BD38AEAE4B073AA PUSH2 0x1423 PUSH2 0x1582 JUMP JUMPDEST PUSH1 0x40 MLOAD PUSH2 0x1430 SWAP2 SWAP1 PUSH2 0x180F JUMP JUMPDEST PUSH1 0x40 MLOAD DUP1 SWAP2 SUB SWAP1 LOG1 JUMP JUMPDEST PUSH0 PUSH0 PUSH0 SWAP1 SLOAD SWAP1 PUSH2 0x100 EXP SWAP1 DIV PUSH20 0xFFFFFFFFFFFFFFFFFFFFFFFFFFFFFFFFFFFFFFFF AND SWAP1 POP DUP2 PUSH0 PUSH0 PUSH2 0x100 EXP DUP2 SLOAD DUP2 PUSH20 0xFFFFFFFFFFFFFFFFFFFFFFFFFFFFFFFFFFFFFFFF MUL NOT AND SWAP1 DUP4 PUSH20 0xFFFFFFFFFFFFFFFFFFFFFFFFFFFFFFFFFFFFFFFF AND MUL OR SWAP1 SSTORE POP DUP2 PUSH20 0xFFFFFFFFFFFFFFFFFFFFFFFFFFFFFFFFFFFFFFFF AND DUP2 PUSH20 0xFFFFFFFFFFFFFFFFFFFFFFFFFFFFFFFFFFFFFFFF AND PUSH32 0x8BE0079C531659141344CD1FD0A4F28419497F9722A3DAAFE3B4186F6B6457E0 PUSH1 0x40 MLOAD PUSH1 0x40 MLOAD DUP1 SWAP2 SUB SWAP1 LOG3 POP POP JUMP JUMPDEST PUSH2 0x1503 PUSH2 0x11AE JUMP JUMPDEST PUSH1 0x1 PUSH1 0x2 PUSH0 PUSH2 0x100 EXP DUP2 SLOAD DUP2 PUSH1 0xFF MUL NOT AND SWAP1 DUP4 ISZERO ISZERO MUL OR SWAP1 SSTORE POP PUSH32 0x62E78CEA01BEE320CD4E420270B5EA74000D11B0C9F74754EBDBFC544B05A258 PUSH2 0x1546 PUSH2 0x1582 JUMP JUMPDEST PUSH1 0x40 MLOAD PUSH2 0x1553 SWAP2 SWAP1 PUSH2 0x180F JUMP JUMPDEST PUSH1 0x40 MLOAD DUP1 SWAP2 SUB SWAP1 LOG1 JUMP JUMPDEST PUSH0 PUSH0 DUP3 MLOAD GT SWAP1 POP SWAP2 SWAP1 POP JUMP JUMPDEST PUSH1 0x4 PUSH0 DUP2 SLOAD DUP1 SWAP3 SWAP2 SWAP1 PUSH2 0x157B SWAP1 PUSH2 0x25A8 JUMP JUMPDEST SWAP2 SWAP1 POP SSTORE POP JUMP JUMPDEST PUSH0 CALLER SWAP1 POP SWAP1 JUMP JUMPDEST PUSH2 0x1591 PUSH2 0xB52 JUMP JUMPDEST PUSH2 0x15D0 JUMPI PUSH1 0x40 MLOAD PUSH32 0x8C379A000000000000000000000000000000000000000000000000000000000 DUP2 MSTORE PUSH1 0x4 ADD PUSH2 0x15C7 SWAP1 PUSH2 0x2639 JUMP JUMPDEST PUSH1 0x40 MLOAD DUP1 SWAP2 SUB SWAP1 REVERT JUMPDEST JUMP JUMPDEST PUSH0 PUSH1 0x40 MLOAD SWAP1 POP SWAP1 JUMP JUMPDEST PUSH0 PUSH0 REVERT JUMPDEST PUSH0 PUSH0 REVERT JUMPDEST PUSH0 DUP2 SWAP1 POP SWAP2 SWAP1 POP JUMP JUMPDEST PUSH2 0x15F5 DUP2 PUSH2 0x15E3 JUMP JUMPDEST DUP2 EQ PUSH2 0x15FF JUMPI PUSH0 PUSH0 REVERT JUMPDEST POP JUMP JUMPDEST PUSH0 DUP2 CALLDATALOAD SWAP1 POP PUSH2 0x1610 DUP2 PUSH2 0x15EC JUMP JUMPDEST SWAP3 SWAP2 POP POP JUMP JUMPDEST PUSH0 PUSH1 0x20 DUP3 DUP5 SUB SLT ISZERO PUSH2 0x162B JUMPI PUSH2 0x162A PUSH2 0x15DB JUMP JUMPDEST JUMPDEST PUSH0 PUSH2 0x1638 DUP5 DUP3 DUP6 ADD PUSH2 0x1602 JUMP JUMPDEST SWAP2 POP POP SWAP3 SWAP2 POP POP JUMP JUMPDEST PUSH2 0x164A DUP2 PUSH2 0x15E3 JUMP JUMPDEST DUP3 MSTORE POP POP JUMP JUMPDEST PUSH0 PUSH1 0x20 DUP3 ADD SWAP1 POP PUSH2 0x1663 PUSH0 DUP4 ADD DUP5 PUSH2 0x1641 JUMP JUMPDEST SWAP3 SWAP2 POP POP JUMP JUMPDEST PUSH0 PUSH20 0xFFFFFFFFFFFFFFFFFFFFFFFFFFFFFFFFFFFFFFFF DUP3 AND SWAP1 POP SWAP2 SWAP1 POP JUMP JUMPDEST PUSH0 PUSH2 0x1692 DUP3 PUSH2 0x1669 JUMP JUMPDEST SWAP1 POP SWAP2 SWAP1 POP JUMP JUMPDEST PUSH2 0x16A2 DUP2 PUSH2 0x1688 JUMP JUMPDEST DUP3 MSTORE POP POP JUMP JUMPDEST PUSH0 DUP2 MLOAD SWAP1 POP SWAP2 SWAP1 POP JUMP JUMPDEST PUSH0 DUP3 DUP3 MSTORE PUSH1 0x20 DUP3 ADD SWAP1 POP SWAP3 SWAP2 POP POP JUMP JUMPDEST DUP3 DUP2 DUP4 MCOPY PUSH0 DUP4 DUP4 ADD MSTORE POP POP POP JUMP JUMPDEST PUSH0 PUSH1 0x1F NOT PUSH1 0x1F DUP4 ADD AND SWAP1 POP SWAP2 SWAP1 POP JUMP JUMPDEST PUSH0 PUSH2 0x16EA DUP3 PUSH2 0x16A8 JUMP JUMPDEST PUSH2 0x16F4 DUP2 DUP6 PUSH2 0x16B2 JUMP JUMPDEST SWAP4 POP PUSH2 0x1704 DUP2 DUP6 PUSH1 0x20 DUP7 ADD PUSH2 0x16C2 JUMP JUMPDEST PUSH2 0x170D DUP2 PUSH2 0x16D0 JUMP JUMPDEST DUP5 ADD SWAP2 POP POP SWAP3 SWAP2 POP POP JUMP JUMPDEST PUSH0 PUSH1 0x60 DUP3 ADD SWAP1 POP PUSH2 0x172B PUSH0 DUP4 ADD DUP7 PUSH2 0x1641 JUMP JUMPDEST PUSH2 0x1738 PUSH1 0x20 DUP4 ADD DUP6 PUSH2 0x1699 JUMP JUMPDEST DUP2 DUP2 SUB PUSH1 0x40 DUP4 ADD MSTORE PUSH2 0x174A DUP2 DUP5 PUSH2 0x16E0 JUMP JUMPDEST SWAP1 POP SWAP5 SWAP4 POP POP POP POP JUMP JUMPDEST PUSH2 0x175D DUP2 PUSH2 0x1688 JUMP JUMPDEST DUP2 EQ PUSH2 0x1767 JUMPI PUSH0 PUSH0 REVERT JUMPDEST POP JUMP JUMPDEST PUSH0 DUP2 CALLDATALOAD SWAP1 POP PUSH2 0x1778 DUP2 PUSH2 0x1754 JUMP JUMPDEST SWAP3 SWAP2 POP POP JUMP JUMPDEST PUSH0 PUSH0 PUSH1 0x40 DUP4 DUP6 SUB SLT ISZERO PUSH2 0x1794 JUMPI PUSH2 0x1793 PUSH2 0x15DB JUMP JUMPDEST JUMPDEST PUSH0 PUSH2 0x17A1 DUP6 DUP3 DUP7 ADD PUSH2 0x176A JUMP JUMPDEST SWAP3 POP POP PUSH1 0x20 PUSH2 0x17B2 DUP6 DUP3 DUP7 ADD PUSH2 0x1602 JUMP JUMPDEST SWAP2 POP POP SWAP3 POP SWAP3 SWAP1 POP JUMP JUMPDEST PUSH0 PUSH1 0x20 DUP3 ADD SWAP1 POP DUP2 DUP2 SUB PUSH0 DUP4 ADD MSTORE PUSH2 0x17D4 DUP2 DUP5 PUSH2 0x16E0 JUMP JUMPDEST SWAP1 POP SWAP3 SWAP2 POP POP JUMP JUMPDEST PUSH0 DUP2 ISZERO ISZERO SWAP1 POP SWAP2 SWAP1 POP JUMP JUMPDEST PUSH2 0x17F0 DUP2 PUSH2 0x17DC JUMP JUMPDEST DUP3 MSTORE POP POP JUMP JUMPDEST PUSH0 PUSH1 0x20 DUP3 ADD SWAP1 POP PUSH2 0x1809 PUSH0 DUP4 ADD DUP5 PUSH2 0x17E7 JUMP JUMPDEST SWAP3 SWAP2 POP POP JUMP JUMPDEST PUSH0 PUSH1 0x20 DUP3 ADD SWAP1 POP PUSH2 0x1822 PUSH0 DUP4 ADD DUP5 PUSH2 0x1699 JUMP JUMPDEST SWAP3 SWAP2 POP POP JUMP JUMPDEST PUSH0 PUSH0 PUSH1 0x40 DUP4 DUP6 SUB SLT ISZERO PUSH2 0x183E JUMPI PUSH2 0x183D PUSH2 0x15DB JUMP JUMPDEST JUMPDEST PUSH0 PUSH2 0x184B DUP6 DUP3 DUP7 ADD PUSH2 0x1602 JUMP JUMPDEST SWAP3 POP POP PUSH1 0x20 PUSH2 0x185C DUP6 DUP3 DUP7 ADD PUSH2 0x1602 JUMP JUMPDEST SWAP2 POP POP SWAP3 POP SWAP3 SWAP1 POP JUMP JUMPDEST PUSH0 PUSH1 0x20 DUP3 DUP5 SUB SLT ISZERO PUSH2 0x187B JUMPI PUSH2 0x187A PUSH2 0x15DB JUMP JUMPDEST JUMPDEST PUSH0 PUSH2 0x1888 DUP5 DUP3 DUP6 ADD PUSH2 0x176A JUMP JUMPDEST SWAP2 POP POP SWAP3 SWAP2 POP POP JUMP JUMPDEST PUSH0 DUP2 MLOAD SWAP1 POP SWAP2 SWAP1 POP JUMP JUMPDEST PUSH0 DUP3 DUP3 MSTORE PUSH1 0x20 DUP3 ADD SWAP1 POP SWAP3 SWAP2 POP POP JUMP JUMPDEST PUSH0 DUP2 SWAP1 POP PUSH1 0x20 DUP3 ADD SWAP1 POP SWAP2 SWAP1 POP JUMP JUMPDEST PUSH2 0x18C3 DUP2 PUSH2 0x15E3 JUMP JUMPDEST DUP3 MSTORE POP POP JUMP JUMPDEST PUSH0 PUSH2 0x18D4 DUP4 DUP4 PUSH2 0x18BA JUMP JUMPDEST PUSH1 0x20 DUP4 ADD SWAP1 POP SWAP3 SWAP2 POP POP JUMP JUMPDEST PUSH0 PUSH1 0x20 DUP3 ADD SWAP1 POP SWAP2 SWAP1 POP JUMP JUMPDEST PUSH0 PUSH2 0x18F6 DUP3 PUSH2 0x1891 JUMP JUMPDEST PUSH2 0x1900 DUP2 DUP6 PUSH2 0x189B JUMP JUMPDEST SWAP4 POP PUSH2 0x190B DUP4 PUSH2 0x18AB JUMP JUMPDEST DUP1 PUSH0 JUMPDEST DUP4 DUP2 LT ISZERO PUSH2 0x193B JUMPI DUP2 MLOAD PUSH2 0x1922 DUP9 DUP3 PUSH2 0x18C9 JUMP JUMPDEST SWAP8 POP PUSH2 0x192D DUP4 PUSH2 0x18E0 JUMP JUMPDEST SWAP3 POP POP PUSH1 0x1 DUP2 ADD SWAP1 POP PUSH2 0x190E JUMP JUMPDEST POP DUP6 SWAP4 POP POP POP POP SWAP3 SWAP2 POP POP JUMP JUMPDEST PUSH0 PUSH1 0x20 DUP3 ADD SWAP1 POP DUP2 DUP2 SUB PUSH0 DUP4 ADD MSTORE PUSH2 0x1960 DUP2 DUP5 PUSH2 0x18EC JUMP JUMPDEST SWAP1 POP SWAP3 SWAP2 POP POP JUMP JUMPDEST PUSH0 PUSH0 REVERT JUMPDEST PUSH0 PUSH0 REVERT JUMPDEST PUSH32 0x4E487B7100000000000000000000000000000000000000000000000000000000 PUSH0 MSTORE PUSH1 0x41 PUSH1 0x4 MSTORE PUSH1 0x24 PUSH0 REVERT JUMPDEST PUSH2 0x19A6 DUP3 PUSH2 0x16D0 JUMP JUMPDEST DUP2 ADD DUP2 DUP2 LT PUSH8 0xFFFFFFFFFFFFFFFF DUP3 GT OR ISZERO PUSH2 0x19C5 JUMPI PUSH2 0x19C4 PUSH2 0x1970 JUMP JUMPDEST JUMPDEST DUP1 PUSH1 0x40 MSTORE POP POP POP JUMP JUMPDEST PUSH0 PUSH2 0x19D7 PUSH2 0x15D2 JUMP JUMPDEST SWAP1 POP PUSH2 0x19E3 DUP3 DUP3 PUSH2 0x199D JUMP JUMPDEST SWAP2 SWAP1 POP JUMP JUMPDEST PUSH0 PUSH8 0xFFFFFFFFFFFFFFFF DUP3 GT ISZERO PUSH2 0x1A02 JUMPI PUSH2 0x1A01 PUSH2 0x1970 JUMP JUMPDEST JUMPDEST PUSH2 0x1A0B DUP3 PUSH2 0x16D0 JUMP JUMPDEST SWAP1 POP PUSH1 0x20 DUP2 ADD SWAP1 POP SWAP2 SWAP1 POP JUMP JUMPDEST DUP3 DUP2 DUP4 CALLDATACOPY PUSH0 DUP4 DUP4 ADD MSTORE POP POP POP JUMP JUMPDEST PUSH0 PUSH2 0x1A38 PUSH2 0x1A33 DUP5 PUSH2 0x19E8 JUMP JUMPDEST PUSH2 0x19CE JUMP JUMPDEST SWAP1 POP DUP3 DUP2 MSTORE PUSH1 0x20 DUP2 ADD DUP5 DUP5 DUP5 ADD GT ISZERO PUSH2 0x1A54 JUMPI PUSH2 0x1A53 PUSH2 0x196C JUMP JUMPDEST JUMPDEST PUSH2 0x1A5F DUP5 DUP3 DUP6 PUSH2 0x1A18 JUMP JUMPDEST POP SWAP4 SWAP3 POP POP POP JUMP JUMPDEST PUSH0 DUP3 PUSH1 0x1F DUP4 ADD SLT PUSH2 0x1A7B JUMPI PUSH2 0x1A7A PUSH2 0x1968 JUMP JUMPDEST JUMPDEST DUP2 CALLDATALOAD PUSH2 0x1A8B DUP5 DUP3 PUSH1 0x20 DUP7 ADD PUSH2 0x1A26 JUMP JUMPDEST SWAP2 POP POP SWAP3 SWAP2 POP POP JUMP JUMPDEST PUSH0 PUSH1 0x20 DUP3 DUP5 SUB SLT ISZERO PUSH2 0x1AA9 JUMPI PUSH2 0x1AA8 PUSH2 0x15DB JUMP JUMPDEST JUMPDEST PUSH0 DUP3 ADD CALLDATALOAD PUSH8 0xFFFFFFFFFFFFFFFF DUP2 GT ISZERO PUSH2 0x1AC6 JUMPI PUSH2 0x1AC5 PUSH2 0x15DF JUMP JUMPDEST JUMPDEST PUSH2 0x1AD2 DUP5 DUP3 DUP6 ADD PUSH2 0x1A67 JUMP JUMPDEST SWAP2 POP POP SWAP3 SWAP2 POP POP JUMP JUMPDEST PUSH0 PUSH1 0x60 DUP3 ADD SWAP1 POP PUSH2 0x1AEE PUSH0 DUP4 ADD DUP7 PUSH2 0x1641 JUMP JUMPDEST PUSH2 0x1AFB PUSH1 0x20 DUP4 ADD DUP6 PUSH2 0x1699 JUMP JUMPDEST PUSH2 0x1B08 PUSH1 0x40 DUP4 ADD DUP5 PUSH2 0x17E7 JUMP JUMPDEST SWAP5 SWAP4 POP POP POP POP JUMP JUMPDEST PUSH32 0x4E4654206973206E6F7420666F722073616C6500000000000000000000000000 PUSH0 DUP3 ADD MSTORE POP JUMP JUMPDEST PUSH0 PUSH2 0x1B44 PUSH1 0x13 DUP4 PUSH2 0x16B2 JUMP JUMPDEST SWAP2 POP PUSH2 0x1B4F DUP3 PUSH2 0x1B10 JUMP JUMPDEST PUSH1 0x20 DUP3 ADD SWAP1 POP SWAP2 SWAP1 POP JUMP JUMPDEST PUSH0 PUSH1 0x20 DUP3 ADD SWAP1 POP DUP2 DUP2 SUB PUSH0 DUP4 ADD MSTORE PUSH2 0x1B71 DUP2 PUSH2 0x1B38 JUMP JUMPDEST SWAP1 POP SWAP2 SWAP1 POP JUMP JUMPDEST PUSH32 0x496E73756666696369656E742066756E64730000000000000000000000000000 PUSH0 DUP3 ADD MSTORE POP JUMP JUMPDEST PUSH0 PUSH2 0x1BAC PUSH1 0x12 DUP4 PUSH2 0x16B2 JUMP JUMPDEST SWAP2 POP PUSH2 0x1BB7 DUP3 PUSH2 0x1B78 JUMP JUMPDEST PUSH1 0x20 DUP3 ADD SWAP1 POP SWAP2 SWAP1 POP JUMP JUMPDEST PUSH0 PUSH1 0x20 DUP3 ADD SWAP1 POP DUP2 DUP2 SUB PUSH0 DUP4 ADD MSTORE PUSH2 0x1BD9 DUP2 PUSH2 0x1BA0 JUMP JUMPDEST SWAP1 POP SWAP2 SWAP1 POP JUMP JUMPDEST PUSH32 0x53656C6C65722061646472657373206973207A65726F00000000000000000000 PUSH0 DUP3 ADD MSTORE POP JUMP JUMPDEST PUSH0 PUSH2 0x1C14 PUSH1 0x16 DUP4 PUSH2 0x16B2 JUMP JUMPDEST SWAP2 POP PUSH2 0x1C1F DUP3 PUSH2 0x1BE0 JUMP JUMPDEST PUSH1 0x20 DUP3 ADD SWAP1 POP SWAP2 SWAP1 POP JUMP JUMPDEST PUSH0 PUSH1 0x20 DUP3 ADD SWAP1 POP DUP2 DUP2 SUB PUSH0 DUP4 ADD MSTORE PUSH2 0x1C41 DUP2 PUSH2 0x1C08 JUMP JUMPDEST SWAP1 POP SWAP2 SWAP1 POP JUMP JUMPDEST PUSH32 0x4F776E65722061646472657373206973207A65726F0000000000000000000000 PUSH0 DUP3 ADD MSTORE POP JUMP JUMPDEST PUSH0 PUSH2 0x1C7C PUSH1 0x15 DUP4 PUSH2 0x16B2 JUMP JUMPDEST SWAP2 POP PUSH2 0x1C87 DUP3 PUSH2 0x1C48 JUMP JUMPDEST PUSH1 0x20 DUP3 ADD SWAP1 POP SWAP2 SWAP1 POP JUMP JUMPDEST PUSH0 PUSH1 0x20 DUP3 ADD SWAP1 POP DUP2 DUP2 SUB PUSH0 DUP4 ADD MSTORE PUSH2 0x1CA9 DUP2 PUSH2 0x1C70 JUMP JUMPDEST SWAP1 POP SWAP2 SWAP1 POP JUMP JUMPDEST PUSH32 0x53656C6C6572206E6F206C6F6E676572206F776E732074686973204E46540000 PUSH0 DUP3 ADD MSTORE POP JUMP JUMPDEST PUSH0 PUSH2 0x1CE4 PUSH1 0x1E DUP4 PUSH2 0x16B2 JUMP JUMPDEST SWAP2 POP PUSH2 0x1CEF DUP3 PUSH2 0x1CB0 JUMP JUMPDEST PUSH1 0x20 DUP3 ADD SWAP1 POP SWAP2 SWAP1 POP JUMP JUMPDEST PUSH0 PUSH1 0x20 DUP3 ADD SWAP1 POP DUP2 DUP2 SUB PUSH0 DUP4 ADD MSTORE PUSH2 0x1D11 DUP2 PUSH2 0x1CD8 JUMP JUMPDEST SWAP1 POP SWAP2 SWAP1 POP JUMP JUMPDEST PUSH32 0x4E487B7100000000000000000000000000000000000000000000000000000000 PUSH0 MSTORE PUSH1 0x11 PUSH1 0x4 MSTORE PUSH1 0x24 PUSH0 REVERT JUMPDEST PUSH0 PUSH2 0x1D4F DUP3 PUSH2 0x15E3 JUMP JUMPDEST SWAP2 POP PUSH2 0x1D5A DUP4 PUSH2 0x15E3 JUMP JUMPDEST SWAP3 POP DUP3 DUP3 MUL PUSH2 0x1D68 DUP2 PUSH2 0x15E3 JUMP JUMPDEST SWAP2 POP DUP3 DUP3 DIV DUP5 EQ DUP4 ISZERO OR PUSH2 0x1D7F JUMPI PUSH2 0x1D7E PUSH2 0x1D18 JUMP JUMPDEST JUMPDEST POP SWAP3 SWAP2 POP POP JUMP JUMPDEST PUSH32 0x4E487B7100000000000000000000000000000000000000000000000000000000 PUSH0 MSTORE PUSH1 0x12 PUSH1 0x4 MSTORE PUSH1 0x24 PUSH0 REVERT JUMPDEST PUSH0 PUSH2 0x1DBD DUP3 PUSH2 0x15E3 JUMP JUMPDEST SWAP2 POP PUSH2 0x1DC8 DUP4 PUSH2 0x15E3 JUMP JUMPDEST SWAP3 POP DUP3 PUSH2 0x1DD8 JUMPI PUSH2 0x1DD7 PUSH2 0x1D86 JUMP JUMPDEST JUMPDEST DUP3 DUP3 DIV SWAP1 POP SWAP3 SWAP2 POP POP JUMP JUMPDEST PUSH0 PUSH2 0x1DED DUP3 PUSH2 0x15E3 JUMP JUMPDEST SWAP2 POP PUSH2 0x1DF8 DUP4 PUSH2 0x15E3 JUMP JUMPDEST SWAP3 POP DUP3 DUP3 SUB SWAP1 POP DUP2 DUP2 GT ISZERO PUSH2 0x1E10 JUMPI PUSH2 0x1E0F PUSH2 0x1D18 JUMP JUMPDEST JUMPDEST SWAP3 SWAP2 POP POP JUMP JUMPDEST PUSH0 DUP2 SWAP1 POP SWAP3 SWAP2 POP POP JUMP JUMPDEST POP JUMP JUMPDEST PUSH0 PUSH2 0x1E2E PUSH0 DUP4 PUSH2 0x1E16 JUMP JUMPDEST SWAP2 POP PUSH2 0x1E39 DUP3 PUSH2 0x1E20 JUMP JUMPDEST PUSH0 DUP3 ADD SWAP1 POP SWAP2 SWAP1 POP JUMP JUMPDEST PUSH0 PUSH2 0x1E4D DUP3 PUSH2 0x1E23 JUMP JUMPDEST SWAP2 POP DUP2 SWAP1 POP SWAP2 SWAP1 POP JUMP JUMPDEST PUSH32 0x4661696C656420746F2073656E642066656520746F206F776E65720000000000 PUSH0 DUP3 ADD MSTORE POP JUMP JUMPDEST PUSH0 PUSH2 0x1E8B PUSH1 0x1B DUP4 PUSH2 0x16B2 JUMP JUMPDEST SWAP2 POP PUSH2 0x1E96 DUP3 PUSH2 0x1E57 JUMP JUMPDEST PUSH1 0x20 DUP3 ADD SWAP1 POP SWAP2 SWAP1 POP JUMP JUMPDEST PUSH0 PUSH1 0x20 DUP3 ADD SWAP1 POP DUP2 DUP2 SUB PUSH0 DUP4 ADD MSTORE PUSH2 0x1EB8 DUP2 PUSH2 0x1E7F JUMP JUMPDEST SWAP1 POP SWAP2 SWAP1 POP JUMP JUMPDEST PUSH32 0x4661696C656420746F2073656E6420616D6F756E7420746F2073656C6C657200 PUSH0 DUP3 ADD MSTORE POP JUMP JUMPDEST PUSH0 PUSH2 0x1EF3 PUSH1 0x1F DUP4 PUSH2 0x16B2 JUMP JUMPDEST SWAP2 POP PUSH2 0x1EFE DUP3 PUSH2 0x1EBF JUMP JUMPDEST PUSH1 0x20 DUP3 ADD SWAP1 POP SWAP2 SWAP1 POP JUMP JUMPDEST PUSH0 PUSH1 0x20 DUP3 ADD SWAP1 POP DUP2 DUP2 SUB PUSH0 DUP4 ADD MSTORE PUSH2 0x1F20 DUP2 PUSH2 0x1EE7 JUMP JUMPDEST SWAP1 POP SWAP2 SWAP1 POP JUMP JUMPDEST PUSH32 0x4661696C656420746F20726566756E642065786365737320616D6F756E740000 PUSH0 DUP3 ADD MSTORE POP JUMP JUMPDEST PUSH0 PUSH2 0x1F5B PUSH1 0x1E DUP4 PUSH2 0x16B2 JUMP JUMPDEST SWAP2 POP PUSH2 0x1F66 DUP3 PUSH2 0x1F27 JUMP JUMPDEST PUSH1 0x20 DUP3 ADD SWAP1 POP SWAP2 SWAP1 POP JUMP JUMPDEST PUSH0 PUSH1 0x20 DUP3 ADD SWAP1 POP DUP2 DUP2 SUB PUSH0 DUP4 ADD MSTORE PUSH2 0x1F88 DUP2 PUSH2 0x1F4F JUMP JUMPDEST SWAP1 POP SWAP2 SWAP1 POP JUMP JUMPDEST PUSH32 0x4E487B7100000000000000000000000000000000000000000000000000000000 PUSH0 MSTORE PUSH1 0x22 PUSH1 0x4 MSTORE PUSH1 0x24 PUSH0 REVERT JUMPDEST PUSH0 PUSH1 0x2 DUP3 DIV SWAP1 POP PUSH1 0x1 DUP3 AND DUP1 PUSH2 0x1FD3 JUMPI PUSH1 0x7F DUP3 AND SWAP2 POP JUMPDEST PUSH1 0x20 DUP3 LT DUP2 SUB PUSH2 0x1FE6 JUMPI PUSH2 0x1FE5 PUSH2 0x1F8F JUMP JUMPDEST JUMPDEST POP SWAP2 SWAP1 POP JUMP JUMPDEST PUSH32 0x4E6F7420746865206F776E657200000000000000000000000000000000000000 PUSH0 DUP3 ADD MSTORE POP JUMP JUMPDEST PUSH0 PUSH2 0x2020 PUSH1 0xD DUP4 PUSH2 0x16B2 JUMP JUMPDEST SWAP2 POP PUSH2 0x202B DUP3 PUSH2 0x1FEC JUMP JUMPDEST PUSH1 0x20 DUP3 ADD SWAP1 POP SWAP2 SWAP1 POP JUMP JUMPDEST PUSH0 PUSH1 0x20 DUP3 ADD SWAP1 POP DUP2 DUP2 SUB PUSH0 DUP4 ADD MSTORE PUSH2 0x204D DUP2 PUSH2 0x2014 JUMP JUMPDEST SWAP1 POP SWAP2 SWAP1 POP JUMP JUMPDEST PUSH32 0x5072696365206D7573742062652067726561746572207468616E207A65726F00 PUSH0 DUP3 ADD MSTORE POP JUMP JUMPDEST PUSH0 PUSH2 0x2088 PUSH1 0x1F DUP4 PUSH2 0x16B2 JUMP JUMPDEST SWAP2 POP PUSH2 0x2093 DUP3 PUSH2 0x2054 JUMP JUMPDEST PUSH1 0x20 DUP3 ADD SWAP1 POP SWAP2 SWAP1 POP JUMP JUMPDEST PUSH0 PUSH1 0x20 DUP3 ADD SWAP1 POP DUP2 DUP2 SUB PUSH0 DUP4 ADD MSTORE PUSH2 0x20B5 DUP2 PUSH2 0x207C JUMP JUMPDEST SWAP1 POP SWAP2 SWAP1 POP JUMP JUMPDEST PUSH0 DUP2 SWAP1 POP SWAP3 SWAP2 POP POP JUMP JUMPDEST PUSH0 PUSH2 0x20D0 DUP3 PUSH2 0x16A8 JUMP JUMPDEST PUSH2 0x20DA DUP2 DUP6 PUSH2 0x20BC JUMP JUMPDEST SWAP4 POP PUSH2 0x20EA DUP2 DUP6 PUSH1 0x20 DUP7 ADD PUSH2 0x16C2 JUMP JUMPDEST DUP1 DUP5 ADD SWAP2 POP POP SWAP3 SWAP2 POP POP JUMP JUMPDEST PUSH0 PUSH2 0x2101 DUP3 DUP5 PUSH2 0x20C6 JUMP JUMPDEST SWAP2 POP DUP2 SWAP1 POP SWAP3 SWAP2 POP POP JUMP JUMPDEST PUSH32 0x546F6B656E2055524920616C7265616479206578697374730000000000000000 PUSH0 DUP3 ADD MSTORE POP JUMP JUMPDEST PUSH0 PUSH2 0x2140 PUSH1 0x18 DUP4 PUSH2 0x16B2 JUMP JUMPDEST SWAP2 POP PUSH2 0x214B DUP3 PUSH2 0x210C JUMP JUMPDEST PUSH1 0x20 DUP3 ADD SWAP1 POP SWAP2 SWAP1 POP JUMP JUMPDEST PUSH0 PUSH1 0x20 DUP3 ADD SWAP1 POP DUP2 DUP2 SUB PUSH0 DUP4 ADD MSTORE PUSH2 0x216D DUP2 PUSH2 0x2134 JUMP JUMPDEST SWAP1 POP SWAP2 SWAP1 POP JUMP JUMPDEST PUSH32 0x546F6B656E2055524920697320656D7074792100000000000000000000000000 PUSH0 DUP3 ADD MSTORE POP JUMP JUMPDEST PUSH0 PUSH2 0x21A8 PUSH1 0x13 DUP4 PUSH2 0x16B2 JUMP JUMPDEST SWAP2 POP PUSH2 0x21B3 DUP3 PUSH2 0x2174 JUMP JUMPDEST PUSH1 0x20 DUP3 ADD SWAP1 POP SWAP2 SWAP1 POP JUMP JUMPDEST PUSH0 PUSH1 0x20 DUP3 ADD SWAP1 POP DUP2 DUP2 SUB PUSH0 DUP4 ADD MSTORE PUSH2 0x21D5 DUP2 PUSH2 0x219C JUMP JUMPDEST SWAP1 POP SWAP2 SWAP1 POP JUMP JUMPDEST PUSH0 PUSH2 0x21E6 DUP3 PUSH2 0x15E3 JUMP JUMPDEST SWAP2 POP PUSH2 0x21F1 DUP4 PUSH2 0x15E3 JUMP JUMPDEST SWAP3 POP DUP3 DUP3 ADD SWAP1 POP DUP1 DUP3 GT ISZERO PUSH2 0x2209 JUMPI PUSH2 0x2208 PUSH2 0x1D18 JUMP JUMPDEST JUMPDEST SWAP3 SWAP2 POP POP JUMP JUMPDEST PUSH0 DUP2 SWAP1 POP DUP2 PUSH0 MSTORE PUSH1 0x20 PUSH0 KECCAK256 SWAP1 POP SWAP2 SWAP1 POP JUMP JUMPDEST PUSH0 PUSH1 0x20 PUSH1 0x1F DUP4 ADD DIV SWAP1 POP SWAP2 SWAP1 POP JUMP JUMPDEST PUSH0 DUP3 DUP3 SHL SWAP1 POP SWAP3 SWAP2 POP POP JUMP JUMPDEST PUSH0 PUSH1 0x8 DUP4 MUL PUSH2 0x226B PUSH32 0xFFFFFFFFFFFFFFFFFFFFFFFFFFFFFFFFFFFFFFFFFFFFFFFFFFFFFFFFFFFFFFFF DUP3 PUSH2 0x2230 JUMP JUMPDEST PUSH2 0x2275 DUP7 DUP4 PUSH2 0x2230 JUMP JUMPDEST SWAP6 POP DUP1 NOT DUP5 AND SWAP4 POP DUP1 DUP7 AND DUP5 OR SWAP3 POP POP POP SWAP4 SWAP3 POP POP POP JUMP JUMPDEST PUSH0 DUP2 SWAP1 POP SWAP2 SWAP1 POP JUMP JUMPDEST PUSH0 PUSH2 0x22B0 PUSH2 0x22AB PUSH2 0x22A6 DUP5 PUSH2 0x15E3 JUMP JUMPDEST PUSH2 0x228D JUMP JUMPDEST PUSH2 0x15E3 JUMP JUMPDEST SWAP1 POP SWAP2 SWAP1 POP JUMP JUMPDEST PUSH0 DUP2 SWAP1 POP SWAP2 SWAP1 POP JUMP JUMPDEST PUSH2 0x22C9 DUP4 PUSH2 0x2296 JUMP JUMPDEST PUSH2 0x22DD PUSH2 0x22D5 DUP3 PUSH2 0x22B7 JUMP JUMPDEST DUP5 DUP5 SLOAD PUSH2 0x223C JUMP JUMPDEST DUP3 SSTORE POP POP POP POP JUMP JUMPDEST PUSH0 PUSH0 SWAP1 POP SWAP1 JUMP JUMPDEST PUSH2 0x22F4 PUSH2 0x22E5 JUMP JUMPDEST PUSH2 0x22FF DUP2 DUP5 DUP5 PUSH2 0x22C0 JUMP JUMPDEST POP POP POP JUMP JUMPDEST JUMPDEST DUP2 DUP2 LT ISZERO PUSH2 0x2322 JUMPI PUSH2 0x2317 PUSH0 DUP3 PUSH2 0x22EC JUMP JUMPDEST PUSH1 0x1 DUP2 ADD SWAP1 POP PUSH2 0x2305 JUMP JUMPDEST POP POP JUMP JUMPDEST PUSH1 0x1F DUP3 GT ISZERO PUSH2 0x2367 JUMPI PUSH2 0x2338 DUP2 PUSH2 0x220F JUMP JUMPDEST PUSH2 0x2341 DUP5 PUSH2 0x2221 JUMP JUMPDEST DUP2 ADD PUSH1 0x20 DUP6 LT ISZERO PUSH2 0x2350 JUMPI DUP2 SWAP1 POP JUMPDEST PUSH2 0x2364 PUSH2 0x235C DUP6 PUSH2 0x2221 JUMP JUMPDEST DUP4 ADD DUP3 PUSH2 0x2304 JUMP JUMPDEST POP POP JUMPDEST POP POP POP JUMP JUMPDEST PUSH0 DUP3 DUP3 SHR SWAP1 POP SWAP3 SWAP2 POP POP JUMP JUMPDEST PUSH0 PUSH2 0x2387 PUSH0 NOT DUP5 PUSH1 0x8 MUL PUSH2 0x236C JUMP JUMPDEST NOT DUP1 DUP4 AND SWAP2 POP POP SWAP3 SWAP2 POP POP JUMP JUMPDEST PUSH0 PUSH2 0x239F DUP4 DUP4 PUSH2 0x2378 JUMP JUMPDEST SWAP2 POP DUP3 PUSH1 0x2 MUL DUP3 OR SWAP1 POP SWAP3 SWAP2 POP POP JUMP JUMPDEST PUSH2 0x23B8 DUP3 PUSH2 0x16A8 JUMP JUMPDEST PUSH8 0xFFFFFFFFFFFFFFFF DUP2 GT ISZERO PUSH2 0x23D1 JUMPI PUSH2 0x23D0 PUSH2 0x1970 JUMP JUMPDEST JUMPDEST PUSH2 0x23DB DUP3 SLOAD PUSH2 0x1FBC JUMP JUMPDEST PUSH2 0x23E6 DUP3 DUP3 DUP6 PUSH2 0x2326 JUMP JUMPDEST PUSH0 PUSH1 0x20 SWAP1 POP PUSH1 0x1F DUP4 GT PUSH1 0x1 DUP2 EQ PUSH2 0x2417 JUMPI PUSH0 DUP5 ISZERO PUSH2 0x2405 JUMPI DUP3 DUP8 ADD MLOAD SWAP1 POP JUMPDEST PUSH2 0x240F DUP6 DUP3 PUSH2 0x2394 JUMP JUMPDEST DUP7 SSTORE POP PUSH2 0x2476 JUMP JUMPDEST PUSH1 0x1F NOT DUP5 AND PUSH2 0x2425 DUP7 PUSH2 0x220F JUMP JUMPDEST PUSH0 JUMPDEST DUP3 DUP2 LT ISZERO PUSH2 0x244C JUMPI DUP5 DUP10 ADD MLOAD DUP3 SSTORE PUSH1 0x1 DUP3 ADD SWAP2 POP PUSH1 0x20 DUP6 ADD SWAP5 POP PUSH1 0x20 DUP2 ADD SWAP1 POP PUSH2 0x2427 JUMP JUMPDEST DUP7 DUP4 LT ISZERO PUSH2 0x2469 JUMPI DUP5 DUP10 ADD MLOAD PUSH2 0x2465 PUSH1 0x1F DUP10 AND DUP3 PUSH2 0x2378 JUMP JUMPDEST DUP4 SSTORE POP JUMPDEST PUSH1 0x1 PUSH1 0x2 DUP9 MUL ADD DUP9 SSTORE POP POP POP JUMPDEST POP POP POP POP POP POP JUMP JUMPDEST PUSH32 0x5061757361626C653A2070617573656400000000000000000000000000000000 PUSH0 DUP3 ADD MSTORE POP JUMP JUMPDEST PUSH0 PUSH2 0x24B2 PUSH1 0x10 DUP4 PUSH2 0x16B2 JUMP JUMPDEST SWAP2 POP PUSH2 0x24BD DUP3 PUSH2 0x247E JUMP JUMPDEST PUSH1 0x20 DUP3 ADD SWAP1 POP SWAP2 SWAP1 POP JUMP JUMPDEST PUSH0 PUSH1 0x20 DUP3 ADD SWAP1 POP DUP2 DUP2 SUB PUSH0 DUP4 ADD MSTORE PUSH2 0x24DF DUP2 PUSH2 0x24A6 JUMP JUMPDEST SWAP1 POP SWAP2 SWAP1 POP JUMP JUMPDEST PUSH32 0x5265656E7472616E637947756172643A207265656E7472616E742063616C6C00 PUSH0 DUP3 ADD MSTORE POP JUMP JUMPDEST PUSH0 PUSH2 0x251A PUSH1 0x1F DUP4 PUSH2 0x16B2 JUMP JUMPDEST SWAP2 POP PUSH2 0x2525 DUP3 PUSH2 0x24E6 JUMP JUMPDEST PUSH1 0x20 DUP3 ADD SWAP1 POP SWAP2 SWAP1 POP JUMP JUMPDEST PUSH0 PUSH1 0x20 DUP3 ADD SWAP1 POP DUP2 DUP2 SUB PUSH0 DUP4 ADD MSTORE PUSH2 0x2547 DUP2 PUSH2 0x250E JUMP JUMPDEST SWAP1 POP SWAP2 SWAP1 POP JUMP JUMPDEST PUSH32 0x4E487B7100000000000000000000000000000000000000000000000000000000 PUSH0 MSTORE PUSH1 0x32 PUSH1 0x4 MSTORE PUSH1 0x24 PUSH0 REVERT JUMPDEST PUSH32 0x4E487B7100000000000000000000000000000000000000000000000000000000 PUSH0 MSTORE PUSH1 0x31 PUSH1 0x4 MSTORE PUSH1 0x24 PUSH0 REVERT JUMPDEST PUSH0 PUSH2 0x25B2 DUP3 PUSH2 0x15E3 JUMP JUMPDEST SWAP2 POP PUSH32 0xFFFFFFFFFFFFFFFFFFFFFFFFFFFFFFFFFFFFFFFFFFFFFFFFFFFFFFFFFFFFFFFF DUP3 SUB PUSH2 0x25E4 JUMPI PUSH2 0x25E3 PUSH2 0x1D18 JUMP JUMPDEST JUMPDEST PUSH1 0x1 DUP3 ADD SWAP1 POP SWAP2 SWAP1 POP JUMP JUMPDEST PUSH32 0x5061757361626C653A206E6F7420706175736564000000000000000000000000 PUSH0 DUP3 ADD MSTORE POP JUMP JUMPDEST PUSH0 PUSH2 0x2623 PUSH1 0x14 DUP4 PUSH2 0x16B2 JUMP JUMPDEST SWAP2 POP PUSH2 0x262E DUP3 PUSH2 0x25EF JUMP JUMPDEST PUSH1 0x20 DUP3 ADD SWAP1 POP SWAP2 SWAP1 POP JUMP JUMPDEST PUSH0 PUSH1 0x20 DUP3 ADD SWAP1 POP DUP2 DUP2 SUB PUSH0 DUP4 ADD MSTORE PUSH2 0x2650 DUP2 PUSH2 0x2617 JUMP JUMPDEST SWAP1 POP SWAP2 SWAP1 POP JUMP INVALID LOG2 PUSH5 0x6970667358 0x22 SLT KECCAK256 MULMOD CREATE2 0xD1 LOG0 JUMP 0xF9 0xBC 0xAA RETURNDATACOPY 0xC7 0x23 0x21 0xF8 DUP13 PUSH7 0xCA8675AC2D7428 TIMESTAMP 0x2C 0xF6 LOG3 0xAD 0xFC BLOBBASEFEE 0xC9 0xBC BLOCKHASH PUSH5 0x736F6C6343 STOP ADDMOD SHL STOP CALLER "
				},
				"gasEstimates": {
					"creation": {
						"codeDepositCost": "1973800",
						"executionCost": "infinite",
						"totalCost": "infinite"
					},
					"external": {
						"getOwnerTokens(address)": "infinite",
						"getTokenURI(uint256)": "infinite",
						"listNFT(uint256,uint256)": "infinite",
						"listings(uint256)": "infinite",
						"mint(string)": "infinite",
						"nfts(uint256)": "infinite",
						"owner()": "2581",
						"ownerTokens(address,uint256)": "infinite",
						"pause()": "infinite",
						"paused()": "2562",
						"purchaseNFT(uint256)": "infinite",
						"renounceOwnership()": "infinite",
						"totalSupply()": "2471",
						"transferOwnership(address)": "infinite",
						"unpause()": "infinite"
					},
					"internal": {
						"_incrementTotalSupply()": "24363",
						"_isNotEmptyString(string memory)": "infinite",
						"_removeTokenFromOwner(address,uint256)": "infinite",
						"_setTotalSupply(uint256)": "infinite"
					}
				},
				"methodIdentifiers": {
					"getOwnerTokens(address)": "d63d4af0",
					"getTokenURI(uint256)": "3bb3a24d",
					"listNFT(uint256,uint256)": "94383f14",
					"listings(uint256)": "de74e57b",
					"mint(string)": "d85d3d27",
					"nfts(uint256)": "265aa621",
					"owner()": "8da5cb5b",
					"ownerTokens(address,uint256)": "28b60031",
					"pause()": "8456cb59",
					"paused()": "5c975abb",
					"purchaseNFT(uint256)": "150bde03",
					"renounceOwnership()": "715018a6",
					"totalSupply()": "18160ddd",
					"transferOwnership(address)": "f2fde38b",
					"unpause()": "3f4ba83a"
				}
			},
			"storageLayout": {
				"storage": [
					{
						"astId": 8,
						"contract": "CrNFTMarketPlace/contracts/CRNFTMarketplace.sol:NFTMarketplace",
						"label": "_owner",
						"offset": 0,
						"slot": "0",
						"type": "t_address"
					},
					{
						"astId": 266,
						"contract": "CrNFTMarketPlace/contracts/CRNFTMarketplace.sol:NFTMarketplace",
						"label": "_status",
						"offset": 0,
						"slot": "1",
						"type": "t_uint256"
					},
					{
						"astId": 165,
						"contract": "CrNFTMarketPlace/contracts/CRNFTMarketplace.sol:NFTMarketplace",
						"label": "_paused",
						"offset": 0,
						"slot": "2",
						"type": "t_bool"
					},
					{
						"astId": 363,
						"contract": "CrNFTMarketPlace/contracts/CRNFTMarketplace.sol:NFTMarketplace",
						"label": "fee",
						"offset": 0,
						"slot": "3",
						"type": "t_uint256"
					},
					{
						"astId": 405,
						"contract": "CrNFTMarketPlace/contracts/CRNFTMarketplace.sol:NFTMarketplace",
						"label": "totalSupply",
						"offset": 0,
						"slot": "4",
						"type": "t_uint256"
					},
					{
						"astId": 410,
						"contract": "CrNFTMarketPlace/contracts/CRNFTMarketplace.sol:NFTMarketplace",
						"label": "nfts",
						"offset": 0,
						"slot": "5",
						"type": "t_mapping(t_uint256,t_struct(NFT)396_storage)"
					},
					{
						"astId": 415,
						"contract": "CrNFTMarketPlace/contracts/CRNFTMarketplace.sol:NFTMarketplace",
						"label": "listings",
						"offset": 0,
						"slot": "6",
						"type": "t_mapping(t_uint256,t_struct(Listing)403_storage)"
					},
					{
						"astId": 420,
						"contract": "CrNFTMarketPlace/contracts/CRNFTMarketplace.sol:NFTMarketplace",
						"label": "ownerTokens",
						"offset": 0,
						"slot": "7",
						"type": "t_mapping(t_address,t_array(t_uint256)dyn_storage)"
					},
					{
						"astId": 424,
						"contract": "CrNFTMarketPlace/contracts/CRNFTMarketplace.sol:NFTMarketplace",
						"label": "_tokenURIExists",
						"offset": 0,
						"slot": "8",
						"type": "t_mapping(t_bytes32,t_bool)"
					}
				],
				"types": {
					"t_address": {
						"encoding": "inplace",
						"label": "address",
						"numberOfBytes": "20"
					},
					"t_array(t_uint256)dyn_storage": {
						"base": "t_uint256",
						"encoding": "dynamic_array",
						"label": "uint256[]",
						"numberOfBytes": "32"
					},
					"t_bool": {
						"encoding": "inplace",
						"label": "bool",
						"numberOfBytes": "1"
					},
					"t_bytes32": {
						"encoding": "inplace",
						"label": "bytes32",
						"numberOfBytes": "32"
					},
					"t_mapping(t_address,t_array(t_uint256)dyn_storage)": {
						"encoding": "mapping",
						"key": "t_address",
						"label": "mapping(address => uint256[])",
						"numberOfBytes": "32",
						"value": "t_array(t_uint256)dyn_storage"
					},
					"t_mapping(t_bytes32,t_bool)": {
						"encoding": "mapping",
						"key": "t_bytes32",
						"label": "mapping(bytes32 => bool)",
						"numberOfBytes": "32",
						"value": "t_bool"
					},
					"t_mapping(t_uint256,t_struct(Listing)403_storage)": {
						"encoding": "mapping",
						"key": "t_uint256",
						"label": "mapping(uint256 => struct NFTMarketplace.Listing)",
						"numberOfBytes": "32",
						"value": "t_struct(Listing)403_storage"
					},
					"t_mapping(t_uint256,t_struct(NFT)396_storage)": {
						"encoding": "mapping",
						"key": "t_uint256",
						"label": "mapping(uint256 => struct NFTMarketplace.NFT)",
						"numberOfBytes": "32",
						"value": "t_struct(NFT)396_storage"
					},
					"t_string_storage": {
						"encoding": "bytes",
						"label": "string",
						"numberOfBytes": "32"
					},
					"t_struct(Listing)403_storage": {
						"encoding": "inplace",
						"label": "struct NFTMarketplace.Listing",
						"members": [
							{
								"astId": 398,
								"contract": "CrNFTMarketPlace/contracts/CRNFTMarketplace.sol:NFTMarketplace",
								"label": "price",
								"offset": 0,
								"slot": "0",
								"type": "t_uint256"
							},
							{
								"astId": 400,
								"contract": "CrNFTMarketPlace/contracts/CRNFTMarketplace.sol:NFTMarketplace",
								"label": "seller",
								"offset": 0,
								"slot": "1",
								"type": "t_address"
							},
							{
								"astId": 402,
								"contract": "CrNFTMarketPlace/contracts/CRNFTMarketplace.sol:NFTMarketplace",
								"label": "active",
								"offset": 20,
								"slot": "1",
								"type": "t_bool"
							}
						],
						"numberOfBytes": "64"
					},
					"t_struct(NFT)396_storage": {
						"encoding": "inplace",
						"label": "struct NFTMarketplace.NFT",
						"members": [
							{
								"astId": 391,
								"contract": "CrNFTMarketPlace/contracts/CRNFTMarketplace.sol:NFTMarketplace",
								"label": "tokenId",
								"offset": 0,
								"slot": "0",
								"type": "t_uint256"
							},
							{
								"astId": 393,
								"contract": "CrNFTMarketPlace/contracts/CRNFTMarketplace.sol:NFTMarketplace",
								"label": "owner",
								"offset": 0,
								"slot": "1",
								"type": "t_address"
							},
							{
								"astId": 395,
								"contract": "CrNFTMarketPlace/contracts/CRNFTMarketplace.sol:NFTMarketplace",
								"label": "tokenURI",
								"offset": 0,
								"slot": "2",
								"type": "t_string_storage"
							}
						],
						"numberOfBytes": "96"
					},
					"t_uint256": {
						"encoding": "inplace",
						"label": "uint256",
						"numberOfBytes": "32"
					}
				}
			},
			"userdoc": {
				"kind": "user",
				"methods": {},
				"version": 1
			}
		}
	}
}