{
	"CrNFTMarketPlace/contracts/CrNFTMarketPlace.sol": {
		"CrNFTMarketPlace": {
			"abi": [
				{
					"inputs": [
						{
							"internalType": "uint256",
							"name": "_fee",
							"type": "uint256"
						}
					],
					"stateMutability": "nonpayable",
					"type": "constructor"
				},
				{
					"anonymous": false,
					"inputs": [
						{
							"indexed": true,
							"internalType": "address",
							"name": "seller",
							"type": "address"
						},
						{
							"indexed": false,
							"internalType": "uint256",
							"name": "minPrice",
							"type": "uint256"
						}
					],
					"name": "NFTAuctioned",
					"type": "event"
				},
				{
					"anonymous": false,
					"inputs": [
						{
							"indexed": true,
							"internalType": "address",
							"name": "owner",
							"type": "address"
						},
						{
							"indexed": false,
							"internalType": "uint256",
							"name": "price",
							"type": "uint256"
						}
					],
					"name": "NFTListed",
					"type": "event"
				},
				{
					"anonymous": false,
					"inputs": [
						{
							"indexed": true,
							"internalType": "address",
							"name": "buyer",
							"type": "address"
						},
						{
							"indexed": true,
							"internalType": "address",
							"name": "seller",
							"type": "address"
						},
						{
							"indexed": false,
							"internalType": "uint256",
							"name": "price",
							"type": "uint256"
						}
					],
					"name": "NFTSold",
					"type": "event"
				},
				{
					"anonymous": false,
					"inputs": [
						{
							"indexed": true,
							"internalType": "address",
							"name": "nftOwner",
							"type": "address"
						},
						{
							"indexed": false,
							"internalType": "bool",
							"name": "isForSale",
							"type": "bool"
						}
					],
					"name": "NFTStateChanged",
					"type": "event"
				},
				{
					"inputs": [
						{
							"internalType": "uint256",
							"name": "minPrice",
							"type": "uint256"
						}
					],
					"name": "auctionNFT",
					"outputs": [],
					"stateMutability": "nonpayable",
					"type": "function"
				},
				{
					"inputs": [
						{
							"internalType": "address",
							"name": "nftAddress",
							"type": "address"
						}
					],
					"name": "buyNFT",
					"outputs": [],
					"stateMutability": "payable",
					"type": "function"
				},
				{
					"inputs": [
						{
							"internalType": "uint256",
							"name": "newPrice",
							"type": "uint256"
						}
					],
					"name": "changeNFTPrice",
					"outputs": [],
					"stateMutability": "nonpayable",
					"type": "function"
				},
				{
					"inputs": [
						{
							"internalType": "bool",
							"name": "_isForSale",
							"type": "bool"
						}
					],
					"name": "changeState",
					"outputs": [],
					"stateMutability": "nonpayable",
					"type": "function"
				},
				{
					"inputs": [],
					"name": "fee",
					"outputs": [
						{
							"internalType": "uint256",
							"name": "",
							"type": "uint256"
						}
					],
					"stateMutability": "view",
					"type": "function"
				},
				{
					"inputs": [
						{
							"internalType": "uint256",
							"name": "price",
							"type": "uint256"
						}
					],
					"name": "listNFT",
					"outputs": [],
					"stateMutability": "nonpayable",
					"type": "function"
				},
				{
					"inputs": [
						{
							"internalType": "uint256",
							"name": "",
							"type": "uint256"
						}
					],
					"name": "nftPrices",
					"outputs": [
						{
							"internalType": "address",
							"name": "owner",
							"type": "address"
						},
						{
							"internalType": "uint256",
							"name": "price",
							"type": "uint256"
						},
						{
							"internalType": "bool",
							"name": "isForSale",
							"type": "bool"
						}
					],
					"stateMutability": "view",
					"type": "function"
				},
				{
					"inputs": [
						{
							"internalType": "address",
							"name": "",
							"type": "address"
						}
					],
					"name": "nfts",
					"outputs": [
						{
							"internalType": "address",
							"name": "owner",
							"type": "address"
						},
						{
							"internalType": "uint256",
							"name": "price",
							"type": "uint256"
						},
						{
							"internalType": "bool",
							"name": "isForSale",
							"type": "bool"
						}
					],
					"stateMutability": "view",
					"type": "function"
				},
				{
					"inputs": [],
					"name": "owner",
					"outputs": [
						{
							"internalType": "address",
							"name": "",
							"type": "address"
						}
					],
					"stateMutability": "view",
					"type": "function"
				},
				{
					"inputs": [
						{
							"internalType": "address",
							"name": "buyer",
							"type": "address"
						}
					],
					"name": "sellNFT",
					"outputs": [],
					"stateMutability": "payable",
					"type": "function"
				},
				{
					"inputs": [],
					"name": "withdraw",
					"outputs": [],
					"stateMutability": "nonpayable",
					"type": "function"
				}
			],
			"devdoc": {
				"kind": "dev",
				"methods": {},
				"version": 1
			},
			"evm": {
				"assembly": "    /* \"CrNFTMarketPlace/contracts/CrNFTMarketPlace.sol\":615:4437  contract CrNFTMarketPlace {... */\n  mstore(0x40, 0x80)\n    /* \"CrNFTMarketPlace/contracts/CrNFTMarketPlace.sol\":1995:2076  constructor(uint256 _fee) {... */\n  callvalue\n  dup1\n  iszero\n  tag_1\n  jumpi\n  revert(0x00, 0x00)\ntag_1:\n  pop\n  mload(0x40)\n  sub(codesize, bytecodeSize)\n  dup1\n  bytecodeSize\n  dup4\n  codecopy\n  dup2\n  dup2\n  add\n  0x40\n  mstore\n  dup2\n  add\n  swap1\n  tag_2\n  swap2\n  swap1\n  tag_3\n  jump\t// in\ntag_2:\n    /* \"CrNFTMarketPlace/contracts/CrNFTMarketPlace.sol\":2039:2049  msg.sender */\n  caller\n    /* \"CrNFTMarketPlace/contracts/CrNFTMarketPlace.sol\":2031:2036  owner */\n  0x02\n  0x00\n    /* \"CrNFTMarketPlace/contracts/CrNFTMarketPlace.sol\":2031:2049  owner = msg.sender */\n  0x0100\n  exp\n  dup2\n  sload\n  dup2\n  0xffffffffffffffffffffffffffffffffffffffff\n  mul\n  not\n  and\n  swap1\n  dup4\n  0xffffffffffffffffffffffffffffffffffffffff\n  and\n  mul\n  or\n  swap1\n  sstore\n  pop\n    /* \"CrNFTMarketPlace/contracts/CrNFTMarketPlace.sol\":2065:2069  _fee */\n  dup1\n    /* \"CrNFTMarketPlace/contracts/CrNFTMarketPlace.sol\":2059:2062  fee */\n  0x03\n    /* \"CrNFTMarketPlace/contracts/CrNFTMarketPlace.sol\":2059:2069  fee = _fee */\n  dup2\n  swap1\n  sstore\n  pop\n    /* \"CrNFTMarketPlace/contracts/CrNFTMarketPlace.sol\":1995:2076  constructor(uint256 _fee) {... */\n  pop\n    /* \"CrNFTMarketPlace/contracts/CrNFTMarketPlace.sol\":615:4437  contract CrNFTMarketPlace {... */\n  jump(tag_6)\n    /* \"#utility.yul\":88:205   */\ntag_8:\n    /* \"#utility.yul\":197:198   */\n  0x00\n    /* \"#utility.yul\":194:195   */\n  0x00\n    /* \"#utility.yul\":187:199   */\n  revert\n    /* \"#utility.yul\":334:411   */\ntag_10:\n    /* \"#utility.yul\":371:378   */\n  0x00\n    /* \"#utility.yul\":400:405   */\n  dup2\n    /* \"#utility.yul\":389:405   */\n  swap1\n  pop\n    /* \"#utility.yul\":334:411   */\n  swap2\n  swap1\n  pop\n  jump\t// out\n    /* \"#utility.yul\":417:539   */\ntag_11:\n    /* \"#utility.yul\":490:514   */\n  tag_19\n    /* \"#utility.yul\":508:513   */\n  dup2\n    /* \"#utility.yul\":490:514   */\n  tag_10\n  jump\t// in\ntag_19:\n    /* \"#utility.yul\":483:488   */\n  dup2\n    /* \"#utility.yul\":480:515   */\n  eq\n    /* \"#utility.yul\":470:533   */\n  tag_20\n  jumpi\n    /* \"#utility.yul\":529:530   */\n  0x00\n    /* \"#utility.yul\":526:527   */\n  0x00\n    /* \"#utility.yul\":519:531   */\n  revert\n    /* \"#utility.yul\":470:533   */\ntag_20:\n    /* \"#utility.yul\":417:539   */\n  pop\n  jump\t// out\n    /* \"#utility.yul\":545:688   */\ntag_12:\n    /* \"#utility.yul\":602:607   */\n  0x00\n    /* \"#utility.yul\":633:639   */\n  dup2\n    /* \"#utility.yul\":627:640   */\n  mload\n    /* \"#utility.yul\":618:640   */\n  swap1\n  pop\n    /* \"#utility.yul\":649:682   */\n  tag_22\n    /* \"#utility.yul\":676:681   */\n  dup2\n    /* \"#utility.yul\":649:682   */\n  tag_11\n  jump\t// in\ntag_22:\n    /* \"#utility.yul\":545:688   */\n  swap3\n  swap2\n  pop\n  pop\n  jump\t// out\n    /* \"#utility.yul\":694:1045   */\ntag_3:\n    /* \"#utility.yul\":764:770   */\n  0x00\n    /* \"#utility.yul\":813:815   */\n  0x20\n    /* \"#utility.yul\":801:810   */\n  dup3\n    /* \"#utility.yul\":792:799   */\n  dup5\n    /* \"#utility.yul\":788:811   */\n  sub\n    /* \"#utility.yul\":784:816   */\n  slt\n    /* \"#utility.yul\":781:900   */\n  iszero\n  tag_24\n  jumpi\n    /* \"#utility.yul\":819:898   */\n  tag_25\n  tag_8\n  jump\t// in\ntag_25:\n    /* \"#utility.yul\":781:900   */\ntag_24:\n    /* \"#utility.yul\":939:940   */\n  0x00\n    /* \"#utility.yul\":964:1028   */\n  tag_26\n    /* \"#utility.yul\":1020:1027   */\n  dup5\n    /* \"#utility.yul\":1011:1017   */\n  dup3\n    /* \"#utility.yul\":1000:1009   */\n  dup6\n    /* \"#utility.yul\":996:1018   */\n  add\n    /* \"#utility.yul\":964:1028   */\n  tag_12\n  jump\t// in\ntag_26:\n    /* \"#utility.yul\":954:1028   */\n  swap2\n  pop\n    /* \"#utility.yul\":910:1038   */\n  pop\n    /* \"#utility.yul\":694:1045   */\n  swap3\n  swap2\n  pop\n  pop\n  jump\t// out\n    /* \"CrNFTMarketPlace/contracts/CrNFTMarketPlace.sol\":615:4437  contract CrNFTMarketPlace {... */\ntag_6:\n  dataSize(sub_0)\n  dup1\n  dataOffset(sub_0)\n  0x00\n  codecopy\n  0x00\n  return\nstop\n\nsub_0: assembly {\n        /* \"CrNFTMarketPlace/contracts/CrNFTMarketPlace.sol\":615:4437  contract CrNFTMarketPlace {... */\n      mstore(0x40, 0x80)\n      jumpi(tag_1, lt(calldatasize, 0x04))\n      shr(0xe0, calldataload(0x00))\n      dup1\n      0xba79b564\n      gt\n      tag_13\n      jumpi\n      dup1\n      0xba79b564\n      eq\n      tag_7\n      jumpi\n      dup1\n      0xd076f13f\n      eq\n      tag_8\n      jumpi\n      dup1\n      0xd3f790d1\n      eq\n      tag_9\n      jumpi\n      dup1\n      0xd9f10a2b\n      eq\n      tag_10\n      jumpi\n      dup1\n      0xddca3f43\n      eq\n      tag_11\n      jumpi\n      dup1\n      0xedc4400a\n      eq\n      tag_12\n      jumpi\n      jump(tag_1)\n    tag_13:\n      dup1\n      0x1deb0a8f\n      eq\n      tag_2\n      jumpi\n      dup1\n      0x2a1236cb\n      eq\n      tag_3\n      jumpi\n      dup1\n      0x3ccfd60b\n      eq\n      tag_4\n      jumpi\n      dup1\n      0x599db0f8\n      eq\n      tag_5\n      jumpi\n      dup1\n      0x8da5cb5b\n      eq\n      tag_6\n      jumpi\n    tag_1:\n      revert(0x00, 0x00)\n        /* \"CrNFTMarketPlace/contracts/CrNFTMarketPlace.sol\":2515:2770  function changeState(bool _isForSale) public {... */\n    tag_2:\n      callvalue\n      dup1\n      iszero\n      tag_14\n      jumpi\n      revert(0x00, 0x00)\n    tag_14:\n      pop\n      tag_15\n      0x04\n      dup1\n      calldatasize\n      sub\n      dup2\n      add\n      swap1\n      tag_16\n      swap2\n      swap1\n      tag_17\n      jump\t// in\n    tag_16:\n      tag_18\n      jump\t// in\n    tag_15:\n      stop\n        /* \"CrNFTMarketPlace/contracts/CrNFTMarketPlace.sol\":3789:4022  function auctionNFT(uint256 minPrice) public {... */\n    tag_3:\n      callvalue\n      dup1\n      iszero\n      tag_19\n      jumpi\n      revert(0x00, 0x00)\n    tag_19:\n      pop\n      tag_20\n      0x04\n      dup1\n      calldatasize\n      sub\n      dup2\n      add\n      swap1\n      tag_21\n      swap2\n      swap1\n      tag_22\n      jump\t// in\n    tag_21:\n      tag_23\n      jump\t// in\n    tag_20:\n      stop\n        /* \"CrNFTMarketPlace/contracts/CrNFTMarketPlace.sol\":4335:4435  function withdraw() public onlyOwner {... */\n    tag_4:\n      callvalue\n      dup1\n      iszero\n      tag_24\n      jumpi\n      revert(0x00, 0x00)\n    tag_24:\n      pop\n      tag_25\n      tag_26\n      jump\t// in\n    tag_25:\n      stop\n        /* \"CrNFTMarketPlace/contracts/CrNFTMarketPlace.sol\":816:851  mapping(address => NFT) public nfts */\n    tag_5:\n      callvalue\n      dup1\n      iszero\n      tag_27\n      jumpi\n      revert(0x00, 0x00)\n    tag_27:\n      pop\n      tag_28\n      0x04\n      dup1\n      calldatasize\n      sub\n      dup2\n      add\n      swap1\n      tag_29\n      swap2\n      swap1\n      tag_30\n      jump\t// in\n    tag_29:\n      tag_31\n      jump\t// in\n    tag_28:\n      mload(0x40)\n      tag_32\n      swap4\n      swap3\n      swap2\n      swap1\n      tag_33\n      jump\t// in\n    tag_32:\n      mload(0x40)\n      dup1\n      swap2\n      sub\n      swap1\n      return\n        /* \"CrNFTMarketPlace/contracts/CrNFTMarketPlace.sol\":968:988  address public owner */\n    tag_6:\n      callvalue\n      dup1\n      iszero\n      tag_34\n      jumpi\n      revert(0x00, 0x00)\n    tag_34:\n      pop\n      tag_35\n      tag_36\n      jump\t// in\n    tag_35:\n      mload(0x40)\n      tag_37\n      swap2\n      swap1\n      tag_38\n      jump\t// in\n    tag_37:\n      mload(0x40)\n      dup1\n      swap2\n      sub\n      swap1\n      return\n        /* \"CrNFTMarketPlace/contracts/CrNFTMarketPlace.sol\":3367:3690  function buyNFT(address nftAddress) public payable isForSale(nftAddress) hasEnoughFunds(nfts[nftAddress].price) {... */\n    tag_7:\n      tag_39\n      0x04\n      dup1\n      calldatasize\n      sub\n      dup2\n      add\n      swap1\n      tag_40\n      swap2\n      swap1\n      tag_30\n      jump\t// in\n    tag_40:\n      tag_41\n      jump\t// in\n    tag_39:\n      stop\n        /* \"CrNFTMarketPlace/contracts/CrNFTMarketPlace.sol\":2122:2457  function listNFT(uint256 price) public {... */\n    tag_8:\n      callvalue\n      dup1\n      iszero\n      tag_42\n      jumpi\n      revert(0x00, 0x00)\n    tag_42:\n      pop\n      tag_43\n      0x04\n      dup1\n      calldatasize\n      sub\n      dup2\n      add\n      swap1\n      tag_44\n      swap2\n      swap1\n      tag_22\n      jump\t// in\n    tag_44:\n      tag_45\n      jump\t// in\n    tag_43:\n      stop\n        /* \"CrNFTMarketPlace/contracts/CrNFTMarketPlace.sol\":2807:3331  function sellNFT(address buyer) public payable isForSale(msg.sender) hasEnoughFunds(nfts[msg.sender].price) {... */\n    tag_9:\n      tag_46\n      0x04\n      dup1\n      calldatasize\n      sub\n      dup2\n      add\n      swap1\n      tag_47\n      swap2\n      swap1\n      tag_30\n      jump\t// in\n    tag_47:\n      tag_48\n      jump\t// in\n    tag_46:\n      stop\n        /* \"CrNFTMarketPlace/contracts/CrNFTMarketPlace.sol\":898:938  mapping(uint256 => NFT) public nftPrices */\n    tag_10:\n      callvalue\n      dup1\n      iszero\n      tag_49\n      jumpi\n      revert(0x00, 0x00)\n    tag_49:\n      pop\n      tag_50\n      0x04\n      dup1\n      calldatasize\n      sub\n      dup2\n      add\n      swap1\n      tag_51\n      swap2\n      swap1\n      tag_22\n      jump\t// in\n    tag_51:\n      tag_52\n      jump\t// in\n    tag_50:\n      mload(0x40)\n      tag_53\n      swap4\n      swap3\n      swap2\n      swap1\n      tag_33\n      jump\t// in\n    tag_53:\n      mload(0x40)\n      dup1\n      swap2\n      sub\n      swap1\n      return\n        /* \"CrNFTMarketPlace/contracts/CrNFTMarketPlace.sol\":994:1012  uint256 public fee */\n    tag_11:\n      callvalue\n      dup1\n      iszero\n      tag_54\n      jumpi\n      revert(0x00, 0x00)\n    tag_54:\n      pop\n      tag_55\n      tag_56\n      jump\t// in\n    tag_55:\n      mload(0x40)\n      tag_57\n      swap2\n      swap1\n      tag_58\n      jump\t// in\n    tag_57:\n      mload(0x40)\n      dup1\n      swap2\n      sub\n      swap1\n      return\n        /* \"CrNFTMarketPlace/contracts/CrNFTMarketPlace.sol\":4074:4272  function changeNFTPrice(uint256 newPrice) public {... */\n    tag_12:\n      callvalue\n      dup1\n      iszero\n      tag_59\n      jumpi\n      revert(0x00, 0x00)\n    tag_59:\n      pop\n      tag_60\n      0x04\n      dup1\n      calldatasize\n      sub\n      dup2\n      add\n      swap1\n      tag_61\n      swap2\n      swap1\n      tag_22\n      jump\t// in\n    tag_61:\n      tag_62\n      jump\t// in\n    tag_60:\n      stop\n        /* \"CrNFTMarketPlace/contracts/CrNFTMarketPlace.sol\":2515:2770  function changeState(bool _isForSale) public {... */\n    tag_18:\n        /* \"CrNFTMarketPlace/contracts/CrNFTMarketPlace.sol\":2604:2614  msg.sender */\n      caller\n        /* \"CrNFTMarketPlace/contracts/CrNFTMarketPlace.sol\":2578:2614  nfts[msg.sender].owner == msg.sender */\n      0xffffffffffffffffffffffffffffffffffffffff\n      and\n        /* \"CrNFTMarketPlace/contracts/CrNFTMarketPlace.sol\":2578:2582  nfts */\n      0x00\n        /* \"CrNFTMarketPlace/contracts/CrNFTMarketPlace.sol\":2578:2594  nfts[msg.sender] */\n      0x00\n        /* \"CrNFTMarketPlace/contracts/CrNFTMarketPlace.sol\":2583:2593  msg.sender */\n      caller\n        /* \"CrNFTMarketPlace/contracts/CrNFTMarketPlace.sol\":2578:2594  nfts[msg.sender] */\n      0xffffffffffffffffffffffffffffffffffffffff\n      and\n      0xffffffffffffffffffffffffffffffffffffffff\n      and\n      dup2\n      mstore\n      0x20\n      add\n      swap1\n      dup2\n      mstore\n      0x20\n      add\n      0x00\n      keccak256\n        /* \"CrNFTMarketPlace/contracts/CrNFTMarketPlace.sol\":2578:2600  nfts[msg.sender].owner */\n      0x00\n      add\n      0x00\n      swap1\n      sload\n      swap1\n      0x0100\n      exp\n      swap1\n      div\n      0xffffffffffffffffffffffffffffffffffffffff\n      and\n        /* \"CrNFTMarketPlace/contracts/CrNFTMarketPlace.sol\":2578:2614  nfts[msg.sender].owner == msg.sender */\n      0xffffffffffffffffffffffffffffffffffffffff\n      and\n      eq\n        /* \"CrNFTMarketPlace/contracts/CrNFTMarketPlace.sol\":2570:2658  require(nfts[msg.sender].owner == msg.sender, \"Only the NFT owner can change its state\") */\n      tag_64\n      jumpi\n      mload(0x40)\n      0x08c379a000000000000000000000000000000000000000000000000000000000\n      dup2\n      mstore\n      0x04\n      add\n      tag_65\n      swap1\n      tag_66\n      jump\t// in\n    tag_65:\n      mload(0x40)\n      dup1\n      swap2\n      sub\n      swap1\n      revert\n    tag_64:\n        /* \"CrNFTMarketPlace/contracts/CrNFTMarketPlace.sol\":2698:2708  _isForSale */\n      dup1\n        /* \"CrNFTMarketPlace/contracts/CrNFTMarketPlace.sol\":2669:2673  nfts */\n      0x00\n        /* \"CrNFTMarketPlace/contracts/CrNFTMarketPlace.sol\":2669:2685  nfts[msg.sender] */\n      0x00\n        /* \"CrNFTMarketPlace/contracts/CrNFTMarketPlace.sol\":2674:2684  msg.sender */\n      caller\n        /* \"CrNFTMarketPlace/contracts/CrNFTMarketPlace.sol\":2669:2685  nfts[msg.sender] */\n      0xffffffffffffffffffffffffffffffffffffffff\n      and\n      0xffffffffffffffffffffffffffffffffffffffff\n      and\n      dup2\n      mstore\n      0x20\n      add\n      swap1\n      dup2\n      mstore\n      0x20\n      add\n      0x00\n      keccak256\n        /* \"CrNFTMarketPlace/contracts/CrNFTMarketPlace.sol\":2669:2695  nfts[msg.sender].isForSale */\n      0x02\n      add\n      0x00\n        /* \"CrNFTMarketPlace/contracts/CrNFTMarketPlace.sol\":2669:2708  nfts[msg.sender].isForSale = _isForSale */\n      0x0100\n      exp\n      dup2\n      sload\n      dup2\n      0xff\n      mul\n      not\n      and\n      swap1\n      dup4\n      iszero\n      iszero\n      mul\n      or\n      swap1\n      sstore\n      pop\n        /* \"CrNFTMarketPlace/contracts/CrNFTMarketPlace.sol\":2740:2750  msg.sender */\n      caller\n        /* \"CrNFTMarketPlace/contracts/CrNFTMarketPlace.sol\":2724:2763  NFTStateChanged(msg.sender, _isForSale) */\n      0xffffffffffffffffffffffffffffffffffffffff\n      and\n      0x70ef3845ba68086e52ce242eadb7f59e1c1fab1f45b808e24928a0e993ec7760\n        /* \"CrNFTMarketPlace/contracts/CrNFTMarketPlace.sol\":2752:2762  _isForSale */\n      dup3\n        /* \"CrNFTMarketPlace/contracts/CrNFTMarketPlace.sol\":2724:2763  NFTStateChanged(msg.sender, _isForSale) */\n      mload(0x40)\n      tag_67\n      swap2\n      swap1\n      tag_68\n      jump\t// in\n    tag_67:\n      mload(0x40)\n      dup1\n      swap2\n      sub\n      swap1\n      log2\n        /* \"CrNFTMarketPlace/contracts/CrNFTMarketPlace.sol\":2515:2770  function changeState(bool _isForSale) public {... */\n      pop\n      jump\t// out\n        /* \"CrNFTMarketPlace/contracts/CrNFTMarketPlace.sol\":3789:4022  function auctionNFT(uint256 minPrice) public {... */\n    tag_23:\n        /* \"CrNFTMarketPlace/contracts/CrNFTMarketPlace.sol\":3878:3888  msg.sender */\n      caller\n        /* \"CrNFTMarketPlace/contracts/CrNFTMarketPlace.sol\":3852:3888  nfts[msg.sender].owner == msg.sender */\n      0xffffffffffffffffffffffffffffffffffffffff\n      and\n        /* \"CrNFTMarketPlace/contracts/CrNFTMarketPlace.sol\":3852:3856  nfts */\n      0x00\n        /* \"CrNFTMarketPlace/contracts/CrNFTMarketPlace.sol\":3852:3868  nfts[msg.sender] */\n      0x00\n        /* \"CrNFTMarketPlace/contracts/CrNFTMarketPlace.sol\":3857:3867  msg.sender */\n      caller\n        /* \"CrNFTMarketPlace/contracts/CrNFTMarketPlace.sol\":3852:3868  nfts[msg.sender] */\n      0xffffffffffffffffffffffffffffffffffffffff\n      and\n      0xffffffffffffffffffffffffffffffffffffffff\n      and\n      dup2\n      mstore\n      0x20\n      add\n      swap1\n      dup2\n      mstore\n      0x20\n      add\n      0x00\n      keccak256\n        /* \"CrNFTMarketPlace/contracts/CrNFTMarketPlace.sol\":3852:3874  nfts[msg.sender].owner */\n      0x00\n      add\n      0x00\n      swap1\n      sload\n      swap1\n      0x0100\n      exp\n      swap1\n      div\n      0xffffffffffffffffffffffffffffffffffffffff\n      and\n        /* \"CrNFTMarketPlace/contracts/CrNFTMarketPlace.sol\":3852:3888  nfts[msg.sender].owner == msg.sender */\n      0xffffffffffffffffffffffffffffffffffffffff\n      and\n      eq\n        /* \"CrNFTMarketPlace/contracts/CrNFTMarketPlace.sol\":3844:3916  require(nfts[msg.sender].owner == msg.sender, \"You do not own this NFT\") */\n      tag_70\n      jumpi\n      mload(0x40)\n      0x08c379a000000000000000000000000000000000000000000000000000000000\n      dup2\n      mstore\n      0x04\n      add\n      tag_71\n      swap1\n      tag_72\n      jump\t// in\n    tag_71:\n      mload(0x40)\n      dup1\n      swap2\n      sub\n      swap1\n      revert\n    tag_70:\n        /* \"CrNFTMarketPlace/contracts/CrNFTMarketPlace.sol\":3945:3955  msg.sender */\n      caller\n        /* \"CrNFTMarketPlace/contracts/CrNFTMarketPlace.sol\":3932:3966  NFTAuctioned(msg.sender, minPrice) */\n      0xffffffffffffffffffffffffffffffffffffffff\n      and\n      0x5c81d809b788873b136dc4f466964730ba9e25004fa953c321ccbcaf64560b56\n        /* \"CrNFTMarketPlace/contracts/CrNFTMarketPlace.sol\":3957:3965  minPrice */\n      dup3\n        /* \"CrNFTMarketPlace/contracts/CrNFTMarketPlace.sol\":3932:3966  NFTAuctioned(msg.sender, minPrice) */\n      mload(0x40)\n      tag_73\n      swap2\n      swap1\n      tag_58\n      jump\t// in\n    tag_73:\n      mload(0x40)\n      dup1\n      swap2\n      sub\n      swap1\n      log2\n        /* \"CrNFTMarketPlace/contracts/CrNFTMarketPlace.sol\":3789:4022  function auctionNFT(uint256 minPrice) public {... */\n      pop\n      jump\t// out\n        /* \"CrNFTMarketPlace/contracts/CrNFTMarketPlace.sol\":4335:4435  function withdraw() public onlyOwner {... */\n    tag_26:\n        /* \"CrNFTMarketPlace/contracts/CrNFTMarketPlace.sol\":1464:1469  owner */\n      0x02\n      0x00\n      swap1\n      sload\n      swap1\n      0x0100\n      exp\n      swap1\n      div\n      0xffffffffffffffffffffffffffffffffffffffff\n      and\n        /* \"CrNFTMarketPlace/contracts/CrNFTMarketPlace.sol\":1450:1469  msg.sender == owner */\n      0xffffffffffffffffffffffffffffffffffffffff\n      and\n        /* \"CrNFTMarketPlace/contracts/CrNFTMarketPlace.sol\":1450:1460  msg.sender */\n      caller\n        /* \"CrNFTMarketPlace/contracts/CrNFTMarketPlace.sol\":1450:1469  msg.sender == owner */\n      0xffffffffffffffffffffffffffffffffffffffff\n      and\n      eq\n        /* \"CrNFTMarketPlace/contracts/CrNFTMarketPlace.sol\":1442:1508  require(msg.sender == owner, \"Only owner can perform this action\") */\n      tag_75\n      jumpi\n      mload(0x40)\n      0x08c379a000000000000000000000000000000000000000000000000000000000\n      dup2\n      mstore\n      0x04\n      add\n      tag_76\n      swap1\n      tag_77\n      jump\t// in\n    tag_76:\n      mload(0x40)\n      dup1\n      swap2\n      sub\n      swap1\n      revert\n    tag_75:\n        /* \"CrNFTMarketPlace/contracts/CrNFTMarketPlace.sol\":4390:4395  owner */\n      0x02\n      0x00\n      swap1\n      sload\n      swap1\n      0x0100\n      exp\n      swap1\n      div\n      0xffffffffffffffffffffffffffffffffffffffff\n      and\n        /* \"CrNFTMarketPlace/contracts/CrNFTMarketPlace.sol\":4382:4405  payable(owner).transfer */\n      0xffffffffffffffffffffffffffffffffffffffff\n      and\n        /* \"CrNFTMarketPlace/contracts/CrNFTMarketPlace.sol\":4382:4428  payable(owner).transfer(address(this).balance) */\n      0x08fc\n        /* \"CrNFTMarketPlace/contracts/CrNFTMarketPlace.sol\":4406:4427  address(this).balance */\n      selfbalance\n        /* \"CrNFTMarketPlace/contracts/CrNFTMarketPlace.sol\":4382:4428  payable(owner).transfer(address(this).balance) */\n      swap1\n      dup2\n      iszero\n      mul\n      swap1\n      mload(0x40)\n      0x00\n      mload(0x40)\n      dup1\n      dup4\n      sub\n      dup2\n      dup6\n      dup9\n      dup9\n      call\n      swap4\n      pop\n      pop\n      pop\n      pop\n      iszero\n      dup1\n      iszero\n      tag_80\n      jumpi\n      returndatacopy(0x00, 0x00, returndatasize)\n      revert(0x00, returndatasize)\n    tag_80:\n      pop\n        /* \"CrNFTMarketPlace/contracts/CrNFTMarketPlace.sol\":4335:4435  function withdraw() public onlyOwner {... */\n      jump\t// out\n        /* \"CrNFTMarketPlace/contracts/CrNFTMarketPlace.sol\":816:851  mapping(address => NFT) public nfts */\n    tag_31:\n      mstore(0x20, 0x00)\n      dup1\n      0x00\n      mstore\n      keccak256(0x00, 0x40)\n      0x00\n      swap2\n      pop\n      swap1\n      pop\n      dup1\n      0x00\n      add\n      0x00\n      swap1\n      sload\n      swap1\n      0x0100\n      exp\n      swap1\n      div\n      0xffffffffffffffffffffffffffffffffffffffff\n      and\n      swap1\n      dup1\n      0x01\n      add\n      sload\n      swap1\n      dup1\n      0x02\n      add\n      0x00\n      swap1\n      sload\n      swap1\n      0x0100\n      exp\n      swap1\n      div\n      0xff\n      and\n      swap1\n      pop\n      dup4\n      jump\t// out\n        /* \"CrNFTMarketPlace/contracts/CrNFTMarketPlace.sol\":968:988  address public owner */\n    tag_36:\n      0x02\n      0x00\n      swap1\n      sload\n      swap1\n      0x0100\n      exp\n      swap1\n      div\n      0xffffffffffffffffffffffffffffffffffffffff\n      and\n      dup2\n      jump\t// out\n        /* \"CrNFTMarketPlace/contracts/CrNFTMarketPlace.sol\":3367:3690  function buyNFT(address nftAddress) public payable isForSale(nftAddress) hasEnoughFunds(nfts[nftAddress].price) {... */\n    tag_41:\n        /* \"CrNFTMarketPlace/contracts/CrNFTMarketPlace.sol\":3428:3438  nftAddress */\n      dup1\n        /* \"CrNFTMarketPlace/contracts/CrNFTMarketPlace.sol\":1669:1673  true */\n      0x01\n        /* \"CrNFTMarketPlace/contracts/CrNFTMarketPlace.sol\":1639:1673  nfts[nftAddress].isForSale == true */\n      iszero\n      iszero\n        /* \"CrNFTMarketPlace/contracts/CrNFTMarketPlace.sol\":1639:1643  nfts */\n      0x00\n        /* \"CrNFTMarketPlace/contracts/CrNFTMarketPlace.sol\":1639:1655  nfts[nftAddress] */\n      0x00\n        /* \"CrNFTMarketPlace/contracts/CrNFTMarketPlace.sol\":1644:1654  nftAddress */\n      dup4\n        /* \"CrNFTMarketPlace/contracts/CrNFTMarketPlace.sol\":1639:1655  nfts[nftAddress] */\n      0xffffffffffffffffffffffffffffffffffffffff\n      and\n      0xffffffffffffffffffffffffffffffffffffffff\n      and\n      dup2\n      mstore\n      0x20\n      add\n      swap1\n      dup2\n      mstore\n      0x20\n      add\n      0x00\n      keccak256\n        /* \"CrNFTMarketPlace/contracts/CrNFTMarketPlace.sol\":1639:1665  nfts[nftAddress].isForSale */\n      0x02\n      add\n      0x00\n      swap1\n      sload\n      swap1\n      0x0100\n      exp\n      swap1\n      div\n      0xff\n      and\n        /* \"CrNFTMarketPlace/contracts/CrNFTMarketPlace.sol\":1639:1673  nfts[nftAddress].isForSale == true */\n      iszero\n      iszero\n      eq\n        /* \"CrNFTMarketPlace/contracts/CrNFTMarketPlace.sol\":1631:1697  require(nfts[nftAddress].isForSale == true, \"NFT is not for sale\") */\n      tag_82\n      jumpi\n      mload(0x40)\n      0x08c379a000000000000000000000000000000000000000000000000000000000\n      dup2\n      mstore\n      0x04\n      add\n      tag_83\n      swap1\n      tag_84\n      jump\t// in\n    tag_83:\n      mload(0x40)\n      dup1\n      swap2\n      sub\n      swap1\n      revert\n    tag_82:\n        /* \"CrNFTMarketPlace/contracts/CrNFTMarketPlace.sol\":3455:3459  nfts */\n      0x00\n        /* \"CrNFTMarketPlace/contracts/CrNFTMarketPlace.sol\":3455:3471  nfts[nftAddress] */\n      0x00\n        /* \"CrNFTMarketPlace/contracts/CrNFTMarketPlace.sol\":3460:3470  nftAddress */\n      dup4\n        /* \"CrNFTMarketPlace/contracts/CrNFTMarketPlace.sol\":3455:3471  nfts[nftAddress] */\n      0xffffffffffffffffffffffffffffffffffffffff\n      and\n      0xffffffffffffffffffffffffffffffffffffffff\n      and\n      dup2\n      mstore\n      0x20\n      add\n      swap1\n      dup2\n      mstore\n      0x20\n      add\n      0x00\n      keccak256\n        /* \"CrNFTMarketPlace/contracts/CrNFTMarketPlace.sol\":3455:3477  nfts[nftAddress].price */\n      0x01\n      add\n      sload\n        /* \"CrNFTMarketPlace/contracts/CrNFTMarketPlace.sol\":1862:1867  price */\n      dup1\n        /* \"CrNFTMarketPlace/contracts/CrNFTMarketPlace.sol\":1849:1858  msg.value */\n      callvalue\n        /* \"CrNFTMarketPlace/contracts/CrNFTMarketPlace.sol\":1849:1867  msg.value >= price */\n      lt\n      iszero\n        /* \"CrNFTMarketPlace/contracts/CrNFTMarketPlace.sol\":1841:1901  require(msg.value >= price, \"Insufficient funds to buy NFT\") */\n      tag_86\n      jumpi\n      mload(0x40)\n      0x08c379a000000000000000000000000000000000000000000000000000000000\n      dup2\n      mstore\n      0x04\n      add\n      tag_87\n      swap1\n      tag_88\n      jump\t// in\n    tag_87:\n      mload(0x40)\n      dup1\n      swap2\n      sub\n      swap1\n      revert\n    tag_86:\n        /* \"CrNFTMarketPlace/contracts/CrNFTMarketPlace.sol\":3489:3502  uint256 price */\n      0x00\n        /* \"CrNFTMarketPlace/contracts/CrNFTMarketPlace.sol\":3505:3509  nfts */\n      0x00\n        /* \"CrNFTMarketPlace/contracts/CrNFTMarketPlace.sol\":3505:3521  nfts[nftAddress] */\n      0x00\n        /* \"CrNFTMarketPlace/contracts/CrNFTMarketPlace.sol\":3510:3520  nftAddress */\n      dup6\n        /* \"CrNFTMarketPlace/contracts/CrNFTMarketPlace.sol\":3505:3521  nfts[nftAddress] */\n      0xffffffffffffffffffffffffffffffffffffffff\n      and\n      0xffffffffffffffffffffffffffffffffffffffff\n      and\n      dup2\n      mstore\n      0x20\n      add\n      swap1\n      dup2\n      mstore\n      0x20\n      add\n      0x00\n      keccak256\n        /* \"CrNFTMarketPlace/contracts/CrNFTMarketPlace.sol\":3505:3527  nfts[nftAddress].price */\n      0x01\n      add\n      sload\n        /* \"CrNFTMarketPlace/contracts/CrNFTMarketPlace.sol\":3489:3527  uint256 price = nfts[nftAddress].price */\n      swap1\n      pop\n        /* \"CrNFTMarketPlace/contracts/CrNFTMarketPlace.sol\":3591:3596  price */\n      dup1\n        /* \"CrNFTMarketPlace/contracts/CrNFTMarketPlace.sol\":3578:3587  msg.value */\n      callvalue\n        /* \"CrNFTMarketPlace/contracts/CrNFTMarketPlace.sol\":3578:3596  msg.value == price */\n      eq\n        /* \"CrNFTMarketPlace/contracts/CrNFTMarketPlace.sol\":3570:3625  require(msg.value == price, \"Incorrect currency value\") */\n      tag_90\n      jumpi\n      mload(0x40)\n      0x08c379a000000000000000000000000000000000000000000000000000000000\n      dup2\n      mstore\n      0x04\n      add\n      tag_91\n      swap1\n      tag_92\n      jump\t// in\n    tag_91:\n      mload(0x40)\n      dup1\n      swap2\n      sub\n      swap1\n      revert\n    tag_90:\n        /* \"CrNFTMarketPlace/contracts/CrNFTMarketPlace.sol\":3664:3683  sellNFT(msg.sender) */\n      tag_93\n        /* \"CrNFTMarketPlace/contracts/CrNFTMarketPlace.sol\":3672:3682  msg.sender */\n      caller\n        /* \"CrNFTMarketPlace/contracts/CrNFTMarketPlace.sol\":3664:3671  sellNFT */\n      tag_48\n        /* \"CrNFTMarketPlace/contracts/CrNFTMarketPlace.sol\":3664:3683  sellNFT(msg.sender) */\n      jump\t// in\n    tag_93:\n        /* \"CrNFTMarketPlace/contracts/CrNFTMarketPlace.sol\":3479:3690  {... */\n      pop\n        /* \"CrNFTMarketPlace/contracts/CrNFTMarketPlace.sol\":1707:1708  _ */\n      pop\n        /* \"CrNFTMarketPlace/contracts/CrNFTMarketPlace.sol\":3367:3690  function buyNFT(address nftAddress) public payable isForSale(nftAddress) hasEnoughFunds(nfts[nftAddress].price) {... */\n      pop\n      pop\n      jump\t// out\n        /* \"CrNFTMarketPlace/contracts/CrNFTMarketPlace.sol\":2122:2457  function listNFT(uint256 price) public {... */\n    tag_45:\n        /* \"CrNFTMarketPlace/contracts/CrNFTMarketPlace.sol\":2205:2215  msg.sender */\n      caller\n        /* \"CrNFTMarketPlace/contracts/CrNFTMarketPlace.sol\":2179:2215  nfts[msg.sender].owner == msg.sender */\n      0xffffffffffffffffffffffffffffffffffffffff\n      and\n        /* \"CrNFTMarketPlace/contracts/CrNFTMarketPlace.sol\":2179:2183  nfts */\n      0x00\n        /* \"CrNFTMarketPlace/contracts/CrNFTMarketPlace.sol\":2179:2195  nfts[msg.sender] */\n      0x00\n        /* \"CrNFTMarketPlace/contracts/CrNFTMarketPlace.sol\":2184:2194  msg.sender */\n      caller\n        /* \"CrNFTMarketPlace/contracts/CrNFTMarketPlace.sol\":2179:2195  nfts[msg.sender] */\n      0xffffffffffffffffffffffffffffffffffffffff\n      and\n      0xffffffffffffffffffffffffffffffffffffffff\n      and\n      dup2\n      mstore\n      0x20\n      add\n      swap1\n      dup2\n      mstore\n      0x20\n      add\n      0x00\n      keccak256\n        /* \"CrNFTMarketPlace/contracts/CrNFTMarketPlace.sol\":2179:2201  nfts[msg.sender].owner */\n      0x00\n      add\n      0x00\n      swap1\n      sload\n      swap1\n      0x0100\n      exp\n      swap1\n      div\n      0xffffffffffffffffffffffffffffffffffffffff\n      and\n        /* \"CrNFTMarketPlace/contracts/CrNFTMarketPlace.sol\":2179:2215  nfts[msg.sender].owner == msg.sender */\n      0xffffffffffffffffffffffffffffffffffffffff\n      and\n      eq\n        /* \"CrNFTMarketPlace/contracts/CrNFTMarketPlace.sol\":2171:2243  require(nfts[msg.sender].owner == msg.sender, \"You do not own this NFT\") */\n      tag_95\n      jumpi\n      mload(0x40)\n      0x08c379a000000000000000000000000000000000000000000000000000000000\n      dup2\n      mstore\n      0x04\n      add\n      tag_96\n      swap1\n      tag_72\n      jump\t// in\n    tag_96:\n      mload(0x40)\n      dup1\n      swap2\n      sub\n      swap1\n      revert\n    tag_95:\n        /* \"CrNFTMarketPlace/contracts/CrNFTMarketPlace.sol\":2313:2318  price */\n      dup1\n        /* \"CrNFTMarketPlace/contracts/CrNFTMarketPlace.sol\":2288:2292  nfts */\n      0x00\n        /* \"CrNFTMarketPlace/contracts/CrNFTMarketPlace.sol\":2288:2304  nfts[msg.sender] */\n      0x00\n        /* \"CrNFTMarketPlace/contracts/CrNFTMarketPlace.sol\":2293:2303  msg.sender */\n      caller\n        /* \"CrNFTMarketPlace/contracts/CrNFTMarketPlace.sol\":2288:2304  nfts[msg.sender] */\n      0xffffffffffffffffffffffffffffffffffffffff\n      and\n      0xffffffffffffffffffffffffffffffffffffffff\n      and\n      dup2\n      mstore\n      0x20\n      add\n      swap1\n      dup2\n      mstore\n      0x20\n      add\n      0x00\n      keccak256\n        /* \"CrNFTMarketPlace/contracts/CrNFTMarketPlace.sol\":2288:2310  nfts[msg.sender].price */\n      0x01\n      add\n        /* \"CrNFTMarketPlace/contracts/CrNFTMarketPlace.sol\":2288:2318  nfts[msg.sender].price = price */\n      dup2\n      swap1\n      sstore\n      pop\n        /* \"CrNFTMarketPlace/contracts/CrNFTMarketPlace.sol\":2357:2361  true */\n      0x01\n        /* \"CrNFTMarketPlace/contracts/CrNFTMarketPlace.sol\":2328:2332  nfts */\n      0x00\n        /* \"CrNFTMarketPlace/contracts/CrNFTMarketPlace.sol\":2328:2344  nfts[msg.sender] */\n      0x00\n        /* \"CrNFTMarketPlace/contracts/CrNFTMarketPlace.sol\":2333:2343  msg.sender */\n      caller\n        /* \"CrNFTMarketPlace/contracts/CrNFTMarketPlace.sol\":2328:2344  nfts[msg.sender] */\n      0xffffffffffffffffffffffffffffffffffffffff\n      and\n      0xffffffffffffffffffffffffffffffffffffffff\n      and\n      dup2\n      mstore\n      0x20\n      add\n      swap1\n      dup2\n      mstore\n      0x20\n      add\n      0x00\n      keccak256\n        /* \"CrNFTMarketPlace/contracts/CrNFTMarketPlace.sol\":2328:2354  nfts[msg.sender].isForSale */\n      0x02\n      add\n      0x00\n        /* \"CrNFTMarketPlace/contracts/CrNFTMarketPlace.sol\":2328:2361  nfts[msg.sender].isForSale = true */\n      0x0100\n      exp\n      dup2\n      sload\n      dup2\n      0xff\n      mul\n      not\n      and\n      swap1\n      dup4\n      iszero\n      iszero\n      mul\n      or\n      swap1\n      sstore\n      pop\n        /* \"CrNFTMarketPlace/contracts/CrNFTMarketPlace.sol\":2390:2394  nfts */\n      0x00\n        /* \"CrNFTMarketPlace/contracts/CrNFTMarketPlace.sol\":2390:2406  nfts[msg.sender] */\n      0x00\n        /* \"CrNFTMarketPlace/contracts/CrNFTMarketPlace.sol\":2395:2405  msg.sender */\n      caller\n        /* \"CrNFTMarketPlace/contracts/CrNFTMarketPlace.sol\":2390:2406  nfts[msg.sender] */\n      0xffffffffffffffffffffffffffffffffffffffff\n      and\n      0xffffffffffffffffffffffffffffffffffffffff\n      and\n      dup2\n      mstore\n      0x20\n      add\n      swap1\n      dup2\n      mstore\n      0x20\n      add\n      0x00\n      keccak256\n        /* \"CrNFTMarketPlace/contracts/CrNFTMarketPlace.sol\":2371:2380  nftPrices */\n      0x01\n        /* \"CrNFTMarketPlace/contracts/CrNFTMarketPlace.sol\":2371:2387  nftPrices[price] */\n      0x00\n        /* \"CrNFTMarketPlace/contracts/CrNFTMarketPlace.sol\":2381:2386  price */\n      dup4\n        /* \"CrNFTMarketPlace/contracts/CrNFTMarketPlace.sol\":2371:2387  nftPrices[price] */\n      dup2\n      mstore\n      0x20\n      add\n      swap1\n      dup2\n      mstore\n      0x20\n      add\n      0x00\n      keccak256\n        /* \"CrNFTMarketPlace/contracts/CrNFTMarketPlace.sol\":2371:2406  nftPrices[price] = nfts[msg.sender] */\n      0x00\n      dup3\n      add\n      0x00\n      swap1\n      sload\n      swap1\n      0x0100\n      exp\n      swap1\n      div\n      0xffffffffffffffffffffffffffffffffffffffff\n      and\n      dup2\n      0x00\n      add\n      exp(0x0100, 0x00)\n      dup2\n      sload\n      dup2\n      0xffffffffffffffffffffffffffffffffffffffff\n      mul\n      not\n      and\n      swap1\n      dup4\n      0xffffffffffffffffffffffffffffffffffffffff\n      and\n      mul\n      or\n      swap1\n      sstore\n      pop\n      0x01\n      dup3\n      add\n      sload\n      dup2\n      0x01\n      add\n      sstore\n      0x02\n      dup3\n      add\n      0x00\n      swap1\n      sload\n      swap1\n      0x0100\n      exp\n      swap1\n      div\n      0xff\n      and\n      dup2\n      0x02\n      add\n      exp(0x0100, 0x00)\n      dup2\n      sload\n      dup2\n      0xff\n      mul\n      not\n      and\n      swap1\n      dup4\n      iszero\n      iszero\n      mul\n      or\n      swap1\n      sstore\n      pop\n      swap1\n      pop\n      pop\n        /* \"CrNFTMarketPlace/contracts/CrNFTMarketPlace.sol\":2432:2442  msg.sender */\n      caller\n        /* \"CrNFTMarketPlace/contracts/CrNFTMarketPlace.sol\":2422:2450  NFTListed(msg.sender, price) */\n      0xffffffffffffffffffffffffffffffffffffffff\n      and\n      0xf472bb8b2e698cee5cf56e4982e2ebb6690f88b55ea3a02d609bf32bcded3822\n        /* \"CrNFTMarketPlace/contracts/CrNFTMarketPlace.sol\":2444:2449  price */\n      dup3\n        /* \"CrNFTMarketPlace/contracts/CrNFTMarketPlace.sol\":2422:2450  NFTListed(msg.sender, price) */\n      mload(0x40)\n      tag_97\n      swap2\n      swap1\n      tag_58\n      jump\t// in\n    tag_97:\n      mload(0x40)\n      dup1\n      swap2\n      sub\n      swap1\n      log2\n        /* \"CrNFTMarketPlace/contracts/CrNFTMarketPlace.sol\":2122:2457  function listNFT(uint256 price) public {... */\n      pop\n      jump\t// out\n        /* \"CrNFTMarketPlace/contracts/CrNFTMarketPlace.sol\":2807:3331  function sellNFT(address buyer) public payable isForSale(msg.sender) hasEnoughFunds(nfts[msg.sender].price) {... */\n    tag_48:\n        /* \"CrNFTMarketPlace/contracts/CrNFTMarketPlace.sol\":2864:2874  msg.sender */\n      caller\n        /* \"CrNFTMarketPlace/contracts/CrNFTMarketPlace.sol\":1669:1673  true */\n      0x01\n        /* \"CrNFTMarketPlace/contracts/CrNFTMarketPlace.sol\":1639:1673  nfts[nftAddress].isForSale == true */\n      iszero\n      iszero\n        /* \"CrNFTMarketPlace/contracts/CrNFTMarketPlace.sol\":1639:1643  nfts */\n      0x00\n        /* \"CrNFTMarketPlace/contracts/CrNFTMarketPlace.sol\":1639:1655  nfts[nftAddress] */\n      0x00\n        /* \"CrNFTMarketPlace/contracts/CrNFTMarketPlace.sol\":1644:1654  nftAddress */\n      dup4\n        /* \"CrNFTMarketPlace/contracts/CrNFTMarketPlace.sol\":1639:1655  nfts[nftAddress] */\n      0xffffffffffffffffffffffffffffffffffffffff\n      and\n      0xffffffffffffffffffffffffffffffffffffffff\n      and\n      dup2\n      mstore\n      0x20\n      add\n      swap1\n      dup2\n      mstore\n      0x20\n      add\n      0x00\n      keccak256\n        /* \"CrNFTMarketPlace/contracts/CrNFTMarketPlace.sol\":1639:1665  nfts[nftAddress].isForSale */\n      0x02\n      add\n      0x00\n      swap1\n      sload\n      swap1\n      0x0100\n      exp\n      swap1\n      div\n      0xff\n      and\n        /* \"CrNFTMarketPlace/contracts/CrNFTMarketPlace.sol\":1639:1673  nfts[nftAddress].isForSale == true */\n      iszero\n      iszero\n      eq\n        /* \"CrNFTMarketPlace/contracts/CrNFTMarketPlace.sol\":1631:1697  require(nfts[nftAddress].isForSale == true, \"NFT is not for sale\") */\n      tag_99\n      jumpi\n      mload(0x40)\n      0x08c379a000000000000000000000000000000000000000000000000000000000\n      dup2\n      mstore\n      0x04\n      add\n      tag_100\n      swap1\n      tag_84\n      jump\t// in\n    tag_100:\n      mload(0x40)\n      dup1\n      swap2\n      sub\n      swap1\n      revert\n    tag_99:\n        /* \"CrNFTMarketPlace/contracts/CrNFTMarketPlace.sol\":2891:2895  nfts */\n      0x00\n        /* \"CrNFTMarketPlace/contracts/CrNFTMarketPlace.sol\":2891:2907  nfts[msg.sender] */\n      0x00\n        /* \"CrNFTMarketPlace/contracts/CrNFTMarketPlace.sol\":2896:2906  msg.sender */\n      caller\n        /* \"CrNFTMarketPlace/contracts/CrNFTMarketPlace.sol\":2891:2907  nfts[msg.sender] */\n      0xffffffffffffffffffffffffffffffffffffffff\n      and\n      0xffffffffffffffffffffffffffffffffffffffff\n      and\n      dup2\n      mstore\n      0x20\n      add\n      swap1\n      dup2\n      mstore\n      0x20\n      add\n      0x00\n      keccak256\n        /* \"CrNFTMarketPlace/contracts/CrNFTMarketPlace.sol\":2891:2913  nfts[msg.sender].price */\n      0x01\n      add\n      sload\n        /* \"CrNFTMarketPlace/contracts/CrNFTMarketPlace.sol\":1862:1867  price */\n      dup1\n        /* \"CrNFTMarketPlace/contracts/CrNFTMarketPlace.sol\":1849:1858  msg.value */\n      callvalue\n        /* \"CrNFTMarketPlace/contracts/CrNFTMarketPlace.sol\":1849:1867  msg.value >= price */\n      lt\n      iszero\n        /* \"CrNFTMarketPlace/contracts/CrNFTMarketPlace.sol\":1841:1901  require(msg.value >= price, \"Insufficient funds to buy NFT\") */\n      tag_102\n      jumpi\n      mload(0x40)\n      0x08c379a000000000000000000000000000000000000000000000000000000000\n      dup2\n      mstore\n      0x04\n      add\n      tag_103\n      swap1\n      tag_88\n      jump\t// in\n    tag_103:\n      mload(0x40)\n      dup1\n      swap2\n      sub\n      swap1\n      revert\n    tag_102:\n        /* \"CrNFTMarketPlace/contracts/CrNFTMarketPlace.sol\":2925:2938  uint256 price */\n      0x00\n        /* \"CrNFTMarketPlace/contracts/CrNFTMarketPlace.sol\":2941:2945  nfts */\n      0x00\n        /* \"CrNFTMarketPlace/contracts/CrNFTMarketPlace.sol\":2941:2957  nfts[msg.sender] */\n      0x00\n        /* \"CrNFTMarketPlace/contracts/CrNFTMarketPlace.sol\":2946:2956  msg.sender */\n      caller\n        /* \"CrNFTMarketPlace/contracts/CrNFTMarketPlace.sol\":2941:2957  nfts[msg.sender] */\n      0xffffffffffffffffffffffffffffffffffffffff\n      and\n      0xffffffffffffffffffffffffffffffffffffffff\n      and\n      dup2\n      mstore\n      0x20\n      add\n      swap1\n      dup2\n      mstore\n      0x20\n      add\n      0x00\n      keccak256\n        /* \"CrNFTMarketPlace/contracts/CrNFTMarketPlace.sol\":2941:2963  nfts[msg.sender].price */\n      0x01\n      add\n      sload\n        /* \"CrNFTMarketPlace/contracts/CrNFTMarketPlace.sol\":2925:2963  uint256 price = nfts[msg.sender].price */\n      swap1\n      pop\n        /* \"CrNFTMarketPlace/contracts/CrNFTMarketPlace.sol\":2973:2987  address seller */\n      0x00\n        /* \"CrNFTMarketPlace/contracts/CrNFTMarketPlace.sol\":2990:3000  msg.sender */\n      caller\n        /* \"CrNFTMarketPlace/contracts/CrNFTMarketPlace.sol\":2973:3000  address seller = msg.sender */\n      swap1\n      pop\n        /* \"CrNFTMarketPlace/contracts/CrNFTMarketPlace.sol\":3059:3065  seller */\n      dup1\n        /* \"CrNFTMarketPlace/contracts/CrNFTMarketPlace.sol\":3051:3075  payable(seller).transfer */\n      0xffffffffffffffffffffffffffffffffffffffff\n      and\n        /* \"CrNFTMarketPlace/contracts/CrNFTMarketPlace.sol\":3051:3088  payable(seller).transfer(price - fee) */\n      0x08fc\n        /* \"CrNFTMarketPlace/contracts/CrNFTMarketPlace.sol\":3084:3087  fee */\n      sload(0x03)\n        /* \"CrNFTMarketPlace/contracts/CrNFTMarketPlace.sol\":3076:3081  price */\n      dup5\n        /* \"CrNFTMarketPlace/contracts/CrNFTMarketPlace.sol\":3076:3087  price - fee */\n      tag_105\n      swap2\n      swap1\n      tag_106\n      jump\t// in\n    tag_105:\n        /* \"CrNFTMarketPlace/contracts/CrNFTMarketPlace.sol\":3051:3088  payable(seller).transfer(price - fee) */\n      swap1\n      dup2\n      iszero\n      mul\n      swap1\n      mload(0x40)\n      0x00\n      mload(0x40)\n      dup1\n      dup4\n      sub\n      dup2\n      dup6\n      dup9\n      dup9\n      call\n      swap4\n      pop\n      pop\n      pop\n      pop\n      iszero\n      dup1\n      iszero\n      tag_108\n      jumpi\n      returndatacopy(0x00, 0x00, returndatasize)\n      revert(0x00, returndatasize)\n    tag_108:\n      pop\n        /* \"CrNFTMarketPlace/contracts/CrNFTMarketPlace.sol\":3146:3151  owner */\n      0x02\n      0x00\n      swap1\n      sload\n      swap1\n      0x0100\n      exp\n      swap1\n      div\n      0xffffffffffffffffffffffffffffffffffffffff\n      and\n        /* \"CrNFTMarketPlace/contracts/CrNFTMarketPlace.sol\":3138:3161  payable(owner).transfer */\n      0xffffffffffffffffffffffffffffffffffffffff\n      and\n        /* \"CrNFTMarketPlace/contracts/CrNFTMarketPlace.sol\":3138:3166  payable(owner).transfer(fee) */\n      0x08fc\n        /* \"CrNFTMarketPlace/contracts/CrNFTMarketPlace.sol\":3162:3165  fee */\n      sload(0x03)\n        /* \"CrNFTMarketPlace/contracts/CrNFTMarketPlace.sol\":3138:3166  payable(owner).transfer(fee) */\n      swap1\n      dup2\n      iszero\n      mul\n      swap1\n      mload(0x40)\n      0x00\n      mload(0x40)\n      dup1\n      dup4\n      sub\n      dup2\n      dup6\n      dup9\n      dup9\n      call\n      swap4\n      pop\n      pop\n      pop\n      pop\n      iszero\n      dup1\n      iszero\n      tag_110\n      jumpi\n      returndatacopy(0x00, 0x00, returndatasize)\n      revert(0x00, returndatasize)\n    tag_110:\n      pop\n        /* \"CrNFTMarketPlace/contracts/CrNFTMarketPlace.sol\":3234:3239  buyer */\n      dup5\n        /* \"CrNFTMarketPlace/contracts/CrNFTMarketPlace.sol\":3213:3217  nfts */\n      0x00\n        /* \"CrNFTMarketPlace/contracts/CrNFTMarketPlace.sol\":3213:3225  nfts[seller] */\n      0x00\n        /* \"CrNFTMarketPlace/contracts/CrNFTMarketPlace.sol\":3218:3224  seller */\n      dup4\n        /* \"CrNFTMarketPlace/contracts/CrNFTMarketPlace.sol\":3213:3225  nfts[seller] */\n      0xffffffffffffffffffffffffffffffffffffffff\n      and\n      0xffffffffffffffffffffffffffffffffffffffff\n      and\n      dup2\n      mstore\n      0x20\n      add\n      swap1\n      dup2\n      mstore\n      0x20\n      add\n      0x00\n      keccak256\n        /* \"CrNFTMarketPlace/contracts/CrNFTMarketPlace.sol\":3213:3231  nfts[seller].owner */\n      0x00\n      add\n      0x00\n        /* \"CrNFTMarketPlace/contracts/CrNFTMarketPlace.sol\":3213:3239  nfts[seller].owner = buyer */\n      0x0100\n      exp\n      dup2\n      sload\n      dup2\n      0xffffffffffffffffffffffffffffffffffffffff\n      mul\n      not\n      and\n      swap1\n      dup4\n      0xffffffffffffffffffffffffffffffffffffffff\n      and\n      mul\n      or\n      swap1\n      sstore\n      pop\n        /* \"CrNFTMarketPlace/contracts/CrNFTMarketPlace.sol\":3274:3279  false */\n      0x00\n        /* \"CrNFTMarketPlace/contracts/CrNFTMarketPlace.sol\":3249:3253  nfts */\n      0x00\n        /* \"CrNFTMarketPlace/contracts/CrNFTMarketPlace.sol\":3249:3261  nfts[seller] */\n      0x00\n        /* \"CrNFTMarketPlace/contracts/CrNFTMarketPlace.sol\":3254:3260  seller */\n      dup4\n        /* \"CrNFTMarketPlace/contracts/CrNFTMarketPlace.sol\":3249:3261  nfts[seller] */\n      0xffffffffffffffffffffffffffffffffffffffff\n      and\n      0xffffffffffffffffffffffffffffffffffffffff\n      and\n      dup2\n      mstore\n      0x20\n      add\n      swap1\n      dup2\n      mstore\n      0x20\n      add\n      0x00\n      keccak256\n        /* \"CrNFTMarketPlace/contracts/CrNFTMarketPlace.sol\":3249:3271  nfts[seller].isForSale */\n      0x02\n      add\n      0x00\n        /* \"CrNFTMarketPlace/contracts/CrNFTMarketPlace.sol\":3249:3279  nfts[seller].isForSale = false */\n      0x0100\n      exp\n      dup2\n      sload\n      dup2\n      0xff\n      mul\n      not\n      and\n      swap1\n      dup4\n      iszero\n      iszero\n      mul\n      or\n      swap1\n      sstore\n      pop\n        /* \"CrNFTMarketPlace/contracts/CrNFTMarketPlace.sol\":3310:3316  seller */\n      dup1\n        /* \"CrNFTMarketPlace/contracts/CrNFTMarketPlace.sol\":3295:3324  NFTSold(buyer, seller, price) */\n      0xffffffffffffffffffffffffffffffffffffffff\n      and\n        /* \"CrNFTMarketPlace/contracts/CrNFTMarketPlace.sol\":3303:3308  buyer */\n      dup6\n        /* \"CrNFTMarketPlace/contracts/CrNFTMarketPlace.sol\":3295:3324  NFTSold(buyer, seller, price) */\n      0xffffffffffffffffffffffffffffffffffffffff\n      and\n      0x777395bdf59f3645ce2ad2d0ea17e3d827249c006023a69bb899e5c4efbcced5\n        /* \"CrNFTMarketPlace/contracts/CrNFTMarketPlace.sol\":3318:3323  price */\n      dup5\n        /* \"CrNFTMarketPlace/contracts/CrNFTMarketPlace.sol\":3295:3324  NFTSold(buyer, seller, price) */\n      mload(0x40)\n      tag_111\n      swap2\n      swap1\n      tag_58\n      jump\t// in\n    tag_111:\n      mload(0x40)\n      dup1\n      swap2\n      sub\n      swap1\n      log3\n        /* \"CrNFTMarketPlace/contracts/CrNFTMarketPlace.sol\":2915:3331  {... */\n      pop\n      pop\n        /* \"CrNFTMarketPlace/contracts/CrNFTMarketPlace.sol\":1707:1708  _ */\n      pop\n        /* \"CrNFTMarketPlace/contracts/CrNFTMarketPlace.sol\":2807:3331  function sellNFT(address buyer) public payable isForSale(msg.sender) hasEnoughFunds(nfts[msg.sender].price) {... */\n      pop\n      pop\n      jump\t// out\n        /* \"CrNFTMarketPlace/contracts/CrNFTMarketPlace.sol\":898:938  mapping(uint256 => NFT) public nftPrices */\n    tag_52:\n      mstore(0x20, 0x01)\n      dup1\n      0x00\n      mstore\n      keccak256(0x00, 0x40)\n      0x00\n      swap2\n      pop\n      swap1\n      pop\n      dup1\n      0x00\n      add\n      0x00\n      swap1\n      sload\n      swap1\n      0x0100\n      exp\n      swap1\n      div\n      0xffffffffffffffffffffffffffffffffffffffff\n      and\n      swap1\n      dup1\n      0x01\n      add\n      sload\n      swap1\n      dup1\n      0x02\n      add\n      0x00\n      swap1\n      sload\n      swap1\n      0x0100\n      exp\n      swap1\n      div\n      0xff\n      and\n      swap1\n      pop\n      dup4\n      jump\t// out\n        /* \"CrNFTMarketPlace/contracts/CrNFTMarketPlace.sol\":994:1012  uint256 public fee */\n    tag_56:\n      sload(0x03)\n      dup2\n      jump\t// out\n        /* \"CrNFTMarketPlace/contracts/CrNFTMarketPlace.sol\":4074:4272  function changeNFTPrice(uint256 newPrice) public {... */\n    tag_62:\n        /* \"CrNFTMarketPlace/contracts/CrNFTMarketPlace.sol\":4167:4177  msg.sender */\n      caller\n        /* \"CrNFTMarketPlace/contracts/CrNFTMarketPlace.sol\":4141:4177  nfts[msg.sender].owner == msg.sender */\n      0xffffffffffffffffffffffffffffffffffffffff\n      and\n        /* \"CrNFTMarketPlace/contracts/CrNFTMarketPlace.sol\":4141:4145  nfts */\n      0x00\n        /* \"CrNFTMarketPlace/contracts/CrNFTMarketPlace.sol\":4141:4157  nfts[msg.sender] */\n      0x00\n        /* \"CrNFTMarketPlace/contracts/CrNFTMarketPlace.sol\":4146:4156  msg.sender */\n      caller\n        /* \"CrNFTMarketPlace/contracts/CrNFTMarketPlace.sol\":4141:4157  nfts[msg.sender] */\n      0xffffffffffffffffffffffffffffffffffffffff\n      and\n      0xffffffffffffffffffffffffffffffffffffffff\n      and\n      dup2\n      mstore\n      0x20\n      add\n      swap1\n      dup2\n      mstore\n      0x20\n      add\n      0x00\n      keccak256\n        /* \"CrNFTMarketPlace/contracts/CrNFTMarketPlace.sol\":4141:4163  nfts[msg.sender].owner */\n      0x00\n      add\n      0x00\n      swap1\n      sload\n      swap1\n      0x0100\n      exp\n      swap1\n      div\n      0xffffffffffffffffffffffffffffffffffffffff\n      and\n        /* \"CrNFTMarketPlace/contracts/CrNFTMarketPlace.sol\":4141:4177  nfts[msg.sender].owner == msg.sender */\n      0xffffffffffffffffffffffffffffffffffffffff\n      and\n      eq\n        /* \"CrNFTMarketPlace/contracts/CrNFTMarketPlace.sol\":4133:4221  require(nfts[msg.sender].owner == msg.sender, \"Only the NFT owner can change the price\") */\n      tag_113\n      jumpi\n      mload(0x40)\n      0x08c379a000000000000000000000000000000000000000000000000000000000\n      dup2\n      mstore\n      0x04\n      add\n      tag_114\n      swap1\n      tag_115\n      jump\t// in\n    tag_114:\n      mload(0x40)\n      dup1\n      swap2\n      sub\n      swap1\n      revert\n    tag_113:\n        /* \"CrNFTMarketPlace/contracts/CrNFTMarketPlace.sol\":4257:4265  newPrice */\n      dup1\n        /* \"CrNFTMarketPlace/contracts/CrNFTMarketPlace.sol\":4232:4236  nfts */\n      0x00\n        /* \"CrNFTMarketPlace/contracts/CrNFTMarketPlace.sol\":4232:4248  nfts[msg.sender] */\n      0x00\n        /* \"CrNFTMarketPlace/contracts/CrNFTMarketPlace.sol\":4237:4247  msg.sender */\n      caller\n        /* \"CrNFTMarketPlace/contracts/CrNFTMarketPlace.sol\":4232:4248  nfts[msg.sender] */\n      0xffffffffffffffffffffffffffffffffffffffff\n      and\n      0xffffffffffffffffffffffffffffffffffffffff\n      and\n      dup2\n      mstore\n      0x20\n      add\n      swap1\n      dup2\n      mstore\n      0x20\n      add\n      0x00\n      keccak256\n        /* \"CrNFTMarketPlace/contracts/CrNFTMarketPlace.sol\":4232:4254  nfts[msg.sender].price */\n      0x01\n      add\n        /* \"CrNFTMarketPlace/contracts/CrNFTMarketPlace.sol\":4232:4265  nfts[msg.sender].price = newPrice */\n      dup2\n      swap1\n      sstore\n      pop\n        /* \"CrNFTMarketPlace/contracts/CrNFTMarketPlace.sol\":4074:4272  function changeNFTPrice(uint256 newPrice) public {... */\n      pop\n      jump\t// out\n        /* \"#utility.yul\":88:205   */\n    tag_117:\n        /* \"#utility.yul\":197:198   */\n      0x00\n        /* \"#utility.yul\":194:195   */\n      0x00\n        /* \"#utility.yul\":187:199   */\n      revert\n        /* \"#utility.yul\":334:424   */\n    tag_119:\n        /* \"#utility.yul\":368:375   */\n      0x00\n        /* \"#utility.yul\":411:416   */\n      dup2\n        /* \"#utility.yul\":404:417   */\n      iszero\n        /* \"#utility.yul\":397:418   */\n      iszero\n        /* \"#utility.yul\":386:418   */\n      swap1\n      pop\n        /* \"#utility.yul\":334:424   */\n      swap2\n      swap1\n      pop\n      jump\t// out\n        /* \"#utility.yul\":430:546   */\n    tag_120:\n        /* \"#utility.yul\":500:521   */\n      tag_154\n        /* \"#utility.yul\":515:520   */\n      dup2\n        /* \"#utility.yul\":500:521   */\n      tag_119\n      jump\t// in\n    tag_154:\n        /* \"#utility.yul\":493:498   */\n      dup2\n        /* \"#utility.yul\":490:522   */\n      eq\n        /* \"#utility.yul\":480:540   */\n      tag_155\n      jumpi\n        /* \"#utility.yul\":536:537   */\n      0x00\n        /* \"#utility.yul\":533:534   */\n      0x00\n        /* \"#utility.yul\":526:538   */\n      revert\n        /* \"#utility.yul\":480:540   */\n    tag_155:\n        /* \"#utility.yul\":430:546   */\n      pop\n      jump\t// out\n        /* \"#utility.yul\":552:685   */\n    tag_121:\n        /* \"#utility.yul\":595:600   */\n      0x00\n        /* \"#utility.yul\":633:639   */\n      dup2\n        /* \"#utility.yul\":620:640   */\n      calldataload\n        /* \"#utility.yul\":611:640   */\n      swap1\n      pop\n        /* \"#utility.yul\":649:679   */\n      tag_157\n        /* \"#utility.yul\":673:678   */\n      dup2\n        /* \"#utility.yul\":649:679   */\n      tag_120\n      jump\t// in\n    tag_157:\n        /* \"#utility.yul\":552:685   */\n      swap3\n      swap2\n      pop\n      pop\n      jump\t// out\n        /* \"#utility.yul\":691:1014   */\n    tag_17:\n        /* \"#utility.yul\":747:753   */\n      0x00\n        /* \"#utility.yul\":796:798   */\n      0x20\n        /* \"#utility.yul\":784:793   */\n      dup3\n        /* \"#utility.yul\":775:782   */\n      dup5\n        /* \"#utility.yul\":771:794   */\n      sub\n        /* \"#utility.yul\":767:799   */\n      slt\n        /* \"#utility.yul\":764:883   */\n      iszero\n      tag_159\n      jumpi\n        /* \"#utility.yul\":802:881   */\n      tag_160\n      tag_117\n      jump\t// in\n    tag_160:\n        /* \"#utility.yul\":764:883   */\n    tag_159:\n        /* \"#utility.yul\":922:923   */\n      0x00\n        /* \"#utility.yul\":947:997   */\n      tag_161\n        /* \"#utility.yul\":989:996   */\n      dup5\n        /* \"#utility.yul\":980:986   */\n      dup3\n        /* \"#utility.yul\":969:978   */\n      dup6\n        /* \"#utility.yul\":965:987   */\n      add\n        /* \"#utility.yul\":947:997   */\n      tag_121\n      jump\t// in\n    tag_161:\n        /* \"#utility.yul\":937:997   */\n      swap2\n      pop\n        /* \"#utility.yul\":893:1007   */\n      pop\n        /* \"#utility.yul\":691:1014   */\n      swap3\n      swap2\n      pop\n      pop\n      jump\t// out\n        /* \"#utility.yul\":1020:1097   */\n    tag_122:\n        /* \"#utility.yul\":1057:1064   */\n      0x00\n        /* \"#utility.yul\":1086:1091   */\n      dup2\n        /* \"#utility.yul\":1075:1091   */\n      swap1\n      pop\n        /* \"#utility.yul\":1020:1097   */\n      swap2\n      swap1\n      pop\n      jump\t// out\n        /* \"#utility.yul\":1103:1225   */\n    tag_123:\n        /* \"#utility.yul\":1176:1200   */\n      tag_164\n        /* \"#utility.yul\":1194:1199   */\n      dup2\n        /* \"#utility.yul\":1176:1200   */\n      tag_122\n      jump\t// in\n    tag_164:\n        /* \"#utility.yul\":1169:1174   */\n      dup2\n        /* \"#utility.yul\":1166:1201   */\n      eq\n        /* \"#utility.yul\":1156:1219   */\n      tag_165\n      jumpi\n        /* \"#utility.yul\":1215:1216   */\n      0x00\n        /* \"#utility.yul\":1212:1213   */\n      0x00\n        /* \"#utility.yul\":1205:1217   */\n      revert\n        /* \"#utility.yul\":1156:1219   */\n    tag_165:\n        /* \"#utility.yul\":1103:1225   */\n      pop\n      jump\t// out\n        /* \"#utility.yul\":1231:1370   */\n    tag_124:\n        /* \"#utility.yul\":1277:1282   */\n      0x00\n        /* \"#utility.yul\":1315:1321   */\n      dup2\n        /* \"#utility.yul\":1302:1322   */\n      calldataload\n        /* \"#utility.yul\":1293:1322   */\n      swap1\n      pop\n        /* \"#utility.yul\":1331:1364   */\n      tag_167\n        /* \"#utility.yul\":1358:1363   */\n      dup2\n        /* \"#utility.yul\":1331:1364   */\n      tag_123\n      jump\t// in\n    tag_167:\n        /* \"#utility.yul\":1231:1370   */\n      swap3\n      swap2\n      pop\n      pop\n      jump\t// out\n        /* \"#utility.yul\":1376:1705   */\n    tag_22:\n        /* \"#utility.yul\":1435:1441   */\n      0x00\n        /* \"#utility.yul\":1484:1486   */\n      0x20\n        /* \"#utility.yul\":1472:1481   */\n      dup3\n        /* \"#utility.yul\":1463:1470   */\n      dup5\n        /* \"#utility.yul\":1459:1482   */\n      sub\n        /* \"#utility.yul\":1455:1487   */\n      slt\n        /* \"#utility.yul\":1452:1571   */\n      iszero\n      tag_169\n      jumpi\n        /* \"#utility.yul\":1490:1569   */\n      tag_170\n      tag_117\n      jump\t// in\n    tag_170:\n        /* \"#utility.yul\":1452:1571   */\n    tag_169:\n        /* \"#utility.yul\":1610:1611   */\n      0x00\n        /* \"#utility.yul\":1635:1688   */\n      tag_171\n        /* \"#utility.yul\":1680:1687   */\n      dup5\n        /* \"#utility.yul\":1671:1677   */\n      dup3\n        /* \"#utility.yul\":1660:1669   */\n      dup6\n        /* \"#utility.yul\":1656:1678   */\n      add\n        /* \"#utility.yul\":1635:1688   */\n      tag_124\n      jump\t// in\n    tag_171:\n        /* \"#utility.yul\":1625:1688   */\n      swap2\n      pop\n        /* \"#utility.yul\":1581:1698   */\n      pop\n        /* \"#utility.yul\":1376:1705   */\n      swap3\n      swap2\n      pop\n      pop\n      jump\t// out\n        /* \"#utility.yul\":1711:1837   */\n    tag_125:\n        /* \"#utility.yul\":1748:1755   */\n      0x00\n        /* \"#utility.yul\":1788:1830   */\n      0xffffffffffffffffffffffffffffffffffffffff\n        /* \"#utility.yul\":1781:1786   */\n      dup3\n        /* \"#utility.yul\":1777:1831   */\n      and\n        /* \"#utility.yul\":1766:1831   */\n      swap1\n      pop\n        /* \"#utility.yul\":1711:1837   */\n      swap2\n      swap1\n      pop\n      jump\t// out\n        /* \"#utility.yul\":1843:1939   */\n    tag_126:\n        /* \"#utility.yul\":1880:1887   */\n      0x00\n        /* \"#utility.yul\":1909:1933   */\n      tag_174\n        /* \"#utility.yul\":1927:1932   */\n      dup3\n        /* \"#utility.yul\":1909:1933   */\n      tag_125\n      jump\t// in\n    tag_174:\n        /* \"#utility.yul\":1898:1933   */\n      swap1\n      pop\n        /* \"#utility.yul\":1843:1939   */\n      swap2\n      swap1\n      pop\n      jump\t// out\n        /* \"#utility.yul\":1945:2067   */\n    tag_127:\n        /* \"#utility.yul\":2018:2042   */\n      tag_176\n        /* \"#utility.yul\":2036:2041   */\n      dup2\n        /* \"#utility.yul\":2018:2042   */\n      tag_126\n      jump\t// in\n    tag_176:\n        /* \"#utility.yul\":2011:2016   */\n      dup2\n        /* \"#utility.yul\":2008:2043   */\n      eq\n        /* \"#utility.yul\":1998:2061   */\n      tag_177\n      jumpi\n        /* \"#utility.yul\":2057:2058   */\n      0x00\n        /* \"#utility.yul\":2054:2055   */\n      0x00\n        /* \"#utility.yul\":2047:2059   */\n      revert\n        /* \"#utility.yul\":1998:2061   */\n    tag_177:\n        /* \"#utility.yul\":1945:2067   */\n      pop\n      jump\t// out\n        /* \"#utility.yul\":2073:2212   */\n    tag_128:\n        /* \"#utility.yul\":2119:2124   */\n      0x00\n        /* \"#utility.yul\":2157:2163   */\n      dup2\n        /* \"#utility.yul\":2144:2164   */\n      calldataload\n        /* \"#utility.yul\":2135:2164   */\n      swap1\n      pop\n        /* \"#utility.yul\":2173:2206   */\n      tag_179\n        /* \"#utility.yul\":2200:2205   */\n      dup2\n        /* \"#utility.yul\":2173:2206   */\n      tag_127\n      jump\t// in\n    tag_179:\n        /* \"#utility.yul\":2073:2212   */\n      swap3\n      swap2\n      pop\n      pop\n      jump\t// out\n        /* \"#utility.yul\":2218:2547   */\n    tag_30:\n        /* \"#utility.yul\":2277:2283   */\n      0x00\n        /* \"#utility.yul\":2326:2328   */\n      0x20\n        /* \"#utility.yul\":2314:2323   */\n      dup3\n        /* \"#utility.yul\":2305:2312   */\n      dup5\n        /* \"#utility.yul\":2301:2324   */\n      sub\n        /* \"#utility.yul\":2297:2329   */\n      slt\n        /* \"#utility.yul\":2294:2413   */\n      iszero\n      tag_181\n      jumpi\n        /* \"#utility.yul\":2332:2411   */\n      tag_182\n      tag_117\n      jump\t// in\n    tag_182:\n        /* \"#utility.yul\":2294:2413   */\n    tag_181:\n        /* \"#utility.yul\":2452:2453   */\n      0x00\n        /* \"#utility.yul\":2477:2530   */\n      tag_183\n        /* \"#utility.yul\":2522:2529   */\n      dup5\n        /* \"#utility.yul\":2513:2519   */\n      dup3\n        /* \"#utility.yul\":2502:2511   */\n      dup6\n        /* \"#utility.yul\":2498:2520   */\n      add\n        /* \"#utility.yul\":2477:2530   */\n      tag_128\n      jump\t// in\n    tag_183:\n        /* \"#utility.yul\":2467:2530   */\n      swap2\n      pop\n        /* \"#utility.yul\":2423:2540   */\n      pop\n        /* \"#utility.yul\":2218:2547   */\n      swap3\n      swap2\n      pop\n      pop\n      jump\t// out\n        /* \"#utility.yul\":2553:2671   */\n    tag_129:\n        /* \"#utility.yul\":2640:2664   */\n      tag_185\n        /* \"#utility.yul\":2658:2663   */\n      dup2\n        /* \"#utility.yul\":2640:2664   */\n      tag_126\n      jump\t// in\n    tag_185:\n        /* \"#utility.yul\":2635:2638   */\n      dup3\n        /* \"#utility.yul\":2628:2665   */\n      mstore\n        /* \"#utility.yul\":2553:2671   */\n      pop\n      pop\n      jump\t// out\n        /* \"#utility.yul\":2677:2795   */\n    tag_130:\n        /* \"#utility.yul\":2764:2788   */\n      tag_187\n        /* \"#utility.yul\":2782:2787   */\n      dup2\n        /* \"#utility.yul\":2764:2788   */\n      tag_122\n      jump\t// in\n    tag_187:\n        /* \"#utility.yul\":2759:2762   */\n      dup3\n        /* \"#utility.yul\":2752:2789   */\n      mstore\n        /* \"#utility.yul\":2677:2795   */\n      pop\n      pop\n      jump\t// out\n        /* \"#utility.yul\":2801:2910   */\n    tag_131:\n        /* \"#utility.yul\":2882:2903   */\n      tag_189\n        /* \"#utility.yul\":2897:2902   */\n      dup2\n        /* \"#utility.yul\":2882:2903   */\n      tag_119\n      jump\t// in\n    tag_189:\n        /* \"#utility.yul\":2877:2880   */\n      dup3\n        /* \"#utility.yul\":2870:2904   */\n      mstore\n        /* \"#utility.yul\":2801:2910   */\n      pop\n      pop\n      jump\t// out\n        /* \"#utility.yul\":2916:3346   */\n    tag_33:\n        /* \"#utility.yul\":3059:3063   */\n      0x00\n        /* \"#utility.yul\":3097:3099   */\n      0x60\n        /* \"#utility.yul\":3086:3095   */\n      dup3\n        /* \"#utility.yul\":3082:3100   */\n      add\n        /* \"#utility.yul\":3074:3100   */\n      swap1\n      pop\n        /* \"#utility.yul\":3110:3181   */\n      tag_191\n        /* \"#utility.yul\":3178:3179   */\n      0x00\n        /* \"#utility.yul\":3167:3176   */\n      dup4\n        /* \"#utility.yul\":3163:3180   */\n      add\n        /* \"#utility.yul\":3154:3160   */\n      dup7\n        /* \"#utility.yul\":3110:3181   */\n      tag_129\n      jump\t// in\n    tag_191:\n        /* \"#utility.yul\":3191:3263   */\n      tag_192\n        /* \"#utility.yul\":3259:3261   */\n      0x20\n        /* \"#utility.yul\":3248:3257   */\n      dup4\n        /* \"#utility.yul\":3244:3262   */\n      add\n        /* \"#utility.yul\":3235:3241   */\n      dup6\n        /* \"#utility.yul\":3191:3263   */\n      tag_130\n      jump\t// in\n    tag_192:\n        /* \"#utility.yul\":3273:3339   */\n      tag_193\n        /* \"#utility.yul\":3335:3337   */\n      0x40\n        /* \"#utility.yul\":3324:3333   */\n      dup4\n        /* \"#utility.yul\":3320:3338   */\n      add\n        /* \"#utility.yul\":3311:3317   */\n      dup5\n        /* \"#utility.yul\":3273:3339   */\n      tag_131\n      jump\t// in\n    tag_193:\n        /* \"#utility.yul\":2916:3346   */\n      swap5\n      swap4\n      pop\n      pop\n      pop\n      pop\n      jump\t// out\n        /* \"#utility.yul\":3352:3574   */\n    tag_38:\n        /* \"#utility.yul\":3445:3449   */\n      0x00\n        /* \"#utility.yul\":3483:3485   */\n      0x20\n        /* \"#utility.yul\":3472:3481   */\n      dup3\n        /* \"#utility.yul\":3468:3486   */\n      add\n        /* \"#utility.yul\":3460:3486   */\n      swap1\n      pop\n        /* \"#utility.yul\":3496:3567   */\n      tag_195\n        /* \"#utility.yul\":3564:3565   */\n      0x00\n        /* \"#utility.yul\":3553:3562   */\n      dup4\n        /* \"#utility.yul\":3549:3566   */\n      add\n        /* \"#utility.yul\":3540:3546   */\n      dup5\n        /* \"#utility.yul\":3496:3567   */\n      tag_129\n      jump\t// in\n    tag_195:\n        /* \"#utility.yul\":3352:3574   */\n      swap3\n      swap2\n      pop\n      pop\n      jump\t// out\n        /* \"#utility.yul\":3580:3802   */\n    tag_58:\n        /* \"#utility.yul\":3673:3677   */\n      0x00\n        /* \"#utility.yul\":3711:3713   */\n      0x20\n        /* \"#utility.yul\":3700:3709   */\n      dup3\n        /* \"#utility.yul\":3696:3714   */\n      add\n        /* \"#utility.yul\":3688:3714   */\n      swap1\n      pop\n        /* \"#utility.yul\":3724:3795   */\n      tag_197\n        /* \"#utility.yul\":3792:3793   */\n      0x00\n        /* \"#utility.yul\":3781:3790   */\n      dup4\n        /* \"#utility.yul\":3777:3794   */\n      add\n        /* \"#utility.yul\":3768:3774   */\n      dup5\n        /* \"#utility.yul\":3724:3795   */\n      tag_130\n      jump\t// in\n    tag_197:\n        /* \"#utility.yul\":3580:3802   */\n      swap3\n      swap2\n      pop\n      pop\n      jump\t// out\n        /* \"#utility.yul\":3808:3977   */\n    tag_132:\n        /* \"#utility.yul\":3892:3903   */\n      0x00\n        /* \"#utility.yul\":3926:3932   */\n      dup3\n        /* \"#utility.yul\":3921:3924   */\n      dup3\n        /* \"#utility.yul\":3914:3933   */\n      mstore\n        /* \"#utility.yul\":3966:3970   */\n      0x20\n        /* \"#utility.yul\":3961:3964   */\n      dup3\n        /* \"#utility.yul\":3957:3971   */\n      add\n        /* \"#utility.yul\":3942:3971   */\n      swap1\n      pop\n        /* \"#utility.yul\":3808:3977   */\n      swap3\n      swap2\n      pop\n      pop\n      jump\t// out\n        /* \"#utility.yul\":3983:4209   */\n    tag_133:\n        /* \"#utility.yul\":4123:4157   */\n      0x4f6e6c7920746865204e4654206f776e65722063616e206368616e6765206974\n        /* \"#utility.yul\":4119:4120   */\n      0x00\n        /* \"#utility.yul\":4111:4117   */\n      dup3\n        /* \"#utility.yul\":4107:4121   */\n      add\n        /* \"#utility.yul\":4100:4158   */\n      mstore\n        /* \"#utility.yul\":4192:4201   */\n      0x7320737461746500000000000000000000000000000000000000000000000000\n        /* \"#utility.yul\":4187:4189   */\n      0x20\n        /* \"#utility.yul\":4179:4185   */\n      dup3\n        /* \"#utility.yul\":4175:4190   */\n      add\n        /* \"#utility.yul\":4168:4202   */\n      mstore\n        /* \"#utility.yul\":3983:4209   */\n      pop\n      jump\t// out\n        /* \"#utility.yul\":4215:4581   */\n    tag_134:\n        /* \"#utility.yul\":4357:4360   */\n      0x00\n        /* \"#utility.yul\":4378:4445   */\n      tag_201\n        /* \"#utility.yul\":4442:4444   */\n      0x27\n        /* \"#utility.yul\":4437:4440   */\n      dup4\n        /* \"#utility.yul\":4378:4445   */\n      tag_132\n      jump\t// in\n    tag_201:\n        /* \"#utility.yul\":4371:4445   */\n      swap2\n      pop\n        /* \"#utility.yul\":4454:4547   */\n      tag_202\n        /* \"#utility.yul\":4543:4546   */\n      dup3\n        /* \"#utility.yul\":4454:4547   */\n      tag_133\n      jump\t// in\n    tag_202:\n        /* \"#utility.yul\":4572:4574   */\n      0x40\n        /* \"#utility.yul\":4567:4570   */\n      dup3\n        /* \"#utility.yul\":4563:4575   */\n      add\n        /* \"#utility.yul\":4556:4575   */\n      swap1\n      pop\n        /* \"#utility.yul\":4215:4581   */\n      swap2\n      swap1\n      pop\n      jump\t// out\n        /* \"#utility.yul\":4587:5006   */\n    tag_66:\n        /* \"#utility.yul\":4753:4757   */\n      0x00\n        /* \"#utility.yul\":4791:4793   */\n      0x20\n        /* \"#utility.yul\":4780:4789   */\n      dup3\n        /* \"#utility.yul\":4776:4794   */\n      add\n        /* \"#utility.yul\":4768:4794   */\n      swap1\n      pop\n        /* \"#utility.yul\":4840:4849   */\n      dup2\n        /* \"#utility.yul\":4834:4838   */\n      dup2\n        /* \"#utility.yul\":4830:4850   */\n      sub\n        /* \"#utility.yul\":4826:4827   */\n      0x00\n        /* \"#utility.yul\":4815:4824   */\n      dup4\n        /* \"#utility.yul\":4811:4828   */\n      add\n        /* \"#utility.yul\":4804:4851   */\n      mstore\n        /* \"#utility.yul\":4868:4999   */\n      tag_204\n        /* \"#utility.yul\":4994:4998   */\n      dup2\n        /* \"#utility.yul\":4868:4999   */\n      tag_134\n      jump\t// in\n    tag_204:\n        /* \"#utility.yul\":4860:4999   */\n      swap1\n      pop\n        /* \"#utility.yul\":4587:5006   */\n      swap2\n      swap1\n      pop\n      jump\t// out\n        /* \"#utility.yul\":5012:5222   */\n    tag_68:\n        /* \"#utility.yul\":5099:5103   */\n      0x00\n        /* \"#utility.yul\":5137:5139   */\n      0x20\n        /* \"#utility.yul\":5126:5135   */\n      dup3\n        /* \"#utility.yul\":5122:5140   */\n      add\n        /* \"#utility.yul\":5114:5140   */\n      swap1\n      pop\n        /* \"#utility.yul\":5150:5215   */\n      tag_206\n        /* \"#utility.yul\":5212:5213   */\n      0x00\n        /* \"#utility.yul\":5201:5210   */\n      dup4\n        /* \"#utility.yul\":5197:5214   */\n      add\n        /* \"#utility.yul\":5188:5194   */\n      dup5\n        /* \"#utility.yul\":5150:5215   */\n      tag_131\n      jump\t// in\n    tag_206:\n        /* \"#utility.yul\":5012:5222   */\n      swap3\n      swap2\n      pop\n      pop\n      jump\t// out\n        /* \"#utility.yul\":5228:5401   */\n    tag_135:\n        /* \"#utility.yul\":5368:5393   */\n      0x596f7520646f206e6f74206f776e2074686973204e4654000000000000000000\n        /* \"#utility.yul\":5364:5365   */\n      0x00\n        /* \"#utility.yul\":5356:5362   */\n      dup3\n        /* \"#utility.yul\":5352:5366   */\n      add\n        /* \"#utility.yul\":5345:5394   */\n      mstore\n        /* \"#utility.yul\":5228:5401   */\n      pop\n      jump\t// out\n        /* \"#utility.yul\":5407:5773   */\n    tag_136:\n        /* \"#utility.yul\":5549:5552   */\n      0x00\n        /* \"#utility.yul\":5570:5637   */\n      tag_209\n        /* \"#utility.yul\":5634:5636   */\n      0x17\n        /* \"#utility.yul\":5629:5632   */\n      dup4\n        /* \"#utility.yul\":5570:5637   */\n      tag_132\n      jump\t// in\n    tag_209:\n        /* \"#utility.yul\":5563:5637   */\n      swap2\n      pop\n        /* \"#utility.yul\":5646:5739   */\n      tag_210\n        /* \"#utility.yul\":5735:5738   */\n      dup3\n        /* \"#utility.yul\":5646:5739   */\n      tag_135\n      jump\t// in\n    tag_210:\n        /* \"#utility.yul\":5764:5766   */\n      0x20\n        /* \"#utility.yul\":5759:5762   */\n      dup3\n        /* \"#utility.yul\":5755:5767   */\n      add\n        /* \"#utility.yul\":5748:5767   */\n      swap1\n      pop\n        /* \"#utility.yul\":5407:5773   */\n      swap2\n      swap1\n      pop\n      jump\t// out\n        /* \"#utility.yul\":5779:6198   */\n    tag_72:\n        /* \"#utility.yul\":5945:5949   */\n      0x00\n        /* \"#utility.yul\":5983:5985   */\n      0x20\n        /* \"#utility.yul\":5972:5981   */\n      dup3\n        /* \"#utility.yul\":5968:5986   */\n      add\n        /* \"#utility.yul\":5960:5986   */\n      swap1\n      pop\n        /* \"#utility.yul\":6032:6041   */\n      dup2\n        /* \"#utility.yul\":6026:6030   */\n      dup2\n        /* \"#utility.yul\":6022:6042   */\n      sub\n        /* \"#utility.yul\":6018:6019   */\n      0x00\n        /* \"#utility.yul\":6007:6016   */\n      dup4\n        /* \"#utility.yul\":6003:6020   */\n      add\n        /* \"#utility.yul\":5996:6043   */\n      mstore\n        /* \"#utility.yul\":6060:6191   */\n      tag_212\n        /* \"#utility.yul\":6186:6190   */\n      dup2\n        /* \"#utility.yul\":6060:6191   */\n      tag_136\n      jump\t// in\n    tag_212:\n        /* \"#utility.yul\":6052:6191   */\n      swap1\n      pop\n        /* \"#utility.yul\":5779:6198   */\n      swap2\n      swap1\n      pop\n      jump\t// out\n        /* \"#utility.yul\":6204:6425   */\n    tag_137:\n        /* \"#utility.yul\":6344:6378   */\n      0x4f6e6c79206f776e65722063616e20706572666f726d20746869732061637469\n        /* \"#utility.yul\":6340:6341   */\n      0x00\n        /* \"#utility.yul\":6332:6338   */\n      dup3\n        /* \"#utility.yul\":6328:6342   */\n      add\n        /* \"#utility.yul\":6321:6379   */\n      mstore\n        /* \"#utility.yul\":6413:6417   */\n      0x6f6e000000000000000000000000000000000000000000000000000000000000\n        /* \"#utility.yul\":6408:6410   */\n      0x20\n        /* \"#utility.yul\":6400:6406   */\n      dup3\n        /* \"#utility.yul\":6396:6411   */\n      add\n        /* \"#utility.yul\":6389:6418   */\n      mstore\n        /* \"#utility.yul\":6204:6425   */\n      pop\n      jump\t// out\n        /* \"#utility.yul\":6431:6797   */\n    tag_138:\n        /* \"#utility.yul\":6573:6576   */\n      0x00\n        /* \"#utility.yul\":6594:6661   */\n      tag_215\n        /* \"#utility.yul\":6658:6660   */\n      0x22\n        /* \"#utility.yul\":6653:6656   */\n      dup4\n        /* \"#utility.yul\":6594:6661   */\n      tag_132\n      jump\t// in\n    tag_215:\n        /* \"#utility.yul\":6587:6661   */\n      swap2\n      pop\n        /* \"#utility.yul\":6670:6763   */\n      tag_216\n        /* \"#utility.yul\":6759:6762   */\n      dup3\n        /* \"#utility.yul\":6670:6763   */\n      tag_137\n      jump\t// in\n    tag_216:\n        /* \"#utility.yul\":6788:6790   */\n      0x40\n        /* \"#utility.yul\":6783:6786   */\n      dup3\n        /* \"#utility.yul\":6779:6791   */\n      add\n        /* \"#utility.yul\":6772:6791   */\n      swap1\n      pop\n        /* \"#utility.yul\":6431:6797   */\n      swap2\n      swap1\n      pop\n      jump\t// out\n        /* \"#utility.yul\":6803:7222   */\n    tag_77:\n        /* \"#utility.yul\":6969:6973   */\n      0x00\n        /* \"#utility.yul\":7007:7009   */\n      0x20\n        /* \"#utility.yul\":6996:7005   */\n      dup3\n        /* \"#utility.yul\":6992:7010   */\n      add\n        /* \"#utility.yul\":6984:7010   */\n      swap1\n      pop\n        /* \"#utility.yul\":7056:7065   */\n      dup2\n        /* \"#utility.yul\":7050:7054   */\n      dup2\n        /* \"#utility.yul\":7046:7066   */\n      sub\n        /* \"#utility.yul\":7042:7043   */\n      0x00\n        /* \"#utility.yul\":7031:7040   */\n      dup4\n        /* \"#utility.yul\":7027:7044   */\n      add\n        /* \"#utility.yul\":7020:7067   */\n      mstore\n        /* \"#utility.yul\":7084:7215   */\n      tag_218\n        /* \"#utility.yul\":7210:7214   */\n      dup2\n        /* \"#utility.yul\":7084:7215   */\n      tag_138\n      jump\t// in\n    tag_218:\n        /* \"#utility.yul\":7076:7215   */\n      swap1\n      pop\n        /* \"#utility.yul\":6803:7222   */\n      swap2\n      swap1\n      pop\n      jump\t// out\n        /* \"#utility.yul\":7228:7397   */\n    tag_139:\n        /* \"#utility.yul\":7368:7389   */\n      0x4e4654206973206e6f7420666f722073616c6500000000000000000000000000\n        /* \"#utility.yul\":7364:7365   */\n      0x00\n        /* \"#utility.yul\":7356:7362   */\n      dup3\n        /* \"#utility.yul\":7352:7366   */\n      add\n        /* \"#utility.yul\":7345:7390   */\n      mstore\n        /* \"#utility.yul\":7228:7397   */\n      pop\n      jump\t// out\n        /* \"#utility.yul\":7403:7769   */\n    tag_140:\n        /* \"#utility.yul\":7545:7548   */\n      0x00\n        /* \"#utility.yul\":7566:7633   */\n      tag_221\n        /* \"#utility.yul\":7630:7632   */\n      0x13\n        /* \"#utility.yul\":7625:7628   */\n      dup4\n        /* \"#utility.yul\":7566:7633   */\n      tag_132\n      jump\t// in\n    tag_221:\n        /* \"#utility.yul\":7559:7633   */\n      swap2\n      pop\n        /* \"#utility.yul\":7642:7735   */\n      tag_222\n        /* \"#utility.yul\":7731:7734   */\n      dup3\n        /* \"#utility.yul\":7642:7735   */\n      tag_139\n      jump\t// in\n    tag_222:\n        /* \"#utility.yul\":7760:7762   */\n      0x20\n        /* \"#utility.yul\":7755:7758   */\n      dup3\n        /* \"#utility.yul\":7751:7763   */\n      add\n        /* \"#utility.yul\":7744:7763   */\n      swap1\n      pop\n        /* \"#utility.yul\":7403:7769   */\n      swap2\n      swap1\n      pop\n      jump\t// out\n        /* \"#utility.yul\":7775:8194   */\n    tag_84:\n        /* \"#utility.yul\":7941:7945   */\n      0x00\n        /* \"#utility.yul\":7979:7981   */\n      0x20\n        /* \"#utility.yul\":7968:7977   */\n      dup3\n        /* \"#utility.yul\":7964:7982   */\n      add\n        /* \"#utility.yul\":7956:7982   */\n      swap1\n      pop\n        /* \"#utility.yul\":8028:8037   */\n      dup2\n        /* \"#utility.yul\":8022:8026   */\n      dup2\n        /* \"#utility.yul\":8018:8038   */\n      sub\n        /* \"#utility.yul\":8014:8015   */\n      0x00\n        /* \"#utility.yul\":8003:8012   */\n      dup4\n        /* \"#utility.yul\":7999:8016   */\n      add\n        /* \"#utility.yul\":7992:8039   */\n      mstore\n        /* \"#utility.yul\":8056:8187   */\n      tag_224\n        /* \"#utility.yul\":8182:8186   */\n      dup2\n        /* \"#utility.yul\":8056:8187   */\n      tag_140\n      jump\t// in\n    tag_224:\n        /* \"#utility.yul\":8048:8187   */\n      swap1\n      pop\n        /* \"#utility.yul\":7775:8194   */\n      swap2\n      swap1\n      pop\n      jump\t// out\n        /* \"#utility.yul\":8200:8379   */\n    tag_141:\n        /* \"#utility.yul\":8340:8371   */\n      0x496e73756666696369656e742066756e647320746f20627579204e4654000000\n        /* \"#utility.yul\":8336:8337   */\n      0x00\n        /* \"#utility.yul\":8328:8334   */\n      dup3\n        /* \"#utility.yul\":8324:8338   */\n      add\n        /* \"#utility.yul\":8317:8372   */\n      mstore\n        /* \"#utility.yul\":8200:8379   */\n      pop\n      jump\t// out\n        /* \"#utility.yul\":8385:8751   */\n    tag_142:\n        /* \"#utility.yul\":8527:8530   */\n      0x00\n        /* \"#utility.yul\":8548:8615   */\n      tag_227\n        /* \"#utility.yul\":8612:8614   */\n      0x1d\n        /* \"#utility.yul\":8607:8610   */\n      dup4\n        /* \"#utility.yul\":8548:8615   */\n      tag_132\n      jump\t// in\n    tag_227:\n        /* \"#utility.yul\":8541:8615   */\n      swap2\n      pop\n        /* \"#utility.yul\":8624:8717   */\n      tag_228\n        /* \"#utility.yul\":8713:8716   */\n      dup3\n        /* \"#utility.yul\":8624:8717   */\n      tag_141\n      jump\t// in\n    tag_228:\n        /* \"#utility.yul\":8742:8744   */\n      0x20\n        /* \"#utility.yul\":8737:8740   */\n      dup3\n        /* \"#utility.yul\":8733:8745   */\n      add\n        /* \"#utility.yul\":8726:8745   */\n      swap1\n      pop\n        /* \"#utility.yul\":8385:8751   */\n      swap2\n      swap1\n      pop\n      jump\t// out\n        /* \"#utility.yul\":8757:9176   */\n    tag_88:\n        /* \"#utility.yul\":8923:8927   */\n      0x00\n        /* \"#utility.yul\":8961:8963   */\n      0x20\n        /* \"#utility.yul\":8950:8959   */\n      dup3\n        /* \"#utility.yul\":8946:8964   */\n      add\n        /* \"#utility.yul\":8938:8964   */\n      swap1\n      pop\n        /* \"#utility.yul\":9010:9019   */\n      dup2\n        /* \"#utility.yul\":9004:9008   */\n      dup2\n        /* \"#utility.yul\":9000:9020   */\n      sub\n        /* \"#utility.yul\":8996:8997   */\n      0x00\n        /* \"#utility.yul\":8985:8994   */\n      dup4\n        /* \"#utility.yul\":8981:8998   */\n      add\n        /* \"#utility.yul\":8974:9021   */\n      mstore\n        /* \"#utility.yul\":9038:9169   */\n      tag_230\n        /* \"#utility.yul\":9164:9168   */\n      dup2\n        /* \"#utility.yul\":9038:9169   */\n      tag_142\n      jump\t// in\n    tag_230:\n        /* \"#utility.yul\":9030:9169   */\n      swap1\n      pop\n        /* \"#utility.yul\":8757:9176   */\n      swap2\n      swap1\n      pop\n      jump\t// out\n        /* \"#utility.yul\":9182:9356   */\n    tag_143:\n        /* \"#utility.yul\":9322:9348   */\n      0x496e636f72726563742063757272656e63792076616c75650000000000000000\n        /* \"#utility.yul\":9318:9319   */\n      0x00\n        /* \"#utility.yul\":9310:9316   */\n      dup3\n        /* \"#utility.yul\":9306:9320   */\n      add\n        /* \"#utility.yul\":9299:9349   */\n      mstore\n        /* \"#utility.yul\":9182:9356   */\n      pop\n      jump\t// out\n        /* \"#utility.yul\":9362:9728   */\n    tag_144:\n        /* \"#utility.yul\":9504:9507   */\n      0x00\n        /* \"#utility.yul\":9525:9592   */\n      tag_233\n        /* \"#utility.yul\":9589:9591   */\n      0x18\n        /* \"#utility.yul\":9584:9587   */\n      dup4\n        /* \"#utility.yul\":9525:9592   */\n      tag_132\n      jump\t// in\n    tag_233:\n        /* \"#utility.yul\":9518:9592   */\n      swap2\n      pop\n        /* \"#utility.yul\":9601:9694   */\n      tag_234\n        /* \"#utility.yul\":9690:9693   */\n      dup3\n        /* \"#utility.yul\":9601:9694   */\n      tag_143\n      jump\t// in\n    tag_234:\n        /* \"#utility.yul\":9719:9721   */\n      0x20\n        /* \"#utility.yul\":9714:9717   */\n      dup3\n        /* \"#utility.yul\":9710:9722   */\n      add\n        /* \"#utility.yul\":9703:9722   */\n      swap1\n      pop\n        /* \"#utility.yul\":9362:9728   */\n      swap2\n      swap1\n      pop\n      jump\t// out\n        /* \"#utility.yul\":9734:10153   */\n    tag_92:\n        /* \"#utility.yul\":9900:9904   */\n      0x00\n        /* \"#utility.yul\":9938:9940   */\n      0x20\n        /* \"#utility.yul\":9927:9936   */\n      dup3\n        /* \"#utility.yul\":9923:9941   */\n      add\n        /* \"#utility.yul\":9915:9941   */\n      swap1\n      pop\n        /* \"#utility.yul\":9987:9996   */\n      dup2\n        /* \"#utility.yul\":9981:9985   */\n      dup2\n        /* \"#utility.yul\":9977:9997   */\n      sub\n        /* \"#utility.yul\":9973:9974   */\n      0x00\n        /* \"#utility.yul\":9962:9971   */\n      dup4\n        /* \"#utility.yul\":9958:9975   */\n      add\n        /* \"#utility.yul\":9951:9998   */\n      mstore\n        /* \"#utility.yul\":10015:10146   */\n      tag_236\n        /* \"#utility.yul\":10141:10145   */\n      dup2\n        /* \"#utility.yul\":10015:10146   */\n      tag_144\n      jump\t// in\n    tag_236:\n        /* \"#utility.yul\":10007:10146   */\n      swap1\n      pop\n        /* \"#utility.yul\":9734:10153   */\n      swap2\n      swap1\n      pop\n      jump\t// out\n        /* \"#utility.yul\":10159:10339   */\n    tag_145:\n        /* \"#utility.yul\":10207:10284   */\n      0x4e487b7100000000000000000000000000000000000000000000000000000000\n        /* \"#utility.yul\":10204:10205   */\n      0x00\n        /* \"#utility.yul\":10197:10285   */\n      mstore\n        /* \"#utility.yul\":10304:10308   */\n      0x11\n        /* \"#utility.yul\":10301:10302   */\n      0x04\n        /* \"#utility.yul\":10294:10309   */\n      mstore\n        /* \"#utility.yul\":10328:10332   */\n      0x24\n        /* \"#utility.yul\":10325:10326   */\n      0x00\n        /* \"#utility.yul\":10318:10333   */\n      revert\n        /* \"#utility.yul\":10345:10539   */\n    tag_106:\n        /* \"#utility.yul\":10385:10389   */\n      0x00\n        /* \"#utility.yul\":10405:10425   */\n      tag_239\n        /* \"#utility.yul\":10423:10424   */\n      dup3\n        /* \"#utility.yul\":10405:10425   */\n      tag_122\n      jump\t// in\n    tag_239:\n        /* \"#utility.yul\":10400:10425   */\n      swap2\n      pop\n        /* \"#utility.yul\":10439:10459   */\n      tag_240\n        /* \"#utility.yul\":10457:10458   */\n      dup4\n        /* \"#utility.yul\":10439:10459   */\n      tag_122\n      jump\t// in\n    tag_240:\n        /* \"#utility.yul\":10434:10459   */\n      swap3\n      pop\n        /* \"#utility.yul\":10483:10484   */\n      dup3\n        /* \"#utility.yul\":10480:10481   */\n      dup3\n        /* \"#utility.yul\":10476:10485   */\n      sub\n        /* \"#utility.yul\":10468:10485   */\n      swap1\n      pop\n        /* \"#utility.yul\":10507:10508   */\n      dup2\n        /* \"#utility.yul\":10501:10505   */\n      dup2\n        /* \"#utility.yul\":10498:10509   */\n      gt\n        /* \"#utility.yul\":10495:10532   */\n      iszero\n      tag_241\n      jumpi\n        /* \"#utility.yul\":10512:10530   */\n      tag_242\n      tag_145\n      jump\t// in\n    tag_242:\n        /* \"#utility.yul\":10495:10532   */\n    tag_241:\n        /* \"#utility.yul\":10345:10539   */\n      swap3\n      swap2\n      pop\n      pop\n      jump\t// out\n        /* \"#utility.yul\":10545:10771   */\n    tag_146:\n        /* \"#utility.yul\":10685:10719   */\n      0x4f6e6c7920746865204e4654206f776e65722063616e206368616e6765207468\n        /* \"#utility.yul\":10681:10682   */\n      0x00\n        /* \"#utility.yul\":10673:10679   */\n      dup3\n        /* \"#utility.yul\":10669:10683   */\n      add\n        /* \"#utility.yul\":10662:10720   */\n      mstore\n        /* \"#utility.yul\":10754:10763   */\n      0x6520707269636500000000000000000000000000000000000000000000000000\n        /* \"#utility.yul\":10749:10751   */\n      0x20\n        /* \"#utility.yul\":10741:10747   */\n      dup3\n        /* \"#utility.yul\":10737:10752   */\n      add\n        /* \"#utility.yul\":10730:10764   */\n      mstore\n        /* \"#utility.yul\":10545:10771   */\n      pop\n      jump\t// out\n        /* \"#utility.yul\":10777:11143   */\n    tag_147:\n        /* \"#utility.yul\":10919:10922   */\n      0x00\n        /* \"#utility.yul\":10940:11007   */\n      tag_245\n        /* \"#utility.yul\":11004:11006   */\n      0x27\n        /* \"#utility.yul\":10999:11002   */\n      dup4\n        /* \"#utility.yul\":10940:11007   */\n      tag_132\n      jump\t// in\n    tag_245:\n        /* \"#utility.yul\":10933:11007   */\n      swap2\n      pop\n        /* \"#utility.yul\":11016:11109   */\n      tag_246\n        /* \"#utility.yul\":11105:11108   */\n      dup3\n        /* \"#utility.yul\":11016:11109   */\n      tag_146\n      jump\t// in\n    tag_246:\n        /* \"#utility.yul\":11134:11136   */\n      0x40\n        /* \"#utility.yul\":11129:11132   */\n      dup3\n        /* \"#utility.yul\":11125:11137   */\n      add\n        /* \"#utility.yul\":11118:11137   */\n      swap1\n      pop\n        /* \"#utility.yul\":10777:11143   */\n      swap2\n      swap1\n      pop\n      jump\t// out\n        /* \"#utility.yul\":11149:11568   */\n    tag_115:\n        /* \"#utility.yul\":11315:11319   */\n      0x00\n        /* \"#utility.yul\":11353:11355   */\n      0x20\n        /* \"#utility.yul\":11342:11351   */\n      dup3\n        /* \"#utility.yul\":11338:11356   */\n      add\n        /* \"#utility.yul\":11330:11356   */\n      swap1\n      pop\n        /* \"#utility.yul\":11402:11411   */\n      dup2\n        /* \"#utility.yul\":11396:11400   */\n      dup2\n        /* \"#utility.yul\":11392:11412   */\n      sub\n        /* \"#utility.yul\":11388:11389   */\n      0x00\n        /* \"#utility.yul\":11377:11386   */\n      dup4\n        /* \"#utility.yul\":11373:11390   */\n      add\n        /* \"#utility.yul\":11366:11413   */\n      mstore\n        /* \"#utility.yul\":11430:11561   */\n      tag_248\n        /* \"#utility.yul\":11556:11560   */\n      dup2\n        /* \"#utility.yul\":11430:11561   */\n      tag_147\n      jump\t// in\n    tag_248:\n        /* \"#utility.yul\":11422:11561   */\n      swap1\n      pop\n        /* \"#utility.yul\":11149:11568   */\n      swap2\n      swap1\n      pop\n      jump\t// out\n\n    auxdata: 0xa264697066735822122030cb0ae5d8d0fe14c6aef5a38665a3262a798cdaf653509282cd0802aea2a22064736f6c634300081b0033\n}\n",
				"bytecode": {
					"linkReferences": {},
					"object": "6080604052348015600e575f5ffd5b5060405161161e38038061161e8339818101604052810190602e919060ac565b3360025f6101000a81548173ffffffffffffffffffffffffffffffffffffffff021916908373ffffffffffffffffffffffffffffffffffffffff160217905550806003819055505060d2565b5f5ffd5b5f819050919050565b608e81607e565b81146097575f5ffd5b50565b5f8151905060a6816087565b92915050565b5f6020828403121560be5760bd607a565b5b5f60c984828501609a565b91505092915050565b61153f806100df5f395ff3fe60806040526004361061009b575f3560e01c8063ba79b56411610063578063ba79b5641461016d578063d076f13f14610189578063d3f790d1146101b1578063d9f10a2b146101cd578063ddca3f431461020b578063edc4400a146102355761009b565b80631deb0a8f1461009f5780632a1236cb146100c75780633ccfd60b146100ef578063599db0f8146101055780638da5cb5b14610143575b5f5ffd5b3480156100aa575f5ffd5b506100c560048036038101906100c09190610f94565b61025d565b005b3480156100d2575f5ffd5b506100ed60048036038101906100e89190610ff2565b6103cf565b005b3480156100fa575f5ffd5b506101036104eb565b005b348015610110575f5ffd5b5061012b60048036038101906101269190611077565b6105e1565b60405161013a939291906110cf565b60405180910390f35b34801561014e575f5ffd5b50610157610631565b6040516101649190611104565b60405180910390f35b61018760048036038101906101829190611077565b610656565b005b348015610194575f5ffd5b506101af60048036038101906101aa9190610ff2565b610800565b005b6101cb60048036038101906101c69190611077565b610a9f565b005b3480156101d8575f5ffd5b506101f360048036038101906101ee9190610ff2565b610df2565b604051610202939291906110cf565b60405180910390f35b348015610216575f5ffd5b5061021f610e43565b60405161022c919061111d565b60405180910390f35b348015610240575f5ffd5b5061025b60048036038101906102569190610ff2565b610e49565b005b3373ffffffffffffffffffffffffffffffffffffffff165f5f3373ffffffffffffffffffffffffffffffffffffffff1673ffffffffffffffffffffffffffffffffffffffff1681526020019081526020015f205f015f9054906101000a900473ffffffffffffffffffffffffffffffffffffffff1673ffffffffffffffffffffffffffffffffffffffff1614610328576040517f08c379a000000000000000000000000000000000000000000000000000000000815260040161031f906111b6565b60405180910390fd5b805f5f3373ffffffffffffffffffffffffffffffffffffffff1673ffffffffffffffffffffffffffffffffffffffff1681526020019081526020015f206002015f6101000a81548160ff0219169083151502179055503373ffffffffffffffffffffffffffffffffffffffff167f70ef3845ba68086e52ce242eadb7f59e1c1fab1f45b808e24928a0e993ec7760826040516103c491906111d4565b60405180910390a250565b3373ffffffffffffffffffffffffffffffffffffffff165f5f3373ffffffffffffffffffffffffffffffffffffffff1673ffffffffffffffffffffffffffffffffffffffff1681526020019081526020015f205f015f9054906101000a900473ffffffffffffffffffffffffffffffffffffffff1673ffffffffffffffffffffffffffffffffffffffff161461049a576040517f08c379a000000000000000000000000000000000000000000000000000000000815260040161049190611237565b60405180910390fd5b3373ffffffffffffffffffffffffffffffffffffffff167f5c81d809b788873b136dc4f466964730ba9e25004fa953c321ccbcaf64560b56826040516104e0919061111d565b60405180910390a250565b60025f9054906101000a900473ffffffffffffffffffffffffffffffffffffffff1673ffffffffffffffffffffffffffffffffffffffff163373ffffffffffffffffffffffffffffffffffffffff161461057a576040517f08c379a0000000000000000000000000000000000000000000000000000000008152600401610571906112c5565b60405180910390fd5b60025f9054906101000a900473ffffffffffffffffffffffffffffffffffffffff1673ffffffffffffffffffffffffffffffffffffffff166108fc4790811502906040515f60405180830381858888f193505050501580156105de573d5f5f3e3d5ffd5b50565b5f602052805f5260405f205f91509050805f015f9054906101000a900473ffffffffffffffffffffffffffffffffffffffff1690806001015490806002015f9054906101000a900460ff16905083565b60025f9054906101000a900473ffffffffffffffffffffffffffffffffffffffff1681565b80600115155f5f8373ffffffffffffffffffffffffffffffffffffffff1673ffffffffffffffffffffffffffffffffffffffff1681526020019081526020015f206002015f9054906101000a900460ff161515146106e9576040517f08c379a00000000000000000000000000000000000000000000000000000000081526004016106e09061132d565b60405180910390fd5b5f5f8373ffffffffffffffffffffffffffffffffffffffff1673ffffffffffffffffffffffffffffffffffffffff1681526020019081526020015f20600101548034101561076c576040517f08c379a000000000000000000000000000000000000000000000000000000000815260040161076390611395565b60405180910390fd5b5f5f5f8573ffffffffffffffffffffffffffffffffffffffff1673ffffffffffffffffffffffffffffffffffffffff1681526020019081526020015f206001015490508034146107f1576040517f08c379a00000000000000000000000000000000000000000000000000000000081526004016107e8906113fd565b60405180910390fd5b6107fa33610a9f565b50505050565b3373ffffffffffffffffffffffffffffffffffffffff165f5f3373ffffffffffffffffffffffffffffffffffffffff1673ffffffffffffffffffffffffffffffffffffffff1681526020019081526020015f205f015f9054906101000a900473ffffffffffffffffffffffffffffffffffffffff1673ffffffffffffffffffffffffffffffffffffffff16146108cb576040517f08c379a00000000000000000000000000000000000000000000000000000000081526004016108c290611237565b60405180910390fd5b805f5f3373ffffffffffffffffffffffffffffffffffffffff1673ffffffffffffffffffffffffffffffffffffffff1681526020019081526020015f206001018190555060015f5f3373ffffffffffffffffffffffffffffffffffffffff1673ffffffffffffffffffffffffffffffffffffffff1681526020019081526020015f206002015f6101000a81548160ff0219169083151502179055505f5f3373ffffffffffffffffffffffffffffffffffffffff1673ffffffffffffffffffffffffffffffffffffffff1681526020019081526020015f2060015f8381526020019081526020015f205f82015f9054906101000a900473ffffffffffffffffffffffffffffffffffffffff16815f015f6101000a81548173ffffffffffffffffffffffffffffffffffffffff021916908373ffffffffffffffffffffffffffffffffffffffff16021790555060018201548160010155600282015f9054906101000a900460ff16816002015f6101000a81548160ff0219169083151502179055509050503373ffffffffffffffffffffffffffffffffffffffff167ff472bb8b2e698cee5cf56e4982e2ebb6690f88b55ea3a02d609bf32bcded382282604051610a94919061111d565b60405180910390a250565b33600115155f5f8373ffffffffffffffffffffffffffffffffffffffff1673ffffffffffffffffffffffffffffffffffffffff1681526020019081526020015f206002015f9054906101000a900460ff16151514610b32576040517f08c379a0000000000000000000000000000000000000000000000000000000008152600401610b299061132d565b60405180910390fd5b5f5f3373ffffffffffffffffffffffffffffffffffffffff1673ffffffffffffffffffffffffffffffffffffffff1681526020019081526020015f206001015480341015610bb5576040517f08c379a0000000000000000000000000000000000000000000000000000000008152600401610bac90611395565b60405180910390fd5b5f5f5f3373ffffffffffffffffffffffffffffffffffffffff1673ffffffffffffffffffffffffffffffffffffffff1681526020019081526020015f206001015490505f3390508073ffffffffffffffffffffffffffffffffffffffff166108fc60035484610c249190611448565b90811502906040515f60405180830381858888f19350505050158015610c4c573d5f5f3e3d5ffd5b5060025f9054906101000a900473ffffffffffffffffffffffffffffffffffffffff1673ffffffffffffffffffffffffffffffffffffffff166108fc60035490811502906040515f60405180830381858888f19350505050158015610cb3573d5f5f3e3d5ffd5b50845f5f8373ffffffffffffffffffffffffffffffffffffffff1673ffffffffffffffffffffffffffffffffffffffff1681526020019081526020015f205f015f6101000a81548173ffffffffffffffffffffffffffffffffffffffff021916908373ffffffffffffffffffffffffffffffffffffffff1602179055505f5f5f8373ffffffffffffffffffffffffffffffffffffffff1673ffffffffffffffffffffffffffffffffffffffff1681526020019081526020015f206002015f6101000a81548160ff0219169083151502179055508073ffffffffffffffffffffffffffffffffffffffff168573ffffffffffffffffffffffffffffffffffffffff167f777395bdf59f3645ce2ad2d0ea17e3d827249c006023a69bb899e5c4efbcced584604051610de3919061111d565b60405180910390a35050505050565b6001602052805f5260405f205f91509050805f015f9054906101000a900473ffffffffffffffffffffffffffffffffffffffff1690806001015490806002015f9054906101000a900460ff16905083565b60035481565b3373ffffffffffffffffffffffffffffffffffffffff165f5f3373ffffffffffffffffffffffffffffffffffffffff1673ffffffffffffffffffffffffffffffffffffffff1681526020019081526020015f205f015f9054906101000a900473ffffffffffffffffffffffffffffffffffffffff1673ffffffffffffffffffffffffffffffffffffffff1614610f14576040517f08c379a0000000000000000000000000000000000000000000000000000000008152600401610f0b906114eb565b60405180910390fd5b805f5f3373ffffffffffffffffffffffffffffffffffffffff1673ffffffffffffffffffffffffffffffffffffffff1681526020019081526020015f206001018190555050565b5f5ffd5b5f8115159050919050565b610f7381610f5f565b8114610f7d575f5ffd5b50565b5f81359050610f8e81610f6a565b92915050565b5f60208284031215610fa957610fa8610f5b565b5b5f610fb684828501610f80565b91505092915050565b5f819050919050565b610fd181610fbf565b8114610fdb575f5ffd5b50565b5f81359050610fec81610fc8565b92915050565b5f6020828403121561100757611006610f5b565b5b5f61101484828501610fde565b91505092915050565b5f73ffffffffffffffffffffffffffffffffffffffff82169050919050565b5f6110468261101d565b9050919050565b6110568161103c565b8114611060575f5ffd5b50565b5f813590506110718161104d565b92915050565b5f6020828403121561108c5761108b610f5b565b5b5f61109984828501611063565b91505092915050565b6110ab8161103c565b82525050565b6110ba81610fbf565b82525050565b6110c981610f5f565b82525050565b5f6060820190506110e25f8301866110a2565b6110ef60208301856110b1565b6110fc60408301846110c0565b949350505050565b5f6020820190506111175f8301846110a2565b92915050565b5f6020820190506111305f8301846110b1565b92915050565b5f82825260208201905092915050565b7f4f6e6c7920746865204e4654206f776e65722063616e206368616e67652069745f8201527f7320737461746500000000000000000000000000000000000000000000000000602082015250565b5f6111a0602783611136565b91506111ab82611146565b604082019050919050565b5f6020820190508181035f8301526111cd81611194565b9050919050565b5f6020820190506111e75f8301846110c0565b92915050565b7f596f7520646f206e6f74206f776e2074686973204e46540000000000000000005f82015250565b5f611221601783611136565b915061122c826111ed565b602082019050919050565b5f6020820190508181035f83015261124e81611215565b9050919050565b7f4f6e6c79206f776e65722063616e20706572666f726d207468697320616374695f8201527f6f6e000000000000000000000000000000000000000000000000000000000000602082015250565b5f6112af602283611136565b91506112ba82611255565b604082019050919050565b5f6020820190508181035f8301526112dc816112a3565b9050919050565b7f4e4654206973206e6f7420666f722073616c65000000000000000000000000005f82015250565b5f611317601383611136565b9150611322826112e3565b602082019050919050565b5f6020820190508181035f8301526113448161130b565b9050919050565b7f496e73756666696369656e742066756e647320746f20627579204e46540000005f82015250565b5f61137f601d83611136565b915061138a8261134b565b602082019050919050565b5f6020820190508181035f8301526113ac81611373565b9050919050565b7f496e636f72726563742063757272656e63792076616c756500000000000000005f82015250565b5f6113e7601883611136565b91506113f2826113b3565b602082019050919050565b5f6020820190508181035f830152611414816113db565b9050919050565b7f4e487b71000000000000000000000000000000000000000000000000000000005f52601160045260245ffd5b5f61145282610fbf565b915061145d83610fbf565b92508282039050818111156114755761147461141b565b5b92915050565b7f4f6e6c7920746865204e4654206f776e65722063616e206368616e67652074685f8201527f6520707269636500000000000000000000000000000000000000000000000000602082015250565b5f6114d5602783611136565b91506114e08261147b565b604082019050919050565b5f6020820190508181035f830152611502816114c9565b905091905056fea264697066735822122030cb0ae5d8d0fe14c6aef5a38665a3262a798cdaf653509282cd0802aea2a22064736f6c634300081b0033",
					"opcodes": "PUSH1 0x80 PUSH1 0x40 MSTORE CALLVALUE DUP1 ISZERO PUSH1 0xE JUMPI PUSH0 PUSH0 REVERT JUMPDEST POP PUSH1 0x40 MLOAD PUSH2 0x161E CODESIZE SUB DUP1 PUSH2 0x161E DUP4 CODECOPY DUP2 DUP2 ADD PUSH1 0x40 MSTORE DUP2 ADD SWAP1 PUSH1 0x2E SWAP2 SWAP1 PUSH1 0xAC JUMP JUMPDEST CALLER PUSH1 0x2 PUSH0 PUSH2 0x100 EXP DUP2 SLOAD DUP2 PUSH20 0xFFFFFFFFFFFFFFFFFFFFFFFFFFFFFFFFFFFFFFFF MUL NOT AND SWAP1 DUP4 PUSH20 0xFFFFFFFFFFFFFFFFFFFFFFFFFFFFFFFFFFFFFFFF AND MUL OR SWAP1 SSTORE POP DUP1 PUSH1 0x3 DUP2 SWAP1 SSTORE POP POP PUSH1 0xD2 JUMP JUMPDEST PUSH0 PUSH0 REVERT JUMPDEST PUSH0 DUP2 SWAP1 POP SWAP2 SWAP1 POP JUMP JUMPDEST PUSH1 0x8E DUP2 PUSH1 0x7E JUMP JUMPDEST DUP2 EQ PUSH1 0x97 JUMPI PUSH0 PUSH0 REVERT JUMPDEST POP JUMP JUMPDEST PUSH0 DUP2 MLOAD SWAP1 POP PUSH1 0xA6 DUP2 PUSH1 0x87 JUMP JUMPDEST SWAP3 SWAP2 POP POP JUMP JUMPDEST PUSH0 PUSH1 0x20 DUP3 DUP5 SUB SLT ISZERO PUSH1 0xBE JUMPI PUSH1 0xBD PUSH1 0x7A JUMP JUMPDEST JUMPDEST PUSH0 PUSH1 0xC9 DUP5 DUP3 DUP6 ADD PUSH1 0x9A JUMP JUMPDEST SWAP2 POP POP SWAP3 SWAP2 POP POP JUMP JUMPDEST PUSH2 0x153F DUP1 PUSH2 0xDF PUSH0 CODECOPY PUSH0 RETURN INVALID PUSH1 0x80 PUSH1 0x40 MSTORE PUSH1 0x4 CALLDATASIZE LT PUSH2 0x9B JUMPI PUSH0 CALLDATALOAD PUSH1 0xE0 SHR DUP1 PUSH4 0xBA79B564 GT PUSH2 0x63 JUMPI DUP1 PUSH4 0xBA79B564 EQ PUSH2 0x16D JUMPI DUP1 PUSH4 0xD076F13F EQ PUSH2 0x189 JUMPI DUP1 PUSH4 0xD3F790D1 EQ PUSH2 0x1B1 JUMPI DUP1 PUSH4 0xD9F10A2B EQ PUSH2 0x1CD JUMPI DUP1 PUSH4 0xDDCA3F43 EQ PUSH2 0x20B JUMPI DUP1 PUSH4 0xEDC4400A EQ PUSH2 0x235 JUMPI PUSH2 0x9B JUMP JUMPDEST DUP1 PUSH4 0x1DEB0A8F EQ PUSH2 0x9F JUMPI DUP1 PUSH4 0x2A1236CB EQ PUSH2 0xC7 JUMPI DUP1 PUSH4 0x3CCFD60B EQ PUSH2 0xEF JUMPI DUP1 PUSH4 0x599DB0F8 EQ PUSH2 0x105 JUMPI DUP1 PUSH4 0x8DA5CB5B EQ PUSH2 0x143 JUMPI JUMPDEST PUSH0 PUSH0 REVERT JUMPDEST CALLVALUE DUP1 ISZERO PUSH2 0xAA JUMPI PUSH0 PUSH0 REVERT JUMPDEST POP PUSH2 0xC5 PUSH1 0x4 DUP1 CALLDATASIZE SUB DUP2 ADD SWAP1 PUSH2 0xC0 SWAP2 SWAP1 PUSH2 0xF94 JUMP JUMPDEST PUSH2 0x25D JUMP JUMPDEST STOP JUMPDEST CALLVALUE DUP1 ISZERO PUSH2 0xD2 JUMPI PUSH0 PUSH0 REVERT JUMPDEST POP PUSH2 0xED PUSH1 0x4 DUP1 CALLDATASIZE SUB DUP2 ADD SWAP1 PUSH2 0xE8 SWAP2 SWAP1 PUSH2 0xFF2 JUMP JUMPDEST PUSH2 0x3CF JUMP JUMPDEST STOP JUMPDEST CALLVALUE DUP1 ISZERO PUSH2 0xFA JUMPI PUSH0 PUSH0 REVERT JUMPDEST POP PUSH2 0x103 PUSH2 0x4EB JUMP JUMPDEST STOP JUMPDEST CALLVALUE DUP1 ISZERO PUSH2 0x110 JUMPI PUSH0 PUSH0 REVERT JUMPDEST POP PUSH2 0x12B PUSH1 0x4 DUP1 CALLDATASIZE SUB DUP2 ADD SWAP1 PUSH2 0x126 SWAP2 SWAP1 PUSH2 0x1077 JUMP JUMPDEST PUSH2 0x5E1 JUMP JUMPDEST PUSH1 0x40 MLOAD PUSH2 0x13A SWAP4 SWAP3 SWAP2 SWAP1 PUSH2 0x10CF JUMP JUMPDEST PUSH1 0x40 MLOAD DUP1 SWAP2 SUB SWAP1 RETURN JUMPDEST CALLVALUE DUP1 ISZERO PUSH2 0x14E JUMPI PUSH0 PUSH0 REVERT JUMPDEST POP PUSH2 0x157 PUSH2 0x631 JUMP JUMPDEST PUSH1 0x40 MLOAD PUSH2 0x164 SWAP2 SWAP1 PUSH2 0x1104 JUMP JUMPDEST PUSH1 0x40 MLOAD DUP1 SWAP2 SUB SWAP1 RETURN JUMPDEST PUSH2 0x187 PUSH1 0x4 DUP1 CALLDATASIZE SUB DUP2 ADD SWAP1 PUSH2 0x182 SWAP2 SWAP1 PUSH2 0x1077 JUMP JUMPDEST PUSH2 0x656 JUMP JUMPDEST STOP JUMPDEST CALLVALUE DUP1 ISZERO PUSH2 0x194 JUMPI PUSH0 PUSH0 REVERT JUMPDEST POP PUSH2 0x1AF PUSH1 0x4 DUP1 CALLDATASIZE SUB DUP2 ADD SWAP1 PUSH2 0x1AA SWAP2 SWAP1 PUSH2 0xFF2 JUMP JUMPDEST PUSH2 0x800 JUMP JUMPDEST STOP JUMPDEST PUSH2 0x1CB PUSH1 0x4 DUP1 CALLDATASIZE SUB DUP2 ADD SWAP1 PUSH2 0x1C6 SWAP2 SWAP1 PUSH2 0x1077 JUMP JUMPDEST PUSH2 0xA9F JUMP JUMPDEST STOP JUMPDEST CALLVALUE DUP1 ISZERO PUSH2 0x1D8 JUMPI PUSH0 PUSH0 REVERT JUMPDEST POP PUSH2 0x1F3 PUSH1 0x4 DUP1 CALLDATASIZE SUB DUP2 ADD SWAP1 PUSH2 0x1EE SWAP2 SWAP1 PUSH2 0xFF2 JUMP JUMPDEST PUSH2 0xDF2 JUMP JUMPDEST PUSH1 0x40 MLOAD PUSH2 0x202 SWAP4 SWAP3 SWAP2 SWAP1 PUSH2 0x10CF JUMP JUMPDEST PUSH1 0x40 MLOAD DUP1 SWAP2 SUB SWAP1 RETURN JUMPDEST CALLVALUE DUP1 ISZERO PUSH2 0x216 JUMPI PUSH0 PUSH0 REVERT JUMPDEST POP PUSH2 0x21F PUSH2 0xE43 JUMP JUMPDEST PUSH1 0x40 MLOAD PUSH2 0x22C SWAP2 SWAP1 PUSH2 0x111D JUMP JUMPDEST PUSH1 0x40 MLOAD DUP1 SWAP2 SUB SWAP1 RETURN JUMPDEST CALLVALUE DUP1 ISZERO PUSH2 0x240 JUMPI PUSH0 PUSH0 REVERT JUMPDEST POP PUSH2 0x25B PUSH1 0x4 DUP1 CALLDATASIZE SUB DUP2 ADD SWAP1 PUSH2 0x256 SWAP2 SWAP1 PUSH2 0xFF2 JUMP JUMPDEST PUSH2 0xE49 JUMP JUMPDEST STOP JUMPDEST CALLER PUSH20 0xFFFFFFFFFFFFFFFFFFFFFFFFFFFFFFFFFFFFFFFF AND PUSH0 PUSH0 CALLER PUSH20 0xFFFFFFFFFFFFFFFFFFFFFFFFFFFFFFFFFFFFFFFF AND PUSH20 0xFFFFFFFFFFFFFFFFFFFFFFFFFFFFFFFFFFFFFFFF AND DUP2 MSTORE PUSH1 0x20 ADD SWAP1 DUP2 MSTORE PUSH1 0x20 ADD PUSH0 KECCAK256 PUSH0 ADD PUSH0 SWAP1 SLOAD SWAP1 PUSH2 0x100 EXP SWAP1 DIV PUSH20 0xFFFFFFFFFFFFFFFFFFFFFFFFFFFFFFFFFFFFFFFF AND PUSH20 0xFFFFFFFFFFFFFFFFFFFFFFFFFFFFFFFFFFFFFFFF AND EQ PUSH2 0x328 JUMPI PUSH1 0x40 MLOAD PUSH32 0x8C379A000000000000000000000000000000000000000000000000000000000 DUP2 MSTORE PUSH1 0x4 ADD PUSH2 0x31F SWAP1 PUSH2 0x11B6 JUMP JUMPDEST PUSH1 0x40 MLOAD DUP1 SWAP2 SUB SWAP1 REVERT JUMPDEST DUP1 PUSH0 PUSH0 CALLER PUSH20 0xFFFFFFFFFFFFFFFFFFFFFFFFFFFFFFFFFFFFFFFF AND PUSH20 0xFFFFFFFFFFFFFFFFFFFFFFFFFFFFFFFFFFFFFFFF AND DUP2 MSTORE PUSH1 0x20 ADD SWAP1 DUP2 MSTORE PUSH1 0x20 ADD PUSH0 KECCAK256 PUSH1 0x2 ADD PUSH0 PUSH2 0x100 EXP DUP2 SLOAD DUP2 PUSH1 0xFF MUL NOT AND SWAP1 DUP4 ISZERO ISZERO MUL OR SWAP1 SSTORE POP CALLER PUSH20 0xFFFFFFFFFFFFFFFFFFFFFFFFFFFFFFFFFFFFFFFF AND PUSH32 0x70EF3845BA68086E52CE242EADB7F59E1C1FAB1F45B808E24928A0E993EC7760 DUP3 PUSH1 0x40 MLOAD PUSH2 0x3C4 SWAP2 SWAP1 PUSH2 0x11D4 JUMP JUMPDEST PUSH1 0x40 MLOAD DUP1 SWAP2 SUB SWAP1 LOG2 POP JUMP JUMPDEST CALLER PUSH20 0xFFFFFFFFFFFFFFFFFFFFFFFFFFFFFFFFFFFFFFFF AND PUSH0 PUSH0 CALLER PUSH20 0xFFFFFFFFFFFFFFFFFFFFFFFFFFFFFFFFFFFFFFFF AND PUSH20 0xFFFFFFFFFFFFFFFFFFFFFFFFFFFFFFFFFFFFFFFF AND DUP2 MSTORE PUSH1 0x20 ADD SWAP1 DUP2 MSTORE PUSH1 0x20 ADD PUSH0 KECCAK256 PUSH0 ADD PUSH0 SWAP1 SLOAD SWAP1 PUSH2 0x100 EXP SWAP1 DIV PUSH20 0xFFFFFFFFFFFFFFFFFFFFFFFFFFFFFFFFFFFFFFFF AND PUSH20 0xFFFFFFFFFFFFFFFFFFFFFFFFFFFFFFFFFFFFFFFF AND EQ PUSH2 0x49A JUMPI PUSH1 0x40 MLOAD PUSH32 0x8C379A000000000000000000000000000000000000000000000000000000000 DUP2 MSTORE PUSH1 0x4 ADD PUSH2 0x491 SWAP1 PUSH2 0x1237 JUMP JUMPDEST PUSH1 0x40 MLOAD DUP1 SWAP2 SUB SWAP1 REVERT JUMPDEST CALLER PUSH20 0xFFFFFFFFFFFFFFFFFFFFFFFFFFFFFFFFFFFFFFFF AND PUSH32 0x5C81D809B788873B136DC4F466964730BA9E25004FA953C321CCBCAF64560B56 DUP3 PUSH1 0x40 MLOAD PUSH2 0x4E0 SWAP2 SWAP1 PUSH2 0x111D JUMP JUMPDEST PUSH1 0x40 MLOAD DUP1 SWAP2 SUB SWAP1 LOG2 POP JUMP JUMPDEST PUSH1 0x2 PUSH0 SWAP1 SLOAD SWAP1 PUSH2 0x100 EXP SWAP1 DIV PUSH20 0xFFFFFFFFFFFFFFFFFFFFFFFFFFFFFFFFFFFFFFFF AND PUSH20 0xFFFFFFFFFFFFFFFFFFFFFFFFFFFFFFFFFFFFFFFF AND CALLER PUSH20 0xFFFFFFFFFFFFFFFFFFFFFFFFFFFFFFFFFFFFFFFF AND EQ PUSH2 0x57A JUMPI PUSH1 0x40 MLOAD PUSH32 0x8C379A000000000000000000000000000000000000000000000000000000000 DUP2 MSTORE PUSH1 0x4 ADD PUSH2 0x571 SWAP1 PUSH2 0x12C5 JUMP JUMPDEST PUSH1 0x40 MLOAD DUP1 SWAP2 SUB SWAP1 REVERT JUMPDEST PUSH1 0x2 PUSH0 SWAP1 SLOAD SWAP1 PUSH2 0x100 EXP SWAP1 DIV PUSH20 0xFFFFFFFFFFFFFFFFFFFFFFFFFFFFFFFFFFFFFFFF AND PUSH20 0xFFFFFFFFFFFFFFFFFFFFFFFFFFFFFFFFFFFFFFFF AND PUSH2 0x8FC SELFBALANCE SWAP1 DUP2 ISZERO MUL SWAP1 PUSH1 0x40 MLOAD PUSH0 PUSH1 0x40 MLOAD DUP1 DUP4 SUB DUP2 DUP6 DUP9 DUP9 CALL SWAP4 POP POP POP POP ISZERO DUP1 ISZERO PUSH2 0x5DE JUMPI RETURNDATASIZE PUSH0 PUSH0 RETURNDATACOPY RETURNDATASIZE PUSH0 REVERT JUMPDEST POP JUMP JUMPDEST PUSH0 PUSH1 0x20 MSTORE DUP1 PUSH0 MSTORE PUSH1 0x40 PUSH0 KECCAK256 PUSH0 SWAP2 POP SWAP1 POP DUP1 PUSH0 ADD PUSH0 SWAP1 SLOAD SWAP1 PUSH2 0x100 EXP SWAP1 DIV PUSH20 0xFFFFFFFFFFFFFFFFFFFFFFFFFFFFFFFFFFFFFFFF AND SWAP1 DUP1 PUSH1 0x1 ADD SLOAD SWAP1 DUP1 PUSH1 0x2 ADD PUSH0 SWAP1 SLOAD SWAP1 PUSH2 0x100 EXP SWAP1 DIV PUSH1 0xFF AND SWAP1 POP DUP4 JUMP JUMPDEST PUSH1 0x2 PUSH0 SWAP1 SLOAD SWAP1 PUSH2 0x100 EXP SWAP1 DIV PUSH20 0xFFFFFFFFFFFFFFFFFFFFFFFFFFFFFFFFFFFFFFFF AND DUP2 JUMP JUMPDEST DUP1 PUSH1 0x1 ISZERO ISZERO PUSH0 PUSH0 DUP4 PUSH20 0xFFFFFFFFFFFFFFFFFFFFFFFFFFFFFFFFFFFFFFFF AND PUSH20 0xFFFFFFFFFFFFFFFFFFFFFFFFFFFFFFFFFFFFFFFF AND DUP2 MSTORE PUSH1 0x20 ADD SWAP1 DUP2 MSTORE PUSH1 0x20 ADD PUSH0 KECCAK256 PUSH1 0x2 ADD PUSH0 SWAP1 SLOAD SWAP1 PUSH2 0x100 EXP SWAP1 DIV PUSH1 0xFF AND ISZERO ISZERO EQ PUSH2 0x6E9 JUMPI PUSH1 0x40 MLOAD PUSH32 0x8C379A000000000000000000000000000000000000000000000000000000000 DUP2 MSTORE PUSH1 0x4 ADD PUSH2 0x6E0 SWAP1 PUSH2 0x132D JUMP JUMPDEST PUSH1 0x40 MLOAD DUP1 SWAP2 SUB SWAP1 REVERT JUMPDEST PUSH0 PUSH0 DUP4 PUSH20 0xFFFFFFFFFFFFFFFFFFFFFFFFFFFFFFFFFFFFFFFF AND PUSH20 0xFFFFFFFFFFFFFFFFFFFFFFFFFFFFFFFFFFFFFFFF AND DUP2 MSTORE PUSH1 0x20 ADD SWAP1 DUP2 MSTORE PUSH1 0x20 ADD PUSH0 KECCAK256 PUSH1 0x1 ADD SLOAD DUP1 CALLVALUE LT ISZERO PUSH2 0x76C JUMPI PUSH1 0x40 MLOAD PUSH32 0x8C379A000000000000000000000000000000000000000000000000000000000 DUP2 MSTORE PUSH1 0x4 ADD PUSH2 0x763 SWAP1 PUSH2 0x1395 JUMP JUMPDEST PUSH1 0x40 MLOAD DUP1 SWAP2 SUB SWAP1 REVERT JUMPDEST PUSH0 PUSH0 PUSH0 DUP6 PUSH20 0xFFFFFFFFFFFFFFFFFFFFFFFFFFFFFFFFFFFFFFFF AND PUSH20 0xFFFFFFFFFFFFFFFFFFFFFFFFFFFFFFFFFFFFFFFF AND DUP2 MSTORE PUSH1 0x20 ADD SWAP1 DUP2 MSTORE PUSH1 0x20 ADD PUSH0 KECCAK256 PUSH1 0x1 ADD SLOAD SWAP1 POP DUP1 CALLVALUE EQ PUSH2 0x7F1 JUMPI PUSH1 0x40 MLOAD PUSH32 0x8C379A000000000000000000000000000000000000000000000000000000000 DUP2 MSTORE PUSH1 0x4 ADD PUSH2 0x7E8 SWAP1 PUSH2 0x13FD JUMP JUMPDEST PUSH1 0x40 MLOAD DUP1 SWAP2 SUB SWAP1 REVERT JUMPDEST PUSH2 0x7FA CALLER PUSH2 0xA9F JUMP JUMPDEST POP POP POP POP JUMP JUMPDEST CALLER PUSH20 0xFFFFFFFFFFFFFFFFFFFFFFFFFFFFFFFFFFFFFFFF AND PUSH0 PUSH0 CALLER PUSH20 0xFFFFFFFFFFFFFFFFFFFFFFFFFFFFFFFFFFFFFFFF AND PUSH20 0xFFFFFFFFFFFFFFFFFFFFFFFFFFFFFFFFFFFFFFFF AND DUP2 MSTORE PUSH1 0x20 ADD SWAP1 DUP2 MSTORE PUSH1 0x20 ADD PUSH0 KECCAK256 PUSH0 ADD PUSH0 SWAP1 SLOAD SWAP1 PUSH2 0x100 EXP SWAP1 DIV PUSH20 0xFFFFFFFFFFFFFFFFFFFFFFFFFFFFFFFFFFFFFFFF AND PUSH20 0xFFFFFFFFFFFFFFFFFFFFFFFFFFFFFFFFFFFFFFFF AND EQ PUSH2 0x8CB JUMPI PUSH1 0x40 MLOAD PUSH32 0x8C379A000000000000000000000000000000000000000000000000000000000 DUP2 MSTORE PUSH1 0x4 ADD PUSH2 0x8C2 SWAP1 PUSH2 0x1237 JUMP JUMPDEST PUSH1 0x40 MLOAD DUP1 SWAP2 SUB SWAP1 REVERT JUMPDEST DUP1 PUSH0 PUSH0 CALLER PUSH20 0xFFFFFFFFFFFFFFFFFFFFFFFFFFFFFFFFFFFFFFFF AND PUSH20 0xFFFFFFFFFFFFFFFFFFFFFFFFFFFFFFFFFFFFFFFF AND DUP2 MSTORE PUSH1 0x20 ADD SWAP1 DUP2 MSTORE PUSH1 0x20 ADD PUSH0 KECCAK256 PUSH1 0x1 ADD DUP2 SWAP1 SSTORE POP PUSH1 0x1 PUSH0 PUSH0 CALLER PUSH20 0xFFFFFFFFFFFFFFFFFFFFFFFFFFFFFFFFFFFFFFFF AND PUSH20 0xFFFFFFFFFFFFFFFFFFFFFFFFFFFFFFFFFFFFFFFF AND DUP2 MSTORE PUSH1 0x20 ADD SWAP1 DUP2 MSTORE PUSH1 0x20 ADD PUSH0 KECCAK256 PUSH1 0x2 ADD PUSH0 PUSH2 0x100 EXP DUP2 SLOAD DUP2 PUSH1 0xFF MUL NOT AND SWAP1 DUP4 ISZERO ISZERO MUL OR SWAP1 SSTORE POP PUSH0 PUSH0 CALLER PUSH20 0xFFFFFFFFFFFFFFFFFFFFFFFFFFFFFFFFFFFFFFFF AND PUSH20 0xFFFFFFFFFFFFFFFFFFFFFFFFFFFFFFFFFFFFFFFF AND DUP2 MSTORE PUSH1 0x20 ADD SWAP1 DUP2 MSTORE PUSH1 0x20 ADD PUSH0 KECCAK256 PUSH1 0x1 PUSH0 DUP4 DUP2 MSTORE PUSH1 0x20 ADD SWAP1 DUP2 MSTORE PUSH1 0x20 ADD PUSH0 KECCAK256 PUSH0 DUP3 ADD PUSH0 SWAP1 SLOAD SWAP1 PUSH2 0x100 EXP SWAP1 DIV PUSH20 0xFFFFFFFFFFFFFFFFFFFFFFFFFFFFFFFFFFFFFFFF AND DUP2 PUSH0 ADD PUSH0 PUSH2 0x100 EXP DUP2 SLOAD DUP2 PUSH20 0xFFFFFFFFFFFFFFFFFFFFFFFFFFFFFFFFFFFFFFFF MUL NOT AND SWAP1 DUP4 PUSH20 0xFFFFFFFFFFFFFFFFFFFFFFFFFFFFFFFFFFFFFFFF AND MUL OR SWAP1 SSTORE POP PUSH1 0x1 DUP3 ADD SLOAD DUP2 PUSH1 0x1 ADD SSTORE PUSH1 0x2 DUP3 ADD PUSH0 SWAP1 SLOAD SWAP1 PUSH2 0x100 EXP SWAP1 DIV PUSH1 0xFF AND DUP2 PUSH1 0x2 ADD PUSH0 PUSH2 0x100 EXP DUP2 SLOAD DUP2 PUSH1 0xFF MUL NOT AND SWAP1 DUP4 ISZERO ISZERO MUL OR SWAP1 SSTORE POP SWAP1 POP POP CALLER PUSH20 0xFFFFFFFFFFFFFFFFFFFFFFFFFFFFFFFFFFFFFFFF AND PUSH32 0xF472BB8B2E698CEE5CF56E4982E2EBB6690F88B55EA3A02D609BF32BCDED3822 DUP3 PUSH1 0x40 MLOAD PUSH2 0xA94 SWAP2 SWAP1 PUSH2 0x111D JUMP JUMPDEST PUSH1 0x40 MLOAD DUP1 SWAP2 SUB SWAP1 LOG2 POP JUMP JUMPDEST CALLER PUSH1 0x1 ISZERO ISZERO PUSH0 PUSH0 DUP4 PUSH20 0xFFFFFFFFFFFFFFFFFFFFFFFFFFFFFFFFFFFFFFFF AND PUSH20 0xFFFFFFFFFFFFFFFFFFFFFFFFFFFFFFFFFFFFFFFF AND DUP2 MSTORE PUSH1 0x20 ADD SWAP1 DUP2 MSTORE PUSH1 0x20 ADD PUSH0 KECCAK256 PUSH1 0x2 ADD PUSH0 SWAP1 SLOAD SWAP1 PUSH2 0x100 EXP SWAP1 DIV PUSH1 0xFF AND ISZERO ISZERO EQ PUSH2 0xB32 JUMPI PUSH1 0x40 MLOAD PUSH32 0x8C379A000000000000000000000000000000000000000000000000000000000 DUP2 MSTORE PUSH1 0x4 ADD PUSH2 0xB29 SWAP1 PUSH2 0x132D JUMP JUMPDEST PUSH1 0x40 MLOAD DUP1 SWAP2 SUB SWAP1 REVERT JUMPDEST PUSH0 PUSH0 CALLER PUSH20 0xFFFFFFFFFFFFFFFFFFFFFFFFFFFFFFFFFFFFFFFF AND PUSH20 0xFFFFFFFFFFFFFFFFFFFFFFFFFFFFFFFFFFFFFFFF AND DUP2 MSTORE PUSH1 0x20 ADD SWAP1 DUP2 MSTORE PUSH1 0x20 ADD PUSH0 KECCAK256 PUSH1 0x1 ADD SLOAD DUP1 CALLVALUE LT ISZERO PUSH2 0xBB5 JUMPI PUSH1 0x40 MLOAD PUSH32 0x8C379A000000000000000000000000000000000000000000000000000000000 DUP2 MSTORE PUSH1 0x4 ADD PUSH2 0xBAC SWAP1 PUSH2 0x1395 JUMP JUMPDEST PUSH1 0x40 MLOAD DUP1 SWAP2 SUB SWAP1 REVERT JUMPDEST PUSH0 PUSH0 PUSH0 CALLER PUSH20 0xFFFFFFFFFFFFFFFFFFFFFFFFFFFFFFFFFFFFFFFF AND PUSH20 0xFFFFFFFFFFFFFFFFFFFFFFFFFFFFFFFFFFFFFFFF AND DUP2 MSTORE PUSH1 0x20 ADD SWAP1 DUP2 MSTORE PUSH1 0x20 ADD PUSH0 KECCAK256 PUSH1 0x1 ADD SLOAD SWAP1 POP PUSH0 CALLER SWAP1 POP DUP1 PUSH20 0xFFFFFFFFFFFFFFFFFFFFFFFFFFFFFFFFFFFFFFFF AND PUSH2 0x8FC PUSH1 0x3 SLOAD DUP5 PUSH2 0xC24 SWAP2 SWAP1 PUSH2 0x1448 JUMP JUMPDEST SWAP1 DUP2 ISZERO MUL SWAP1 PUSH1 0x40 MLOAD PUSH0 PUSH1 0x40 MLOAD DUP1 DUP4 SUB DUP2 DUP6 DUP9 DUP9 CALL SWAP4 POP POP POP POP ISZERO DUP1 ISZERO PUSH2 0xC4C JUMPI RETURNDATASIZE PUSH0 PUSH0 RETURNDATACOPY RETURNDATASIZE PUSH0 REVERT JUMPDEST POP PUSH1 0x2 PUSH0 SWAP1 SLOAD SWAP1 PUSH2 0x100 EXP SWAP1 DIV PUSH20 0xFFFFFFFFFFFFFFFFFFFFFFFFFFFFFFFFFFFFFFFF AND PUSH20 0xFFFFFFFFFFFFFFFFFFFFFFFFFFFFFFFFFFFFFFFF AND PUSH2 0x8FC PUSH1 0x3 SLOAD SWAP1 DUP2 ISZERO MUL SWAP1 PUSH1 0x40 MLOAD PUSH0 PUSH1 0x40 MLOAD DUP1 DUP4 SUB DUP2 DUP6 DUP9 DUP9 CALL SWAP4 POP POP POP POP ISZERO DUP1 ISZERO PUSH2 0xCB3 JUMPI RETURNDATASIZE PUSH0 PUSH0 RETURNDATACOPY RETURNDATASIZE PUSH0 REVERT JUMPDEST POP DUP5 PUSH0 PUSH0 DUP4 PUSH20 0xFFFFFFFFFFFFFFFFFFFFFFFFFFFFFFFFFFFFFFFF AND PUSH20 0xFFFFFFFFFFFFFFFFFFFFFFFFFFFFFFFFFFFFFFFF AND DUP2 MSTORE PUSH1 0x20 ADD SWAP1 DUP2 MSTORE PUSH1 0x20 ADD PUSH0 KECCAK256 PUSH0 ADD PUSH0 PUSH2 0x100 EXP DUP2 SLOAD DUP2 PUSH20 0xFFFFFFFFFFFFFFFFFFFFFFFFFFFFFFFFFFFFFFFF MUL NOT AND SWAP1 DUP4 PUSH20 0xFFFFFFFFFFFFFFFFFFFFFFFFFFFFFFFFFFFFFFFF AND MUL OR SWAP1 SSTORE POP PUSH0 PUSH0 PUSH0 DUP4 PUSH20 0xFFFFFFFFFFFFFFFFFFFFFFFFFFFFFFFFFFFFFFFF AND PUSH20 0xFFFFFFFFFFFFFFFFFFFFFFFFFFFFFFFFFFFFFFFF AND DUP2 MSTORE PUSH1 0x20 ADD SWAP1 DUP2 MSTORE PUSH1 0x20 ADD PUSH0 KECCAK256 PUSH1 0x2 ADD PUSH0 PUSH2 0x100 EXP DUP2 SLOAD DUP2 PUSH1 0xFF MUL NOT AND SWAP1 DUP4 ISZERO ISZERO MUL OR SWAP1 SSTORE POP DUP1 PUSH20 0xFFFFFFFFFFFFFFFFFFFFFFFFFFFFFFFFFFFFFFFF AND DUP6 PUSH20 0xFFFFFFFFFFFFFFFFFFFFFFFFFFFFFFFFFFFFFFFF AND PUSH32 0x777395BDF59F3645CE2AD2D0EA17E3D827249C006023A69BB899E5C4EFBCCED5 DUP5 PUSH1 0x40 MLOAD PUSH2 0xDE3 SWAP2 SWAP1 PUSH2 0x111D JUMP JUMPDEST PUSH1 0x40 MLOAD DUP1 SWAP2 SUB SWAP1 LOG3 POP POP POP POP POP JUMP JUMPDEST PUSH1 0x1 PUSH1 0x20 MSTORE DUP1 PUSH0 MSTORE PUSH1 0x40 PUSH0 KECCAK256 PUSH0 SWAP2 POP SWAP1 POP DUP1 PUSH0 ADD PUSH0 SWAP1 SLOAD SWAP1 PUSH2 0x100 EXP SWAP1 DIV PUSH20 0xFFFFFFFFFFFFFFFFFFFFFFFFFFFFFFFFFFFFFFFF AND SWAP1 DUP1 PUSH1 0x1 ADD SLOAD SWAP1 DUP1 PUSH1 0x2 ADD PUSH0 SWAP1 SLOAD SWAP1 PUSH2 0x100 EXP SWAP1 DIV PUSH1 0xFF AND SWAP1 POP DUP4 JUMP JUMPDEST PUSH1 0x3 SLOAD DUP2 JUMP JUMPDEST CALLER PUSH20 0xFFFFFFFFFFFFFFFFFFFFFFFFFFFFFFFFFFFFFFFF AND PUSH0 PUSH0 CALLER PUSH20 0xFFFFFFFFFFFFFFFFFFFFFFFFFFFFFFFFFFFFFFFF AND PUSH20 0xFFFFFFFFFFFFFFFFFFFFFFFFFFFFFFFFFFFFFFFF AND DUP2 MSTORE PUSH1 0x20 ADD SWAP1 DUP2 MSTORE PUSH1 0x20 ADD PUSH0 KECCAK256 PUSH0 ADD PUSH0 SWAP1 SLOAD SWAP1 PUSH2 0x100 EXP SWAP1 DIV PUSH20 0xFFFFFFFFFFFFFFFFFFFFFFFFFFFFFFFFFFFFFFFF AND PUSH20 0xFFFFFFFFFFFFFFFFFFFFFFFFFFFFFFFFFFFFFFFF AND EQ PUSH2 0xF14 JUMPI PUSH1 0x40 MLOAD PUSH32 0x8C379A000000000000000000000000000000000000000000000000000000000 DUP2 MSTORE PUSH1 0x4 ADD PUSH2 0xF0B SWAP1 PUSH2 0x14EB JUMP JUMPDEST PUSH1 0x40 MLOAD DUP1 SWAP2 SUB SWAP1 REVERT JUMPDEST DUP1 PUSH0 PUSH0 CALLER PUSH20 0xFFFFFFFFFFFFFFFFFFFFFFFFFFFFFFFFFFFFFFFF AND PUSH20 0xFFFFFFFFFFFFFFFFFFFFFFFFFFFFFFFFFFFFFFFF AND DUP2 MSTORE PUSH1 0x20 ADD SWAP1 DUP2 MSTORE PUSH1 0x20 ADD PUSH0 KECCAK256 PUSH1 0x1 ADD DUP2 SWAP1 SSTORE POP POP JUMP JUMPDEST PUSH0 PUSH0 REVERT JUMPDEST PUSH0 DUP2 ISZERO ISZERO SWAP1 POP SWAP2 SWAP1 POP JUMP JUMPDEST PUSH2 0xF73 DUP2 PUSH2 0xF5F JUMP JUMPDEST DUP2 EQ PUSH2 0xF7D JUMPI PUSH0 PUSH0 REVERT JUMPDEST POP JUMP JUMPDEST PUSH0 DUP2 CALLDATALOAD SWAP1 POP PUSH2 0xF8E DUP2 PUSH2 0xF6A JUMP JUMPDEST SWAP3 SWAP2 POP POP JUMP JUMPDEST PUSH0 PUSH1 0x20 DUP3 DUP5 SUB SLT ISZERO PUSH2 0xFA9 JUMPI PUSH2 0xFA8 PUSH2 0xF5B JUMP JUMPDEST JUMPDEST PUSH0 PUSH2 0xFB6 DUP5 DUP3 DUP6 ADD PUSH2 0xF80 JUMP JUMPDEST SWAP2 POP POP SWAP3 SWAP2 POP POP JUMP JUMPDEST PUSH0 DUP2 SWAP1 POP SWAP2 SWAP1 POP JUMP JUMPDEST PUSH2 0xFD1 DUP2 PUSH2 0xFBF JUMP JUMPDEST DUP2 EQ PUSH2 0xFDB JUMPI PUSH0 PUSH0 REVERT JUMPDEST POP JUMP JUMPDEST PUSH0 DUP2 CALLDATALOAD SWAP1 POP PUSH2 0xFEC DUP2 PUSH2 0xFC8 JUMP JUMPDEST SWAP3 SWAP2 POP POP JUMP JUMPDEST PUSH0 PUSH1 0x20 DUP3 DUP5 SUB SLT ISZERO PUSH2 0x1007 JUMPI PUSH2 0x1006 PUSH2 0xF5B JUMP JUMPDEST JUMPDEST PUSH0 PUSH2 0x1014 DUP5 DUP3 DUP6 ADD PUSH2 0xFDE JUMP JUMPDEST SWAP2 POP POP SWAP3 SWAP2 POP POP JUMP JUMPDEST PUSH0 PUSH20 0xFFFFFFFFFFFFFFFFFFFFFFFFFFFFFFFFFFFFFFFF DUP3 AND SWAP1 POP SWAP2 SWAP1 POP JUMP JUMPDEST PUSH0 PUSH2 0x1046 DUP3 PUSH2 0x101D JUMP JUMPDEST SWAP1 POP SWAP2 SWAP1 POP JUMP JUMPDEST PUSH2 0x1056 DUP2 PUSH2 0x103C JUMP JUMPDEST DUP2 EQ PUSH2 0x1060 JUMPI PUSH0 PUSH0 REVERT JUMPDEST POP JUMP JUMPDEST PUSH0 DUP2 CALLDATALOAD SWAP1 POP PUSH2 0x1071 DUP2 PUSH2 0x104D JUMP JUMPDEST SWAP3 SWAP2 POP POP JUMP JUMPDEST PUSH0 PUSH1 0x20 DUP3 DUP5 SUB SLT ISZERO PUSH2 0x108C JUMPI PUSH2 0x108B PUSH2 0xF5B JUMP JUMPDEST JUMPDEST PUSH0 PUSH2 0x1099 DUP5 DUP3 DUP6 ADD PUSH2 0x1063 JUMP JUMPDEST SWAP2 POP POP SWAP3 SWAP2 POP POP JUMP JUMPDEST PUSH2 0x10AB DUP2 PUSH2 0x103C JUMP JUMPDEST DUP3 MSTORE POP POP JUMP JUMPDEST PUSH2 0x10BA DUP2 PUSH2 0xFBF JUMP JUMPDEST DUP3 MSTORE POP POP JUMP JUMPDEST PUSH2 0x10C9 DUP2 PUSH2 0xF5F JUMP JUMPDEST DUP3 MSTORE POP POP JUMP JUMPDEST PUSH0 PUSH1 0x60 DUP3 ADD SWAP1 POP PUSH2 0x10E2 PUSH0 DUP4 ADD DUP7 PUSH2 0x10A2 JUMP JUMPDEST PUSH2 0x10EF PUSH1 0x20 DUP4 ADD DUP6 PUSH2 0x10B1 JUMP JUMPDEST PUSH2 0x10FC PUSH1 0x40 DUP4 ADD DUP5 PUSH2 0x10C0 JUMP JUMPDEST SWAP5 SWAP4 POP POP POP POP JUMP JUMPDEST PUSH0 PUSH1 0x20 DUP3 ADD SWAP1 POP PUSH2 0x1117 PUSH0 DUP4 ADD DUP5 PUSH2 0x10A2 JUMP JUMPDEST SWAP3 SWAP2 POP POP JUMP JUMPDEST PUSH0 PUSH1 0x20 DUP3 ADD SWAP1 POP PUSH2 0x1130 PUSH0 DUP4 ADD DUP5 PUSH2 0x10B1 JUMP JUMPDEST SWAP3 SWAP2 POP POP JUMP JUMPDEST PUSH0 DUP3 DUP3 MSTORE PUSH1 0x20 DUP3 ADD SWAP1 POP SWAP3 SWAP2 POP POP JUMP JUMPDEST PUSH32 0x4F6E6C7920746865204E4654206F776E65722063616E206368616E6765206974 PUSH0 DUP3 ADD MSTORE PUSH32 0x7320737461746500000000000000000000000000000000000000000000000000 PUSH1 0x20 DUP3 ADD MSTORE POP JUMP JUMPDEST PUSH0 PUSH2 0x11A0 PUSH1 0x27 DUP4 PUSH2 0x1136 JUMP JUMPDEST SWAP2 POP PUSH2 0x11AB DUP3 PUSH2 0x1146 JUMP JUMPDEST PUSH1 0x40 DUP3 ADD SWAP1 POP SWAP2 SWAP1 POP JUMP JUMPDEST PUSH0 PUSH1 0x20 DUP3 ADD SWAP1 POP DUP2 DUP2 SUB PUSH0 DUP4 ADD MSTORE PUSH2 0x11CD DUP2 PUSH2 0x1194 JUMP JUMPDEST SWAP1 POP SWAP2 SWAP1 POP JUMP JUMPDEST PUSH0 PUSH1 0x20 DUP3 ADD SWAP1 POP PUSH2 0x11E7 PUSH0 DUP4 ADD DUP5 PUSH2 0x10C0 JUMP JUMPDEST SWAP3 SWAP2 POP POP JUMP JUMPDEST PUSH32 0x596F7520646F206E6F74206F776E2074686973204E4654000000000000000000 PUSH0 DUP3 ADD MSTORE POP JUMP JUMPDEST PUSH0 PUSH2 0x1221 PUSH1 0x17 DUP4 PUSH2 0x1136 JUMP JUMPDEST SWAP2 POP PUSH2 0x122C DUP3 PUSH2 0x11ED JUMP JUMPDEST PUSH1 0x20 DUP3 ADD SWAP1 POP SWAP2 SWAP1 POP JUMP JUMPDEST PUSH0 PUSH1 0x20 DUP3 ADD SWAP1 POP DUP2 DUP2 SUB PUSH0 DUP4 ADD MSTORE PUSH2 0x124E DUP2 PUSH2 0x1215 JUMP JUMPDEST SWAP1 POP SWAP2 SWAP1 POP JUMP JUMPDEST PUSH32 0x4F6E6C79206F776E65722063616E20706572666F726D20746869732061637469 PUSH0 DUP3 ADD MSTORE PUSH32 0x6F6E000000000000000000000000000000000000000000000000000000000000 PUSH1 0x20 DUP3 ADD MSTORE POP JUMP JUMPDEST PUSH0 PUSH2 0x12AF PUSH1 0x22 DUP4 PUSH2 0x1136 JUMP JUMPDEST SWAP2 POP PUSH2 0x12BA DUP3 PUSH2 0x1255 JUMP JUMPDEST PUSH1 0x40 DUP3 ADD SWAP1 POP SWAP2 SWAP1 POP JUMP JUMPDEST PUSH0 PUSH1 0x20 DUP3 ADD SWAP1 POP DUP2 DUP2 SUB PUSH0 DUP4 ADD MSTORE PUSH2 0x12DC DUP2 PUSH2 0x12A3 JUMP JUMPDEST SWAP1 POP SWAP2 SWAP1 POP JUMP JUMPDEST PUSH32 0x4E4654206973206E6F7420666F722073616C6500000000000000000000000000 PUSH0 DUP3 ADD MSTORE POP JUMP JUMPDEST PUSH0 PUSH2 0x1317 PUSH1 0x13 DUP4 PUSH2 0x1136 JUMP JUMPDEST SWAP2 POP PUSH2 0x1322 DUP3 PUSH2 0x12E3 JUMP JUMPDEST PUSH1 0x20 DUP3 ADD SWAP1 POP SWAP2 SWAP1 POP JUMP JUMPDEST PUSH0 PUSH1 0x20 DUP3 ADD SWAP1 POP DUP2 DUP2 SUB PUSH0 DUP4 ADD MSTORE PUSH2 0x1344 DUP2 PUSH2 0x130B JUMP JUMPDEST SWAP1 POP SWAP2 SWAP1 POP JUMP JUMPDEST PUSH32 0x496E73756666696369656E742066756E647320746F20627579204E4654000000 PUSH0 DUP3 ADD MSTORE POP JUMP JUMPDEST PUSH0 PUSH2 0x137F PUSH1 0x1D DUP4 PUSH2 0x1136 JUMP JUMPDEST SWAP2 POP PUSH2 0x138A DUP3 PUSH2 0x134B JUMP JUMPDEST PUSH1 0x20 DUP3 ADD SWAP1 POP SWAP2 SWAP1 POP JUMP JUMPDEST PUSH0 PUSH1 0x20 DUP3 ADD SWAP1 POP DUP2 DUP2 SUB PUSH0 DUP4 ADD MSTORE PUSH2 0x13AC DUP2 PUSH2 0x1373 JUMP JUMPDEST SWAP1 POP SWAP2 SWAP1 POP JUMP JUMPDEST PUSH32 0x496E636F72726563742063757272656E63792076616C75650000000000000000 PUSH0 DUP3 ADD MSTORE POP JUMP JUMPDEST PUSH0 PUSH2 0x13E7 PUSH1 0x18 DUP4 PUSH2 0x1136 JUMP JUMPDEST SWAP2 POP PUSH2 0x13F2 DUP3 PUSH2 0x13B3 JUMP JUMPDEST PUSH1 0x20 DUP3 ADD SWAP1 POP SWAP2 SWAP1 POP JUMP JUMPDEST PUSH0 PUSH1 0x20 DUP3 ADD SWAP1 POP DUP2 DUP2 SUB PUSH0 DUP4 ADD MSTORE PUSH2 0x1414 DUP2 PUSH2 0x13DB JUMP JUMPDEST SWAP1 POP SWAP2 SWAP1 POP JUMP JUMPDEST PUSH32 0x4E487B7100000000000000000000000000000000000000000000000000000000 PUSH0 MSTORE PUSH1 0x11 PUSH1 0x4 MSTORE PUSH1 0x24 PUSH0 REVERT JUMPDEST PUSH0 PUSH2 0x1452 DUP3 PUSH2 0xFBF JUMP JUMPDEST SWAP2 POP PUSH2 0x145D DUP4 PUSH2 0xFBF JUMP JUMPDEST SWAP3 POP DUP3 DUP3 SUB SWAP1 POP DUP2 DUP2 GT ISZERO PUSH2 0x1475 JUMPI PUSH2 0x1474 PUSH2 0x141B JUMP JUMPDEST JUMPDEST SWAP3 SWAP2 POP POP JUMP JUMPDEST PUSH32 0x4F6E6C7920746865204E4654206F776E65722063616E206368616E6765207468 PUSH0 DUP3 ADD MSTORE PUSH32 0x6520707269636500000000000000000000000000000000000000000000000000 PUSH1 0x20 DUP3 ADD MSTORE POP JUMP JUMPDEST PUSH0 PUSH2 0x14D5 PUSH1 0x27 DUP4 PUSH2 0x1136 JUMP JUMPDEST SWAP2 POP PUSH2 0x14E0 DUP3 PUSH2 0x147B JUMP JUMPDEST PUSH1 0x40 DUP3 ADD SWAP1 POP SWAP2 SWAP1 POP JUMP JUMPDEST PUSH0 PUSH1 0x20 DUP3 ADD SWAP1 POP DUP2 DUP2 SUB PUSH0 DUP4 ADD MSTORE PUSH2 0x1502 DUP2 PUSH2 0x14C9 JUMP JUMPDEST SWAP1 POP SWAP2 SWAP1 POP JUMP INVALID LOG2 PUSH5 0x6970667358 0x22 SLT KECCAK256 ADDRESS 0xCB EXP 0xE5 0xD8 0xD0 INVALID EQ 0xC6 0xAE CREATE2 LOG3 DUP7 PUSH6 0xA3262A798CDA 0xF6 MSTORE8 POP SWAP3 DUP3 0xCD ADDMOD MUL 0xAE LOG2 LOG2 KECCAK256 PUSH5 0x736F6C6343 STOP ADDMOD SHL STOP CALLER "
				},
				"gasEstimates": {
					"creation": {
						"codeDepositCost": "1087800",
						"executionCost": "infinite",
						"totalCost": "infinite"
					},
					"external": {
						"auctionNFT(uint256)": "infinite",
						"buyNFT(address)": "infinite",
						"changeNFTPrice(uint256)": "24977",
						"changeState(bool)": "infinite",
						"fee()": "2513",
						"listNFT(uint256)": "infinite",
						"nftPrices(uint256)": "infinite",
						"nfts(address)": "infinite",
						"owner()": "2597",
						"sellNFT(address)": "infinite",
						"withdraw()": "infinite"
					}
				},
				"methodIdentifiers": {
					"auctionNFT(uint256)": "2a1236cb",
					"buyNFT(address)": "ba79b564",
					"changeNFTPrice(uint256)": "edc4400a",
					"changeState(bool)": "1deb0a8f",
					"fee()": "ddca3f43",
					"listNFT(uint256)": "d076f13f",
					"nftPrices(uint256)": "d9f10a2b",
					"nfts(address)": "599db0f8",
					"owner()": "8da5cb5b",
					"sellNFT(address)": "d3f790d1",
					"withdraw()": "3ccfd60b"
				}
			},
			"storageLayout": {
				"storage": [
					{
						"astId": 13,
						"contract": "CrNFTMarketPlace/contracts/CrNFTMarketPlace.sol:CrNFTMarketPlace",
						"label": "nfts",
						"offset": 0,
						"slot": "0",
						"type": "t_mapping(t_address,t_struct(NFT)8_storage)"
					},
					{
						"astId": 18,
						"contract": "CrNFTMarketPlace/contracts/CrNFTMarketPlace.sol:CrNFTMarketPlace",
						"label": "nftPrices",
						"offset": 0,
						"slot": "1",
						"type": "t_mapping(t_uint256,t_struct(NFT)8_storage)"
					},
					{
						"astId": 20,
						"contract": "CrNFTMarketPlace/contracts/CrNFTMarketPlace.sol:CrNFTMarketPlace",
						"label": "owner",
						"offset": 0,
						"slot": "2",
						"type": "t_address"
					},
					{
						"astId": 22,
						"contract": "CrNFTMarketPlace/contracts/CrNFTMarketPlace.sol:CrNFTMarketPlace",
						"label": "fee",
						"offset": 0,
						"slot": "3",
						"type": "t_uint256"
					}
				],
				"types": {
					"t_address": {
						"encoding": "inplace",
						"label": "address",
						"numberOfBytes": "20"
					},
					"t_bool": {
						"encoding": "inplace",
						"label": "bool",
						"numberOfBytes": "1"
					},
					"t_mapping(t_address,t_struct(NFT)8_storage)": {
						"encoding": "mapping",
						"key": "t_address",
						"label": "mapping(address => struct CrNFTMarketPlace.NFT)",
						"numberOfBytes": "32",
						"value": "t_struct(NFT)8_storage"
					},
					"t_mapping(t_uint256,t_struct(NFT)8_storage)": {
						"encoding": "mapping",
						"key": "t_uint256",
						"label": "mapping(uint256 => struct CrNFTMarketPlace.NFT)",
						"numberOfBytes": "32",
						"value": "t_struct(NFT)8_storage"
					},
					"t_struct(NFT)8_storage": {
						"encoding": "inplace",
						"label": "struct CrNFTMarketPlace.NFT",
						"members": [
							{
								"astId": 3,
								"contract": "CrNFTMarketPlace/contracts/CrNFTMarketPlace.sol:CrNFTMarketPlace",
								"label": "owner",
								"offset": 0,
								"slot": "0",
								"type": "t_address"
							},
							{
								"astId": 5,
								"contract": "CrNFTMarketPlace/contracts/CrNFTMarketPlace.sol:CrNFTMarketPlace",
								"label": "price",
								"offset": 0,
								"slot": "1",
								"type": "t_uint256"
							},
							{
								"astId": 7,
								"contract": "CrNFTMarketPlace/contracts/CrNFTMarketPlace.sol:CrNFTMarketPlace",
								"label": "isForSale",
								"offset": 0,
								"slot": "2",
								"type": "t_bool"
							}
						],
						"numberOfBytes": "96"
					},
					"t_uint256": {
						"encoding": "inplace",
						"label": "uint256",
						"numberOfBytes": "32"
					}
				}
			},
			"userdoc": {
				"kind": "user",
				"methods": {},
				"version": 1
			}
		}
	}
}