{
	"CrNFTMarketPlace/contracts/CrNFTMarketPlace.sol": {
		"CrNFTMarketPlace": {
			"abi": [
				{
					"inputs": [
						{
							"internalType": "uint256",
							"name": "_fee",
							"type": "uint256"
						}
					],
					"stateMutability": "nonpayable",
					"type": "constructor"
				},
				{
					"anonymous": false,
					"inputs": [
						{
							"indexed": true,
							"internalType": "address",
							"name": "seller",
							"type": "address"
						},
						{
							"indexed": false,
							"internalType": "uint256",
							"name": "minPrice",
							"type": "uint256"
						}
					],
					"name": "NFTAuctioned",
					"type": "event"
				},
				{
					"anonymous": false,
					"inputs": [
						{
							"indexed": true,
							"internalType": "address",
							"name": "owner",
							"type": "address"
						},
						{
							"indexed": false,
							"internalType": "uint256",
							"name": "price",
							"type": "uint256"
						}
					],
					"name": "NFTListed",
					"type": "event"
				},
				{
					"anonymous": false,
					"inputs": [
						{
							"indexed": true,
							"internalType": "address",
							"name": "recipient",
							"type": "address"
						},
						{
							"indexed": false,
							"internalType": "uint256",
							"name": "price",
							"type": "uint256"
						}
					],
					"name": "NFTMinted",
					"type": "event"
				},
				{
					"anonymous": false,
					"inputs": [
						{
							"indexed": true,
							"internalType": "address",
							"name": "buyer",
							"type": "address"
						},
						{
							"indexed": true,
							"internalType": "address",
							"name": "seller",
							"type": "address"
						},
						{
							"indexed": false,
							"internalType": "uint256",
							"name": "price",
							"type": "uint256"
						}
					],
					"name": "NFTSold",
					"type": "event"
				},
				{
					"anonymous": false,
					"inputs": [
						{
							"indexed": true,
							"internalType": "address",
							"name": "nftOwner",
							"type": "address"
						},
						{
							"indexed": false,
							"internalType": "bool",
							"name": "isForSale",
							"type": "bool"
						}
					],
					"name": "NFTStateChanged",
					"type": "event"
				},
				{
					"inputs": [
						{
							"internalType": "uint256",
							"name": "minPrice",
							"type": "uint256"
						}
					],
					"name": "auctionNFT",
					"outputs": [],
					"stateMutability": "nonpayable",
					"type": "function"
				},
				{
					"inputs": [
						{
							"internalType": "address",
							"name": "nftAddress",
							"type": "address"
						}
					],
					"name": "buyNFT",
					"outputs": [],
					"stateMutability": "payable",
					"type": "function"
				},
				{
					"inputs": [
						{
							"internalType": "uint256",
							"name": "newPrice",
							"type": "uint256"
						}
					],
					"name": "changeNFTPrice",
					"outputs": [],
					"stateMutability": "nonpayable",
					"type": "function"
				},
				{
					"inputs": [
						{
							"internalType": "bool",
							"name": "_isForSale",
							"type": "bool"
						}
					],
					"name": "changeState",
					"outputs": [],
					"stateMutability": "nonpayable",
					"type": "function"
				},
				{
					"inputs": [],
					"name": "fee",
					"outputs": [
						{
							"internalType": "uint256",
							"name": "",
							"type": "uint256"
						}
					],
					"stateMutability": "view",
					"type": "function"
				},
				{
					"inputs": [
						{
							"internalType": "uint256",
							"name": "price",
							"type": "uint256"
						}
					],
					"name": "listNFT",
					"outputs": [],
					"stateMutability": "nonpayable",
					"type": "function"
				},
				{
					"inputs": [
						{
							"internalType": "address",
							"name": "recipient",
							"type": "address"
						},
						{
							"internalType": "uint256",
							"name": "price",
							"type": "uint256"
						}
					],
					"name": "mintNFT",
					"outputs": [],
					"stateMutability": "nonpayable",
					"type": "function"
				},
				{
					"inputs": [
						{
							"internalType": "uint256",
							"name": "",
							"type": "uint256"
						}
					],
					"name": "nftPrices",
					"outputs": [
						{
							"internalType": "address",
							"name": "owner",
							"type": "address"
						},
						{
							"internalType": "uint256",
							"name": "price",
							"type": "uint256"
						},
						{
							"internalType": "bool",
							"name": "isForSale",
							"type": "bool"
						}
					],
					"stateMutability": "view",
					"type": "function"
				},
				{
					"inputs": [
						{
							"internalType": "address",
							"name": "",
							"type": "address"
						}
					],
					"name": "nfts",
					"outputs": [
						{
							"internalType": "address",
							"name": "owner",
							"type": "address"
						},
						{
							"internalType": "uint256",
							"name": "price",
							"type": "uint256"
						},
						{
							"internalType": "bool",
							"name": "isForSale",
							"type": "bool"
						}
					],
					"stateMutability": "view",
					"type": "function"
				},
				{
					"inputs": [],
					"name": "owner",
					"outputs": [
						{
							"internalType": "address",
							"name": "",
							"type": "address"
						}
					],
					"stateMutability": "view",
					"type": "function"
				},
				{
					"inputs": [
						{
							"internalType": "address",
							"name": "buyer",
							"type": "address"
						}
					],
					"name": "sellNFT",
					"outputs": [],
					"stateMutability": "payable",
					"type": "function"
				},
				{
					"inputs": [],
					"name": "withdraw",
					"outputs": [],
					"stateMutability": "nonpayable",
					"type": "function"
				}
			],
			"devdoc": {
				"kind": "dev",
				"methods": {},
				"version": 1
			},
			"evm": {
				"assembly": "    /* \"CrNFTMarketPlace/contracts/CrNFTMarketPlace.sol\":620:3902  contract CrNFTMarketPlace {... */\n  mstore(0x40, 0x80)\n    /* \"CrNFTMarketPlace/contracts/CrNFTMarketPlace.sol\":1659:1740  constructor(uint256 _fee) {... */\n  callvalue\n  dup1\n  iszero\n  tag_1\n  jumpi\n  revert(0x00, 0x00)\ntag_1:\n  pop\n  mload(0x40)\n  sub(codesize, bytecodeSize)\n  dup1\n  bytecodeSize\n  dup4\n  codecopy\n  dup2\n  dup2\n  add\n  0x40\n  mstore\n  dup2\n  add\n  swap1\n  tag_2\n  swap2\n  swap1\n  tag_3\n  jump\t// in\ntag_2:\n    /* \"CrNFTMarketPlace/contracts/CrNFTMarketPlace.sol\":1703:1713  msg.sender */\n  caller\n    /* \"CrNFTMarketPlace/contracts/CrNFTMarketPlace.sol\":1695:1700  owner */\n  0x02\n  0x00\n    /* \"CrNFTMarketPlace/contracts/CrNFTMarketPlace.sol\":1695:1713  owner = msg.sender */\n  0x0100\n  exp\n  dup2\n  sload\n  dup2\n  0xffffffffffffffffffffffffffffffffffffffff\n  mul\n  not\n  and\n  swap1\n  dup4\n  0xffffffffffffffffffffffffffffffffffffffff\n  and\n  mul\n  or\n  swap1\n  sstore\n  pop\n    /* \"CrNFTMarketPlace/contracts/CrNFTMarketPlace.sol\":1729:1733  _fee */\n  dup1\n    /* \"CrNFTMarketPlace/contracts/CrNFTMarketPlace.sol\":1723:1726  fee */\n  0x03\n    /* \"CrNFTMarketPlace/contracts/CrNFTMarketPlace.sol\":1723:1733  fee = _fee */\n  dup2\n  swap1\n  sstore\n  pop\n    /* \"CrNFTMarketPlace/contracts/CrNFTMarketPlace.sol\":1659:1740  constructor(uint256 _fee) {... */\n  pop\n    /* \"CrNFTMarketPlace/contracts/CrNFTMarketPlace.sol\":620:3902  contract CrNFTMarketPlace {... */\n  jump(tag_6)\n    /* \"#utility.yul\":88:205   */\ntag_8:\n    /* \"#utility.yul\":197:198   */\n  0x00\n    /* \"#utility.yul\":194:195   */\n  0x00\n    /* \"#utility.yul\":187:199   */\n  revert\n    /* \"#utility.yul\":334:411   */\ntag_10:\n    /* \"#utility.yul\":371:378   */\n  0x00\n    /* \"#utility.yul\":400:405   */\n  dup2\n    /* \"#utility.yul\":389:405   */\n  swap1\n  pop\n    /* \"#utility.yul\":334:411   */\n  swap2\n  swap1\n  pop\n  jump\t// out\n    /* \"#utility.yul\":417:539   */\ntag_11:\n    /* \"#utility.yul\":490:514   */\n  tag_19\n    /* \"#utility.yul\":508:513   */\n  dup2\n    /* \"#utility.yul\":490:514   */\n  tag_10\n  jump\t// in\ntag_19:\n    /* \"#utility.yul\":483:488   */\n  dup2\n    /* \"#utility.yul\":480:515   */\n  eq\n    /* \"#utility.yul\":470:533   */\n  tag_20\n  jumpi\n    /* \"#utility.yul\":529:530   */\n  0x00\n    /* \"#utility.yul\":526:527   */\n  0x00\n    /* \"#utility.yul\":519:531   */\n  revert\n    /* \"#utility.yul\":470:533   */\ntag_20:\n    /* \"#utility.yul\":417:539   */\n  pop\n  jump\t// out\n    /* \"#utility.yul\":545:688   */\ntag_12:\n    /* \"#utility.yul\":602:607   */\n  0x00\n    /* \"#utility.yul\":633:639   */\n  dup2\n    /* \"#utility.yul\":627:640   */\n  mload\n    /* \"#utility.yul\":618:640   */\n  swap1\n  pop\n    /* \"#utility.yul\":649:682   */\n  tag_22\n    /* \"#utility.yul\":676:681   */\n  dup2\n    /* \"#utility.yul\":649:682   */\n  tag_11\n  jump\t// in\ntag_22:\n    /* \"#utility.yul\":545:688   */\n  swap3\n  swap2\n  pop\n  pop\n  jump\t// out\n    /* \"#utility.yul\":694:1045   */\ntag_3:\n    /* \"#utility.yul\":764:770   */\n  0x00\n    /* \"#utility.yul\":813:815   */\n  0x20\n    /* \"#utility.yul\":801:810   */\n  dup3\n    /* \"#utility.yul\":792:799   */\n  dup5\n    /* \"#utility.yul\":788:811   */\n  sub\n    /* \"#utility.yul\":784:816   */\n  slt\n    /* \"#utility.yul\":781:900   */\n  iszero\n  tag_24\n  jumpi\n    /* \"#utility.yul\":819:898   */\n  tag_25\n  tag_8\n  jump\t// in\ntag_25:\n    /* \"#utility.yul\":781:900   */\ntag_24:\n    /* \"#utility.yul\":939:940   */\n  0x00\n    /* \"#utility.yul\":964:1028   */\n  tag_26\n    /* \"#utility.yul\":1020:1027   */\n  dup5\n    /* \"#utility.yul\":1011:1017   */\n  dup3\n    /* \"#utility.yul\":1000:1009   */\n  dup6\n    /* \"#utility.yul\":996:1018   */\n  add\n    /* \"#utility.yul\":964:1028   */\n  tag_12\n  jump\t// in\ntag_26:\n    /* \"#utility.yul\":954:1028   */\n  swap2\n  pop\n    /* \"#utility.yul\":910:1038   */\n  pop\n    /* \"#utility.yul\":694:1045   */\n  swap3\n  swap2\n  pop\n  pop\n  jump\t// out\n    /* \"CrNFTMarketPlace/contracts/CrNFTMarketPlace.sol\":620:3902  contract CrNFTMarketPlace {... */\ntag_6:\n  dataSize(sub_0)\n  dup1\n  dataOffset(sub_0)\n  0x00\n  codecopy\n  0x00\n  return\nstop\n\nsub_0: assembly {\n        /* \"CrNFTMarketPlace/contracts/CrNFTMarketPlace.sol\":620:3902  contract CrNFTMarketPlace {... */\n      mstore(0x40, 0x80)\n      jumpi(tag_1, lt(calldatasize, 0x04))\n      shr(0xe0, calldataload(0x00))\n      dup1\n      0xba79b564\n      gt\n      tag_14\n      jumpi\n      dup1\n      0xba79b564\n      eq\n      tag_8\n      jumpi\n      dup1\n      0xd076f13f\n      eq\n      tag_9\n      jumpi\n      dup1\n      0xd3f790d1\n      eq\n      tag_10\n      jumpi\n      dup1\n      0xd9f10a2b\n      eq\n      tag_11\n      jumpi\n      dup1\n      0xddca3f43\n      eq\n      tag_12\n      jumpi\n      dup1\n      0xedc4400a\n      eq\n      tag_13\n      jumpi\n      jump(tag_1)\n    tag_14:\n      dup1\n      0x1deb0a8f\n      eq\n      tag_2\n      jumpi\n      dup1\n      0x2a1236cb\n      eq\n      tag_3\n      jumpi\n      dup1\n      0x3c168eab\n      eq\n      tag_4\n      jumpi\n      dup1\n      0x3ccfd60b\n      eq\n      tag_5\n      jumpi\n      dup1\n      0x599db0f8\n      eq\n      tag_6\n      jumpi\n      dup1\n      0x8da5cb5b\n      eq\n      tag_7\n      jumpi\n    tag_1:\n      revert(0x00, 0x00)\n        /* \"CrNFTMarketPlace/contracts/CrNFTMarketPlace.sol\":2053:2308  function changeState(bool _isForSale) public {... */\n    tag_2:\n      callvalue\n      dup1\n      iszero\n      tag_15\n      jumpi\n      revert(0x00, 0x00)\n    tag_15:\n      pop\n      tag_16\n      0x04\n      dup1\n      calldatasize\n      sub\n      dup2\n      add\n      swap1\n      tag_17\n      swap2\n      swap1\n      tag_18\n      jump\t// in\n    tag_17:\n      tag_19\n      jump\t// in\n    tag_16:\n      stop\n        /* \"CrNFTMarketPlace/contracts/CrNFTMarketPlace.sol\":3010:3194  function auctionNFT(uint256 minPrice) public {... */\n    tag_3:\n      callvalue\n      dup1\n      iszero\n      tag_20\n      jumpi\n      revert(0x00, 0x00)\n    tag_20:\n      pop\n      tag_21\n      0x04\n      dup1\n      calldatasize\n      sub\n      dup2\n      add\n      swap1\n      tag_22\n      swap2\n      swap1\n      tag_23\n      jump\t// in\n    tag_22:\n      tag_24\n      jump\t// in\n    tag_21:\n      stop\n        /* \"CrNFTMarketPlace/contracts/CrNFTMarketPlace.sol\":3510:3890  function mintNFT(address recipient, uint256 price) public onlyOwner {... */\n    tag_4:\n      callvalue\n      dup1\n      iszero\n      tag_25\n      jumpi\n      revert(0x00, 0x00)\n    tag_25:\n      pop\n      tag_26\n      0x04\n      dup1\n      calldatasize\n      sub\n      dup2\n      add\n      swap1\n      tag_27\n      swap2\n      swap1\n      tag_28\n      jump\t// in\n    tag_27:\n      tag_29\n      jump\t// in\n    tag_26:\n      stop\n        /* \"CrNFTMarketPlace/contracts/CrNFTMarketPlace.sol\":3404:3504  function withdraw() public onlyOwner {... */\n    tag_5:\n      callvalue\n      dup1\n      iszero\n      tag_30\n      jumpi\n      revert(0x00, 0x00)\n    tag_30:\n      pop\n      tag_31\n      tag_32\n      jump\t// in\n    tag_31:\n      stop\n        /* \"CrNFTMarketPlace/contracts/CrNFTMarketPlace.sol\":746:781  mapping(address => NFT) public nfts */\n    tag_6:\n      callvalue\n      dup1\n      iszero\n      tag_33\n      jumpi\n      revert(0x00, 0x00)\n    tag_33:\n      pop\n      tag_34\n      0x04\n      dup1\n      calldatasize\n      sub\n      dup2\n      add\n      swap1\n      tag_35\n      swap2\n      swap1\n      tag_36\n      jump\t// in\n    tag_35:\n      tag_37\n      jump\t// in\n    tag_34:\n      mload(0x40)\n      tag_38\n      swap4\n      swap3\n      swap2\n      swap1\n      tag_39\n      jump\t// in\n    tag_38:\n      mload(0x40)\n      dup1\n      swap2\n      sub\n      swap1\n      return\n        /* \"CrNFTMarketPlace/contracts/CrNFTMarketPlace.sol\":858:878  address public owner */\n    tag_7:\n      callvalue\n      dup1\n      iszero\n      tag_40\n      jumpi\n      revert(0x00, 0x00)\n    tag_40:\n      pop\n      tag_41\n      tag_42\n      jump\t// in\n    tag_41:\n      mload(0x40)\n      tag_43\n      swap2\n      swap1\n      tag_44\n      jump\t// in\n    tag_43:\n      mload(0x40)\n      dup1\n      swap2\n      sub\n      swap1\n      return\n        /* \"CrNFTMarketPlace/contracts/CrNFTMarketPlace.sol\":2741:3004  function buyNFT(address nftAddress) public payable isForSale(nftAddress) hasEnoughFunds(nfts[nftAddress].price) {... */\n    tag_8:\n      tag_45\n      0x04\n      dup1\n      calldatasize\n      sub\n      dup2\n      add\n      swap1\n      tag_46\n      swap2\n      swap1\n      tag_36\n      jump\t// in\n    tag_46:\n      tag_47\n      jump\t// in\n    tag_45:\n      stop\n        /* \"CrNFTMarketPlace/contracts/CrNFTMarketPlace.sol\":1746:2047  function listNFT(uint256 price) public {... */\n    tag_9:\n      callvalue\n      dup1\n      iszero\n      tag_48\n      jumpi\n      revert(0x00, 0x00)\n    tag_48:\n      pop\n      tag_49\n      0x04\n      dup1\n      calldatasize\n      sub\n      dup2\n      add\n      swap1\n      tag_50\n      swap2\n      swap1\n      tag_23\n      jump\t// in\n    tag_50:\n      tag_51\n      jump\t// in\n    tag_49:\n      stop\n        /* \"CrNFTMarketPlace/contracts/CrNFTMarketPlace.sol\":2314:2735  function sellNFT(address buyer) public payable isForSale(msg.sender) hasEnoughFunds(nfts[msg.sender].price) {... */\n    tag_10:\n      tag_52\n      0x04\n      dup1\n      calldatasize\n      sub\n      dup2\n      add\n      swap1\n      tag_53\n      swap2\n      swap1\n      tag_36\n      jump\t// in\n    tag_53:\n      tag_54\n      jump\t// in\n    tag_52:\n      stop\n        /* \"CrNFTMarketPlace/contracts/CrNFTMarketPlace.sol\":788:828  mapping(uint256 => NFT) public nftPrices */\n    tag_11:\n      callvalue\n      dup1\n      iszero\n      tag_55\n      jumpi\n      revert(0x00, 0x00)\n    tag_55:\n      pop\n      tag_56\n      0x04\n      dup1\n      calldatasize\n      sub\n      dup2\n      add\n      swap1\n      tag_57\n      swap2\n      swap1\n      tag_23\n      jump\t// in\n    tag_57:\n      tag_58\n      jump\t// in\n    tag_56:\n      mload(0x40)\n      tag_59\n      swap4\n      swap3\n      swap2\n      swap1\n      tag_39\n      jump\t// in\n    tag_59:\n      mload(0x40)\n      dup1\n      swap2\n      sub\n      swap1\n      return\n        /* \"CrNFTMarketPlace/contracts/CrNFTMarketPlace.sol\":884:902  uint256 public fee */\n    tag_12:\n      callvalue\n      dup1\n      iszero\n      tag_60\n      jumpi\n      revert(0x00, 0x00)\n    tag_60:\n      pop\n      tag_61\n      tag_62\n      jump\t// in\n    tag_61:\n      mload(0x40)\n      tag_63\n      swap2\n      swap1\n      tag_64\n      jump\t// in\n    tag_63:\n      mload(0x40)\n      dup1\n      swap2\n      sub\n      swap1\n      return\n        /* \"CrNFTMarketPlace/contracts/CrNFTMarketPlace.sol\":3200:3398  function changeNFTPrice(uint256 newPrice) public {... */\n    tag_13:\n      callvalue\n      dup1\n      iszero\n      tag_65\n      jumpi\n      revert(0x00, 0x00)\n    tag_65:\n      pop\n      tag_66\n      0x04\n      dup1\n      calldatasize\n      sub\n      dup2\n      add\n      swap1\n      tag_67\n      swap2\n      swap1\n      tag_23\n      jump\t// in\n    tag_67:\n      tag_68\n      jump\t// in\n    tag_66:\n      stop\n        /* \"CrNFTMarketPlace/contracts/CrNFTMarketPlace.sol\":2053:2308  function changeState(bool _isForSale) public {... */\n    tag_19:\n        /* \"CrNFTMarketPlace/contracts/CrNFTMarketPlace.sol\":2142:2152  msg.sender */\n      caller\n        /* \"CrNFTMarketPlace/contracts/CrNFTMarketPlace.sol\":2116:2152  nfts[msg.sender].owner == msg.sender */\n      0xffffffffffffffffffffffffffffffffffffffff\n      and\n        /* \"CrNFTMarketPlace/contracts/CrNFTMarketPlace.sol\":2116:2120  nfts */\n      0x00\n        /* \"CrNFTMarketPlace/contracts/CrNFTMarketPlace.sol\":2116:2132  nfts[msg.sender] */\n      0x00\n        /* \"CrNFTMarketPlace/contracts/CrNFTMarketPlace.sol\":2121:2131  msg.sender */\n      caller\n        /* \"CrNFTMarketPlace/contracts/CrNFTMarketPlace.sol\":2116:2132  nfts[msg.sender] */\n      0xffffffffffffffffffffffffffffffffffffffff\n      and\n      0xffffffffffffffffffffffffffffffffffffffff\n      and\n      dup2\n      mstore\n      0x20\n      add\n      swap1\n      dup2\n      mstore\n      0x20\n      add\n      0x00\n      keccak256\n        /* \"CrNFTMarketPlace/contracts/CrNFTMarketPlace.sol\":2116:2138  nfts[msg.sender].owner */\n      0x00\n      add\n      0x00\n      swap1\n      sload\n      swap1\n      0x0100\n      exp\n      swap1\n      div\n      0xffffffffffffffffffffffffffffffffffffffff\n      and\n        /* \"CrNFTMarketPlace/contracts/CrNFTMarketPlace.sol\":2116:2152  nfts[msg.sender].owner == msg.sender */\n      0xffffffffffffffffffffffffffffffffffffffff\n      and\n      eq\n        /* \"CrNFTMarketPlace/contracts/CrNFTMarketPlace.sol\":2108:2196  require(nfts[msg.sender].owner == msg.sender, \"Only the NFT owner can change its state\") */\n      tag_70\n      jumpi\n      mload(0x40)\n      0x08c379a000000000000000000000000000000000000000000000000000000000\n      dup2\n      mstore\n      0x04\n      add\n      tag_71\n      swap1\n      tag_72\n      jump\t// in\n    tag_71:\n      mload(0x40)\n      dup1\n      swap2\n      sub\n      swap1\n      revert\n    tag_70:\n        /* \"CrNFTMarketPlace/contracts/CrNFTMarketPlace.sol\":2236:2246  _isForSale */\n      dup1\n        /* \"CrNFTMarketPlace/contracts/CrNFTMarketPlace.sol\":2207:2211  nfts */\n      0x00\n        /* \"CrNFTMarketPlace/contracts/CrNFTMarketPlace.sol\":2207:2223  nfts[msg.sender] */\n      0x00\n        /* \"CrNFTMarketPlace/contracts/CrNFTMarketPlace.sol\":2212:2222  msg.sender */\n      caller\n        /* \"CrNFTMarketPlace/contracts/CrNFTMarketPlace.sol\":2207:2223  nfts[msg.sender] */\n      0xffffffffffffffffffffffffffffffffffffffff\n      and\n      0xffffffffffffffffffffffffffffffffffffffff\n      and\n      dup2\n      mstore\n      0x20\n      add\n      swap1\n      dup2\n      mstore\n      0x20\n      add\n      0x00\n      keccak256\n        /* \"CrNFTMarketPlace/contracts/CrNFTMarketPlace.sol\":2207:2233  nfts[msg.sender].isForSale */\n      0x02\n      add\n      0x00\n        /* \"CrNFTMarketPlace/contracts/CrNFTMarketPlace.sol\":2207:2246  nfts[msg.sender].isForSale = _isForSale */\n      0x0100\n      exp\n      dup2\n      sload\n      dup2\n      0xff\n      mul\n      not\n      and\n      swap1\n      dup4\n      iszero\n      iszero\n      mul\n      or\n      swap1\n      sstore\n      pop\n        /* \"CrNFTMarketPlace/contracts/CrNFTMarketPlace.sol\":2278:2288  msg.sender */\n      caller\n        /* \"CrNFTMarketPlace/contracts/CrNFTMarketPlace.sol\":2262:2301  NFTStateChanged(msg.sender, _isForSale) */\n      0xffffffffffffffffffffffffffffffffffffffff\n      and\n      0x70ef3845ba68086e52ce242eadb7f59e1c1fab1f45b808e24928a0e993ec7760\n        /* \"CrNFTMarketPlace/contracts/CrNFTMarketPlace.sol\":2290:2300  _isForSale */\n      dup3\n        /* \"CrNFTMarketPlace/contracts/CrNFTMarketPlace.sol\":2262:2301  NFTStateChanged(msg.sender, _isForSale) */\n      mload(0x40)\n      tag_73\n      swap2\n      swap1\n      tag_74\n      jump\t// in\n    tag_73:\n      mload(0x40)\n      dup1\n      swap2\n      sub\n      swap1\n      log2\n        /* \"CrNFTMarketPlace/contracts/CrNFTMarketPlace.sol\":2053:2308  function changeState(bool _isForSale) public {... */\n      pop\n      jump\t// out\n        /* \"CrNFTMarketPlace/contracts/CrNFTMarketPlace.sol\":3010:3194  function auctionNFT(uint256 minPrice) public {... */\n    tag_24:\n        /* \"CrNFTMarketPlace/contracts/CrNFTMarketPlace.sol\":3099:3109  msg.sender */\n      caller\n        /* \"CrNFTMarketPlace/contracts/CrNFTMarketPlace.sol\":3073:3109  nfts[msg.sender].owner == msg.sender */\n      0xffffffffffffffffffffffffffffffffffffffff\n      and\n        /* \"CrNFTMarketPlace/contracts/CrNFTMarketPlace.sol\":3073:3077  nfts */\n      0x00\n        /* \"CrNFTMarketPlace/contracts/CrNFTMarketPlace.sol\":3073:3089  nfts[msg.sender] */\n      0x00\n        /* \"CrNFTMarketPlace/contracts/CrNFTMarketPlace.sol\":3078:3088  msg.sender */\n      caller\n        /* \"CrNFTMarketPlace/contracts/CrNFTMarketPlace.sol\":3073:3089  nfts[msg.sender] */\n      0xffffffffffffffffffffffffffffffffffffffff\n      and\n      0xffffffffffffffffffffffffffffffffffffffff\n      and\n      dup2\n      mstore\n      0x20\n      add\n      swap1\n      dup2\n      mstore\n      0x20\n      add\n      0x00\n      keccak256\n        /* \"CrNFTMarketPlace/contracts/CrNFTMarketPlace.sol\":3073:3095  nfts[msg.sender].owner */\n      0x00\n      add\n      0x00\n      swap1\n      sload\n      swap1\n      0x0100\n      exp\n      swap1\n      div\n      0xffffffffffffffffffffffffffffffffffffffff\n      and\n        /* \"CrNFTMarketPlace/contracts/CrNFTMarketPlace.sol\":3073:3109  nfts[msg.sender].owner == msg.sender */\n      0xffffffffffffffffffffffffffffffffffffffff\n      and\n      eq\n        /* \"CrNFTMarketPlace/contracts/CrNFTMarketPlace.sol\":3065:3137  require(nfts[msg.sender].owner == msg.sender, \"You do not own this NFT\") */\n      tag_76\n      jumpi\n      mload(0x40)\n      0x08c379a000000000000000000000000000000000000000000000000000000000\n      dup2\n      mstore\n      0x04\n      add\n      tag_77\n      swap1\n      tag_78\n      jump\t// in\n    tag_77:\n      mload(0x40)\n      dup1\n      swap2\n      sub\n      swap1\n      revert\n    tag_76:\n        /* \"CrNFTMarketPlace/contracts/CrNFTMarketPlace.sol\":3166:3176  msg.sender */\n      caller\n        /* \"CrNFTMarketPlace/contracts/CrNFTMarketPlace.sol\":3153:3187  NFTAuctioned(msg.sender, minPrice) */\n      0xffffffffffffffffffffffffffffffffffffffff\n      and\n      0x5c81d809b788873b136dc4f466964730ba9e25004fa953c321ccbcaf64560b56\n        /* \"CrNFTMarketPlace/contracts/CrNFTMarketPlace.sol\":3178:3186  minPrice */\n      dup3\n        /* \"CrNFTMarketPlace/contracts/CrNFTMarketPlace.sol\":3153:3187  NFTAuctioned(msg.sender, minPrice) */\n      mload(0x40)\n      tag_79\n      swap2\n      swap1\n      tag_64\n      jump\t// in\n    tag_79:\n      mload(0x40)\n      dup1\n      swap2\n      sub\n      swap1\n      log2\n        /* \"CrNFTMarketPlace/contracts/CrNFTMarketPlace.sol\":3010:3194  function auctionNFT(uint256 minPrice) public {... */\n      pop\n      jump\t// out\n        /* \"CrNFTMarketPlace/contracts/CrNFTMarketPlace.sol\":3510:3890  function mintNFT(address recipient, uint256 price) public onlyOwner {... */\n    tag_29:\n        /* \"CrNFTMarketPlace/contracts/CrNFTMarketPlace.sol\":1319:1324  owner */\n      0x02\n      0x00\n      swap1\n      sload\n      swap1\n      0x0100\n      exp\n      swap1\n      div\n      0xffffffffffffffffffffffffffffffffffffffff\n      and\n        /* \"CrNFTMarketPlace/contracts/CrNFTMarketPlace.sol\":1305:1324  msg.sender == owner */\n      0xffffffffffffffffffffffffffffffffffffffff\n      and\n        /* \"CrNFTMarketPlace/contracts/CrNFTMarketPlace.sol\":1305:1315  msg.sender */\n      caller\n        /* \"CrNFTMarketPlace/contracts/CrNFTMarketPlace.sol\":1305:1324  msg.sender == owner */\n      0xffffffffffffffffffffffffffffffffffffffff\n      and\n      eq\n        /* \"CrNFTMarketPlace/contracts/CrNFTMarketPlace.sol\":1297:1363  require(msg.sender == owner, \"Only owner can perform this action\") */\n      tag_81\n      jumpi\n      mload(0x40)\n      0x08c379a000000000000000000000000000000000000000000000000000000000\n      dup2\n      mstore\n      0x04\n      add\n      tag_82\n      swap1\n      tag_83\n      jump\t// in\n    tag_82:\n      mload(0x40)\n      dup1\n      swap2\n      sub\n      swap1\n      revert\n    tag_81:\n        /* \"CrNFTMarketPlace/contracts/CrNFTMarketPlace.sol\":3629:3630  0 */\n      0x00\n        /* \"CrNFTMarketPlace/contracts/CrNFTMarketPlace.sol\":3596:3631  nfts[recipient].owner == address(0) */\n      0xffffffffffffffffffffffffffffffffffffffff\n      and\n        /* \"CrNFTMarketPlace/contracts/CrNFTMarketPlace.sol\":3596:3600  nfts */\n      0x00\n        /* \"CrNFTMarketPlace/contracts/CrNFTMarketPlace.sol\":3596:3611  nfts[recipient] */\n      0x00\n        /* \"CrNFTMarketPlace/contracts/CrNFTMarketPlace.sol\":3601:3610  recipient */\n      dup5\n        /* \"CrNFTMarketPlace/contracts/CrNFTMarketPlace.sol\":3596:3611  nfts[recipient] */\n      0xffffffffffffffffffffffffffffffffffffffff\n      and\n      0xffffffffffffffffffffffffffffffffffffffff\n      and\n      dup2\n      mstore\n      0x20\n      add\n      swap1\n      dup2\n      mstore\n      0x20\n      add\n      0x00\n      keccak256\n        /* \"CrNFTMarketPlace/contracts/CrNFTMarketPlace.sol\":3596:3617  nfts[recipient].owner */\n      0x00\n      add\n      0x00\n      swap1\n      sload\n      swap1\n      0x0100\n      exp\n      swap1\n      div\n      0xffffffffffffffffffffffffffffffffffffffff\n      and\n        /* \"CrNFTMarketPlace/contracts/CrNFTMarketPlace.sol\":3596:3631  nfts[recipient].owner == address(0) */\n      0xffffffffffffffffffffffffffffffffffffffff\n      and\n      eq\n        /* \"CrNFTMarketPlace/contracts/CrNFTMarketPlace.sol\":3588:3665  require(nfts[recipient].owner == address(0), \"Recipient already owns an NFT\") */\n      tag_85\n      jumpi\n      mload(0x40)\n      0x08c379a000000000000000000000000000000000000000000000000000000000\n      dup2\n      mstore\n      0x04\n      add\n      tag_86\n      swap1\n      tag_87\n      jump\t// in\n    tag_86:\n      mload(0x40)\n      dup1\n      swap2\n      sub\n      swap1\n      revert\n    tag_85:\n        /* \"CrNFTMarketPlace/contracts/CrNFTMarketPlace.sol\":3694:3795  NFT({... */\n      mload(0x40)\n      dup1\n      0x60\n      add\n      0x40\n      mstore\n      dup1\n        /* \"CrNFTMarketPlace/contracts/CrNFTMarketPlace.sol\":3719:3728  recipient */\n      dup4\n        /* \"CrNFTMarketPlace/contracts/CrNFTMarketPlace.sol\":3694:3795  NFT({... */\n      0xffffffffffffffffffffffffffffffffffffffff\n      and\n      dup2\n      mstore\n      0x20\n      add\n        /* \"CrNFTMarketPlace/contracts/CrNFTMarketPlace.sol\":3749:3754  price */\n      dup3\n        /* \"CrNFTMarketPlace/contracts/CrNFTMarketPlace.sol\":3694:3795  NFT({... */\n      dup2\n      mstore\n      0x20\n      add\n        /* \"CrNFTMarketPlace/contracts/CrNFTMarketPlace.sol\":3779:3784  false */\n      0x00\n        /* \"CrNFTMarketPlace/contracts/CrNFTMarketPlace.sol\":3694:3795  NFT({... */\n      iszero\n      iszero\n      dup2\n      mstore\n      pop\n        /* \"CrNFTMarketPlace/contracts/CrNFTMarketPlace.sol\":3676:3680  nfts */\n      0x00\n        /* \"CrNFTMarketPlace/contracts/CrNFTMarketPlace.sol\":3676:3691  nfts[recipient] */\n      0x00\n        /* \"CrNFTMarketPlace/contracts/CrNFTMarketPlace.sol\":3681:3690  recipient */\n      dup5\n        /* \"CrNFTMarketPlace/contracts/CrNFTMarketPlace.sol\":3676:3691  nfts[recipient] */\n      0xffffffffffffffffffffffffffffffffffffffff\n      and\n      0xffffffffffffffffffffffffffffffffffffffff\n      and\n      dup2\n      mstore\n      0x20\n      add\n      swap1\n      dup2\n      mstore\n      0x20\n      add\n      0x00\n      keccak256\n        /* \"CrNFTMarketPlace/contracts/CrNFTMarketPlace.sol\":3676:3795  nfts[recipient] = NFT({... */\n      0x00\n      dup3\n      add\n      mload\n      dup2\n      0x00\n      add\n      exp(0x0100, 0x00)\n      dup2\n      sload\n      dup2\n      0xffffffffffffffffffffffffffffffffffffffff\n      mul\n      not\n      and\n      swap1\n      dup4\n      0xffffffffffffffffffffffffffffffffffffffff\n      and\n      mul\n      or\n      swap1\n      sstore\n      pop\n      0x20\n      dup3\n      add\n      mload\n      dup2\n      0x01\n      add\n      sstore\n      0x40\n      dup3\n      add\n      mload\n      dup2\n      0x02\n      add\n      exp(0x0100, 0x00)\n      dup2\n      sload\n      dup2\n      0xff\n      mul\n      not\n      and\n      swap1\n      dup4\n      iszero\n      iszero\n      mul\n      or\n      swap1\n      sstore\n      pop\n      swap1\n      pop\n      pop\n        /* \"CrNFTMarketPlace/contracts/CrNFTMarketPlace.sol\":3825:3829  nfts */\n      0x00\n        /* \"CrNFTMarketPlace/contracts/CrNFTMarketPlace.sol\":3825:3840  nfts[recipient] */\n      0x00\n        /* \"CrNFTMarketPlace/contracts/CrNFTMarketPlace.sol\":3830:3839  recipient */\n      dup4\n        /* \"CrNFTMarketPlace/contracts/CrNFTMarketPlace.sol\":3825:3840  nfts[recipient] */\n      0xffffffffffffffffffffffffffffffffffffffff\n      and\n      0xffffffffffffffffffffffffffffffffffffffff\n      and\n      dup2\n      mstore\n      0x20\n      add\n      swap1\n      dup2\n      mstore\n      0x20\n      add\n      0x00\n      keccak256\n        /* \"CrNFTMarketPlace/contracts/CrNFTMarketPlace.sol\":3806:3815  nftPrices */\n      0x01\n        /* \"CrNFTMarketPlace/contracts/CrNFTMarketPlace.sol\":3806:3822  nftPrices[price] */\n      0x00\n        /* \"CrNFTMarketPlace/contracts/CrNFTMarketPlace.sol\":3816:3821  price */\n      dup4\n        /* \"CrNFTMarketPlace/contracts/CrNFTMarketPlace.sol\":3806:3822  nftPrices[price] */\n      dup2\n      mstore\n      0x20\n      add\n      swap1\n      dup2\n      mstore\n      0x20\n      add\n      0x00\n      keccak256\n        /* \"CrNFTMarketPlace/contracts/CrNFTMarketPlace.sol\":3806:3840  nftPrices[price] = nfts[recipient] */\n      0x00\n      dup3\n      add\n      0x00\n      swap1\n      sload\n      swap1\n      0x0100\n      exp\n      swap1\n      div\n      0xffffffffffffffffffffffffffffffffffffffff\n      and\n      dup2\n      0x00\n      add\n      exp(0x0100, 0x00)\n      dup2\n      sload\n      dup2\n      0xffffffffffffffffffffffffffffffffffffffff\n      mul\n      not\n      and\n      swap1\n      dup4\n      0xffffffffffffffffffffffffffffffffffffffff\n      and\n      mul\n      or\n      swap1\n      sstore\n      pop\n      0x01\n      dup3\n      add\n      sload\n      dup2\n      0x01\n      add\n      sstore\n      0x02\n      dup3\n      add\n      0x00\n      swap1\n      sload\n      swap1\n      0x0100\n      exp\n      swap1\n      div\n      0xff\n      and\n      dup2\n      0x02\n      add\n      exp(0x0100, 0x00)\n      dup2\n      sload\n      dup2\n      0xff\n      mul\n      not\n      and\n      swap1\n      dup4\n      iszero\n      iszero\n      mul\n      or\n      swap1\n      sstore\n      pop\n      swap1\n      pop\n      pop\n        /* \"CrNFTMarketPlace/contracts/CrNFTMarketPlace.sol\":3866:3875  recipient */\n      dup2\n        /* \"CrNFTMarketPlace/contracts/CrNFTMarketPlace.sol\":3856:3883  NFTMinted(recipient, price) */\n      0xffffffffffffffffffffffffffffffffffffffff\n      and\n      0x4cc0a9c4a99ddc700de1af2c9f916a7cbfdb71f14801ccff94061ad1ef8a8040\n        /* \"CrNFTMarketPlace/contracts/CrNFTMarketPlace.sol\":3877:3882  price */\n      dup3\n        /* \"CrNFTMarketPlace/contracts/CrNFTMarketPlace.sol\":3856:3883  NFTMinted(recipient, price) */\n      mload(0x40)\n      tag_88\n      swap2\n      swap1\n      tag_64\n      jump\t// in\n    tag_88:\n      mload(0x40)\n      dup1\n      swap2\n      sub\n      swap1\n      log2\n        /* \"CrNFTMarketPlace/contracts/CrNFTMarketPlace.sol\":3510:3890  function mintNFT(address recipient, uint256 price) public onlyOwner {... */\n      pop\n      pop\n      jump\t// out\n        /* \"CrNFTMarketPlace/contracts/CrNFTMarketPlace.sol\":3404:3504  function withdraw() public onlyOwner {... */\n    tag_32:\n        /* \"CrNFTMarketPlace/contracts/CrNFTMarketPlace.sol\":1319:1324  owner */\n      0x02\n      0x00\n      swap1\n      sload\n      swap1\n      0x0100\n      exp\n      swap1\n      div\n      0xffffffffffffffffffffffffffffffffffffffff\n      and\n        /* \"CrNFTMarketPlace/contracts/CrNFTMarketPlace.sol\":1305:1324  msg.sender == owner */\n      0xffffffffffffffffffffffffffffffffffffffff\n      and\n        /* \"CrNFTMarketPlace/contracts/CrNFTMarketPlace.sol\":1305:1315  msg.sender */\n      caller\n        /* \"CrNFTMarketPlace/contracts/CrNFTMarketPlace.sol\":1305:1324  msg.sender == owner */\n      0xffffffffffffffffffffffffffffffffffffffff\n      and\n      eq\n        /* \"CrNFTMarketPlace/contracts/CrNFTMarketPlace.sol\":1297:1363  require(msg.sender == owner, \"Only owner can perform this action\") */\n      tag_90\n      jumpi\n      mload(0x40)\n      0x08c379a000000000000000000000000000000000000000000000000000000000\n      dup2\n      mstore\n      0x04\n      add\n      tag_91\n      swap1\n      tag_83\n      jump\t// in\n    tag_91:\n      mload(0x40)\n      dup1\n      swap2\n      sub\n      swap1\n      revert\n    tag_90:\n        /* \"CrNFTMarketPlace/contracts/CrNFTMarketPlace.sol\":3459:3464  owner */\n      0x02\n      0x00\n      swap1\n      sload\n      swap1\n      0x0100\n      exp\n      swap1\n      div\n      0xffffffffffffffffffffffffffffffffffffffff\n      and\n        /* \"CrNFTMarketPlace/contracts/CrNFTMarketPlace.sol\":3451:3474  payable(owner).transfer */\n      0xffffffffffffffffffffffffffffffffffffffff\n      and\n        /* \"CrNFTMarketPlace/contracts/CrNFTMarketPlace.sol\":3451:3497  payable(owner).transfer(address(this).balance) */\n      0x08fc\n        /* \"CrNFTMarketPlace/contracts/CrNFTMarketPlace.sol\":3475:3496  address(this).balance */\n      selfbalance\n        /* \"CrNFTMarketPlace/contracts/CrNFTMarketPlace.sol\":3451:3497  payable(owner).transfer(address(this).balance) */\n      swap1\n      dup2\n      iszero\n      mul\n      swap1\n      mload(0x40)\n      0x00\n      mload(0x40)\n      dup1\n      dup4\n      sub\n      dup2\n      dup6\n      dup9\n      dup9\n      call\n      swap4\n      pop\n      pop\n      pop\n      pop\n      iszero\n      dup1\n      iszero\n      tag_94\n      jumpi\n      returndatacopy(0x00, 0x00, returndatasize)\n      revert(0x00, returndatasize)\n    tag_94:\n      pop\n        /* \"CrNFTMarketPlace/contracts/CrNFTMarketPlace.sol\":3404:3504  function withdraw() public onlyOwner {... */\n      jump\t// out\n        /* \"CrNFTMarketPlace/contracts/CrNFTMarketPlace.sol\":746:781  mapping(address => NFT) public nfts */\n    tag_37:\n      mstore(0x20, 0x00)\n      dup1\n      0x00\n      mstore\n      keccak256(0x00, 0x40)\n      0x00\n      swap2\n      pop\n      swap1\n      pop\n      dup1\n      0x00\n      add\n      0x00\n      swap1\n      sload\n      swap1\n      0x0100\n      exp\n      swap1\n      div\n      0xffffffffffffffffffffffffffffffffffffffff\n      and\n      swap1\n      dup1\n      0x01\n      add\n      sload\n      swap1\n      dup1\n      0x02\n      add\n      0x00\n      swap1\n      sload\n      swap1\n      0x0100\n      exp\n      swap1\n      div\n      0xff\n      and\n      swap1\n      pop\n      dup4\n      jump\t// out\n        /* \"CrNFTMarketPlace/contracts/CrNFTMarketPlace.sol\":858:878  address public owner */\n    tag_42:\n      0x02\n      0x00\n      swap1\n      sload\n      swap1\n      0x0100\n      exp\n      swap1\n      div\n      0xffffffffffffffffffffffffffffffffffffffff\n      and\n      dup2\n      jump\t// out\n        /* \"CrNFTMarketPlace/contracts/CrNFTMarketPlace.sol\":2741:3004  function buyNFT(address nftAddress) public payable isForSale(nftAddress) hasEnoughFunds(nfts[nftAddress].price) {... */\n    tag_47:\n        /* \"CrNFTMarketPlace/contracts/CrNFTMarketPlace.sol\":2802:2812  nftAddress */\n      dup1\n        /* \"CrNFTMarketPlace/contracts/CrNFTMarketPlace.sol\":1474:1478  true */\n      0x01\n        /* \"CrNFTMarketPlace/contracts/CrNFTMarketPlace.sol\":1444:1478  nfts[nftAddress].isForSale == true */\n      iszero\n      iszero\n        /* \"CrNFTMarketPlace/contracts/CrNFTMarketPlace.sol\":1444:1448  nfts */\n      0x00\n        /* \"CrNFTMarketPlace/contracts/CrNFTMarketPlace.sol\":1444:1460  nfts[nftAddress] */\n      0x00\n        /* \"CrNFTMarketPlace/contracts/CrNFTMarketPlace.sol\":1449:1459  nftAddress */\n      dup4\n        /* \"CrNFTMarketPlace/contracts/CrNFTMarketPlace.sol\":1444:1460  nfts[nftAddress] */\n      0xffffffffffffffffffffffffffffffffffffffff\n      and\n      0xffffffffffffffffffffffffffffffffffffffff\n      and\n      dup2\n      mstore\n      0x20\n      add\n      swap1\n      dup2\n      mstore\n      0x20\n      add\n      0x00\n      keccak256\n        /* \"CrNFTMarketPlace/contracts/CrNFTMarketPlace.sol\":1444:1470  nfts[nftAddress].isForSale */\n      0x02\n      add\n      0x00\n      swap1\n      sload\n      swap1\n      0x0100\n      exp\n      swap1\n      div\n      0xff\n      and\n        /* \"CrNFTMarketPlace/contracts/CrNFTMarketPlace.sol\":1444:1478  nfts[nftAddress].isForSale == true */\n      iszero\n      iszero\n      eq\n        /* \"CrNFTMarketPlace/contracts/CrNFTMarketPlace.sol\":1436:1502  require(nfts[nftAddress].isForSale == true, \"NFT is not for sale\") */\n      tag_96\n      jumpi\n      mload(0x40)\n      0x08c379a000000000000000000000000000000000000000000000000000000000\n      dup2\n      mstore\n      0x04\n      add\n      tag_97\n      swap1\n      tag_98\n      jump\t// in\n    tag_97:\n      mload(0x40)\n      dup1\n      swap2\n      sub\n      swap1\n      revert\n    tag_96:\n        /* \"CrNFTMarketPlace/contracts/CrNFTMarketPlace.sol\":2829:2833  nfts */\n      0x00\n        /* \"CrNFTMarketPlace/contracts/CrNFTMarketPlace.sol\":2829:2845  nfts[nftAddress] */\n      0x00\n        /* \"CrNFTMarketPlace/contracts/CrNFTMarketPlace.sol\":2834:2844  nftAddress */\n      dup4\n        /* \"CrNFTMarketPlace/contracts/CrNFTMarketPlace.sol\":2829:2845  nfts[nftAddress] */\n      0xffffffffffffffffffffffffffffffffffffffff\n      and\n      0xffffffffffffffffffffffffffffffffffffffff\n      and\n      dup2\n      mstore\n      0x20\n      add\n      swap1\n      dup2\n      mstore\n      0x20\n      add\n      0x00\n      keccak256\n        /* \"CrNFTMarketPlace/contracts/CrNFTMarketPlace.sol\":2829:2851  nfts[nftAddress].price */\n      0x01\n      add\n      sload\n        /* \"CrNFTMarketPlace/contracts/CrNFTMarketPlace.sol\":1596:1601  price */\n      dup1\n        /* \"CrNFTMarketPlace/contracts/CrNFTMarketPlace.sol\":1583:1592  msg.value */\n      callvalue\n        /* \"CrNFTMarketPlace/contracts/CrNFTMarketPlace.sol\":1583:1601  msg.value >= price */\n      lt\n      iszero\n        /* \"CrNFTMarketPlace/contracts/CrNFTMarketPlace.sol\":1575:1635  require(msg.value >= price, \"Insufficient funds to buy NFT\") */\n      tag_100\n      jumpi\n      mload(0x40)\n      0x08c379a000000000000000000000000000000000000000000000000000000000\n      dup2\n      mstore\n      0x04\n      add\n      tag_101\n      swap1\n      tag_102\n      jump\t// in\n    tag_101:\n      mload(0x40)\n      dup1\n      swap2\n      sub\n      swap1\n      revert\n    tag_100:\n        /* \"CrNFTMarketPlace/contracts/CrNFTMarketPlace.sol\":2863:2876  uint256 price */\n      0x00\n        /* \"CrNFTMarketPlace/contracts/CrNFTMarketPlace.sol\":2879:2883  nfts */\n      0x00\n        /* \"CrNFTMarketPlace/contracts/CrNFTMarketPlace.sol\":2879:2895  nfts[nftAddress] */\n      0x00\n        /* \"CrNFTMarketPlace/contracts/CrNFTMarketPlace.sol\":2884:2894  nftAddress */\n      dup6\n        /* \"CrNFTMarketPlace/contracts/CrNFTMarketPlace.sol\":2879:2895  nfts[nftAddress] */\n      0xffffffffffffffffffffffffffffffffffffffff\n      and\n      0xffffffffffffffffffffffffffffffffffffffff\n      and\n      dup2\n      mstore\n      0x20\n      add\n      swap1\n      dup2\n      mstore\n      0x20\n      add\n      0x00\n      keccak256\n        /* \"CrNFTMarketPlace/contracts/CrNFTMarketPlace.sol\":2879:2901  nfts[nftAddress].price */\n      0x01\n      add\n      sload\n        /* \"CrNFTMarketPlace/contracts/CrNFTMarketPlace.sol\":2863:2901  uint256 price = nfts[nftAddress].price */\n      swap1\n      pop\n        /* \"CrNFTMarketPlace/contracts/CrNFTMarketPlace.sol\":2933:2938  price */\n      dup1\n        /* \"CrNFTMarketPlace/contracts/CrNFTMarketPlace.sol\":2920:2929  msg.value */\n      callvalue\n        /* \"CrNFTMarketPlace/contracts/CrNFTMarketPlace.sol\":2920:2938  msg.value == price */\n      eq\n        /* \"CrNFTMarketPlace/contracts/CrNFTMarketPlace.sol\":2912:2967  require(msg.value == price, \"Incorrect currency value\") */\n      tag_104\n      jumpi\n      mload(0x40)\n      0x08c379a000000000000000000000000000000000000000000000000000000000\n      dup2\n      mstore\n      0x04\n      add\n      tag_105\n      swap1\n      tag_106\n      jump\t// in\n    tag_105:\n      mload(0x40)\n      dup1\n      swap2\n      sub\n      swap1\n      revert\n    tag_104:\n        /* \"CrNFTMarketPlace/contracts/CrNFTMarketPlace.sol\":2978:2997  sellNFT(msg.sender) */\n      tag_107\n        /* \"CrNFTMarketPlace/contracts/CrNFTMarketPlace.sol\":2986:2996  msg.sender */\n      caller\n        /* \"CrNFTMarketPlace/contracts/CrNFTMarketPlace.sol\":2978:2985  sellNFT */\n      tag_54\n        /* \"CrNFTMarketPlace/contracts/CrNFTMarketPlace.sol\":2978:2997  sellNFT(msg.sender) */\n      jump\t// in\n    tag_107:\n        /* \"CrNFTMarketPlace/contracts/CrNFTMarketPlace.sol\":2853:3004  {... */\n      pop\n        /* \"CrNFTMarketPlace/contracts/CrNFTMarketPlace.sol\":1512:1513  _ */\n      pop\n        /* \"CrNFTMarketPlace/contracts/CrNFTMarketPlace.sol\":2741:3004  function buyNFT(address nftAddress) public payable isForSale(nftAddress) hasEnoughFunds(nfts[nftAddress].price) {... */\n      pop\n      pop\n      jump\t// out\n        /* \"CrNFTMarketPlace/contracts/CrNFTMarketPlace.sol\":1746:2047  function listNFT(uint256 price) public {... */\n    tag_51:\n        /* \"CrNFTMarketPlace/contracts/CrNFTMarketPlace.sol\":1829:1839  msg.sender */\n      caller\n        /* \"CrNFTMarketPlace/contracts/CrNFTMarketPlace.sol\":1803:1839  nfts[msg.sender].owner == msg.sender */\n      0xffffffffffffffffffffffffffffffffffffffff\n      and\n        /* \"CrNFTMarketPlace/contracts/CrNFTMarketPlace.sol\":1803:1807  nfts */\n      0x00\n        /* \"CrNFTMarketPlace/contracts/CrNFTMarketPlace.sol\":1803:1819  nfts[msg.sender] */\n      0x00\n        /* \"CrNFTMarketPlace/contracts/CrNFTMarketPlace.sol\":1808:1818  msg.sender */\n      caller\n        /* \"CrNFTMarketPlace/contracts/CrNFTMarketPlace.sol\":1803:1819  nfts[msg.sender] */\n      0xffffffffffffffffffffffffffffffffffffffff\n      and\n      0xffffffffffffffffffffffffffffffffffffffff\n      and\n      dup2\n      mstore\n      0x20\n      add\n      swap1\n      dup2\n      mstore\n      0x20\n      add\n      0x00\n      keccak256\n        /* \"CrNFTMarketPlace/contracts/CrNFTMarketPlace.sol\":1803:1825  nfts[msg.sender].owner */\n      0x00\n      add\n      0x00\n      swap1\n      sload\n      swap1\n      0x0100\n      exp\n      swap1\n      div\n      0xffffffffffffffffffffffffffffffffffffffff\n      and\n        /* \"CrNFTMarketPlace/contracts/CrNFTMarketPlace.sol\":1803:1839  nfts[msg.sender].owner == msg.sender */\n      0xffffffffffffffffffffffffffffffffffffffff\n      and\n      eq\n        /* \"CrNFTMarketPlace/contracts/CrNFTMarketPlace.sol\":1795:1867  require(nfts[msg.sender].owner == msg.sender, \"You do not own this NFT\") */\n      tag_109\n      jumpi\n      mload(0x40)\n      0x08c379a000000000000000000000000000000000000000000000000000000000\n      dup2\n      mstore\n      0x04\n      add\n      tag_110\n      swap1\n      tag_78\n      jump\t// in\n    tag_110:\n      mload(0x40)\n      dup1\n      swap2\n      sub\n      swap1\n      revert\n    tag_109:\n        /* \"CrNFTMarketPlace/contracts/CrNFTMarketPlace.sol\":1903:1908  price */\n      dup1\n        /* \"CrNFTMarketPlace/contracts/CrNFTMarketPlace.sol\":1878:1882  nfts */\n      0x00\n        /* \"CrNFTMarketPlace/contracts/CrNFTMarketPlace.sol\":1878:1894  nfts[msg.sender] */\n      0x00\n        /* \"CrNFTMarketPlace/contracts/CrNFTMarketPlace.sol\":1883:1893  msg.sender */\n      caller\n        /* \"CrNFTMarketPlace/contracts/CrNFTMarketPlace.sol\":1878:1894  nfts[msg.sender] */\n      0xffffffffffffffffffffffffffffffffffffffff\n      and\n      0xffffffffffffffffffffffffffffffffffffffff\n      and\n      dup2\n      mstore\n      0x20\n      add\n      swap1\n      dup2\n      mstore\n      0x20\n      add\n      0x00\n      keccak256\n        /* \"CrNFTMarketPlace/contracts/CrNFTMarketPlace.sol\":1878:1900  nfts[msg.sender].price */\n      0x01\n      add\n        /* \"CrNFTMarketPlace/contracts/CrNFTMarketPlace.sol\":1878:1908  nfts[msg.sender].price = price */\n      dup2\n      swap1\n      sstore\n      pop\n        /* \"CrNFTMarketPlace/contracts/CrNFTMarketPlace.sol\":1947:1951  true */\n      0x01\n        /* \"CrNFTMarketPlace/contracts/CrNFTMarketPlace.sol\":1918:1922  nfts */\n      0x00\n        /* \"CrNFTMarketPlace/contracts/CrNFTMarketPlace.sol\":1918:1934  nfts[msg.sender] */\n      0x00\n        /* \"CrNFTMarketPlace/contracts/CrNFTMarketPlace.sol\":1923:1933  msg.sender */\n      caller\n        /* \"CrNFTMarketPlace/contracts/CrNFTMarketPlace.sol\":1918:1934  nfts[msg.sender] */\n      0xffffffffffffffffffffffffffffffffffffffff\n      and\n      0xffffffffffffffffffffffffffffffffffffffff\n      and\n      dup2\n      mstore\n      0x20\n      add\n      swap1\n      dup2\n      mstore\n      0x20\n      add\n      0x00\n      keccak256\n        /* \"CrNFTMarketPlace/contracts/CrNFTMarketPlace.sol\":1918:1944  nfts[msg.sender].isForSale */\n      0x02\n      add\n      0x00\n        /* \"CrNFTMarketPlace/contracts/CrNFTMarketPlace.sol\":1918:1951  nfts[msg.sender].isForSale = true */\n      0x0100\n      exp\n      dup2\n      sload\n      dup2\n      0xff\n      mul\n      not\n      and\n      swap1\n      dup4\n      iszero\n      iszero\n      mul\n      or\n      swap1\n      sstore\n      pop\n        /* \"CrNFTMarketPlace/contracts/CrNFTMarketPlace.sol\":1980:1984  nfts */\n      0x00\n        /* \"CrNFTMarketPlace/contracts/CrNFTMarketPlace.sol\":1980:1996  nfts[msg.sender] */\n      0x00\n        /* \"CrNFTMarketPlace/contracts/CrNFTMarketPlace.sol\":1985:1995  msg.sender */\n      caller\n        /* \"CrNFTMarketPlace/contracts/CrNFTMarketPlace.sol\":1980:1996  nfts[msg.sender] */\n      0xffffffffffffffffffffffffffffffffffffffff\n      and\n      0xffffffffffffffffffffffffffffffffffffffff\n      and\n      dup2\n      mstore\n      0x20\n      add\n      swap1\n      dup2\n      mstore\n      0x20\n      add\n      0x00\n      keccak256\n        /* \"CrNFTMarketPlace/contracts/CrNFTMarketPlace.sol\":1961:1970  nftPrices */\n      0x01\n        /* \"CrNFTMarketPlace/contracts/CrNFTMarketPlace.sol\":1961:1977  nftPrices[price] */\n      0x00\n        /* \"CrNFTMarketPlace/contracts/CrNFTMarketPlace.sol\":1971:1976  price */\n      dup4\n        /* \"CrNFTMarketPlace/contracts/CrNFTMarketPlace.sol\":1961:1977  nftPrices[price] */\n      dup2\n      mstore\n      0x20\n      add\n      swap1\n      dup2\n      mstore\n      0x20\n      add\n      0x00\n      keccak256\n        /* \"CrNFTMarketPlace/contracts/CrNFTMarketPlace.sol\":1961:1996  nftPrices[price] = nfts[msg.sender] */\n      0x00\n      dup3\n      add\n      0x00\n      swap1\n      sload\n      swap1\n      0x0100\n      exp\n      swap1\n      div\n      0xffffffffffffffffffffffffffffffffffffffff\n      and\n      dup2\n      0x00\n      add\n      exp(0x0100, 0x00)\n      dup2\n      sload\n      dup2\n      0xffffffffffffffffffffffffffffffffffffffff\n      mul\n      not\n      and\n      swap1\n      dup4\n      0xffffffffffffffffffffffffffffffffffffffff\n      and\n      mul\n      or\n      swap1\n      sstore\n      pop\n      0x01\n      dup3\n      add\n      sload\n      dup2\n      0x01\n      add\n      sstore\n      0x02\n      dup3\n      add\n      0x00\n      swap1\n      sload\n      swap1\n      0x0100\n      exp\n      swap1\n      div\n      0xff\n      and\n      dup2\n      0x02\n      add\n      exp(0x0100, 0x00)\n      dup2\n      sload\n      dup2\n      0xff\n      mul\n      not\n      and\n      swap1\n      dup4\n      iszero\n      iszero\n      mul\n      or\n      swap1\n      sstore\n      pop\n      swap1\n      pop\n      pop\n        /* \"CrNFTMarketPlace/contracts/CrNFTMarketPlace.sol\":2022:2032  msg.sender */\n      caller\n        /* \"CrNFTMarketPlace/contracts/CrNFTMarketPlace.sol\":2012:2040  NFTListed(msg.sender, price) */\n      0xffffffffffffffffffffffffffffffffffffffff\n      and\n      0xf472bb8b2e698cee5cf56e4982e2ebb6690f88b55ea3a02d609bf32bcded3822\n        /* \"CrNFTMarketPlace/contracts/CrNFTMarketPlace.sol\":2034:2039  price */\n      dup3\n        /* \"CrNFTMarketPlace/contracts/CrNFTMarketPlace.sol\":2012:2040  NFTListed(msg.sender, price) */\n      mload(0x40)\n      tag_111\n      swap2\n      swap1\n      tag_64\n      jump\t// in\n    tag_111:\n      mload(0x40)\n      dup1\n      swap2\n      sub\n      swap1\n      log2\n        /* \"CrNFTMarketPlace/contracts/CrNFTMarketPlace.sol\":1746:2047  function listNFT(uint256 price) public {... */\n      pop\n      jump\t// out\n        /* \"CrNFTMarketPlace/contracts/CrNFTMarketPlace.sol\":2314:2735  function sellNFT(address buyer) public payable isForSale(msg.sender) hasEnoughFunds(nfts[msg.sender].price) {... */\n    tag_54:\n        /* \"CrNFTMarketPlace/contracts/CrNFTMarketPlace.sol\":2371:2381  msg.sender */\n      caller\n        /* \"CrNFTMarketPlace/contracts/CrNFTMarketPlace.sol\":1474:1478  true */\n      0x01\n        /* \"CrNFTMarketPlace/contracts/CrNFTMarketPlace.sol\":1444:1478  nfts[nftAddress].isForSale == true */\n      iszero\n      iszero\n        /* \"CrNFTMarketPlace/contracts/CrNFTMarketPlace.sol\":1444:1448  nfts */\n      0x00\n        /* \"CrNFTMarketPlace/contracts/CrNFTMarketPlace.sol\":1444:1460  nfts[nftAddress] */\n      0x00\n        /* \"CrNFTMarketPlace/contracts/CrNFTMarketPlace.sol\":1449:1459  nftAddress */\n      dup4\n        /* \"CrNFTMarketPlace/contracts/CrNFTMarketPlace.sol\":1444:1460  nfts[nftAddress] */\n      0xffffffffffffffffffffffffffffffffffffffff\n      and\n      0xffffffffffffffffffffffffffffffffffffffff\n      and\n      dup2\n      mstore\n      0x20\n      add\n      swap1\n      dup2\n      mstore\n      0x20\n      add\n      0x00\n      keccak256\n        /* \"CrNFTMarketPlace/contracts/CrNFTMarketPlace.sol\":1444:1470  nfts[nftAddress].isForSale */\n      0x02\n      add\n      0x00\n      swap1\n      sload\n      swap1\n      0x0100\n      exp\n      swap1\n      div\n      0xff\n      and\n        /* \"CrNFTMarketPlace/contracts/CrNFTMarketPlace.sol\":1444:1478  nfts[nftAddress].isForSale == true */\n      iszero\n      iszero\n      eq\n        /* \"CrNFTMarketPlace/contracts/CrNFTMarketPlace.sol\":1436:1502  require(nfts[nftAddress].isForSale == true, \"NFT is not for sale\") */\n      tag_113\n      jumpi\n      mload(0x40)\n      0x08c379a000000000000000000000000000000000000000000000000000000000\n      dup2\n      mstore\n      0x04\n      add\n      tag_114\n      swap1\n      tag_98\n      jump\t// in\n    tag_114:\n      mload(0x40)\n      dup1\n      swap2\n      sub\n      swap1\n      revert\n    tag_113:\n        /* \"CrNFTMarketPlace/contracts/CrNFTMarketPlace.sol\":2398:2402  nfts */\n      0x00\n        /* \"CrNFTMarketPlace/contracts/CrNFTMarketPlace.sol\":2398:2414  nfts[msg.sender] */\n      0x00\n        /* \"CrNFTMarketPlace/contracts/CrNFTMarketPlace.sol\":2403:2413  msg.sender */\n      caller\n        /* \"CrNFTMarketPlace/contracts/CrNFTMarketPlace.sol\":2398:2414  nfts[msg.sender] */\n      0xffffffffffffffffffffffffffffffffffffffff\n      and\n      0xffffffffffffffffffffffffffffffffffffffff\n      and\n      dup2\n      mstore\n      0x20\n      add\n      swap1\n      dup2\n      mstore\n      0x20\n      add\n      0x00\n      keccak256\n        /* \"CrNFTMarketPlace/contracts/CrNFTMarketPlace.sol\":2398:2420  nfts[msg.sender].price */\n      0x01\n      add\n      sload\n        /* \"CrNFTMarketPlace/contracts/CrNFTMarketPlace.sol\":1596:1601  price */\n      dup1\n        /* \"CrNFTMarketPlace/contracts/CrNFTMarketPlace.sol\":1583:1592  msg.value */\n      callvalue\n        /* \"CrNFTMarketPlace/contracts/CrNFTMarketPlace.sol\":1583:1601  msg.value >= price */\n      lt\n      iszero\n        /* \"CrNFTMarketPlace/contracts/CrNFTMarketPlace.sol\":1575:1635  require(msg.value >= price, \"Insufficient funds to buy NFT\") */\n      tag_116\n      jumpi\n      mload(0x40)\n      0x08c379a000000000000000000000000000000000000000000000000000000000\n      dup2\n      mstore\n      0x04\n      add\n      tag_117\n      swap1\n      tag_102\n      jump\t// in\n    tag_117:\n      mload(0x40)\n      dup1\n      swap2\n      sub\n      swap1\n      revert\n    tag_116:\n        /* \"CrNFTMarketPlace/contracts/CrNFTMarketPlace.sol\":2432:2445  uint256 price */\n      0x00\n        /* \"CrNFTMarketPlace/contracts/CrNFTMarketPlace.sol\":2448:2452  nfts */\n      0x00\n        /* \"CrNFTMarketPlace/contracts/CrNFTMarketPlace.sol\":2448:2464  nfts[msg.sender] */\n      0x00\n        /* \"CrNFTMarketPlace/contracts/CrNFTMarketPlace.sol\":2453:2463  msg.sender */\n      caller\n        /* \"CrNFTMarketPlace/contracts/CrNFTMarketPlace.sol\":2448:2464  nfts[msg.sender] */\n      0xffffffffffffffffffffffffffffffffffffffff\n      and\n      0xffffffffffffffffffffffffffffffffffffffff\n      and\n      dup2\n      mstore\n      0x20\n      add\n      swap1\n      dup2\n      mstore\n      0x20\n      add\n      0x00\n      keccak256\n        /* \"CrNFTMarketPlace/contracts/CrNFTMarketPlace.sol\":2448:2470  nfts[msg.sender].price */\n      0x01\n      add\n      sload\n        /* \"CrNFTMarketPlace/contracts/CrNFTMarketPlace.sol\":2432:2470  uint256 price = nfts[msg.sender].price */\n      swap1\n      pop\n        /* \"CrNFTMarketPlace/contracts/CrNFTMarketPlace.sol\":2480:2494  address seller */\n      0x00\n        /* \"CrNFTMarketPlace/contracts/CrNFTMarketPlace.sol\":2497:2507  msg.sender */\n      caller\n        /* \"CrNFTMarketPlace/contracts/CrNFTMarketPlace.sol\":2480:2507  address seller = msg.sender */\n      swap1\n      pop\n        /* \"CrNFTMarketPlace/contracts/CrNFTMarketPlace.sol\":2526:2532  seller */\n      dup1\n        /* \"CrNFTMarketPlace/contracts/CrNFTMarketPlace.sol\":2518:2542  payable(seller).transfer */\n      0xffffffffffffffffffffffffffffffffffffffff\n      and\n        /* \"CrNFTMarketPlace/contracts/CrNFTMarketPlace.sol\":2518:2555  payable(seller).transfer(price - fee) */\n      0x08fc\n        /* \"CrNFTMarketPlace/contracts/CrNFTMarketPlace.sol\":2551:2554  fee */\n      sload(0x03)\n        /* \"CrNFTMarketPlace/contracts/CrNFTMarketPlace.sol\":2543:2548  price */\n      dup5\n        /* \"CrNFTMarketPlace/contracts/CrNFTMarketPlace.sol\":2543:2554  price - fee */\n      tag_119\n      swap2\n      swap1\n      tag_120\n      jump\t// in\n    tag_119:\n        /* \"CrNFTMarketPlace/contracts/CrNFTMarketPlace.sol\":2518:2555  payable(seller).transfer(price - fee) */\n      swap1\n      dup2\n      iszero\n      mul\n      swap1\n      mload(0x40)\n      0x00\n      mload(0x40)\n      dup1\n      dup4\n      sub\n      dup2\n      dup6\n      dup9\n      dup9\n      call\n      swap4\n      pop\n      pop\n      pop\n      pop\n      iszero\n      dup1\n      iszero\n      tag_122\n      jumpi\n      returndatacopy(0x00, 0x00, returndatasize)\n      revert(0x00, returndatasize)\n    tag_122:\n      pop\n        /* \"CrNFTMarketPlace/contracts/CrNFTMarketPlace.sol\":2575:2580  owner */\n      0x02\n      0x00\n      swap1\n      sload\n      swap1\n      0x0100\n      exp\n      swap1\n      div\n      0xffffffffffffffffffffffffffffffffffffffff\n      and\n        /* \"CrNFTMarketPlace/contracts/CrNFTMarketPlace.sol\":2567:2590  payable(owner).transfer */\n      0xffffffffffffffffffffffffffffffffffffffff\n      and\n        /* \"CrNFTMarketPlace/contracts/CrNFTMarketPlace.sol\":2567:2595  payable(owner).transfer(fee) */\n      0x08fc\n        /* \"CrNFTMarketPlace/contracts/CrNFTMarketPlace.sol\":2591:2594  fee */\n      sload(0x03)\n        /* \"CrNFTMarketPlace/contracts/CrNFTMarketPlace.sol\":2567:2595  payable(owner).transfer(fee) */\n      swap1\n      dup2\n      iszero\n      mul\n      swap1\n      mload(0x40)\n      0x00\n      mload(0x40)\n      dup1\n      dup4\n      sub\n      dup2\n      dup6\n      dup9\n      dup9\n      call\n      swap4\n      pop\n      pop\n      pop\n      pop\n      iszero\n      dup1\n      iszero\n      tag_124\n      jumpi\n      returndatacopy(0x00, 0x00, returndatasize)\n      revert(0x00, returndatasize)\n    tag_124:\n      pop\n        /* \"CrNFTMarketPlace/contracts/CrNFTMarketPlace.sol\":2638:2643  buyer */\n      dup5\n        /* \"CrNFTMarketPlace/contracts/CrNFTMarketPlace.sol\":2617:2621  nfts */\n      0x00\n        /* \"CrNFTMarketPlace/contracts/CrNFTMarketPlace.sol\":2617:2629  nfts[seller] */\n      0x00\n        /* \"CrNFTMarketPlace/contracts/CrNFTMarketPlace.sol\":2622:2628  seller */\n      dup4\n        /* \"CrNFTMarketPlace/contracts/CrNFTMarketPlace.sol\":2617:2629  nfts[seller] */\n      0xffffffffffffffffffffffffffffffffffffffff\n      and\n      0xffffffffffffffffffffffffffffffffffffffff\n      and\n      dup2\n      mstore\n      0x20\n      add\n      swap1\n      dup2\n      mstore\n      0x20\n      add\n      0x00\n      keccak256\n        /* \"CrNFTMarketPlace/contracts/CrNFTMarketPlace.sol\":2617:2635  nfts[seller].owner */\n      0x00\n      add\n      0x00\n        /* \"CrNFTMarketPlace/contracts/CrNFTMarketPlace.sol\":2617:2643  nfts[seller].owner = buyer */\n      0x0100\n      exp\n      dup2\n      sload\n      dup2\n      0xffffffffffffffffffffffffffffffffffffffff\n      mul\n      not\n      and\n      swap1\n      dup4\n      0xffffffffffffffffffffffffffffffffffffffff\n      and\n      mul\n      or\n      swap1\n      sstore\n      pop\n        /* \"CrNFTMarketPlace/contracts/CrNFTMarketPlace.sol\":2678:2683  false */\n      0x00\n        /* \"CrNFTMarketPlace/contracts/CrNFTMarketPlace.sol\":2653:2657  nfts */\n      0x00\n        /* \"CrNFTMarketPlace/contracts/CrNFTMarketPlace.sol\":2653:2665  nfts[seller] */\n      0x00\n        /* \"CrNFTMarketPlace/contracts/CrNFTMarketPlace.sol\":2658:2664  seller */\n      dup4\n        /* \"CrNFTMarketPlace/contracts/CrNFTMarketPlace.sol\":2653:2665  nfts[seller] */\n      0xffffffffffffffffffffffffffffffffffffffff\n      and\n      0xffffffffffffffffffffffffffffffffffffffff\n      and\n      dup2\n      mstore\n      0x20\n      add\n      swap1\n      dup2\n      mstore\n      0x20\n      add\n      0x00\n      keccak256\n        /* \"CrNFTMarketPlace/contracts/CrNFTMarketPlace.sol\":2653:2675  nfts[seller].isForSale */\n      0x02\n      add\n      0x00\n        /* \"CrNFTMarketPlace/contracts/CrNFTMarketPlace.sol\":2653:2683  nfts[seller].isForSale = false */\n      0x0100\n      exp\n      dup2\n      sload\n      dup2\n      0xff\n      mul\n      not\n      and\n      swap1\n      dup4\n      iszero\n      iszero\n      mul\n      or\n      swap1\n      sstore\n      pop\n        /* \"CrNFTMarketPlace/contracts/CrNFTMarketPlace.sol\":2714:2720  seller */\n      dup1\n        /* \"CrNFTMarketPlace/contracts/CrNFTMarketPlace.sol\":2699:2728  NFTSold(buyer, seller, price) */\n      0xffffffffffffffffffffffffffffffffffffffff\n      and\n        /* \"CrNFTMarketPlace/contracts/CrNFTMarketPlace.sol\":2707:2712  buyer */\n      dup6\n        /* \"CrNFTMarketPlace/contracts/CrNFTMarketPlace.sol\":2699:2728  NFTSold(buyer, seller, price) */\n      0xffffffffffffffffffffffffffffffffffffffff\n      and\n      0x777395bdf59f3645ce2ad2d0ea17e3d827249c006023a69bb899e5c4efbcced5\n        /* \"CrNFTMarketPlace/contracts/CrNFTMarketPlace.sol\":2722:2727  price */\n      dup5\n        /* \"CrNFTMarketPlace/contracts/CrNFTMarketPlace.sol\":2699:2728  NFTSold(buyer, seller, price) */\n      mload(0x40)\n      tag_125\n      swap2\n      swap1\n      tag_64\n      jump\t// in\n    tag_125:\n      mload(0x40)\n      dup1\n      swap2\n      sub\n      swap1\n      log3\n        /* \"CrNFTMarketPlace/contracts/CrNFTMarketPlace.sol\":2422:2735  {... */\n      pop\n      pop\n        /* \"CrNFTMarketPlace/contracts/CrNFTMarketPlace.sol\":1512:1513  _ */\n      pop\n        /* \"CrNFTMarketPlace/contracts/CrNFTMarketPlace.sol\":2314:2735  function sellNFT(address buyer) public payable isForSale(msg.sender) hasEnoughFunds(nfts[msg.sender].price) {... */\n      pop\n      pop\n      jump\t// out\n        /* \"CrNFTMarketPlace/contracts/CrNFTMarketPlace.sol\":788:828  mapping(uint256 => NFT) public nftPrices */\n    tag_58:\n      mstore(0x20, 0x01)\n      dup1\n      0x00\n      mstore\n      keccak256(0x00, 0x40)\n      0x00\n      swap2\n      pop\n      swap1\n      pop\n      dup1\n      0x00\n      add\n      0x00\n      swap1\n      sload\n      swap1\n      0x0100\n      exp\n      swap1\n      div\n      0xffffffffffffffffffffffffffffffffffffffff\n      and\n      swap1\n      dup1\n      0x01\n      add\n      sload\n      swap1\n      dup1\n      0x02\n      add\n      0x00\n      swap1\n      sload\n      swap1\n      0x0100\n      exp\n      swap1\n      div\n      0xff\n      and\n      swap1\n      pop\n      dup4\n      jump\t// out\n        /* \"CrNFTMarketPlace/contracts/CrNFTMarketPlace.sol\":884:902  uint256 public fee */\n    tag_62:\n      sload(0x03)\n      dup2\n      jump\t// out\n        /* \"CrNFTMarketPlace/contracts/CrNFTMarketPlace.sol\":3200:3398  function changeNFTPrice(uint256 newPrice) public {... */\n    tag_68:\n        /* \"CrNFTMarketPlace/contracts/CrNFTMarketPlace.sol\":3293:3303  msg.sender */\n      caller\n        /* \"CrNFTMarketPlace/contracts/CrNFTMarketPlace.sol\":3267:3303  nfts[msg.sender].owner == msg.sender */\n      0xffffffffffffffffffffffffffffffffffffffff\n      and\n        /* \"CrNFTMarketPlace/contracts/CrNFTMarketPlace.sol\":3267:3271  nfts */\n      0x00\n        /* \"CrNFTMarketPlace/contracts/CrNFTMarketPlace.sol\":3267:3283  nfts[msg.sender] */\n      0x00\n        /* \"CrNFTMarketPlace/contracts/CrNFTMarketPlace.sol\":3272:3282  msg.sender */\n      caller\n        /* \"CrNFTMarketPlace/contracts/CrNFTMarketPlace.sol\":3267:3283  nfts[msg.sender] */\n      0xffffffffffffffffffffffffffffffffffffffff\n      and\n      0xffffffffffffffffffffffffffffffffffffffff\n      and\n      dup2\n      mstore\n      0x20\n      add\n      swap1\n      dup2\n      mstore\n      0x20\n      add\n      0x00\n      keccak256\n        /* \"CrNFTMarketPlace/contracts/CrNFTMarketPlace.sol\":3267:3289  nfts[msg.sender].owner */\n      0x00\n      add\n      0x00\n      swap1\n      sload\n      swap1\n      0x0100\n      exp\n      swap1\n      div\n      0xffffffffffffffffffffffffffffffffffffffff\n      and\n        /* \"CrNFTMarketPlace/contracts/CrNFTMarketPlace.sol\":3267:3303  nfts[msg.sender].owner == msg.sender */\n      0xffffffffffffffffffffffffffffffffffffffff\n      and\n      eq\n        /* \"CrNFTMarketPlace/contracts/CrNFTMarketPlace.sol\":3259:3347  require(nfts[msg.sender].owner == msg.sender, \"Only the NFT owner can change the price\") */\n      tag_127\n      jumpi\n      mload(0x40)\n      0x08c379a000000000000000000000000000000000000000000000000000000000\n      dup2\n      mstore\n      0x04\n      add\n      tag_128\n      swap1\n      tag_129\n      jump\t// in\n    tag_128:\n      mload(0x40)\n      dup1\n      swap2\n      sub\n      swap1\n      revert\n    tag_127:\n        /* \"CrNFTMarketPlace/contracts/CrNFTMarketPlace.sol\":3383:3391  newPrice */\n      dup1\n        /* \"CrNFTMarketPlace/contracts/CrNFTMarketPlace.sol\":3358:3362  nfts */\n      0x00\n        /* \"CrNFTMarketPlace/contracts/CrNFTMarketPlace.sol\":3358:3374  nfts[msg.sender] */\n      0x00\n        /* \"CrNFTMarketPlace/contracts/CrNFTMarketPlace.sol\":3363:3373  msg.sender */\n      caller\n        /* \"CrNFTMarketPlace/contracts/CrNFTMarketPlace.sol\":3358:3374  nfts[msg.sender] */\n      0xffffffffffffffffffffffffffffffffffffffff\n      and\n      0xffffffffffffffffffffffffffffffffffffffff\n      and\n      dup2\n      mstore\n      0x20\n      add\n      swap1\n      dup2\n      mstore\n      0x20\n      add\n      0x00\n      keccak256\n        /* \"CrNFTMarketPlace/contracts/CrNFTMarketPlace.sol\":3358:3380  nfts[msg.sender].price */\n      0x01\n      add\n        /* \"CrNFTMarketPlace/contracts/CrNFTMarketPlace.sol\":3358:3391  nfts[msg.sender].price = newPrice */\n      dup2\n      swap1\n      sstore\n      pop\n        /* \"CrNFTMarketPlace/contracts/CrNFTMarketPlace.sol\":3200:3398  function changeNFTPrice(uint256 newPrice) public {... */\n      pop\n      jump\t// out\n        /* \"#utility.yul\":88:205   */\n    tag_131:\n        /* \"#utility.yul\":197:198   */\n      0x00\n        /* \"#utility.yul\":194:195   */\n      0x00\n        /* \"#utility.yul\":187:199   */\n      revert\n        /* \"#utility.yul\":334:424   */\n    tag_133:\n        /* \"#utility.yul\":368:375   */\n      0x00\n        /* \"#utility.yul\":411:416   */\n      dup2\n        /* \"#utility.yul\":404:417   */\n      iszero\n        /* \"#utility.yul\":397:418   */\n      iszero\n        /* \"#utility.yul\":386:418   */\n      swap1\n      pop\n        /* \"#utility.yul\":334:424   */\n      swap2\n      swap1\n      pop\n      jump\t// out\n        /* \"#utility.yul\":430:546   */\n    tag_134:\n        /* \"#utility.yul\":500:521   */\n      tag_170\n        /* \"#utility.yul\":515:520   */\n      dup2\n        /* \"#utility.yul\":500:521   */\n      tag_133\n      jump\t// in\n    tag_170:\n        /* \"#utility.yul\":493:498   */\n      dup2\n        /* \"#utility.yul\":490:522   */\n      eq\n        /* \"#utility.yul\":480:540   */\n      tag_171\n      jumpi\n        /* \"#utility.yul\":536:537   */\n      0x00\n        /* \"#utility.yul\":533:534   */\n      0x00\n        /* \"#utility.yul\":526:538   */\n      revert\n        /* \"#utility.yul\":480:540   */\n    tag_171:\n        /* \"#utility.yul\":430:546   */\n      pop\n      jump\t// out\n        /* \"#utility.yul\":552:685   */\n    tag_135:\n        /* \"#utility.yul\":595:600   */\n      0x00\n        /* \"#utility.yul\":633:639   */\n      dup2\n        /* \"#utility.yul\":620:640   */\n      calldataload\n        /* \"#utility.yul\":611:640   */\n      swap1\n      pop\n        /* \"#utility.yul\":649:679   */\n      tag_173\n        /* \"#utility.yul\":673:678   */\n      dup2\n        /* \"#utility.yul\":649:679   */\n      tag_134\n      jump\t// in\n    tag_173:\n        /* \"#utility.yul\":552:685   */\n      swap3\n      swap2\n      pop\n      pop\n      jump\t// out\n        /* \"#utility.yul\":691:1014   */\n    tag_18:\n        /* \"#utility.yul\":747:753   */\n      0x00\n        /* \"#utility.yul\":796:798   */\n      0x20\n        /* \"#utility.yul\":784:793   */\n      dup3\n        /* \"#utility.yul\":775:782   */\n      dup5\n        /* \"#utility.yul\":771:794   */\n      sub\n        /* \"#utility.yul\":767:799   */\n      slt\n        /* \"#utility.yul\":764:883   */\n      iszero\n      tag_175\n      jumpi\n        /* \"#utility.yul\":802:881   */\n      tag_176\n      tag_131\n      jump\t// in\n    tag_176:\n        /* \"#utility.yul\":764:883   */\n    tag_175:\n        /* \"#utility.yul\":922:923   */\n      0x00\n        /* \"#utility.yul\":947:997   */\n      tag_177\n        /* \"#utility.yul\":989:996   */\n      dup5\n        /* \"#utility.yul\":980:986   */\n      dup3\n        /* \"#utility.yul\":969:978   */\n      dup6\n        /* \"#utility.yul\":965:987   */\n      add\n        /* \"#utility.yul\":947:997   */\n      tag_135\n      jump\t// in\n    tag_177:\n        /* \"#utility.yul\":937:997   */\n      swap2\n      pop\n        /* \"#utility.yul\":893:1007   */\n      pop\n        /* \"#utility.yul\":691:1014   */\n      swap3\n      swap2\n      pop\n      pop\n      jump\t// out\n        /* \"#utility.yul\":1020:1097   */\n    tag_136:\n        /* \"#utility.yul\":1057:1064   */\n      0x00\n        /* \"#utility.yul\":1086:1091   */\n      dup2\n        /* \"#utility.yul\":1075:1091   */\n      swap1\n      pop\n        /* \"#utility.yul\":1020:1097   */\n      swap2\n      swap1\n      pop\n      jump\t// out\n        /* \"#utility.yul\":1103:1225   */\n    tag_137:\n        /* \"#utility.yul\":1176:1200   */\n      tag_180\n        /* \"#utility.yul\":1194:1199   */\n      dup2\n        /* \"#utility.yul\":1176:1200   */\n      tag_136\n      jump\t// in\n    tag_180:\n        /* \"#utility.yul\":1169:1174   */\n      dup2\n        /* \"#utility.yul\":1166:1201   */\n      eq\n        /* \"#utility.yul\":1156:1219   */\n      tag_181\n      jumpi\n        /* \"#utility.yul\":1215:1216   */\n      0x00\n        /* \"#utility.yul\":1212:1213   */\n      0x00\n        /* \"#utility.yul\":1205:1217   */\n      revert\n        /* \"#utility.yul\":1156:1219   */\n    tag_181:\n        /* \"#utility.yul\":1103:1225   */\n      pop\n      jump\t// out\n        /* \"#utility.yul\":1231:1370   */\n    tag_138:\n        /* \"#utility.yul\":1277:1282   */\n      0x00\n        /* \"#utility.yul\":1315:1321   */\n      dup2\n        /* \"#utility.yul\":1302:1322   */\n      calldataload\n        /* \"#utility.yul\":1293:1322   */\n      swap1\n      pop\n        /* \"#utility.yul\":1331:1364   */\n      tag_183\n        /* \"#utility.yul\":1358:1363   */\n      dup2\n        /* \"#utility.yul\":1331:1364   */\n      tag_137\n      jump\t// in\n    tag_183:\n        /* \"#utility.yul\":1231:1370   */\n      swap3\n      swap2\n      pop\n      pop\n      jump\t// out\n        /* \"#utility.yul\":1376:1705   */\n    tag_23:\n        /* \"#utility.yul\":1435:1441   */\n      0x00\n        /* \"#utility.yul\":1484:1486   */\n      0x20\n        /* \"#utility.yul\":1472:1481   */\n      dup3\n        /* \"#utility.yul\":1463:1470   */\n      dup5\n        /* \"#utility.yul\":1459:1482   */\n      sub\n        /* \"#utility.yul\":1455:1487   */\n      slt\n        /* \"#utility.yul\":1452:1571   */\n      iszero\n      tag_185\n      jumpi\n        /* \"#utility.yul\":1490:1569   */\n      tag_186\n      tag_131\n      jump\t// in\n    tag_186:\n        /* \"#utility.yul\":1452:1571   */\n    tag_185:\n        /* \"#utility.yul\":1610:1611   */\n      0x00\n        /* \"#utility.yul\":1635:1688   */\n      tag_187\n        /* \"#utility.yul\":1680:1687   */\n      dup5\n        /* \"#utility.yul\":1671:1677   */\n      dup3\n        /* \"#utility.yul\":1660:1669   */\n      dup6\n        /* \"#utility.yul\":1656:1678   */\n      add\n        /* \"#utility.yul\":1635:1688   */\n      tag_138\n      jump\t// in\n    tag_187:\n        /* \"#utility.yul\":1625:1688   */\n      swap2\n      pop\n        /* \"#utility.yul\":1581:1698   */\n      pop\n        /* \"#utility.yul\":1376:1705   */\n      swap3\n      swap2\n      pop\n      pop\n      jump\t// out\n        /* \"#utility.yul\":1711:1837   */\n    tag_139:\n        /* \"#utility.yul\":1748:1755   */\n      0x00\n        /* \"#utility.yul\":1788:1830   */\n      0xffffffffffffffffffffffffffffffffffffffff\n        /* \"#utility.yul\":1781:1786   */\n      dup3\n        /* \"#utility.yul\":1777:1831   */\n      and\n        /* \"#utility.yul\":1766:1831   */\n      swap1\n      pop\n        /* \"#utility.yul\":1711:1837   */\n      swap2\n      swap1\n      pop\n      jump\t// out\n        /* \"#utility.yul\":1843:1939   */\n    tag_140:\n        /* \"#utility.yul\":1880:1887   */\n      0x00\n        /* \"#utility.yul\":1909:1933   */\n      tag_190\n        /* \"#utility.yul\":1927:1932   */\n      dup3\n        /* \"#utility.yul\":1909:1933   */\n      tag_139\n      jump\t// in\n    tag_190:\n        /* \"#utility.yul\":1898:1933   */\n      swap1\n      pop\n        /* \"#utility.yul\":1843:1939   */\n      swap2\n      swap1\n      pop\n      jump\t// out\n        /* \"#utility.yul\":1945:2067   */\n    tag_141:\n        /* \"#utility.yul\":2018:2042   */\n      tag_192\n        /* \"#utility.yul\":2036:2041   */\n      dup2\n        /* \"#utility.yul\":2018:2042   */\n      tag_140\n      jump\t// in\n    tag_192:\n        /* \"#utility.yul\":2011:2016   */\n      dup2\n        /* \"#utility.yul\":2008:2043   */\n      eq\n        /* \"#utility.yul\":1998:2061   */\n      tag_193\n      jumpi\n        /* \"#utility.yul\":2057:2058   */\n      0x00\n        /* \"#utility.yul\":2054:2055   */\n      0x00\n        /* \"#utility.yul\":2047:2059   */\n      revert\n        /* \"#utility.yul\":1998:2061   */\n    tag_193:\n        /* \"#utility.yul\":1945:2067   */\n      pop\n      jump\t// out\n        /* \"#utility.yul\":2073:2212   */\n    tag_142:\n        /* \"#utility.yul\":2119:2124   */\n      0x00\n        /* \"#utility.yul\":2157:2163   */\n      dup2\n        /* \"#utility.yul\":2144:2164   */\n      calldataload\n        /* \"#utility.yul\":2135:2164   */\n      swap1\n      pop\n        /* \"#utility.yul\":2173:2206   */\n      tag_195\n        /* \"#utility.yul\":2200:2205   */\n      dup2\n        /* \"#utility.yul\":2173:2206   */\n      tag_141\n      jump\t// in\n    tag_195:\n        /* \"#utility.yul\":2073:2212   */\n      swap3\n      swap2\n      pop\n      pop\n      jump\t// out\n        /* \"#utility.yul\":2218:2692   */\n    tag_28:\n        /* \"#utility.yul\":2286:2292   */\n      0x00\n        /* \"#utility.yul\":2294:2300   */\n      0x00\n        /* \"#utility.yul\":2343:2345   */\n      0x40\n        /* \"#utility.yul\":2331:2340   */\n      dup4\n        /* \"#utility.yul\":2322:2329   */\n      dup6\n        /* \"#utility.yul\":2318:2341   */\n      sub\n        /* \"#utility.yul\":2314:2346   */\n      slt\n        /* \"#utility.yul\":2311:2430   */\n      iszero\n      tag_197\n      jumpi\n        /* \"#utility.yul\":2349:2428   */\n      tag_198\n      tag_131\n      jump\t// in\n    tag_198:\n        /* \"#utility.yul\":2311:2430   */\n    tag_197:\n        /* \"#utility.yul\":2469:2470   */\n      0x00\n        /* \"#utility.yul\":2494:2547   */\n      tag_199\n        /* \"#utility.yul\":2539:2546   */\n      dup6\n        /* \"#utility.yul\":2530:2536   */\n      dup3\n        /* \"#utility.yul\":2519:2528   */\n      dup7\n        /* \"#utility.yul\":2515:2537   */\n      add\n        /* \"#utility.yul\":2494:2547   */\n      tag_142\n      jump\t// in\n    tag_199:\n        /* \"#utility.yul\":2484:2547   */\n      swap3\n      pop\n        /* \"#utility.yul\":2440:2557   */\n      pop\n        /* \"#utility.yul\":2596:2598   */\n      0x20\n        /* \"#utility.yul\":2622:2675   */\n      tag_200\n        /* \"#utility.yul\":2667:2674   */\n      dup6\n        /* \"#utility.yul\":2658:2664   */\n      dup3\n        /* \"#utility.yul\":2647:2656   */\n      dup7\n        /* \"#utility.yul\":2643:2665   */\n      add\n        /* \"#utility.yul\":2622:2675   */\n      tag_138\n      jump\t// in\n    tag_200:\n        /* \"#utility.yul\":2612:2675   */\n      swap2\n      pop\n        /* \"#utility.yul\":2567:2685   */\n      pop\n        /* \"#utility.yul\":2218:2692   */\n      swap3\n      pop\n      swap3\n      swap1\n      pop\n      jump\t// out\n        /* \"#utility.yul\":2698:3027   */\n    tag_36:\n        /* \"#utility.yul\":2757:2763   */\n      0x00\n        /* \"#utility.yul\":2806:2808   */\n      0x20\n        /* \"#utility.yul\":2794:2803   */\n      dup3\n        /* \"#utility.yul\":2785:2792   */\n      dup5\n        /* \"#utility.yul\":2781:2804   */\n      sub\n        /* \"#utility.yul\":2777:2809   */\n      slt\n        /* \"#utility.yul\":2774:2893   */\n      iszero\n      tag_202\n      jumpi\n        /* \"#utility.yul\":2812:2891   */\n      tag_203\n      tag_131\n      jump\t// in\n    tag_203:\n        /* \"#utility.yul\":2774:2893   */\n    tag_202:\n        /* \"#utility.yul\":2932:2933   */\n      0x00\n        /* \"#utility.yul\":2957:3010   */\n      tag_204\n        /* \"#utility.yul\":3002:3009   */\n      dup5\n        /* \"#utility.yul\":2993:2999   */\n      dup3\n        /* \"#utility.yul\":2982:2991   */\n      dup6\n        /* \"#utility.yul\":2978:3000   */\n      add\n        /* \"#utility.yul\":2957:3010   */\n      tag_142\n      jump\t// in\n    tag_204:\n        /* \"#utility.yul\":2947:3010   */\n      swap2\n      pop\n        /* \"#utility.yul\":2903:3020   */\n      pop\n        /* \"#utility.yul\":2698:3027   */\n      swap3\n      swap2\n      pop\n      pop\n      jump\t// out\n        /* \"#utility.yul\":3033:3151   */\n    tag_143:\n        /* \"#utility.yul\":3120:3144   */\n      tag_206\n        /* \"#utility.yul\":3138:3143   */\n      dup2\n        /* \"#utility.yul\":3120:3144   */\n      tag_140\n      jump\t// in\n    tag_206:\n        /* \"#utility.yul\":3115:3118   */\n      dup3\n        /* \"#utility.yul\":3108:3145   */\n      mstore\n        /* \"#utility.yul\":3033:3151   */\n      pop\n      pop\n      jump\t// out\n        /* \"#utility.yul\":3157:3275   */\n    tag_144:\n        /* \"#utility.yul\":3244:3268   */\n      tag_208\n        /* \"#utility.yul\":3262:3267   */\n      dup2\n        /* \"#utility.yul\":3244:3268   */\n      tag_136\n      jump\t// in\n    tag_208:\n        /* \"#utility.yul\":3239:3242   */\n      dup3\n        /* \"#utility.yul\":3232:3269   */\n      mstore\n        /* \"#utility.yul\":3157:3275   */\n      pop\n      pop\n      jump\t// out\n        /* \"#utility.yul\":3281:3390   */\n    tag_145:\n        /* \"#utility.yul\":3362:3383   */\n      tag_210\n        /* \"#utility.yul\":3377:3382   */\n      dup2\n        /* \"#utility.yul\":3362:3383   */\n      tag_133\n      jump\t// in\n    tag_210:\n        /* \"#utility.yul\":3357:3360   */\n      dup3\n        /* \"#utility.yul\":3350:3384   */\n      mstore\n        /* \"#utility.yul\":3281:3390   */\n      pop\n      pop\n      jump\t// out\n        /* \"#utility.yul\":3396:3826   */\n    tag_39:\n        /* \"#utility.yul\":3539:3543   */\n      0x00\n        /* \"#utility.yul\":3577:3579   */\n      0x60\n        /* \"#utility.yul\":3566:3575   */\n      dup3\n        /* \"#utility.yul\":3562:3580   */\n      add\n        /* \"#utility.yul\":3554:3580   */\n      swap1\n      pop\n        /* \"#utility.yul\":3590:3661   */\n      tag_212\n        /* \"#utility.yul\":3658:3659   */\n      0x00\n        /* \"#utility.yul\":3647:3656   */\n      dup4\n        /* \"#utility.yul\":3643:3660   */\n      add\n        /* \"#utility.yul\":3634:3640   */\n      dup7\n        /* \"#utility.yul\":3590:3661   */\n      tag_143\n      jump\t// in\n    tag_212:\n        /* \"#utility.yul\":3671:3743   */\n      tag_213\n        /* \"#utility.yul\":3739:3741   */\n      0x20\n        /* \"#utility.yul\":3728:3737   */\n      dup4\n        /* \"#utility.yul\":3724:3742   */\n      add\n        /* \"#utility.yul\":3715:3721   */\n      dup6\n        /* \"#utility.yul\":3671:3743   */\n      tag_144\n      jump\t// in\n    tag_213:\n        /* \"#utility.yul\":3753:3819   */\n      tag_214\n        /* \"#utility.yul\":3815:3817   */\n      0x40\n        /* \"#utility.yul\":3804:3813   */\n      dup4\n        /* \"#utility.yul\":3800:3818   */\n      add\n        /* \"#utility.yul\":3791:3797   */\n      dup5\n        /* \"#utility.yul\":3753:3819   */\n      tag_145\n      jump\t// in\n    tag_214:\n        /* \"#utility.yul\":3396:3826   */\n      swap5\n      swap4\n      pop\n      pop\n      pop\n      pop\n      jump\t// out\n        /* \"#utility.yul\":3832:4054   */\n    tag_44:\n        /* \"#utility.yul\":3925:3929   */\n      0x00\n        /* \"#utility.yul\":3963:3965   */\n      0x20\n        /* \"#utility.yul\":3952:3961   */\n      dup3\n        /* \"#utility.yul\":3948:3966   */\n      add\n        /* \"#utility.yul\":3940:3966   */\n      swap1\n      pop\n        /* \"#utility.yul\":3976:4047   */\n      tag_216\n        /* \"#utility.yul\":4044:4045   */\n      0x00\n        /* \"#utility.yul\":4033:4042   */\n      dup4\n        /* \"#utility.yul\":4029:4046   */\n      add\n        /* \"#utility.yul\":4020:4026   */\n      dup5\n        /* \"#utility.yul\":3976:4047   */\n      tag_143\n      jump\t// in\n    tag_216:\n        /* \"#utility.yul\":3832:4054   */\n      swap3\n      swap2\n      pop\n      pop\n      jump\t// out\n        /* \"#utility.yul\":4060:4282   */\n    tag_64:\n        /* \"#utility.yul\":4153:4157   */\n      0x00\n        /* \"#utility.yul\":4191:4193   */\n      0x20\n        /* \"#utility.yul\":4180:4189   */\n      dup3\n        /* \"#utility.yul\":4176:4194   */\n      add\n        /* \"#utility.yul\":4168:4194   */\n      swap1\n      pop\n        /* \"#utility.yul\":4204:4275   */\n      tag_218\n        /* \"#utility.yul\":4272:4273   */\n      0x00\n        /* \"#utility.yul\":4261:4270   */\n      dup4\n        /* \"#utility.yul\":4257:4274   */\n      add\n        /* \"#utility.yul\":4248:4254   */\n      dup5\n        /* \"#utility.yul\":4204:4275   */\n      tag_144\n      jump\t// in\n    tag_218:\n        /* \"#utility.yul\":4060:4282   */\n      swap3\n      swap2\n      pop\n      pop\n      jump\t// out\n        /* \"#utility.yul\":4288:4457   */\n    tag_146:\n        /* \"#utility.yul\":4372:4383   */\n      0x00\n        /* \"#utility.yul\":4406:4412   */\n      dup3\n        /* \"#utility.yul\":4401:4404   */\n      dup3\n        /* \"#utility.yul\":4394:4413   */\n      mstore\n        /* \"#utility.yul\":4446:4450   */\n      0x20\n        /* \"#utility.yul\":4441:4444   */\n      dup3\n        /* \"#utility.yul\":4437:4451   */\n      add\n        /* \"#utility.yul\":4422:4451   */\n      swap1\n      pop\n        /* \"#utility.yul\":4288:4457   */\n      swap3\n      swap2\n      pop\n      pop\n      jump\t// out\n        /* \"#utility.yul\":4463:4689   */\n    tag_147:\n        /* \"#utility.yul\":4603:4637   */\n      0x4f6e6c7920746865204e4654206f776e65722063616e206368616e6765206974\n        /* \"#utility.yul\":4599:4600   */\n      0x00\n        /* \"#utility.yul\":4591:4597   */\n      dup3\n        /* \"#utility.yul\":4587:4601   */\n      add\n        /* \"#utility.yul\":4580:4638   */\n      mstore\n        /* \"#utility.yul\":4672:4681   */\n      0x7320737461746500000000000000000000000000000000000000000000000000\n        /* \"#utility.yul\":4667:4669   */\n      0x20\n        /* \"#utility.yul\":4659:4665   */\n      dup3\n        /* \"#utility.yul\":4655:4670   */\n      add\n        /* \"#utility.yul\":4648:4682   */\n      mstore\n        /* \"#utility.yul\":4463:4689   */\n      pop\n      jump\t// out\n        /* \"#utility.yul\":4695:5061   */\n    tag_148:\n        /* \"#utility.yul\":4837:4840   */\n      0x00\n        /* \"#utility.yul\":4858:4925   */\n      tag_222\n        /* \"#utility.yul\":4922:4924   */\n      0x27\n        /* \"#utility.yul\":4917:4920   */\n      dup4\n        /* \"#utility.yul\":4858:4925   */\n      tag_146\n      jump\t// in\n    tag_222:\n        /* \"#utility.yul\":4851:4925   */\n      swap2\n      pop\n        /* \"#utility.yul\":4934:5027   */\n      tag_223\n        /* \"#utility.yul\":5023:5026   */\n      dup3\n        /* \"#utility.yul\":4934:5027   */\n      tag_147\n      jump\t// in\n    tag_223:\n        /* \"#utility.yul\":5052:5054   */\n      0x40\n        /* \"#utility.yul\":5047:5050   */\n      dup3\n        /* \"#utility.yul\":5043:5055   */\n      add\n        /* \"#utility.yul\":5036:5055   */\n      swap1\n      pop\n        /* \"#utility.yul\":4695:5061   */\n      swap2\n      swap1\n      pop\n      jump\t// out\n        /* \"#utility.yul\":5067:5486   */\n    tag_72:\n        /* \"#utility.yul\":5233:5237   */\n      0x00\n        /* \"#utility.yul\":5271:5273   */\n      0x20\n        /* \"#utility.yul\":5260:5269   */\n      dup3\n        /* \"#utility.yul\":5256:5274   */\n      add\n        /* \"#utility.yul\":5248:5274   */\n      swap1\n      pop\n        /* \"#utility.yul\":5320:5329   */\n      dup2\n        /* \"#utility.yul\":5314:5318   */\n      dup2\n        /* \"#utility.yul\":5310:5330   */\n      sub\n        /* \"#utility.yul\":5306:5307   */\n      0x00\n        /* \"#utility.yul\":5295:5304   */\n      dup4\n        /* \"#utility.yul\":5291:5308   */\n      add\n        /* \"#utility.yul\":5284:5331   */\n      mstore\n        /* \"#utility.yul\":5348:5479   */\n      tag_225\n        /* \"#utility.yul\":5474:5478   */\n      dup2\n        /* \"#utility.yul\":5348:5479   */\n      tag_148\n      jump\t// in\n    tag_225:\n        /* \"#utility.yul\":5340:5479   */\n      swap1\n      pop\n        /* \"#utility.yul\":5067:5486   */\n      swap2\n      swap1\n      pop\n      jump\t// out\n        /* \"#utility.yul\":5492:5702   */\n    tag_74:\n        /* \"#utility.yul\":5579:5583   */\n      0x00\n        /* \"#utility.yul\":5617:5619   */\n      0x20\n        /* \"#utility.yul\":5606:5615   */\n      dup3\n        /* \"#utility.yul\":5602:5620   */\n      add\n        /* \"#utility.yul\":5594:5620   */\n      swap1\n      pop\n        /* \"#utility.yul\":5630:5695   */\n      tag_227\n        /* \"#utility.yul\":5692:5693   */\n      0x00\n        /* \"#utility.yul\":5681:5690   */\n      dup4\n        /* \"#utility.yul\":5677:5694   */\n      add\n        /* \"#utility.yul\":5668:5674   */\n      dup5\n        /* \"#utility.yul\":5630:5695   */\n      tag_145\n      jump\t// in\n    tag_227:\n        /* \"#utility.yul\":5492:5702   */\n      swap3\n      swap2\n      pop\n      pop\n      jump\t// out\n        /* \"#utility.yul\":5708:5881   */\n    tag_149:\n        /* \"#utility.yul\":5848:5873   */\n      0x596f7520646f206e6f74206f776e2074686973204e4654000000000000000000\n        /* \"#utility.yul\":5844:5845   */\n      0x00\n        /* \"#utility.yul\":5836:5842   */\n      dup3\n        /* \"#utility.yul\":5832:5846   */\n      add\n        /* \"#utility.yul\":5825:5874   */\n      mstore\n        /* \"#utility.yul\":5708:5881   */\n      pop\n      jump\t// out\n        /* \"#utility.yul\":5887:6253   */\n    tag_150:\n        /* \"#utility.yul\":6029:6032   */\n      0x00\n        /* \"#utility.yul\":6050:6117   */\n      tag_230\n        /* \"#utility.yul\":6114:6116   */\n      0x17\n        /* \"#utility.yul\":6109:6112   */\n      dup4\n        /* \"#utility.yul\":6050:6117   */\n      tag_146\n      jump\t// in\n    tag_230:\n        /* \"#utility.yul\":6043:6117   */\n      swap2\n      pop\n        /* \"#utility.yul\":6126:6219   */\n      tag_231\n        /* \"#utility.yul\":6215:6218   */\n      dup3\n        /* \"#utility.yul\":6126:6219   */\n      tag_149\n      jump\t// in\n    tag_231:\n        /* \"#utility.yul\":6244:6246   */\n      0x20\n        /* \"#utility.yul\":6239:6242   */\n      dup3\n        /* \"#utility.yul\":6235:6247   */\n      add\n        /* \"#utility.yul\":6228:6247   */\n      swap1\n      pop\n        /* \"#utility.yul\":5887:6253   */\n      swap2\n      swap1\n      pop\n      jump\t// out\n        /* \"#utility.yul\":6259:6678   */\n    tag_78:\n        /* \"#utility.yul\":6425:6429   */\n      0x00\n        /* \"#utility.yul\":6463:6465   */\n      0x20\n        /* \"#utility.yul\":6452:6461   */\n      dup3\n        /* \"#utility.yul\":6448:6466   */\n      add\n        /* \"#utility.yul\":6440:6466   */\n      swap1\n      pop\n        /* \"#utility.yul\":6512:6521   */\n      dup2\n        /* \"#utility.yul\":6506:6510   */\n      dup2\n        /* \"#utility.yul\":6502:6522   */\n      sub\n        /* \"#utility.yul\":6498:6499   */\n      0x00\n        /* \"#utility.yul\":6487:6496   */\n      dup4\n        /* \"#utility.yul\":6483:6500   */\n      add\n        /* \"#utility.yul\":6476:6523   */\n      mstore\n        /* \"#utility.yul\":6540:6671   */\n      tag_233\n        /* \"#utility.yul\":6666:6670   */\n      dup2\n        /* \"#utility.yul\":6540:6671   */\n      tag_150\n      jump\t// in\n    tag_233:\n        /* \"#utility.yul\":6532:6671   */\n      swap1\n      pop\n        /* \"#utility.yul\":6259:6678   */\n      swap2\n      swap1\n      pop\n      jump\t// out\n        /* \"#utility.yul\":6684:6905   */\n    tag_151:\n        /* \"#utility.yul\":6824:6858   */\n      0x4f6e6c79206f776e65722063616e20706572666f726d20746869732061637469\n        /* \"#utility.yul\":6820:6821   */\n      0x00\n        /* \"#utility.yul\":6812:6818   */\n      dup3\n        /* \"#utility.yul\":6808:6822   */\n      add\n        /* \"#utility.yul\":6801:6859   */\n      mstore\n        /* \"#utility.yul\":6893:6897   */\n      0x6f6e000000000000000000000000000000000000000000000000000000000000\n        /* \"#utility.yul\":6888:6890   */\n      0x20\n        /* \"#utility.yul\":6880:6886   */\n      dup3\n        /* \"#utility.yul\":6876:6891   */\n      add\n        /* \"#utility.yul\":6869:6898   */\n      mstore\n        /* \"#utility.yul\":6684:6905   */\n      pop\n      jump\t// out\n        /* \"#utility.yul\":6911:7277   */\n    tag_152:\n        /* \"#utility.yul\":7053:7056   */\n      0x00\n        /* \"#utility.yul\":7074:7141   */\n      tag_236\n        /* \"#utility.yul\":7138:7140   */\n      0x22\n        /* \"#utility.yul\":7133:7136   */\n      dup4\n        /* \"#utility.yul\":7074:7141   */\n      tag_146\n      jump\t// in\n    tag_236:\n        /* \"#utility.yul\":7067:7141   */\n      swap2\n      pop\n        /* \"#utility.yul\":7150:7243   */\n      tag_237\n        /* \"#utility.yul\":7239:7242   */\n      dup3\n        /* \"#utility.yul\":7150:7243   */\n      tag_151\n      jump\t// in\n    tag_237:\n        /* \"#utility.yul\":7268:7270   */\n      0x40\n        /* \"#utility.yul\":7263:7266   */\n      dup3\n        /* \"#utility.yul\":7259:7271   */\n      add\n        /* \"#utility.yul\":7252:7271   */\n      swap1\n      pop\n        /* \"#utility.yul\":6911:7277   */\n      swap2\n      swap1\n      pop\n      jump\t// out\n        /* \"#utility.yul\":7283:7702   */\n    tag_83:\n        /* \"#utility.yul\":7449:7453   */\n      0x00\n        /* \"#utility.yul\":7487:7489   */\n      0x20\n        /* \"#utility.yul\":7476:7485   */\n      dup3\n        /* \"#utility.yul\":7472:7490   */\n      add\n        /* \"#utility.yul\":7464:7490   */\n      swap1\n      pop\n        /* \"#utility.yul\":7536:7545   */\n      dup2\n        /* \"#utility.yul\":7530:7534   */\n      dup2\n        /* \"#utility.yul\":7526:7546   */\n      sub\n        /* \"#utility.yul\":7522:7523   */\n      0x00\n        /* \"#utility.yul\":7511:7520   */\n      dup4\n        /* \"#utility.yul\":7507:7524   */\n      add\n        /* \"#utility.yul\":7500:7547   */\n      mstore\n        /* \"#utility.yul\":7564:7695   */\n      tag_239\n        /* \"#utility.yul\":7690:7694   */\n      dup2\n        /* \"#utility.yul\":7564:7695   */\n      tag_152\n      jump\t// in\n    tag_239:\n        /* \"#utility.yul\":7556:7695   */\n      swap1\n      pop\n        /* \"#utility.yul\":7283:7702   */\n      swap2\n      swap1\n      pop\n      jump\t// out\n        /* \"#utility.yul\":7708:7887   */\n    tag_153:\n        /* \"#utility.yul\":7848:7879   */\n      0x526563697069656e7420616c7265616479206f776e7320616e204e4654000000\n        /* \"#utility.yul\":7844:7845   */\n      0x00\n        /* \"#utility.yul\":7836:7842   */\n      dup3\n        /* \"#utility.yul\":7832:7846   */\n      add\n        /* \"#utility.yul\":7825:7880   */\n      mstore\n        /* \"#utility.yul\":7708:7887   */\n      pop\n      jump\t// out\n        /* \"#utility.yul\":7893:8259   */\n    tag_154:\n        /* \"#utility.yul\":8035:8038   */\n      0x00\n        /* \"#utility.yul\":8056:8123   */\n      tag_242\n        /* \"#utility.yul\":8120:8122   */\n      0x1d\n        /* \"#utility.yul\":8115:8118   */\n      dup4\n        /* \"#utility.yul\":8056:8123   */\n      tag_146\n      jump\t// in\n    tag_242:\n        /* \"#utility.yul\":8049:8123   */\n      swap2\n      pop\n        /* \"#utility.yul\":8132:8225   */\n      tag_243\n        /* \"#utility.yul\":8221:8224   */\n      dup3\n        /* \"#utility.yul\":8132:8225   */\n      tag_153\n      jump\t// in\n    tag_243:\n        /* \"#utility.yul\":8250:8252   */\n      0x20\n        /* \"#utility.yul\":8245:8248   */\n      dup3\n        /* \"#utility.yul\":8241:8253   */\n      add\n        /* \"#utility.yul\":8234:8253   */\n      swap1\n      pop\n        /* \"#utility.yul\":7893:8259   */\n      swap2\n      swap1\n      pop\n      jump\t// out\n        /* \"#utility.yul\":8265:8684   */\n    tag_87:\n        /* \"#utility.yul\":8431:8435   */\n      0x00\n        /* \"#utility.yul\":8469:8471   */\n      0x20\n        /* \"#utility.yul\":8458:8467   */\n      dup3\n        /* \"#utility.yul\":8454:8472   */\n      add\n        /* \"#utility.yul\":8446:8472   */\n      swap1\n      pop\n        /* \"#utility.yul\":8518:8527   */\n      dup2\n        /* \"#utility.yul\":8512:8516   */\n      dup2\n        /* \"#utility.yul\":8508:8528   */\n      sub\n        /* \"#utility.yul\":8504:8505   */\n      0x00\n        /* \"#utility.yul\":8493:8502   */\n      dup4\n        /* \"#utility.yul\":8489:8506   */\n      add\n        /* \"#utility.yul\":8482:8529   */\n      mstore\n        /* \"#utility.yul\":8546:8677   */\n      tag_245\n        /* \"#utility.yul\":8672:8676   */\n      dup2\n        /* \"#utility.yul\":8546:8677   */\n      tag_154\n      jump\t// in\n    tag_245:\n        /* \"#utility.yul\":8538:8677   */\n      swap1\n      pop\n        /* \"#utility.yul\":8265:8684   */\n      swap2\n      swap1\n      pop\n      jump\t// out\n        /* \"#utility.yul\":8690:8859   */\n    tag_155:\n        /* \"#utility.yul\":8830:8851   */\n      0x4e4654206973206e6f7420666f722073616c6500000000000000000000000000\n        /* \"#utility.yul\":8826:8827   */\n      0x00\n        /* \"#utility.yul\":8818:8824   */\n      dup3\n        /* \"#utility.yul\":8814:8828   */\n      add\n        /* \"#utility.yul\":8807:8852   */\n      mstore\n        /* \"#utility.yul\":8690:8859   */\n      pop\n      jump\t// out\n        /* \"#utility.yul\":8865:9231   */\n    tag_156:\n        /* \"#utility.yul\":9007:9010   */\n      0x00\n        /* \"#utility.yul\":9028:9095   */\n      tag_248\n        /* \"#utility.yul\":9092:9094   */\n      0x13\n        /* \"#utility.yul\":9087:9090   */\n      dup4\n        /* \"#utility.yul\":9028:9095   */\n      tag_146\n      jump\t// in\n    tag_248:\n        /* \"#utility.yul\":9021:9095   */\n      swap2\n      pop\n        /* \"#utility.yul\":9104:9197   */\n      tag_249\n        /* \"#utility.yul\":9193:9196   */\n      dup3\n        /* \"#utility.yul\":9104:9197   */\n      tag_155\n      jump\t// in\n    tag_249:\n        /* \"#utility.yul\":9222:9224   */\n      0x20\n        /* \"#utility.yul\":9217:9220   */\n      dup3\n        /* \"#utility.yul\":9213:9225   */\n      add\n        /* \"#utility.yul\":9206:9225   */\n      swap1\n      pop\n        /* \"#utility.yul\":8865:9231   */\n      swap2\n      swap1\n      pop\n      jump\t// out\n        /* \"#utility.yul\":9237:9656   */\n    tag_98:\n        /* \"#utility.yul\":9403:9407   */\n      0x00\n        /* \"#utility.yul\":9441:9443   */\n      0x20\n        /* \"#utility.yul\":9430:9439   */\n      dup3\n        /* \"#utility.yul\":9426:9444   */\n      add\n        /* \"#utility.yul\":9418:9444   */\n      swap1\n      pop\n        /* \"#utility.yul\":9490:9499   */\n      dup2\n        /* \"#utility.yul\":9484:9488   */\n      dup2\n        /* \"#utility.yul\":9480:9500   */\n      sub\n        /* \"#utility.yul\":9476:9477   */\n      0x00\n        /* \"#utility.yul\":9465:9474   */\n      dup4\n        /* \"#utility.yul\":9461:9478   */\n      add\n        /* \"#utility.yul\":9454:9501   */\n      mstore\n        /* \"#utility.yul\":9518:9649   */\n      tag_251\n        /* \"#utility.yul\":9644:9648   */\n      dup2\n        /* \"#utility.yul\":9518:9649   */\n      tag_156\n      jump\t// in\n    tag_251:\n        /* \"#utility.yul\":9510:9649   */\n      swap1\n      pop\n        /* \"#utility.yul\":9237:9656   */\n      swap2\n      swap1\n      pop\n      jump\t// out\n        /* \"#utility.yul\":9662:9841   */\n    tag_157:\n        /* \"#utility.yul\":9802:9833   */\n      0x496e73756666696369656e742066756e647320746f20627579204e4654000000\n        /* \"#utility.yul\":9798:9799   */\n      0x00\n        /* \"#utility.yul\":9790:9796   */\n      dup3\n        /* \"#utility.yul\":9786:9800   */\n      add\n        /* \"#utility.yul\":9779:9834   */\n      mstore\n        /* \"#utility.yul\":9662:9841   */\n      pop\n      jump\t// out\n        /* \"#utility.yul\":9847:10213   */\n    tag_158:\n        /* \"#utility.yul\":9989:9992   */\n      0x00\n        /* \"#utility.yul\":10010:10077   */\n      tag_254\n        /* \"#utility.yul\":10074:10076   */\n      0x1d\n        /* \"#utility.yul\":10069:10072   */\n      dup4\n        /* \"#utility.yul\":10010:10077   */\n      tag_146\n      jump\t// in\n    tag_254:\n        /* \"#utility.yul\":10003:10077   */\n      swap2\n      pop\n        /* \"#utility.yul\":10086:10179   */\n      tag_255\n        /* \"#utility.yul\":10175:10178   */\n      dup3\n        /* \"#utility.yul\":10086:10179   */\n      tag_157\n      jump\t// in\n    tag_255:\n        /* \"#utility.yul\":10204:10206   */\n      0x20\n        /* \"#utility.yul\":10199:10202   */\n      dup3\n        /* \"#utility.yul\":10195:10207   */\n      add\n        /* \"#utility.yul\":10188:10207   */\n      swap1\n      pop\n        /* \"#utility.yul\":9847:10213   */\n      swap2\n      swap1\n      pop\n      jump\t// out\n        /* \"#utility.yul\":10219:10638   */\n    tag_102:\n        /* \"#utility.yul\":10385:10389   */\n      0x00\n        /* \"#utility.yul\":10423:10425   */\n      0x20\n        /* \"#utility.yul\":10412:10421   */\n      dup3\n        /* \"#utility.yul\":10408:10426   */\n      add\n        /* \"#utility.yul\":10400:10426   */\n      swap1\n      pop\n        /* \"#utility.yul\":10472:10481   */\n      dup2\n        /* \"#utility.yul\":10466:10470   */\n      dup2\n        /* \"#utility.yul\":10462:10482   */\n      sub\n        /* \"#utility.yul\":10458:10459   */\n      0x00\n        /* \"#utility.yul\":10447:10456   */\n      dup4\n        /* \"#utility.yul\":10443:10460   */\n      add\n        /* \"#utility.yul\":10436:10483   */\n      mstore\n        /* \"#utility.yul\":10500:10631   */\n      tag_257\n        /* \"#utility.yul\":10626:10630   */\n      dup2\n        /* \"#utility.yul\":10500:10631   */\n      tag_158\n      jump\t// in\n    tag_257:\n        /* \"#utility.yul\":10492:10631   */\n      swap1\n      pop\n        /* \"#utility.yul\":10219:10638   */\n      swap2\n      swap1\n      pop\n      jump\t// out\n        /* \"#utility.yul\":10644:10818   */\n    tag_159:\n        /* \"#utility.yul\":10784:10810   */\n      0x496e636f72726563742063757272656e63792076616c75650000000000000000\n        /* \"#utility.yul\":10780:10781   */\n      0x00\n        /* \"#utility.yul\":10772:10778   */\n      dup3\n        /* \"#utility.yul\":10768:10782   */\n      add\n        /* \"#utility.yul\":10761:10811   */\n      mstore\n        /* \"#utility.yul\":10644:10818   */\n      pop\n      jump\t// out\n        /* \"#utility.yul\":10824:11190   */\n    tag_160:\n        /* \"#utility.yul\":10966:10969   */\n      0x00\n        /* \"#utility.yul\":10987:11054   */\n      tag_260\n        /* \"#utility.yul\":11051:11053   */\n      0x18\n        /* \"#utility.yul\":11046:11049   */\n      dup4\n        /* \"#utility.yul\":10987:11054   */\n      tag_146\n      jump\t// in\n    tag_260:\n        /* \"#utility.yul\":10980:11054   */\n      swap2\n      pop\n        /* \"#utility.yul\":11063:11156   */\n      tag_261\n        /* \"#utility.yul\":11152:11155   */\n      dup3\n        /* \"#utility.yul\":11063:11156   */\n      tag_159\n      jump\t// in\n    tag_261:\n        /* \"#utility.yul\":11181:11183   */\n      0x20\n        /* \"#utility.yul\":11176:11179   */\n      dup3\n        /* \"#utility.yul\":11172:11184   */\n      add\n        /* \"#utility.yul\":11165:11184   */\n      swap1\n      pop\n        /* \"#utility.yul\":10824:11190   */\n      swap2\n      swap1\n      pop\n      jump\t// out\n        /* \"#utility.yul\":11196:11615   */\n    tag_106:\n        /* \"#utility.yul\":11362:11366   */\n      0x00\n        /* \"#utility.yul\":11400:11402   */\n      0x20\n        /* \"#utility.yul\":11389:11398   */\n      dup3\n        /* \"#utility.yul\":11385:11403   */\n      add\n        /* \"#utility.yul\":11377:11403   */\n      swap1\n      pop\n        /* \"#utility.yul\":11449:11458   */\n      dup2\n        /* \"#utility.yul\":11443:11447   */\n      dup2\n        /* \"#utility.yul\":11439:11459   */\n      sub\n        /* \"#utility.yul\":11435:11436   */\n      0x00\n        /* \"#utility.yul\":11424:11433   */\n      dup4\n        /* \"#utility.yul\":11420:11437   */\n      add\n        /* \"#utility.yul\":11413:11460   */\n      mstore\n        /* \"#utility.yul\":11477:11608   */\n      tag_263\n        /* \"#utility.yul\":11603:11607   */\n      dup2\n        /* \"#utility.yul\":11477:11608   */\n      tag_160\n      jump\t// in\n    tag_263:\n        /* \"#utility.yul\":11469:11608   */\n      swap1\n      pop\n        /* \"#utility.yul\":11196:11615   */\n      swap2\n      swap1\n      pop\n      jump\t// out\n        /* \"#utility.yul\":11621:11801   */\n    tag_161:\n        /* \"#utility.yul\":11669:11746   */\n      0x4e487b7100000000000000000000000000000000000000000000000000000000\n        /* \"#utility.yul\":11666:11667   */\n      0x00\n        /* \"#utility.yul\":11659:11747   */\n      mstore\n        /* \"#utility.yul\":11766:11770   */\n      0x11\n        /* \"#utility.yul\":11763:11764   */\n      0x04\n        /* \"#utility.yul\":11756:11771   */\n      mstore\n        /* \"#utility.yul\":11790:11794   */\n      0x24\n        /* \"#utility.yul\":11787:11788   */\n      0x00\n        /* \"#utility.yul\":11780:11795   */\n      revert\n        /* \"#utility.yul\":11807:12001   */\n    tag_120:\n        /* \"#utility.yul\":11847:11851   */\n      0x00\n        /* \"#utility.yul\":11867:11887   */\n      tag_266\n        /* \"#utility.yul\":11885:11886   */\n      dup3\n        /* \"#utility.yul\":11867:11887   */\n      tag_136\n      jump\t// in\n    tag_266:\n        /* \"#utility.yul\":11862:11887   */\n      swap2\n      pop\n        /* \"#utility.yul\":11901:11921   */\n      tag_267\n        /* \"#utility.yul\":11919:11920   */\n      dup4\n        /* \"#utility.yul\":11901:11921   */\n      tag_136\n      jump\t// in\n    tag_267:\n        /* \"#utility.yul\":11896:11921   */\n      swap3\n      pop\n        /* \"#utility.yul\":11945:11946   */\n      dup3\n        /* \"#utility.yul\":11942:11943   */\n      dup3\n        /* \"#utility.yul\":11938:11947   */\n      sub\n        /* \"#utility.yul\":11930:11947   */\n      swap1\n      pop\n        /* \"#utility.yul\":11969:11970   */\n      dup2\n        /* \"#utility.yul\":11963:11967   */\n      dup2\n        /* \"#utility.yul\":11960:11971   */\n      gt\n        /* \"#utility.yul\":11957:11994   */\n      iszero\n      tag_268\n      jumpi\n        /* \"#utility.yul\":11974:11992   */\n      tag_269\n      tag_161\n      jump\t// in\n    tag_269:\n        /* \"#utility.yul\":11957:11994   */\n    tag_268:\n        /* \"#utility.yul\":11807:12001   */\n      swap3\n      swap2\n      pop\n      pop\n      jump\t// out\n        /* \"#utility.yul\":12007:12233   */\n    tag_162:\n        /* \"#utility.yul\":12147:12181   */\n      0x4f6e6c7920746865204e4654206f776e65722063616e206368616e6765207468\n        /* \"#utility.yul\":12143:12144   */\n      0x00\n        /* \"#utility.yul\":12135:12141   */\n      dup3\n        /* \"#utility.yul\":12131:12145   */\n      add\n        /* \"#utility.yul\":12124:12182   */\n      mstore\n        /* \"#utility.yul\":12216:12225   */\n      0x6520707269636500000000000000000000000000000000000000000000000000\n        /* \"#utility.yul\":12211:12213   */\n      0x20\n        /* \"#utility.yul\":12203:12209   */\n      dup3\n        /* \"#utility.yul\":12199:12214   */\n      add\n        /* \"#utility.yul\":12192:12226   */\n      mstore\n        /* \"#utility.yul\":12007:12233   */\n      pop\n      jump\t// out\n        /* \"#utility.yul\":12239:12605   */\n    tag_163:\n        /* \"#utility.yul\":12381:12384   */\n      0x00\n        /* \"#utility.yul\":12402:12469   */\n      tag_272\n        /* \"#utility.yul\":12466:12468   */\n      0x27\n        /* \"#utility.yul\":12461:12464   */\n      dup4\n        /* \"#utility.yul\":12402:12469   */\n      tag_146\n      jump\t// in\n    tag_272:\n        /* \"#utility.yul\":12395:12469   */\n      swap2\n      pop\n        /* \"#utility.yul\":12478:12571   */\n      tag_273\n        /* \"#utility.yul\":12567:12570   */\n      dup3\n        /* \"#utility.yul\":12478:12571   */\n      tag_162\n      jump\t// in\n    tag_273:\n        /* \"#utility.yul\":12596:12598   */\n      0x40\n        /* \"#utility.yul\":12591:12594   */\n      dup3\n        /* \"#utility.yul\":12587:12599   */\n      add\n        /* \"#utility.yul\":12580:12599   */\n      swap1\n      pop\n        /* \"#utility.yul\":12239:12605   */\n      swap2\n      swap1\n      pop\n      jump\t// out\n        /* \"#utility.yul\":12611:13030   */\n    tag_129:\n        /* \"#utility.yul\":12777:12781   */\n      0x00\n        /* \"#utility.yul\":12815:12817   */\n      0x20\n        /* \"#utility.yul\":12804:12813   */\n      dup3\n        /* \"#utility.yul\":12800:12818   */\n      add\n        /* \"#utility.yul\":12792:12818   */\n      swap1\n      pop\n        /* \"#utility.yul\":12864:12873   */\n      dup2\n        /* \"#utility.yul\":12858:12862   */\n      dup2\n        /* \"#utility.yul\":12854:12874   */\n      sub\n        /* \"#utility.yul\":12850:12851   */\n      0x00\n        /* \"#utility.yul\":12839:12848   */\n      dup4\n        /* \"#utility.yul\":12835:12852   */\n      add\n        /* \"#utility.yul\":12828:12875   */\n      mstore\n        /* \"#utility.yul\":12892:13023   */\n      tag_275\n        /* \"#utility.yul\":13018:13022   */\n      dup2\n        /* \"#utility.yul\":12892:13023   */\n      tag_163\n      jump\t// in\n    tag_275:\n        /* \"#utility.yul\":12884:13023   */\n      swap1\n      pop\n        /* \"#utility.yul\":12611:13030   */\n      swap2\n      swap1\n      pop\n      jump\t// out\n\n    auxdata: 0xa264697066735822122092244cd63254da7a9ea5c8d20b99ecfeee9109b27008cb3553b78904cd10e34e64736f6c634300081b0033\n}\n",
				"bytecode": {
					"linkReferences": {},
					"object": "6080604052348015600e575f5ffd5b50604051611a6a380380611a6a8339818101604052810190602e919060ac565b3360025f6101000a81548173ffffffffffffffffffffffffffffffffffffffff021916908373ffffffffffffffffffffffffffffffffffffffff160217905550806003819055505060d2565b5f5ffd5b5f819050919050565b608e81607e565b81146097575f5ffd5b50565b5f8151905060a6816087565b92915050565b5f6020828403121560be5760bd607a565b5b5f60c984828501609a565b91505092915050565b61198b806100df5f395ff3fe6080604052600436106100a6575f3560e01c8063ba79b56411610063578063ba79b564146101a0578063d076f13f146101bc578063d3f790d1146101e4578063d9f10a2b14610200578063ddca3f431461023e578063edc4400a14610268576100a6565b80631deb0a8f146100aa5780632a1236cb146100d25780633c168eab146100fa5780633ccfd60b14610122578063599db0f8146101385780638da5cb5b14610176575b5f5ffd5b3480156100b5575f5ffd5b506100d060048036038101906100cb919061133a565b610290565b005b3480156100dd575f5ffd5b506100f860048036038101906100f39190611398565b610402565b005b348015610105575f5ffd5b50610120600480360381019061011b919061141d565b61051e565b005b34801561012d575f5ffd5b50610136610891565b005b348015610143575f5ffd5b5061015e6004803603810190610159919061145b565b610987565b60405161016d939291906114b3565b60405180910390f35b348015610181575f5ffd5b5061018a6109d7565b60405161019791906114e8565b60405180910390f35b6101ba60048036038101906101b5919061145b565b6109fc565b005b3480156101c7575f5ffd5b506101e260048036038101906101dd9190611398565b610ba6565b005b6101fe60048036038101906101f9919061145b565b610e45565b005b34801561020b575f5ffd5b5061022660048036038101906102219190611398565b611198565b604051610235939291906114b3565b60405180910390f35b348015610249575f5ffd5b506102526111e9565b60405161025f9190611501565b60405180910390f35b348015610273575f5ffd5b5061028e60048036038101906102899190611398565b6111ef565b005b3373ffffffffffffffffffffffffffffffffffffffff165f5f3373ffffffffffffffffffffffffffffffffffffffff1673ffffffffffffffffffffffffffffffffffffffff1681526020019081526020015f205f015f9054906101000a900473ffffffffffffffffffffffffffffffffffffffff1673ffffffffffffffffffffffffffffffffffffffff161461035b576040517f08c379a00000000000000000000000000000000000000000000000000000000081526004016103529061159a565b60405180910390fd5b805f5f3373ffffffffffffffffffffffffffffffffffffffff1673ffffffffffffffffffffffffffffffffffffffff1681526020019081526020015f206002015f6101000a81548160ff0219169083151502179055503373ffffffffffffffffffffffffffffffffffffffff167f70ef3845ba68086e52ce242eadb7f59e1c1fab1f45b808e24928a0e993ec7760826040516103f791906115b8565b60405180910390a250565b3373ffffffffffffffffffffffffffffffffffffffff165f5f3373ffffffffffffffffffffffffffffffffffffffff1673ffffffffffffffffffffffffffffffffffffffff1681526020019081526020015f205f015f9054906101000a900473ffffffffffffffffffffffffffffffffffffffff1673ffffffffffffffffffffffffffffffffffffffff16146104cd576040517f08c379a00000000000000000000000000000000000000000000000000000000081526004016104c49061161b565b60405180910390fd5b3373ffffffffffffffffffffffffffffffffffffffff167f5c81d809b788873b136dc4f466964730ba9e25004fa953c321ccbcaf64560b56826040516105139190611501565b60405180910390a250565b60025f9054906101000a900473ffffffffffffffffffffffffffffffffffffffff1673ffffffffffffffffffffffffffffffffffffffff163373ffffffffffffffffffffffffffffffffffffffff16146105ad576040517f08c379a00000000000000000000000000000000000000000000000000000000081526004016105a4906116a9565b60405180910390fd5b5f73ffffffffffffffffffffffffffffffffffffffff165f5f8473ffffffffffffffffffffffffffffffffffffffff1673ffffffffffffffffffffffffffffffffffffffff1681526020019081526020015f205f015f9054906101000a900473ffffffffffffffffffffffffffffffffffffffff1673ffffffffffffffffffffffffffffffffffffffff1614610678576040517f08c379a000000000000000000000000000000000000000000000000000000000815260040161066f90611711565b60405180910390fd5b60405180606001604052808373ffffffffffffffffffffffffffffffffffffffff1681526020018281526020015f15158152505f5f8473ffffffffffffffffffffffffffffffffffffffff1673ffffffffffffffffffffffffffffffffffffffff1681526020019081526020015f205f820151815f015f6101000a81548173ffffffffffffffffffffffffffffffffffffffff021916908373ffffffffffffffffffffffffffffffffffffffff160217905550602082015181600101556040820151816002015f6101000a81548160ff0219169083151502179055509050505f5f8373ffffffffffffffffffffffffffffffffffffffff1673ffffffffffffffffffffffffffffffffffffffff1681526020019081526020015f2060015f8381526020019081526020015f205f82015f9054906101000a900473ffffffffffffffffffffffffffffffffffffffff16815f015f6101000a81548173ffffffffffffffffffffffffffffffffffffffff021916908373ffffffffffffffffffffffffffffffffffffffff16021790555060018201548160010155600282015f9054906101000a900460ff16816002015f6101000a81548160ff0219169083151502179055509050508173ffffffffffffffffffffffffffffffffffffffff167f4cc0a9c4a99ddc700de1af2c9f916a7cbfdb71f14801ccff94061ad1ef8a8040826040516108859190611501565b60405180910390a25050565b60025f9054906101000a900473ffffffffffffffffffffffffffffffffffffffff1673ffffffffffffffffffffffffffffffffffffffff163373ffffffffffffffffffffffffffffffffffffffff1614610920576040517f08c379a0000000000000000000000000000000000000000000000000000000008152600401610917906116a9565b60405180910390fd5b60025f9054906101000a900473ffffffffffffffffffffffffffffffffffffffff1673ffffffffffffffffffffffffffffffffffffffff166108fc4790811502906040515f60405180830381858888f19350505050158015610984573d5f5f3e3d5ffd5b50565b5f602052805f5260405f205f91509050805f015f9054906101000a900473ffffffffffffffffffffffffffffffffffffffff1690806001015490806002015f9054906101000a900460ff16905083565b60025f9054906101000a900473ffffffffffffffffffffffffffffffffffffffff1681565b80600115155f5f8373ffffffffffffffffffffffffffffffffffffffff1673ffffffffffffffffffffffffffffffffffffffff1681526020019081526020015f206002015f9054906101000a900460ff16151514610a8f576040517f08c379a0000000000000000000000000000000000000000000000000000000008152600401610a8690611779565b60405180910390fd5b5f5f8373ffffffffffffffffffffffffffffffffffffffff1673ffffffffffffffffffffffffffffffffffffffff1681526020019081526020015f206001015480341015610b12576040517f08c379a0000000000000000000000000000000000000000000000000000000008152600401610b09906117e1565b60405180910390fd5b5f5f5f8573ffffffffffffffffffffffffffffffffffffffff1673ffffffffffffffffffffffffffffffffffffffff1681526020019081526020015f20600101549050803414610b97576040517f08c379a0000000000000000000000000000000000000000000000000000000008152600401610b8e90611849565b60405180910390fd5b610ba033610e45565b50505050565b3373ffffffffffffffffffffffffffffffffffffffff165f5f3373ffffffffffffffffffffffffffffffffffffffff1673ffffffffffffffffffffffffffffffffffffffff1681526020019081526020015f205f015f9054906101000a900473ffffffffffffffffffffffffffffffffffffffff1673ffffffffffffffffffffffffffffffffffffffff1614610c71576040517f08c379a0000000000000000000000000000000000000000000000000000000008152600401610c689061161b565b60405180910390fd5b805f5f3373ffffffffffffffffffffffffffffffffffffffff1673ffffffffffffffffffffffffffffffffffffffff1681526020019081526020015f206001018190555060015f5f3373ffffffffffffffffffffffffffffffffffffffff1673ffffffffffffffffffffffffffffffffffffffff1681526020019081526020015f206002015f6101000a81548160ff0219169083151502179055505f5f3373ffffffffffffffffffffffffffffffffffffffff1673ffffffffffffffffffffffffffffffffffffffff1681526020019081526020015f2060015f8381526020019081526020015f205f82015f9054906101000a900473ffffffffffffffffffffffffffffffffffffffff16815f015f6101000a81548173ffffffffffffffffffffffffffffffffffffffff021916908373ffffffffffffffffffffffffffffffffffffffff16021790555060018201548160010155600282015f9054906101000a900460ff16816002015f6101000a81548160ff0219169083151502179055509050503373ffffffffffffffffffffffffffffffffffffffff167ff472bb8b2e698cee5cf56e4982e2ebb6690f88b55ea3a02d609bf32bcded382282604051610e3a9190611501565b60405180910390a250565b33600115155f5f8373ffffffffffffffffffffffffffffffffffffffff1673ffffffffffffffffffffffffffffffffffffffff1681526020019081526020015f206002015f9054906101000a900460ff16151514610ed8576040517f08c379a0000000000000000000000000000000000000000000000000000000008152600401610ecf90611779565b60405180910390fd5b5f5f3373ffffffffffffffffffffffffffffffffffffffff1673ffffffffffffffffffffffffffffffffffffffff1681526020019081526020015f206001015480341015610f5b576040517f08c379a0000000000000000000000000000000000000000000000000000000008152600401610f52906117e1565b60405180910390fd5b5f5f5f3373ffffffffffffffffffffffffffffffffffffffff1673ffffffffffffffffffffffffffffffffffffffff1681526020019081526020015f206001015490505f3390508073ffffffffffffffffffffffffffffffffffffffff166108fc60035484610fca9190611894565b90811502906040515f60405180830381858888f19350505050158015610ff2573d5f5f3e3d5ffd5b5060025f9054906101000a900473ffffffffffffffffffffffffffffffffffffffff1673ffffffffffffffffffffffffffffffffffffffff166108fc60035490811502906040515f60405180830381858888f19350505050158015611059573d5f5f3e3d5ffd5b50845f5f8373ffffffffffffffffffffffffffffffffffffffff1673ffffffffffffffffffffffffffffffffffffffff1681526020019081526020015f205f015f6101000a81548173ffffffffffffffffffffffffffffffffffffffff021916908373ffffffffffffffffffffffffffffffffffffffff1602179055505f5f5f8373ffffffffffffffffffffffffffffffffffffffff1673ffffffffffffffffffffffffffffffffffffffff1681526020019081526020015f206002015f6101000a81548160ff0219169083151502179055508073ffffffffffffffffffffffffffffffffffffffff168573ffffffffffffffffffffffffffffffffffffffff167f777395bdf59f3645ce2ad2d0ea17e3d827249c006023a69bb899e5c4efbcced5846040516111899190611501565b60405180910390a35050505050565b6001602052805f5260405f205f91509050805f015f9054906101000a900473ffffffffffffffffffffffffffffffffffffffff1690806001015490806002015f9054906101000a900460ff16905083565b60035481565b3373ffffffffffffffffffffffffffffffffffffffff165f5f3373ffffffffffffffffffffffffffffffffffffffff1673ffffffffffffffffffffffffffffffffffffffff1681526020019081526020015f205f015f9054906101000a900473ffffffffffffffffffffffffffffffffffffffff1673ffffffffffffffffffffffffffffffffffffffff16146112ba576040517f08c379a00000000000000000000000000000000000000000000000000000000081526004016112b190611937565b60405180910390fd5b805f5f3373ffffffffffffffffffffffffffffffffffffffff1673ffffffffffffffffffffffffffffffffffffffff1681526020019081526020015f206001018190555050565b5f5ffd5b5f8115159050919050565b61131981611305565b8114611323575f5ffd5b50565b5f8135905061133481611310565b92915050565b5f6020828403121561134f5761134e611301565b5b5f61135c84828501611326565b91505092915050565b5f819050919050565b61137781611365565b8114611381575f5ffd5b50565b5f813590506113928161136e565b92915050565b5f602082840312156113ad576113ac611301565b5b5f6113ba84828501611384565b91505092915050565b5f73ffffffffffffffffffffffffffffffffffffffff82169050919050565b5f6113ec826113c3565b9050919050565b6113fc816113e2565b8114611406575f5ffd5b50565b5f81359050611417816113f3565b92915050565b5f5f6040838503121561143357611432611301565b5b5f61144085828601611409565b925050602061145185828601611384565b9150509250929050565b5f602082840312156114705761146f611301565b5b5f61147d84828501611409565b91505092915050565b61148f816113e2565b82525050565b61149e81611365565b82525050565b6114ad81611305565b82525050565b5f6060820190506114c65f830186611486565b6114d36020830185611495565b6114e060408301846114a4565b949350505050565b5f6020820190506114fb5f830184611486565b92915050565b5f6020820190506115145f830184611495565b92915050565b5f82825260208201905092915050565b7f4f6e6c7920746865204e4654206f776e65722063616e206368616e67652069745f8201527f7320737461746500000000000000000000000000000000000000000000000000602082015250565b5f61158460278361151a565b915061158f8261152a565b604082019050919050565b5f6020820190508181035f8301526115b181611578565b9050919050565b5f6020820190506115cb5f8301846114a4565b92915050565b7f596f7520646f206e6f74206f776e2074686973204e46540000000000000000005f82015250565b5f61160560178361151a565b9150611610826115d1565b602082019050919050565b5f6020820190508181035f830152611632816115f9565b9050919050565b7f4f6e6c79206f776e65722063616e20706572666f726d207468697320616374695f8201527f6f6e000000000000000000000000000000000000000000000000000000000000602082015250565b5f61169360228361151a565b915061169e82611639565b604082019050919050565b5f6020820190508181035f8301526116c081611687565b9050919050565b7f526563697069656e7420616c7265616479206f776e7320616e204e46540000005f82015250565b5f6116fb601d8361151a565b9150611706826116c7565b602082019050919050565b5f6020820190508181035f830152611728816116ef565b9050919050565b7f4e4654206973206e6f7420666f722073616c65000000000000000000000000005f82015250565b5f61176360138361151a565b915061176e8261172f565b602082019050919050565b5f6020820190508181035f83015261179081611757565b9050919050565b7f496e73756666696369656e742066756e647320746f20627579204e46540000005f82015250565b5f6117cb601d8361151a565b91506117d682611797565b602082019050919050565b5f6020820190508181035f8301526117f8816117bf565b9050919050565b7f496e636f72726563742063757272656e63792076616c756500000000000000005f82015250565b5f61183360188361151a565b915061183e826117ff565b602082019050919050565b5f6020820190508181035f83015261186081611827565b9050919050565b7f4e487b71000000000000000000000000000000000000000000000000000000005f52601160045260245ffd5b5f61189e82611365565b91506118a983611365565b92508282039050818111156118c1576118c0611867565b5b92915050565b7f4f6e6c7920746865204e4654206f776e65722063616e206368616e67652074685f8201527f6520707269636500000000000000000000000000000000000000000000000000602082015250565b5f61192160278361151a565b915061192c826118c7565b604082019050919050565b5f6020820190508181035f83015261194e81611915565b905091905056fea264697066735822122092244cd63254da7a9ea5c8d20b99ecfeee9109b27008cb3553b78904cd10e34e64736f6c634300081b0033",
					"opcodes": "PUSH1 0x80 PUSH1 0x40 MSTORE CALLVALUE DUP1 ISZERO PUSH1 0xE JUMPI PUSH0 PUSH0 REVERT JUMPDEST POP PUSH1 0x40 MLOAD PUSH2 0x1A6A CODESIZE SUB DUP1 PUSH2 0x1A6A DUP4 CODECOPY DUP2 DUP2 ADD PUSH1 0x40 MSTORE DUP2 ADD SWAP1 PUSH1 0x2E SWAP2 SWAP1 PUSH1 0xAC JUMP JUMPDEST CALLER PUSH1 0x2 PUSH0 PUSH2 0x100 EXP DUP2 SLOAD DUP2 PUSH20 0xFFFFFFFFFFFFFFFFFFFFFFFFFFFFFFFFFFFFFFFF MUL NOT AND SWAP1 DUP4 PUSH20 0xFFFFFFFFFFFFFFFFFFFFFFFFFFFFFFFFFFFFFFFF AND MUL OR SWAP1 SSTORE POP DUP1 PUSH1 0x3 DUP2 SWAP1 SSTORE POP POP PUSH1 0xD2 JUMP JUMPDEST PUSH0 PUSH0 REVERT JUMPDEST PUSH0 DUP2 SWAP1 POP SWAP2 SWAP1 POP JUMP JUMPDEST PUSH1 0x8E DUP2 PUSH1 0x7E JUMP JUMPDEST DUP2 EQ PUSH1 0x97 JUMPI PUSH0 PUSH0 REVERT JUMPDEST POP JUMP JUMPDEST PUSH0 DUP2 MLOAD SWAP1 POP PUSH1 0xA6 DUP2 PUSH1 0x87 JUMP JUMPDEST SWAP3 SWAP2 POP POP JUMP JUMPDEST PUSH0 PUSH1 0x20 DUP3 DUP5 SUB SLT ISZERO PUSH1 0xBE JUMPI PUSH1 0xBD PUSH1 0x7A JUMP JUMPDEST JUMPDEST PUSH0 PUSH1 0xC9 DUP5 DUP3 DUP6 ADD PUSH1 0x9A JUMP JUMPDEST SWAP2 POP POP SWAP3 SWAP2 POP POP JUMP JUMPDEST PUSH2 0x198B DUP1 PUSH2 0xDF PUSH0 CODECOPY PUSH0 RETURN INVALID PUSH1 0x80 PUSH1 0x40 MSTORE PUSH1 0x4 CALLDATASIZE LT PUSH2 0xA6 JUMPI PUSH0 CALLDATALOAD PUSH1 0xE0 SHR DUP1 PUSH4 0xBA79B564 GT PUSH2 0x63 JUMPI DUP1 PUSH4 0xBA79B564 EQ PUSH2 0x1A0 JUMPI DUP1 PUSH4 0xD076F13F EQ PUSH2 0x1BC JUMPI DUP1 PUSH4 0xD3F790D1 EQ PUSH2 0x1E4 JUMPI DUP1 PUSH4 0xD9F10A2B EQ PUSH2 0x200 JUMPI DUP1 PUSH4 0xDDCA3F43 EQ PUSH2 0x23E JUMPI DUP1 PUSH4 0xEDC4400A EQ PUSH2 0x268 JUMPI PUSH2 0xA6 JUMP JUMPDEST DUP1 PUSH4 0x1DEB0A8F EQ PUSH2 0xAA JUMPI DUP1 PUSH4 0x2A1236CB EQ PUSH2 0xD2 JUMPI DUP1 PUSH4 0x3C168EAB EQ PUSH2 0xFA JUMPI DUP1 PUSH4 0x3CCFD60B EQ PUSH2 0x122 JUMPI DUP1 PUSH4 0x599DB0F8 EQ PUSH2 0x138 JUMPI DUP1 PUSH4 0x8DA5CB5B EQ PUSH2 0x176 JUMPI JUMPDEST PUSH0 PUSH0 REVERT JUMPDEST CALLVALUE DUP1 ISZERO PUSH2 0xB5 JUMPI PUSH0 PUSH0 REVERT JUMPDEST POP PUSH2 0xD0 PUSH1 0x4 DUP1 CALLDATASIZE SUB DUP2 ADD SWAP1 PUSH2 0xCB SWAP2 SWAP1 PUSH2 0x133A JUMP JUMPDEST PUSH2 0x290 JUMP JUMPDEST STOP JUMPDEST CALLVALUE DUP1 ISZERO PUSH2 0xDD JUMPI PUSH0 PUSH0 REVERT JUMPDEST POP PUSH2 0xF8 PUSH1 0x4 DUP1 CALLDATASIZE SUB DUP2 ADD SWAP1 PUSH2 0xF3 SWAP2 SWAP1 PUSH2 0x1398 JUMP JUMPDEST PUSH2 0x402 JUMP JUMPDEST STOP JUMPDEST CALLVALUE DUP1 ISZERO PUSH2 0x105 JUMPI PUSH0 PUSH0 REVERT JUMPDEST POP PUSH2 0x120 PUSH1 0x4 DUP1 CALLDATASIZE SUB DUP2 ADD SWAP1 PUSH2 0x11B SWAP2 SWAP1 PUSH2 0x141D JUMP JUMPDEST PUSH2 0x51E JUMP JUMPDEST STOP JUMPDEST CALLVALUE DUP1 ISZERO PUSH2 0x12D JUMPI PUSH0 PUSH0 REVERT JUMPDEST POP PUSH2 0x136 PUSH2 0x891 JUMP JUMPDEST STOP JUMPDEST CALLVALUE DUP1 ISZERO PUSH2 0x143 JUMPI PUSH0 PUSH0 REVERT JUMPDEST POP PUSH2 0x15E PUSH1 0x4 DUP1 CALLDATASIZE SUB DUP2 ADD SWAP1 PUSH2 0x159 SWAP2 SWAP1 PUSH2 0x145B JUMP JUMPDEST PUSH2 0x987 JUMP JUMPDEST PUSH1 0x40 MLOAD PUSH2 0x16D SWAP4 SWAP3 SWAP2 SWAP1 PUSH2 0x14B3 JUMP JUMPDEST PUSH1 0x40 MLOAD DUP1 SWAP2 SUB SWAP1 RETURN JUMPDEST CALLVALUE DUP1 ISZERO PUSH2 0x181 JUMPI PUSH0 PUSH0 REVERT JUMPDEST POP PUSH2 0x18A PUSH2 0x9D7 JUMP JUMPDEST PUSH1 0x40 MLOAD PUSH2 0x197 SWAP2 SWAP1 PUSH2 0x14E8 JUMP JUMPDEST PUSH1 0x40 MLOAD DUP1 SWAP2 SUB SWAP1 RETURN JUMPDEST PUSH2 0x1BA PUSH1 0x4 DUP1 CALLDATASIZE SUB DUP2 ADD SWAP1 PUSH2 0x1B5 SWAP2 SWAP1 PUSH2 0x145B JUMP JUMPDEST PUSH2 0x9FC JUMP JUMPDEST STOP JUMPDEST CALLVALUE DUP1 ISZERO PUSH2 0x1C7 JUMPI PUSH0 PUSH0 REVERT JUMPDEST POP PUSH2 0x1E2 PUSH1 0x4 DUP1 CALLDATASIZE SUB DUP2 ADD SWAP1 PUSH2 0x1DD SWAP2 SWAP1 PUSH2 0x1398 JUMP JUMPDEST PUSH2 0xBA6 JUMP JUMPDEST STOP JUMPDEST PUSH2 0x1FE PUSH1 0x4 DUP1 CALLDATASIZE SUB DUP2 ADD SWAP1 PUSH2 0x1F9 SWAP2 SWAP1 PUSH2 0x145B JUMP JUMPDEST PUSH2 0xE45 JUMP JUMPDEST STOP JUMPDEST CALLVALUE DUP1 ISZERO PUSH2 0x20B JUMPI PUSH0 PUSH0 REVERT JUMPDEST POP PUSH2 0x226 PUSH1 0x4 DUP1 CALLDATASIZE SUB DUP2 ADD SWAP1 PUSH2 0x221 SWAP2 SWAP1 PUSH2 0x1398 JUMP JUMPDEST PUSH2 0x1198 JUMP JUMPDEST PUSH1 0x40 MLOAD PUSH2 0x235 SWAP4 SWAP3 SWAP2 SWAP1 PUSH2 0x14B3 JUMP JUMPDEST PUSH1 0x40 MLOAD DUP1 SWAP2 SUB SWAP1 RETURN JUMPDEST CALLVALUE DUP1 ISZERO PUSH2 0x249 JUMPI PUSH0 PUSH0 REVERT JUMPDEST POP PUSH2 0x252 PUSH2 0x11E9 JUMP JUMPDEST PUSH1 0x40 MLOAD PUSH2 0x25F SWAP2 SWAP1 PUSH2 0x1501 JUMP JUMPDEST PUSH1 0x40 MLOAD DUP1 SWAP2 SUB SWAP1 RETURN JUMPDEST CALLVALUE DUP1 ISZERO PUSH2 0x273 JUMPI PUSH0 PUSH0 REVERT JUMPDEST POP PUSH2 0x28E PUSH1 0x4 DUP1 CALLDATASIZE SUB DUP2 ADD SWAP1 PUSH2 0x289 SWAP2 SWAP1 PUSH2 0x1398 JUMP JUMPDEST PUSH2 0x11EF JUMP JUMPDEST STOP JUMPDEST CALLER PUSH20 0xFFFFFFFFFFFFFFFFFFFFFFFFFFFFFFFFFFFFFFFF AND PUSH0 PUSH0 CALLER PUSH20 0xFFFFFFFFFFFFFFFFFFFFFFFFFFFFFFFFFFFFFFFF AND PUSH20 0xFFFFFFFFFFFFFFFFFFFFFFFFFFFFFFFFFFFFFFFF AND DUP2 MSTORE PUSH1 0x20 ADD SWAP1 DUP2 MSTORE PUSH1 0x20 ADD PUSH0 KECCAK256 PUSH0 ADD PUSH0 SWAP1 SLOAD SWAP1 PUSH2 0x100 EXP SWAP1 DIV PUSH20 0xFFFFFFFFFFFFFFFFFFFFFFFFFFFFFFFFFFFFFFFF AND PUSH20 0xFFFFFFFFFFFFFFFFFFFFFFFFFFFFFFFFFFFFFFFF AND EQ PUSH2 0x35B JUMPI PUSH1 0x40 MLOAD PUSH32 0x8C379A000000000000000000000000000000000000000000000000000000000 DUP2 MSTORE PUSH1 0x4 ADD PUSH2 0x352 SWAP1 PUSH2 0x159A JUMP JUMPDEST PUSH1 0x40 MLOAD DUP1 SWAP2 SUB SWAP1 REVERT JUMPDEST DUP1 PUSH0 PUSH0 CALLER PUSH20 0xFFFFFFFFFFFFFFFFFFFFFFFFFFFFFFFFFFFFFFFF AND PUSH20 0xFFFFFFFFFFFFFFFFFFFFFFFFFFFFFFFFFFFFFFFF AND DUP2 MSTORE PUSH1 0x20 ADD SWAP1 DUP2 MSTORE PUSH1 0x20 ADD PUSH0 KECCAK256 PUSH1 0x2 ADD PUSH0 PUSH2 0x100 EXP DUP2 SLOAD DUP2 PUSH1 0xFF MUL NOT AND SWAP1 DUP4 ISZERO ISZERO MUL OR SWAP1 SSTORE POP CALLER PUSH20 0xFFFFFFFFFFFFFFFFFFFFFFFFFFFFFFFFFFFFFFFF AND PUSH32 0x70EF3845BA68086E52CE242EADB7F59E1C1FAB1F45B808E24928A0E993EC7760 DUP3 PUSH1 0x40 MLOAD PUSH2 0x3F7 SWAP2 SWAP1 PUSH2 0x15B8 JUMP JUMPDEST PUSH1 0x40 MLOAD DUP1 SWAP2 SUB SWAP1 LOG2 POP JUMP JUMPDEST CALLER PUSH20 0xFFFFFFFFFFFFFFFFFFFFFFFFFFFFFFFFFFFFFFFF AND PUSH0 PUSH0 CALLER PUSH20 0xFFFFFFFFFFFFFFFFFFFFFFFFFFFFFFFFFFFFFFFF AND PUSH20 0xFFFFFFFFFFFFFFFFFFFFFFFFFFFFFFFFFFFFFFFF AND DUP2 MSTORE PUSH1 0x20 ADD SWAP1 DUP2 MSTORE PUSH1 0x20 ADD PUSH0 KECCAK256 PUSH0 ADD PUSH0 SWAP1 SLOAD SWAP1 PUSH2 0x100 EXP SWAP1 DIV PUSH20 0xFFFFFFFFFFFFFFFFFFFFFFFFFFFFFFFFFFFFFFFF AND PUSH20 0xFFFFFFFFFFFFFFFFFFFFFFFFFFFFFFFFFFFFFFFF AND EQ PUSH2 0x4CD JUMPI PUSH1 0x40 MLOAD PUSH32 0x8C379A000000000000000000000000000000000000000000000000000000000 DUP2 MSTORE PUSH1 0x4 ADD PUSH2 0x4C4 SWAP1 PUSH2 0x161B JUMP JUMPDEST PUSH1 0x40 MLOAD DUP1 SWAP2 SUB SWAP1 REVERT JUMPDEST CALLER PUSH20 0xFFFFFFFFFFFFFFFFFFFFFFFFFFFFFFFFFFFFFFFF AND PUSH32 0x5C81D809B788873B136DC4F466964730BA9E25004FA953C321CCBCAF64560B56 DUP3 PUSH1 0x40 MLOAD PUSH2 0x513 SWAP2 SWAP1 PUSH2 0x1501 JUMP JUMPDEST PUSH1 0x40 MLOAD DUP1 SWAP2 SUB SWAP1 LOG2 POP JUMP JUMPDEST PUSH1 0x2 PUSH0 SWAP1 SLOAD SWAP1 PUSH2 0x100 EXP SWAP1 DIV PUSH20 0xFFFFFFFFFFFFFFFFFFFFFFFFFFFFFFFFFFFFFFFF AND PUSH20 0xFFFFFFFFFFFFFFFFFFFFFFFFFFFFFFFFFFFFFFFF AND CALLER PUSH20 0xFFFFFFFFFFFFFFFFFFFFFFFFFFFFFFFFFFFFFFFF AND EQ PUSH2 0x5AD JUMPI PUSH1 0x40 MLOAD PUSH32 0x8C379A000000000000000000000000000000000000000000000000000000000 DUP2 MSTORE PUSH1 0x4 ADD PUSH2 0x5A4 SWAP1 PUSH2 0x16A9 JUMP JUMPDEST PUSH1 0x40 MLOAD DUP1 SWAP2 SUB SWAP1 REVERT JUMPDEST PUSH0 PUSH20 0xFFFFFFFFFFFFFFFFFFFFFFFFFFFFFFFFFFFFFFFF AND PUSH0 PUSH0 DUP5 PUSH20 0xFFFFFFFFFFFFFFFFFFFFFFFFFFFFFFFFFFFFFFFF AND PUSH20 0xFFFFFFFFFFFFFFFFFFFFFFFFFFFFFFFFFFFFFFFF AND DUP2 MSTORE PUSH1 0x20 ADD SWAP1 DUP2 MSTORE PUSH1 0x20 ADD PUSH0 KECCAK256 PUSH0 ADD PUSH0 SWAP1 SLOAD SWAP1 PUSH2 0x100 EXP SWAP1 DIV PUSH20 0xFFFFFFFFFFFFFFFFFFFFFFFFFFFFFFFFFFFFFFFF AND PUSH20 0xFFFFFFFFFFFFFFFFFFFFFFFFFFFFFFFFFFFFFFFF AND EQ PUSH2 0x678 JUMPI PUSH1 0x40 MLOAD PUSH32 0x8C379A000000000000000000000000000000000000000000000000000000000 DUP2 MSTORE PUSH1 0x4 ADD PUSH2 0x66F SWAP1 PUSH2 0x1711 JUMP JUMPDEST PUSH1 0x40 MLOAD DUP1 SWAP2 SUB SWAP1 REVERT JUMPDEST PUSH1 0x40 MLOAD DUP1 PUSH1 0x60 ADD PUSH1 0x40 MSTORE DUP1 DUP4 PUSH20 0xFFFFFFFFFFFFFFFFFFFFFFFFFFFFFFFFFFFFFFFF AND DUP2 MSTORE PUSH1 0x20 ADD DUP3 DUP2 MSTORE PUSH1 0x20 ADD PUSH0 ISZERO ISZERO DUP2 MSTORE POP PUSH0 PUSH0 DUP5 PUSH20 0xFFFFFFFFFFFFFFFFFFFFFFFFFFFFFFFFFFFFFFFF AND PUSH20 0xFFFFFFFFFFFFFFFFFFFFFFFFFFFFFFFFFFFFFFFF AND DUP2 MSTORE PUSH1 0x20 ADD SWAP1 DUP2 MSTORE PUSH1 0x20 ADD PUSH0 KECCAK256 PUSH0 DUP3 ADD MLOAD DUP2 PUSH0 ADD PUSH0 PUSH2 0x100 EXP DUP2 SLOAD DUP2 PUSH20 0xFFFFFFFFFFFFFFFFFFFFFFFFFFFFFFFFFFFFFFFF MUL NOT AND SWAP1 DUP4 PUSH20 0xFFFFFFFFFFFFFFFFFFFFFFFFFFFFFFFFFFFFFFFF AND MUL OR SWAP1 SSTORE POP PUSH1 0x20 DUP3 ADD MLOAD DUP2 PUSH1 0x1 ADD SSTORE PUSH1 0x40 DUP3 ADD MLOAD DUP2 PUSH1 0x2 ADD PUSH0 PUSH2 0x100 EXP DUP2 SLOAD DUP2 PUSH1 0xFF MUL NOT AND SWAP1 DUP4 ISZERO ISZERO MUL OR SWAP1 SSTORE POP SWAP1 POP POP PUSH0 PUSH0 DUP4 PUSH20 0xFFFFFFFFFFFFFFFFFFFFFFFFFFFFFFFFFFFFFFFF AND PUSH20 0xFFFFFFFFFFFFFFFFFFFFFFFFFFFFFFFFFFFFFFFF AND DUP2 MSTORE PUSH1 0x20 ADD SWAP1 DUP2 MSTORE PUSH1 0x20 ADD PUSH0 KECCAK256 PUSH1 0x1 PUSH0 DUP4 DUP2 MSTORE PUSH1 0x20 ADD SWAP1 DUP2 MSTORE PUSH1 0x20 ADD PUSH0 KECCAK256 PUSH0 DUP3 ADD PUSH0 SWAP1 SLOAD SWAP1 PUSH2 0x100 EXP SWAP1 DIV PUSH20 0xFFFFFFFFFFFFFFFFFFFFFFFFFFFFFFFFFFFFFFFF AND DUP2 PUSH0 ADD PUSH0 PUSH2 0x100 EXP DUP2 SLOAD DUP2 PUSH20 0xFFFFFFFFFFFFFFFFFFFFFFFFFFFFFFFFFFFFFFFF MUL NOT AND SWAP1 DUP4 PUSH20 0xFFFFFFFFFFFFFFFFFFFFFFFFFFFFFFFFFFFFFFFF AND MUL OR SWAP1 SSTORE POP PUSH1 0x1 DUP3 ADD SLOAD DUP2 PUSH1 0x1 ADD SSTORE PUSH1 0x2 DUP3 ADD PUSH0 SWAP1 SLOAD SWAP1 PUSH2 0x100 EXP SWAP1 DIV PUSH1 0xFF AND DUP2 PUSH1 0x2 ADD PUSH0 PUSH2 0x100 EXP DUP2 SLOAD DUP2 PUSH1 0xFF MUL NOT AND SWAP1 DUP4 ISZERO ISZERO MUL OR SWAP1 SSTORE POP SWAP1 POP POP DUP2 PUSH20 0xFFFFFFFFFFFFFFFFFFFFFFFFFFFFFFFFFFFFFFFF AND PUSH32 0x4CC0A9C4A99DDC700DE1AF2C9F916A7CBFDB71F14801CCFF94061AD1EF8A8040 DUP3 PUSH1 0x40 MLOAD PUSH2 0x885 SWAP2 SWAP1 PUSH2 0x1501 JUMP JUMPDEST PUSH1 0x40 MLOAD DUP1 SWAP2 SUB SWAP1 LOG2 POP POP JUMP JUMPDEST PUSH1 0x2 PUSH0 SWAP1 SLOAD SWAP1 PUSH2 0x100 EXP SWAP1 DIV PUSH20 0xFFFFFFFFFFFFFFFFFFFFFFFFFFFFFFFFFFFFFFFF AND PUSH20 0xFFFFFFFFFFFFFFFFFFFFFFFFFFFFFFFFFFFFFFFF AND CALLER PUSH20 0xFFFFFFFFFFFFFFFFFFFFFFFFFFFFFFFFFFFFFFFF AND EQ PUSH2 0x920 JUMPI PUSH1 0x40 MLOAD PUSH32 0x8C379A000000000000000000000000000000000000000000000000000000000 DUP2 MSTORE PUSH1 0x4 ADD PUSH2 0x917 SWAP1 PUSH2 0x16A9 JUMP JUMPDEST PUSH1 0x40 MLOAD DUP1 SWAP2 SUB SWAP1 REVERT JUMPDEST PUSH1 0x2 PUSH0 SWAP1 SLOAD SWAP1 PUSH2 0x100 EXP SWAP1 DIV PUSH20 0xFFFFFFFFFFFFFFFFFFFFFFFFFFFFFFFFFFFFFFFF AND PUSH20 0xFFFFFFFFFFFFFFFFFFFFFFFFFFFFFFFFFFFFFFFF AND PUSH2 0x8FC SELFBALANCE SWAP1 DUP2 ISZERO MUL SWAP1 PUSH1 0x40 MLOAD PUSH0 PUSH1 0x40 MLOAD DUP1 DUP4 SUB DUP2 DUP6 DUP9 DUP9 CALL SWAP4 POP POP POP POP ISZERO DUP1 ISZERO PUSH2 0x984 JUMPI RETURNDATASIZE PUSH0 PUSH0 RETURNDATACOPY RETURNDATASIZE PUSH0 REVERT JUMPDEST POP JUMP JUMPDEST PUSH0 PUSH1 0x20 MSTORE DUP1 PUSH0 MSTORE PUSH1 0x40 PUSH0 KECCAK256 PUSH0 SWAP2 POP SWAP1 POP DUP1 PUSH0 ADD PUSH0 SWAP1 SLOAD SWAP1 PUSH2 0x100 EXP SWAP1 DIV PUSH20 0xFFFFFFFFFFFFFFFFFFFFFFFFFFFFFFFFFFFFFFFF AND SWAP1 DUP1 PUSH1 0x1 ADD SLOAD SWAP1 DUP1 PUSH1 0x2 ADD PUSH0 SWAP1 SLOAD SWAP1 PUSH2 0x100 EXP SWAP1 DIV PUSH1 0xFF AND SWAP1 POP DUP4 JUMP JUMPDEST PUSH1 0x2 PUSH0 SWAP1 SLOAD SWAP1 PUSH2 0x100 EXP SWAP1 DIV PUSH20 0xFFFFFFFFFFFFFFFFFFFFFFFFFFFFFFFFFFFFFFFF AND DUP2 JUMP JUMPDEST DUP1 PUSH1 0x1 ISZERO ISZERO PUSH0 PUSH0 DUP4 PUSH20 0xFFFFFFFFFFFFFFFFFFFFFFFFFFFFFFFFFFFFFFFF AND PUSH20 0xFFFFFFFFFFFFFFFFFFFFFFFFFFFFFFFFFFFFFFFF AND DUP2 MSTORE PUSH1 0x20 ADD SWAP1 DUP2 MSTORE PUSH1 0x20 ADD PUSH0 KECCAK256 PUSH1 0x2 ADD PUSH0 SWAP1 SLOAD SWAP1 PUSH2 0x100 EXP SWAP1 DIV PUSH1 0xFF AND ISZERO ISZERO EQ PUSH2 0xA8F JUMPI PUSH1 0x40 MLOAD PUSH32 0x8C379A000000000000000000000000000000000000000000000000000000000 DUP2 MSTORE PUSH1 0x4 ADD PUSH2 0xA86 SWAP1 PUSH2 0x1779 JUMP JUMPDEST PUSH1 0x40 MLOAD DUP1 SWAP2 SUB SWAP1 REVERT JUMPDEST PUSH0 PUSH0 DUP4 PUSH20 0xFFFFFFFFFFFFFFFFFFFFFFFFFFFFFFFFFFFFFFFF AND PUSH20 0xFFFFFFFFFFFFFFFFFFFFFFFFFFFFFFFFFFFFFFFF AND DUP2 MSTORE PUSH1 0x20 ADD SWAP1 DUP2 MSTORE PUSH1 0x20 ADD PUSH0 KECCAK256 PUSH1 0x1 ADD SLOAD DUP1 CALLVALUE LT ISZERO PUSH2 0xB12 JUMPI PUSH1 0x40 MLOAD PUSH32 0x8C379A000000000000000000000000000000000000000000000000000000000 DUP2 MSTORE PUSH1 0x4 ADD PUSH2 0xB09 SWAP1 PUSH2 0x17E1 JUMP JUMPDEST PUSH1 0x40 MLOAD DUP1 SWAP2 SUB SWAP1 REVERT JUMPDEST PUSH0 PUSH0 PUSH0 DUP6 PUSH20 0xFFFFFFFFFFFFFFFFFFFFFFFFFFFFFFFFFFFFFFFF AND PUSH20 0xFFFFFFFFFFFFFFFFFFFFFFFFFFFFFFFFFFFFFFFF AND DUP2 MSTORE PUSH1 0x20 ADD SWAP1 DUP2 MSTORE PUSH1 0x20 ADD PUSH0 KECCAK256 PUSH1 0x1 ADD SLOAD SWAP1 POP DUP1 CALLVALUE EQ PUSH2 0xB97 JUMPI PUSH1 0x40 MLOAD PUSH32 0x8C379A000000000000000000000000000000000000000000000000000000000 DUP2 MSTORE PUSH1 0x4 ADD PUSH2 0xB8E SWAP1 PUSH2 0x1849 JUMP JUMPDEST PUSH1 0x40 MLOAD DUP1 SWAP2 SUB SWAP1 REVERT JUMPDEST PUSH2 0xBA0 CALLER PUSH2 0xE45 JUMP JUMPDEST POP POP POP POP JUMP JUMPDEST CALLER PUSH20 0xFFFFFFFFFFFFFFFFFFFFFFFFFFFFFFFFFFFFFFFF AND PUSH0 PUSH0 CALLER PUSH20 0xFFFFFFFFFFFFFFFFFFFFFFFFFFFFFFFFFFFFFFFF AND PUSH20 0xFFFFFFFFFFFFFFFFFFFFFFFFFFFFFFFFFFFFFFFF AND DUP2 MSTORE PUSH1 0x20 ADD SWAP1 DUP2 MSTORE PUSH1 0x20 ADD PUSH0 KECCAK256 PUSH0 ADD PUSH0 SWAP1 SLOAD SWAP1 PUSH2 0x100 EXP SWAP1 DIV PUSH20 0xFFFFFFFFFFFFFFFFFFFFFFFFFFFFFFFFFFFFFFFF AND PUSH20 0xFFFFFFFFFFFFFFFFFFFFFFFFFFFFFFFFFFFFFFFF AND EQ PUSH2 0xC71 JUMPI PUSH1 0x40 MLOAD PUSH32 0x8C379A000000000000000000000000000000000000000000000000000000000 DUP2 MSTORE PUSH1 0x4 ADD PUSH2 0xC68 SWAP1 PUSH2 0x161B JUMP JUMPDEST PUSH1 0x40 MLOAD DUP1 SWAP2 SUB SWAP1 REVERT JUMPDEST DUP1 PUSH0 PUSH0 CALLER PUSH20 0xFFFFFFFFFFFFFFFFFFFFFFFFFFFFFFFFFFFFFFFF AND PUSH20 0xFFFFFFFFFFFFFFFFFFFFFFFFFFFFFFFFFFFFFFFF AND DUP2 MSTORE PUSH1 0x20 ADD SWAP1 DUP2 MSTORE PUSH1 0x20 ADD PUSH0 KECCAK256 PUSH1 0x1 ADD DUP2 SWAP1 SSTORE POP PUSH1 0x1 PUSH0 PUSH0 CALLER PUSH20 0xFFFFFFFFFFFFFFFFFFFFFFFFFFFFFFFFFFFFFFFF AND PUSH20 0xFFFFFFFFFFFFFFFFFFFFFFFFFFFFFFFFFFFFFFFF AND DUP2 MSTORE PUSH1 0x20 ADD SWAP1 DUP2 MSTORE PUSH1 0x20 ADD PUSH0 KECCAK256 PUSH1 0x2 ADD PUSH0 PUSH2 0x100 EXP DUP2 SLOAD DUP2 PUSH1 0xFF MUL NOT AND SWAP1 DUP4 ISZERO ISZERO MUL OR SWAP1 SSTORE POP PUSH0 PUSH0 CALLER PUSH20 0xFFFFFFFFFFFFFFFFFFFFFFFFFFFFFFFFFFFFFFFF AND PUSH20 0xFFFFFFFFFFFFFFFFFFFFFFFFFFFFFFFFFFFFFFFF AND DUP2 MSTORE PUSH1 0x20 ADD SWAP1 DUP2 MSTORE PUSH1 0x20 ADD PUSH0 KECCAK256 PUSH1 0x1 PUSH0 DUP4 DUP2 MSTORE PUSH1 0x20 ADD SWAP1 DUP2 MSTORE PUSH1 0x20 ADD PUSH0 KECCAK256 PUSH0 DUP3 ADD PUSH0 SWAP1 SLOAD SWAP1 PUSH2 0x100 EXP SWAP1 DIV PUSH20 0xFFFFFFFFFFFFFFFFFFFFFFFFFFFFFFFFFFFFFFFF AND DUP2 PUSH0 ADD PUSH0 PUSH2 0x100 EXP DUP2 SLOAD DUP2 PUSH20 0xFFFFFFFFFFFFFFFFFFFFFFFFFFFFFFFFFFFFFFFF MUL NOT AND SWAP1 DUP4 PUSH20 0xFFFFFFFFFFFFFFFFFFFFFFFFFFFFFFFFFFFFFFFF AND MUL OR SWAP1 SSTORE POP PUSH1 0x1 DUP3 ADD SLOAD DUP2 PUSH1 0x1 ADD SSTORE PUSH1 0x2 DUP3 ADD PUSH0 SWAP1 SLOAD SWAP1 PUSH2 0x100 EXP SWAP1 DIV PUSH1 0xFF AND DUP2 PUSH1 0x2 ADD PUSH0 PUSH2 0x100 EXP DUP2 SLOAD DUP2 PUSH1 0xFF MUL NOT AND SWAP1 DUP4 ISZERO ISZERO MUL OR SWAP1 SSTORE POP SWAP1 POP POP CALLER PUSH20 0xFFFFFFFFFFFFFFFFFFFFFFFFFFFFFFFFFFFFFFFF AND PUSH32 0xF472BB8B2E698CEE5CF56E4982E2EBB6690F88B55EA3A02D609BF32BCDED3822 DUP3 PUSH1 0x40 MLOAD PUSH2 0xE3A SWAP2 SWAP1 PUSH2 0x1501 JUMP JUMPDEST PUSH1 0x40 MLOAD DUP1 SWAP2 SUB SWAP1 LOG2 POP JUMP JUMPDEST CALLER PUSH1 0x1 ISZERO ISZERO PUSH0 PUSH0 DUP4 PUSH20 0xFFFFFFFFFFFFFFFFFFFFFFFFFFFFFFFFFFFFFFFF AND PUSH20 0xFFFFFFFFFFFFFFFFFFFFFFFFFFFFFFFFFFFFFFFF AND DUP2 MSTORE PUSH1 0x20 ADD SWAP1 DUP2 MSTORE PUSH1 0x20 ADD PUSH0 KECCAK256 PUSH1 0x2 ADD PUSH0 SWAP1 SLOAD SWAP1 PUSH2 0x100 EXP SWAP1 DIV PUSH1 0xFF AND ISZERO ISZERO EQ PUSH2 0xED8 JUMPI PUSH1 0x40 MLOAD PUSH32 0x8C379A000000000000000000000000000000000000000000000000000000000 DUP2 MSTORE PUSH1 0x4 ADD PUSH2 0xECF SWAP1 PUSH2 0x1779 JUMP JUMPDEST PUSH1 0x40 MLOAD DUP1 SWAP2 SUB SWAP1 REVERT JUMPDEST PUSH0 PUSH0 CALLER PUSH20 0xFFFFFFFFFFFFFFFFFFFFFFFFFFFFFFFFFFFFFFFF AND PUSH20 0xFFFFFFFFFFFFFFFFFFFFFFFFFFFFFFFFFFFFFFFF AND DUP2 MSTORE PUSH1 0x20 ADD SWAP1 DUP2 MSTORE PUSH1 0x20 ADD PUSH0 KECCAK256 PUSH1 0x1 ADD SLOAD DUP1 CALLVALUE LT ISZERO PUSH2 0xF5B JUMPI PUSH1 0x40 MLOAD PUSH32 0x8C379A000000000000000000000000000000000000000000000000000000000 DUP2 MSTORE PUSH1 0x4 ADD PUSH2 0xF52 SWAP1 PUSH2 0x17E1 JUMP JUMPDEST PUSH1 0x40 MLOAD DUP1 SWAP2 SUB SWAP1 REVERT JUMPDEST PUSH0 PUSH0 PUSH0 CALLER PUSH20 0xFFFFFFFFFFFFFFFFFFFFFFFFFFFFFFFFFFFFFFFF AND PUSH20 0xFFFFFFFFFFFFFFFFFFFFFFFFFFFFFFFFFFFFFFFF AND DUP2 MSTORE PUSH1 0x20 ADD SWAP1 DUP2 MSTORE PUSH1 0x20 ADD PUSH0 KECCAK256 PUSH1 0x1 ADD SLOAD SWAP1 POP PUSH0 CALLER SWAP1 POP DUP1 PUSH20 0xFFFFFFFFFFFFFFFFFFFFFFFFFFFFFFFFFFFFFFFF AND PUSH2 0x8FC PUSH1 0x3 SLOAD DUP5 PUSH2 0xFCA SWAP2 SWAP1 PUSH2 0x1894 JUMP JUMPDEST SWAP1 DUP2 ISZERO MUL SWAP1 PUSH1 0x40 MLOAD PUSH0 PUSH1 0x40 MLOAD DUP1 DUP4 SUB DUP2 DUP6 DUP9 DUP9 CALL SWAP4 POP POP POP POP ISZERO DUP1 ISZERO PUSH2 0xFF2 JUMPI RETURNDATASIZE PUSH0 PUSH0 RETURNDATACOPY RETURNDATASIZE PUSH0 REVERT JUMPDEST POP PUSH1 0x2 PUSH0 SWAP1 SLOAD SWAP1 PUSH2 0x100 EXP SWAP1 DIV PUSH20 0xFFFFFFFFFFFFFFFFFFFFFFFFFFFFFFFFFFFFFFFF AND PUSH20 0xFFFFFFFFFFFFFFFFFFFFFFFFFFFFFFFFFFFFFFFF AND PUSH2 0x8FC PUSH1 0x3 SLOAD SWAP1 DUP2 ISZERO MUL SWAP1 PUSH1 0x40 MLOAD PUSH0 PUSH1 0x40 MLOAD DUP1 DUP4 SUB DUP2 DUP6 DUP9 DUP9 CALL SWAP4 POP POP POP POP ISZERO DUP1 ISZERO PUSH2 0x1059 JUMPI RETURNDATASIZE PUSH0 PUSH0 RETURNDATACOPY RETURNDATASIZE PUSH0 REVERT JUMPDEST POP DUP5 PUSH0 PUSH0 DUP4 PUSH20 0xFFFFFFFFFFFFFFFFFFFFFFFFFFFFFFFFFFFFFFFF AND PUSH20 0xFFFFFFFFFFFFFFFFFFFFFFFFFFFFFFFFFFFFFFFF AND DUP2 MSTORE PUSH1 0x20 ADD SWAP1 DUP2 MSTORE PUSH1 0x20 ADD PUSH0 KECCAK256 PUSH0 ADD PUSH0 PUSH2 0x100 EXP DUP2 SLOAD DUP2 PUSH20 0xFFFFFFFFFFFFFFFFFFFFFFFFFFFFFFFFFFFFFFFF MUL NOT AND SWAP1 DUP4 PUSH20 0xFFFFFFFFFFFFFFFFFFFFFFFFFFFFFFFFFFFFFFFF AND MUL OR SWAP1 SSTORE POP PUSH0 PUSH0 PUSH0 DUP4 PUSH20 0xFFFFFFFFFFFFFFFFFFFFFFFFFFFFFFFFFFFFFFFF AND PUSH20 0xFFFFFFFFFFFFFFFFFFFFFFFFFFFFFFFFFFFFFFFF AND DUP2 MSTORE PUSH1 0x20 ADD SWAP1 DUP2 MSTORE PUSH1 0x20 ADD PUSH0 KECCAK256 PUSH1 0x2 ADD PUSH0 PUSH2 0x100 EXP DUP2 SLOAD DUP2 PUSH1 0xFF MUL NOT AND SWAP1 DUP4 ISZERO ISZERO MUL OR SWAP1 SSTORE POP DUP1 PUSH20 0xFFFFFFFFFFFFFFFFFFFFFFFFFFFFFFFFFFFFFFFF AND DUP6 PUSH20 0xFFFFFFFFFFFFFFFFFFFFFFFFFFFFFFFFFFFFFFFF AND PUSH32 0x777395BDF59F3645CE2AD2D0EA17E3D827249C006023A69BB899E5C4EFBCCED5 DUP5 PUSH1 0x40 MLOAD PUSH2 0x1189 SWAP2 SWAP1 PUSH2 0x1501 JUMP JUMPDEST PUSH1 0x40 MLOAD DUP1 SWAP2 SUB SWAP1 LOG3 POP POP POP POP POP JUMP JUMPDEST PUSH1 0x1 PUSH1 0x20 MSTORE DUP1 PUSH0 MSTORE PUSH1 0x40 PUSH0 KECCAK256 PUSH0 SWAP2 POP SWAP1 POP DUP1 PUSH0 ADD PUSH0 SWAP1 SLOAD SWAP1 PUSH2 0x100 EXP SWAP1 DIV PUSH20 0xFFFFFFFFFFFFFFFFFFFFFFFFFFFFFFFFFFFFFFFF AND SWAP1 DUP1 PUSH1 0x1 ADD SLOAD SWAP1 DUP1 PUSH1 0x2 ADD PUSH0 SWAP1 SLOAD SWAP1 PUSH2 0x100 EXP SWAP1 DIV PUSH1 0xFF AND SWAP1 POP DUP4 JUMP JUMPDEST PUSH1 0x3 SLOAD DUP2 JUMP JUMPDEST CALLER PUSH20 0xFFFFFFFFFFFFFFFFFFFFFFFFFFFFFFFFFFFFFFFF AND PUSH0 PUSH0 CALLER PUSH20 0xFFFFFFFFFFFFFFFFFFFFFFFFFFFFFFFFFFFFFFFF AND PUSH20 0xFFFFFFFFFFFFFFFFFFFFFFFFFFFFFFFFFFFFFFFF AND DUP2 MSTORE PUSH1 0x20 ADD SWAP1 DUP2 MSTORE PUSH1 0x20 ADD PUSH0 KECCAK256 PUSH0 ADD PUSH0 SWAP1 SLOAD SWAP1 PUSH2 0x100 EXP SWAP1 DIV PUSH20 0xFFFFFFFFFFFFFFFFFFFFFFFFFFFFFFFFFFFFFFFF AND PUSH20 0xFFFFFFFFFFFFFFFFFFFFFFFFFFFFFFFFFFFFFFFF AND EQ PUSH2 0x12BA JUMPI PUSH1 0x40 MLOAD PUSH32 0x8C379A000000000000000000000000000000000000000000000000000000000 DUP2 MSTORE PUSH1 0x4 ADD PUSH2 0x12B1 SWAP1 PUSH2 0x1937 JUMP JUMPDEST PUSH1 0x40 MLOAD DUP1 SWAP2 SUB SWAP1 REVERT JUMPDEST DUP1 PUSH0 PUSH0 CALLER PUSH20 0xFFFFFFFFFFFFFFFFFFFFFFFFFFFFFFFFFFFFFFFF AND PUSH20 0xFFFFFFFFFFFFFFFFFFFFFFFFFFFFFFFFFFFFFFFF AND DUP2 MSTORE PUSH1 0x20 ADD SWAP1 DUP2 MSTORE PUSH1 0x20 ADD PUSH0 KECCAK256 PUSH1 0x1 ADD DUP2 SWAP1 SSTORE POP POP JUMP JUMPDEST PUSH0 PUSH0 REVERT JUMPDEST PUSH0 DUP2 ISZERO ISZERO SWAP1 POP SWAP2 SWAP1 POP JUMP JUMPDEST PUSH2 0x1319 DUP2 PUSH2 0x1305 JUMP JUMPDEST DUP2 EQ PUSH2 0x1323 JUMPI PUSH0 PUSH0 REVERT JUMPDEST POP JUMP JUMPDEST PUSH0 DUP2 CALLDATALOAD SWAP1 POP PUSH2 0x1334 DUP2 PUSH2 0x1310 JUMP JUMPDEST SWAP3 SWAP2 POP POP JUMP JUMPDEST PUSH0 PUSH1 0x20 DUP3 DUP5 SUB SLT ISZERO PUSH2 0x134F JUMPI PUSH2 0x134E PUSH2 0x1301 JUMP JUMPDEST JUMPDEST PUSH0 PUSH2 0x135C DUP5 DUP3 DUP6 ADD PUSH2 0x1326 JUMP JUMPDEST SWAP2 POP POP SWAP3 SWAP2 POP POP JUMP JUMPDEST PUSH0 DUP2 SWAP1 POP SWAP2 SWAP1 POP JUMP JUMPDEST PUSH2 0x1377 DUP2 PUSH2 0x1365 JUMP JUMPDEST DUP2 EQ PUSH2 0x1381 JUMPI PUSH0 PUSH0 REVERT JUMPDEST POP JUMP JUMPDEST PUSH0 DUP2 CALLDATALOAD SWAP1 POP PUSH2 0x1392 DUP2 PUSH2 0x136E JUMP JUMPDEST SWAP3 SWAP2 POP POP JUMP JUMPDEST PUSH0 PUSH1 0x20 DUP3 DUP5 SUB SLT ISZERO PUSH2 0x13AD JUMPI PUSH2 0x13AC PUSH2 0x1301 JUMP JUMPDEST JUMPDEST PUSH0 PUSH2 0x13BA DUP5 DUP3 DUP6 ADD PUSH2 0x1384 JUMP JUMPDEST SWAP2 POP POP SWAP3 SWAP2 POP POP JUMP JUMPDEST PUSH0 PUSH20 0xFFFFFFFFFFFFFFFFFFFFFFFFFFFFFFFFFFFFFFFF DUP3 AND SWAP1 POP SWAP2 SWAP1 POP JUMP JUMPDEST PUSH0 PUSH2 0x13EC DUP3 PUSH2 0x13C3 JUMP JUMPDEST SWAP1 POP SWAP2 SWAP1 POP JUMP JUMPDEST PUSH2 0x13FC DUP2 PUSH2 0x13E2 JUMP JUMPDEST DUP2 EQ PUSH2 0x1406 JUMPI PUSH0 PUSH0 REVERT JUMPDEST POP JUMP JUMPDEST PUSH0 DUP2 CALLDATALOAD SWAP1 POP PUSH2 0x1417 DUP2 PUSH2 0x13F3 JUMP JUMPDEST SWAP3 SWAP2 POP POP JUMP JUMPDEST PUSH0 PUSH0 PUSH1 0x40 DUP4 DUP6 SUB SLT ISZERO PUSH2 0x1433 JUMPI PUSH2 0x1432 PUSH2 0x1301 JUMP JUMPDEST JUMPDEST PUSH0 PUSH2 0x1440 DUP6 DUP3 DUP7 ADD PUSH2 0x1409 JUMP JUMPDEST SWAP3 POP POP PUSH1 0x20 PUSH2 0x1451 DUP6 DUP3 DUP7 ADD PUSH2 0x1384 JUMP JUMPDEST SWAP2 POP POP SWAP3 POP SWAP3 SWAP1 POP JUMP JUMPDEST PUSH0 PUSH1 0x20 DUP3 DUP5 SUB SLT ISZERO PUSH2 0x1470 JUMPI PUSH2 0x146F PUSH2 0x1301 JUMP JUMPDEST JUMPDEST PUSH0 PUSH2 0x147D DUP5 DUP3 DUP6 ADD PUSH2 0x1409 JUMP JUMPDEST SWAP2 POP POP SWAP3 SWAP2 POP POP JUMP JUMPDEST PUSH2 0x148F DUP2 PUSH2 0x13E2 JUMP JUMPDEST DUP3 MSTORE POP POP JUMP JUMPDEST PUSH2 0x149E DUP2 PUSH2 0x1365 JUMP JUMPDEST DUP3 MSTORE POP POP JUMP JUMPDEST PUSH2 0x14AD DUP2 PUSH2 0x1305 JUMP JUMPDEST DUP3 MSTORE POP POP JUMP JUMPDEST PUSH0 PUSH1 0x60 DUP3 ADD SWAP1 POP PUSH2 0x14C6 PUSH0 DUP4 ADD DUP7 PUSH2 0x1486 JUMP JUMPDEST PUSH2 0x14D3 PUSH1 0x20 DUP4 ADD DUP6 PUSH2 0x1495 JUMP JUMPDEST PUSH2 0x14E0 PUSH1 0x40 DUP4 ADD DUP5 PUSH2 0x14A4 JUMP JUMPDEST SWAP5 SWAP4 POP POP POP POP JUMP JUMPDEST PUSH0 PUSH1 0x20 DUP3 ADD SWAP1 POP PUSH2 0x14FB PUSH0 DUP4 ADD DUP5 PUSH2 0x1486 JUMP JUMPDEST SWAP3 SWAP2 POP POP JUMP JUMPDEST PUSH0 PUSH1 0x20 DUP3 ADD SWAP1 POP PUSH2 0x1514 PUSH0 DUP4 ADD DUP5 PUSH2 0x1495 JUMP JUMPDEST SWAP3 SWAP2 POP POP JUMP JUMPDEST PUSH0 DUP3 DUP3 MSTORE PUSH1 0x20 DUP3 ADD SWAP1 POP SWAP3 SWAP2 POP POP JUMP JUMPDEST PUSH32 0x4F6E6C7920746865204E4654206F776E65722063616E206368616E6765206974 PUSH0 DUP3 ADD MSTORE PUSH32 0x7320737461746500000000000000000000000000000000000000000000000000 PUSH1 0x20 DUP3 ADD MSTORE POP JUMP JUMPDEST PUSH0 PUSH2 0x1584 PUSH1 0x27 DUP4 PUSH2 0x151A JUMP JUMPDEST SWAP2 POP PUSH2 0x158F DUP3 PUSH2 0x152A JUMP JUMPDEST PUSH1 0x40 DUP3 ADD SWAP1 POP SWAP2 SWAP1 POP JUMP JUMPDEST PUSH0 PUSH1 0x20 DUP3 ADD SWAP1 POP DUP2 DUP2 SUB PUSH0 DUP4 ADD MSTORE PUSH2 0x15B1 DUP2 PUSH2 0x1578 JUMP JUMPDEST SWAP1 POP SWAP2 SWAP1 POP JUMP JUMPDEST PUSH0 PUSH1 0x20 DUP3 ADD SWAP1 POP PUSH2 0x15CB PUSH0 DUP4 ADD DUP5 PUSH2 0x14A4 JUMP JUMPDEST SWAP3 SWAP2 POP POP JUMP JUMPDEST PUSH32 0x596F7520646F206E6F74206F776E2074686973204E4654000000000000000000 PUSH0 DUP3 ADD MSTORE POP JUMP JUMPDEST PUSH0 PUSH2 0x1605 PUSH1 0x17 DUP4 PUSH2 0x151A JUMP JUMPDEST SWAP2 POP PUSH2 0x1610 DUP3 PUSH2 0x15D1 JUMP JUMPDEST PUSH1 0x20 DUP3 ADD SWAP1 POP SWAP2 SWAP1 POP JUMP JUMPDEST PUSH0 PUSH1 0x20 DUP3 ADD SWAP1 POP DUP2 DUP2 SUB PUSH0 DUP4 ADD MSTORE PUSH2 0x1632 DUP2 PUSH2 0x15F9 JUMP JUMPDEST SWAP1 POP SWAP2 SWAP1 POP JUMP JUMPDEST PUSH32 0x4F6E6C79206F776E65722063616E20706572666F726D20746869732061637469 PUSH0 DUP3 ADD MSTORE PUSH32 0x6F6E000000000000000000000000000000000000000000000000000000000000 PUSH1 0x20 DUP3 ADD MSTORE POP JUMP JUMPDEST PUSH0 PUSH2 0x1693 PUSH1 0x22 DUP4 PUSH2 0x151A JUMP JUMPDEST SWAP2 POP PUSH2 0x169E DUP3 PUSH2 0x1639 JUMP JUMPDEST PUSH1 0x40 DUP3 ADD SWAP1 POP SWAP2 SWAP1 POP JUMP JUMPDEST PUSH0 PUSH1 0x20 DUP3 ADD SWAP1 POP DUP2 DUP2 SUB PUSH0 DUP4 ADD MSTORE PUSH2 0x16C0 DUP2 PUSH2 0x1687 JUMP JUMPDEST SWAP1 POP SWAP2 SWAP1 POP JUMP JUMPDEST PUSH32 0x526563697069656E7420616C7265616479206F776E7320616E204E4654000000 PUSH0 DUP3 ADD MSTORE POP JUMP JUMPDEST PUSH0 PUSH2 0x16FB PUSH1 0x1D DUP4 PUSH2 0x151A JUMP JUMPDEST SWAP2 POP PUSH2 0x1706 DUP3 PUSH2 0x16C7 JUMP JUMPDEST PUSH1 0x20 DUP3 ADD SWAP1 POP SWAP2 SWAP1 POP JUMP JUMPDEST PUSH0 PUSH1 0x20 DUP3 ADD SWAP1 POP DUP2 DUP2 SUB PUSH0 DUP4 ADD MSTORE PUSH2 0x1728 DUP2 PUSH2 0x16EF JUMP JUMPDEST SWAP1 POP SWAP2 SWAP1 POP JUMP JUMPDEST PUSH32 0x4E4654206973206E6F7420666F722073616C6500000000000000000000000000 PUSH0 DUP3 ADD MSTORE POP JUMP JUMPDEST PUSH0 PUSH2 0x1763 PUSH1 0x13 DUP4 PUSH2 0x151A JUMP JUMPDEST SWAP2 POP PUSH2 0x176E DUP3 PUSH2 0x172F JUMP JUMPDEST PUSH1 0x20 DUP3 ADD SWAP1 POP SWAP2 SWAP1 POP JUMP JUMPDEST PUSH0 PUSH1 0x20 DUP3 ADD SWAP1 POP DUP2 DUP2 SUB PUSH0 DUP4 ADD MSTORE PUSH2 0x1790 DUP2 PUSH2 0x1757 JUMP JUMPDEST SWAP1 POP SWAP2 SWAP1 POP JUMP JUMPDEST PUSH32 0x496E73756666696369656E742066756E647320746F20627579204E4654000000 PUSH0 DUP3 ADD MSTORE POP JUMP JUMPDEST PUSH0 PUSH2 0x17CB PUSH1 0x1D DUP4 PUSH2 0x151A JUMP JUMPDEST SWAP2 POP PUSH2 0x17D6 DUP3 PUSH2 0x1797 JUMP JUMPDEST PUSH1 0x20 DUP3 ADD SWAP1 POP SWAP2 SWAP1 POP JUMP JUMPDEST PUSH0 PUSH1 0x20 DUP3 ADD SWAP1 POP DUP2 DUP2 SUB PUSH0 DUP4 ADD MSTORE PUSH2 0x17F8 DUP2 PUSH2 0x17BF JUMP JUMPDEST SWAP1 POP SWAP2 SWAP1 POP JUMP JUMPDEST PUSH32 0x496E636F72726563742063757272656E63792076616C75650000000000000000 PUSH0 DUP3 ADD MSTORE POP JUMP JUMPDEST PUSH0 PUSH2 0x1833 PUSH1 0x18 DUP4 PUSH2 0x151A JUMP JUMPDEST SWAP2 POP PUSH2 0x183E DUP3 PUSH2 0x17FF JUMP JUMPDEST PUSH1 0x20 DUP3 ADD SWAP1 POP SWAP2 SWAP1 POP JUMP JUMPDEST PUSH0 PUSH1 0x20 DUP3 ADD SWAP1 POP DUP2 DUP2 SUB PUSH0 DUP4 ADD MSTORE PUSH2 0x1860 DUP2 PUSH2 0x1827 JUMP JUMPDEST SWAP1 POP SWAP2 SWAP1 POP JUMP JUMPDEST PUSH32 0x4E487B7100000000000000000000000000000000000000000000000000000000 PUSH0 MSTORE PUSH1 0x11 PUSH1 0x4 MSTORE PUSH1 0x24 PUSH0 REVERT JUMPDEST PUSH0 PUSH2 0x189E DUP3 PUSH2 0x1365 JUMP JUMPDEST SWAP2 POP PUSH2 0x18A9 DUP4 PUSH2 0x1365 JUMP JUMPDEST SWAP3 POP DUP3 DUP3 SUB SWAP1 POP DUP2 DUP2 GT ISZERO PUSH2 0x18C1 JUMPI PUSH2 0x18C0 PUSH2 0x1867 JUMP JUMPDEST JUMPDEST SWAP3 SWAP2 POP POP JUMP JUMPDEST PUSH32 0x4F6E6C7920746865204E4654206F776E65722063616E206368616E6765207468 PUSH0 DUP3 ADD MSTORE PUSH32 0x6520707269636500000000000000000000000000000000000000000000000000 PUSH1 0x20 DUP3 ADD MSTORE POP JUMP JUMPDEST PUSH0 PUSH2 0x1921 PUSH1 0x27 DUP4 PUSH2 0x151A JUMP JUMPDEST SWAP2 POP PUSH2 0x192C DUP3 PUSH2 0x18C7 JUMP JUMPDEST PUSH1 0x40 DUP3 ADD SWAP1 POP SWAP2 SWAP1 POP JUMP JUMPDEST PUSH0 PUSH1 0x20 DUP3 ADD SWAP1 POP DUP2 DUP2 SUB PUSH0 DUP4 ADD MSTORE PUSH2 0x194E DUP2 PUSH2 0x1915 JUMP JUMPDEST SWAP1 POP SWAP2 SWAP1 POP JUMP INVALID LOG2 PUSH5 0x6970667358 0x22 SLT KECCAK256 SWAP3 0x24 0x4C 0xD6 ORIGIN SLOAD 0xDA PUSH27 0x9EA5C8D20B99ECFEEE9109B27008CB3553B78904CD10E34E64736F PUSH13 0x634300081B0033000000000000 "
				},
				"gasEstimates": {
					"creation": {
						"codeDepositCost": "1307800",
						"executionCost": "infinite",
						"totalCost": "infinite"
					},
					"external": {
						"auctionNFT(uint256)": "infinite",
						"buyNFT(address)": "infinite",
						"changeNFTPrice(uint256)": "24977",
						"changeState(bool)": "infinite",
						"fee()": "2513",
						"listNFT(uint256)": "infinite",
						"mintNFT(address,uint256)": "infinite",
						"nftPrices(uint256)": "infinite",
						"nfts(address)": "infinite",
						"owner()": "2619",
						"sellNFT(address)": "infinite",
						"withdraw()": "infinite"
					}
				},
				"methodIdentifiers": {
					"auctionNFT(uint256)": "2a1236cb",
					"buyNFT(address)": "ba79b564",
					"changeNFTPrice(uint256)": "edc4400a",
					"changeState(bool)": "1deb0a8f",
					"fee()": "ddca3f43",
					"listNFT(uint256)": "d076f13f",
					"mintNFT(address,uint256)": "3c168eab",
					"nftPrices(uint256)": "d9f10a2b",
					"nfts(address)": "599db0f8",
					"owner()": "8da5cb5b",
					"sellNFT(address)": "d3f790d1",
					"withdraw()": "3ccfd60b"
				}
			},
			"storageLayout": {
				"storage": [
					{
						"astId": 13,
						"contract": "CrNFTMarketPlace/contracts/CrNFTMarketPlace.sol:CrNFTMarketPlace",
						"label": "nfts",
						"offset": 0,
						"slot": "0",
						"type": "t_mapping(t_address,t_struct(NFT)8_storage)"
					},
					{
						"astId": 18,
						"contract": "CrNFTMarketPlace/contracts/CrNFTMarketPlace.sol:CrNFTMarketPlace",
						"label": "nftPrices",
						"offset": 0,
						"slot": "1",
						"type": "t_mapping(t_uint256,t_struct(NFT)8_storage)"
					},
					{
						"astId": 20,
						"contract": "CrNFTMarketPlace/contracts/CrNFTMarketPlace.sol:CrNFTMarketPlace",
						"label": "owner",
						"offset": 0,
						"slot": "2",
						"type": "t_address"
					},
					{
						"astId": 22,
						"contract": "CrNFTMarketPlace/contracts/CrNFTMarketPlace.sol:CrNFTMarketPlace",
						"label": "fee",
						"offset": 0,
						"slot": "3",
						"type": "t_uint256"
					}
				],
				"types": {
					"t_address": {
						"encoding": "inplace",
						"label": "address",
						"numberOfBytes": "20"
					},
					"t_bool": {
						"encoding": "inplace",
						"label": "bool",
						"numberOfBytes": "1"
					},
					"t_mapping(t_address,t_struct(NFT)8_storage)": {
						"encoding": "mapping",
						"key": "t_address",
						"label": "mapping(address => struct CrNFTMarketPlace.NFT)",
						"numberOfBytes": "32",
						"value": "t_struct(NFT)8_storage"
					},
					"t_mapping(t_uint256,t_struct(NFT)8_storage)": {
						"encoding": "mapping",
						"key": "t_uint256",
						"label": "mapping(uint256 => struct CrNFTMarketPlace.NFT)",
						"numberOfBytes": "32",
						"value": "t_struct(NFT)8_storage"
					},
					"t_struct(NFT)8_storage": {
						"encoding": "inplace",
						"label": "struct CrNFTMarketPlace.NFT",
						"members": [
							{
								"astId": 3,
								"contract": "CrNFTMarketPlace/contracts/CrNFTMarketPlace.sol:CrNFTMarketPlace",
								"label": "owner",
								"offset": 0,
								"slot": "0",
								"type": "t_address"
							},
							{
								"astId": 5,
								"contract": "CrNFTMarketPlace/contracts/CrNFTMarketPlace.sol:CrNFTMarketPlace",
								"label": "price",
								"offset": 0,
								"slot": "1",
								"type": "t_uint256"
							},
							{
								"astId": 7,
								"contract": "CrNFTMarketPlace/contracts/CrNFTMarketPlace.sol:CrNFTMarketPlace",
								"label": "isForSale",
								"offset": 0,
								"slot": "2",
								"type": "t_bool"
							}
						],
						"numberOfBytes": "96"
					},
					"t_uint256": {
						"encoding": "inplace",
						"label": "uint256",
						"numberOfBytes": "32"
					}
				}
			},
			"userdoc": {
				"kind": "user",
				"methods": {},
				"version": 1
			}
		}
	}
}