{
	"CrNFTMarketPlace/contracts/CRNFTMarketplace.sol": {
		"NFTMarketplace": {
			"abi": [
				{
					"inputs": [
						{
							"internalType": "uint256",
							"name": "_feePercent",
							"type": "uint256"
						}
					],
					"stateMutability": "nonpayable",
					"type": "constructor"
				},
				{
					"anonymous": false,
					"inputs": [
						{
							"indexed": true,
							"internalType": "uint256",
							"name": "tokenId",
							"type": "uint256"
						},
						{
							"indexed": false,
							"internalType": "uint256",
							"name": "price",
							"type": "uint256"
						}
					],
					"name": "NFTListed",
					"type": "event"
				},
				{
					"anonymous": false,
					"inputs": [
						{
							"indexed": true,
							"internalType": "address",
							"name": "owner",
							"type": "address"
						},
						{
							"indexed": true,
							"internalType": "uint256",
							"name": "tokenId",
							"type": "uint256"
						}
					],
					"name": "NFTMinted",
					"type": "event"
				},
				{
					"anonymous": false,
					"inputs": [
						{
							"indexed": true,
							"internalType": "address",
							"name": "buyer",
							"type": "address"
						},
						{
							"indexed": true,
							"internalType": "uint256",
							"name": "tokenId",
							"type": "uint256"
						},
						{
							"indexed": false,
							"internalType": "uint256",
							"name": "price",
							"type": "uint256"
						},
						{
							"indexed": false,
							"internalType": "uint256",
							"name": "fee",
							"type": "uint256"
						}
					],
					"name": "NFTPurchased",
					"type": "event"
				},
				{
					"anonymous": false,
					"inputs": [],
					"name": "Paused",
					"type": "event"
				},
				{
					"anonymous": false,
					"inputs": [],
					"name": "Unpaused",
					"type": "event"
				},
				{
					"inputs": [],
					"name": "fee",
					"outputs": [
						{
							"internalType": "uint256",
							"name": "",
							"type": "uint256"
						}
					],
					"stateMutability": "view",
					"type": "function"
				},
				{
					"inputs": [
						{
							"internalType": "address",
							"name": "_owner",
							"type": "address"
						}
					],
					"name": "getOwnerTokens",
					"outputs": [
						{
							"internalType": "uint256[]",
							"name": "",
							"type": "uint256[]"
						}
					],
					"stateMutability": "view",
					"type": "function"
				},
				{
					"inputs": [
						{
							"internalType": "uint256",
							"name": "_tokenId",
							"type": "uint256"
						}
					],
					"name": "getTokenURI",
					"outputs": [
						{
							"internalType": "string",
							"name": "",
							"type": "string"
						}
					],
					"stateMutability": "view",
					"type": "function"
				},
				{
					"inputs": [
						{
							"internalType": "uint256",
							"name": "_tokenId",
							"type": "uint256"
						},
						{
							"internalType": "uint256",
							"name": "_price",
							"type": "uint256"
						}
					],
					"name": "listNFT",
					"outputs": [],
					"stateMutability": "nonpayable",
					"type": "function"
				},
				{
					"inputs": [
						{
							"internalType": "uint256",
							"name": "",
							"type": "uint256"
						}
					],
					"name": "listings",
					"outputs": [
						{
							"internalType": "uint256",
							"name": "price",
							"type": "uint256"
						},
						{
							"internalType": "address",
							"name": "seller",
							"type": "address"
						},
						{
							"internalType": "bool",
							"name": "active",
							"type": "bool"
						}
					],
					"stateMutability": "view",
					"type": "function"
				},
				{
					"inputs": [
						{
							"internalType": "string",
							"name": "_tokenURI",
							"type": "string"
						}
					],
					"name": "mint",
					"outputs": [],
					"stateMutability": "nonpayable",
					"type": "function"
				},
				{
					"inputs": [
						{
							"internalType": "uint256",
							"name": "",
							"type": "uint256"
						}
					],
					"name": "nfts",
					"outputs": [
						{
							"internalType": "uint256",
							"name": "tokenId",
							"type": "uint256"
						},
						{
							"internalType": "address",
							"name": "owner",
							"type": "address"
						},
						{
							"internalType": "string",
							"name": "tokenURI",
							"type": "string"
						}
					],
					"stateMutability": "view",
					"type": "function"
				},
				{
					"inputs": [],
					"name": "owner",
					"outputs": [
						{
							"internalType": "address",
							"name": "",
							"type": "address"
						}
					],
					"stateMutability": "view",
					"type": "function"
				},
				{
					"inputs": [
						{
							"internalType": "address",
							"name": "",
							"type": "address"
						},
						{
							"internalType": "uint256",
							"name": "",
							"type": "uint256"
						}
					],
					"name": "ownerTokens",
					"outputs": [
						{
							"internalType": "uint256",
							"name": "",
							"type": "uint256"
						}
					],
					"stateMutability": "view",
					"type": "function"
				},
				{
					"inputs": [],
					"name": "pause",
					"outputs": [],
					"stateMutability": "nonpayable",
					"type": "function"
				},
				{
					"inputs": [],
					"name": "paused",
					"outputs": [
						{
							"internalType": "bool",
							"name": "",
							"type": "bool"
						}
					],
					"stateMutability": "view",
					"type": "function"
				},
				{
					"inputs": [
						{
							"internalType": "uint256",
							"name": "_tokenId",
							"type": "uint256"
						}
					],
					"name": "purchaseNFT",
					"outputs": [],
					"stateMutability": "payable",
					"type": "function"
				},
				{
					"inputs": [],
					"name": "totalSupply",
					"outputs": [
						{
							"internalType": "uint256",
							"name": "",
							"type": "uint256"
						}
					],
					"stateMutability": "view",
					"type": "function"
				},
				{
					"inputs": [],
					"name": "unpause",
					"outputs": [],
					"stateMutability": "nonpayable",
					"type": "function"
				}
			],
			"devdoc": {
				"kind": "dev",
				"methods": {},
				"version": 1
			},
			"evm": {
				"assembly": "    /* \"CrNFTMarketPlace/contracts/CRNFTMarketplace.sol\":122:5265  contract NFTMarketplace is ReentrancyGuard {... */\n  mstore(0x40, 0x80)\n    /* \"CrNFTMarketPlace/contracts/CRNFTMarketplace.sol\":983:1130  constructor(uint256 _feePercent) {... */\n  callvalue\n  dup1\n  iszero\n  tag_1\n  jumpi\n  revert(0x00, 0x00)\ntag_1:\n  pop\n  mload(0x40)\n  sub(codesize, bytecodeSize)\n  dup1\n  bytecodeSize\n  dup4\n  codecopy\n  dup2\n  dup2\n  add\n  0x40\n  mstore\n  dup2\n  add\n  swap1\n  tag_2\n  swap2\n  swap1\n  tag_3\n  jump\t// in\ntag_2:\n    /* \"@openzeppelin/contracts/security/ReentrancyGuard.sol\":1716:1717  1 */\n  0x01\n    /* \"@openzeppelin/contracts/security/ReentrancyGuard.sol\":1821:1828  _status */\n  0x00\n    /* \"@openzeppelin/contracts/security/ReentrancyGuard.sol\":1821:1843  _status = _NOT_ENTERED */\n  dup2\n  swap1\n  sstore\n  pop\n    /* \"CrNFTMarketPlace/contracts/CRNFTMarketplace.sol\":1034:1044  msg.sender */\n  caller\n    /* \"CrNFTMarketPlace/contracts/CRNFTMarketplace.sol\":1026:1031  owner */\n  0x01\n  0x00\n    /* \"CrNFTMarketPlace/contracts/CRNFTMarketplace.sol\":1026:1044  owner = msg.sender */\n  0x0100\n  exp\n  dup2\n  sload\n  dup2\n  0xffffffffffffffffffffffffffffffffffffffff\n  mul\n  not\n  and\n  swap1\n  dup4\n  0xffffffffffffffffffffffffffffffffffffffff\n  and\n  mul\n  or\n  swap1\n  sstore\n  pop\n    /* \"CrNFTMarketPlace/contracts/CRNFTMarketplace.sol\":1060:1071  _feePercent */\n  dup1\n    /* \"CrNFTMarketPlace/contracts/CRNFTMarketplace.sol\":1054:1057  fee */\n  0x02\n    /* \"CrNFTMarketPlace/contracts/CRNFTMarketplace.sol\":1054:1071  fee = _feePercent */\n  dup2\n  swap1\n  sstore\n  pop\n    /* \"CrNFTMarketPlace/contracts/CRNFTMarketplace.sol\":1090:1095  false */\n  0x00\n    /* \"CrNFTMarketPlace/contracts/CRNFTMarketplace.sol\":1081:1087  paused */\n  0x03\n  0x00\n    /* \"CrNFTMarketPlace/contracts/CRNFTMarketplace.sol\":1081:1095  paused = false */\n  0x0100\n  exp\n  dup2\n  sload\n  dup2\n  0xff\n  mul\n  not\n  and\n  swap1\n  dup4\n  iszero\n  iszero\n  mul\n  or\n  swap1\n  sstore\n  pop\n    /* \"CrNFTMarketPlace/contracts/CRNFTMarketplace.sol\":1105:1123  _setTotalSupply(0) */\n  tag_8\n    /* \"CrNFTMarketPlace/contracts/CRNFTMarketplace.sol\":1121:1122  0 */\n  0x00\n    /* \"CrNFTMarketPlace/contracts/CRNFTMarketplace.sol\":1105:1120  _setTotalSupply */\n  shl(0x20, tag_9)\n    /* \"CrNFTMarketPlace/contracts/CRNFTMarketplace.sol\":1105:1123  _setTotalSupply(0) */\n  0x20\n  shr\n  jump\t// in\ntag_8:\n    /* \"CrNFTMarketPlace/contracts/CRNFTMarketplace.sol\":983:1130  constructor(uint256 _feePercent) {... */\n  pop\n    /* \"CrNFTMarketPlace/contracts/CRNFTMarketplace.sol\":122:5265  contract NFTMarketplace is ReentrancyGuard {... */\n  jump(tag_10)\n    /* \"CrNFTMarketPlace/contracts/CRNFTMarketplace.sol\":1676:1769  function _setTotalSupply(uint256 newNumber) internal {... */\ntag_9:\n    /* \"CrNFTMarketPlace/contracts/CRNFTMarketplace.sol\":1753:1762  newNumber */\n  dup1\n    /* \"CrNFTMarketPlace/contracts/CRNFTMarketplace.sol\":1739:1750  totalSupply */\n  0x04\n    /* \"CrNFTMarketPlace/contracts/CRNFTMarketplace.sol\":1739:1762  totalSupply = newNumber */\n  dup2\n  swap1\n  sstore\n  pop\n    /* \"CrNFTMarketPlace/contracts/CRNFTMarketplace.sol\":1676:1769  function _setTotalSupply(uint256 newNumber) internal {... */\n  pop\n  jump\t// out\n    /* \"#utility.yul\":88:205   */\ntag_13:\n    /* \"#utility.yul\":197:198   */\n  0x00\n    /* \"#utility.yul\":194:195   */\n  0x00\n    /* \"#utility.yul\":187:199   */\n  revert\n    /* \"#utility.yul\":334:411   */\ntag_15:\n    /* \"#utility.yul\":371:378   */\n  0x00\n    /* \"#utility.yul\":400:405   */\n  dup2\n    /* \"#utility.yul\":389:405   */\n  swap1\n  pop\n    /* \"#utility.yul\":334:411   */\n  swap2\n  swap1\n  pop\n  jump\t// out\n    /* \"#utility.yul\":417:539   */\ntag_16:\n    /* \"#utility.yul\":490:514   */\n  tag_24\n    /* \"#utility.yul\":508:513   */\n  dup2\n    /* \"#utility.yul\":490:514   */\n  tag_15\n  jump\t// in\ntag_24:\n    /* \"#utility.yul\":483:488   */\n  dup2\n    /* \"#utility.yul\":480:515   */\n  eq\n    /* \"#utility.yul\":470:533   */\n  tag_25\n  jumpi\n    /* \"#utility.yul\":529:530   */\n  0x00\n    /* \"#utility.yul\":526:527   */\n  0x00\n    /* \"#utility.yul\":519:531   */\n  revert\n    /* \"#utility.yul\":470:533   */\ntag_25:\n    /* \"#utility.yul\":417:539   */\n  pop\n  jump\t// out\n    /* \"#utility.yul\":545:688   */\ntag_17:\n    /* \"#utility.yul\":602:607   */\n  0x00\n    /* \"#utility.yul\":633:639   */\n  dup2\n    /* \"#utility.yul\":627:640   */\n  mload\n    /* \"#utility.yul\":618:640   */\n  swap1\n  pop\n    /* \"#utility.yul\":649:682   */\n  tag_27\n    /* \"#utility.yul\":676:681   */\n  dup2\n    /* \"#utility.yul\":649:682   */\n  tag_16\n  jump\t// in\ntag_27:\n    /* \"#utility.yul\":545:688   */\n  swap3\n  swap2\n  pop\n  pop\n  jump\t// out\n    /* \"#utility.yul\":694:1045   */\ntag_3:\n    /* \"#utility.yul\":764:770   */\n  0x00\n    /* \"#utility.yul\":813:815   */\n  0x20\n    /* \"#utility.yul\":801:810   */\n  dup3\n    /* \"#utility.yul\":792:799   */\n  dup5\n    /* \"#utility.yul\":788:811   */\n  sub\n    /* \"#utility.yul\":784:816   */\n  slt\n    /* \"#utility.yul\":781:900   */\n  iszero\n  tag_29\n  jumpi\n    /* \"#utility.yul\":819:898   */\n  tag_30\n  tag_13\n  jump\t// in\ntag_30:\n    /* \"#utility.yul\":781:900   */\ntag_29:\n    /* \"#utility.yul\":939:940   */\n  0x00\n    /* \"#utility.yul\":964:1028   */\n  tag_31\n    /* \"#utility.yul\":1020:1027   */\n  dup5\n    /* \"#utility.yul\":1011:1017   */\n  dup3\n    /* \"#utility.yul\":1000:1009   */\n  dup6\n    /* \"#utility.yul\":996:1018   */\n  add\n    /* \"#utility.yul\":964:1028   */\n  tag_17\n  jump\t// in\ntag_31:\n    /* \"#utility.yul\":954:1028   */\n  swap2\n  pop\n    /* \"#utility.yul\":910:1038   */\n  pop\n    /* \"#utility.yul\":694:1045   */\n  swap3\n  swap2\n  pop\n  pop\n  jump\t// out\n    /* \"CrNFTMarketPlace/contracts/CRNFTMarketplace.sol\":122:5265  contract NFTMarketplace is ReentrancyGuard {... */\ntag_10:\n  dataSize(sub_0)\n  dup1\n  dataOffset(sub_0)\n  0x00\n  codecopy\n  0x00\n  return\nstop\n\nsub_0: assembly {\n        /* \"CrNFTMarketPlace/contracts/CRNFTMarketplace.sol\":122:5265  contract NFTMarketplace is ReentrancyGuard {... */\n      mstore(0x40, 0x80)\n      jumpi(tag_1, lt(calldatasize, 0x04))\n      shr(0xe0, calldataload(0x00))\n      dup1\n      0x8456cb59\n      gt\n      tag_16\n      jumpi\n      dup1\n      0xd63d4af0\n      gt\n      tag_17\n      jumpi\n      dup1\n      0xd63d4af0\n      eq\n      tag_12\n      jumpi\n      dup1\n      0xd85d3d27\n      eq\n      tag_13\n      jumpi\n      dup1\n      0xddca3f43\n      eq\n      tag_14\n      jumpi\n      dup1\n      0xde74e57b\n      eq\n      tag_15\n      jumpi\n      jump(tag_1)\n    tag_17:\n      dup1\n      0x8456cb59\n      eq\n      tag_9\n      jumpi\n      dup1\n      0x8da5cb5b\n      eq\n      tag_10\n      jumpi\n      dup1\n      0x94383f14\n      eq\n      tag_11\n      jumpi\n      jump(tag_1)\n    tag_16:\n      dup1\n      0x28b60031\n      gt\n      tag_18\n      jumpi\n      dup1\n      0x28b60031\n      eq\n      tag_5\n      jumpi\n      dup1\n      0x3bb3a24d\n      eq\n      tag_6\n      jumpi\n      dup1\n      0x3f4ba83a\n      eq\n      tag_7\n      jumpi\n      dup1\n      0x5c975abb\n      eq\n      tag_8\n      jumpi\n      jump(tag_1)\n    tag_18:\n      dup1\n      0x150bde03\n      eq\n      tag_2\n      jumpi\n      dup1\n      0x18160ddd\n      eq\n      tag_3\n      jumpi\n      dup1\n      0x265aa621\n      eq\n      tag_4\n      jumpi\n    tag_1:\n      revert(0x00, 0x00)\n        /* \"CrNFTMarketPlace/contracts/CRNFTMarketplace.sol\":3064:4543  function purchaseNFT(uint256 _tokenId)... */\n    tag_2:\n      tag_19\n      0x04\n      dup1\n      calldatasize\n      sub\n      dup2\n      add\n      swap1\n      tag_20\n      swap2\n      swap1\n      tag_21\n      jump\t// in\n    tag_20:\n      tag_22\n      jump\t// in\n    tag_19:\n      stop\n        /* \"CrNFTMarketPlace/contracts/CRNFTMarketplace.sol\":752:778  uint256 public totalSupply */\n    tag_3:\n      callvalue\n      dup1\n      iszero\n      tag_23\n      jumpi\n      revert(0x00, 0x00)\n    tag_23:\n      pop\n      tag_24\n      tag_25\n      jump\t// in\n    tag_24:\n      mload(0x40)\n      tag_26\n      swap2\n      swap1\n      tag_27\n      jump\t// in\n    tag_26:\n      mload(0x40)\n      dup1\n      swap2\n      sub\n      swap1\n      return\n        /* \"CrNFTMarketPlace/contracts/CRNFTMarketplace.sol\":784:819  mapping(uint256 => NFT) public nfts */\n    tag_4:\n      callvalue\n      dup1\n      iszero\n      tag_28\n      jumpi\n      revert(0x00, 0x00)\n    tag_28:\n      pop\n      tag_29\n      0x04\n      dup1\n      calldatasize\n      sub\n      dup2\n      add\n      swap1\n      tag_30\n      swap2\n      swap1\n      tag_21\n      jump\t// in\n    tag_30:\n      tag_31\n      jump\t// in\n    tag_29:\n      mload(0x40)\n      tag_32\n      swap4\n      swap3\n      swap2\n      swap1\n      tag_33\n      jump\t// in\n    tag_32:\n      mload(0x40)\n      dup1\n      swap2\n      sub\n      swap1\n      return\n        /* \"CrNFTMarketPlace/contracts/CRNFTMarketplace.sol\":874:922  mapping(address => uint256[]) public ownerTokens */\n    tag_5:\n      callvalue\n      dup1\n      iszero\n      tag_34\n      jumpi\n      revert(0x00, 0x00)\n    tag_34:\n      pop\n      tag_35\n      0x04\n      dup1\n      calldatasize\n      sub\n      dup2\n      add\n      swap1\n      tag_36\n      swap2\n      swap1\n      tag_37\n      jump\t// in\n    tag_36:\n      tag_38\n      jump\t// in\n    tag_35:\n      mload(0x40)\n      tag_39\n      swap2\n      swap1\n      tag_27\n      jump\t// in\n    tag_39:\n      mload(0x40)\n      dup1\n      swap2\n      sub\n      swap1\n      return\n        /* \"CrNFTMarketPlace/contracts/CRNFTMarketplace.sol\":5111:5263  function getTokenURI(uint256 _tokenId)... */\n    tag_6:\n      callvalue\n      dup1\n      iszero\n      tag_40\n      jumpi\n      revert(0x00, 0x00)\n    tag_40:\n      pop\n      tag_41\n      0x04\n      dup1\n      calldatasize\n      sub\n      dup2\n      add\n      swap1\n      tag_42\n      swap2\n      swap1\n      tag_21\n      jump\t// in\n    tag_42:\n      tag_43\n      jump\t// in\n    tag_41:\n      mload(0x40)\n      tag_44\n      swap2\n      swap1\n      tag_45\n      jump\t// in\n    tag_44:\n      mload(0x40)\n      dup1\n      swap2\n      sub\n      swap1\n      return\n        /* \"CrNFTMarketPlace/contracts/CRNFTMarketplace.sol\":1946:2038  function unpause() public onlyOwner {... */\n    tag_7:\n      callvalue\n      dup1\n      iszero\n      tag_46\n      jumpi\n      revert(0x00, 0x00)\n    tag_46:\n      pop\n      tag_47\n      tag_48\n      jump\t// in\n    tag_47:\n      stop\n        /* \"CrNFTMarketPlace/contracts/CRNFTMarketplace.sol\":221:239  bool public paused */\n    tag_8:\n      callvalue\n      dup1\n      iszero\n      tag_49\n      jumpi\n      revert(0x00, 0x00)\n    tag_49:\n      pop\n      tag_50\n      tag_51\n      jump\t// in\n    tag_50:\n      mload(0x40)\n      tag_52\n      swap2\n      swap1\n      tag_53\n      jump\t// in\n    tag_52:\n      mload(0x40)\n      dup1\n      swap2\n      sub\n      swap1\n      return\n        /* \"CrNFTMarketPlace/contracts/CRNFTMarketplace.sol\":1853:1940  function pause() public onlyOwner {... */\n    tag_9:\n      callvalue\n      dup1\n      iszero\n      tag_54\n      jumpi\n      revert(0x00, 0x00)\n    tag_54:\n      pop\n      tag_55\n      tag_56\n      jump\t// in\n    tag_55:\n      stop\n        /* \"CrNFTMarketPlace/contracts/CRNFTMarketplace.sol\":171:191  address public owner */\n    tag_10:\n      callvalue\n      dup1\n      iszero\n      tag_57\n      jumpi\n      revert(0x00, 0x00)\n    tag_57:\n      pop\n      tag_58\n      tag_59\n      jump\t// in\n    tag_58:\n      mload(0x40)\n      tag_60\n      swap2\n      swap1\n      tag_61\n      jump\t// in\n    tag_60:\n      mload(0x40)\n      dup1\n      swap2\n      sub\n      swap1\n      return\n        /* \"CrNFTMarketPlace/contracts/CRNFTMarketplace.sol\":2678:3058  function listNFT(uint256 _tokenId, uint256 _price) external {... */\n    tag_11:\n      callvalue\n      dup1\n      iszero\n      tag_62\n      jumpi\n      revert(0x00, 0x00)\n    tag_62:\n      pop\n      tag_63\n      0x04\n      dup1\n      calldatasize\n      sub\n      dup2\n      add\n      swap1\n      tag_64\n      swap2\n      swap1\n      tag_65\n      jump\t// in\n    tag_64:\n      tag_66\n      jump\t// in\n    tag_63:\n      stop\n        /* \"CrNFTMarketPlace/contracts/CRNFTMarketplace.sol\":4953:5105  function getOwnerTokens(address _owner)... */\n    tag_12:\n      callvalue\n      dup1\n      iszero\n      tag_67\n      jumpi\n      revert(0x00, 0x00)\n    tag_67:\n      pop\n      tag_68\n      0x04\n      dup1\n      calldatasize\n      sub\n      dup2\n      add\n      swap1\n      tag_69\n      swap2\n      swap1\n      tag_70\n      jump\t// in\n    tag_69:\n      tag_71\n      jump\t// in\n    tag_68:\n      mload(0x40)\n      tag_72\n      swap2\n      swap1\n      tag_73\n      jump\t// in\n    tag_72:\n      mload(0x40)\n      dup1\n      swap2\n      sub\n      swap1\n      return\n        /* \"CrNFTMarketPlace/contracts/CRNFTMarketplace.sol\":2044:2672  function mint(string memory _tokenURI)... */\n    tag_13:\n      callvalue\n      dup1\n      iszero\n      tag_74\n      jumpi\n      revert(0x00, 0x00)\n    tag_74:\n      pop\n      tag_75\n      0x04\n      dup1\n      calldatasize\n      sub\n      dup2\n      add\n      swap1\n      tag_76\n      swap2\n      swap1\n      tag_77\n      jump\t// in\n    tag_76:\n      tag_78\n      jump\t// in\n    tag_75:\n      stop\n        /* \"CrNFTMarketPlace/contracts/CRNFTMarketplace.sol\":197:215  uint256 public fee */\n    tag_14:\n      callvalue\n      dup1\n      iszero\n      tag_79\n      jumpi\n      revert(0x00, 0x00)\n    tag_79:\n      pop\n      tag_80\n      tag_81\n      jump\t// in\n    tag_80:\n      mload(0x40)\n      tag_82\n      swap2\n      swap1\n      tag_27\n      jump\t// in\n    tag_82:\n      mload(0x40)\n      dup1\n      swap2\n      sub\n      swap1\n      return\n        /* \"CrNFTMarketPlace/contracts/CRNFTMarketplace.sol\":825:868  mapping(uint256 => Listing) public listings */\n    tag_15:\n      callvalue\n      dup1\n      iszero\n      tag_83\n      jumpi\n      revert(0x00, 0x00)\n    tag_83:\n      pop\n      tag_84\n      0x04\n      dup1\n      calldatasize\n      sub\n      dup2\n      add\n      swap1\n      tag_85\n      swap2\n      swap1\n      tag_21\n      jump\t// in\n    tag_85:\n      tag_86\n      jump\t// in\n    tag_84:\n      mload(0x40)\n      tag_87\n      swap4\n      swap3\n      swap2\n      swap1\n      tag_88\n      jump\t// in\n    tag_87:\n      mload(0x40)\n      dup1\n      swap2\n      sub\n      swap1\n      return\n        /* \"CrNFTMarketPlace/contracts/CRNFTMarketplace.sol\":3064:4543  function purchaseNFT(uint256 _tokenId)... */\n    tag_22:\n        /* \"CrNFTMarketPlace/contracts/CRNFTMarketplace.sol\":1289:1295  paused */\n      0x03\n      0x00\n      swap1\n      sload\n      swap1\n      0x0100\n      exp\n      swap1\n      div\n      0xff\n      and\n        /* \"CrNFTMarketPlace/contracts/CRNFTMarketplace.sol\":1288:1295  !paused */\n      iszero\n        /* \"CrNFTMarketPlace/contracts/CRNFTMarketplace.sol\":1280:1318  require(!paused, \"Contract is paused\") */\n      tag_90\n      jumpi\n      mload(0x40)\n      0x08c379a000000000000000000000000000000000000000000000000000000000\n      dup2\n      mstore\n      0x04\n      add\n      tag_91\n      swap1\n      tag_92\n      jump\t// in\n    tag_91:\n      mload(0x40)\n      dup1\n      swap2\n      sub\n      swap1\n      revert\n    tag_90:\n        /* \"@openzeppelin/contracts/security/ReentrancyGuard.sol\":2261:2282  _nonReentrantBefore() */\n      tag_94\n        /* \"@openzeppelin/contracts/security/ReentrancyGuard.sol\":2261:2280  _nonReentrantBefore */\n      tag_95\n        /* \"@openzeppelin/contracts/security/ReentrancyGuard.sol\":2261:2282  _nonReentrantBefore() */\n      jump\t// in\n    tag_94:\n        /* \"CrNFTMarketPlace/contracts/CRNFTMarketplace.sol\":3193:3215  Listing memory listing */\n      0x00\n        /* \"CrNFTMarketPlace/contracts/CRNFTMarketplace.sol\":3218:3226  listings */\n      0x06\n        /* \"CrNFTMarketPlace/contracts/CRNFTMarketplace.sol\":3218:3236  listings[_tokenId] */\n      0x00\n        /* \"CrNFTMarketPlace/contracts/CRNFTMarketplace.sol\":3227:3235  _tokenId */\n      dup4\n        /* \"CrNFTMarketPlace/contracts/CRNFTMarketplace.sol\":3218:3236  listings[_tokenId] */\n      dup2\n      mstore\n      0x20\n      add\n      swap1\n      dup2\n      mstore\n      0x20\n      add\n      0x00\n      keccak256\n        /* \"CrNFTMarketPlace/contracts/CRNFTMarketplace.sol\":3193:3236  Listing memory listing = listings[_tokenId] */\n      mload(0x40)\n      dup1\n      0x60\n      add\n      0x40\n      mstore\n      swap1\n      dup2\n      0x00\n      dup3\n      add\n      sload\n      dup2\n      mstore\n      0x20\n      add\n      0x01\n      dup3\n      add\n      0x00\n      swap1\n      sload\n      swap1\n      0x0100\n      exp\n      swap1\n      div\n      0xffffffffffffffffffffffffffffffffffffffff\n      and\n      0xffffffffffffffffffffffffffffffffffffffff\n      and\n      0xffffffffffffffffffffffffffffffffffffffff\n      and\n      dup2\n      mstore\n      0x20\n      add\n      0x01\n      dup3\n      add\n      0x14\n      swap1\n      sload\n      swap1\n      0x0100\n      exp\n      swap1\n      div\n      0xff\n      and\n      iszero\n      iszero\n      iszero\n      iszero\n      dup2\n      mstore\n      pop\n      pop\n      swap1\n      pop\n        /* \"CrNFTMarketPlace/contracts/CRNFTMarketplace.sol\":3255:3262  listing */\n      dup1\n        /* \"CrNFTMarketPlace/contracts/CRNFTMarketplace.sol\":3255:3269  listing.active */\n      0x40\n      add\n      mload\n        /* \"CrNFTMarketPlace/contracts/CRNFTMarketplace.sol\":3247:3293  require(listing.active, \"NFT is not for sale\") */\n      tag_97\n      jumpi\n      mload(0x40)\n      0x08c379a000000000000000000000000000000000000000000000000000000000\n      dup2\n      mstore\n      0x04\n      add\n      tag_98\n      swap1\n      tag_99\n      jump\t// in\n    tag_98:\n      mload(0x40)\n      dup1\n      swap2\n      sub\n      swap1\n      revert\n    tag_97:\n        /* \"CrNFTMarketPlace/contracts/CRNFTMarketplace.sol\":3324:3331  listing */\n      dup1\n        /* \"CrNFTMarketPlace/contracts/CRNFTMarketplace.sol\":3324:3337  listing.price */\n      0x00\n      add\n      mload\n        /* \"CrNFTMarketPlace/contracts/CRNFTMarketplace.sol\":3311:3320  msg.value */\n      callvalue\n        /* \"CrNFTMarketPlace/contracts/CRNFTMarketplace.sol\":3311:3337  msg.value >= listing.price */\n      lt\n      iszero\n        /* \"CrNFTMarketPlace/contracts/CRNFTMarketplace.sol\":3303:3360  require(msg.value >= listing.price, \"Insufficient funds\") */\n      tag_100\n      jumpi\n      mload(0x40)\n      0x08c379a000000000000000000000000000000000000000000000000000000000\n      dup2\n      mstore\n      0x04\n      add\n      tag_101\n      swap1\n      tag_102\n      jump\t// in\n    tag_101:\n      mload(0x40)\n      dup1\n      swap2\n      sub\n      swap1\n      revert\n    tag_100:\n        /* \"CrNFTMarketPlace/contracts/CRNFTMarketplace.sol\":3371:3384  uint256 price */\n      0x00\n        /* \"CrNFTMarketPlace/contracts/CRNFTMarketplace.sol\":3387:3394  listing */\n      dup2\n        /* \"CrNFTMarketPlace/contracts/CRNFTMarketplace.sol\":3387:3400  listing.price */\n      0x00\n      add\n      mload\n        /* \"CrNFTMarketPlace/contracts/CRNFTMarketplace.sol\":3371:3400  uint256 price = listing.price */\n      swap1\n      pop\n        /* \"CrNFTMarketPlace/contracts/CRNFTMarketplace.sol\":3410:3424  address seller */\n      0x00\n        /* \"CrNFTMarketPlace/contracts/CRNFTMarketplace.sol\":3427:3434  listing */\n      dup3\n        /* \"CrNFTMarketPlace/contracts/CRNFTMarketplace.sol\":3427:3441  listing.seller */\n      0x20\n      add\n      mload\n        /* \"CrNFTMarketPlace/contracts/CRNFTMarketplace.sol\":3410:3441  address seller = listing.seller */\n      swap1\n      pop\n        /* \"CrNFTMarketPlace/contracts/CRNFTMarketplace.sol\":3478:3479  0 */\n      0x00\n        /* \"CrNFTMarketPlace/contracts/CRNFTMarketplace.sol\":3460:3480  seller != address(0) */\n      0xffffffffffffffffffffffffffffffffffffffff\n      and\n        /* \"CrNFTMarketPlace/contracts/CRNFTMarketplace.sol\":3460:3466  seller */\n      dup2\n        /* \"CrNFTMarketPlace/contracts/CRNFTMarketplace.sol\":3460:3480  seller != address(0) */\n      0xffffffffffffffffffffffffffffffffffffffff\n      and\n      sub\n        /* \"CrNFTMarketPlace/contracts/CRNFTMarketplace.sol\":3452:3507  require(seller != address(0), \"Seller address is zero\") */\n      tag_103\n      jumpi\n      mload(0x40)\n      0x08c379a000000000000000000000000000000000000000000000000000000000\n      dup2\n      mstore\n      0x04\n      add\n      tag_104\n      swap1\n      tag_105\n      jump\t// in\n    tag_104:\n      mload(0x40)\n      dup1\n      swap2\n      sub\n      swap1\n      revert\n    tag_103:\n        /* \"CrNFTMarketPlace/contracts/CRNFTMarketplace.sol\":3542:3543  0 */\n      0x00\n        /* \"CrNFTMarketPlace/contracts/CRNFTMarketplace.sol\":3525:3544  owner != address(0) */\n      0xffffffffffffffffffffffffffffffffffffffff\n      and\n        /* \"CrNFTMarketPlace/contracts/CRNFTMarketplace.sol\":3525:3530  owner */\n      0x01\n      0x00\n      swap1\n      sload\n      swap1\n      0x0100\n      exp\n      swap1\n      div\n      0xffffffffffffffffffffffffffffffffffffffff\n      and\n        /* \"CrNFTMarketPlace/contracts/CRNFTMarketplace.sol\":3525:3544  owner != address(0) */\n      0xffffffffffffffffffffffffffffffffffffffff\n      and\n      sub\n        /* \"CrNFTMarketPlace/contracts/CRNFTMarketplace.sol\":3517:3570  require(owner != address(0), \"Owner address is zero\") */\n      tag_106\n      jumpi\n      mload(0x40)\n      0x08c379a000000000000000000000000000000000000000000000000000000000\n      dup2\n      mstore\n      0x04\n      add\n      tag_107\n      swap1\n      tag_108\n      jump\t// in\n    tag_107:\n      mload(0x40)\n      dup1\n      swap2\n      sub\n      swap1\n      revert\n    tag_106:\n        /* \"CrNFTMarketPlace/contracts/CRNFTMarketplace.sol\":3625:3631  seller */\n      dup1\n        /* \"CrNFTMarketPlace/contracts/CRNFTMarketplace.sol\":3601:3631  nfts[_tokenId].owner == seller */\n      0xffffffffffffffffffffffffffffffffffffffff\n      and\n        /* \"CrNFTMarketPlace/contracts/CRNFTMarketplace.sol\":3601:3605  nfts */\n      0x05\n        /* \"CrNFTMarketPlace/contracts/CRNFTMarketplace.sol\":3601:3615  nfts[_tokenId] */\n      0x00\n        /* \"CrNFTMarketPlace/contracts/CRNFTMarketplace.sol\":3606:3614  _tokenId */\n      dup7\n        /* \"CrNFTMarketPlace/contracts/CRNFTMarketplace.sol\":3601:3615  nfts[_tokenId] */\n      dup2\n      mstore\n      0x20\n      add\n      swap1\n      dup2\n      mstore\n      0x20\n      add\n      0x00\n      keccak256\n        /* \"CrNFTMarketPlace/contracts/CRNFTMarketplace.sol\":3601:3621  nfts[_tokenId].owner */\n      0x01\n      add\n      0x00\n      swap1\n      sload\n      swap1\n      0x0100\n      exp\n      swap1\n      div\n      0xffffffffffffffffffffffffffffffffffffffff\n      and\n        /* \"CrNFTMarketPlace/contracts/CRNFTMarketplace.sol\":3601:3631  nfts[_tokenId].owner == seller */\n      0xffffffffffffffffffffffffffffffffffffffff\n      and\n      eq\n        /* \"CrNFTMarketPlace/contracts/CRNFTMarketplace.sol\":3580:3687  require(... */\n      tag_109\n      jumpi\n      mload(0x40)\n      0x08c379a000000000000000000000000000000000000000000000000000000000\n      dup2\n      mstore\n      0x04\n      add\n      tag_110\n      swap1\n      tag_111\n      jump\t// in\n    tag_110:\n      mload(0x40)\n      dup1\n      swap2\n      sub\n      swap1\n      revert\n    tag_109:\n        /* \"CrNFTMarketPlace/contracts/CRNFTMarketplace.sol\":3698:3715  uint256 feeAmount */\n      0x00\n        /* \"CrNFTMarketPlace/contracts/CRNFTMarketplace.sol\":3734:3737  100 */\n      0x64\n        /* \"CrNFTMarketPlace/contracts/CRNFTMarketplace.sol\":3727:3730  fee */\n      sload(0x02)\n        /* \"CrNFTMarketPlace/contracts/CRNFTMarketplace.sol\":3719:3724  price */\n      dup5\n        /* \"CrNFTMarketPlace/contracts/CRNFTMarketplace.sol\":3719:3730  price * fee */\n      tag_112\n      swap2\n      swap1\n      tag_113\n      jump\t// in\n    tag_112:\n        /* \"CrNFTMarketPlace/contracts/CRNFTMarketplace.sol\":3718:3737  (price * fee) / 100 */\n      tag_114\n      swap2\n      swap1\n      tag_115\n      jump\t// in\n    tag_114:\n        /* \"CrNFTMarketPlace/contracts/CRNFTMarketplace.sol\":3698:3737  uint256 feeAmount = (price * fee) / 100 */\n      swap1\n      pop\n        /* \"CrNFTMarketPlace/contracts/CRNFTMarketplace.sol\":3747:3767  uint256 sellerAmount */\n      0x00\n        /* \"CrNFTMarketPlace/contracts/CRNFTMarketplace.sol\":3778:3787  feeAmount */\n      dup2\n        /* \"CrNFTMarketPlace/contracts/CRNFTMarketplace.sol\":3770:3775  price */\n      dup5\n        /* \"CrNFTMarketPlace/contracts/CRNFTMarketplace.sol\":3770:3787  price - feeAmount */\n      tag_116\n      swap2\n      swap1\n      tag_117\n      jump\t// in\n    tag_116:\n        /* \"CrNFTMarketPlace/contracts/CRNFTMarketplace.sol\":3747:3787  uint256 sellerAmount = price - feeAmount */\n      swap1\n      pop\n        /* \"CrNFTMarketPlace/contracts/CRNFTMarketplace.sol\":3821:3831  msg.sender */\n      caller\n        /* \"CrNFTMarketPlace/contracts/CRNFTMarketplace.sol\":3798:3802  nfts */\n      0x05\n        /* \"CrNFTMarketPlace/contracts/CRNFTMarketplace.sol\":3798:3812  nfts[_tokenId] */\n      0x00\n        /* \"CrNFTMarketPlace/contracts/CRNFTMarketplace.sol\":3803:3811  _tokenId */\n      dup9\n        /* \"CrNFTMarketPlace/contracts/CRNFTMarketplace.sol\":3798:3812  nfts[_tokenId] */\n      dup2\n      mstore\n      0x20\n      add\n      swap1\n      dup2\n      mstore\n      0x20\n      add\n      0x00\n      keccak256\n        /* \"CrNFTMarketPlace/contracts/CRNFTMarketplace.sol\":3798:3818  nfts[_tokenId].owner */\n      0x01\n      add\n      0x00\n        /* \"CrNFTMarketPlace/contracts/CRNFTMarketplace.sol\":3798:3831  nfts[_tokenId].owner = msg.sender */\n      0x0100\n      exp\n      dup2\n      sload\n      dup2\n      0xffffffffffffffffffffffffffffffffffffffff\n      mul\n      not\n      and\n      swap1\n      dup4\n      0xffffffffffffffffffffffffffffffffffffffff\n      and\n      mul\n      or\n      swap1\n      sstore\n      pop\n        /* \"CrNFTMarketPlace/contracts/CRNFTMarketplace.sol\":3841:3880  _removeTokenFromOwner(seller, _tokenId) */\n      tag_118\n        /* \"CrNFTMarketPlace/contracts/CRNFTMarketplace.sol\":3863:3869  seller */\n      dup4\n        /* \"CrNFTMarketPlace/contracts/CRNFTMarketplace.sol\":3871:3879  _tokenId */\n      dup8\n        /* \"CrNFTMarketPlace/contracts/CRNFTMarketplace.sol\":3841:3862  _removeTokenFromOwner */\n      tag_119\n        /* \"CrNFTMarketPlace/contracts/CRNFTMarketplace.sol\":3841:3880  _removeTokenFromOwner(seller, _tokenId) */\n      jump\t// in\n    tag_118:\n        /* \"CrNFTMarketPlace/contracts/CRNFTMarketplace.sol\":3890:3901  ownerTokens */\n      0x07\n        /* \"CrNFTMarketPlace/contracts/CRNFTMarketplace.sol\":3890:3913  ownerTokens[msg.sender] */\n      0x00\n        /* \"CrNFTMarketPlace/contracts/CRNFTMarketplace.sol\":3902:3912  msg.sender */\n      caller\n        /* \"CrNFTMarketPlace/contracts/CRNFTMarketplace.sol\":3890:3913  ownerTokens[msg.sender] */\n      0xffffffffffffffffffffffffffffffffffffffff\n      and\n      0xffffffffffffffffffffffffffffffffffffffff\n      and\n      dup2\n      mstore\n      0x20\n      add\n      swap1\n      dup2\n      mstore\n      0x20\n      add\n      0x00\n      keccak256\n        /* \"CrNFTMarketPlace/contracts/CRNFTMarketplace.sol\":3919:3927  _tokenId */\n      dup7\n        /* \"CrNFTMarketPlace/contracts/CRNFTMarketplace.sol\":3890:3928  ownerTokens[msg.sender].push(_tokenId) */\n      swap1\n      dup1\n      0x01\n      dup2\n      sload\n      add\n      dup1\n      dup3\n      sstore\n      dup1\n      swap2\n      pop\n      pop\n      0x01\n      swap1\n      sub\n      swap1\n      0x00\n      mstore\n      keccak256(0x00, 0x20)\n      add\n      0x00\n      swap1\n      swap2\n      swap1\n      swap2\n      swap1\n      swap2\n      pop\n      sstore\n        /* \"CrNFTMarketPlace/contracts/CRNFTMarketplace.sol\":3967:3972  false */\n      0x00\n        /* \"CrNFTMarketPlace/contracts/CRNFTMarketplace.sol\":3939:3947  listings */\n      0x06\n        /* \"CrNFTMarketPlace/contracts/CRNFTMarketplace.sol\":3939:3957  listings[_tokenId] */\n      0x00\n        /* \"CrNFTMarketPlace/contracts/CRNFTMarketplace.sol\":3948:3956  _tokenId */\n      dup9\n        /* \"CrNFTMarketPlace/contracts/CRNFTMarketplace.sol\":3939:3957  listings[_tokenId] */\n      dup2\n      mstore\n      0x20\n      add\n      swap1\n      dup2\n      mstore\n      0x20\n      add\n      0x00\n      keccak256\n        /* \"CrNFTMarketPlace/contracts/CRNFTMarketplace.sol\":3939:3964  listings[_tokenId].active */\n      0x01\n      add\n      0x14\n        /* \"CrNFTMarketPlace/contracts/CRNFTMarketplace.sol\":3939:3972  listings[_tokenId].active = false */\n      0x0100\n      exp\n      dup2\n      sload\n      dup2\n      0xff\n      mul\n      not\n      and\n      swap1\n      dup4\n      iszero\n      iszero\n      mul\n      or\n      swap1\n      sstore\n      pop\n        /* \"CrNFTMarketPlace/contracts/CRNFTMarketplace.sol\":3984:4000  bool sentToOwner */\n      0x00\n        /* \"CrNFTMarketPlace/contracts/CRNFTMarketplace.sol\":4006:4011  owner */\n      0x01\n      0x00\n      swap1\n      sload\n      swap1\n      0x0100\n      exp\n      swap1\n      div\n      0xffffffffffffffffffffffffffffffffffffffff\n      and\n        /* \"CrNFTMarketPlace/contracts/CRNFTMarketplace.sol\":4006:4016  owner.call */\n      0xffffffffffffffffffffffffffffffffffffffff\n      and\n        /* \"CrNFTMarketPlace/contracts/CRNFTMarketplace.sol\":4024:4033  feeAmount */\n      dup4\n        /* \"CrNFTMarketPlace/contracts/CRNFTMarketplace.sol\":4006:4038  owner.call{value: feeAmount}(\"\") */\n      mload(0x40)\n      tag_121\n      swap1\n      tag_122\n      jump\t// in\n    tag_121:\n      0x00\n      mload(0x40)\n      dup1\n      dup4\n      sub\n      dup2\n      dup6\n      dup8\n      gas\n      call\n      swap3\n      pop\n      pop\n      pop\n      returndatasize\n      dup1\n      0x00\n      dup2\n      eq\n      tag_125\n      jumpi\n      mload(0x40)\n      swap2\n      pop\n      and(add(returndatasize, 0x3f), not(0x1f))\n      dup3\n      add\n      0x40\n      mstore\n      returndatasize\n      dup3\n      mstore\n      returndatasize\n      0x00\n      0x20\n      dup5\n      add\n      returndatacopy\n      jump(tag_124)\n    tag_125:\n      0x60\n      swap2\n      pop\n    tag_124:\n      pop\n        /* \"CrNFTMarketPlace/contracts/CRNFTMarketplace.sol\":3983:4038  (bool sentToOwner, ) = owner.call{value: feeAmount}(\"\") */\n      pop\n      swap1\n      pop\n        /* \"CrNFTMarketPlace/contracts/CRNFTMarketplace.sol\":4056:4067  sentToOwner */\n      dup1\n        /* \"CrNFTMarketPlace/contracts/CRNFTMarketplace.sol\":4048:4099  require(sentToOwner, \"Failed to send fee to owner\") */\n      tag_126\n      jumpi\n      mload(0x40)\n      0x08c379a000000000000000000000000000000000000000000000000000000000\n      dup2\n      mstore\n      0x04\n      add\n      tag_127\n      swap1\n      tag_128\n      jump\t// in\n    tag_127:\n      mload(0x40)\n      dup1\n      swap2\n      sub\n      swap1\n      revert\n    tag_126:\n        /* \"CrNFTMarketPlace/contracts/CRNFTMarketplace.sol\":4111:4128  bool sentToSeller */\n      0x00\n        /* \"CrNFTMarketPlace/contracts/CRNFTMarketplace.sol\":4134:4140  seller */\n      dup5\n        /* \"CrNFTMarketPlace/contracts/CRNFTMarketplace.sol\":4134:4145  seller.call */\n      0xffffffffffffffffffffffffffffffffffffffff\n      and\n        /* \"CrNFTMarketPlace/contracts/CRNFTMarketplace.sol\":4153:4165  sellerAmount */\n      dup4\n        /* \"CrNFTMarketPlace/contracts/CRNFTMarketplace.sol\":4134:4170  seller.call{value: sellerAmount}(\"\") */\n      mload(0x40)\n      tag_129\n      swap1\n      tag_122\n      jump\t// in\n    tag_129:\n      0x00\n      mload(0x40)\n      dup1\n      dup4\n      sub\n      dup2\n      dup6\n      dup8\n      gas\n      call\n      swap3\n      pop\n      pop\n      pop\n      returndatasize\n      dup1\n      0x00\n      dup2\n      eq\n      tag_132\n      jumpi\n      mload(0x40)\n      swap2\n      pop\n      and(add(returndatasize, 0x3f), not(0x1f))\n      dup3\n      add\n      0x40\n      mstore\n      returndatasize\n      dup3\n      mstore\n      returndatasize\n      0x00\n      0x20\n      dup5\n      add\n      returndatacopy\n      jump(tag_131)\n    tag_132:\n      0x60\n      swap2\n      pop\n    tag_131:\n      pop\n        /* \"CrNFTMarketPlace/contracts/CRNFTMarketplace.sol\":4110:4170  (bool sentToSeller, ) = seller.call{value: sellerAmount}(\"\") */\n      pop\n      swap1\n      pop\n        /* \"CrNFTMarketPlace/contracts/CRNFTMarketplace.sol\":4188:4200  sentToSeller */\n      dup1\n        /* \"CrNFTMarketPlace/contracts/CRNFTMarketplace.sol\":4180:4236  require(sentToSeller, \"Failed to send amount to seller\") */\n      tag_133\n      jumpi\n      mload(0x40)\n      0x08c379a000000000000000000000000000000000000000000000000000000000\n      dup2\n      mstore\n      0x04\n      add\n      tag_134\n      swap1\n      tag_135\n      jump\t// in\n    tag_134:\n      mload(0x40)\n      dup1\n      swap2\n      sub\n      swap1\n      revert\n    tag_133:\n        /* \"CrNFTMarketPlace/contracts/CRNFTMarketplace.sol\":4247:4267  uint256 excessAmount */\n      0x00\n        /* \"CrNFTMarketPlace/contracts/CRNFTMarketplace.sol\":4282:4287  price */\n      dup7\n        /* \"CrNFTMarketPlace/contracts/CRNFTMarketplace.sol\":4270:4279  msg.value */\n      callvalue\n        /* \"CrNFTMarketPlace/contracts/CRNFTMarketplace.sol\":4270:4287  msg.value - price */\n      tag_136\n      swap2\n      swap1\n      tag_117\n      jump\t// in\n    tag_136:\n        /* \"CrNFTMarketPlace/contracts/CRNFTMarketplace.sol\":4247:4287  uint256 excessAmount = msg.value - price */\n      swap1\n      pop\n        /* \"CrNFTMarketPlace/contracts/CRNFTMarketplace.sol\":4316:4317  0 */\n      0x00\n        /* \"CrNFTMarketPlace/contracts/CRNFTMarketplace.sol\":4301:4313  excessAmount */\n      dup2\n        /* \"CrNFTMarketPlace/contracts/CRNFTMarketplace.sol\":4301:4317  excessAmount > 0 */\n      gt\n        /* \"CrNFTMarketPlace/contracts/CRNFTMarketplace.sol\":4297:4469  if (excessAmount > 0) {... */\n      iszero\n      tag_137\n      jumpi\n        /* \"CrNFTMarketPlace/contracts/CRNFTMarketplace.sol\":4334:4347  bool refunded */\n      0x00\n        /* \"CrNFTMarketPlace/contracts/CRNFTMarketplace.sol\":4353:4363  msg.sender */\n      caller\n        /* \"CrNFTMarketPlace/contracts/CRNFTMarketplace.sol\":4353:4368  msg.sender.call */\n      0xffffffffffffffffffffffffffffffffffffffff\n      and\n        /* \"CrNFTMarketPlace/contracts/CRNFTMarketplace.sol\":4376:4388  excessAmount */\n      dup3\n        /* \"CrNFTMarketPlace/contracts/CRNFTMarketplace.sol\":4353:4393  msg.sender.call{value: excessAmount}(\"\") */\n      mload(0x40)\n      tag_138\n      swap1\n      tag_122\n      jump\t// in\n    tag_138:\n      0x00\n      mload(0x40)\n      dup1\n      dup4\n      sub\n      dup2\n      dup6\n      dup8\n      gas\n      call\n      swap3\n      pop\n      pop\n      pop\n      returndatasize\n      dup1\n      0x00\n      dup2\n      eq\n      tag_141\n      jumpi\n      mload(0x40)\n      swap2\n      pop\n      and(add(returndatasize, 0x3f), not(0x1f))\n      dup3\n      add\n      0x40\n      mstore\n      returndatasize\n      dup3\n      mstore\n      returndatasize\n      0x00\n      0x20\n      dup5\n      add\n      returndatacopy\n      jump(tag_140)\n    tag_141:\n      0x60\n      swap2\n      pop\n    tag_140:\n      pop\n        /* \"CrNFTMarketPlace/contracts/CRNFTMarketplace.sol\":4333:4393  (bool refunded, ) = msg.sender.call{value: excessAmount}(\"\") */\n      pop\n      swap1\n      pop\n        /* \"CrNFTMarketPlace/contracts/CRNFTMarketplace.sol\":4415:4423  refunded */\n      dup1\n        /* \"CrNFTMarketPlace/contracts/CRNFTMarketplace.sol\":4407:4458  require(refunded, \"Failed to refund excess amount\") */\n      tag_142\n      jumpi\n      mload(0x40)\n      0x08c379a000000000000000000000000000000000000000000000000000000000\n      dup2\n      mstore\n      0x04\n      add\n      tag_143\n      swap1\n      tag_144\n      jump\t// in\n    tag_143:\n      mload(0x40)\n      dup1\n      swap2\n      sub\n      swap1\n      revert\n    tag_142:\n        /* \"CrNFTMarketPlace/contracts/CRNFTMarketplace.sol\":4319:4469  {... */\n      pop\n        /* \"CrNFTMarketPlace/contracts/CRNFTMarketplace.sol\":4297:4469  if (excessAmount > 0) {... */\n    tag_137:\n        /* \"CrNFTMarketPlace/contracts/CRNFTMarketplace.sol\":4509:4517  _tokenId */\n      dup9\n        /* \"CrNFTMarketPlace/contracts/CRNFTMarketplace.sol\":4497:4507  msg.sender */\n      caller\n        /* \"CrNFTMarketPlace/contracts/CRNFTMarketplace.sol\":4484:4536  NFTPurchased(msg.sender, _tokenId, price, feeAmount) */\n      0xffffffffffffffffffffffffffffffffffffffff\n      and\n      0x25d1144310b3f5e9cb8ad2e2bd379aef97847a57087ab9cbcd95a06105a4629c\n        /* \"CrNFTMarketPlace/contracts/CRNFTMarketplace.sol\":4519:4524  price */\n      dup10\n        /* \"CrNFTMarketPlace/contracts/CRNFTMarketplace.sol\":4526:4535  feeAmount */\n      dup9\n        /* \"CrNFTMarketPlace/contracts/CRNFTMarketplace.sol\":4484:4536  NFTPurchased(msg.sender, _tokenId, price, feeAmount) */\n      mload(0x40)\n      tag_145\n      swap3\n      swap2\n      swap1\n      tag_146\n      jump\t// in\n    tag_145:\n      mload(0x40)\n      dup1\n      swap2\n      sub\n      swap1\n      log3\n        /* \"CrNFTMarketPlace/contracts/CRNFTMarketplace.sol\":3183:4543  {... */\n      pop\n      pop\n      pop\n      pop\n      pop\n      pop\n      pop\n      pop\n        /* \"@openzeppelin/contracts/security/ReentrancyGuard.sol\":2303:2323  _nonReentrantAfter() */\n      tag_147\n        /* \"@openzeppelin/contracts/security/ReentrancyGuard.sol\":2303:2321  _nonReentrantAfter */\n      tag_148\n        /* \"@openzeppelin/contracts/security/ReentrancyGuard.sol\":2303:2323  _nonReentrantAfter() */\n      jump\t// in\n    tag_147:\n        /* \"CrNFTMarketPlace/contracts/CRNFTMarketplace.sol\":3064:4543  function purchaseNFT(uint256 _tokenId)... */\n      pop\n      jump\t// out\n        /* \"CrNFTMarketPlace/contracts/CRNFTMarketplace.sol\":752:778  uint256 public totalSupply */\n    tag_25:\n      sload(0x04)\n      dup2\n      jump\t// out\n        /* \"CrNFTMarketPlace/contracts/CRNFTMarketplace.sol\":784:819  mapping(uint256 => NFT) public nfts */\n    tag_31:\n      mstore(0x20, 0x05)\n      dup1\n      0x00\n      mstore\n      keccak256(0x00, 0x40)\n      0x00\n      swap2\n      pop\n      swap1\n      pop\n      dup1\n      0x00\n      add\n      sload\n      swap1\n      dup1\n      0x01\n      add\n      0x00\n      swap1\n      sload\n      swap1\n      0x0100\n      exp\n      swap1\n      div\n      0xffffffffffffffffffffffffffffffffffffffff\n      and\n      swap1\n      dup1\n      0x02\n      add\n      dup1\n      sload\n      tag_149\n      swap1\n      tag_150\n      jump\t// in\n    tag_149:\n      dup1\n      0x1f\n      add\n      0x20\n      dup1\n      swap2\n      div\n      mul\n      0x20\n      add\n      mload(0x40)\n      swap1\n      dup2\n      add\n      0x40\n      mstore\n      dup1\n      swap3\n      swap2\n      swap1\n      dup2\n      dup2\n      mstore\n      0x20\n      add\n      dup3\n      dup1\n      sload\n      tag_151\n      swap1\n      tag_150\n      jump\t// in\n    tag_151:\n      dup1\n      iszero\n      tag_152\n      jumpi\n      dup1\n      0x1f\n      lt\n      tag_153\n      jumpi\n      0x0100\n      dup1\n      dup4\n      sload\n      div\n      mul\n      dup4\n      mstore\n      swap2\n      0x20\n      add\n      swap2\n      jump(tag_152)\n    tag_153:\n      dup3\n      add\n      swap2\n      swap1\n      0x00\n      mstore\n      keccak256(0x00, 0x20)\n      swap1\n    tag_154:\n      dup2\n      sload\n      dup2\n      mstore\n      swap1\n      0x01\n      add\n      swap1\n      0x20\n      add\n      dup1\n      dup4\n      gt\n      tag_154\n      jumpi\n      dup3\n      swap1\n      sub\n      0x1f\n      and\n      dup3\n      add\n      swap2\n    tag_152:\n      pop\n      pop\n      pop\n      pop\n      pop\n      swap1\n      pop\n      dup4\n      jump\t// out\n        /* \"CrNFTMarketPlace/contracts/CRNFTMarketplace.sol\":874:922  mapping(address => uint256[]) public ownerTokens */\n    tag_38:\n      mstore(0x20, 0x07)\n      dup2\n      0x00\n      mstore\n      keccak256(0x00, 0x40)\n      dup2\n      dup2\n      sload\n      dup2\n      lt\n      tag_155\n      jumpi\n      0x00\n      dup1\n      revert\n    tag_155:\n      swap1\n      0x00\n      mstore\n      keccak256(0x00, 0x20)\n      add\n      0x00\n      swap2\n      pop\n      swap2\n      pop\n      pop\n      sload\n      dup2\n      jump\t// out\n        /* \"CrNFTMarketPlace/contracts/CRNFTMarketplace.sol\":5111:5263  function getTokenURI(uint256 _tokenId)... */\n    tag_43:\n        /* \"CrNFTMarketPlace/contracts/CRNFTMarketplace.sol\":5197:5210  string memory */\n      0x60\n        /* \"CrNFTMarketPlace/contracts/CRNFTMarketplace.sol\":5233:5237  nfts */\n      0x05\n        /* \"CrNFTMarketPlace/contracts/CRNFTMarketplace.sol\":5233:5247  nfts[_tokenId] */\n      0x00\n        /* \"CrNFTMarketPlace/contracts/CRNFTMarketplace.sol\":5238:5246  _tokenId */\n      dup4\n        /* \"CrNFTMarketPlace/contracts/CRNFTMarketplace.sol\":5233:5247  nfts[_tokenId] */\n      dup2\n      mstore\n      0x20\n      add\n      swap1\n      dup2\n      mstore\n      0x20\n      add\n      0x00\n      keccak256\n        /* \"CrNFTMarketPlace/contracts/CRNFTMarketplace.sol\":5233:5256  nfts[_tokenId].tokenURI */\n      0x02\n      add\n        /* \"CrNFTMarketPlace/contracts/CRNFTMarketplace.sol\":5226:5256  return nfts[_tokenId].tokenURI */\n      dup1\n      sload\n      tag_158\n      swap1\n      tag_150\n      jump\t// in\n    tag_158:\n      dup1\n      0x1f\n      add\n      0x20\n      dup1\n      swap2\n      div\n      mul\n      0x20\n      add\n      mload(0x40)\n      swap1\n      dup2\n      add\n      0x40\n      mstore\n      dup1\n      swap3\n      swap2\n      swap1\n      dup2\n      dup2\n      mstore\n      0x20\n      add\n      dup3\n      dup1\n      sload\n      tag_159\n      swap1\n      tag_150\n      jump\t// in\n    tag_159:\n      dup1\n      iszero\n      tag_160\n      jumpi\n      dup1\n      0x1f\n      lt\n      tag_161\n      jumpi\n      0x0100\n      dup1\n      dup4\n      sload\n      div\n      mul\n      dup4\n      mstore\n      swap2\n      0x20\n      add\n      swap2\n      jump(tag_160)\n    tag_161:\n      dup3\n      add\n      swap2\n      swap1\n      0x00\n      mstore\n      keccak256(0x00, 0x20)\n      swap1\n    tag_162:\n      dup2\n      sload\n      dup2\n      mstore\n      swap1\n      0x01\n      add\n      swap1\n      0x20\n      add\n      dup1\n      dup4\n      gt\n      tag_162\n      jumpi\n      dup3\n      swap1\n      sub\n      0x1f\n      and\n      dup3\n      add\n      swap2\n    tag_160:\n      pop\n      pop\n      pop\n      pop\n      pop\n      swap1\n      pop\n        /* \"CrNFTMarketPlace/contracts/CRNFTMarketplace.sol\":5111:5263  function getTokenURI(uint256 _tokenId)... */\n      swap2\n      swap1\n      pop\n      jump\t// out\n        /* \"CrNFTMarketPlace/contracts/CRNFTMarketplace.sol\":1946:2038  function unpause() public onlyOwner {... */\n    tag_48:\n        /* \"CrNFTMarketPlace/contracts/CRNFTMarketplace.sol\":1189:1194  owner */\n      0x01\n      0x00\n      swap1\n      sload\n      swap1\n      0x0100\n      exp\n      swap1\n      div\n      0xffffffffffffffffffffffffffffffffffffffff\n      and\n        /* \"CrNFTMarketPlace/contracts/CRNFTMarketplace.sol\":1175:1194  msg.sender == owner */\n      0xffffffffffffffffffffffffffffffffffffffff\n      and\n        /* \"CrNFTMarketPlace/contracts/CRNFTMarketplace.sol\":1175:1185  msg.sender */\n      caller\n        /* \"CrNFTMarketPlace/contracts/CRNFTMarketplace.sol\":1175:1194  msg.sender == owner */\n      0xffffffffffffffffffffffffffffffffffffffff\n      and\n      eq\n        /* \"CrNFTMarketPlace/contracts/CRNFTMarketplace.sol\":1167:1221  require(msg.sender == owner, \"Not the contract owner\") */\n      tag_164\n      jumpi\n      mload(0x40)\n      0x08c379a000000000000000000000000000000000000000000000000000000000\n      dup2\n      mstore\n      0x04\n      add\n      tag_165\n      swap1\n      tag_166\n      jump\t// in\n    tag_165:\n      mload(0x40)\n      dup1\n      swap2\n      sub\n      swap1\n      revert\n    tag_164:\n        /* \"CrNFTMarketPlace/contracts/CRNFTMarketplace.sol\":2001:2006  false */\n      0x00\n        /* \"CrNFTMarketPlace/contracts/CRNFTMarketplace.sol\":1992:1998  paused */\n      0x03\n      0x00\n        /* \"CrNFTMarketPlace/contracts/CRNFTMarketplace.sol\":1992:2006  paused = false */\n      0x0100\n      exp\n      dup2\n      sload\n      dup2\n      0xff\n      mul\n      not\n      and\n      swap1\n      dup4\n      iszero\n      iszero\n      mul\n      or\n      swap1\n      sstore\n      pop\n        /* \"CrNFTMarketPlace/contracts/CRNFTMarketplace.sol\":2021:2031  Unpaused() */\n      0xa45f47fdea8a1efdd9029a5691c7f759c32b7c698632b563573e155625d16933\n      mload(0x40)\n      mload(0x40)\n      dup1\n      swap2\n      sub\n      swap1\n      log1\n        /* \"CrNFTMarketPlace/contracts/CRNFTMarketplace.sol\":1946:2038  function unpause() public onlyOwner {... */\n      jump\t// out\n        /* \"CrNFTMarketPlace/contracts/CRNFTMarketplace.sol\":221:239  bool public paused */\n    tag_51:\n      0x03\n      0x00\n      swap1\n      sload\n      swap1\n      0x0100\n      exp\n      swap1\n      div\n      0xff\n      and\n      dup2\n      jump\t// out\n        /* \"CrNFTMarketPlace/contracts/CRNFTMarketplace.sol\":1853:1940  function pause() public onlyOwner {... */\n    tag_56:\n        /* \"CrNFTMarketPlace/contracts/CRNFTMarketplace.sol\":1189:1194  owner */\n      0x01\n      0x00\n      swap1\n      sload\n      swap1\n      0x0100\n      exp\n      swap1\n      div\n      0xffffffffffffffffffffffffffffffffffffffff\n      and\n        /* \"CrNFTMarketPlace/contracts/CRNFTMarketplace.sol\":1175:1194  msg.sender == owner */\n      0xffffffffffffffffffffffffffffffffffffffff\n      and\n        /* \"CrNFTMarketPlace/contracts/CRNFTMarketplace.sol\":1175:1185  msg.sender */\n      caller\n        /* \"CrNFTMarketPlace/contracts/CRNFTMarketplace.sol\":1175:1194  msg.sender == owner */\n      0xffffffffffffffffffffffffffffffffffffffff\n      and\n      eq\n        /* \"CrNFTMarketPlace/contracts/CRNFTMarketplace.sol\":1167:1221  require(msg.sender == owner, \"Not the contract owner\") */\n      tag_169\n      jumpi\n      mload(0x40)\n      0x08c379a000000000000000000000000000000000000000000000000000000000\n      dup2\n      mstore\n      0x04\n      add\n      tag_170\n      swap1\n      tag_166\n      jump\t// in\n    tag_170:\n      mload(0x40)\n      dup1\n      swap2\n      sub\n      swap1\n      revert\n    tag_169:\n        /* \"CrNFTMarketPlace/contracts/CRNFTMarketplace.sol\":1906:1910  true */\n      0x01\n        /* \"CrNFTMarketPlace/contracts/CRNFTMarketplace.sol\":1897:1903  paused */\n      0x03\n      0x00\n        /* \"CrNFTMarketPlace/contracts/CRNFTMarketplace.sol\":1897:1910  paused = true */\n      0x0100\n      exp\n      dup2\n      sload\n      dup2\n      0xff\n      mul\n      not\n      and\n      swap1\n      dup4\n      iszero\n      iszero\n      mul\n      or\n      swap1\n      sstore\n      pop\n        /* \"CrNFTMarketPlace/contracts/CRNFTMarketplace.sol\":1925:1933  Paused() */\n      0x9e87fac88ff661f02d44f95383c817fece4bce600a3dab7a54406878b965e752\n      mload(0x40)\n      mload(0x40)\n      dup1\n      swap2\n      sub\n      swap1\n      log1\n        /* \"CrNFTMarketPlace/contracts/CRNFTMarketplace.sol\":1853:1940  function pause() public onlyOwner {... */\n      jump\t// out\n        /* \"CrNFTMarketPlace/contracts/CRNFTMarketplace.sol\":171:191  address public owner */\n    tag_59:\n      0x01\n      0x00\n      swap1\n      sload\n      swap1\n      0x0100\n      exp\n      swap1\n      div\n      0xffffffffffffffffffffffffffffffffffffffff\n      and\n      dup2\n      jump\t// out\n        /* \"CrNFTMarketPlace/contracts/CRNFTMarketplace.sol\":2678:3058  function listNFT(uint256 _tokenId, uint256 _price) external {... */\n    tag_66:\n        /* \"CrNFTMarketPlace/contracts/CRNFTMarketplace.sol\":2780:2790  msg.sender */\n      caller\n        /* \"CrNFTMarketPlace/contracts/CRNFTMarketplace.sol\":2756:2790  nfts[_tokenId].owner == msg.sender */\n      0xffffffffffffffffffffffffffffffffffffffff\n      and\n        /* \"CrNFTMarketPlace/contracts/CRNFTMarketplace.sol\":2756:2760  nfts */\n      0x05\n        /* \"CrNFTMarketPlace/contracts/CRNFTMarketplace.sol\":2756:2770  nfts[_tokenId] */\n      0x00\n        /* \"CrNFTMarketPlace/contracts/CRNFTMarketplace.sol\":2761:2769  _tokenId */\n      dup5\n        /* \"CrNFTMarketPlace/contracts/CRNFTMarketplace.sol\":2756:2770  nfts[_tokenId] */\n      dup2\n      mstore\n      0x20\n      add\n      swap1\n      dup2\n      mstore\n      0x20\n      add\n      0x00\n      keccak256\n        /* \"CrNFTMarketPlace/contracts/CRNFTMarketplace.sol\":2756:2776  nfts[_tokenId].owner */\n      0x01\n      add\n      0x00\n      swap1\n      sload\n      swap1\n      0x0100\n      exp\n      swap1\n      div\n      0xffffffffffffffffffffffffffffffffffffffff\n      and\n        /* \"CrNFTMarketPlace/contracts/CRNFTMarketplace.sol\":2756:2790  nfts[_tokenId].owner == msg.sender */\n      0xffffffffffffffffffffffffffffffffffffffff\n      and\n      eq\n        /* \"CrNFTMarketPlace/contracts/CRNFTMarketplace.sol\":2748:2808  require(nfts[_tokenId].owner == msg.sender, \"Not the owner\") */\n      tag_173\n      jumpi\n      mload(0x40)\n      0x08c379a000000000000000000000000000000000000000000000000000000000\n      dup2\n      mstore\n      0x04\n      add\n      tag_174\n      swap1\n      tag_175\n      jump\t// in\n    tag_174:\n      mload(0x40)\n      dup1\n      swap2\n      sub\n      swap1\n      revert\n    tag_173:\n        /* \"CrNFTMarketPlace/contracts/CRNFTMarketplace.sol\":2835:2836  0 */\n      0x00\n        /* \"CrNFTMarketPlace/contracts/CRNFTMarketplace.sol\":2826:2832  _price */\n      dup2\n        /* \"CrNFTMarketPlace/contracts/CRNFTMarketplace.sol\":2826:2836  _price > 0 */\n      gt\n        /* \"CrNFTMarketPlace/contracts/CRNFTMarketplace.sol\":2818:2872  require(_price > 0, \"Price must be greater than zero\") */\n      tag_176\n      jumpi\n      mload(0x40)\n      0x08c379a000000000000000000000000000000000000000000000000000000000\n      dup2\n      mstore\n      0x04\n      add\n      tag_177\n      swap1\n      tag_178\n      jump\t// in\n    tag_177:\n      mload(0x40)\n      dup1\n      swap2\n      sub\n      swap1\n      revert\n    tag_176:\n        /* \"CrNFTMarketPlace/contracts/CRNFTMarketplace.sol\":2904:3008  Listing({... */\n      mload(0x40)\n      dup1\n      0x60\n      add\n      0x40\n      mstore\n      dup1\n        /* \"CrNFTMarketPlace/contracts/CRNFTMarketplace.sol\":2933:2939  _price */\n      dup3\n        /* \"CrNFTMarketPlace/contracts/CRNFTMarketplace.sol\":2904:3008  Listing({... */\n      dup2\n      mstore\n      0x20\n      add\n        /* \"CrNFTMarketPlace/contracts/CRNFTMarketplace.sol\":2961:2971  msg.sender */\n      caller\n        /* \"CrNFTMarketPlace/contracts/CRNFTMarketplace.sol\":2904:3008  Listing({... */\n      0xffffffffffffffffffffffffffffffffffffffff\n      and\n      dup2\n      mstore\n      0x20\n      add\n        /* \"CrNFTMarketPlace/contracts/CRNFTMarketplace.sol\":2993:2997  true */\n      0x01\n        /* \"CrNFTMarketPlace/contracts/CRNFTMarketplace.sol\":2904:3008  Listing({... */\n      iszero\n      iszero\n      dup2\n      mstore\n      pop\n        /* \"CrNFTMarketPlace/contracts/CRNFTMarketplace.sol\":2883:2891  listings */\n      0x06\n        /* \"CrNFTMarketPlace/contracts/CRNFTMarketplace.sol\":2883:2901  listings[_tokenId] */\n      0x00\n        /* \"CrNFTMarketPlace/contracts/CRNFTMarketplace.sol\":2892:2900  _tokenId */\n      dup5\n        /* \"CrNFTMarketPlace/contracts/CRNFTMarketplace.sol\":2883:2901  listings[_tokenId] */\n      dup2\n      mstore\n      0x20\n      add\n      swap1\n      dup2\n      mstore\n      0x20\n      add\n      0x00\n      keccak256\n        /* \"CrNFTMarketPlace/contracts/CRNFTMarketplace.sol\":2883:3008  listings[_tokenId] = Listing({... */\n      0x00\n      dup3\n      add\n      mload\n      dup2\n      0x00\n      add\n      sstore\n      0x20\n      dup3\n      add\n      mload\n      dup2\n      0x01\n      add\n      exp(0x0100, 0x00)\n      dup2\n      sload\n      dup2\n      0xffffffffffffffffffffffffffffffffffffffff\n      mul\n      not\n      and\n      swap1\n      dup4\n      0xffffffffffffffffffffffffffffffffffffffff\n      and\n      mul\n      or\n      swap1\n      sstore\n      pop\n      0x40\n      dup3\n      add\n      mload\n      dup2\n      0x01\n      add\n      exp(0x0100, 0x14)\n      dup2\n      sload\n      dup2\n      0xff\n      mul\n      not\n      and\n      swap1\n      dup4\n      iszero\n      iszero\n      mul\n      or\n      swap1\n      sstore\n      pop\n      swap1\n      pop\n      pop\n        /* \"CrNFTMarketPlace/contracts/CRNFTMarketplace.sol\":3034:3042  _tokenId */\n      dup2\n        /* \"CrNFTMarketPlace/contracts/CRNFTMarketplace.sol\":3024:3051  NFTListed(_tokenId, _price) */\n      0xa6cd73580a273eec6c1026108f6b63479fbaef5356dde4ff43e4b38dd187485f\n        /* \"CrNFTMarketPlace/contracts/CRNFTMarketplace.sol\":3044:3050  _price */\n      dup3\n        /* \"CrNFTMarketPlace/contracts/CRNFTMarketplace.sol\":3024:3051  NFTListed(_tokenId, _price) */\n      mload(0x40)\n      tag_179\n      swap2\n      swap1\n      tag_27\n      jump\t// in\n    tag_179:\n      mload(0x40)\n      dup1\n      swap2\n      sub\n      swap1\n      log2\n        /* \"CrNFTMarketPlace/contracts/CRNFTMarketplace.sol\":2678:3058  function listNFT(uint256 _tokenId, uint256 _price) external {... */\n      pop\n      pop\n      jump\t// out\n        /* \"CrNFTMarketPlace/contracts/CRNFTMarketplace.sol\":4953:5105  function getOwnerTokens(address _owner)... */\n    tag_71:\n        /* \"CrNFTMarketPlace/contracts/CRNFTMarketplace.sol\":5040:5056  uint256[] memory */\n      0x60\n        /* \"CrNFTMarketPlace/contracts/CRNFTMarketplace.sol\":5079:5090  ownerTokens */\n      0x07\n        /* \"CrNFTMarketPlace/contracts/CRNFTMarketplace.sol\":5079:5098  ownerTokens[_owner] */\n      0x00\n        /* \"CrNFTMarketPlace/contracts/CRNFTMarketplace.sol\":5091:5097  _owner */\n      dup4\n        /* \"CrNFTMarketPlace/contracts/CRNFTMarketplace.sol\":5079:5098  ownerTokens[_owner] */\n      0xffffffffffffffffffffffffffffffffffffffff\n      and\n      0xffffffffffffffffffffffffffffffffffffffff\n      and\n      dup2\n      mstore\n      0x20\n      add\n      swap1\n      dup2\n      mstore\n      0x20\n      add\n      0x00\n      keccak256\n        /* \"CrNFTMarketPlace/contracts/CRNFTMarketplace.sol\":5072:5098  return ownerTokens[_owner] */\n      dup1\n      sload\n      dup1\n      0x20\n      mul\n      0x20\n      add\n      mload(0x40)\n      swap1\n      dup2\n      add\n      0x40\n      mstore\n      dup1\n      swap3\n      swap2\n      swap1\n      dup2\n      dup2\n      mstore\n      0x20\n      add\n      dup3\n      dup1\n      sload\n      dup1\n      iszero\n      tag_181\n      jumpi\n      0x20\n      mul\n      dup3\n      add\n      swap2\n      swap1\n      0x00\n      mstore\n      keccak256(0x00, 0x20)\n      swap1\n    tag_182:\n      dup2\n      sload\n      dup2\n      mstore\n      0x20\n      add\n      swap1\n      0x01\n      add\n      swap1\n      dup1\n      dup4\n      gt\n      tag_182\n      jumpi\n    tag_181:\n      pop\n      pop\n      pop\n      pop\n      pop\n      swap1\n      pop\n        /* \"CrNFTMarketPlace/contracts/CRNFTMarketplace.sol\":4953:5105  function getOwnerTokens(address _owner)... */\n      swap2\n      swap1\n      pop\n      jump\t// out\n        /* \"CrNFTMarketPlace/contracts/CRNFTMarketplace.sol\":2044:2672  function mint(string memory _tokenURI)... */\n    tag_78:\n        /* \"CrNFTMarketPlace/contracts/CRNFTMarketplace.sol\":1289:1295  paused */\n      0x03\n      0x00\n      swap1\n      sload\n      swap1\n      0x0100\n      exp\n      swap1\n      div\n      0xff\n      and\n        /* \"CrNFTMarketPlace/contracts/CRNFTMarketplace.sol\":1288:1295  !paused */\n      iszero\n        /* \"CrNFTMarketPlace/contracts/CRNFTMarketplace.sol\":1280:1318  require(!paused, \"Contract is paused\") */\n      tag_184\n      jumpi\n      mload(0x40)\n      0x08c379a000000000000000000000000000000000000000000000000000000000\n      dup2\n      mstore\n      0x04\n      add\n      tag_185\n      swap1\n      tag_92\n      jump\t// in\n    tag_185:\n      mload(0x40)\n      dup1\n      swap2\n      sub\n      swap1\n      revert\n    tag_184:\n        /* \"CrNFTMarketPlace/contracts/CRNFTMarketplace.sol\":2146:2155  _tokenURI */\n      dup1\n        /* \"CrNFTMarketPlace/contracts/CRNFTMarketplace.sol\":1422:1437  _tokenURIExists */\n      0x08\n        /* \"CrNFTMarketPlace/contracts/CRNFTMarketplace.sol\":1422:1476  _tokenURIExists[keccak256(abi.encodePacked(tokenUri))] */\n      0x00\n        /* \"CrNFTMarketPlace/contracts/CRNFTMarketplace.sol\":1465:1473  tokenUri */\n      dup3\n        /* \"CrNFTMarketPlace/contracts/CRNFTMarketplace.sol\":1448:1474  abi.encodePacked(tokenUri) */\n      add(0x20, mload(0x40))\n      tag_187\n      swap2\n      swap1\n      tag_188\n      jump\t// in\n    tag_187:\n      mload(0x40)\n      0x20\n      dup2\n      dup4\n      sub\n      sub\n      dup2\n      mstore\n      swap1\n      0x40\n      mstore\n        /* \"CrNFTMarketPlace/contracts/CRNFTMarketplace.sol\":1438:1475  keccak256(abi.encodePacked(tokenUri)) */\n      dup1\n      mload\n      swap1\n      0x20\n      add\n      keccak256\n        /* \"CrNFTMarketPlace/contracts/CRNFTMarketplace.sol\":1422:1476  _tokenURIExists[keccak256(abi.encodePacked(tokenUri))] */\n      dup2\n      mstore\n      0x20\n      add\n      swap1\n      dup2\n      mstore\n      0x20\n      add\n      0x00\n      keccak256\n      0x00\n      swap1\n      sload\n      swap1\n      0x0100\n      exp\n      swap1\n      div\n      0xff\n      and\n        /* \"CrNFTMarketPlace/contracts/CRNFTMarketplace.sol\":1421:1476  !_tokenURIExists[keccak256(abi.encodePacked(tokenUri))] */\n      iszero\n        /* \"CrNFTMarketPlace/contracts/CRNFTMarketplace.sol\":1400:1526  require(... */\n      tag_189\n      jumpi\n      mload(0x40)\n      0x08c379a000000000000000000000000000000000000000000000000000000000\n      dup2\n      mstore\n      0x04\n      add\n      tag_190\n      swap1\n      tag_191\n      jump\t// in\n    tag_190:\n      mload(0x40)\n      dup1\n      swap2\n      sub\n      swap1\n      revert\n    tag_189:\n        /* \"CrNFTMarketPlace/contracts/CRNFTMarketplace.sol\":2179:2207  _isNotEmptyString(_tokenURI) */\n      tag_193\n        /* \"CrNFTMarketPlace/contracts/CRNFTMarketplace.sol\":2197:2206  _tokenURI */\n      dup3\n        /* \"CrNFTMarketPlace/contracts/CRNFTMarketplace.sol\":2179:2196  _isNotEmptyString */\n      tag_194\n        /* \"CrNFTMarketPlace/contracts/CRNFTMarketplace.sol\":2179:2207  _isNotEmptyString(_tokenURI) */\n      jump\t// in\n    tag_193:\n        /* \"CrNFTMarketPlace/contracts/CRNFTMarketplace.sol\":2171:2231  require(_isNotEmptyString(_tokenURI), \"Token URI is empty!\") */\n      tag_195\n      jumpi\n      mload(0x40)\n      0x08c379a000000000000000000000000000000000000000000000000000000000\n      dup2\n      mstore\n      0x04\n      add\n      tag_196\n      swap1\n      tag_197\n      jump\t// in\n    tag_196:\n      mload(0x40)\n      dup1\n      swap2\n      sub\n      swap1\n      revert\n    tag_195:\n        /* \"CrNFTMarketPlace/contracts/CRNFTMarketplace.sol\":2242:2260  uint256 newTokenId */\n      0x00\n        /* \"CrNFTMarketPlace/contracts/CRNFTMarketplace.sol\":2277:2278  1 */\n      0x01\n        /* \"CrNFTMarketPlace/contracts/CRNFTMarketplace.sol\":2263:2274  totalSupply */\n      sload(0x04)\n        /* \"CrNFTMarketPlace/contracts/CRNFTMarketplace.sol\":2263:2278  totalSupply + 1 */\n      tag_198\n      swap2\n      swap1\n      tag_199\n      jump\t// in\n    tag_198:\n        /* \"CrNFTMarketPlace/contracts/CRNFTMarketplace.sol\":2242:2278  uint256 newTokenId = totalSupply + 1 */\n      swap1\n      pop\n        /* \"CrNFTMarketPlace/contracts/CRNFTMarketplace.sol\":2308:2420  NFT({... */\n      mload(0x40)\n      dup1\n      0x60\n      add\n      0x40\n      mstore\n      dup1\n        /* \"CrNFTMarketPlace/contracts/CRNFTMarketplace.sol\":2335:2345  newTokenId */\n      dup3\n        /* \"CrNFTMarketPlace/contracts/CRNFTMarketplace.sol\":2308:2420  NFT({... */\n      dup2\n      mstore\n      0x20\n      add\n        /* \"CrNFTMarketPlace/contracts/CRNFTMarketplace.sol\":2366:2376  msg.sender */\n      caller\n        /* \"CrNFTMarketPlace/contracts/CRNFTMarketplace.sol\":2308:2420  NFT({... */\n      0xffffffffffffffffffffffffffffffffffffffff\n      and\n      dup2\n      mstore\n      0x20\n      add\n        /* \"CrNFTMarketPlace/contracts/CRNFTMarketplace.sol\":2400:2409  _tokenURI */\n      dup5\n        /* \"CrNFTMarketPlace/contracts/CRNFTMarketplace.sol\":2308:2420  NFT({... */\n      dup2\n      mstore\n      pop\n        /* \"CrNFTMarketPlace/contracts/CRNFTMarketplace.sol\":2289:2293  nfts */\n      0x05\n        /* \"CrNFTMarketPlace/contracts/CRNFTMarketplace.sol\":2289:2305  nfts[newTokenId] */\n      0x00\n        /* \"CrNFTMarketPlace/contracts/CRNFTMarketplace.sol\":2294:2304  newTokenId */\n      dup4\n        /* \"CrNFTMarketPlace/contracts/CRNFTMarketplace.sol\":2289:2305  nfts[newTokenId] */\n      dup2\n      mstore\n      0x20\n      add\n      swap1\n      dup2\n      mstore\n      0x20\n      add\n      0x00\n      keccak256\n        /* \"CrNFTMarketPlace/contracts/CRNFTMarketplace.sol\":2289:2420  nfts[newTokenId] = NFT({... */\n      0x00\n      dup3\n      add\n      mload\n      dup2\n      0x00\n      add\n      sstore\n      0x20\n      dup3\n      add\n      mload\n      dup2\n      0x01\n      add\n      exp(0x0100, 0x00)\n      dup2\n      sload\n      dup2\n      0xffffffffffffffffffffffffffffffffffffffff\n      mul\n      not\n      and\n      swap1\n      dup4\n      0xffffffffffffffffffffffffffffffffffffffff\n      and\n      mul\n      or\n      swap1\n      sstore\n      pop\n      0x40\n      dup3\n      add\n      mload\n      dup2\n      0x02\n      add\n      swap1\n      dup2\n      tag_200\n      swap2\n      swap1\n      tag_201\n      jump\t// in\n    tag_200:\n      pop\n      swap1\n      pop\n      pop\n        /* \"CrNFTMarketPlace/contracts/CRNFTMarketplace.sol\":2431:2442  ownerTokens */\n      0x07\n        /* \"CrNFTMarketPlace/contracts/CRNFTMarketplace.sol\":2431:2454  ownerTokens[msg.sender] */\n      0x00\n        /* \"CrNFTMarketPlace/contracts/CRNFTMarketplace.sol\":2443:2453  msg.sender */\n      caller\n        /* \"CrNFTMarketPlace/contracts/CRNFTMarketplace.sol\":2431:2454  ownerTokens[msg.sender] */\n      0xffffffffffffffffffffffffffffffffffffffff\n      and\n      0xffffffffffffffffffffffffffffffffffffffff\n      and\n      dup2\n      mstore\n      0x20\n      add\n      swap1\n      dup2\n      mstore\n      0x20\n      add\n      0x00\n      keccak256\n        /* \"CrNFTMarketPlace/contracts/CRNFTMarketplace.sol\":2460:2470  newTokenId */\n      dup2\n        /* \"CrNFTMarketPlace/contracts/CRNFTMarketplace.sol\":2431:2471  ownerTokens[msg.sender].push(newTokenId) */\n      swap1\n      dup1\n      0x01\n      dup2\n      sload\n      add\n      dup1\n      dup3\n      sstore\n      dup1\n      swap2\n      pop\n      pop\n      0x01\n      swap1\n      sub\n      swap1\n      0x00\n      mstore\n      keccak256(0x00, 0x20)\n      add\n      0x00\n      swap1\n      swap2\n      swap1\n      swap2\n      swap1\n      swap2\n      pop\n      sstore\n        /* \"CrNFTMarketPlace/contracts/CRNFTMarketplace.sol\":2578:2582  true */\n      0x01\n        /* \"CrNFTMarketPlace/contracts/CRNFTMarketplace.sol\":2520:2535  _tokenURIExists */\n      0x08\n        /* \"CrNFTMarketPlace/contracts/CRNFTMarketplace.sol\":2520:2575  _tokenURIExists[keccak256(abi.encodePacked(_tokenURI))] */\n      0x00\n        /* \"CrNFTMarketPlace/contracts/CRNFTMarketplace.sol\":2563:2572  _tokenURI */\n      dup6\n        /* \"CrNFTMarketPlace/contracts/CRNFTMarketplace.sol\":2546:2573  abi.encodePacked(_tokenURI) */\n      add(0x20, mload(0x40))\n      tag_203\n      swap2\n      swap1\n      tag_188\n      jump\t// in\n    tag_203:\n      mload(0x40)\n      0x20\n      dup2\n      dup4\n      sub\n      sub\n      dup2\n      mstore\n      swap1\n      0x40\n      mstore\n        /* \"CrNFTMarketPlace/contracts/CRNFTMarketplace.sol\":2536:2574  keccak256(abi.encodePacked(_tokenURI)) */\n      dup1\n      mload\n      swap1\n      0x20\n      add\n      keccak256\n        /* \"CrNFTMarketPlace/contracts/CRNFTMarketplace.sol\":2520:2575  _tokenURIExists[keccak256(abi.encodePacked(_tokenURI))] */\n      dup2\n      mstore\n      0x20\n      add\n      swap1\n      dup2\n      mstore\n      0x20\n      add\n      0x00\n      keccak256\n      0x00\n        /* \"CrNFTMarketPlace/contracts/CRNFTMarketplace.sol\":2520:2582  _tokenURIExists[keccak256(abi.encodePacked(_tokenURI))] = true */\n      0x0100\n      exp\n      dup2\n      sload\n      dup2\n      0xff\n      mul\n      not\n      and\n      swap1\n      dup4\n      iszero\n      iszero\n      mul\n      or\n      swap1\n      sstore\n      pop\n        /* \"CrNFTMarketPlace/contracts/CRNFTMarketplace.sol\":2593:2616  _incrementTotalSupply() */\n      tag_204\n        /* \"CrNFTMarketPlace/contracts/CRNFTMarketplace.sol\":2593:2614  _incrementTotalSupply */\n      tag_205\n        /* \"CrNFTMarketPlace/contracts/CRNFTMarketplace.sol\":2593:2616  _incrementTotalSupply() */\n      jump\t// in\n    tag_204:\n        /* \"CrNFTMarketPlace/contracts/CRNFTMarketplace.sol\":2654:2664  newTokenId */\n      dup1\n        /* \"CrNFTMarketPlace/contracts/CRNFTMarketplace.sol\":2642:2652  msg.sender */\n      caller\n        /* \"CrNFTMarketPlace/contracts/CRNFTMarketplace.sol\":2632:2665  NFTMinted(msg.sender, newTokenId) */\n      0xffffffffffffffffffffffffffffffffffffffff\n      and\n      0x4cc0a9c4a99ddc700de1af2c9f916a7cbfdb71f14801ccff94061ad1ef8a8040\n      mload(0x40)\n      mload(0x40)\n      dup1\n      swap2\n      sub\n      swap1\n      log3\n        /* \"CrNFTMarketPlace/contracts/CRNFTMarketplace.sol\":2161:2672  {... */\n      pop\n        /* \"CrNFTMarketPlace/contracts/CRNFTMarketplace.sol\":1328:1329  _ */\n      pop\n        /* \"CrNFTMarketPlace/contracts/CRNFTMarketplace.sol\":2044:2672  function mint(string memory _tokenURI)... */\n      pop\n      jump\t// out\n        /* \"CrNFTMarketPlace/contracts/CRNFTMarketplace.sol\":197:215  uint256 public fee */\n    tag_81:\n      sload(0x02)\n      dup2\n      jump\t// out\n        /* \"CrNFTMarketPlace/contracts/CRNFTMarketplace.sol\":825:868  mapping(uint256 => Listing) public listings */\n    tag_86:\n      mstore(0x20, 0x06)\n      dup1\n      0x00\n      mstore\n      keccak256(0x00, 0x40)\n      0x00\n      swap2\n      pop\n      swap1\n      pop\n      dup1\n      0x00\n      add\n      sload\n      swap1\n      dup1\n      0x01\n      add\n      0x00\n      swap1\n      sload\n      swap1\n      0x0100\n      exp\n      swap1\n      div\n      0xffffffffffffffffffffffffffffffffffffffff\n      and\n      swap1\n      dup1\n      0x01\n      add\n      0x14\n      swap1\n      sload\n      swap1\n      0x0100\n      exp\n      swap1\n      div\n      0xff\n      and\n      swap1\n      pop\n      dup4\n      jump\t// out\n        /* \"@openzeppelin/contracts/security/ReentrancyGuard.sol\":2336:2623  function _nonReentrantBefore() private {... */\n    tag_95:\n        /* \"@openzeppelin/contracts/security/ReentrancyGuard.sol\":1759:1760  2 */\n      0x02\n        /* \"@openzeppelin/contracts/security/ReentrancyGuard.sol\":2468:2475  _status */\n      sload(0x00)\n        /* \"@openzeppelin/contracts/security/ReentrancyGuard.sol\":2468:2487  _status != _ENTERED */\n      sub\n        /* \"@openzeppelin/contracts/security/ReentrancyGuard.sol\":2460:2523  require(_status != _ENTERED, \"ReentrancyGuard: reentrant call\") */\n      tag_207\n      jumpi\n      mload(0x40)\n      0x08c379a000000000000000000000000000000000000000000000000000000000\n      dup2\n      mstore\n      0x04\n      add\n      tag_208\n      swap1\n      tag_209\n      jump\t// in\n    tag_208:\n      mload(0x40)\n      dup1\n      swap2\n      sub\n      swap1\n      revert\n    tag_207:\n        /* \"@openzeppelin/contracts/security/ReentrancyGuard.sol\":1759:1760  2 */\n      0x02\n        /* \"@openzeppelin/contracts/security/ReentrancyGuard.sol\":2598:2605  _status */\n      0x00\n        /* \"@openzeppelin/contracts/security/ReentrancyGuard.sol\":2598:2616  _status = _ENTERED */\n      dup2\n      swap1\n      sstore\n      pop\n        /* \"@openzeppelin/contracts/security/ReentrancyGuard.sol\":2336:2623  function _nonReentrantBefore() private {... */\n      jump\t// out\n        /* \"CrNFTMarketPlace/contracts/CRNFTMarketplace.sol\":4549:4947  function _removeTokenFromOwner(address _owner, uint256 _tokenId)... */\n    tag_119:\n        /* \"CrNFTMarketPlace/contracts/CRNFTMarketplace.sol\":1289:1295  paused */\n      0x03\n      0x00\n      swap1\n      sload\n      swap1\n      0x0100\n      exp\n      swap1\n      div\n      0xff\n      and\n        /* \"CrNFTMarketPlace/contracts/CRNFTMarketplace.sol\":1288:1295  !paused */\n      iszero\n        /* \"CrNFTMarketPlace/contracts/CRNFTMarketplace.sol\":1280:1318  require(!paused, \"Contract is paused\") */\n      tag_211\n      jumpi\n      mload(0x40)\n      0x08c379a000000000000000000000000000000000000000000000000000000000\n      dup2\n      mstore\n      0x04\n      add\n      tag_212\n      swap1\n      tag_92\n      jump\t// in\n    tag_212:\n      mload(0x40)\n      dup1\n      swap2\n      sub\n      swap1\n      revert\n    tag_211:\n        /* \"CrNFTMarketPlace/contracts/CRNFTMarketplace.sol\":4667:4691  uint256[] storage tokens */\n      0x00\n        /* \"CrNFTMarketPlace/contracts/CRNFTMarketplace.sol\":4694:4705  ownerTokens */\n      0x07\n        /* \"CrNFTMarketPlace/contracts/CRNFTMarketplace.sol\":4694:4713  ownerTokens[_owner] */\n      0x00\n        /* \"CrNFTMarketPlace/contracts/CRNFTMarketplace.sol\":4706:4712  _owner */\n      dup5\n        /* \"CrNFTMarketPlace/contracts/CRNFTMarketplace.sol\":4694:4713  ownerTokens[_owner] */\n      0xffffffffffffffffffffffffffffffffffffffff\n      and\n      0xffffffffffffffffffffffffffffffffffffffff\n      and\n      dup2\n      mstore\n      0x20\n      add\n      swap1\n      dup2\n      mstore\n      0x20\n      add\n      0x00\n      keccak256\n        /* \"CrNFTMarketPlace/contracts/CRNFTMarketplace.sol\":4667:4713  uint256[] storage tokens = ownerTokens[_owner] */\n      swap1\n      pop\n        /* \"CrNFTMarketPlace/contracts/CRNFTMarketplace.sol\":4728:4737  uint256 i */\n      0x00\n        /* \"CrNFTMarketPlace/contracts/CRNFTMarketplace.sol\":4740:4741  0 */\n      0x00\n        /* \"CrNFTMarketPlace/contracts/CRNFTMarketplace.sol\":4728:4741  uint256 i = 0 */\n      swap1\n      pop\n        /* \"CrNFTMarketPlace/contracts/CRNFTMarketplace.sol\":4723:4941  for (uint256 i = 0; i < tokens.length; i++) {... */\n    tag_214:\n        /* \"CrNFTMarketPlace/contracts/CRNFTMarketplace.sol\":4747:4753  tokens */\n      dup2\n        /* \"CrNFTMarketPlace/contracts/CRNFTMarketplace.sol\":4747:4760  tokens.length */\n      dup1\n      sload\n      swap1\n      pop\n        /* \"CrNFTMarketPlace/contracts/CRNFTMarketplace.sol\":4743:4744  i */\n      dup2\n        /* \"CrNFTMarketPlace/contracts/CRNFTMarketplace.sol\":4743:4760  i < tokens.length */\n      lt\n        /* \"CrNFTMarketPlace/contracts/CRNFTMarketplace.sol\":4723:4941  for (uint256 i = 0; i < tokens.length; i++) {... */\n      iszero\n      tag_215\n      jumpi\n        /* \"CrNFTMarketPlace/contracts/CRNFTMarketplace.sol\":4798:4806  _tokenId */\n      dup3\n        /* \"CrNFTMarketPlace/contracts/CRNFTMarketplace.sol\":4785:4791  tokens */\n      dup3\n        /* \"CrNFTMarketPlace/contracts/CRNFTMarketplace.sol\":4792:4793  i */\n      dup3\n        /* \"CrNFTMarketPlace/contracts/CRNFTMarketplace.sol\":4785:4794  tokens[i] */\n      dup2\n      sload\n      dup2\n      lt\n      tag_217\n      jumpi\n      tag_218\n      tag_219\n      jump\t// in\n    tag_218:\n    tag_217:\n      swap1\n      0x00\n      mstore\n      keccak256(0x00, 0x20)\n      add\n      sload\n        /* \"CrNFTMarketPlace/contracts/CRNFTMarketplace.sol\":4785:4806  tokens[i] == _tokenId */\n      sub\n        /* \"CrNFTMarketPlace/contracts/CRNFTMarketplace.sol\":4781:4931  if (tokens[i] == _tokenId) {... */\n      tag_221\n      jumpi\n        /* \"CrNFTMarketPlace/contracts/CRNFTMarketplace.sol\":4838:4844  tokens */\n      dup2\n        /* \"CrNFTMarketPlace/contracts/CRNFTMarketplace.sol\":4861:4862  1 */\n      0x01\n        /* \"CrNFTMarketPlace/contracts/CRNFTMarketplace.sol\":4845:4851  tokens */\n      dup4\n        /* \"CrNFTMarketPlace/contracts/CRNFTMarketplace.sol\":4845:4858  tokens.length */\n      dup1\n      sload\n      swap1\n      pop\n        /* \"CrNFTMarketPlace/contracts/CRNFTMarketplace.sol\":4845:4862  tokens.length - 1 */\n      tag_222\n      swap2\n      swap1\n      tag_117\n      jump\t// in\n    tag_222:\n        /* \"CrNFTMarketPlace/contracts/CRNFTMarketplace.sol\":4838:4863  tokens[tokens.length - 1] */\n      dup2\n      sload\n      dup2\n      lt\n      tag_223\n      jumpi\n      tag_224\n      tag_219\n      jump\t// in\n    tag_224:\n    tag_223:\n      swap1\n      0x00\n      mstore\n      keccak256(0x00, 0x20)\n      add\n      sload\n        /* \"CrNFTMarketPlace/contracts/CRNFTMarketplace.sol\":4826:4832  tokens */\n      dup3\n        /* \"CrNFTMarketPlace/contracts/CRNFTMarketplace.sol\":4833:4834  i */\n      dup3\n        /* \"CrNFTMarketPlace/contracts/CRNFTMarketplace.sol\":4826:4835  tokens[i] */\n      dup2\n      sload\n      dup2\n      lt\n      tag_226\n      jumpi\n      tag_227\n      tag_219\n      jump\t// in\n    tag_227:\n    tag_226:\n      swap1\n      0x00\n      mstore\n      keccak256(0x00, 0x20)\n      add\n        /* \"CrNFTMarketPlace/contracts/CRNFTMarketplace.sol\":4826:4863  tokens[i] = tokens[tokens.length - 1] */\n      dup2\n      swap1\n      sstore\n      pop\n        /* \"CrNFTMarketPlace/contracts/CRNFTMarketplace.sol\":4881:4887  tokens */\n      dup2\n        /* \"CrNFTMarketPlace/contracts/CRNFTMarketplace.sol\":4881:4893  tokens.pop() */\n      dup1\n      sload\n      dup1\n      tag_229\n      jumpi\n      tag_230\n      tag_231\n      jump\t// in\n    tag_230:\n    tag_229:\n      0x01\n      swap1\n      sub\n      dup2\n      dup2\n      swap1\n      0x00\n      mstore\n      keccak256(0x00, 0x20)\n      add\n      0x00\n      swap1\n      sstore\n      swap1\n      sstore\n        /* \"CrNFTMarketPlace/contracts/CRNFTMarketplace.sol\":4911:4916  break */\n      jump(tag_215)\n        /* \"CrNFTMarketPlace/contracts/CRNFTMarketplace.sol\":4781:4931  if (tokens[i] == _tokenId) {... */\n    tag_221:\n        /* \"CrNFTMarketPlace/contracts/CRNFTMarketplace.sol\":4762:4765  i++ */\n      dup1\n      dup1\n      0x01\n      add\n      swap2\n      pop\n      pop\n        /* \"CrNFTMarketPlace/contracts/CRNFTMarketplace.sol\":4723:4941  for (uint256 i = 0; i < tokens.length; i++) {... */\n      jump(tag_214)\n    tag_215:\n      pop\n        /* \"CrNFTMarketPlace/contracts/CRNFTMarketplace.sol\":4657:4947  {... */\n      pop\n        /* \"CrNFTMarketPlace/contracts/CRNFTMarketplace.sol\":4549:4947  function _removeTokenFromOwner(address _owner, uint256 _tokenId)... */\n      pop\n      pop\n      jump\t// out\n        /* \"@openzeppelin/contracts/security/ReentrancyGuard.sol\":2629:2838  function _nonReentrantAfter() private {... */\n    tag_148:\n        /* \"@openzeppelin/contracts/security/ReentrancyGuard.sol\":1716:1717  1 */\n      0x01\n        /* \"@openzeppelin/contracts/security/ReentrancyGuard.sol\":2809:2816  _status */\n      0x00\n        /* \"@openzeppelin/contracts/security/ReentrancyGuard.sol\":2809:2831  _status = _NOT_ENTERED */\n      dup2\n      swap1\n      sstore\n      pop\n        /* \"@openzeppelin/contracts/security/ReentrancyGuard.sol\":2629:2838  function _nonReentrantAfter() private {... */\n      jump\t// out\n        /* \"CrNFTMarketPlace/contracts/CRNFTMarketplace.sol\":1550:1670  function _isNotEmptyString(string memory str) internal pure returns (bool) {... */\n    tag_194:\n        /* \"CrNFTMarketPlace/contracts/CRNFTMarketplace.sol\":1619:1623  bool */\n      0x00\n        /* \"CrNFTMarketPlace/contracts/CRNFTMarketplace.sol\":1662:1663  0 */\n      0x00\n        /* \"CrNFTMarketPlace/contracts/CRNFTMarketplace.sol\":1648:1651  str */\n      dup3\n        /* \"CrNFTMarketPlace/contracts/CRNFTMarketplace.sol\":1642:1659  bytes(str).length */\n      mload\n        /* \"CrNFTMarketPlace/contracts/CRNFTMarketplace.sol\":1642:1663  bytes(str).length > 0 */\n      gt\n        /* \"CrNFTMarketPlace/contracts/CRNFTMarketplace.sol\":1635:1663  return bytes(str).length > 0 */\n      swap1\n      pop\n        /* \"CrNFTMarketPlace/contracts/CRNFTMarketplace.sol\":1550:1670  function _isNotEmptyString(string memory str) internal pure returns (bool) {... */\n      swap2\n      swap1\n      pop\n      jump\t// out\n        /* \"CrNFTMarketPlace/contracts/CRNFTMarketplace.sol\":1775:1847  function _incrementTotalSupply() internal {... */\n    tag_205:\n        /* \"CrNFTMarketPlace/contracts/CRNFTMarketplace.sol\":1827:1838  totalSupply */\n      0x04\n      0x00\n        /* \"CrNFTMarketPlace/contracts/CRNFTMarketplace.sol\":1827:1840  totalSupply++ */\n      dup2\n      sload\n      dup1\n      swap3\n      swap2\n      swap1\n      tag_236\n      swap1\n      tag_237\n      jump\t// in\n    tag_236:\n      swap2\n      swap1\n      pop\n      sstore\n      pop\n        /* \"CrNFTMarketPlace/contracts/CRNFTMarketplace.sol\":1775:1847  function _incrementTotalSupply() internal {... */\n      jump\t// out\n        /* \"#utility.yul\":7:82   */\n    tag_238:\n        /* \"#utility.yul\":40:46   */\n      0x00\n        /* \"#utility.yul\":73:75   */\n      0x40\n        /* \"#utility.yul\":67:76   */\n      mload\n        /* \"#utility.yul\":57:76   */\n      swap1\n      pop\n        /* \"#utility.yul\":7:82   */\n      swap1\n      jump\t// out\n        /* \"#utility.yul\":88:205   */\n    tag_239:\n        /* \"#utility.yul\":197:198   */\n      0x00\n        /* \"#utility.yul\":194:195   */\n      0x00\n        /* \"#utility.yul\":187:199   */\n      revert\n        /* \"#utility.yul\":211:328   */\n    tag_240:\n        /* \"#utility.yul\":320:321   */\n      0x00\n        /* \"#utility.yul\":317:318   */\n      0x00\n        /* \"#utility.yul\":310:322   */\n      revert\n        /* \"#utility.yul\":334:411   */\n    tag_241:\n        /* \"#utility.yul\":371:378   */\n      0x00\n        /* \"#utility.yul\":400:405   */\n      dup2\n        /* \"#utility.yul\":389:405   */\n      swap1\n      pop\n        /* \"#utility.yul\":334:411   */\n      swap2\n      swap1\n      pop\n      jump\t// out\n        /* \"#utility.yul\":417:539   */\n    tag_242:\n        /* \"#utility.yul\":490:514   */\n      tag_332\n        /* \"#utility.yul\":508:513   */\n      dup2\n        /* \"#utility.yul\":490:514   */\n      tag_241\n      jump\t// in\n    tag_332:\n        /* \"#utility.yul\":483:488   */\n      dup2\n        /* \"#utility.yul\":480:515   */\n      eq\n        /* \"#utility.yul\":470:533   */\n      tag_333\n      jumpi\n        /* \"#utility.yul\":529:530   */\n      0x00\n        /* \"#utility.yul\":526:527   */\n      0x00\n        /* \"#utility.yul\":519:531   */\n      revert\n        /* \"#utility.yul\":470:533   */\n    tag_333:\n        /* \"#utility.yul\":417:539   */\n      pop\n      jump\t// out\n        /* \"#utility.yul\":545:684   */\n    tag_243:\n        /* \"#utility.yul\":591:596   */\n      0x00\n        /* \"#utility.yul\":629:635   */\n      dup2\n        /* \"#utility.yul\":616:636   */\n      calldataload\n        /* \"#utility.yul\":607:636   */\n      swap1\n      pop\n        /* \"#utility.yul\":645:678   */\n      tag_335\n        /* \"#utility.yul\":672:677   */\n      dup2\n        /* \"#utility.yul\":645:678   */\n      tag_242\n      jump\t// in\n    tag_335:\n        /* \"#utility.yul\":545:684   */\n      swap3\n      swap2\n      pop\n      pop\n      jump\t// out\n        /* \"#utility.yul\":690:1019   */\n    tag_21:\n        /* \"#utility.yul\":749:755   */\n      0x00\n        /* \"#utility.yul\":798:800   */\n      0x20\n        /* \"#utility.yul\":786:795   */\n      dup3\n        /* \"#utility.yul\":777:784   */\n      dup5\n        /* \"#utility.yul\":773:796   */\n      sub\n        /* \"#utility.yul\":769:801   */\n      slt\n        /* \"#utility.yul\":766:885   */\n      iszero\n      tag_337\n      jumpi\n        /* \"#utility.yul\":804:883   */\n      tag_338\n      tag_239\n      jump\t// in\n    tag_338:\n        /* \"#utility.yul\":766:885   */\n    tag_337:\n        /* \"#utility.yul\":924:925   */\n      0x00\n        /* \"#utility.yul\":949:1002   */\n      tag_339\n        /* \"#utility.yul\":994:1001   */\n      dup5\n        /* \"#utility.yul\":985:991   */\n      dup3\n        /* \"#utility.yul\":974:983   */\n      dup6\n        /* \"#utility.yul\":970:992   */\n      add\n        /* \"#utility.yul\":949:1002   */\n      tag_243\n      jump\t// in\n    tag_339:\n        /* \"#utility.yul\":939:1002   */\n      swap2\n      pop\n        /* \"#utility.yul\":895:1012   */\n      pop\n        /* \"#utility.yul\":690:1019   */\n      swap3\n      swap2\n      pop\n      pop\n      jump\t// out\n        /* \"#utility.yul\":1025:1143   */\n    tag_244:\n        /* \"#utility.yul\":1112:1136   */\n      tag_341\n        /* \"#utility.yul\":1130:1135   */\n      dup2\n        /* \"#utility.yul\":1112:1136   */\n      tag_241\n      jump\t// in\n    tag_341:\n        /* \"#utility.yul\":1107:1110   */\n      dup3\n        /* \"#utility.yul\":1100:1137   */\n      mstore\n        /* \"#utility.yul\":1025:1143   */\n      pop\n      pop\n      jump\t// out\n        /* \"#utility.yul\":1149:1371   */\n    tag_27:\n        /* \"#utility.yul\":1242:1246   */\n      0x00\n        /* \"#utility.yul\":1280:1282   */\n      0x20\n        /* \"#utility.yul\":1269:1278   */\n      dup3\n        /* \"#utility.yul\":1265:1283   */\n      add\n        /* \"#utility.yul\":1257:1283   */\n      swap1\n      pop\n        /* \"#utility.yul\":1293:1364   */\n      tag_343\n        /* \"#utility.yul\":1361:1362   */\n      0x00\n        /* \"#utility.yul\":1350:1359   */\n      dup4\n        /* \"#utility.yul\":1346:1363   */\n      add\n        /* \"#utility.yul\":1337:1343   */\n      dup5\n        /* \"#utility.yul\":1293:1364   */\n      tag_244\n      jump\t// in\n    tag_343:\n        /* \"#utility.yul\":1149:1371   */\n      swap3\n      swap2\n      pop\n      pop\n      jump\t// out\n        /* \"#utility.yul\":1377:1503   */\n    tag_245:\n        /* \"#utility.yul\":1414:1421   */\n      0x00\n        /* \"#utility.yul\":1454:1496   */\n      0xffffffffffffffffffffffffffffffffffffffff\n        /* \"#utility.yul\":1447:1452   */\n      dup3\n        /* \"#utility.yul\":1443:1497   */\n      and\n        /* \"#utility.yul\":1432:1497   */\n      swap1\n      pop\n        /* \"#utility.yul\":1377:1503   */\n      swap2\n      swap1\n      pop\n      jump\t// out\n        /* \"#utility.yul\":1509:1605   */\n    tag_246:\n        /* \"#utility.yul\":1546:1553   */\n      0x00\n        /* \"#utility.yul\":1575:1599   */\n      tag_346\n        /* \"#utility.yul\":1593:1598   */\n      dup3\n        /* \"#utility.yul\":1575:1599   */\n      tag_245\n      jump\t// in\n    tag_346:\n        /* \"#utility.yul\":1564:1599   */\n      swap1\n      pop\n        /* \"#utility.yul\":1509:1605   */\n      swap2\n      swap1\n      pop\n      jump\t// out\n        /* \"#utility.yul\":1611:1729   */\n    tag_247:\n        /* \"#utility.yul\":1698:1722   */\n      tag_348\n        /* \"#utility.yul\":1716:1721   */\n      dup2\n        /* \"#utility.yul\":1698:1722   */\n      tag_246\n      jump\t// in\n    tag_348:\n        /* \"#utility.yul\":1693:1696   */\n      dup3\n        /* \"#utility.yul\":1686:1723   */\n      mstore\n        /* \"#utility.yul\":1611:1729   */\n      pop\n      pop\n      jump\t// out\n        /* \"#utility.yul\":1735:1834   */\n    tag_248:\n        /* \"#utility.yul\":1787:1793   */\n      0x00\n        /* \"#utility.yul\":1821:1826   */\n      dup2\n        /* \"#utility.yul\":1815:1827   */\n      mload\n        /* \"#utility.yul\":1805:1827   */\n      swap1\n      pop\n        /* \"#utility.yul\":1735:1834   */\n      swap2\n      swap1\n      pop\n      jump\t// out\n        /* \"#utility.yul\":1840:2009   */\n    tag_249:\n        /* \"#utility.yul\":1924:1935   */\n      0x00\n        /* \"#utility.yul\":1958:1964   */\n      dup3\n        /* \"#utility.yul\":1953:1956   */\n      dup3\n        /* \"#utility.yul\":1946:1965   */\n      mstore\n        /* \"#utility.yul\":1998:2002   */\n      0x20\n        /* \"#utility.yul\":1993:1996   */\n      dup3\n        /* \"#utility.yul\":1989:2003   */\n      add\n        /* \"#utility.yul\":1974:2003   */\n      swap1\n      pop\n        /* \"#utility.yul\":1840:2009   */\n      swap3\n      swap2\n      pop\n      pop\n      jump\t// out\n        /* \"#utility.yul\":2015:2154   */\n    tag_250:\n        /* \"#utility.yul\":2104:2110   */\n      dup3\n        /* \"#utility.yul\":2099:2102   */\n      dup2\n        /* \"#utility.yul\":2094:2097   */\n      dup4\n        /* \"#utility.yul\":2088:2111   */\n      mcopy\n        /* \"#utility.yul\":2145:2146   */\n      0x00\n        /* \"#utility.yul\":2136:2142   */\n      dup4\n        /* \"#utility.yul\":2131:2134   */\n      dup4\n        /* \"#utility.yul\":2127:2143   */\n      add\n        /* \"#utility.yul\":2120:2147   */\n      mstore\n        /* \"#utility.yul\":2015:2154   */\n      pop\n      pop\n      pop\n      jump\t// out\n        /* \"#utility.yul\":2160:2262   */\n    tag_251:\n        /* \"#utility.yul\":2201:2207   */\n      0x00\n        /* \"#utility.yul\":2252:2254   */\n      0x1f\n        /* \"#utility.yul\":2248:2255   */\n      not\n        /* \"#utility.yul\":2243:2245   */\n      0x1f\n        /* \"#utility.yul\":2236:2241   */\n      dup4\n        /* \"#utility.yul\":2232:2246   */\n      add\n        /* \"#utility.yul\":2228:2256   */\n      and\n        /* \"#utility.yul\":2218:2256   */\n      swap1\n      pop\n        /* \"#utility.yul\":2160:2262   */\n      swap2\n      swap1\n      pop\n      jump\t// out\n        /* \"#utility.yul\":2268:2645   */\n    tag_252:\n        /* \"#utility.yul\":2356:2359   */\n      0x00\n        /* \"#utility.yul\":2384:2423   */\n      tag_354\n        /* \"#utility.yul\":2417:2422   */\n      dup3\n        /* \"#utility.yul\":2384:2423   */\n      tag_248\n      jump\t// in\n    tag_354:\n        /* \"#utility.yul\":2439:2510   */\n      tag_355\n        /* \"#utility.yul\":2503:2509   */\n      dup2\n        /* \"#utility.yul\":2498:2501   */\n      dup6\n        /* \"#utility.yul\":2439:2510   */\n      tag_249\n      jump\t// in\n    tag_355:\n        /* \"#utility.yul\":2432:2510   */\n      swap4\n      pop\n        /* \"#utility.yul\":2519:2584   */\n      tag_356\n        /* \"#utility.yul\":2577:2583   */\n      dup2\n        /* \"#utility.yul\":2572:2575   */\n      dup6\n        /* \"#utility.yul\":2565:2569   */\n      0x20\n        /* \"#utility.yul\":2558:2563   */\n      dup7\n        /* \"#utility.yul\":2554:2570   */\n      add\n        /* \"#utility.yul\":2519:2584   */\n      tag_250\n      jump\t// in\n    tag_356:\n        /* \"#utility.yul\":2609:2638   */\n      tag_357\n        /* \"#utility.yul\":2631:2637   */\n      dup2\n        /* \"#utility.yul\":2609:2638   */\n      tag_251\n      jump\t// in\n    tag_357:\n        /* \"#utility.yul\":2604:2607   */\n      dup5\n        /* \"#utility.yul\":2600:2639   */\n      add\n        /* \"#utility.yul\":2593:2639   */\n      swap2\n      pop\n        /* \"#utility.yul\":2360:2645   */\n      pop\n        /* \"#utility.yul\":2268:2645   */\n      swap3\n      swap2\n      pop\n      pop\n      jump\t// out\n        /* \"#utility.yul\":2651:3184   */\n    tag_33:\n        /* \"#utility.yul\":2820:2824   */\n      0x00\n        /* \"#utility.yul\":2858:2860   */\n      0x60\n        /* \"#utility.yul\":2847:2856   */\n      dup3\n        /* \"#utility.yul\":2843:2861   */\n      add\n        /* \"#utility.yul\":2835:2861   */\n      swap1\n      pop\n        /* \"#utility.yul\":2871:2942   */\n      tag_359\n        /* \"#utility.yul\":2939:2940   */\n      0x00\n        /* \"#utility.yul\":2928:2937   */\n      dup4\n        /* \"#utility.yul\":2924:2941   */\n      add\n        /* \"#utility.yul\":2915:2921   */\n      dup7\n        /* \"#utility.yul\":2871:2942   */\n      tag_244\n      jump\t// in\n    tag_359:\n        /* \"#utility.yul\":2952:3024   */\n      tag_360\n        /* \"#utility.yul\":3020:3022   */\n      0x20\n        /* \"#utility.yul\":3009:3018   */\n      dup4\n        /* \"#utility.yul\":3005:3023   */\n      add\n        /* \"#utility.yul\":2996:3002   */\n      dup6\n        /* \"#utility.yul\":2952:3024   */\n      tag_247\n      jump\t// in\n    tag_360:\n        /* \"#utility.yul\":3071:3080   */\n      dup2\n        /* \"#utility.yul\":3065:3069   */\n      dup2\n        /* \"#utility.yul\":3061:3081   */\n      sub\n        /* \"#utility.yul\":3056:3058   */\n      0x40\n        /* \"#utility.yul\":3045:3054   */\n      dup4\n        /* \"#utility.yul\":3041:3059   */\n      add\n        /* \"#utility.yul\":3034:3082   */\n      mstore\n        /* \"#utility.yul\":3099:3177   */\n      tag_361\n        /* \"#utility.yul\":3172:3176   */\n      dup2\n        /* \"#utility.yul\":3163:3169   */\n      dup5\n        /* \"#utility.yul\":3099:3177   */\n      tag_252\n      jump\t// in\n    tag_361:\n        /* \"#utility.yul\":3091:3177   */\n      swap1\n      pop\n        /* \"#utility.yul\":2651:3184   */\n      swap5\n      swap4\n      pop\n      pop\n      pop\n      pop\n      jump\t// out\n        /* \"#utility.yul\":3190:3312   */\n    tag_253:\n        /* \"#utility.yul\":3263:3287   */\n      tag_363\n        /* \"#utility.yul\":3281:3286   */\n      dup2\n        /* \"#utility.yul\":3263:3287   */\n      tag_246\n      jump\t// in\n    tag_363:\n        /* \"#utility.yul\":3256:3261   */\n      dup2\n        /* \"#utility.yul\":3253:3288   */\n      eq\n        /* \"#utility.yul\":3243:3306   */\n      tag_364\n      jumpi\n        /* \"#utility.yul\":3302:3303   */\n      0x00\n        /* \"#utility.yul\":3299:3300   */\n      0x00\n        /* \"#utility.yul\":3292:3304   */\n      revert\n        /* \"#utility.yul\":3243:3306   */\n    tag_364:\n        /* \"#utility.yul\":3190:3312   */\n      pop\n      jump\t// out\n        /* \"#utility.yul\":3318:3457   */\n    tag_254:\n        /* \"#utility.yul\":3364:3369   */\n      0x00\n        /* \"#utility.yul\":3402:3408   */\n      dup2\n        /* \"#utility.yul\":3389:3409   */\n      calldataload\n        /* \"#utility.yul\":3380:3409   */\n      swap1\n      pop\n        /* \"#utility.yul\":3418:3451   */\n      tag_366\n        /* \"#utility.yul\":3445:3450   */\n      dup2\n        /* \"#utility.yul\":3418:3451   */\n      tag_253\n      jump\t// in\n    tag_366:\n        /* \"#utility.yul\":3318:3457   */\n      swap3\n      swap2\n      pop\n      pop\n      jump\t// out\n        /* \"#utility.yul\":3463:3937   */\n    tag_37:\n        /* \"#utility.yul\":3531:3537   */\n      0x00\n        /* \"#utility.yul\":3539:3545   */\n      0x00\n        /* \"#utility.yul\":3588:3590   */\n      0x40\n        /* \"#utility.yul\":3576:3585   */\n      dup4\n        /* \"#utility.yul\":3567:3574   */\n      dup6\n        /* \"#utility.yul\":3563:3586   */\n      sub\n        /* \"#utility.yul\":3559:3591   */\n      slt\n        /* \"#utility.yul\":3556:3675   */\n      iszero\n      tag_368\n      jumpi\n        /* \"#utility.yul\":3594:3673   */\n      tag_369\n      tag_239\n      jump\t// in\n    tag_369:\n        /* \"#utility.yul\":3556:3675   */\n    tag_368:\n        /* \"#utility.yul\":3714:3715   */\n      0x00\n        /* \"#utility.yul\":3739:3792   */\n      tag_370\n        /* \"#utility.yul\":3784:3791   */\n      dup6\n        /* \"#utility.yul\":3775:3781   */\n      dup3\n        /* \"#utility.yul\":3764:3773   */\n      dup7\n        /* \"#utility.yul\":3760:3782   */\n      add\n        /* \"#utility.yul\":3739:3792   */\n      tag_254\n      jump\t// in\n    tag_370:\n        /* \"#utility.yul\":3729:3792   */\n      swap3\n      pop\n        /* \"#utility.yul\":3685:3802   */\n      pop\n        /* \"#utility.yul\":3841:3843   */\n      0x20\n        /* \"#utility.yul\":3867:3920   */\n      tag_371\n        /* \"#utility.yul\":3912:3919   */\n      dup6\n        /* \"#utility.yul\":3903:3909   */\n      dup3\n        /* \"#utility.yul\":3892:3901   */\n      dup7\n        /* \"#utility.yul\":3888:3910   */\n      add\n        /* \"#utility.yul\":3867:3920   */\n      tag_243\n      jump\t// in\n    tag_371:\n        /* \"#utility.yul\":3857:3920   */\n      swap2\n      pop\n        /* \"#utility.yul\":3812:3930   */\n      pop\n        /* \"#utility.yul\":3463:3937   */\n      swap3\n      pop\n      swap3\n      swap1\n      pop\n      jump\t// out\n        /* \"#utility.yul\":3943:4256   */\n    tag_45:\n        /* \"#utility.yul\":4056:4060   */\n      0x00\n        /* \"#utility.yul\":4094:4096   */\n      0x20\n        /* \"#utility.yul\":4083:4092   */\n      dup3\n        /* \"#utility.yul\":4079:4097   */\n      add\n        /* \"#utility.yul\":4071:4097   */\n      swap1\n      pop\n        /* \"#utility.yul\":4143:4152   */\n      dup2\n        /* \"#utility.yul\":4137:4141   */\n      dup2\n        /* \"#utility.yul\":4133:4153   */\n      sub\n        /* \"#utility.yul\":4129:4130   */\n      0x00\n        /* \"#utility.yul\":4118:4127   */\n      dup4\n        /* \"#utility.yul\":4114:4131   */\n      add\n        /* \"#utility.yul\":4107:4154   */\n      mstore\n        /* \"#utility.yul\":4171:4249   */\n      tag_373\n        /* \"#utility.yul\":4244:4248   */\n      dup2\n        /* \"#utility.yul\":4235:4241   */\n      dup5\n        /* \"#utility.yul\":4171:4249   */\n      tag_252\n      jump\t// in\n    tag_373:\n        /* \"#utility.yul\":4163:4249   */\n      swap1\n      pop\n        /* \"#utility.yul\":3943:4256   */\n      swap3\n      swap2\n      pop\n      pop\n      jump\t// out\n        /* \"#utility.yul\":4262:4352   */\n    tag_255:\n        /* \"#utility.yul\":4296:4303   */\n      0x00\n        /* \"#utility.yul\":4339:4344   */\n      dup2\n        /* \"#utility.yul\":4332:4345   */\n      iszero\n        /* \"#utility.yul\":4325:4346   */\n      iszero\n        /* \"#utility.yul\":4314:4346   */\n      swap1\n      pop\n        /* \"#utility.yul\":4262:4352   */\n      swap2\n      swap1\n      pop\n      jump\t// out\n        /* \"#utility.yul\":4358:4467   */\n    tag_256:\n        /* \"#utility.yul\":4439:4460   */\n      tag_376\n        /* \"#utility.yul\":4454:4459   */\n      dup2\n        /* \"#utility.yul\":4439:4460   */\n      tag_255\n      jump\t// in\n    tag_376:\n        /* \"#utility.yul\":4434:4437   */\n      dup3\n        /* \"#utility.yul\":4427:4461   */\n      mstore\n        /* \"#utility.yul\":4358:4467   */\n      pop\n      pop\n      jump\t// out\n        /* \"#utility.yul\":4473:4683   */\n    tag_53:\n        /* \"#utility.yul\":4560:4564   */\n      0x00\n        /* \"#utility.yul\":4598:4600   */\n      0x20\n        /* \"#utility.yul\":4587:4596   */\n      dup3\n        /* \"#utility.yul\":4583:4601   */\n      add\n        /* \"#utility.yul\":4575:4601   */\n      swap1\n      pop\n        /* \"#utility.yul\":4611:4676   */\n      tag_378\n        /* \"#utility.yul\":4673:4674   */\n      0x00\n        /* \"#utility.yul\":4662:4671   */\n      dup4\n        /* \"#utility.yul\":4658:4675   */\n      add\n        /* \"#utility.yul\":4649:4655   */\n      dup5\n        /* \"#utility.yul\":4611:4676   */\n      tag_256\n      jump\t// in\n    tag_378:\n        /* \"#utility.yul\":4473:4683   */\n      swap3\n      swap2\n      pop\n      pop\n      jump\t// out\n        /* \"#utility.yul\":4689:4911   */\n    tag_61:\n        /* \"#utility.yul\":4782:4786   */\n      0x00\n        /* \"#utility.yul\":4820:4822   */\n      0x20\n        /* \"#utility.yul\":4809:4818   */\n      dup3\n        /* \"#utility.yul\":4805:4823   */\n      add\n        /* \"#utility.yul\":4797:4823   */\n      swap1\n      pop\n        /* \"#utility.yul\":4833:4904   */\n      tag_380\n        /* \"#utility.yul\":4901:4902   */\n      0x00\n        /* \"#utility.yul\":4890:4899   */\n      dup4\n        /* \"#utility.yul\":4886:4903   */\n      add\n        /* \"#utility.yul\":4877:4883   */\n      dup5\n        /* \"#utility.yul\":4833:4904   */\n      tag_247\n      jump\t// in\n    tag_380:\n        /* \"#utility.yul\":4689:4911   */\n      swap3\n      swap2\n      pop\n      pop\n      jump\t// out\n        /* \"#utility.yul\":4917:5391   */\n    tag_65:\n        /* \"#utility.yul\":4985:4991   */\n      0x00\n        /* \"#utility.yul\":4993:4999   */\n      0x00\n        /* \"#utility.yul\":5042:5044   */\n      0x40\n        /* \"#utility.yul\":5030:5039   */\n      dup4\n        /* \"#utility.yul\":5021:5028   */\n      dup6\n        /* \"#utility.yul\":5017:5040   */\n      sub\n        /* \"#utility.yul\":5013:5045   */\n      slt\n        /* \"#utility.yul\":5010:5129   */\n      iszero\n      tag_382\n      jumpi\n        /* \"#utility.yul\":5048:5127   */\n      tag_383\n      tag_239\n      jump\t// in\n    tag_383:\n        /* \"#utility.yul\":5010:5129   */\n    tag_382:\n        /* \"#utility.yul\":5168:5169   */\n      0x00\n        /* \"#utility.yul\":5193:5246   */\n      tag_384\n        /* \"#utility.yul\":5238:5245   */\n      dup6\n        /* \"#utility.yul\":5229:5235   */\n      dup3\n        /* \"#utility.yul\":5218:5227   */\n      dup7\n        /* \"#utility.yul\":5214:5236   */\n      add\n        /* \"#utility.yul\":5193:5246   */\n      tag_243\n      jump\t// in\n    tag_384:\n        /* \"#utility.yul\":5183:5246   */\n      swap3\n      pop\n        /* \"#utility.yul\":5139:5256   */\n      pop\n        /* \"#utility.yul\":5295:5297   */\n      0x20\n        /* \"#utility.yul\":5321:5374   */\n      tag_385\n        /* \"#utility.yul\":5366:5373   */\n      dup6\n        /* \"#utility.yul\":5357:5363   */\n      dup3\n        /* \"#utility.yul\":5346:5355   */\n      dup7\n        /* \"#utility.yul\":5342:5364   */\n      add\n        /* \"#utility.yul\":5321:5374   */\n      tag_243\n      jump\t// in\n    tag_385:\n        /* \"#utility.yul\":5311:5374   */\n      swap2\n      pop\n        /* \"#utility.yul\":5266:5384   */\n      pop\n        /* \"#utility.yul\":4917:5391   */\n      swap3\n      pop\n      swap3\n      swap1\n      pop\n      jump\t// out\n        /* \"#utility.yul\":5397:5726   */\n    tag_70:\n        /* \"#utility.yul\":5456:5462   */\n      0x00\n        /* \"#utility.yul\":5505:5507   */\n      0x20\n        /* \"#utility.yul\":5493:5502   */\n      dup3\n        /* \"#utility.yul\":5484:5491   */\n      dup5\n        /* \"#utility.yul\":5480:5503   */\n      sub\n        /* \"#utility.yul\":5476:5508   */\n      slt\n        /* \"#utility.yul\":5473:5592   */\n      iszero\n      tag_387\n      jumpi\n        /* \"#utility.yul\":5511:5590   */\n      tag_388\n      tag_239\n      jump\t// in\n    tag_388:\n        /* \"#utility.yul\":5473:5592   */\n    tag_387:\n        /* \"#utility.yul\":5631:5632   */\n      0x00\n        /* \"#utility.yul\":5656:5709   */\n      tag_389\n        /* \"#utility.yul\":5701:5708   */\n      dup5\n        /* \"#utility.yul\":5692:5698   */\n      dup3\n        /* \"#utility.yul\":5681:5690   */\n      dup6\n        /* \"#utility.yul\":5677:5699   */\n      add\n        /* \"#utility.yul\":5656:5709   */\n      tag_254\n      jump\t// in\n    tag_389:\n        /* \"#utility.yul\":5646:5709   */\n      swap2\n      pop\n        /* \"#utility.yul\":5602:5719   */\n      pop\n        /* \"#utility.yul\":5397:5726   */\n      swap3\n      swap2\n      pop\n      pop\n      jump\t// out\n        /* \"#utility.yul\":5732:5846   */\n    tag_257:\n        /* \"#utility.yul\":5799:5805   */\n      0x00\n        /* \"#utility.yul\":5833:5838   */\n      dup2\n        /* \"#utility.yul\":5827:5839   */\n      mload\n        /* \"#utility.yul\":5817:5839   */\n      swap1\n      pop\n        /* \"#utility.yul\":5732:5846   */\n      swap2\n      swap1\n      pop\n      jump\t// out\n        /* \"#utility.yul\":5852:6036   */\n    tag_258:\n        /* \"#utility.yul\":5951:5962   */\n      0x00\n        /* \"#utility.yul\":5985:5991   */\n      dup3\n        /* \"#utility.yul\":5980:5983   */\n      dup3\n        /* \"#utility.yul\":5973:5992   */\n      mstore\n        /* \"#utility.yul\":6025:6029   */\n      0x20\n        /* \"#utility.yul\":6020:6023   */\n      dup3\n        /* \"#utility.yul\":6016:6030   */\n      add\n        /* \"#utility.yul\":6001:6030   */\n      swap1\n      pop\n        /* \"#utility.yul\":5852:6036   */\n      swap3\n      swap2\n      pop\n      pop\n      jump\t// out\n        /* \"#utility.yul\":6042:6174   */\n    tag_259:\n        /* \"#utility.yul\":6109:6113   */\n      0x00\n        /* \"#utility.yul\":6132:6135   */\n      dup2\n        /* \"#utility.yul\":6124:6135   */\n      swap1\n      pop\n        /* \"#utility.yul\":6162:6166   */\n      0x20\n        /* \"#utility.yul\":6157:6160   */\n      dup3\n        /* \"#utility.yul\":6153:6167   */\n      add\n        /* \"#utility.yul\":6145:6167   */\n      swap1\n      pop\n        /* \"#utility.yul\":6042:6174   */\n      swap2\n      swap1\n      pop\n      jump\t// out\n        /* \"#utility.yul\":6180:6288   */\n    tag_260:\n        /* \"#utility.yul\":6257:6281   */\n      tag_394\n        /* \"#utility.yul\":6275:6280   */\n      dup2\n        /* \"#utility.yul\":6257:6281   */\n      tag_241\n      jump\t// in\n    tag_394:\n        /* \"#utility.yul\":6252:6255   */\n      dup3\n        /* \"#utility.yul\":6245:6282   */\n      mstore\n        /* \"#utility.yul\":6180:6288   */\n      pop\n      pop\n      jump\t// out\n        /* \"#utility.yul\":6294:6473   */\n    tag_261:\n        /* \"#utility.yul\":6363:6373   */\n      0x00\n        /* \"#utility.yul\":6384:6430   */\n      tag_396\n        /* \"#utility.yul\":6426:6429   */\n      dup4\n        /* \"#utility.yul\":6418:6424   */\n      dup4\n        /* \"#utility.yul\":6384:6430   */\n      tag_260\n      jump\t// in\n    tag_396:\n        /* \"#utility.yul\":6462:6466   */\n      0x20\n        /* \"#utility.yul\":6457:6460   */\n      dup4\n        /* \"#utility.yul\":6453:6467   */\n      add\n        /* \"#utility.yul\":6439:6467   */\n      swap1\n      pop\n        /* \"#utility.yul\":6294:6473   */\n      swap3\n      swap2\n      pop\n      pop\n      jump\t// out\n        /* \"#utility.yul\":6479:6592   */\n    tag_262:\n        /* \"#utility.yul\":6549:6553   */\n      0x00\n        /* \"#utility.yul\":6581:6585   */\n      0x20\n        /* \"#utility.yul\":6576:6579   */\n      dup3\n        /* \"#utility.yul\":6572:6586   */\n      add\n        /* \"#utility.yul\":6564:6586   */\n      swap1\n      pop\n        /* \"#utility.yul\":6479:6592   */\n      swap2\n      swap1\n      pop\n      jump\t// out\n        /* \"#utility.yul\":6628:7360   */\n    tag_263:\n        /* \"#utility.yul\":6747:6750   */\n      0x00\n        /* \"#utility.yul\":6776:6830   */\n      tag_399\n        /* \"#utility.yul\":6824:6829   */\n      dup3\n        /* \"#utility.yul\":6776:6830   */\n      tag_257\n      jump\t// in\n    tag_399:\n        /* \"#utility.yul\":6846:6932   */\n      tag_400\n        /* \"#utility.yul\":6925:6931   */\n      dup2\n        /* \"#utility.yul\":6920:6923   */\n      dup6\n        /* \"#utility.yul\":6846:6932   */\n      tag_258\n      jump\t// in\n    tag_400:\n        /* \"#utility.yul\":6839:6932   */\n      swap4\n      pop\n        /* \"#utility.yul\":6956:7012   */\n      tag_401\n        /* \"#utility.yul\":7006:7011   */\n      dup4\n        /* \"#utility.yul\":6956:7012   */\n      tag_259\n      jump\t// in\n    tag_401:\n        /* \"#utility.yul\":7035:7042   */\n      dup1\n        /* \"#utility.yul\":7066:7067   */\n      0x00\n        /* \"#utility.yul\":7051:7335   */\n    tag_402:\n        /* \"#utility.yul\":7076:7082   */\n      dup4\n        /* \"#utility.yul\":7073:7074   */\n      dup2\n        /* \"#utility.yul\":7070:7083   */\n      lt\n        /* \"#utility.yul\":7051:7335   */\n      iszero\n      tag_404\n      jumpi\n        /* \"#utility.yul\":7152:7158   */\n      dup2\n        /* \"#utility.yul\":7146:7159   */\n      mload\n        /* \"#utility.yul\":7179:7242   */\n      tag_405\n        /* \"#utility.yul\":7238:7241   */\n      dup9\n        /* \"#utility.yul\":7223:7236   */\n      dup3\n        /* \"#utility.yul\":7179:7242   */\n      tag_261\n      jump\t// in\n    tag_405:\n        /* \"#utility.yul\":7172:7242   */\n      swap8\n      pop\n        /* \"#utility.yul\":7265:7325   */\n      tag_406\n        /* \"#utility.yul\":7318:7324   */\n      dup4\n        /* \"#utility.yul\":7265:7325   */\n      tag_262\n      jump\t// in\n    tag_406:\n        /* \"#utility.yul\":7255:7325   */\n      swap3\n      pop\n        /* \"#utility.yul\":7111:7335   */\n      pop\n        /* \"#utility.yul\":7098:7099   */\n      0x01\n        /* \"#utility.yul\":7095:7096   */\n      dup2\n        /* \"#utility.yul\":7091:7100   */\n      add\n        /* \"#utility.yul\":7086:7100   */\n      swap1\n      pop\n        /* \"#utility.yul\":7051:7335   */\n      jump(tag_402)\n    tag_404:\n        /* \"#utility.yul\":7055:7069   */\n      pop\n        /* \"#utility.yul\":7351:7354   */\n      dup6\n        /* \"#utility.yul\":7344:7354   */\n      swap4\n      pop\n        /* \"#utility.yul\":6752:7360   */\n      pop\n      pop\n      pop\n        /* \"#utility.yul\":6628:7360   */\n      swap3\n      swap2\n      pop\n      pop\n      jump\t// out\n        /* \"#utility.yul\":7366:7739   */\n    tag_73:\n        /* \"#utility.yul\":7509:7513   */\n      0x00\n        /* \"#utility.yul\":7547:7549   */\n      0x20\n        /* \"#utility.yul\":7536:7545   */\n      dup3\n        /* \"#utility.yul\":7532:7550   */\n      add\n        /* \"#utility.yul\":7524:7550   */\n      swap1\n      pop\n        /* \"#utility.yul\":7596:7605   */\n      dup2\n        /* \"#utility.yul\":7590:7594   */\n      dup2\n        /* \"#utility.yul\":7586:7606   */\n      sub\n        /* \"#utility.yul\":7582:7583   */\n      0x00\n        /* \"#utility.yul\":7571:7580   */\n      dup4\n        /* \"#utility.yul\":7567:7584   */\n      add\n        /* \"#utility.yul\":7560:7607   */\n      mstore\n        /* \"#utility.yul\":7624:7732   */\n      tag_408\n        /* \"#utility.yul\":7727:7731   */\n      dup2\n        /* \"#utility.yul\":7718:7724   */\n      dup5\n        /* \"#utility.yul\":7624:7732   */\n      tag_263\n      jump\t// in\n    tag_408:\n        /* \"#utility.yul\":7616:7732   */\n      swap1\n      pop\n        /* \"#utility.yul\":7366:7739   */\n      swap3\n      swap2\n      pop\n      pop\n      jump\t// out\n        /* \"#utility.yul\":7745:7862   */\n    tag_264:\n        /* \"#utility.yul\":7854:7855   */\n      0x00\n        /* \"#utility.yul\":7851:7852   */\n      0x00\n        /* \"#utility.yul\":7844:7856   */\n      revert\n        /* \"#utility.yul\":7868:7985   */\n    tag_265:\n        /* \"#utility.yul\":7977:7978   */\n      0x00\n        /* \"#utility.yul\":7974:7975   */\n      0x00\n        /* \"#utility.yul\":7967:7979   */\n      revert\n        /* \"#utility.yul\":7991:8171   */\n    tag_266:\n        /* \"#utility.yul\":8039:8116   */\n      0x4e487b7100000000000000000000000000000000000000000000000000000000\n        /* \"#utility.yul\":8036:8037   */\n      0x00\n        /* \"#utility.yul\":8029:8117   */\n      mstore\n        /* \"#utility.yul\":8136:8140   */\n      0x41\n        /* \"#utility.yul\":8133:8134   */\n      0x04\n        /* \"#utility.yul\":8126:8141   */\n      mstore\n        /* \"#utility.yul\":8160:8164   */\n      0x24\n        /* \"#utility.yul\":8157:8158   */\n      0x00\n        /* \"#utility.yul\":8150:8165   */\n      revert\n        /* \"#utility.yul\":8177:8458   */\n    tag_267:\n        /* \"#utility.yul\":8260:8287   */\n      tag_413\n        /* \"#utility.yul\":8282:8286   */\n      dup3\n        /* \"#utility.yul\":8260:8287   */\n      tag_251\n      jump\t// in\n    tag_413:\n        /* \"#utility.yul\":8252:8258   */\n      dup2\n        /* \"#utility.yul\":8248:8288   */\n      add\n        /* \"#utility.yul\":8390:8396   */\n      dup2\n        /* \"#utility.yul\":8378:8388   */\n      dup2\n        /* \"#utility.yul\":8375:8397   */\n      lt\n        /* \"#utility.yul\":8354:8372   */\n      0xffffffffffffffff\n        /* \"#utility.yul\":8342:8352   */\n      dup3\n        /* \"#utility.yul\":8339:8373   */\n      gt\n        /* \"#utility.yul\":8336:8398   */\n      or\n        /* \"#utility.yul\":8333:8421   */\n      iszero\n      tag_414\n      jumpi\n        /* \"#utility.yul\":8401:8419   */\n      tag_415\n      tag_266\n      jump\t// in\n    tag_415:\n        /* \"#utility.yul\":8333:8421   */\n    tag_414:\n        /* \"#utility.yul\":8441:8451   */\n      dup1\n        /* \"#utility.yul\":8437:8439   */\n      0x40\n        /* \"#utility.yul\":8430:8452   */\n      mstore\n        /* \"#utility.yul\":8220:8458   */\n      pop\n        /* \"#utility.yul\":8177:8458   */\n      pop\n      pop\n      jump\t// out\n        /* \"#utility.yul\":8464:8593   */\n    tag_268:\n        /* \"#utility.yul\":8498:8504   */\n      0x00\n        /* \"#utility.yul\":8525:8545   */\n      tag_417\n      tag_238\n      jump\t// in\n    tag_417:\n        /* \"#utility.yul\":8515:8545   */\n      swap1\n      pop\n        /* \"#utility.yul\":8554:8587   */\n      tag_418\n        /* \"#utility.yul\":8582:8586   */\n      dup3\n        /* \"#utility.yul\":8574:8580   */\n      dup3\n        /* \"#utility.yul\":8554:8587   */\n      tag_267\n      jump\t// in\n    tag_418:\n        /* \"#utility.yul\":8464:8593   */\n      swap2\n      swap1\n      pop\n      jump\t// out\n        /* \"#utility.yul\":8599:8907   */\n    tag_269:\n        /* \"#utility.yul\":8661:8665   */\n      0x00\n        /* \"#utility.yul\":8751:8769   */\n      0xffffffffffffffff\n        /* \"#utility.yul\":8743:8749   */\n      dup3\n        /* \"#utility.yul\":8740:8770   */\n      gt\n        /* \"#utility.yul\":8737:8793   */\n      iszero\n      tag_420\n      jumpi\n        /* \"#utility.yul\":8773:8791   */\n      tag_421\n      tag_266\n      jump\t// in\n    tag_421:\n        /* \"#utility.yul\":8737:8793   */\n    tag_420:\n        /* \"#utility.yul\":8811:8840   */\n      tag_422\n        /* \"#utility.yul\":8833:8839   */\n      dup3\n        /* \"#utility.yul\":8811:8840   */\n      tag_251\n      jump\t// in\n    tag_422:\n        /* \"#utility.yul\":8803:8840   */\n      swap1\n      pop\n        /* \"#utility.yul\":8895:8899   */\n      0x20\n        /* \"#utility.yul\":8889:8893   */\n      dup2\n        /* \"#utility.yul\":8885:8900   */\n      add\n        /* \"#utility.yul\":8877:8900   */\n      swap1\n      pop\n        /* \"#utility.yul\":8599:8907   */\n      swap2\n      swap1\n      pop\n      jump\t// out\n        /* \"#utility.yul\":8913:9061   */\n    tag_270:\n        /* \"#utility.yul\":9011:9017   */\n      dup3\n        /* \"#utility.yul\":9006:9009   */\n      dup2\n        /* \"#utility.yul\":9001:9004   */\n      dup4\n        /* \"#utility.yul\":8988:9018   */\n      calldatacopy\n        /* \"#utility.yul\":9052:9053   */\n      0x00\n        /* \"#utility.yul\":9043:9049   */\n      dup4\n        /* \"#utility.yul\":9038:9041   */\n      dup4\n        /* \"#utility.yul\":9034:9050   */\n      add\n        /* \"#utility.yul\":9027:9054   */\n      mstore\n        /* \"#utility.yul\":8913:9061   */\n      pop\n      pop\n      pop\n      jump\t// out\n        /* \"#utility.yul\":9067:9492   */\n    tag_271:\n        /* \"#utility.yul\":9145:9150   */\n      0x00\n        /* \"#utility.yul\":9170:9236   */\n      tag_425\n        /* \"#utility.yul\":9186:9235   */\n      tag_426\n        /* \"#utility.yul\":9228:9234   */\n      dup5\n        /* \"#utility.yul\":9186:9235   */\n      tag_269\n      jump\t// in\n    tag_426:\n        /* \"#utility.yul\":9170:9236   */\n      tag_268\n      jump\t// in\n    tag_425:\n        /* \"#utility.yul\":9161:9236   */\n      swap1\n      pop\n        /* \"#utility.yul\":9259:9265   */\n      dup3\n        /* \"#utility.yul\":9252:9257   */\n      dup2\n        /* \"#utility.yul\":9245:9266   */\n      mstore\n        /* \"#utility.yul\":9297:9301   */\n      0x20\n        /* \"#utility.yul\":9290:9295   */\n      dup2\n        /* \"#utility.yul\":9286:9302   */\n      add\n        /* \"#utility.yul\":9335:9338   */\n      dup5\n        /* \"#utility.yul\":9326:9332   */\n      dup5\n        /* \"#utility.yul\":9321:9324   */\n      dup5\n        /* \"#utility.yul\":9317:9333   */\n      add\n        /* \"#utility.yul\":9314:9339   */\n      gt\n        /* \"#utility.yul\":9311:9423   */\n      iszero\n      tag_427\n      jumpi\n        /* \"#utility.yul\":9342:9421   */\n      tag_428\n      tag_265\n      jump\t// in\n    tag_428:\n        /* \"#utility.yul\":9311:9423   */\n    tag_427:\n        /* \"#utility.yul\":9432:9486   */\n      tag_429\n        /* \"#utility.yul\":9479:9485   */\n      dup5\n        /* \"#utility.yul\":9474:9477   */\n      dup3\n        /* \"#utility.yul\":9469:9472   */\n      dup6\n        /* \"#utility.yul\":9432:9486   */\n      tag_270\n      jump\t// in\n    tag_429:\n        /* \"#utility.yul\":9151:9492   */\n      pop\n        /* \"#utility.yul\":9067:9492   */\n      swap4\n      swap3\n      pop\n      pop\n      pop\n      jump\t// out\n        /* \"#utility.yul\":9512:9852   */\n    tag_272:\n        /* \"#utility.yul\":9568:9573   */\n      0x00\n        /* \"#utility.yul\":9617:9620   */\n      dup3\n        /* \"#utility.yul\":9610:9614   */\n      0x1f\n        /* \"#utility.yul\":9602:9608   */\n      dup4\n        /* \"#utility.yul\":9598:9615   */\n      add\n        /* \"#utility.yul\":9594:9621   */\n      slt\n        /* \"#utility.yul\":9584:9706   */\n      tag_431\n      jumpi\n        /* \"#utility.yul\":9625:9704   */\n      tag_432\n      tag_264\n      jump\t// in\n    tag_432:\n        /* \"#utility.yul\":9584:9706   */\n    tag_431:\n        /* \"#utility.yul\":9742:9748   */\n      dup2\n        /* \"#utility.yul\":9729:9749   */\n      calldataload\n        /* \"#utility.yul\":9767:9846   */\n      tag_433\n        /* \"#utility.yul\":9842:9845   */\n      dup5\n        /* \"#utility.yul\":9834:9840   */\n      dup3\n        /* \"#utility.yul\":9827:9831   */\n      0x20\n        /* \"#utility.yul\":9819:9825   */\n      dup7\n        /* \"#utility.yul\":9815:9832   */\n      add\n        /* \"#utility.yul\":9767:9846   */\n      tag_271\n      jump\t// in\n    tag_433:\n        /* \"#utility.yul\":9758:9846   */\n      swap2\n      pop\n        /* \"#utility.yul\":9574:9852   */\n      pop\n        /* \"#utility.yul\":9512:9852   */\n      swap3\n      swap2\n      pop\n      pop\n      jump\t// out\n        /* \"#utility.yul\":9858:10367   */\n    tag_77:\n        /* \"#utility.yul\":9927:9933   */\n      0x00\n        /* \"#utility.yul\":9976:9978   */\n      0x20\n        /* \"#utility.yul\":9964:9973   */\n      dup3\n        /* \"#utility.yul\":9955:9962   */\n      dup5\n        /* \"#utility.yul\":9951:9974   */\n      sub\n        /* \"#utility.yul\":9947:9979   */\n      slt\n        /* \"#utility.yul\":9944:10063   */\n      iszero\n      tag_435\n      jumpi\n        /* \"#utility.yul\":9982:10061   */\n      tag_436\n      tag_239\n      jump\t// in\n    tag_436:\n        /* \"#utility.yul\":9944:10063   */\n    tag_435:\n        /* \"#utility.yul\":10130:10131   */\n      0x00\n        /* \"#utility.yul\":10119:10128   */\n      dup3\n        /* \"#utility.yul\":10115:10132   */\n      add\n        /* \"#utility.yul\":10102:10133   */\n      calldataload\n        /* \"#utility.yul\":10160:10178   */\n      0xffffffffffffffff\n        /* \"#utility.yul\":10152:10158   */\n      dup2\n        /* \"#utility.yul\":10149:10179   */\n      gt\n        /* \"#utility.yul\":10146:10263   */\n      iszero\n      tag_437\n      jumpi\n        /* \"#utility.yul\":10182:10261   */\n      tag_438\n      tag_240\n      jump\t// in\n    tag_438:\n        /* \"#utility.yul\":10146:10263   */\n    tag_437:\n        /* \"#utility.yul\":10287:10350   */\n      tag_439\n        /* \"#utility.yul\":10342:10349   */\n      dup5\n        /* \"#utility.yul\":10333:10339   */\n      dup3\n        /* \"#utility.yul\":10322:10331   */\n      dup6\n        /* \"#utility.yul\":10318:10340   */\n      add\n        /* \"#utility.yul\":10287:10350   */\n      tag_272\n      jump\t// in\n    tag_439:\n        /* \"#utility.yul\":10277:10350   */\n      swap2\n      pop\n        /* \"#utility.yul\":10073:10360   */\n      pop\n        /* \"#utility.yul\":9858:10367   */\n      swap3\n      swap2\n      pop\n      pop\n      jump\t// out\n        /* \"#utility.yul\":10373:10803   */\n    tag_88:\n        /* \"#utility.yul\":10516:10520   */\n      0x00\n        /* \"#utility.yul\":10554:10556   */\n      0x60\n        /* \"#utility.yul\":10543:10552   */\n      dup3\n        /* \"#utility.yul\":10539:10557   */\n      add\n        /* \"#utility.yul\":10531:10557   */\n      swap1\n      pop\n        /* \"#utility.yul\":10567:10638   */\n      tag_441\n        /* \"#utility.yul\":10635:10636   */\n      0x00\n        /* \"#utility.yul\":10624:10633   */\n      dup4\n        /* \"#utility.yul\":10620:10637   */\n      add\n        /* \"#utility.yul\":10611:10617   */\n      dup7\n        /* \"#utility.yul\":10567:10638   */\n      tag_244\n      jump\t// in\n    tag_441:\n        /* \"#utility.yul\":10648:10720   */\n      tag_442\n        /* \"#utility.yul\":10716:10718   */\n      0x20\n        /* \"#utility.yul\":10705:10714   */\n      dup4\n        /* \"#utility.yul\":10701:10719   */\n      add\n        /* \"#utility.yul\":10692:10698   */\n      dup6\n        /* \"#utility.yul\":10648:10720   */\n      tag_247\n      jump\t// in\n    tag_442:\n        /* \"#utility.yul\":10730:10796   */\n      tag_443\n        /* \"#utility.yul\":10792:10794   */\n      0x40\n        /* \"#utility.yul\":10781:10790   */\n      dup4\n        /* \"#utility.yul\":10777:10795   */\n      add\n        /* \"#utility.yul\":10768:10774   */\n      dup5\n        /* \"#utility.yul\":10730:10796   */\n      tag_256\n      jump\t// in\n    tag_443:\n        /* \"#utility.yul\":10373:10803   */\n      swap5\n      swap4\n      pop\n      pop\n      pop\n      pop\n      jump\t// out\n        /* \"#utility.yul\":10809:10977   */\n    tag_273:\n        /* \"#utility.yul\":10949:10969   */\n      0x436f6e7472616374206973207061757365640000000000000000000000000000\n        /* \"#utility.yul\":10945:10946   */\n      0x00\n        /* \"#utility.yul\":10937:10943   */\n      dup3\n        /* \"#utility.yul\":10933:10947   */\n      add\n        /* \"#utility.yul\":10926:10970   */\n      mstore\n        /* \"#utility.yul\":10809:10977   */\n      pop\n      jump\t// out\n        /* \"#utility.yul\":10983:11349   */\n    tag_274:\n        /* \"#utility.yul\":11125:11128   */\n      0x00\n        /* \"#utility.yul\":11146:11213   */\n      tag_446\n        /* \"#utility.yul\":11210:11212   */\n      0x12\n        /* \"#utility.yul\":11205:11208   */\n      dup4\n        /* \"#utility.yul\":11146:11213   */\n      tag_249\n      jump\t// in\n    tag_446:\n        /* \"#utility.yul\":11139:11213   */\n      swap2\n      pop\n        /* \"#utility.yul\":11222:11315   */\n      tag_447\n        /* \"#utility.yul\":11311:11314   */\n      dup3\n        /* \"#utility.yul\":11222:11315   */\n      tag_273\n      jump\t// in\n    tag_447:\n        /* \"#utility.yul\":11340:11342   */\n      0x20\n        /* \"#utility.yul\":11335:11338   */\n      dup3\n        /* \"#utility.yul\":11331:11343   */\n      add\n        /* \"#utility.yul\":11324:11343   */\n      swap1\n      pop\n        /* \"#utility.yul\":10983:11349   */\n      swap2\n      swap1\n      pop\n      jump\t// out\n        /* \"#utility.yul\":11355:11774   */\n    tag_92:\n        /* \"#utility.yul\":11521:11525   */\n      0x00\n        /* \"#utility.yul\":11559:11561   */\n      0x20\n        /* \"#utility.yul\":11548:11557   */\n      dup3\n        /* \"#utility.yul\":11544:11562   */\n      add\n        /* \"#utility.yul\":11536:11562   */\n      swap1\n      pop\n        /* \"#utility.yul\":11608:11617   */\n      dup2\n        /* \"#utility.yul\":11602:11606   */\n      dup2\n        /* \"#utility.yul\":11598:11618   */\n      sub\n        /* \"#utility.yul\":11594:11595   */\n      0x00\n        /* \"#utility.yul\":11583:11592   */\n      dup4\n        /* \"#utility.yul\":11579:11596   */\n      add\n        /* \"#utility.yul\":11572:11619   */\n      mstore\n        /* \"#utility.yul\":11636:11767   */\n      tag_449\n        /* \"#utility.yul\":11762:11766   */\n      dup2\n        /* \"#utility.yul\":11636:11767   */\n      tag_274\n      jump\t// in\n    tag_449:\n        /* \"#utility.yul\":11628:11767   */\n      swap1\n      pop\n        /* \"#utility.yul\":11355:11774   */\n      swap2\n      swap1\n      pop\n      jump\t// out\n        /* \"#utility.yul\":11780:11949   */\n    tag_275:\n        /* \"#utility.yul\":11920:11941   */\n      0x4e4654206973206e6f7420666f722073616c6500000000000000000000000000\n        /* \"#utility.yul\":11916:11917   */\n      0x00\n        /* \"#utility.yul\":11908:11914   */\n      dup3\n        /* \"#utility.yul\":11904:11918   */\n      add\n        /* \"#utility.yul\":11897:11942   */\n      mstore\n        /* \"#utility.yul\":11780:11949   */\n      pop\n      jump\t// out\n        /* \"#utility.yul\":11955:12321   */\n    tag_276:\n        /* \"#utility.yul\":12097:12100   */\n      0x00\n        /* \"#utility.yul\":12118:12185   */\n      tag_452\n        /* \"#utility.yul\":12182:12184   */\n      0x13\n        /* \"#utility.yul\":12177:12180   */\n      dup4\n        /* \"#utility.yul\":12118:12185   */\n      tag_249\n      jump\t// in\n    tag_452:\n        /* \"#utility.yul\":12111:12185   */\n      swap2\n      pop\n        /* \"#utility.yul\":12194:12287   */\n      tag_453\n        /* \"#utility.yul\":12283:12286   */\n      dup3\n        /* \"#utility.yul\":12194:12287   */\n      tag_275\n      jump\t// in\n    tag_453:\n        /* \"#utility.yul\":12312:12314   */\n      0x20\n        /* \"#utility.yul\":12307:12310   */\n      dup3\n        /* \"#utility.yul\":12303:12315   */\n      add\n        /* \"#utility.yul\":12296:12315   */\n      swap1\n      pop\n        /* \"#utility.yul\":11955:12321   */\n      swap2\n      swap1\n      pop\n      jump\t// out\n        /* \"#utility.yul\":12327:12746   */\n    tag_99:\n        /* \"#utility.yul\":12493:12497   */\n      0x00\n        /* \"#utility.yul\":12531:12533   */\n      0x20\n        /* \"#utility.yul\":12520:12529   */\n      dup3\n        /* \"#utility.yul\":12516:12534   */\n      add\n        /* \"#utility.yul\":12508:12534   */\n      swap1\n      pop\n        /* \"#utility.yul\":12580:12589   */\n      dup2\n        /* \"#utility.yul\":12574:12578   */\n      dup2\n        /* \"#utility.yul\":12570:12590   */\n      sub\n        /* \"#utility.yul\":12566:12567   */\n      0x00\n        /* \"#utility.yul\":12555:12564   */\n      dup4\n        /* \"#utility.yul\":12551:12568   */\n      add\n        /* \"#utility.yul\":12544:12591   */\n      mstore\n        /* \"#utility.yul\":12608:12739   */\n      tag_455\n        /* \"#utility.yul\":12734:12738   */\n      dup2\n        /* \"#utility.yul\":12608:12739   */\n      tag_276\n      jump\t// in\n    tag_455:\n        /* \"#utility.yul\":12600:12739   */\n      swap1\n      pop\n        /* \"#utility.yul\":12327:12746   */\n      swap2\n      swap1\n      pop\n      jump\t// out\n        /* \"#utility.yul\":12752:12920   */\n    tag_277:\n        /* \"#utility.yul\":12892:12912   */\n      0x496e73756666696369656e742066756e64730000000000000000000000000000\n        /* \"#utility.yul\":12888:12889   */\n      0x00\n        /* \"#utility.yul\":12880:12886   */\n      dup3\n        /* \"#utility.yul\":12876:12890   */\n      add\n        /* \"#utility.yul\":12869:12913   */\n      mstore\n        /* \"#utility.yul\":12752:12920   */\n      pop\n      jump\t// out\n        /* \"#utility.yul\":12926:13292   */\n    tag_278:\n        /* \"#utility.yul\":13068:13071   */\n      0x00\n        /* \"#utility.yul\":13089:13156   */\n      tag_458\n        /* \"#utility.yul\":13153:13155   */\n      0x12\n        /* \"#utility.yul\":13148:13151   */\n      dup4\n        /* \"#utility.yul\":13089:13156   */\n      tag_249\n      jump\t// in\n    tag_458:\n        /* \"#utility.yul\":13082:13156   */\n      swap2\n      pop\n        /* \"#utility.yul\":13165:13258   */\n      tag_459\n        /* \"#utility.yul\":13254:13257   */\n      dup3\n        /* \"#utility.yul\":13165:13258   */\n      tag_277\n      jump\t// in\n    tag_459:\n        /* \"#utility.yul\":13283:13285   */\n      0x20\n        /* \"#utility.yul\":13278:13281   */\n      dup3\n        /* \"#utility.yul\":13274:13286   */\n      add\n        /* \"#utility.yul\":13267:13286   */\n      swap1\n      pop\n        /* \"#utility.yul\":12926:13292   */\n      swap2\n      swap1\n      pop\n      jump\t// out\n        /* \"#utility.yul\":13298:13717   */\n    tag_102:\n        /* \"#utility.yul\":13464:13468   */\n      0x00\n        /* \"#utility.yul\":13502:13504   */\n      0x20\n        /* \"#utility.yul\":13491:13500   */\n      dup3\n        /* \"#utility.yul\":13487:13505   */\n      add\n        /* \"#utility.yul\":13479:13505   */\n      swap1\n      pop\n        /* \"#utility.yul\":13551:13560   */\n      dup2\n        /* \"#utility.yul\":13545:13549   */\n      dup2\n        /* \"#utility.yul\":13541:13561   */\n      sub\n        /* \"#utility.yul\":13537:13538   */\n      0x00\n        /* \"#utility.yul\":13526:13535   */\n      dup4\n        /* \"#utility.yul\":13522:13539   */\n      add\n        /* \"#utility.yul\":13515:13562   */\n      mstore\n        /* \"#utility.yul\":13579:13710   */\n      tag_461\n        /* \"#utility.yul\":13705:13709   */\n      dup2\n        /* \"#utility.yul\":13579:13710   */\n      tag_278\n      jump\t// in\n    tag_461:\n        /* \"#utility.yul\":13571:13710   */\n      swap1\n      pop\n        /* \"#utility.yul\":13298:13717   */\n      swap2\n      swap1\n      pop\n      jump\t// out\n        /* \"#utility.yul\":13723:13895   */\n    tag_279:\n        /* \"#utility.yul\":13863:13887   */\n      0x53656c6c65722061646472657373206973207a65726f00000000000000000000\n        /* \"#utility.yul\":13859:13860   */\n      0x00\n        /* \"#utility.yul\":13851:13857   */\n      dup3\n        /* \"#utility.yul\":13847:13861   */\n      add\n        /* \"#utility.yul\":13840:13888   */\n      mstore\n        /* \"#utility.yul\":13723:13895   */\n      pop\n      jump\t// out\n        /* \"#utility.yul\":13901:14267   */\n    tag_280:\n        /* \"#utility.yul\":14043:14046   */\n      0x00\n        /* \"#utility.yul\":14064:14131   */\n      tag_464\n        /* \"#utility.yul\":14128:14130   */\n      0x16\n        /* \"#utility.yul\":14123:14126   */\n      dup4\n        /* \"#utility.yul\":14064:14131   */\n      tag_249\n      jump\t// in\n    tag_464:\n        /* \"#utility.yul\":14057:14131   */\n      swap2\n      pop\n        /* \"#utility.yul\":14140:14233   */\n      tag_465\n        /* \"#utility.yul\":14229:14232   */\n      dup3\n        /* \"#utility.yul\":14140:14233   */\n      tag_279\n      jump\t// in\n    tag_465:\n        /* \"#utility.yul\":14258:14260   */\n      0x20\n        /* \"#utility.yul\":14253:14256   */\n      dup3\n        /* \"#utility.yul\":14249:14261   */\n      add\n        /* \"#utility.yul\":14242:14261   */\n      swap1\n      pop\n        /* \"#utility.yul\":13901:14267   */\n      swap2\n      swap1\n      pop\n      jump\t// out\n        /* \"#utility.yul\":14273:14692   */\n    tag_105:\n        /* \"#utility.yul\":14439:14443   */\n      0x00\n        /* \"#utility.yul\":14477:14479   */\n      0x20\n        /* \"#utility.yul\":14466:14475   */\n      dup3\n        /* \"#utility.yul\":14462:14480   */\n      add\n        /* \"#utility.yul\":14454:14480   */\n      swap1\n      pop\n        /* \"#utility.yul\":14526:14535   */\n      dup2\n        /* \"#utility.yul\":14520:14524   */\n      dup2\n        /* \"#utility.yul\":14516:14536   */\n      sub\n        /* \"#utility.yul\":14512:14513   */\n      0x00\n        /* \"#utility.yul\":14501:14510   */\n      dup4\n        /* \"#utility.yul\":14497:14514   */\n      add\n        /* \"#utility.yul\":14490:14537   */\n      mstore\n        /* \"#utility.yul\":14554:14685   */\n      tag_467\n        /* \"#utility.yul\":14680:14684   */\n      dup2\n        /* \"#utility.yul\":14554:14685   */\n      tag_280\n      jump\t// in\n    tag_467:\n        /* \"#utility.yul\":14546:14685   */\n      swap1\n      pop\n        /* \"#utility.yul\":14273:14692   */\n      swap2\n      swap1\n      pop\n      jump\t// out\n        /* \"#utility.yul\":14698:14869   */\n    tag_281:\n        /* \"#utility.yul\":14838:14861   */\n      0x4f776e65722061646472657373206973207a65726f0000000000000000000000\n        /* \"#utility.yul\":14834:14835   */\n      0x00\n        /* \"#utility.yul\":14826:14832   */\n      dup3\n        /* \"#utility.yul\":14822:14836   */\n      add\n        /* \"#utility.yul\":14815:14862   */\n      mstore\n        /* \"#utility.yul\":14698:14869   */\n      pop\n      jump\t// out\n        /* \"#utility.yul\":14875:15241   */\n    tag_282:\n        /* \"#utility.yul\":15017:15020   */\n      0x00\n        /* \"#utility.yul\":15038:15105   */\n      tag_470\n        /* \"#utility.yul\":15102:15104   */\n      0x15\n        /* \"#utility.yul\":15097:15100   */\n      dup4\n        /* \"#utility.yul\":15038:15105   */\n      tag_249\n      jump\t// in\n    tag_470:\n        /* \"#utility.yul\":15031:15105   */\n      swap2\n      pop\n        /* \"#utility.yul\":15114:15207   */\n      tag_471\n        /* \"#utility.yul\":15203:15206   */\n      dup3\n        /* \"#utility.yul\":15114:15207   */\n      tag_281\n      jump\t// in\n    tag_471:\n        /* \"#utility.yul\":15232:15234   */\n      0x20\n        /* \"#utility.yul\":15227:15230   */\n      dup3\n        /* \"#utility.yul\":15223:15235   */\n      add\n        /* \"#utility.yul\":15216:15235   */\n      swap1\n      pop\n        /* \"#utility.yul\":14875:15241   */\n      swap2\n      swap1\n      pop\n      jump\t// out\n        /* \"#utility.yul\":15247:15666   */\n    tag_108:\n        /* \"#utility.yul\":15413:15417   */\n      0x00\n        /* \"#utility.yul\":15451:15453   */\n      0x20\n        /* \"#utility.yul\":15440:15449   */\n      dup3\n        /* \"#utility.yul\":15436:15454   */\n      add\n        /* \"#utility.yul\":15428:15454   */\n      swap1\n      pop\n        /* \"#utility.yul\":15500:15509   */\n      dup2\n        /* \"#utility.yul\":15494:15498   */\n      dup2\n        /* \"#utility.yul\":15490:15510   */\n      sub\n        /* \"#utility.yul\":15486:15487   */\n      0x00\n        /* \"#utility.yul\":15475:15484   */\n      dup4\n        /* \"#utility.yul\":15471:15488   */\n      add\n        /* \"#utility.yul\":15464:15511   */\n      mstore\n        /* \"#utility.yul\":15528:15659   */\n      tag_473\n        /* \"#utility.yul\":15654:15658   */\n      dup2\n        /* \"#utility.yul\":15528:15659   */\n      tag_282\n      jump\t// in\n    tag_473:\n        /* \"#utility.yul\":15520:15659   */\n      swap1\n      pop\n        /* \"#utility.yul\":15247:15666   */\n      swap2\n      swap1\n      pop\n      jump\t// out\n        /* \"#utility.yul\":15672:15852   */\n    tag_283:\n        /* \"#utility.yul\":15812:15844   */\n      0x53656c6c6572206e6f206c6f6e676572206f776e732074686973204e46540000\n        /* \"#utility.yul\":15808:15809   */\n      0x00\n        /* \"#utility.yul\":15800:15806   */\n      dup3\n        /* \"#utility.yul\":15796:15810   */\n      add\n        /* \"#utility.yul\":15789:15845   */\n      mstore\n        /* \"#utility.yul\":15672:15852   */\n      pop\n      jump\t// out\n        /* \"#utility.yul\":15858:16224   */\n    tag_284:\n        /* \"#utility.yul\":16000:16003   */\n      0x00\n        /* \"#utility.yul\":16021:16088   */\n      tag_476\n        /* \"#utility.yul\":16085:16087   */\n      0x1e\n        /* \"#utility.yul\":16080:16083   */\n      dup4\n        /* \"#utility.yul\":16021:16088   */\n      tag_249\n      jump\t// in\n    tag_476:\n        /* \"#utility.yul\":16014:16088   */\n      swap2\n      pop\n        /* \"#utility.yul\":16097:16190   */\n      tag_477\n        /* \"#utility.yul\":16186:16189   */\n      dup3\n        /* \"#utility.yul\":16097:16190   */\n      tag_283\n      jump\t// in\n    tag_477:\n        /* \"#utility.yul\":16215:16217   */\n      0x20\n        /* \"#utility.yul\":16210:16213   */\n      dup3\n        /* \"#utility.yul\":16206:16218   */\n      add\n        /* \"#utility.yul\":16199:16218   */\n      swap1\n      pop\n        /* \"#utility.yul\":15858:16224   */\n      swap2\n      swap1\n      pop\n      jump\t// out\n        /* \"#utility.yul\":16230:16649   */\n    tag_111:\n        /* \"#utility.yul\":16396:16400   */\n      0x00\n        /* \"#utility.yul\":16434:16436   */\n      0x20\n        /* \"#utility.yul\":16423:16432   */\n      dup3\n        /* \"#utility.yul\":16419:16437   */\n      add\n        /* \"#utility.yul\":16411:16437   */\n      swap1\n      pop\n        /* \"#utility.yul\":16483:16492   */\n      dup2\n        /* \"#utility.yul\":16477:16481   */\n      dup2\n        /* \"#utility.yul\":16473:16493   */\n      sub\n        /* \"#utility.yul\":16469:16470   */\n      0x00\n        /* \"#utility.yul\":16458:16467   */\n      dup4\n        /* \"#utility.yul\":16454:16471   */\n      add\n        /* \"#utility.yul\":16447:16494   */\n      mstore\n        /* \"#utility.yul\":16511:16642   */\n      tag_479\n        /* \"#utility.yul\":16637:16641   */\n      dup2\n        /* \"#utility.yul\":16511:16642   */\n      tag_284\n      jump\t// in\n    tag_479:\n        /* \"#utility.yul\":16503:16642   */\n      swap1\n      pop\n        /* \"#utility.yul\":16230:16649   */\n      swap2\n      swap1\n      pop\n      jump\t// out\n        /* \"#utility.yul\":16655:16835   */\n    tag_285:\n        /* \"#utility.yul\":16703:16780   */\n      0x4e487b7100000000000000000000000000000000000000000000000000000000\n        /* \"#utility.yul\":16700:16701   */\n      0x00\n        /* \"#utility.yul\":16693:16781   */\n      mstore\n        /* \"#utility.yul\":16800:16804   */\n      0x11\n        /* \"#utility.yul\":16797:16798   */\n      0x04\n        /* \"#utility.yul\":16790:16805   */\n      mstore\n        /* \"#utility.yul\":16824:16828   */\n      0x24\n        /* \"#utility.yul\":16821:16822   */\n      0x00\n        /* \"#utility.yul\":16814:16829   */\n      revert\n        /* \"#utility.yul\":16841:17251   */\n    tag_113:\n        /* \"#utility.yul\":16881:16888   */\n      0x00\n        /* \"#utility.yul\":16904:16924   */\n      tag_482\n        /* \"#utility.yul\":16922:16923   */\n      dup3\n        /* \"#utility.yul\":16904:16924   */\n      tag_241\n      jump\t// in\n    tag_482:\n        /* \"#utility.yul\":16899:16924   */\n      swap2\n      pop\n        /* \"#utility.yul\":16938:16958   */\n      tag_483\n        /* \"#utility.yul\":16956:16957   */\n      dup4\n        /* \"#utility.yul\":16938:16958   */\n      tag_241\n      jump\t// in\n    tag_483:\n        /* \"#utility.yul\":16933:16958   */\n      swap3\n      pop\n        /* \"#utility.yul\":16993:16994   */\n      dup3\n        /* \"#utility.yul\":16990:16991   */\n      dup3\n        /* \"#utility.yul\":16986:16995   */\n      mul\n        /* \"#utility.yul\":17015:17045   */\n      tag_484\n        /* \"#utility.yul\":17033:17044   */\n      dup2\n        /* \"#utility.yul\":17015:17045   */\n      tag_241\n      jump\t// in\n    tag_484:\n        /* \"#utility.yul\":17004:17045   */\n      swap2\n      pop\n        /* \"#utility.yul\":17194:17195   */\n      dup3\n        /* \"#utility.yul\":17185:17192   */\n      dup3\n        /* \"#utility.yul\":17181:17196   */\n      div\n        /* \"#utility.yul\":17178:17179   */\n      dup5\n        /* \"#utility.yul\":17175:17197   */\n      eq\n        /* \"#utility.yul\":17155:17156   */\n      dup4\n        /* \"#utility.yul\":17148:17157   */\n      iszero\n        /* \"#utility.yul\":17128:17211   */\n      or\n        /* \"#utility.yul\":17105:17244   */\n      tag_485\n      jumpi\n        /* \"#utility.yul\":17224:17242   */\n      tag_486\n      tag_285\n      jump\t// in\n    tag_486:\n        /* \"#utility.yul\":17105:17244   */\n    tag_485:\n        /* \"#utility.yul\":16889:17251   */\n      pop\n        /* \"#utility.yul\":16841:17251   */\n      swap3\n      swap2\n      pop\n      pop\n      jump\t// out\n        /* \"#utility.yul\":17257:17437   */\n    tag_286:\n        /* \"#utility.yul\":17305:17382   */\n      0x4e487b7100000000000000000000000000000000000000000000000000000000\n        /* \"#utility.yul\":17302:17303   */\n      0x00\n        /* \"#utility.yul\":17295:17383   */\n      mstore\n        /* \"#utility.yul\":17402:17406   */\n      0x12\n        /* \"#utility.yul\":17399:17400   */\n      0x04\n        /* \"#utility.yul\":17392:17407   */\n      mstore\n        /* \"#utility.yul\":17426:17430   */\n      0x24\n        /* \"#utility.yul\":17423:17424   */\n      0x00\n        /* \"#utility.yul\":17416:17431   */\n      revert\n        /* \"#utility.yul\":17443:17628   */\n    tag_115:\n        /* \"#utility.yul\":17483:17484   */\n      0x00\n        /* \"#utility.yul\":17500:17520   */\n      tag_489\n        /* \"#utility.yul\":17518:17519   */\n      dup3\n        /* \"#utility.yul\":17500:17520   */\n      tag_241\n      jump\t// in\n    tag_489:\n        /* \"#utility.yul\":17495:17520   */\n      swap2\n      pop\n        /* \"#utility.yul\":17534:17554   */\n      tag_490\n        /* \"#utility.yul\":17552:17553   */\n      dup4\n        /* \"#utility.yul\":17534:17554   */\n      tag_241\n      jump\t// in\n    tag_490:\n        /* \"#utility.yul\":17529:17554   */\n      swap3\n      pop\n        /* \"#utility.yul\":17573:17574   */\n      dup3\n        /* \"#utility.yul\":17563:17598   */\n      tag_491\n      jumpi\n        /* \"#utility.yul\":17578:17596   */\n      tag_492\n      tag_286\n      jump\t// in\n    tag_492:\n        /* \"#utility.yul\":17563:17598   */\n    tag_491:\n        /* \"#utility.yul\":17620:17621   */\n      dup3\n        /* \"#utility.yul\":17617:17618   */\n      dup3\n        /* \"#utility.yul\":17613:17622   */\n      div\n        /* \"#utility.yul\":17608:17622   */\n      swap1\n      pop\n        /* \"#utility.yul\":17443:17628   */\n      swap3\n      swap2\n      pop\n      pop\n      jump\t// out\n        /* \"#utility.yul\":17634:17828   */\n    tag_117:\n        /* \"#utility.yul\":17674:17678   */\n      0x00\n        /* \"#utility.yul\":17694:17714   */\n      tag_494\n        /* \"#utility.yul\":17712:17713   */\n      dup3\n        /* \"#utility.yul\":17694:17714   */\n      tag_241\n      jump\t// in\n    tag_494:\n        /* \"#utility.yul\":17689:17714   */\n      swap2\n      pop\n        /* \"#utility.yul\":17728:17748   */\n      tag_495\n        /* \"#utility.yul\":17746:17747   */\n      dup4\n        /* \"#utility.yul\":17728:17748   */\n      tag_241\n      jump\t// in\n    tag_495:\n        /* \"#utility.yul\":17723:17748   */\n      swap3\n      pop\n        /* \"#utility.yul\":17772:17773   */\n      dup3\n        /* \"#utility.yul\":17769:17770   */\n      dup3\n        /* \"#utility.yul\":17765:17774   */\n      sub\n        /* \"#utility.yul\":17757:17774   */\n      swap1\n      pop\n        /* \"#utility.yul\":17796:17797   */\n      dup2\n        /* \"#utility.yul\":17790:17794   */\n      dup2\n        /* \"#utility.yul\":17787:17798   */\n      gt\n        /* \"#utility.yul\":17784:17821   */\n      iszero\n      tag_496\n      jumpi\n        /* \"#utility.yul\":17801:17819   */\n      tag_497\n      tag_285\n      jump\t// in\n    tag_497:\n        /* \"#utility.yul\":17784:17821   */\n    tag_496:\n        /* \"#utility.yul\":17634:17828   */\n      swap3\n      swap2\n      pop\n      pop\n      jump\t// out\n        /* \"#utility.yul\":17834:17981   */\n    tag_287:\n        /* \"#utility.yul\":17935:17946   */\n      0x00\n        /* \"#utility.yul\":17972:17975   */\n      dup2\n        /* \"#utility.yul\":17957:17975   */\n      swap1\n      pop\n        /* \"#utility.yul\":17834:17981   */\n      swap3\n      swap2\n      pop\n      pop\n      jump\t// out\n        /* \"#utility.yul\":17987:18101   */\n    tag_288:\n      pop\n      jump\t// out\n        /* \"#utility.yul\":18107:18505   */\n    tag_289:\n        /* \"#utility.yul\":18266:18269   */\n      0x00\n        /* \"#utility.yul\":18287:18370   */\n      tag_501\n        /* \"#utility.yul\":18368:18369   */\n      0x00\n        /* \"#utility.yul\":18363:18366   */\n      dup4\n        /* \"#utility.yul\":18287:18370   */\n      tag_287\n      jump\t// in\n    tag_501:\n        /* \"#utility.yul\":18280:18370   */\n      swap2\n      pop\n        /* \"#utility.yul\":18379:18472   */\n      tag_502\n        /* \"#utility.yul\":18468:18471   */\n      dup3\n        /* \"#utility.yul\":18379:18472   */\n      tag_288\n      jump\t// in\n    tag_502:\n        /* \"#utility.yul\":18497:18498   */\n      0x00\n        /* \"#utility.yul\":18492:18495   */\n      dup3\n        /* \"#utility.yul\":18488:18499   */\n      add\n        /* \"#utility.yul\":18481:18499   */\n      swap1\n      pop\n        /* \"#utility.yul\":18107:18505   */\n      swap2\n      swap1\n      pop\n      jump\t// out\n        /* \"#utility.yul\":18511:18890   */\n    tag_122:\n        /* \"#utility.yul\":18695:18698   */\n      0x00\n        /* \"#utility.yul\":18717:18864   */\n      tag_504\n        /* \"#utility.yul\":18860:18863   */\n      dup3\n        /* \"#utility.yul\":18717:18864   */\n      tag_289\n      jump\t// in\n    tag_504:\n        /* \"#utility.yul\":18710:18864   */\n      swap2\n      pop\n        /* \"#utility.yul\":18881:18884   */\n      dup2\n        /* \"#utility.yul\":18874:18884   */\n      swap1\n      pop\n        /* \"#utility.yul\":18511:18890   */\n      swap2\n      swap1\n      pop\n      jump\t// out\n        /* \"#utility.yul\":18896:19073   */\n    tag_290:\n        /* \"#utility.yul\":19036:19065   */\n      0x4661696c656420746f2073656e642066656520746f206f776e65720000000000\n        /* \"#utility.yul\":19032:19033   */\n      0x00\n        /* \"#utility.yul\":19024:19030   */\n      dup3\n        /* \"#utility.yul\":19020:19034   */\n      add\n        /* \"#utility.yul\":19013:19066   */\n      mstore\n        /* \"#utility.yul\":18896:19073   */\n      pop\n      jump\t// out\n        /* \"#utility.yul\":19079:19445   */\n    tag_291:\n        /* \"#utility.yul\":19221:19224   */\n      0x00\n        /* \"#utility.yul\":19242:19309   */\n      tag_507\n        /* \"#utility.yul\":19306:19308   */\n      0x1b\n        /* \"#utility.yul\":19301:19304   */\n      dup4\n        /* \"#utility.yul\":19242:19309   */\n      tag_249\n      jump\t// in\n    tag_507:\n        /* \"#utility.yul\":19235:19309   */\n      swap2\n      pop\n        /* \"#utility.yul\":19318:19411   */\n      tag_508\n        /* \"#utility.yul\":19407:19410   */\n      dup3\n        /* \"#utility.yul\":19318:19411   */\n      tag_290\n      jump\t// in\n    tag_508:\n        /* \"#utility.yul\":19436:19438   */\n      0x20\n        /* \"#utility.yul\":19431:19434   */\n      dup3\n        /* \"#utility.yul\":19427:19439   */\n      add\n        /* \"#utility.yul\":19420:19439   */\n      swap1\n      pop\n        /* \"#utility.yul\":19079:19445   */\n      swap2\n      swap1\n      pop\n      jump\t// out\n        /* \"#utility.yul\":19451:19870   */\n    tag_128:\n        /* \"#utility.yul\":19617:19621   */\n      0x00\n        /* \"#utility.yul\":19655:19657   */\n      0x20\n        /* \"#utility.yul\":19644:19653   */\n      dup3\n        /* \"#utility.yul\":19640:19658   */\n      add\n        /* \"#utility.yul\":19632:19658   */\n      swap1\n      pop\n        /* \"#utility.yul\":19704:19713   */\n      dup2\n        /* \"#utility.yul\":19698:19702   */\n      dup2\n        /* \"#utility.yul\":19694:19714   */\n      sub\n        /* \"#utility.yul\":19690:19691   */\n      0x00\n        /* \"#utility.yul\":19679:19688   */\n      dup4\n        /* \"#utility.yul\":19675:19692   */\n      add\n        /* \"#utility.yul\":19668:19715   */\n      mstore\n        /* \"#utility.yul\":19732:19863   */\n      tag_510\n        /* \"#utility.yul\":19858:19862   */\n      dup2\n        /* \"#utility.yul\":19732:19863   */\n      tag_291\n      jump\t// in\n    tag_510:\n        /* \"#utility.yul\":19724:19863   */\n      swap1\n      pop\n        /* \"#utility.yul\":19451:19870   */\n      swap2\n      swap1\n      pop\n      jump\t// out\n        /* \"#utility.yul\":19876:20057   */\n    tag_292:\n        /* \"#utility.yul\":20016:20049   */\n      0x4661696c656420746f2073656e6420616d6f756e7420746f2073656c6c657200\n        /* \"#utility.yul\":20012:20013   */\n      0x00\n        /* \"#utility.yul\":20004:20010   */\n      dup3\n        /* \"#utility.yul\":20000:20014   */\n      add\n        /* \"#utility.yul\":19993:20050   */\n      mstore\n        /* \"#utility.yul\":19876:20057   */\n      pop\n      jump\t// out\n        /* \"#utility.yul\":20063:20429   */\n    tag_293:\n        /* \"#utility.yul\":20205:20208   */\n      0x00\n        /* \"#utility.yul\":20226:20293   */\n      tag_513\n        /* \"#utility.yul\":20290:20292   */\n      0x1f\n        /* \"#utility.yul\":20285:20288   */\n      dup4\n        /* \"#utility.yul\":20226:20293   */\n      tag_249\n      jump\t// in\n    tag_513:\n        /* \"#utility.yul\":20219:20293   */\n      swap2\n      pop\n        /* \"#utility.yul\":20302:20395   */\n      tag_514\n        /* \"#utility.yul\":20391:20394   */\n      dup3\n        /* \"#utility.yul\":20302:20395   */\n      tag_292\n      jump\t// in\n    tag_514:\n        /* \"#utility.yul\":20420:20422   */\n      0x20\n        /* \"#utility.yul\":20415:20418   */\n      dup3\n        /* \"#utility.yul\":20411:20423   */\n      add\n        /* \"#utility.yul\":20404:20423   */\n      swap1\n      pop\n        /* \"#utility.yul\":20063:20429   */\n      swap2\n      swap1\n      pop\n      jump\t// out\n        /* \"#utility.yul\":20435:20854   */\n    tag_135:\n        /* \"#utility.yul\":20601:20605   */\n      0x00\n        /* \"#utility.yul\":20639:20641   */\n      0x20\n        /* \"#utility.yul\":20628:20637   */\n      dup3\n        /* \"#utility.yul\":20624:20642   */\n      add\n        /* \"#utility.yul\":20616:20642   */\n      swap1\n      pop\n        /* \"#utility.yul\":20688:20697   */\n      dup2\n        /* \"#utility.yul\":20682:20686   */\n      dup2\n        /* \"#utility.yul\":20678:20698   */\n      sub\n        /* \"#utility.yul\":20674:20675   */\n      0x00\n        /* \"#utility.yul\":20663:20672   */\n      dup4\n        /* \"#utility.yul\":20659:20676   */\n      add\n        /* \"#utility.yul\":20652:20699   */\n      mstore\n        /* \"#utility.yul\":20716:20847   */\n      tag_516\n        /* \"#utility.yul\":20842:20846   */\n      dup2\n        /* \"#utility.yul\":20716:20847   */\n      tag_293\n      jump\t// in\n    tag_516:\n        /* \"#utility.yul\":20708:20847   */\n      swap1\n      pop\n        /* \"#utility.yul\":20435:20854   */\n      swap2\n      swap1\n      pop\n      jump\t// out\n        /* \"#utility.yul\":20860:21040   */\n    tag_294:\n        /* \"#utility.yul\":21000:21032   */\n      0x4661696c656420746f20726566756e642065786365737320616d6f756e740000\n        /* \"#utility.yul\":20996:20997   */\n      0x00\n        /* \"#utility.yul\":20988:20994   */\n      dup3\n        /* \"#utility.yul\":20984:20998   */\n      add\n        /* \"#utility.yul\":20977:21033   */\n      mstore\n        /* \"#utility.yul\":20860:21040   */\n      pop\n      jump\t// out\n        /* \"#utility.yul\":21046:21412   */\n    tag_295:\n        /* \"#utility.yul\":21188:21191   */\n      0x00\n        /* \"#utility.yul\":21209:21276   */\n      tag_519\n        /* \"#utility.yul\":21273:21275   */\n      0x1e\n        /* \"#utility.yul\":21268:21271   */\n      dup4\n        /* \"#utility.yul\":21209:21276   */\n      tag_249\n      jump\t// in\n    tag_519:\n        /* \"#utility.yul\":21202:21276   */\n      swap2\n      pop\n        /* \"#utility.yul\":21285:21378   */\n      tag_520\n        /* \"#utility.yul\":21374:21377   */\n      dup3\n        /* \"#utility.yul\":21285:21378   */\n      tag_294\n      jump\t// in\n    tag_520:\n        /* \"#utility.yul\":21403:21405   */\n      0x20\n        /* \"#utility.yul\":21398:21401   */\n      dup3\n        /* \"#utility.yul\":21394:21406   */\n      add\n        /* \"#utility.yul\":21387:21406   */\n      swap1\n      pop\n        /* \"#utility.yul\":21046:21412   */\n      swap2\n      swap1\n      pop\n      jump\t// out\n        /* \"#utility.yul\":21418:21837   */\n    tag_144:\n        /* \"#utility.yul\":21584:21588   */\n      0x00\n        /* \"#utility.yul\":21622:21624   */\n      0x20\n        /* \"#utility.yul\":21611:21620   */\n      dup3\n        /* \"#utility.yul\":21607:21625   */\n      add\n        /* \"#utility.yul\":21599:21625   */\n      swap1\n      pop\n        /* \"#utility.yul\":21671:21680   */\n      dup2\n        /* \"#utility.yul\":21665:21669   */\n      dup2\n        /* \"#utility.yul\":21661:21681   */\n      sub\n        /* \"#utility.yul\":21657:21658   */\n      0x00\n        /* \"#utility.yul\":21646:21655   */\n      dup4\n        /* \"#utility.yul\":21642:21659   */\n      add\n        /* \"#utility.yul\":21635:21682   */\n      mstore\n        /* \"#utility.yul\":21699:21830   */\n      tag_522\n        /* \"#utility.yul\":21825:21829   */\n      dup2\n        /* \"#utility.yul\":21699:21830   */\n      tag_295\n      jump\t// in\n    tag_522:\n        /* \"#utility.yul\":21691:21830   */\n      swap1\n      pop\n        /* \"#utility.yul\":21418:21837   */\n      swap2\n      swap1\n      pop\n      jump\t// out\n        /* \"#utility.yul\":21843:22175   */\n    tag_146:\n        /* \"#utility.yul\":21964:21968   */\n      0x00\n        /* \"#utility.yul\":22002:22004   */\n      0x40\n        /* \"#utility.yul\":21991:22000   */\n      dup3\n        /* \"#utility.yul\":21987:22005   */\n      add\n        /* \"#utility.yul\":21979:22005   */\n      swap1\n      pop\n        /* \"#utility.yul\":22015:22086   */\n      tag_524\n        /* \"#utility.yul\":22083:22084   */\n      0x00\n        /* \"#utility.yul\":22072:22081   */\n      dup4\n        /* \"#utility.yul\":22068:22085   */\n      add\n        /* \"#utility.yul\":22059:22065   */\n      dup6\n        /* \"#utility.yul\":22015:22086   */\n      tag_244\n      jump\t// in\n    tag_524:\n        /* \"#utility.yul\":22096:22168   */\n      tag_525\n        /* \"#utility.yul\":22164:22166   */\n      0x20\n        /* \"#utility.yul\":22153:22162   */\n      dup4\n        /* \"#utility.yul\":22149:22167   */\n      add\n        /* \"#utility.yul\":22140:22146   */\n      dup5\n        /* \"#utility.yul\":22096:22168   */\n      tag_244\n      jump\t// in\n    tag_525:\n        /* \"#utility.yul\":21843:22175   */\n      swap4\n      swap3\n      pop\n      pop\n      pop\n      jump\t// out\n        /* \"#utility.yul\":22181:22361   */\n    tag_296:\n        /* \"#utility.yul\":22229:22306   */\n      0x4e487b7100000000000000000000000000000000000000000000000000000000\n        /* \"#utility.yul\":22226:22227   */\n      0x00\n        /* \"#utility.yul\":22219:22307   */\n      mstore\n        /* \"#utility.yul\":22326:22330   */\n      0x22\n        /* \"#utility.yul\":22323:22324   */\n      0x04\n        /* \"#utility.yul\":22316:22331   */\n      mstore\n        /* \"#utility.yul\":22350:22354   */\n      0x24\n        /* \"#utility.yul\":22347:22348   */\n      0x00\n        /* \"#utility.yul\":22340:22355   */\n      revert\n        /* \"#utility.yul\":22367:22687   */\n    tag_150:\n        /* \"#utility.yul\":22411:22417   */\n      0x00\n        /* \"#utility.yul\":22448:22449   */\n      0x02\n        /* \"#utility.yul\":22442:22446   */\n      dup3\n        /* \"#utility.yul\":22438:22450   */\n      div\n        /* \"#utility.yul\":22428:22450   */\n      swap1\n      pop\n        /* \"#utility.yul\":22495:22496   */\n      0x01\n        /* \"#utility.yul\":22489:22493   */\n      dup3\n        /* \"#utility.yul\":22485:22497   */\n      and\n        /* \"#utility.yul\":22516:22534   */\n      dup1\n        /* \"#utility.yul\":22506:22587   */\n      tag_528\n      jumpi\n        /* \"#utility.yul\":22572:22576   */\n      0x7f\n        /* \"#utility.yul\":22564:22570   */\n      dup3\n        /* \"#utility.yul\":22560:22577   */\n      and\n        /* \"#utility.yul\":22550:22577   */\n      swap2\n      pop\n        /* \"#utility.yul\":22506:22587   */\n    tag_528:\n        /* \"#utility.yul\":22634:22636   */\n      0x20\n        /* \"#utility.yul\":22626:22632   */\n      dup3\n        /* \"#utility.yul\":22623:22637   */\n      lt\n        /* \"#utility.yul\":22603:22621   */\n      dup2\n        /* \"#utility.yul\":22600:22638   */\n      sub\n        /* \"#utility.yul\":22597:22681   */\n      tag_529\n      jumpi\n        /* \"#utility.yul\":22653:22671   */\n      tag_530\n      tag_296\n      jump\t// in\n    tag_530:\n        /* \"#utility.yul\":22597:22681   */\n    tag_529:\n        /* \"#utility.yul\":22418:22687   */\n      pop\n        /* \"#utility.yul\":22367:22687   */\n      swap2\n      swap1\n      pop\n      jump\t// out\n        /* \"#utility.yul\":22693:22865   */\n    tag_297:\n        /* \"#utility.yul\":22833:22857   */\n      0x4e6f742074686520636f6e7472616374206f776e657200000000000000000000\n        /* \"#utility.yul\":22829:22830   */\n      0x00\n        /* \"#utility.yul\":22821:22827   */\n      dup3\n        /* \"#utility.yul\":22817:22831   */\n      add\n        /* \"#utility.yul\":22810:22858   */\n      mstore\n        /* \"#utility.yul\":22693:22865   */\n      pop\n      jump\t// out\n        /* \"#utility.yul\":22871:23237   */\n    tag_298:\n        /* \"#utility.yul\":23013:23016   */\n      0x00\n        /* \"#utility.yul\":23034:23101   */\n      tag_533\n        /* \"#utility.yul\":23098:23100   */\n      0x16\n        /* \"#utility.yul\":23093:23096   */\n      dup4\n        /* \"#utility.yul\":23034:23101   */\n      tag_249\n      jump\t// in\n    tag_533:\n        /* \"#utility.yul\":23027:23101   */\n      swap2\n      pop\n        /* \"#utility.yul\":23110:23203   */\n      tag_534\n        /* \"#utility.yul\":23199:23202   */\n      dup3\n        /* \"#utility.yul\":23110:23203   */\n      tag_297\n      jump\t// in\n    tag_534:\n        /* \"#utility.yul\":23228:23230   */\n      0x20\n        /* \"#utility.yul\":23223:23226   */\n      dup3\n        /* \"#utility.yul\":23219:23231   */\n      add\n        /* \"#utility.yul\":23212:23231   */\n      swap1\n      pop\n        /* \"#utility.yul\":22871:23237   */\n      swap2\n      swap1\n      pop\n      jump\t// out\n        /* \"#utility.yul\":23243:23662   */\n    tag_166:\n        /* \"#utility.yul\":23409:23413   */\n      0x00\n        /* \"#utility.yul\":23447:23449   */\n      0x20\n        /* \"#utility.yul\":23436:23445   */\n      dup3\n        /* \"#utility.yul\":23432:23450   */\n      add\n        /* \"#utility.yul\":23424:23450   */\n      swap1\n      pop\n        /* \"#utility.yul\":23496:23505   */\n      dup2\n        /* \"#utility.yul\":23490:23494   */\n      dup2\n        /* \"#utility.yul\":23486:23506   */\n      sub\n        /* \"#utility.yul\":23482:23483   */\n      0x00\n        /* \"#utility.yul\":23471:23480   */\n      dup4\n        /* \"#utility.yul\":23467:23484   */\n      add\n        /* \"#utility.yul\":23460:23507   */\n      mstore\n        /* \"#utility.yul\":23524:23655   */\n      tag_536\n        /* \"#utility.yul\":23650:23654   */\n      dup2\n        /* \"#utility.yul\":23524:23655   */\n      tag_298\n      jump\t// in\n    tag_536:\n        /* \"#utility.yul\":23516:23655   */\n      swap1\n      pop\n        /* \"#utility.yul\":23243:23662   */\n      swap2\n      swap1\n      pop\n      jump\t// out\n        /* \"#utility.yul\":23668:23831   */\n    tag_299:\n        /* \"#utility.yul\":23808:23823   */\n      0x4e6f7420746865206f776e657200000000000000000000000000000000000000\n        /* \"#utility.yul\":23804:23805   */\n      0x00\n        /* \"#utility.yul\":23796:23802   */\n      dup3\n        /* \"#utility.yul\":23792:23806   */\n      add\n        /* \"#utility.yul\":23785:23824   */\n      mstore\n        /* \"#utility.yul\":23668:23831   */\n      pop\n      jump\t// out\n        /* \"#utility.yul\":23837:24203   */\n    tag_300:\n        /* \"#utility.yul\":23979:23982   */\n      0x00\n        /* \"#utility.yul\":24000:24067   */\n      tag_539\n        /* \"#utility.yul\":24064:24066   */\n      0x0d\n        /* \"#utility.yul\":24059:24062   */\n      dup4\n        /* \"#utility.yul\":24000:24067   */\n      tag_249\n      jump\t// in\n    tag_539:\n        /* \"#utility.yul\":23993:24067   */\n      swap2\n      pop\n        /* \"#utility.yul\":24076:24169   */\n      tag_540\n        /* \"#utility.yul\":24165:24168   */\n      dup3\n        /* \"#utility.yul\":24076:24169   */\n      tag_299\n      jump\t// in\n    tag_540:\n        /* \"#utility.yul\":24194:24196   */\n      0x20\n        /* \"#utility.yul\":24189:24192   */\n      dup3\n        /* \"#utility.yul\":24185:24197   */\n      add\n        /* \"#utility.yul\":24178:24197   */\n      swap1\n      pop\n        /* \"#utility.yul\":23837:24203   */\n      swap2\n      swap1\n      pop\n      jump\t// out\n        /* \"#utility.yul\":24209:24628   */\n    tag_175:\n        /* \"#utility.yul\":24375:24379   */\n      0x00\n        /* \"#utility.yul\":24413:24415   */\n      0x20\n        /* \"#utility.yul\":24402:24411   */\n      dup3\n        /* \"#utility.yul\":24398:24416   */\n      add\n        /* \"#utility.yul\":24390:24416   */\n      swap1\n      pop\n        /* \"#utility.yul\":24462:24471   */\n      dup2\n        /* \"#utility.yul\":24456:24460   */\n      dup2\n        /* \"#utility.yul\":24452:24472   */\n      sub\n        /* \"#utility.yul\":24448:24449   */\n      0x00\n        /* \"#utility.yul\":24437:24446   */\n      dup4\n        /* \"#utility.yul\":24433:24450   */\n      add\n        /* \"#utility.yul\":24426:24473   */\n      mstore\n        /* \"#utility.yul\":24490:24621   */\n      tag_542\n        /* \"#utility.yul\":24616:24620   */\n      dup2\n        /* \"#utility.yul\":24490:24621   */\n      tag_300\n      jump\t// in\n    tag_542:\n        /* \"#utility.yul\":24482:24621   */\n      swap1\n      pop\n        /* \"#utility.yul\":24209:24628   */\n      swap2\n      swap1\n      pop\n      jump\t// out\n        /* \"#utility.yul\":24634:24815   */\n    tag_301:\n        /* \"#utility.yul\":24774:24807   */\n      0x5072696365206d7573742062652067726561746572207468616e207a65726f00\n        /* \"#utility.yul\":24770:24771   */\n      0x00\n        /* \"#utility.yul\":24762:24768   */\n      dup3\n        /* \"#utility.yul\":24758:24772   */\n      add\n        /* \"#utility.yul\":24751:24808   */\n      mstore\n        /* \"#utility.yul\":24634:24815   */\n      pop\n      jump\t// out\n        /* \"#utility.yul\":24821:25187   */\n    tag_302:\n        /* \"#utility.yul\":24963:24966   */\n      0x00\n        /* \"#utility.yul\":24984:25051   */\n      tag_545\n        /* \"#utility.yul\":25048:25050   */\n      0x1f\n        /* \"#utility.yul\":25043:25046   */\n      dup4\n        /* \"#utility.yul\":24984:25051   */\n      tag_249\n      jump\t// in\n    tag_545:\n        /* \"#utility.yul\":24977:25051   */\n      swap2\n      pop\n        /* \"#utility.yul\":25060:25153   */\n      tag_546\n        /* \"#utility.yul\":25149:25152   */\n      dup3\n        /* \"#utility.yul\":25060:25153   */\n      tag_301\n      jump\t// in\n    tag_546:\n        /* \"#utility.yul\":25178:25180   */\n      0x20\n        /* \"#utility.yul\":25173:25176   */\n      dup3\n        /* \"#utility.yul\":25169:25181   */\n      add\n        /* \"#utility.yul\":25162:25181   */\n      swap1\n      pop\n        /* \"#utility.yul\":24821:25187   */\n      swap2\n      swap1\n      pop\n      jump\t// out\n        /* \"#utility.yul\":25193:25612   */\n    tag_178:\n        /* \"#utility.yul\":25359:25363   */\n      0x00\n        /* \"#utility.yul\":25397:25399   */\n      0x20\n        /* \"#utility.yul\":25386:25395   */\n      dup3\n        /* \"#utility.yul\":25382:25400   */\n      add\n        /* \"#utility.yul\":25374:25400   */\n      swap1\n      pop\n        /* \"#utility.yul\":25446:25455   */\n      dup2\n        /* \"#utility.yul\":25440:25444   */\n      dup2\n        /* \"#utility.yul\":25436:25456   */\n      sub\n        /* \"#utility.yul\":25432:25433   */\n      0x00\n        /* \"#utility.yul\":25421:25430   */\n      dup4\n        /* \"#utility.yul\":25417:25434   */\n      add\n        /* \"#utility.yul\":25410:25457   */\n      mstore\n        /* \"#utility.yul\":25474:25605   */\n      tag_548\n        /* \"#utility.yul\":25600:25604   */\n      dup2\n        /* \"#utility.yul\":25474:25605   */\n      tag_302\n      jump\t// in\n    tag_548:\n        /* \"#utility.yul\":25466:25605   */\n      swap1\n      pop\n        /* \"#utility.yul\":25193:25612   */\n      swap2\n      swap1\n      pop\n      jump\t// out\n        /* \"#utility.yul\":25618:25766   */\n    tag_303:\n        /* \"#utility.yul\":25720:25731   */\n      0x00\n        /* \"#utility.yul\":25757:25760   */\n      dup2\n        /* \"#utility.yul\":25742:25760   */\n      swap1\n      pop\n        /* \"#utility.yul\":25618:25766   */\n      swap3\n      swap2\n      pop\n      pop\n      jump\t// out\n        /* \"#utility.yul\":25772:26162   */\n    tag_304:\n        /* \"#utility.yul\":25878:25881   */\n      0x00\n        /* \"#utility.yul\":25906:25945   */\n      tag_551\n        /* \"#utility.yul\":25939:25944   */\n      dup3\n        /* \"#utility.yul\":25906:25945   */\n      tag_248\n      jump\t// in\n    tag_551:\n        /* \"#utility.yul\":25961:26050   */\n      tag_552\n        /* \"#utility.yul\":26043:26049   */\n      dup2\n        /* \"#utility.yul\":26038:26041   */\n      dup6\n        /* \"#utility.yul\":25961:26050   */\n      tag_303\n      jump\t// in\n    tag_552:\n        /* \"#utility.yul\":25954:26050   */\n      swap4\n      pop\n        /* \"#utility.yul\":26059:26124   */\n      tag_553\n        /* \"#utility.yul\":26117:26123   */\n      dup2\n        /* \"#utility.yul\":26112:26115   */\n      dup6\n        /* \"#utility.yul\":26105:26109   */\n      0x20\n        /* \"#utility.yul\":26098:26103   */\n      dup7\n        /* \"#utility.yul\":26094:26110   */\n      add\n        /* \"#utility.yul\":26059:26124   */\n      tag_250\n      jump\t// in\n    tag_553:\n        /* \"#utility.yul\":26149:26155   */\n      dup1\n        /* \"#utility.yul\":26144:26147   */\n      dup5\n        /* \"#utility.yul\":26140:26156   */\n      add\n        /* \"#utility.yul\":26133:26156   */\n      swap2\n      pop\n        /* \"#utility.yul\":25882:26162   */\n      pop\n        /* \"#utility.yul\":25772:26162   */\n      swap3\n      swap2\n      pop\n      pop\n      jump\t// out\n        /* \"#utility.yul\":26168:26443   */\n    tag_188:\n        /* \"#utility.yul\":26300:26303   */\n      0x00\n        /* \"#utility.yul\":26322:26417   */\n      tag_555\n        /* \"#utility.yul\":26413:26416   */\n      dup3\n        /* \"#utility.yul\":26404:26410   */\n      dup5\n        /* \"#utility.yul\":26322:26417   */\n      tag_304\n      jump\t// in\n    tag_555:\n        /* \"#utility.yul\":26315:26417   */\n      swap2\n      pop\n        /* \"#utility.yul\":26434:26437   */\n      dup2\n        /* \"#utility.yul\":26427:26437   */\n      swap1\n      pop\n        /* \"#utility.yul\":26168:26443   */\n      swap3\n      swap2\n      pop\n      pop\n      jump\t// out\n        /* \"#utility.yul\":26449:26623   */\n    tag_305:\n        /* \"#utility.yul\":26589:26615   */\n      0x546f6b656e2055524920616c7265616479206578697374730000000000000000\n        /* \"#utility.yul\":26585:26586   */\n      0x00\n        /* \"#utility.yul\":26577:26583   */\n      dup3\n        /* \"#utility.yul\":26573:26587   */\n      add\n        /* \"#utility.yul\":26566:26616   */\n      mstore\n        /* \"#utility.yul\":26449:26623   */\n      pop\n      jump\t// out\n        /* \"#utility.yul\":26629:26995   */\n    tag_306:\n        /* \"#utility.yul\":26771:26774   */\n      0x00\n        /* \"#utility.yul\":26792:26859   */\n      tag_558\n        /* \"#utility.yul\":26856:26858   */\n      0x18\n        /* \"#utility.yul\":26851:26854   */\n      dup4\n        /* \"#utility.yul\":26792:26859   */\n      tag_249\n      jump\t// in\n    tag_558:\n        /* \"#utility.yul\":26785:26859   */\n      swap2\n      pop\n        /* \"#utility.yul\":26868:26961   */\n      tag_559\n        /* \"#utility.yul\":26957:26960   */\n      dup3\n        /* \"#utility.yul\":26868:26961   */\n      tag_305\n      jump\t// in\n    tag_559:\n        /* \"#utility.yul\":26986:26988   */\n      0x20\n        /* \"#utility.yul\":26981:26984   */\n      dup3\n        /* \"#utility.yul\":26977:26989   */\n      add\n        /* \"#utility.yul\":26970:26989   */\n      swap1\n      pop\n        /* \"#utility.yul\":26629:26995   */\n      swap2\n      swap1\n      pop\n      jump\t// out\n        /* \"#utility.yul\":27001:27420   */\n    tag_191:\n        /* \"#utility.yul\":27167:27171   */\n      0x00\n        /* \"#utility.yul\":27205:27207   */\n      0x20\n        /* \"#utility.yul\":27194:27203   */\n      dup3\n        /* \"#utility.yul\":27190:27208   */\n      add\n        /* \"#utility.yul\":27182:27208   */\n      swap1\n      pop\n        /* \"#utility.yul\":27254:27263   */\n      dup2\n        /* \"#utility.yul\":27248:27252   */\n      dup2\n        /* \"#utility.yul\":27244:27264   */\n      sub\n        /* \"#utility.yul\":27240:27241   */\n      0x00\n        /* \"#utility.yul\":27229:27238   */\n      dup4\n        /* \"#utility.yul\":27225:27242   */\n      add\n        /* \"#utility.yul\":27218:27265   */\n      mstore\n        /* \"#utility.yul\":27282:27413   */\n      tag_561\n        /* \"#utility.yul\":27408:27412   */\n      dup2\n        /* \"#utility.yul\":27282:27413   */\n      tag_306\n      jump\t// in\n    tag_561:\n        /* \"#utility.yul\":27274:27413   */\n      swap1\n      pop\n        /* \"#utility.yul\":27001:27420   */\n      swap2\n      swap1\n      pop\n      jump\t// out\n        /* \"#utility.yul\":27426:27595   */\n    tag_307:\n        /* \"#utility.yul\":27566:27587   */\n      0x546f6b656e2055524920697320656d7074792100000000000000000000000000\n        /* \"#utility.yul\":27562:27563   */\n      0x00\n        /* \"#utility.yul\":27554:27560   */\n      dup3\n        /* \"#utility.yul\":27550:27564   */\n      add\n        /* \"#utility.yul\":27543:27588   */\n      mstore\n        /* \"#utility.yul\":27426:27595   */\n      pop\n      jump\t// out\n        /* \"#utility.yul\":27601:27967   */\n    tag_308:\n        /* \"#utility.yul\":27743:27746   */\n      0x00\n        /* \"#utility.yul\":27764:27831   */\n      tag_564\n        /* \"#utility.yul\":27828:27830   */\n      0x13\n        /* \"#utility.yul\":27823:27826   */\n      dup4\n        /* \"#utility.yul\":27764:27831   */\n      tag_249\n      jump\t// in\n    tag_564:\n        /* \"#utility.yul\":27757:27831   */\n      swap2\n      pop\n        /* \"#utility.yul\":27840:27933   */\n      tag_565\n        /* \"#utility.yul\":27929:27932   */\n      dup3\n        /* \"#utility.yul\":27840:27933   */\n      tag_307\n      jump\t// in\n    tag_565:\n        /* \"#utility.yul\":27958:27960   */\n      0x20\n        /* \"#utility.yul\":27953:27956   */\n      dup3\n        /* \"#utility.yul\":27949:27961   */\n      add\n        /* \"#utility.yul\":27942:27961   */\n      swap1\n      pop\n        /* \"#utility.yul\":27601:27967   */\n      swap2\n      swap1\n      pop\n      jump\t// out\n        /* \"#utility.yul\":27973:28392   */\n    tag_197:\n        /* \"#utility.yul\":28139:28143   */\n      0x00\n        /* \"#utility.yul\":28177:28179   */\n      0x20\n        /* \"#utility.yul\":28166:28175   */\n      dup3\n        /* \"#utility.yul\":28162:28180   */\n      add\n        /* \"#utility.yul\":28154:28180   */\n      swap1\n      pop\n        /* \"#utility.yul\":28226:28235   */\n      dup2\n        /* \"#utility.yul\":28220:28224   */\n      dup2\n        /* \"#utility.yul\":28216:28236   */\n      sub\n        /* \"#utility.yul\":28212:28213   */\n      0x00\n        /* \"#utility.yul\":28201:28210   */\n      dup4\n        /* \"#utility.yul\":28197:28214   */\n      add\n        /* \"#utility.yul\":28190:28237   */\n      mstore\n        /* \"#utility.yul\":28254:28385   */\n      tag_567\n        /* \"#utility.yul\":28380:28384   */\n      dup2\n        /* \"#utility.yul\":28254:28385   */\n      tag_308\n      jump\t// in\n    tag_567:\n        /* \"#utility.yul\":28246:28385   */\n      swap1\n      pop\n        /* \"#utility.yul\":27973:28392   */\n      swap2\n      swap1\n      pop\n      jump\t// out\n        /* \"#utility.yul\":28398:28589   */\n    tag_199:\n        /* \"#utility.yul\":28438:28441   */\n      0x00\n        /* \"#utility.yul\":28457:28477   */\n      tag_569\n        /* \"#utility.yul\":28475:28476   */\n      dup3\n        /* \"#utility.yul\":28457:28477   */\n      tag_241\n      jump\t// in\n    tag_569:\n        /* \"#utility.yul\":28452:28477   */\n      swap2\n      pop\n        /* \"#utility.yul\":28491:28511   */\n      tag_570\n        /* \"#utility.yul\":28509:28510   */\n      dup4\n        /* \"#utility.yul\":28491:28511   */\n      tag_241\n      jump\t// in\n    tag_570:\n        /* \"#utility.yul\":28486:28511   */\n      swap3\n      pop\n        /* \"#utility.yul\":28534:28535   */\n      dup3\n        /* \"#utility.yul\":28531:28532   */\n      dup3\n        /* \"#utility.yul\":28527:28536   */\n      add\n        /* \"#utility.yul\":28520:28536   */\n      swap1\n      pop\n        /* \"#utility.yul\":28555:28558   */\n      dup1\n        /* \"#utility.yul\":28552:28553   */\n      dup3\n        /* \"#utility.yul\":28549:28559   */\n      gt\n        /* \"#utility.yul\":28546:28582   */\n      iszero\n      tag_571\n      jumpi\n        /* \"#utility.yul\":28562:28580   */\n      tag_572\n      tag_285\n      jump\t// in\n    tag_572:\n        /* \"#utility.yul\":28546:28582   */\n    tag_571:\n        /* \"#utility.yul\":28398:28589   */\n      swap3\n      swap2\n      pop\n      pop\n      jump\t// out\n        /* \"#utility.yul\":28595:28736   */\n    tag_309:\n        /* \"#utility.yul\":28644:28648   */\n      0x00\n        /* \"#utility.yul\":28667:28670   */\n      dup2\n        /* \"#utility.yul\":28659:28670   */\n      swap1\n      pop\n        /* \"#utility.yul\":28690:28693   */\n      dup2\n        /* \"#utility.yul\":28687:28688   */\n      0x00\n        /* \"#utility.yul\":28680:28694   */\n      mstore\n        /* \"#utility.yul\":28724:28728   */\n      0x20\n        /* \"#utility.yul\":28721:28722   */\n      0x00\n        /* \"#utility.yul\":28711:28729   */\n      keccak256\n        /* \"#utility.yul\":28703:28729   */\n      swap1\n      pop\n        /* \"#utility.yul\":28595:28736   */\n      swap2\n      swap1\n      pop\n      jump\t// out\n        /* \"#utility.yul\":28742:28835   */\n    tag_310:\n        /* \"#utility.yul\":28779:28785   */\n      0x00\n        /* \"#utility.yul\":28826:28828   */\n      0x20\n        /* \"#utility.yul\":28821:28823   */\n      0x1f\n        /* \"#utility.yul\":28814:28819   */\n      dup4\n        /* \"#utility.yul\":28810:28824   */\n      add\n        /* \"#utility.yul\":28806:28829   */\n      div\n        /* \"#utility.yul\":28796:28829   */\n      swap1\n      pop\n        /* \"#utility.yul\":28742:28835   */\n      swap2\n      swap1\n      pop\n      jump\t// out\n        /* \"#utility.yul\":28841:28948   */\n    tag_311:\n        /* \"#utility.yul\":28885:28893   */\n      0x00\n        /* \"#utility.yul\":28935:28940   */\n      dup3\n        /* \"#utility.yul\":28929:28933   */\n      dup3\n        /* \"#utility.yul\":28925:28941   */\n      shl\n        /* \"#utility.yul\":28904:28941   */\n      swap1\n      pop\n        /* \"#utility.yul\":28841:28948   */\n      swap3\n      swap2\n      pop\n      pop\n      jump\t// out\n        /* \"#utility.yul\":28954:29347   */\n    tag_312:\n        /* \"#utility.yul\":29023:29029   */\n      0x00\n        /* \"#utility.yul\":29073:29074   */\n      0x08\n        /* \"#utility.yul\":29061:29071   */\n      dup4\n        /* \"#utility.yul\":29057:29075   */\n      mul\n        /* \"#utility.yul\":29096:29193   */\n      tag_577\n        /* \"#utility.yul\":29126:29192   */\n      0xffffffffffffffffffffffffffffffffffffffffffffffffffffffffffffffff\n        /* \"#utility.yul\":29115:29124   */\n      dup3\n        /* \"#utility.yul\":29096:29193   */\n      tag_311\n      jump\t// in\n    tag_577:\n        /* \"#utility.yul\":29214:29253   */\n      tag_578\n        /* \"#utility.yul\":29244:29252   */\n      dup7\n        /* \"#utility.yul\":29233:29242   */\n      dup4\n        /* \"#utility.yul\":29214:29253   */\n      tag_311\n      jump\t// in\n    tag_578:\n        /* \"#utility.yul\":29202:29253   */\n      swap6\n      pop\n        /* \"#utility.yul\":29286:29290   */\n      dup1\n        /* \"#utility.yul\":29282:29291   */\n      not\n        /* \"#utility.yul\":29275:29280   */\n      dup5\n        /* \"#utility.yul\":29271:29292   */\n      and\n        /* \"#utility.yul\":29262:29292   */\n      swap4\n      pop\n        /* \"#utility.yul\":29335:29339   */\n      dup1\n        /* \"#utility.yul\":29325:29333   */\n      dup7\n        /* \"#utility.yul\":29321:29340   */\n      and\n        /* \"#utility.yul\":29314:29319   */\n      dup5\n        /* \"#utility.yul\":29311:29341   */\n      or\n        /* \"#utility.yul\":29301:29341   */\n      swap3\n      pop\n        /* \"#utility.yul\":29030:29347   */\n      pop\n      pop\n        /* \"#utility.yul\":28954:29347   */\n      swap4\n      swap3\n      pop\n      pop\n      pop\n      jump\t// out\n        /* \"#utility.yul\":29353:29413   */\n    tag_313:\n        /* \"#utility.yul\":29381:29384   */\n      0x00\n        /* \"#utility.yul\":29402:29407   */\n      dup2\n        /* \"#utility.yul\":29395:29407   */\n      swap1\n      pop\n        /* \"#utility.yul\":29353:29413   */\n      swap2\n      swap1\n      pop\n      jump\t// out\n        /* \"#utility.yul\":29419:29561   */\n    tag_314:\n        /* \"#utility.yul\":29469:29478   */\n      0x00\n        /* \"#utility.yul\":29502:29555   */\n      tag_581\n        /* \"#utility.yul\":29520:29554   */\n      tag_582\n        /* \"#utility.yul\":29529:29553   */\n      tag_583\n        /* \"#utility.yul\":29547:29552   */\n      dup5\n        /* \"#utility.yul\":29529:29553   */\n      tag_241\n      jump\t// in\n    tag_583:\n        /* \"#utility.yul\":29520:29554   */\n      tag_313\n      jump\t// in\n    tag_582:\n        /* \"#utility.yul\":29502:29555   */\n      tag_241\n      jump\t// in\n    tag_581:\n        /* \"#utility.yul\":29489:29555   */\n      swap1\n      pop\n        /* \"#utility.yul\":29419:29561   */\n      swap2\n      swap1\n      pop\n      jump\t// out\n        /* \"#utility.yul\":29567:29642   */\n    tag_315:\n        /* \"#utility.yul\":29610:29613   */\n      0x00\n        /* \"#utility.yul\":29631:29636   */\n      dup2\n        /* \"#utility.yul\":29624:29636   */\n      swap1\n      pop\n        /* \"#utility.yul\":29567:29642   */\n      swap2\n      swap1\n      pop\n      jump\t// out\n        /* \"#utility.yul\":29648:29917   */\n    tag_316:\n        /* \"#utility.yul\":29758:29797   */\n      tag_586\n        /* \"#utility.yul\":29789:29796   */\n      dup4\n        /* \"#utility.yul\":29758:29797   */\n      tag_314\n      jump\t// in\n    tag_586:\n        /* \"#utility.yul\":29819:29910   */\n      tag_587\n        /* \"#utility.yul\":29868:29909   */\n      tag_588\n        /* \"#utility.yul\":29892:29908   */\n      dup3\n        /* \"#utility.yul\":29868:29909   */\n      tag_315\n      jump\t// in\n    tag_588:\n        /* \"#utility.yul\":29860:29866   */\n      dup5\n        /* \"#utility.yul\":29853:29857   */\n      dup5\n        /* \"#utility.yul\":29847:29858   */\n      sload\n        /* \"#utility.yul\":29819:29910   */\n      tag_312\n      jump\t// in\n    tag_587:\n        /* \"#utility.yul\":29813:29817   */\n      dup3\n        /* \"#utility.yul\":29806:29911   */\n      sstore\n        /* \"#utility.yul\":29724:29917   */\n      pop\n        /* \"#utility.yul\":29648:29917   */\n      pop\n      pop\n      pop\n      jump\t// out\n        /* \"#utility.yul\":29923:29996   */\n    tag_317:\n        /* \"#utility.yul\":29968:29971   */\n      0x00\n        /* \"#utility.yul\":29989:29990   */\n      0x00\n        /* \"#utility.yul\":29982:29990   */\n      swap1\n      pop\n        /* \"#utility.yul\":29923:29996   */\n      swap1\n      jump\t// out\n        /* \"#utility.yul\":30002:30191   */\n    tag_318:\n        /* \"#utility.yul\":30079:30111   */\n      tag_591\n      tag_317\n      jump\t// in\n    tag_591:\n        /* \"#utility.yul\":30120:30185   */\n      tag_592\n        /* \"#utility.yul\":30178:30184   */\n      dup2\n        /* \"#utility.yul\":30170:30176   */\n      dup5\n        /* \"#utility.yul\":30164:30168   */\n      dup5\n        /* \"#utility.yul\":30120:30185   */\n      tag_316\n      jump\t// in\n    tag_592:\n        /* \"#utility.yul\":30055:30191   */\n      pop\n        /* \"#utility.yul\":30002:30191   */\n      pop\n      pop\n      jump\t// out\n        /* \"#utility.yul\":30197:30383   */\n    tag_319:\n        /* \"#utility.yul\":30257:30377   */\n    tag_594:\n        /* \"#utility.yul\":30274:30277   */\n      dup2\n        /* \"#utility.yul\":30267:30272   */\n      dup2\n        /* \"#utility.yul\":30264:30278   */\n      lt\n        /* \"#utility.yul\":30257:30377   */\n      iszero\n      tag_596\n      jumpi\n        /* \"#utility.yul\":30328:30367   */\n      tag_597\n        /* \"#utility.yul\":30365:30366   */\n      0x00\n        /* \"#utility.yul\":30358:30363   */\n      dup3\n        /* \"#utility.yul\":30328:30367   */\n      tag_318\n      jump\t// in\n    tag_597:\n        /* \"#utility.yul\":30301:30302   */\n      0x01\n        /* \"#utility.yul\":30294:30299   */\n      dup2\n        /* \"#utility.yul\":30290:30303   */\n      add\n        /* \"#utility.yul\":30281:30303   */\n      swap1\n      pop\n        /* \"#utility.yul\":30257:30377   */\n      jump(tag_594)\n    tag_596:\n        /* \"#utility.yul\":30197:30383   */\n      pop\n      pop\n      jump\t// out\n        /* \"#utility.yul\":30389:30932   */\n    tag_320:\n        /* \"#utility.yul\":30490:30492   */\n      0x1f\n        /* \"#utility.yul\":30485:30488   */\n      dup3\n        /* \"#utility.yul\":30482:30493   */\n      gt\n        /* \"#utility.yul\":30479:30925   */\n      iszero\n      tag_599\n      jumpi\n        /* \"#utility.yul\":30524:30562   */\n      tag_600\n        /* \"#utility.yul\":30556:30561   */\n      dup2\n        /* \"#utility.yul\":30524:30562   */\n      tag_309\n      jump\t// in\n    tag_600:\n        /* \"#utility.yul\":30608:30637   */\n      tag_601\n        /* \"#utility.yul\":30626:30636   */\n      dup5\n        /* \"#utility.yul\":30608:30637   */\n      tag_310\n      jump\t// in\n    tag_601:\n        /* \"#utility.yul\":30598:30606   */\n      dup2\n        /* \"#utility.yul\":30594:30638   */\n      add\n        /* \"#utility.yul\":30791:30793   */\n      0x20\n        /* \"#utility.yul\":30779:30789   */\n      dup6\n        /* \"#utility.yul\":30776:30794   */\n      lt\n        /* \"#utility.yul\":30773:30822   */\n      iszero\n      tag_602\n      jumpi\n        /* \"#utility.yul\":30812:30820   */\n      dup2\n        /* \"#utility.yul\":30797:30820   */\n      swap1\n      pop\n        /* \"#utility.yul\":30773:30822   */\n    tag_602:\n        /* \"#utility.yul\":30835:30915   */\n      tag_603\n        /* \"#utility.yul\":30891:30913   */\n      tag_604\n        /* \"#utility.yul\":30909:30912   */\n      dup6\n        /* \"#utility.yul\":30891:30913   */\n      tag_310\n      jump\t// in\n    tag_604:\n        /* \"#utility.yul\":30881:30889   */\n      dup4\n        /* \"#utility.yul\":30877:30914   */\n      add\n        /* \"#utility.yul\":30864:30875   */\n      dup3\n        /* \"#utility.yul\":30835:30915   */\n      tag_319\n      jump\t// in\n    tag_603:\n        /* \"#utility.yul\":30494:30925   */\n      pop\n      pop\n        /* \"#utility.yul\":30479:30925   */\n    tag_599:\n        /* \"#utility.yul\":30389:30932   */\n      pop\n      pop\n      pop\n      jump\t// out\n        /* \"#utility.yul\":30938:31055   */\n    tag_321:\n        /* \"#utility.yul\":30992:31000   */\n      0x00\n        /* \"#utility.yul\":31042:31047   */\n      dup3\n        /* \"#utility.yul\":31036:31040   */\n      dup3\n        /* \"#utility.yul\":31032:31048   */\n      shr\n        /* \"#utility.yul\":31011:31048   */\n      swap1\n      pop\n        /* \"#utility.yul\":30938:31055   */\n      swap3\n      swap2\n      pop\n      pop\n      jump\t// out\n        /* \"#utility.yul\":31061:31230   */\n    tag_322:\n        /* \"#utility.yul\":31105:31111   */\n      0x00\n        /* \"#utility.yul\":31138:31189   */\n      tag_607\n        /* \"#utility.yul\":31186:31187   */\n      0x00\n        /* \"#utility.yul\":31182:31188   */\n      not\n        /* \"#utility.yul\":31174:31179   */\n      dup5\n        /* \"#utility.yul\":31171:31172   */\n      0x08\n        /* \"#utility.yul\":31167:31180   */\n      mul\n        /* \"#utility.yul\":31138:31189   */\n      tag_321\n      jump\t// in\n    tag_607:\n        /* \"#utility.yul\":31134:31190   */\n      not\n        /* \"#utility.yul\":31219:31223   */\n      dup1\n        /* \"#utility.yul\":31213:31217   */\n      dup4\n        /* \"#utility.yul\":31209:31224   */\n      and\n        /* \"#utility.yul\":31199:31224   */\n      swap2\n      pop\n        /* \"#utility.yul\":31112:31230   */\n      pop\n        /* \"#utility.yul\":31061:31230   */\n      swap3\n      swap2\n      pop\n      pop\n      jump\t// out\n        /* \"#utility.yul\":31235:31530   */\n    tag_323:\n        /* \"#utility.yul\":31311:31315   */\n      0x00\n        /* \"#utility.yul\":31457:31486   */\n      tag_609\n        /* \"#utility.yul\":31482:31485   */\n      dup4\n        /* \"#utility.yul\":31476:31480   */\n      dup4\n        /* \"#utility.yul\":31457:31486   */\n      tag_322\n      jump\t// in\n    tag_609:\n        /* \"#utility.yul\":31449:31486   */\n      swap2\n      pop\n        /* \"#utility.yul\":31519:31522   */\n      dup3\n        /* \"#utility.yul\":31516:31517   */\n      0x02\n        /* \"#utility.yul\":31512:31523   */\n      mul\n        /* \"#utility.yul\":31506:31510   */\n      dup3\n        /* \"#utility.yul\":31503:31524   */\n      or\n        /* \"#utility.yul\":31495:31524   */\n      swap1\n      pop\n        /* \"#utility.yul\":31235:31530   */\n      swap3\n      swap2\n      pop\n      pop\n      jump\t// out\n        /* \"#utility.yul\":31535:32930   */\n    tag_201:\n        /* \"#utility.yul\":31652:31689   */\n      tag_611\n        /* \"#utility.yul\":31685:31688   */\n      dup3\n        /* \"#utility.yul\":31652:31689   */\n      tag_248\n      jump\t// in\n    tag_611:\n        /* \"#utility.yul\":31754:31772   */\n      0xffffffffffffffff\n        /* \"#utility.yul\":31746:31752   */\n      dup2\n        /* \"#utility.yul\":31743:31773   */\n      gt\n        /* \"#utility.yul\":31740:31796   */\n      iszero\n      tag_612\n      jumpi\n        /* \"#utility.yul\":31776:31794   */\n      tag_613\n      tag_266\n      jump\t// in\n    tag_613:\n        /* \"#utility.yul\":31740:31796   */\n    tag_612:\n        /* \"#utility.yul\":31820:31858   */\n      tag_614\n        /* \"#utility.yul\":31852:31856   */\n      dup3\n        /* \"#utility.yul\":31846:31857   */\n      sload\n        /* \"#utility.yul\":31820:31858   */\n      tag_150\n      jump\t// in\n    tag_614:\n        /* \"#utility.yul\":31905:31972   */\n      tag_615\n        /* \"#utility.yul\":31965:31971   */\n      dup3\n        /* \"#utility.yul\":31957:31963   */\n      dup3\n        /* \"#utility.yul\":31951:31955   */\n      dup6\n        /* \"#utility.yul\":31905:31972   */\n      tag_320\n      jump\t// in\n    tag_615:\n        /* \"#utility.yul\":31999:32000   */\n      0x00\n        /* \"#utility.yul\":32023:32027   */\n      0x20\n        /* \"#utility.yul\":32010:32027   */\n      swap1\n      pop\n        /* \"#utility.yul\":32055:32057   */\n      0x1f\n        /* \"#utility.yul\":32047:32053   */\n      dup4\n        /* \"#utility.yul\":32044:32058   */\n      gt\n        /* \"#utility.yul\":32072:32073   */\n      0x01\n        /* \"#utility.yul\":32067:32685   */\n      dup2\n      eq\n      tag_617\n      jumpi\n        /* \"#utility.yul\":32729:32730   */\n      0x00\n        /* \"#utility.yul\":32746:32752   */\n      dup5\n        /* \"#utility.yul\":32743:32820   */\n      iszero\n      tag_618\n      jumpi\n        /* \"#utility.yul\":32795:32804   */\n      dup3\n        /* \"#utility.yul\":32790:32793   */\n      dup8\n        /* \"#utility.yul\":32786:32805   */\n      add\n        /* \"#utility.yul\":32780:32806   */\n      mload\n        /* \"#utility.yul\":32771:32806   */\n      swap1\n      pop\n        /* \"#utility.yul\":32743:32820   */\n    tag_618:\n        /* \"#utility.yul\":32846:32913   */\n      tag_619\n        /* \"#utility.yul\":32906:32912   */\n      dup6\n        /* \"#utility.yul\":32899:32904   */\n      dup3\n        /* \"#utility.yul\":32846:32913   */\n      tag_323\n      jump\t// in\n    tag_619:\n        /* \"#utility.yul\":32840:32844   */\n      dup7\n        /* \"#utility.yul\":32833:32914   */\n      sstore\n        /* \"#utility.yul\":32702:32924   */\n      pop\n        /* \"#utility.yul\":32037:32924   */\n      jump(tag_616)\n        /* \"#utility.yul\":32067:32685   */\n    tag_617:\n        /* \"#utility.yul\":32119:32123   */\n      0x1f\n        /* \"#utility.yul\":32115:32124   */\n      not\n        /* \"#utility.yul\":32107:32113   */\n      dup5\n        /* \"#utility.yul\":32103:32125   */\n      and\n        /* \"#utility.yul\":32153:32190   */\n      tag_620\n        /* \"#utility.yul\":32185:32189   */\n      dup7\n        /* \"#utility.yul\":32153:32190   */\n      tag_309\n      jump\t// in\n    tag_620:\n        /* \"#utility.yul\":32212:32213   */\n      0x00\n        /* \"#utility.yul\":32226:32434   */\n    tag_621:\n        /* \"#utility.yul\":32240:32247   */\n      dup3\n        /* \"#utility.yul\":32237:32238   */\n      dup2\n        /* \"#utility.yul\":32234:32248   */\n      lt\n        /* \"#utility.yul\":32226:32434   */\n      iszero\n      tag_623\n      jumpi\n        /* \"#utility.yul\":32319:32328   */\n      dup5\n        /* \"#utility.yul\":32314:32317   */\n      dup10\n        /* \"#utility.yul\":32310:32329   */\n      add\n        /* \"#utility.yul\":32304:32330   */\n      mload\n        /* \"#utility.yul\":32296:32302   */\n      dup3\n        /* \"#utility.yul\":32289:32331   */\n      sstore\n        /* \"#utility.yul\":32370:32371   */\n      0x01\n        /* \"#utility.yul\":32362:32368   */\n      dup3\n        /* \"#utility.yul\":32358:32372   */\n      add\n        /* \"#utility.yul\":32348:32372   */\n      swap2\n      pop\n        /* \"#utility.yul\":32417:32419   */\n      0x20\n        /* \"#utility.yul\":32406:32415   */\n      dup6\n        /* \"#utility.yul\":32402:32420   */\n      add\n        /* \"#utility.yul\":32389:32420   */\n      swap5\n      pop\n        /* \"#utility.yul\":32263:32267   */\n      0x20\n        /* \"#utility.yul\":32260:32261   */\n      dup2\n        /* \"#utility.yul\":32256:32268   */\n      add\n        /* \"#utility.yul\":32251:32268   */\n      swap1\n      pop\n        /* \"#utility.yul\":32226:32434   */\n      jump(tag_621)\n    tag_623:\n        /* \"#utility.yul\":32462:32468   */\n      dup7\n        /* \"#utility.yul\":32453:32460   */\n      dup4\n        /* \"#utility.yul\":32450:32469   */\n      lt\n        /* \"#utility.yul\":32447:32626   */\n      iszero\n      tag_624\n      jumpi\n        /* \"#utility.yul\":32520:32529   */\n      dup5\n        /* \"#utility.yul\":32515:32518   */\n      dup10\n        /* \"#utility.yul\":32511:32530   */\n      add\n        /* \"#utility.yul\":32505:32531   */\n      mload\n        /* \"#utility.yul\":32563:32611   */\n      tag_625\n        /* \"#utility.yul\":32605:32609   */\n      0x1f\n        /* \"#utility.yul\":32597:32603   */\n      dup10\n        /* \"#utility.yul\":32593:32610   */\n      and\n        /* \"#utility.yul\":32582:32591   */\n      dup3\n        /* \"#utility.yul\":32563:32611   */\n      tag_322\n      jump\t// in\n    tag_625:\n        /* \"#utility.yul\":32555:32561   */\n      dup4\n        /* \"#utility.yul\":32548:32612   */\n      sstore\n        /* \"#utility.yul\":32470:32626   */\n      pop\n        /* \"#utility.yul\":32447:32626   */\n    tag_624:\n        /* \"#utility.yul\":32672:32673   */\n      0x01\n        /* \"#utility.yul\":32668:32669   */\n      0x02\n        /* \"#utility.yul\":32660:32666   */\n      dup9\n        /* \"#utility.yul\":32656:32670   */\n      mul\n        /* \"#utility.yul\":32652:32674   */\n      add\n        /* \"#utility.yul\":32646:32650   */\n      dup9\n        /* \"#utility.yul\":32639:32675   */\n      sstore\n        /* \"#utility.yul\":32074:32685   */\n      pop\n      pop\n      pop\n        /* \"#utility.yul\":32037:32924   */\n    tag_616:\n      pop\n        /* \"#utility.yul\":31627:32930   */\n      pop\n      pop\n      pop\n        /* \"#utility.yul\":31535:32930   */\n      pop\n      pop\n      jump\t// out\n        /* \"#utility.yul\":32936:33117   */\n    tag_324:\n        /* \"#utility.yul\":33076:33109   */\n      0x5265656e7472616e637947756172643a207265656e7472616e742063616c6c00\n        /* \"#utility.yul\":33072:33073   */\n      0x00\n        /* \"#utility.yul\":33064:33070   */\n      dup3\n        /* \"#utility.yul\":33060:33074   */\n      add\n        /* \"#utility.yul\":33053:33110   */\n      mstore\n        /* \"#utility.yul\":32936:33117   */\n      pop\n      jump\t// out\n        /* \"#utility.yul\":33123:33489   */\n    tag_325:\n        /* \"#utility.yul\":33265:33268   */\n      0x00\n        /* \"#utility.yul\":33286:33353   */\n      tag_628\n        /* \"#utility.yul\":33350:33352   */\n      0x1f\n        /* \"#utility.yul\":33345:33348   */\n      dup4\n        /* \"#utility.yul\":33286:33353   */\n      tag_249\n      jump\t// in\n    tag_628:\n        /* \"#utility.yul\":33279:33353   */\n      swap2\n      pop\n        /* \"#utility.yul\":33362:33455   */\n      tag_629\n        /* \"#utility.yul\":33451:33454   */\n      dup3\n        /* \"#utility.yul\":33362:33455   */\n      tag_324\n      jump\t// in\n    tag_629:\n        /* \"#utility.yul\":33480:33482   */\n      0x20\n        /* \"#utility.yul\":33475:33478   */\n      dup3\n        /* \"#utility.yul\":33471:33483   */\n      add\n        /* \"#utility.yul\":33464:33483   */\n      swap1\n      pop\n        /* \"#utility.yul\":33123:33489   */\n      swap2\n      swap1\n      pop\n      jump\t// out\n        /* \"#utility.yul\":33495:33914   */\n    tag_209:\n        /* \"#utility.yul\":33661:33665   */\n      0x00\n        /* \"#utility.yul\":33699:33701   */\n      0x20\n        /* \"#utility.yul\":33688:33697   */\n      dup3\n        /* \"#utility.yul\":33684:33702   */\n      add\n        /* \"#utility.yul\":33676:33702   */\n      swap1\n      pop\n        /* \"#utility.yul\":33748:33757   */\n      dup2\n        /* \"#utility.yul\":33742:33746   */\n      dup2\n        /* \"#utility.yul\":33738:33758   */\n      sub\n        /* \"#utility.yul\":33734:33735   */\n      0x00\n        /* \"#utility.yul\":33723:33732   */\n      dup4\n        /* \"#utility.yul\":33719:33736   */\n      add\n        /* \"#utility.yul\":33712:33759   */\n      mstore\n        /* \"#utility.yul\":33776:33907   */\n      tag_631\n        /* \"#utility.yul\":33902:33906   */\n      dup2\n        /* \"#utility.yul\":33776:33907   */\n      tag_325\n      jump\t// in\n    tag_631:\n        /* \"#utility.yul\":33768:33907   */\n      swap1\n      pop\n        /* \"#utility.yul\":33495:33914   */\n      swap2\n      swap1\n      pop\n      jump\t// out\n        /* \"#utility.yul\":33920:34100   */\n    tag_219:\n        /* \"#utility.yul\":33968:34045   */\n      0x4e487b7100000000000000000000000000000000000000000000000000000000\n        /* \"#utility.yul\":33965:33966   */\n      0x00\n        /* \"#utility.yul\":33958:34046   */\n      mstore\n        /* \"#utility.yul\":34065:34069   */\n      0x32\n        /* \"#utility.yul\":34062:34063   */\n      0x04\n        /* \"#utility.yul\":34055:34070   */\n      mstore\n        /* \"#utility.yul\":34089:34093   */\n      0x24\n        /* \"#utility.yul\":34086:34087   */\n      0x00\n        /* \"#utility.yul\":34079:34094   */\n      revert\n        /* \"#utility.yul\":34106:34286   */\n    tag_231:\n        /* \"#utility.yul\":34154:34231   */\n      0x4e487b7100000000000000000000000000000000000000000000000000000000\n        /* \"#utility.yul\":34151:34152   */\n      0x00\n        /* \"#utility.yul\":34144:34232   */\n      mstore\n        /* \"#utility.yul\":34251:34255   */\n      0x31\n        /* \"#utility.yul\":34248:34249   */\n      0x04\n        /* \"#utility.yul\":34241:34256   */\n      mstore\n        /* \"#utility.yul\":34275:34279   */\n      0x24\n        /* \"#utility.yul\":34272:34273   */\n      0x00\n        /* \"#utility.yul\":34265:34280   */\n      revert\n        /* \"#utility.yul\":34292:34525   */\n    tag_237:\n        /* \"#utility.yul\":34331:34334   */\n      0x00\n        /* \"#utility.yul\":34354:34378   */\n      tag_635\n        /* \"#utility.yul\":34372:34377   */\n      dup3\n        /* \"#utility.yul\":34354:34378   */\n      tag_241\n      jump\t// in\n    tag_635:\n        /* \"#utility.yul\":34345:34378   */\n      swap2\n      pop\n        /* \"#utility.yul\":34400:34466   */\n      0xffffffffffffffffffffffffffffffffffffffffffffffffffffffffffffffff\n        /* \"#utility.yul\":34393:34398   */\n      dup3\n        /* \"#utility.yul\":34390:34467   */\n      sub\n        /* \"#utility.yul\":34387:34490   */\n      tag_636\n      jumpi\n        /* \"#utility.yul\":34470:34488   */\n      tag_637\n      tag_285\n      jump\t// in\n    tag_637:\n        /* \"#utility.yul\":34387:34490   */\n    tag_636:\n        /* \"#utility.yul\":34517:34518   */\n      0x01\n        /* \"#utility.yul\":34510:34515   */\n      dup3\n        /* \"#utility.yul\":34506:34519   */\n      add\n        /* \"#utility.yul\":34499:34519   */\n      swap1\n      pop\n        /* \"#utility.yul\":34292:34525   */\n      swap2\n      swap1\n      pop\n      jump\t// out\n\n    auxdata: 0xa26469706673582212207282853f54c4556812027ec32e39668f917bdc01bc22a6600f20140da707281e64736f6c634300081b0033\n}\n",
				"bytecode": {
					"linkReferences": {},
					"object": "608060405234801561000f575f5ffd5b50604051612709380380612709833981810160405281019061003191906100ee565b60015f819055503360015f6101000a81548173ffffffffffffffffffffffffffffffffffffffff021916908373ffffffffffffffffffffffffffffffffffffffff160217905550806002819055505f60035f6101000a81548160ff0219169083151502179055506100a75f6100ad60201b60201c565b50610119565b8060048190555050565b5f5ffd5b5f819050919050565b6100cd816100bb565b81146100d7575f5ffd5b50565b5f815190506100e8816100c4565b92915050565b5f60208284031215610103576101026100b7565b5b5f610110848285016100da565b91505092915050565b6125e3806101265f395ff3fe6080604052600436106100dc575f3560e01c80638456cb591161007e578063d63d4af011610058578063d63d4af014610284578063d85d3d27146102c0578063ddca3f43146102e8578063de74e57b14610312576100dc565b80638456cb591461021c5780638da5cb5b1461023257806394383f141461025c576100dc565b806328b60031116100ba57806328b60031146101645780633bb3a24d146101a05780633f4ba83a146101dc5780635c975abb146101f2576100dc565b8063150bde03146100e057806318160ddd146100fc578063265aa62114610126575b5f5ffd5b6100fa60048036038101906100f59190611545565b610350565b005b348015610107575f5ffd5b50610110610a21565b60405161011d919061157f565b60405180910390f35b348015610131575f5ffd5b5061014c60048036038101906101479190611545565b610a27565b60405161015b93929190611647565b60405180910390f35b34801561016f575f5ffd5b5061018a600480360381019061018591906116ad565b610af2565b604051610197919061157f565b60405180910390f35b3480156101ab575f5ffd5b506101c660048036038101906101c19190611545565b610b1d565b6040516101d391906116eb565b60405180910390f35b3480156101e7575f5ffd5b506101f0610bc1565b005b3480156101fd575f5ffd5b50610206610c97565b6040516102139190611725565b60405180910390f35b348015610227575f5ffd5b50610230610ca9565b005b34801561023d575f5ffd5b50610246610d80565b604051610253919061173e565b60405180910390f35b348015610267575f5ffd5b50610282600480360381019061027d9190611757565b610da5565b005b34801561028f575f5ffd5b506102aa60048036038101906102a59190611795565b610f7a565b6040516102b79190611877565b60405180910390f35b3480156102cb575f5ffd5b506102e660048036038101906102e191906119c3565b61100d565b005b3480156102f3575f5ffd5b506102fc6112e5565b604051610309919061157f565b60405180910390f35b34801561031d575f5ffd5b5061033860048036038101906103339190611545565b6112eb565b60405161034793929190611a0a565b60405180910390f35b60035f9054906101000a900460ff161561039f576040517f08c379a000000000000000000000000000000000000000000000000000000000815260040161039690611a89565b60405180910390fd5b6103a761133d565b5f60065f8381526020019081526020015f206040518060600160405290815f8201548152602001600182015f9054906101000a900473ffffffffffffffffffffffffffffffffffffffff1673ffffffffffffffffffffffffffffffffffffffff1673ffffffffffffffffffffffffffffffffffffffff1681526020016001820160149054906101000a900460ff16151515158152505090508060400151610483576040517f08c379a000000000000000000000000000000000000000000000000000000000815260040161047a90611af1565b60405180910390fd5b805f01513410156104c9576040517f08c379a00000000000000000000000000000000000000000000000000000000081526004016104c090611b59565b60405180910390fd5b5f815f015190505f826020015190505f73ffffffffffffffffffffffffffffffffffffffff168173ffffffffffffffffffffffffffffffffffffffff1603610546576040517f08c379a000000000000000000000000000000000000000000000000000000000815260040161053d90611bc1565b60405180910390fd5b5f73ffffffffffffffffffffffffffffffffffffffff1660015f9054906101000a900473ffffffffffffffffffffffffffffffffffffffff1673ffffffffffffffffffffffffffffffffffffffff16036105d5576040517f08c379a00000000000000000000000000000000000000000000000000000000081526004016105cc90611c29565b60405180910390fd5b8073ffffffffffffffffffffffffffffffffffffffff1660055f8681526020019081526020015f206001015f9054906101000a900473ffffffffffffffffffffffffffffffffffffffff1673ffffffffffffffffffffffffffffffffffffffff1614610676576040517f08c379a000000000000000000000000000000000000000000000000000000000815260040161066d90611c91565b60405180910390fd5b5f6064600254846106879190611cdc565b6106919190611d4a565b90505f81846106a09190611d7a565b90503360055f8881526020019081526020015f206001015f6101000a81548173ffffffffffffffffffffffffffffffffffffffff021916908373ffffffffffffffffffffffffffffffffffffffff1602179055506106fe838761138a565b60075f3373ffffffffffffffffffffffffffffffffffffffff1673ffffffffffffffffffffffffffffffffffffffff1681526020019081526020015f2086908060018154018082558091505060019003905f5260205f20015f90919091909150555f60065f8881526020019081526020015f2060010160146101000a81548160ff0219169083151502179055505f60015f9054906101000a900473ffffffffffffffffffffffffffffffffffffffff1673ffffffffffffffffffffffffffffffffffffffff16836040516107d190611dda565b5f6040518083038185875af1925050503d805f811461080b576040519150601f19603f3d011682016040523d82523d5f602084013e610810565b606091505b5050905080610854576040517f08c379a000000000000000000000000000000000000000000000000000000000815260040161084b90611e38565b60405180910390fd5b5f8473ffffffffffffffffffffffffffffffffffffffff168360405161087990611dda565b5f6040518083038185875af1925050503d805f81146108b3576040519150601f19603f3d011682016040523d82523d5f602084013e6108b8565b606091505b50509050806108fc576040517f08c379a00000000000000000000000000000000000000000000000000000000081526004016108f390611ea0565b60405180910390fd5b5f86346109099190611d7a565b90505f8111156109bd575f3373ffffffffffffffffffffffffffffffffffffffff168260405161093890611dda565b5f6040518083038185875af1925050503d805f8114610972576040519150601f19603f3d011682016040523d82523d5f602084013e610977565b606091505b50509050806109bb576040517f08c379a00000000000000000000000000000000000000000000000000000000081526004016109b290611f08565b60405180910390fd5b505b883373ffffffffffffffffffffffffffffffffffffffff167f25d1144310b3f5e9cb8ad2e2bd379aef97847a57087ab9cbcd95a06105a4629c8988604051610a06929190611f26565b60405180910390a35050505050505050610a1e6114d3565b50565b60045481565b6005602052805f5260405f205f91509050805f015490806001015f9054906101000a900473ffffffffffffffffffffffffffffffffffffffff1690806002018054610a7190611f7a565b80601f0160208091040260200160405190810160405280929190818152602001828054610a9d90611f7a565b8015610ae85780601f10610abf57610100808354040283529160200191610ae8565b820191905f5260205f20905b815481529060010190602001808311610acb57829003601f168201915b5050505050905083565b6007602052815f5260405f208181548110610b0b575f80fd5b905f5260205f20015f91509150505481565b606060055f8381526020019081526020015f206002018054610b3e90611f7a565b80601f0160208091040260200160405190810160405280929190818152602001828054610b6a90611f7a565b8015610bb55780601f10610b8c57610100808354040283529160200191610bb5565b820191905f5260205f20905b815481529060010190602001808311610b9857829003601f168201915b50505050509050919050565b60015f9054906101000a900473ffffffffffffffffffffffffffffffffffffffff1673ffffffffffffffffffffffffffffffffffffffff163373ffffffffffffffffffffffffffffffffffffffff1614610c50576040517f08c379a0000000000000000000000000000000000000000000000000000000008152600401610c4790611ff4565b60405180910390fd5b5f60035f6101000a81548160ff0219169083151502179055507fa45f47fdea8a1efdd9029a5691c7f759c32b7c698632b563573e155625d1693360405160405180910390a1565b60035f9054906101000a900460ff1681565b60015f9054906101000a900473ffffffffffffffffffffffffffffffffffffffff1673ffffffffffffffffffffffffffffffffffffffff163373ffffffffffffffffffffffffffffffffffffffff1614610d38576040517f08c379a0000000000000000000000000000000000000000000000000000000008152600401610d2f90611ff4565b60405180910390fd5b600160035f6101000a81548160ff0219169083151502179055507f9e87fac88ff661f02d44f95383c817fece4bce600a3dab7a54406878b965e75260405160405180910390a1565b60015f9054906101000a900473ffffffffffffffffffffffffffffffffffffffff1681565b3373ffffffffffffffffffffffffffffffffffffffff1660055f8481526020019081526020015f206001015f9054906101000a900473ffffffffffffffffffffffffffffffffffffffff1673ffffffffffffffffffffffffffffffffffffffff1614610e46576040517f08c379a0000000000000000000000000000000000000000000000000000000008152600401610e3d9061205c565b60405180910390fd5b5f8111610e88576040517f08c379a0000000000000000000000000000000000000000000000000000000008152600401610e7f906120c4565b60405180910390fd5b60405180606001604052808281526020013373ffffffffffffffffffffffffffffffffffffffff1681526020016001151581525060065f8481526020019081526020015f205f820151815f01556020820151816001015f6101000a81548173ffffffffffffffffffffffffffffffffffffffff021916908373ffffffffffffffffffffffffffffffffffffffff16021790555060408201518160010160146101000a81548160ff021916908315150217905550905050817fa6cd73580a273eec6c1026108f6b63479fbaef5356dde4ff43e4b38dd187485f82604051610f6e919061157f565b60405180910390a25050565b606060075f8373ffffffffffffffffffffffffffffffffffffffff1673ffffffffffffffffffffffffffffffffffffffff1681526020019081526020015f2080548060200260200160405190810160405280929190818152602001828054801561100157602002820191905f5260205f20905b815481526020019060010190808311610fed575b50505050509050919050565b60035f9054906101000a900460ff161561105c576040517f08c379a000000000000000000000000000000000000000000000000000000000815260040161105390611a89565b60405180910390fd5b8060085f82604051602001611071919061211c565b6040516020818303038152906040528051906020012081526020019081526020015f205f9054906101000a900460ff16156110e1576040517f08c379a00000000000000000000000000000000000000000000000000000000081526004016110d89061217c565b60405180910390fd5b6110ea826114dc565b611129576040517f08c379a0000000000000000000000000000000000000000000000000000000008152600401611120906121e4565b60405180910390fd5b5f60016004546111399190612202565b905060405180606001604052808281526020013373ffffffffffffffffffffffffffffffffffffffff1681526020018481525060055f8381526020019081526020015f205f820151815f01556020820151816001015f6101000a81548173ffffffffffffffffffffffffffffffffffffffff021916908373ffffffffffffffffffffffffffffffffffffffff16021790555060408201518160020190816111e091906123d5565b5090505060075f3373ffffffffffffffffffffffffffffffffffffffff1673ffffffffffffffffffffffffffffffffffffffff1681526020019081526020015f2081908060018154018082558091505060019003905f5260205f20015f9091909190915055600160085f8560405160200161125b919061211c565b6040516020818303038152906040528051906020012081526020019081526020015f205f6101000a81548160ff02191690831515021790555061129c6114e8565b803373ffffffffffffffffffffffffffffffffffffffff167f4cc0a9c4a99ddc700de1af2c9f916a7cbfdb71f14801ccff94061ad1ef8a804060405160405180910390a3505050565b60025481565b6006602052805f5260405f205f91509050805f015490806001015f9054906101000a900473ffffffffffffffffffffffffffffffffffffffff16908060010160149054906101000a900460ff16905083565b60025f5403611381576040517f08c379a0000000000000000000000000000000000000000000000000000000008152600401611378906124ee565b60405180910390fd5b60025f81905550565b60035f9054906101000a900460ff16156113d9576040517f08c379a00000000000000000000000000000000000000000000000000000000081526004016113d090611a89565b60405180910390fd5b5f60075f8473ffffffffffffffffffffffffffffffffffffffff1673ffffffffffffffffffffffffffffffffffffffff1681526020019081526020015f2090505f5f90505b81805490508110156114cd578282828154811061143e5761143d61250c565b5b905f5260205f200154036114c057816001838054905061145e9190611d7a565b8154811061146f5761146e61250c565b5b905f5260205f20015482828154811061148b5761148a61250c565b5b905f5260205f200181905550818054806114a8576114a7612539565b5b600190038181905f5260205f20015f905590556114cd565b808060010191505061141e565b50505050565b60015f81905550565b5f5f8251119050919050565b60045f8154809291906114fa90612566565b9190505550565b5f604051905090565b5f5ffd5b5f5ffd5b5f819050919050565b61152481611512565b811461152e575f5ffd5b50565b5f8135905061153f8161151b565b92915050565b5f6020828403121561155a5761155961150a565b5b5f61156784828501611531565b91505092915050565b61157981611512565b82525050565b5f6020820190506115925f830184611570565b92915050565b5f73ffffffffffffffffffffffffffffffffffffffff82169050919050565b5f6115c182611598565b9050919050565b6115d1816115b7565b82525050565b5f81519050919050565b5f82825260208201905092915050565b8281835e5f83830152505050565b5f601f19601f8301169050919050565b5f611619826115d7565b61162381856115e1565b93506116338185602086016115f1565b61163c816115ff565b840191505092915050565b5f60608201905061165a5f830186611570565b61166760208301856115c8565b8181036040830152611679818461160f565b9050949350505050565b61168c816115b7565b8114611696575f5ffd5b50565b5f813590506116a781611683565b92915050565b5f5f604083850312156116c3576116c261150a565b5b5f6116d085828601611699565b92505060206116e185828601611531565b9150509250929050565b5f6020820190508181035f830152611703818461160f565b905092915050565b5f8115159050919050565b61171f8161170b565b82525050565b5f6020820190506117385f830184611716565b92915050565b5f6020820190506117515f8301846115c8565b92915050565b5f5f6040838503121561176d5761176c61150a565b5b5f61177a85828601611531565b925050602061178b85828601611531565b9150509250929050565b5f602082840312156117aa576117a961150a565b5b5f6117b784828501611699565b91505092915050565b5f81519050919050565b5f82825260208201905092915050565b5f819050602082019050919050565b6117f281611512565b82525050565b5f61180383836117e9565b60208301905092915050565b5f602082019050919050565b5f611825826117c0565b61182f81856117ca565b935061183a836117da565b805f5b8381101561186a57815161185188826117f8565b975061185c8361180f565b92505060018101905061183d565b5085935050505092915050565b5f6020820190508181035f83015261188f818461181b565b905092915050565b5f5ffd5b5f5ffd5b7f4e487b71000000000000000000000000000000000000000000000000000000005f52604160045260245ffd5b6118d5826115ff565b810181811067ffffffffffffffff821117156118f4576118f361189f565b5b80604052505050565b5f611906611501565b905061191282826118cc565b919050565b5f67ffffffffffffffff8211156119315761193061189f565b5b61193a826115ff565b9050602081019050919050565b828183375f83830152505050565b5f61196761196284611917565b6118fd565b9050828152602081018484840111156119835761198261189b565b5b61198e848285611947565b509392505050565b5f82601f8301126119aa576119a9611897565b5b81356119ba848260208601611955565b91505092915050565b5f602082840312156119d8576119d761150a565b5b5f82013567ffffffffffffffff8111156119f5576119f461150e565b5b611a0184828501611996565b91505092915050565b5f606082019050611a1d5f830186611570565b611a2a60208301856115c8565b611a376040830184611716565b949350505050565b7f436f6e74726163742069732070617573656400000000000000000000000000005f82015250565b5f611a736012836115e1565b9150611a7e82611a3f565b602082019050919050565b5f6020820190508181035f830152611aa081611a67565b9050919050565b7f4e4654206973206e6f7420666f722073616c65000000000000000000000000005f82015250565b5f611adb6013836115e1565b9150611ae682611aa7565b602082019050919050565b5f6020820190508181035f830152611b0881611acf565b9050919050565b7f496e73756666696369656e742066756e647300000000000000000000000000005f82015250565b5f611b436012836115e1565b9150611b4e82611b0f565b602082019050919050565b5f6020820190508181035f830152611b7081611b37565b9050919050565b7f53656c6c65722061646472657373206973207a65726f000000000000000000005f82015250565b5f611bab6016836115e1565b9150611bb682611b77565b602082019050919050565b5f6020820190508181035f830152611bd881611b9f565b9050919050565b7f4f776e65722061646472657373206973207a65726f00000000000000000000005f82015250565b5f611c136015836115e1565b9150611c1e82611bdf565b602082019050919050565b5f6020820190508181035f830152611c4081611c07565b9050919050565b7f53656c6c6572206e6f206c6f6e676572206f776e732074686973204e465400005f82015250565b5f611c7b601e836115e1565b9150611c8682611c47565b602082019050919050565b5f6020820190508181035f830152611ca881611c6f565b9050919050565b7f4e487b71000000000000000000000000000000000000000000000000000000005f52601160045260245ffd5b5f611ce682611512565b9150611cf183611512565b9250828202611cff81611512565b91508282048414831517611d1657611d15611caf565b5b5092915050565b7f4e487b71000000000000000000000000000000000000000000000000000000005f52601260045260245ffd5b5f611d5482611512565b9150611d5f83611512565b925082611d6f57611d6e611d1d565b5b828204905092915050565b5f611d8482611512565b9150611d8f83611512565b9250828203905081811115611da757611da6611caf565b5b92915050565b5f81905092915050565b50565b5f611dc55f83611dad565b9150611dd082611db7565b5f82019050919050565b5f611de482611dba565b9150819050919050565b7f4661696c656420746f2073656e642066656520746f206f776e657200000000005f82015250565b5f611e22601b836115e1565b9150611e2d82611dee565b602082019050919050565b5f6020820190508181035f830152611e4f81611e16565b9050919050565b7f4661696c656420746f2073656e6420616d6f756e7420746f2073656c6c6572005f82015250565b5f611e8a601f836115e1565b9150611e9582611e56565b602082019050919050565b5f6020820190508181035f830152611eb781611e7e565b9050919050565b7f4661696c656420746f20726566756e642065786365737320616d6f756e7400005f82015250565b5f611ef2601e836115e1565b9150611efd82611ebe565b602082019050919050565b5f6020820190508181035f830152611f1f81611ee6565b9050919050565b5f604082019050611f395f830185611570565b611f466020830184611570565b9392505050565b7f4e487b71000000000000000000000000000000000000000000000000000000005f52602260045260245ffd5b5f6002820490506001821680611f9157607f821691505b602082108103611fa457611fa3611f4d565b5b50919050565b7f4e6f742074686520636f6e7472616374206f776e6572000000000000000000005f82015250565b5f611fde6016836115e1565b9150611fe982611faa565b602082019050919050565b5f6020820190508181035f83015261200b81611fd2565b9050919050565b7f4e6f7420746865206f776e6572000000000000000000000000000000000000005f82015250565b5f612046600d836115e1565b915061205182612012565b602082019050919050565b5f6020820190508181035f8301526120738161203a565b9050919050565b7f5072696365206d7573742062652067726561746572207468616e207a65726f005f82015250565b5f6120ae601f836115e1565b91506120b98261207a565b602082019050919050565b5f6020820190508181035f8301526120db816120a2565b9050919050565b5f81905092915050565b5f6120f6826115d7565b61210081856120e2565b93506121108185602086016115f1565b80840191505092915050565b5f61212782846120ec565b915081905092915050565b7f546f6b656e2055524920616c72656164792065786973747300000000000000005f82015250565b5f6121666018836115e1565b915061217182612132565b602082019050919050565b5f6020820190508181035f8301526121938161215a565b9050919050565b7f546f6b656e2055524920697320656d70747921000000000000000000000000005f82015250565b5f6121ce6013836115e1565b91506121d98261219a565b602082019050919050565b5f6020820190508181035f8301526121fb816121c2565b9050919050565b5f61220c82611512565b915061221783611512565b925082820190508082111561222f5761222e611caf565b5b92915050565b5f819050815f5260205f209050919050565b5f6020601f8301049050919050565b5f82821b905092915050565b5f600883026122917fffffffffffffffffffffffffffffffffffffffffffffffffffffffffffffffff82612256565b61229b8683612256565b95508019841693508086168417925050509392505050565b5f819050919050565b5f6122d66122d16122cc84611512565b6122b3565b611512565b9050919050565b5f819050919050565b6122ef836122bc565b6123036122fb826122dd565b848454612262565b825550505050565b5f5f905090565b61231a61230b565b6123258184846122e6565b505050565b5b818110156123485761233d5f82612312565b60018101905061232b565b5050565b601f82111561238d5761235e81612235565b61236784612247565b81016020851015612376578190505b61238a61238285612247565b83018261232a565b50505b505050565b5f82821c905092915050565b5f6123ad5f1984600802612392565b1980831691505092915050565b5f6123c5838361239e565b9150826002028217905092915050565b6123de826115d7565b67ffffffffffffffff8111156123f7576123f661189f565b5b6124018254611f7a565b61240c82828561234c565b5f60209050601f83116001811461243d575f841561242b578287015190505b61243585826123ba565b86555061249c565b601f19841661244b86612235565b5f5b828110156124725784890151825560018201915060208501945060208101905061244d565b8683101561248f578489015161248b601f89168261239e565b8355505b6001600288020188555050505b505050505050565b7f5265656e7472616e637947756172643a207265656e7472616e742063616c6c005f82015250565b5f6124d8601f836115e1565b91506124e3826124a4565b602082019050919050565b5f6020820190508181035f830152612505816124cc565b9050919050565b7f4e487b71000000000000000000000000000000000000000000000000000000005f52603260045260245ffd5b7f4e487b71000000000000000000000000000000000000000000000000000000005f52603160045260245ffd5b5f61257082611512565b91507fffffffffffffffffffffffffffffffffffffffffffffffffffffffffffffffff82036125a2576125a1611caf565b5b60018201905091905056fea26469706673582212207282853f54c4556812027ec32e39668f917bdc01bc22a6600f20140da707281e64736f6c634300081b0033",
					"opcodes": "PUSH1 0x80 PUSH1 0x40 MSTORE CALLVALUE DUP1 ISZERO PUSH2 0xF JUMPI PUSH0 PUSH0 REVERT JUMPDEST POP PUSH1 0x40 MLOAD PUSH2 0x2709 CODESIZE SUB DUP1 PUSH2 0x2709 DUP4 CODECOPY DUP2 DUP2 ADD PUSH1 0x40 MSTORE DUP2 ADD SWAP1 PUSH2 0x31 SWAP2 SWAP1 PUSH2 0xEE JUMP JUMPDEST PUSH1 0x1 PUSH0 DUP2 SWAP1 SSTORE POP CALLER PUSH1 0x1 PUSH0 PUSH2 0x100 EXP DUP2 SLOAD DUP2 PUSH20 0xFFFFFFFFFFFFFFFFFFFFFFFFFFFFFFFFFFFFFFFF MUL NOT AND SWAP1 DUP4 PUSH20 0xFFFFFFFFFFFFFFFFFFFFFFFFFFFFFFFFFFFFFFFF AND MUL OR SWAP1 SSTORE POP DUP1 PUSH1 0x2 DUP2 SWAP1 SSTORE POP PUSH0 PUSH1 0x3 PUSH0 PUSH2 0x100 EXP DUP2 SLOAD DUP2 PUSH1 0xFF MUL NOT AND SWAP1 DUP4 ISZERO ISZERO MUL OR SWAP1 SSTORE POP PUSH2 0xA7 PUSH0 PUSH2 0xAD PUSH1 0x20 SHL PUSH1 0x20 SHR JUMP JUMPDEST POP PUSH2 0x119 JUMP JUMPDEST DUP1 PUSH1 0x4 DUP2 SWAP1 SSTORE POP POP JUMP JUMPDEST PUSH0 PUSH0 REVERT JUMPDEST PUSH0 DUP2 SWAP1 POP SWAP2 SWAP1 POP JUMP JUMPDEST PUSH2 0xCD DUP2 PUSH2 0xBB JUMP JUMPDEST DUP2 EQ PUSH2 0xD7 JUMPI PUSH0 PUSH0 REVERT JUMPDEST POP JUMP JUMPDEST PUSH0 DUP2 MLOAD SWAP1 POP PUSH2 0xE8 DUP2 PUSH2 0xC4 JUMP JUMPDEST SWAP3 SWAP2 POP POP JUMP JUMPDEST PUSH0 PUSH1 0x20 DUP3 DUP5 SUB SLT ISZERO PUSH2 0x103 JUMPI PUSH2 0x102 PUSH2 0xB7 JUMP JUMPDEST JUMPDEST PUSH0 PUSH2 0x110 DUP5 DUP3 DUP6 ADD PUSH2 0xDA JUMP JUMPDEST SWAP2 POP POP SWAP3 SWAP2 POP POP JUMP JUMPDEST PUSH2 0x25E3 DUP1 PUSH2 0x126 PUSH0 CODECOPY PUSH0 RETURN INVALID PUSH1 0x80 PUSH1 0x40 MSTORE PUSH1 0x4 CALLDATASIZE LT PUSH2 0xDC JUMPI PUSH0 CALLDATALOAD PUSH1 0xE0 SHR DUP1 PUSH4 0x8456CB59 GT PUSH2 0x7E JUMPI DUP1 PUSH4 0xD63D4AF0 GT PUSH2 0x58 JUMPI DUP1 PUSH4 0xD63D4AF0 EQ PUSH2 0x284 JUMPI DUP1 PUSH4 0xD85D3D27 EQ PUSH2 0x2C0 JUMPI DUP1 PUSH4 0xDDCA3F43 EQ PUSH2 0x2E8 JUMPI DUP1 PUSH4 0xDE74E57B EQ PUSH2 0x312 JUMPI PUSH2 0xDC JUMP JUMPDEST DUP1 PUSH4 0x8456CB59 EQ PUSH2 0x21C JUMPI DUP1 PUSH4 0x8DA5CB5B EQ PUSH2 0x232 JUMPI DUP1 PUSH4 0x94383F14 EQ PUSH2 0x25C JUMPI PUSH2 0xDC JUMP JUMPDEST DUP1 PUSH4 0x28B60031 GT PUSH2 0xBA JUMPI DUP1 PUSH4 0x28B60031 EQ PUSH2 0x164 JUMPI DUP1 PUSH4 0x3BB3A24D EQ PUSH2 0x1A0 JUMPI DUP1 PUSH4 0x3F4BA83A EQ PUSH2 0x1DC JUMPI DUP1 PUSH4 0x5C975ABB EQ PUSH2 0x1F2 JUMPI PUSH2 0xDC JUMP JUMPDEST DUP1 PUSH4 0x150BDE03 EQ PUSH2 0xE0 JUMPI DUP1 PUSH4 0x18160DDD EQ PUSH2 0xFC JUMPI DUP1 PUSH4 0x265AA621 EQ PUSH2 0x126 JUMPI JUMPDEST PUSH0 PUSH0 REVERT JUMPDEST PUSH2 0xFA PUSH1 0x4 DUP1 CALLDATASIZE SUB DUP2 ADD SWAP1 PUSH2 0xF5 SWAP2 SWAP1 PUSH2 0x1545 JUMP JUMPDEST PUSH2 0x350 JUMP JUMPDEST STOP JUMPDEST CALLVALUE DUP1 ISZERO PUSH2 0x107 JUMPI PUSH0 PUSH0 REVERT JUMPDEST POP PUSH2 0x110 PUSH2 0xA21 JUMP JUMPDEST PUSH1 0x40 MLOAD PUSH2 0x11D SWAP2 SWAP1 PUSH2 0x157F JUMP JUMPDEST PUSH1 0x40 MLOAD DUP1 SWAP2 SUB SWAP1 RETURN JUMPDEST CALLVALUE DUP1 ISZERO PUSH2 0x131 JUMPI PUSH0 PUSH0 REVERT JUMPDEST POP PUSH2 0x14C PUSH1 0x4 DUP1 CALLDATASIZE SUB DUP2 ADD SWAP1 PUSH2 0x147 SWAP2 SWAP1 PUSH2 0x1545 JUMP JUMPDEST PUSH2 0xA27 JUMP JUMPDEST PUSH1 0x40 MLOAD PUSH2 0x15B SWAP4 SWAP3 SWAP2 SWAP1 PUSH2 0x1647 JUMP JUMPDEST PUSH1 0x40 MLOAD DUP1 SWAP2 SUB SWAP1 RETURN JUMPDEST CALLVALUE DUP1 ISZERO PUSH2 0x16F JUMPI PUSH0 PUSH0 REVERT JUMPDEST POP PUSH2 0x18A PUSH1 0x4 DUP1 CALLDATASIZE SUB DUP2 ADD SWAP1 PUSH2 0x185 SWAP2 SWAP1 PUSH2 0x16AD JUMP JUMPDEST PUSH2 0xAF2 JUMP JUMPDEST PUSH1 0x40 MLOAD PUSH2 0x197 SWAP2 SWAP1 PUSH2 0x157F JUMP JUMPDEST PUSH1 0x40 MLOAD DUP1 SWAP2 SUB SWAP1 RETURN JUMPDEST CALLVALUE DUP1 ISZERO PUSH2 0x1AB JUMPI PUSH0 PUSH0 REVERT JUMPDEST POP PUSH2 0x1C6 PUSH1 0x4 DUP1 CALLDATASIZE SUB DUP2 ADD SWAP1 PUSH2 0x1C1 SWAP2 SWAP1 PUSH2 0x1545 JUMP JUMPDEST PUSH2 0xB1D JUMP JUMPDEST PUSH1 0x40 MLOAD PUSH2 0x1D3 SWAP2 SWAP1 PUSH2 0x16EB JUMP JUMPDEST PUSH1 0x40 MLOAD DUP1 SWAP2 SUB SWAP1 RETURN JUMPDEST CALLVALUE DUP1 ISZERO PUSH2 0x1E7 JUMPI PUSH0 PUSH0 REVERT JUMPDEST POP PUSH2 0x1F0 PUSH2 0xBC1 JUMP JUMPDEST STOP JUMPDEST CALLVALUE DUP1 ISZERO PUSH2 0x1FD JUMPI PUSH0 PUSH0 REVERT JUMPDEST POP PUSH2 0x206 PUSH2 0xC97 JUMP JUMPDEST PUSH1 0x40 MLOAD PUSH2 0x213 SWAP2 SWAP1 PUSH2 0x1725 JUMP JUMPDEST PUSH1 0x40 MLOAD DUP1 SWAP2 SUB SWAP1 RETURN JUMPDEST CALLVALUE DUP1 ISZERO PUSH2 0x227 JUMPI PUSH0 PUSH0 REVERT JUMPDEST POP PUSH2 0x230 PUSH2 0xCA9 JUMP JUMPDEST STOP JUMPDEST CALLVALUE DUP1 ISZERO PUSH2 0x23D JUMPI PUSH0 PUSH0 REVERT JUMPDEST POP PUSH2 0x246 PUSH2 0xD80 JUMP JUMPDEST PUSH1 0x40 MLOAD PUSH2 0x253 SWAP2 SWAP1 PUSH2 0x173E JUMP JUMPDEST PUSH1 0x40 MLOAD DUP1 SWAP2 SUB SWAP1 RETURN JUMPDEST CALLVALUE DUP1 ISZERO PUSH2 0x267 JUMPI PUSH0 PUSH0 REVERT JUMPDEST POP PUSH2 0x282 PUSH1 0x4 DUP1 CALLDATASIZE SUB DUP2 ADD SWAP1 PUSH2 0x27D SWAP2 SWAP1 PUSH2 0x1757 JUMP JUMPDEST PUSH2 0xDA5 JUMP JUMPDEST STOP JUMPDEST CALLVALUE DUP1 ISZERO PUSH2 0x28F JUMPI PUSH0 PUSH0 REVERT JUMPDEST POP PUSH2 0x2AA PUSH1 0x4 DUP1 CALLDATASIZE SUB DUP2 ADD SWAP1 PUSH2 0x2A5 SWAP2 SWAP1 PUSH2 0x1795 JUMP JUMPDEST PUSH2 0xF7A JUMP JUMPDEST PUSH1 0x40 MLOAD PUSH2 0x2B7 SWAP2 SWAP1 PUSH2 0x1877 JUMP JUMPDEST PUSH1 0x40 MLOAD DUP1 SWAP2 SUB SWAP1 RETURN JUMPDEST CALLVALUE DUP1 ISZERO PUSH2 0x2CB JUMPI PUSH0 PUSH0 REVERT JUMPDEST POP PUSH2 0x2E6 PUSH1 0x4 DUP1 CALLDATASIZE SUB DUP2 ADD SWAP1 PUSH2 0x2E1 SWAP2 SWAP1 PUSH2 0x19C3 JUMP JUMPDEST PUSH2 0x100D JUMP JUMPDEST STOP JUMPDEST CALLVALUE DUP1 ISZERO PUSH2 0x2F3 JUMPI PUSH0 PUSH0 REVERT JUMPDEST POP PUSH2 0x2FC PUSH2 0x12E5 JUMP JUMPDEST PUSH1 0x40 MLOAD PUSH2 0x309 SWAP2 SWAP1 PUSH2 0x157F JUMP JUMPDEST PUSH1 0x40 MLOAD DUP1 SWAP2 SUB SWAP1 RETURN JUMPDEST CALLVALUE DUP1 ISZERO PUSH2 0x31D JUMPI PUSH0 PUSH0 REVERT JUMPDEST POP PUSH2 0x338 PUSH1 0x4 DUP1 CALLDATASIZE SUB DUP2 ADD SWAP1 PUSH2 0x333 SWAP2 SWAP1 PUSH2 0x1545 JUMP JUMPDEST PUSH2 0x12EB JUMP JUMPDEST PUSH1 0x40 MLOAD PUSH2 0x347 SWAP4 SWAP3 SWAP2 SWAP1 PUSH2 0x1A0A JUMP JUMPDEST PUSH1 0x40 MLOAD DUP1 SWAP2 SUB SWAP1 RETURN JUMPDEST PUSH1 0x3 PUSH0 SWAP1 SLOAD SWAP1 PUSH2 0x100 EXP SWAP1 DIV PUSH1 0xFF AND ISZERO PUSH2 0x39F JUMPI PUSH1 0x40 MLOAD PUSH32 0x8C379A000000000000000000000000000000000000000000000000000000000 DUP2 MSTORE PUSH1 0x4 ADD PUSH2 0x396 SWAP1 PUSH2 0x1A89 JUMP JUMPDEST PUSH1 0x40 MLOAD DUP1 SWAP2 SUB SWAP1 REVERT JUMPDEST PUSH2 0x3A7 PUSH2 0x133D JUMP JUMPDEST PUSH0 PUSH1 0x6 PUSH0 DUP4 DUP2 MSTORE PUSH1 0x20 ADD SWAP1 DUP2 MSTORE PUSH1 0x20 ADD PUSH0 KECCAK256 PUSH1 0x40 MLOAD DUP1 PUSH1 0x60 ADD PUSH1 0x40 MSTORE SWAP1 DUP2 PUSH0 DUP3 ADD SLOAD DUP2 MSTORE PUSH1 0x20 ADD PUSH1 0x1 DUP3 ADD PUSH0 SWAP1 SLOAD SWAP1 PUSH2 0x100 EXP SWAP1 DIV PUSH20 0xFFFFFFFFFFFFFFFFFFFFFFFFFFFFFFFFFFFFFFFF AND PUSH20 0xFFFFFFFFFFFFFFFFFFFFFFFFFFFFFFFFFFFFFFFF AND PUSH20 0xFFFFFFFFFFFFFFFFFFFFFFFFFFFFFFFFFFFFFFFF AND DUP2 MSTORE PUSH1 0x20 ADD PUSH1 0x1 DUP3 ADD PUSH1 0x14 SWAP1 SLOAD SWAP1 PUSH2 0x100 EXP SWAP1 DIV PUSH1 0xFF AND ISZERO ISZERO ISZERO ISZERO DUP2 MSTORE POP POP SWAP1 POP DUP1 PUSH1 0x40 ADD MLOAD PUSH2 0x483 JUMPI PUSH1 0x40 MLOAD PUSH32 0x8C379A000000000000000000000000000000000000000000000000000000000 DUP2 MSTORE PUSH1 0x4 ADD PUSH2 0x47A SWAP1 PUSH2 0x1AF1 JUMP JUMPDEST PUSH1 0x40 MLOAD DUP1 SWAP2 SUB SWAP1 REVERT JUMPDEST DUP1 PUSH0 ADD MLOAD CALLVALUE LT ISZERO PUSH2 0x4C9 JUMPI PUSH1 0x40 MLOAD PUSH32 0x8C379A000000000000000000000000000000000000000000000000000000000 DUP2 MSTORE PUSH1 0x4 ADD PUSH2 0x4C0 SWAP1 PUSH2 0x1B59 JUMP JUMPDEST PUSH1 0x40 MLOAD DUP1 SWAP2 SUB SWAP1 REVERT JUMPDEST PUSH0 DUP2 PUSH0 ADD MLOAD SWAP1 POP PUSH0 DUP3 PUSH1 0x20 ADD MLOAD SWAP1 POP PUSH0 PUSH20 0xFFFFFFFFFFFFFFFFFFFFFFFFFFFFFFFFFFFFFFFF AND DUP2 PUSH20 0xFFFFFFFFFFFFFFFFFFFFFFFFFFFFFFFFFFFFFFFF AND SUB PUSH2 0x546 JUMPI PUSH1 0x40 MLOAD PUSH32 0x8C379A000000000000000000000000000000000000000000000000000000000 DUP2 MSTORE PUSH1 0x4 ADD PUSH2 0x53D SWAP1 PUSH2 0x1BC1 JUMP JUMPDEST PUSH1 0x40 MLOAD DUP1 SWAP2 SUB SWAP1 REVERT JUMPDEST PUSH0 PUSH20 0xFFFFFFFFFFFFFFFFFFFFFFFFFFFFFFFFFFFFFFFF AND PUSH1 0x1 PUSH0 SWAP1 SLOAD SWAP1 PUSH2 0x100 EXP SWAP1 DIV PUSH20 0xFFFFFFFFFFFFFFFFFFFFFFFFFFFFFFFFFFFFFFFF AND PUSH20 0xFFFFFFFFFFFFFFFFFFFFFFFFFFFFFFFFFFFFFFFF AND SUB PUSH2 0x5D5 JUMPI PUSH1 0x40 MLOAD PUSH32 0x8C379A000000000000000000000000000000000000000000000000000000000 DUP2 MSTORE PUSH1 0x4 ADD PUSH2 0x5CC SWAP1 PUSH2 0x1C29 JUMP JUMPDEST PUSH1 0x40 MLOAD DUP1 SWAP2 SUB SWAP1 REVERT JUMPDEST DUP1 PUSH20 0xFFFFFFFFFFFFFFFFFFFFFFFFFFFFFFFFFFFFFFFF AND PUSH1 0x5 PUSH0 DUP7 DUP2 MSTORE PUSH1 0x20 ADD SWAP1 DUP2 MSTORE PUSH1 0x20 ADD PUSH0 KECCAK256 PUSH1 0x1 ADD PUSH0 SWAP1 SLOAD SWAP1 PUSH2 0x100 EXP SWAP1 DIV PUSH20 0xFFFFFFFFFFFFFFFFFFFFFFFFFFFFFFFFFFFFFFFF AND PUSH20 0xFFFFFFFFFFFFFFFFFFFFFFFFFFFFFFFFFFFFFFFF AND EQ PUSH2 0x676 JUMPI PUSH1 0x40 MLOAD PUSH32 0x8C379A000000000000000000000000000000000000000000000000000000000 DUP2 MSTORE PUSH1 0x4 ADD PUSH2 0x66D SWAP1 PUSH2 0x1C91 JUMP JUMPDEST PUSH1 0x40 MLOAD DUP1 SWAP2 SUB SWAP1 REVERT JUMPDEST PUSH0 PUSH1 0x64 PUSH1 0x2 SLOAD DUP5 PUSH2 0x687 SWAP2 SWAP1 PUSH2 0x1CDC JUMP JUMPDEST PUSH2 0x691 SWAP2 SWAP1 PUSH2 0x1D4A JUMP JUMPDEST SWAP1 POP PUSH0 DUP2 DUP5 PUSH2 0x6A0 SWAP2 SWAP1 PUSH2 0x1D7A JUMP JUMPDEST SWAP1 POP CALLER PUSH1 0x5 PUSH0 DUP9 DUP2 MSTORE PUSH1 0x20 ADD SWAP1 DUP2 MSTORE PUSH1 0x20 ADD PUSH0 KECCAK256 PUSH1 0x1 ADD PUSH0 PUSH2 0x100 EXP DUP2 SLOAD DUP2 PUSH20 0xFFFFFFFFFFFFFFFFFFFFFFFFFFFFFFFFFFFFFFFF MUL NOT AND SWAP1 DUP4 PUSH20 0xFFFFFFFFFFFFFFFFFFFFFFFFFFFFFFFFFFFFFFFF AND MUL OR SWAP1 SSTORE POP PUSH2 0x6FE DUP4 DUP8 PUSH2 0x138A JUMP JUMPDEST PUSH1 0x7 PUSH0 CALLER PUSH20 0xFFFFFFFFFFFFFFFFFFFFFFFFFFFFFFFFFFFFFFFF AND PUSH20 0xFFFFFFFFFFFFFFFFFFFFFFFFFFFFFFFFFFFFFFFF AND DUP2 MSTORE PUSH1 0x20 ADD SWAP1 DUP2 MSTORE PUSH1 0x20 ADD PUSH0 KECCAK256 DUP7 SWAP1 DUP1 PUSH1 0x1 DUP2 SLOAD ADD DUP1 DUP3 SSTORE DUP1 SWAP2 POP POP PUSH1 0x1 SWAP1 SUB SWAP1 PUSH0 MSTORE PUSH1 0x20 PUSH0 KECCAK256 ADD PUSH0 SWAP1 SWAP2 SWAP1 SWAP2 SWAP1 SWAP2 POP SSTORE PUSH0 PUSH1 0x6 PUSH0 DUP9 DUP2 MSTORE PUSH1 0x20 ADD SWAP1 DUP2 MSTORE PUSH1 0x20 ADD PUSH0 KECCAK256 PUSH1 0x1 ADD PUSH1 0x14 PUSH2 0x100 EXP DUP2 SLOAD DUP2 PUSH1 0xFF MUL NOT AND SWAP1 DUP4 ISZERO ISZERO MUL OR SWAP1 SSTORE POP PUSH0 PUSH1 0x1 PUSH0 SWAP1 SLOAD SWAP1 PUSH2 0x100 EXP SWAP1 DIV PUSH20 0xFFFFFFFFFFFFFFFFFFFFFFFFFFFFFFFFFFFFFFFF AND PUSH20 0xFFFFFFFFFFFFFFFFFFFFFFFFFFFFFFFFFFFFFFFF AND DUP4 PUSH1 0x40 MLOAD PUSH2 0x7D1 SWAP1 PUSH2 0x1DDA JUMP JUMPDEST PUSH0 PUSH1 0x40 MLOAD DUP1 DUP4 SUB DUP2 DUP6 DUP8 GAS CALL SWAP3 POP POP POP RETURNDATASIZE DUP1 PUSH0 DUP2 EQ PUSH2 0x80B JUMPI PUSH1 0x40 MLOAD SWAP2 POP PUSH1 0x1F NOT PUSH1 0x3F RETURNDATASIZE ADD AND DUP3 ADD PUSH1 0x40 MSTORE RETURNDATASIZE DUP3 MSTORE RETURNDATASIZE PUSH0 PUSH1 0x20 DUP5 ADD RETURNDATACOPY PUSH2 0x810 JUMP JUMPDEST PUSH1 0x60 SWAP2 POP JUMPDEST POP POP SWAP1 POP DUP1 PUSH2 0x854 JUMPI PUSH1 0x40 MLOAD PUSH32 0x8C379A000000000000000000000000000000000000000000000000000000000 DUP2 MSTORE PUSH1 0x4 ADD PUSH2 0x84B SWAP1 PUSH2 0x1E38 JUMP JUMPDEST PUSH1 0x40 MLOAD DUP1 SWAP2 SUB SWAP1 REVERT JUMPDEST PUSH0 DUP5 PUSH20 0xFFFFFFFFFFFFFFFFFFFFFFFFFFFFFFFFFFFFFFFF AND DUP4 PUSH1 0x40 MLOAD PUSH2 0x879 SWAP1 PUSH2 0x1DDA JUMP JUMPDEST PUSH0 PUSH1 0x40 MLOAD DUP1 DUP4 SUB DUP2 DUP6 DUP8 GAS CALL SWAP3 POP POP POP RETURNDATASIZE DUP1 PUSH0 DUP2 EQ PUSH2 0x8B3 JUMPI PUSH1 0x40 MLOAD SWAP2 POP PUSH1 0x1F NOT PUSH1 0x3F RETURNDATASIZE ADD AND DUP3 ADD PUSH1 0x40 MSTORE RETURNDATASIZE DUP3 MSTORE RETURNDATASIZE PUSH0 PUSH1 0x20 DUP5 ADD RETURNDATACOPY PUSH2 0x8B8 JUMP JUMPDEST PUSH1 0x60 SWAP2 POP JUMPDEST POP POP SWAP1 POP DUP1 PUSH2 0x8FC JUMPI PUSH1 0x40 MLOAD PUSH32 0x8C379A000000000000000000000000000000000000000000000000000000000 DUP2 MSTORE PUSH1 0x4 ADD PUSH2 0x8F3 SWAP1 PUSH2 0x1EA0 JUMP JUMPDEST PUSH1 0x40 MLOAD DUP1 SWAP2 SUB SWAP1 REVERT JUMPDEST PUSH0 DUP7 CALLVALUE PUSH2 0x909 SWAP2 SWAP1 PUSH2 0x1D7A JUMP JUMPDEST SWAP1 POP PUSH0 DUP2 GT ISZERO PUSH2 0x9BD JUMPI PUSH0 CALLER PUSH20 0xFFFFFFFFFFFFFFFFFFFFFFFFFFFFFFFFFFFFFFFF AND DUP3 PUSH1 0x40 MLOAD PUSH2 0x938 SWAP1 PUSH2 0x1DDA JUMP JUMPDEST PUSH0 PUSH1 0x40 MLOAD DUP1 DUP4 SUB DUP2 DUP6 DUP8 GAS CALL SWAP3 POP POP POP RETURNDATASIZE DUP1 PUSH0 DUP2 EQ PUSH2 0x972 JUMPI PUSH1 0x40 MLOAD SWAP2 POP PUSH1 0x1F NOT PUSH1 0x3F RETURNDATASIZE ADD AND DUP3 ADD PUSH1 0x40 MSTORE RETURNDATASIZE DUP3 MSTORE RETURNDATASIZE PUSH0 PUSH1 0x20 DUP5 ADD RETURNDATACOPY PUSH2 0x977 JUMP JUMPDEST PUSH1 0x60 SWAP2 POP JUMPDEST POP POP SWAP1 POP DUP1 PUSH2 0x9BB JUMPI PUSH1 0x40 MLOAD PUSH32 0x8C379A000000000000000000000000000000000000000000000000000000000 DUP2 MSTORE PUSH1 0x4 ADD PUSH2 0x9B2 SWAP1 PUSH2 0x1F08 JUMP JUMPDEST PUSH1 0x40 MLOAD DUP1 SWAP2 SUB SWAP1 REVERT JUMPDEST POP JUMPDEST DUP9 CALLER PUSH20 0xFFFFFFFFFFFFFFFFFFFFFFFFFFFFFFFFFFFFFFFF AND PUSH32 0x25D1144310B3F5E9CB8AD2E2BD379AEF97847A57087AB9CBCD95A06105A4629C DUP10 DUP9 PUSH1 0x40 MLOAD PUSH2 0xA06 SWAP3 SWAP2 SWAP1 PUSH2 0x1F26 JUMP JUMPDEST PUSH1 0x40 MLOAD DUP1 SWAP2 SUB SWAP1 LOG3 POP POP POP POP POP POP POP POP PUSH2 0xA1E PUSH2 0x14D3 JUMP JUMPDEST POP JUMP JUMPDEST PUSH1 0x4 SLOAD DUP2 JUMP JUMPDEST PUSH1 0x5 PUSH1 0x20 MSTORE DUP1 PUSH0 MSTORE PUSH1 0x40 PUSH0 KECCAK256 PUSH0 SWAP2 POP SWAP1 POP DUP1 PUSH0 ADD SLOAD SWAP1 DUP1 PUSH1 0x1 ADD PUSH0 SWAP1 SLOAD SWAP1 PUSH2 0x100 EXP SWAP1 DIV PUSH20 0xFFFFFFFFFFFFFFFFFFFFFFFFFFFFFFFFFFFFFFFF AND SWAP1 DUP1 PUSH1 0x2 ADD DUP1 SLOAD PUSH2 0xA71 SWAP1 PUSH2 0x1F7A JUMP JUMPDEST DUP1 PUSH1 0x1F ADD PUSH1 0x20 DUP1 SWAP2 DIV MUL PUSH1 0x20 ADD PUSH1 0x40 MLOAD SWAP1 DUP2 ADD PUSH1 0x40 MSTORE DUP1 SWAP3 SWAP2 SWAP1 DUP2 DUP2 MSTORE PUSH1 0x20 ADD DUP3 DUP1 SLOAD PUSH2 0xA9D SWAP1 PUSH2 0x1F7A JUMP JUMPDEST DUP1 ISZERO PUSH2 0xAE8 JUMPI DUP1 PUSH1 0x1F LT PUSH2 0xABF JUMPI PUSH2 0x100 DUP1 DUP4 SLOAD DIV MUL DUP4 MSTORE SWAP2 PUSH1 0x20 ADD SWAP2 PUSH2 0xAE8 JUMP JUMPDEST DUP3 ADD SWAP2 SWAP1 PUSH0 MSTORE PUSH1 0x20 PUSH0 KECCAK256 SWAP1 JUMPDEST DUP2 SLOAD DUP2 MSTORE SWAP1 PUSH1 0x1 ADD SWAP1 PUSH1 0x20 ADD DUP1 DUP4 GT PUSH2 0xACB JUMPI DUP3 SWAP1 SUB PUSH1 0x1F AND DUP3 ADD SWAP2 JUMPDEST POP POP POP POP POP SWAP1 POP DUP4 JUMP JUMPDEST PUSH1 0x7 PUSH1 0x20 MSTORE DUP2 PUSH0 MSTORE PUSH1 0x40 PUSH0 KECCAK256 DUP2 DUP2 SLOAD DUP2 LT PUSH2 0xB0B JUMPI PUSH0 DUP1 REVERT JUMPDEST SWAP1 PUSH0 MSTORE PUSH1 0x20 PUSH0 KECCAK256 ADD PUSH0 SWAP2 POP SWAP2 POP POP SLOAD DUP2 JUMP JUMPDEST PUSH1 0x60 PUSH1 0x5 PUSH0 DUP4 DUP2 MSTORE PUSH1 0x20 ADD SWAP1 DUP2 MSTORE PUSH1 0x20 ADD PUSH0 KECCAK256 PUSH1 0x2 ADD DUP1 SLOAD PUSH2 0xB3E SWAP1 PUSH2 0x1F7A JUMP JUMPDEST DUP1 PUSH1 0x1F ADD PUSH1 0x20 DUP1 SWAP2 DIV MUL PUSH1 0x20 ADD PUSH1 0x40 MLOAD SWAP1 DUP2 ADD PUSH1 0x40 MSTORE DUP1 SWAP3 SWAP2 SWAP1 DUP2 DUP2 MSTORE PUSH1 0x20 ADD DUP3 DUP1 SLOAD PUSH2 0xB6A SWAP1 PUSH2 0x1F7A JUMP JUMPDEST DUP1 ISZERO PUSH2 0xBB5 JUMPI DUP1 PUSH1 0x1F LT PUSH2 0xB8C JUMPI PUSH2 0x100 DUP1 DUP4 SLOAD DIV MUL DUP4 MSTORE SWAP2 PUSH1 0x20 ADD SWAP2 PUSH2 0xBB5 JUMP JUMPDEST DUP3 ADD SWAP2 SWAP1 PUSH0 MSTORE PUSH1 0x20 PUSH0 KECCAK256 SWAP1 JUMPDEST DUP2 SLOAD DUP2 MSTORE SWAP1 PUSH1 0x1 ADD SWAP1 PUSH1 0x20 ADD DUP1 DUP4 GT PUSH2 0xB98 JUMPI DUP3 SWAP1 SUB PUSH1 0x1F AND DUP3 ADD SWAP2 JUMPDEST POP POP POP POP POP SWAP1 POP SWAP2 SWAP1 POP JUMP JUMPDEST PUSH1 0x1 PUSH0 SWAP1 SLOAD SWAP1 PUSH2 0x100 EXP SWAP1 DIV PUSH20 0xFFFFFFFFFFFFFFFFFFFFFFFFFFFFFFFFFFFFFFFF AND PUSH20 0xFFFFFFFFFFFFFFFFFFFFFFFFFFFFFFFFFFFFFFFF AND CALLER PUSH20 0xFFFFFFFFFFFFFFFFFFFFFFFFFFFFFFFFFFFFFFFF AND EQ PUSH2 0xC50 JUMPI PUSH1 0x40 MLOAD PUSH32 0x8C379A000000000000000000000000000000000000000000000000000000000 DUP2 MSTORE PUSH1 0x4 ADD PUSH2 0xC47 SWAP1 PUSH2 0x1FF4 JUMP JUMPDEST PUSH1 0x40 MLOAD DUP1 SWAP2 SUB SWAP1 REVERT JUMPDEST PUSH0 PUSH1 0x3 PUSH0 PUSH2 0x100 EXP DUP2 SLOAD DUP2 PUSH1 0xFF MUL NOT AND SWAP1 DUP4 ISZERO ISZERO MUL OR SWAP1 SSTORE POP PUSH32 0xA45F47FDEA8A1EFDD9029A5691C7F759C32B7C698632B563573E155625D16933 PUSH1 0x40 MLOAD PUSH1 0x40 MLOAD DUP1 SWAP2 SUB SWAP1 LOG1 JUMP JUMPDEST PUSH1 0x3 PUSH0 SWAP1 SLOAD SWAP1 PUSH2 0x100 EXP SWAP1 DIV PUSH1 0xFF AND DUP2 JUMP JUMPDEST PUSH1 0x1 PUSH0 SWAP1 SLOAD SWAP1 PUSH2 0x100 EXP SWAP1 DIV PUSH20 0xFFFFFFFFFFFFFFFFFFFFFFFFFFFFFFFFFFFFFFFF AND PUSH20 0xFFFFFFFFFFFFFFFFFFFFFFFFFFFFFFFFFFFFFFFF AND CALLER PUSH20 0xFFFFFFFFFFFFFFFFFFFFFFFFFFFFFFFFFFFFFFFF AND EQ PUSH2 0xD38 JUMPI PUSH1 0x40 MLOAD PUSH32 0x8C379A000000000000000000000000000000000000000000000000000000000 DUP2 MSTORE PUSH1 0x4 ADD PUSH2 0xD2F SWAP1 PUSH2 0x1FF4 JUMP JUMPDEST PUSH1 0x40 MLOAD DUP1 SWAP2 SUB SWAP1 REVERT JUMPDEST PUSH1 0x1 PUSH1 0x3 PUSH0 PUSH2 0x100 EXP DUP2 SLOAD DUP2 PUSH1 0xFF MUL NOT AND SWAP1 DUP4 ISZERO ISZERO MUL OR SWAP1 SSTORE POP PUSH32 0x9E87FAC88FF661F02D44F95383C817FECE4BCE600A3DAB7A54406878B965E752 PUSH1 0x40 MLOAD PUSH1 0x40 MLOAD DUP1 SWAP2 SUB SWAP1 LOG1 JUMP JUMPDEST PUSH1 0x1 PUSH0 SWAP1 SLOAD SWAP1 PUSH2 0x100 EXP SWAP1 DIV PUSH20 0xFFFFFFFFFFFFFFFFFFFFFFFFFFFFFFFFFFFFFFFF AND DUP2 JUMP JUMPDEST CALLER PUSH20 0xFFFFFFFFFFFFFFFFFFFFFFFFFFFFFFFFFFFFFFFF AND PUSH1 0x5 PUSH0 DUP5 DUP2 MSTORE PUSH1 0x20 ADD SWAP1 DUP2 MSTORE PUSH1 0x20 ADD PUSH0 KECCAK256 PUSH1 0x1 ADD PUSH0 SWAP1 SLOAD SWAP1 PUSH2 0x100 EXP SWAP1 DIV PUSH20 0xFFFFFFFFFFFFFFFFFFFFFFFFFFFFFFFFFFFFFFFF AND PUSH20 0xFFFFFFFFFFFFFFFFFFFFFFFFFFFFFFFFFFFFFFFF AND EQ PUSH2 0xE46 JUMPI PUSH1 0x40 MLOAD PUSH32 0x8C379A000000000000000000000000000000000000000000000000000000000 DUP2 MSTORE PUSH1 0x4 ADD PUSH2 0xE3D SWAP1 PUSH2 0x205C JUMP JUMPDEST PUSH1 0x40 MLOAD DUP1 SWAP2 SUB SWAP1 REVERT JUMPDEST PUSH0 DUP2 GT PUSH2 0xE88 JUMPI PUSH1 0x40 MLOAD PUSH32 0x8C379A000000000000000000000000000000000000000000000000000000000 DUP2 MSTORE PUSH1 0x4 ADD PUSH2 0xE7F SWAP1 PUSH2 0x20C4 JUMP JUMPDEST PUSH1 0x40 MLOAD DUP1 SWAP2 SUB SWAP1 REVERT JUMPDEST PUSH1 0x40 MLOAD DUP1 PUSH1 0x60 ADD PUSH1 0x40 MSTORE DUP1 DUP3 DUP2 MSTORE PUSH1 0x20 ADD CALLER PUSH20 0xFFFFFFFFFFFFFFFFFFFFFFFFFFFFFFFFFFFFFFFF AND DUP2 MSTORE PUSH1 0x20 ADD PUSH1 0x1 ISZERO ISZERO DUP2 MSTORE POP PUSH1 0x6 PUSH0 DUP5 DUP2 MSTORE PUSH1 0x20 ADD SWAP1 DUP2 MSTORE PUSH1 0x20 ADD PUSH0 KECCAK256 PUSH0 DUP3 ADD MLOAD DUP2 PUSH0 ADD SSTORE PUSH1 0x20 DUP3 ADD MLOAD DUP2 PUSH1 0x1 ADD PUSH0 PUSH2 0x100 EXP DUP2 SLOAD DUP2 PUSH20 0xFFFFFFFFFFFFFFFFFFFFFFFFFFFFFFFFFFFFFFFF MUL NOT AND SWAP1 DUP4 PUSH20 0xFFFFFFFFFFFFFFFFFFFFFFFFFFFFFFFFFFFFFFFF AND MUL OR SWAP1 SSTORE POP PUSH1 0x40 DUP3 ADD MLOAD DUP2 PUSH1 0x1 ADD PUSH1 0x14 PUSH2 0x100 EXP DUP2 SLOAD DUP2 PUSH1 0xFF MUL NOT AND SWAP1 DUP4 ISZERO ISZERO MUL OR SWAP1 SSTORE POP SWAP1 POP POP DUP2 PUSH32 0xA6CD73580A273EEC6C1026108F6B63479FBAEF5356DDE4FF43E4B38DD187485F DUP3 PUSH1 0x40 MLOAD PUSH2 0xF6E SWAP2 SWAP1 PUSH2 0x157F JUMP JUMPDEST PUSH1 0x40 MLOAD DUP1 SWAP2 SUB SWAP1 LOG2 POP POP JUMP JUMPDEST PUSH1 0x60 PUSH1 0x7 PUSH0 DUP4 PUSH20 0xFFFFFFFFFFFFFFFFFFFFFFFFFFFFFFFFFFFFFFFF AND PUSH20 0xFFFFFFFFFFFFFFFFFFFFFFFFFFFFFFFFFFFFFFFF AND DUP2 MSTORE PUSH1 0x20 ADD SWAP1 DUP2 MSTORE PUSH1 0x20 ADD PUSH0 KECCAK256 DUP1 SLOAD DUP1 PUSH1 0x20 MUL PUSH1 0x20 ADD PUSH1 0x40 MLOAD SWAP1 DUP2 ADD PUSH1 0x40 MSTORE DUP1 SWAP3 SWAP2 SWAP1 DUP2 DUP2 MSTORE PUSH1 0x20 ADD DUP3 DUP1 SLOAD DUP1 ISZERO PUSH2 0x1001 JUMPI PUSH1 0x20 MUL DUP3 ADD SWAP2 SWAP1 PUSH0 MSTORE PUSH1 0x20 PUSH0 KECCAK256 SWAP1 JUMPDEST DUP2 SLOAD DUP2 MSTORE PUSH1 0x20 ADD SWAP1 PUSH1 0x1 ADD SWAP1 DUP1 DUP4 GT PUSH2 0xFED JUMPI JUMPDEST POP POP POP POP POP SWAP1 POP SWAP2 SWAP1 POP JUMP JUMPDEST PUSH1 0x3 PUSH0 SWAP1 SLOAD SWAP1 PUSH2 0x100 EXP SWAP1 DIV PUSH1 0xFF AND ISZERO PUSH2 0x105C JUMPI PUSH1 0x40 MLOAD PUSH32 0x8C379A000000000000000000000000000000000000000000000000000000000 DUP2 MSTORE PUSH1 0x4 ADD PUSH2 0x1053 SWAP1 PUSH2 0x1A89 JUMP JUMPDEST PUSH1 0x40 MLOAD DUP1 SWAP2 SUB SWAP1 REVERT JUMPDEST DUP1 PUSH1 0x8 PUSH0 DUP3 PUSH1 0x40 MLOAD PUSH1 0x20 ADD PUSH2 0x1071 SWAP2 SWAP1 PUSH2 0x211C JUMP JUMPDEST PUSH1 0x40 MLOAD PUSH1 0x20 DUP2 DUP4 SUB SUB DUP2 MSTORE SWAP1 PUSH1 0x40 MSTORE DUP1 MLOAD SWAP1 PUSH1 0x20 ADD KECCAK256 DUP2 MSTORE PUSH1 0x20 ADD SWAP1 DUP2 MSTORE PUSH1 0x20 ADD PUSH0 KECCAK256 PUSH0 SWAP1 SLOAD SWAP1 PUSH2 0x100 EXP SWAP1 DIV PUSH1 0xFF AND ISZERO PUSH2 0x10E1 JUMPI PUSH1 0x40 MLOAD PUSH32 0x8C379A000000000000000000000000000000000000000000000000000000000 DUP2 MSTORE PUSH1 0x4 ADD PUSH2 0x10D8 SWAP1 PUSH2 0x217C JUMP JUMPDEST PUSH1 0x40 MLOAD DUP1 SWAP2 SUB SWAP1 REVERT JUMPDEST PUSH2 0x10EA DUP3 PUSH2 0x14DC JUMP JUMPDEST PUSH2 0x1129 JUMPI PUSH1 0x40 MLOAD PUSH32 0x8C379A000000000000000000000000000000000000000000000000000000000 DUP2 MSTORE PUSH1 0x4 ADD PUSH2 0x1120 SWAP1 PUSH2 0x21E4 JUMP JUMPDEST PUSH1 0x40 MLOAD DUP1 SWAP2 SUB SWAP1 REVERT JUMPDEST PUSH0 PUSH1 0x1 PUSH1 0x4 SLOAD PUSH2 0x1139 SWAP2 SWAP1 PUSH2 0x2202 JUMP JUMPDEST SWAP1 POP PUSH1 0x40 MLOAD DUP1 PUSH1 0x60 ADD PUSH1 0x40 MSTORE DUP1 DUP3 DUP2 MSTORE PUSH1 0x20 ADD CALLER PUSH20 0xFFFFFFFFFFFFFFFFFFFFFFFFFFFFFFFFFFFFFFFF AND DUP2 MSTORE PUSH1 0x20 ADD DUP5 DUP2 MSTORE POP PUSH1 0x5 PUSH0 DUP4 DUP2 MSTORE PUSH1 0x20 ADD SWAP1 DUP2 MSTORE PUSH1 0x20 ADD PUSH0 KECCAK256 PUSH0 DUP3 ADD MLOAD DUP2 PUSH0 ADD SSTORE PUSH1 0x20 DUP3 ADD MLOAD DUP2 PUSH1 0x1 ADD PUSH0 PUSH2 0x100 EXP DUP2 SLOAD DUP2 PUSH20 0xFFFFFFFFFFFFFFFFFFFFFFFFFFFFFFFFFFFFFFFF MUL NOT AND SWAP1 DUP4 PUSH20 0xFFFFFFFFFFFFFFFFFFFFFFFFFFFFFFFFFFFFFFFF AND MUL OR SWAP1 SSTORE POP PUSH1 0x40 DUP3 ADD MLOAD DUP2 PUSH1 0x2 ADD SWAP1 DUP2 PUSH2 0x11E0 SWAP2 SWAP1 PUSH2 0x23D5 JUMP JUMPDEST POP SWAP1 POP POP PUSH1 0x7 PUSH0 CALLER PUSH20 0xFFFFFFFFFFFFFFFFFFFFFFFFFFFFFFFFFFFFFFFF AND PUSH20 0xFFFFFFFFFFFFFFFFFFFFFFFFFFFFFFFFFFFFFFFF AND DUP2 MSTORE PUSH1 0x20 ADD SWAP1 DUP2 MSTORE PUSH1 0x20 ADD PUSH0 KECCAK256 DUP2 SWAP1 DUP1 PUSH1 0x1 DUP2 SLOAD ADD DUP1 DUP3 SSTORE DUP1 SWAP2 POP POP PUSH1 0x1 SWAP1 SUB SWAP1 PUSH0 MSTORE PUSH1 0x20 PUSH0 KECCAK256 ADD PUSH0 SWAP1 SWAP2 SWAP1 SWAP2 SWAP1 SWAP2 POP SSTORE PUSH1 0x1 PUSH1 0x8 PUSH0 DUP6 PUSH1 0x40 MLOAD PUSH1 0x20 ADD PUSH2 0x125B SWAP2 SWAP1 PUSH2 0x211C JUMP JUMPDEST PUSH1 0x40 MLOAD PUSH1 0x20 DUP2 DUP4 SUB SUB DUP2 MSTORE SWAP1 PUSH1 0x40 MSTORE DUP1 MLOAD SWAP1 PUSH1 0x20 ADD KECCAK256 DUP2 MSTORE PUSH1 0x20 ADD SWAP1 DUP2 MSTORE PUSH1 0x20 ADD PUSH0 KECCAK256 PUSH0 PUSH2 0x100 EXP DUP2 SLOAD DUP2 PUSH1 0xFF MUL NOT AND SWAP1 DUP4 ISZERO ISZERO MUL OR SWAP1 SSTORE POP PUSH2 0x129C PUSH2 0x14E8 JUMP JUMPDEST DUP1 CALLER PUSH20 0xFFFFFFFFFFFFFFFFFFFFFFFFFFFFFFFFFFFFFFFF AND PUSH32 0x4CC0A9C4A99DDC700DE1AF2C9F916A7CBFDB71F14801CCFF94061AD1EF8A8040 PUSH1 0x40 MLOAD PUSH1 0x40 MLOAD DUP1 SWAP2 SUB SWAP1 LOG3 POP POP POP JUMP JUMPDEST PUSH1 0x2 SLOAD DUP2 JUMP JUMPDEST PUSH1 0x6 PUSH1 0x20 MSTORE DUP1 PUSH0 MSTORE PUSH1 0x40 PUSH0 KECCAK256 PUSH0 SWAP2 POP SWAP1 POP DUP1 PUSH0 ADD SLOAD SWAP1 DUP1 PUSH1 0x1 ADD PUSH0 SWAP1 SLOAD SWAP1 PUSH2 0x100 EXP SWAP1 DIV PUSH20 0xFFFFFFFFFFFFFFFFFFFFFFFFFFFFFFFFFFFFFFFF AND SWAP1 DUP1 PUSH1 0x1 ADD PUSH1 0x14 SWAP1 SLOAD SWAP1 PUSH2 0x100 EXP SWAP1 DIV PUSH1 0xFF AND SWAP1 POP DUP4 JUMP JUMPDEST PUSH1 0x2 PUSH0 SLOAD SUB PUSH2 0x1381 JUMPI PUSH1 0x40 MLOAD PUSH32 0x8C379A000000000000000000000000000000000000000000000000000000000 DUP2 MSTORE PUSH1 0x4 ADD PUSH2 0x1378 SWAP1 PUSH2 0x24EE JUMP JUMPDEST PUSH1 0x40 MLOAD DUP1 SWAP2 SUB SWAP1 REVERT JUMPDEST PUSH1 0x2 PUSH0 DUP2 SWAP1 SSTORE POP JUMP JUMPDEST PUSH1 0x3 PUSH0 SWAP1 SLOAD SWAP1 PUSH2 0x100 EXP SWAP1 DIV PUSH1 0xFF AND ISZERO PUSH2 0x13D9 JUMPI PUSH1 0x40 MLOAD PUSH32 0x8C379A000000000000000000000000000000000000000000000000000000000 DUP2 MSTORE PUSH1 0x4 ADD PUSH2 0x13D0 SWAP1 PUSH2 0x1A89 JUMP JUMPDEST PUSH1 0x40 MLOAD DUP1 SWAP2 SUB SWAP1 REVERT JUMPDEST PUSH0 PUSH1 0x7 PUSH0 DUP5 PUSH20 0xFFFFFFFFFFFFFFFFFFFFFFFFFFFFFFFFFFFFFFFF AND PUSH20 0xFFFFFFFFFFFFFFFFFFFFFFFFFFFFFFFFFFFFFFFF AND DUP2 MSTORE PUSH1 0x20 ADD SWAP1 DUP2 MSTORE PUSH1 0x20 ADD PUSH0 KECCAK256 SWAP1 POP PUSH0 PUSH0 SWAP1 POP JUMPDEST DUP2 DUP1 SLOAD SWAP1 POP DUP2 LT ISZERO PUSH2 0x14CD JUMPI DUP3 DUP3 DUP3 DUP2 SLOAD DUP2 LT PUSH2 0x143E JUMPI PUSH2 0x143D PUSH2 0x250C JUMP JUMPDEST JUMPDEST SWAP1 PUSH0 MSTORE PUSH1 0x20 PUSH0 KECCAK256 ADD SLOAD SUB PUSH2 0x14C0 JUMPI DUP2 PUSH1 0x1 DUP4 DUP1 SLOAD SWAP1 POP PUSH2 0x145E SWAP2 SWAP1 PUSH2 0x1D7A JUMP JUMPDEST DUP2 SLOAD DUP2 LT PUSH2 0x146F JUMPI PUSH2 0x146E PUSH2 0x250C JUMP JUMPDEST JUMPDEST SWAP1 PUSH0 MSTORE PUSH1 0x20 PUSH0 KECCAK256 ADD SLOAD DUP3 DUP3 DUP2 SLOAD DUP2 LT PUSH2 0x148B JUMPI PUSH2 0x148A PUSH2 0x250C JUMP JUMPDEST JUMPDEST SWAP1 PUSH0 MSTORE PUSH1 0x20 PUSH0 KECCAK256 ADD DUP2 SWAP1 SSTORE POP DUP2 DUP1 SLOAD DUP1 PUSH2 0x14A8 JUMPI PUSH2 0x14A7 PUSH2 0x2539 JUMP JUMPDEST JUMPDEST PUSH1 0x1 SWAP1 SUB DUP2 DUP2 SWAP1 PUSH0 MSTORE PUSH1 0x20 PUSH0 KECCAK256 ADD PUSH0 SWAP1 SSTORE SWAP1 SSTORE PUSH2 0x14CD JUMP JUMPDEST DUP1 DUP1 PUSH1 0x1 ADD SWAP2 POP POP PUSH2 0x141E JUMP JUMPDEST POP POP POP POP JUMP JUMPDEST PUSH1 0x1 PUSH0 DUP2 SWAP1 SSTORE POP JUMP JUMPDEST PUSH0 PUSH0 DUP3 MLOAD GT SWAP1 POP SWAP2 SWAP1 POP JUMP JUMPDEST PUSH1 0x4 PUSH0 DUP2 SLOAD DUP1 SWAP3 SWAP2 SWAP1 PUSH2 0x14FA SWAP1 PUSH2 0x2566 JUMP JUMPDEST SWAP2 SWAP1 POP SSTORE POP JUMP JUMPDEST PUSH0 PUSH1 0x40 MLOAD SWAP1 POP SWAP1 JUMP JUMPDEST PUSH0 PUSH0 REVERT JUMPDEST PUSH0 PUSH0 REVERT JUMPDEST PUSH0 DUP2 SWAP1 POP SWAP2 SWAP1 POP JUMP JUMPDEST PUSH2 0x1524 DUP2 PUSH2 0x1512 JUMP JUMPDEST DUP2 EQ PUSH2 0x152E JUMPI PUSH0 PUSH0 REVERT JUMPDEST POP JUMP JUMPDEST PUSH0 DUP2 CALLDATALOAD SWAP1 POP PUSH2 0x153F DUP2 PUSH2 0x151B JUMP JUMPDEST SWAP3 SWAP2 POP POP JUMP JUMPDEST PUSH0 PUSH1 0x20 DUP3 DUP5 SUB SLT ISZERO PUSH2 0x155A JUMPI PUSH2 0x1559 PUSH2 0x150A JUMP JUMPDEST JUMPDEST PUSH0 PUSH2 0x1567 DUP5 DUP3 DUP6 ADD PUSH2 0x1531 JUMP JUMPDEST SWAP2 POP POP SWAP3 SWAP2 POP POP JUMP JUMPDEST PUSH2 0x1579 DUP2 PUSH2 0x1512 JUMP JUMPDEST DUP3 MSTORE POP POP JUMP JUMPDEST PUSH0 PUSH1 0x20 DUP3 ADD SWAP1 POP PUSH2 0x1592 PUSH0 DUP4 ADD DUP5 PUSH2 0x1570 JUMP JUMPDEST SWAP3 SWAP2 POP POP JUMP JUMPDEST PUSH0 PUSH20 0xFFFFFFFFFFFFFFFFFFFFFFFFFFFFFFFFFFFFFFFF DUP3 AND SWAP1 POP SWAP2 SWAP1 POP JUMP JUMPDEST PUSH0 PUSH2 0x15C1 DUP3 PUSH2 0x1598 JUMP JUMPDEST SWAP1 POP SWAP2 SWAP1 POP JUMP JUMPDEST PUSH2 0x15D1 DUP2 PUSH2 0x15B7 JUMP JUMPDEST DUP3 MSTORE POP POP JUMP JUMPDEST PUSH0 DUP2 MLOAD SWAP1 POP SWAP2 SWAP1 POP JUMP JUMPDEST PUSH0 DUP3 DUP3 MSTORE PUSH1 0x20 DUP3 ADD SWAP1 POP SWAP3 SWAP2 POP POP JUMP JUMPDEST DUP3 DUP2 DUP4 MCOPY PUSH0 DUP4 DUP4 ADD MSTORE POP POP POP JUMP JUMPDEST PUSH0 PUSH1 0x1F NOT PUSH1 0x1F DUP4 ADD AND SWAP1 POP SWAP2 SWAP1 POP JUMP JUMPDEST PUSH0 PUSH2 0x1619 DUP3 PUSH2 0x15D7 JUMP JUMPDEST PUSH2 0x1623 DUP2 DUP6 PUSH2 0x15E1 JUMP JUMPDEST SWAP4 POP PUSH2 0x1633 DUP2 DUP6 PUSH1 0x20 DUP7 ADD PUSH2 0x15F1 JUMP JUMPDEST PUSH2 0x163C DUP2 PUSH2 0x15FF JUMP JUMPDEST DUP5 ADD SWAP2 POP POP SWAP3 SWAP2 POP POP JUMP JUMPDEST PUSH0 PUSH1 0x60 DUP3 ADD SWAP1 POP PUSH2 0x165A PUSH0 DUP4 ADD DUP7 PUSH2 0x1570 JUMP JUMPDEST PUSH2 0x1667 PUSH1 0x20 DUP4 ADD DUP6 PUSH2 0x15C8 JUMP JUMPDEST DUP2 DUP2 SUB PUSH1 0x40 DUP4 ADD MSTORE PUSH2 0x1679 DUP2 DUP5 PUSH2 0x160F JUMP JUMPDEST SWAP1 POP SWAP5 SWAP4 POP POP POP POP JUMP JUMPDEST PUSH2 0x168C DUP2 PUSH2 0x15B7 JUMP JUMPDEST DUP2 EQ PUSH2 0x1696 JUMPI PUSH0 PUSH0 REVERT JUMPDEST POP JUMP JUMPDEST PUSH0 DUP2 CALLDATALOAD SWAP1 POP PUSH2 0x16A7 DUP2 PUSH2 0x1683 JUMP JUMPDEST SWAP3 SWAP2 POP POP JUMP JUMPDEST PUSH0 PUSH0 PUSH1 0x40 DUP4 DUP6 SUB SLT ISZERO PUSH2 0x16C3 JUMPI PUSH2 0x16C2 PUSH2 0x150A JUMP JUMPDEST JUMPDEST PUSH0 PUSH2 0x16D0 DUP6 DUP3 DUP7 ADD PUSH2 0x1699 JUMP JUMPDEST SWAP3 POP POP PUSH1 0x20 PUSH2 0x16E1 DUP6 DUP3 DUP7 ADD PUSH2 0x1531 JUMP JUMPDEST SWAP2 POP POP SWAP3 POP SWAP3 SWAP1 POP JUMP JUMPDEST PUSH0 PUSH1 0x20 DUP3 ADD SWAP1 POP DUP2 DUP2 SUB PUSH0 DUP4 ADD MSTORE PUSH2 0x1703 DUP2 DUP5 PUSH2 0x160F JUMP JUMPDEST SWAP1 POP SWAP3 SWAP2 POP POP JUMP JUMPDEST PUSH0 DUP2 ISZERO ISZERO SWAP1 POP SWAP2 SWAP1 POP JUMP JUMPDEST PUSH2 0x171F DUP2 PUSH2 0x170B JUMP JUMPDEST DUP3 MSTORE POP POP JUMP JUMPDEST PUSH0 PUSH1 0x20 DUP3 ADD SWAP1 POP PUSH2 0x1738 PUSH0 DUP4 ADD DUP5 PUSH2 0x1716 JUMP JUMPDEST SWAP3 SWAP2 POP POP JUMP JUMPDEST PUSH0 PUSH1 0x20 DUP3 ADD SWAP1 POP PUSH2 0x1751 PUSH0 DUP4 ADD DUP5 PUSH2 0x15C8 JUMP JUMPDEST SWAP3 SWAP2 POP POP JUMP JUMPDEST PUSH0 PUSH0 PUSH1 0x40 DUP4 DUP6 SUB SLT ISZERO PUSH2 0x176D JUMPI PUSH2 0x176C PUSH2 0x150A JUMP JUMPDEST JUMPDEST PUSH0 PUSH2 0x177A DUP6 DUP3 DUP7 ADD PUSH2 0x1531 JUMP JUMPDEST SWAP3 POP POP PUSH1 0x20 PUSH2 0x178B DUP6 DUP3 DUP7 ADD PUSH2 0x1531 JUMP JUMPDEST SWAP2 POP POP SWAP3 POP SWAP3 SWAP1 POP JUMP JUMPDEST PUSH0 PUSH1 0x20 DUP3 DUP5 SUB SLT ISZERO PUSH2 0x17AA JUMPI PUSH2 0x17A9 PUSH2 0x150A JUMP JUMPDEST JUMPDEST PUSH0 PUSH2 0x17B7 DUP5 DUP3 DUP6 ADD PUSH2 0x1699 JUMP JUMPDEST SWAP2 POP POP SWAP3 SWAP2 POP POP JUMP JUMPDEST PUSH0 DUP2 MLOAD SWAP1 POP SWAP2 SWAP1 POP JUMP JUMPDEST PUSH0 DUP3 DUP3 MSTORE PUSH1 0x20 DUP3 ADD SWAP1 POP SWAP3 SWAP2 POP POP JUMP JUMPDEST PUSH0 DUP2 SWAP1 POP PUSH1 0x20 DUP3 ADD SWAP1 POP SWAP2 SWAP1 POP JUMP JUMPDEST PUSH2 0x17F2 DUP2 PUSH2 0x1512 JUMP JUMPDEST DUP3 MSTORE POP POP JUMP JUMPDEST PUSH0 PUSH2 0x1803 DUP4 DUP4 PUSH2 0x17E9 JUMP JUMPDEST PUSH1 0x20 DUP4 ADD SWAP1 POP SWAP3 SWAP2 POP POP JUMP JUMPDEST PUSH0 PUSH1 0x20 DUP3 ADD SWAP1 POP SWAP2 SWAP1 POP JUMP JUMPDEST PUSH0 PUSH2 0x1825 DUP3 PUSH2 0x17C0 JUMP JUMPDEST PUSH2 0x182F DUP2 DUP6 PUSH2 0x17CA JUMP JUMPDEST SWAP4 POP PUSH2 0x183A DUP4 PUSH2 0x17DA JUMP JUMPDEST DUP1 PUSH0 JUMPDEST DUP4 DUP2 LT ISZERO PUSH2 0x186A JUMPI DUP2 MLOAD PUSH2 0x1851 DUP9 DUP3 PUSH2 0x17F8 JUMP JUMPDEST SWAP8 POP PUSH2 0x185C DUP4 PUSH2 0x180F JUMP JUMPDEST SWAP3 POP POP PUSH1 0x1 DUP2 ADD SWAP1 POP PUSH2 0x183D JUMP JUMPDEST POP DUP6 SWAP4 POP POP POP POP SWAP3 SWAP2 POP POP JUMP JUMPDEST PUSH0 PUSH1 0x20 DUP3 ADD SWAP1 POP DUP2 DUP2 SUB PUSH0 DUP4 ADD MSTORE PUSH2 0x188F DUP2 DUP5 PUSH2 0x181B JUMP JUMPDEST SWAP1 POP SWAP3 SWAP2 POP POP JUMP JUMPDEST PUSH0 PUSH0 REVERT JUMPDEST PUSH0 PUSH0 REVERT JUMPDEST PUSH32 0x4E487B7100000000000000000000000000000000000000000000000000000000 PUSH0 MSTORE PUSH1 0x41 PUSH1 0x4 MSTORE PUSH1 0x24 PUSH0 REVERT JUMPDEST PUSH2 0x18D5 DUP3 PUSH2 0x15FF JUMP JUMPDEST DUP2 ADD DUP2 DUP2 LT PUSH8 0xFFFFFFFFFFFFFFFF DUP3 GT OR ISZERO PUSH2 0x18F4 JUMPI PUSH2 0x18F3 PUSH2 0x189F JUMP JUMPDEST JUMPDEST DUP1 PUSH1 0x40 MSTORE POP POP POP JUMP JUMPDEST PUSH0 PUSH2 0x1906 PUSH2 0x1501 JUMP JUMPDEST SWAP1 POP PUSH2 0x1912 DUP3 DUP3 PUSH2 0x18CC JUMP JUMPDEST SWAP2 SWAP1 POP JUMP JUMPDEST PUSH0 PUSH8 0xFFFFFFFFFFFFFFFF DUP3 GT ISZERO PUSH2 0x1931 JUMPI PUSH2 0x1930 PUSH2 0x189F JUMP JUMPDEST JUMPDEST PUSH2 0x193A DUP3 PUSH2 0x15FF JUMP JUMPDEST SWAP1 POP PUSH1 0x20 DUP2 ADD SWAP1 POP SWAP2 SWAP1 POP JUMP JUMPDEST DUP3 DUP2 DUP4 CALLDATACOPY PUSH0 DUP4 DUP4 ADD MSTORE POP POP POP JUMP JUMPDEST PUSH0 PUSH2 0x1967 PUSH2 0x1962 DUP5 PUSH2 0x1917 JUMP JUMPDEST PUSH2 0x18FD JUMP JUMPDEST SWAP1 POP DUP3 DUP2 MSTORE PUSH1 0x20 DUP2 ADD DUP5 DUP5 DUP5 ADD GT ISZERO PUSH2 0x1983 JUMPI PUSH2 0x1982 PUSH2 0x189B JUMP JUMPDEST JUMPDEST PUSH2 0x198E DUP5 DUP3 DUP6 PUSH2 0x1947 JUMP JUMPDEST POP SWAP4 SWAP3 POP POP POP JUMP JUMPDEST PUSH0 DUP3 PUSH1 0x1F DUP4 ADD SLT PUSH2 0x19AA JUMPI PUSH2 0x19A9 PUSH2 0x1897 JUMP JUMPDEST JUMPDEST DUP2 CALLDATALOAD PUSH2 0x19BA DUP5 DUP3 PUSH1 0x20 DUP7 ADD PUSH2 0x1955 JUMP JUMPDEST SWAP2 POP POP SWAP3 SWAP2 POP POP JUMP JUMPDEST PUSH0 PUSH1 0x20 DUP3 DUP5 SUB SLT ISZERO PUSH2 0x19D8 JUMPI PUSH2 0x19D7 PUSH2 0x150A JUMP JUMPDEST JUMPDEST PUSH0 DUP3 ADD CALLDATALOAD PUSH8 0xFFFFFFFFFFFFFFFF DUP2 GT ISZERO PUSH2 0x19F5 JUMPI PUSH2 0x19F4 PUSH2 0x150E JUMP JUMPDEST JUMPDEST PUSH2 0x1A01 DUP5 DUP3 DUP6 ADD PUSH2 0x1996 JUMP JUMPDEST SWAP2 POP POP SWAP3 SWAP2 POP POP JUMP JUMPDEST PUSH0 PUSH1 0x60 DUP3 ADD SWAP1 POP PUSH2 0x1A1D PUSH0 DUP4 ADD DUP7 PUSH2 0x1570 JUMP JUMPDEST PUSH2 0x1A2A PUSH1 0x20 DUP4 ADD DUP6 PUSH2 0x15C8 JUMP JUMPDEST PUSH2 0x1A37 PUSH1 0x40 DUP4 ADD DUP5 PUSH2 0x1716 JUMP JUMPDEST SWAP5 SWAP4 POP POP POP POP JUMP JUMPDEST PUSH32 0x436F6E7472616374206973207061757365640000000000000000000000000000 PUSH0 DUP3 ADD MSTORE POP JUMP JUMPDEST PUSH0 PUSH2 0x1A73 PUSH1 0x12 DUP4 PUSH2 0x15E1 JUMP JUMPDEST SWAP2 POP PUSH2 0x1A7E DUP3 PUSH2 0x1A3F JUMP JUMPDEST PUSH1 0x20 DUP3 ADD SWAP1 POP SWAP2 SWAP1 POP JUMP JUMPDEST PUSH0 PUSH1 0x20 DUP3 ADD SWAP1 POP DUP2 DUP2 SUB PUSH0 DUP4 ADD MSTORE PUSH2 0x1AA0 DUP2 PUSH2 0x1A67 JUMP JUMPDEST SWAP1 POP SWAP2 SWAP1 POP JUMP JUMPDEST PUSH32 0x4E4654206973206E6F7420666F722073616C6500000000000000000000000000 PUSH0 DUP3 ADD MSTORE POP JUMP JUMPDEST PUSH0 PUSH2 0x1ADB PUSH1 0x13 DUP4 PUSH2 0x15E1 JUMP JUMPDEST SWAP2 POP PUSH2 0x1AE6 DUP3 PUSH2 0x1AA7 JUMP JUMPDEST PUSH1 0x20 DUP3 ADD SWAP1 POP SWAP2 SWAP1 POP JUMP JUMPDEST PUSH0 PUSH1 0x20 DUP3 ADD SWAP1 POP DUP2 DUP2 SUB PUSH0 DUP4 ADD MSTORE PUSH2 0x1B08 DUP2 PUSH2 0x1ACF JUMP JUMPDEST SWAP1 POP SWAP2 SWAP1 POP JUMP JUMPDEST PUSH32 0x496E73756666696369656E742066756E64730000000000000000000000000000 PUSH0 DUP3 ADD MSTORE POP JUMP JUMPDEST PUSH0 PUSH2 0x1B43 PUSH1 0x12 DUP4 PUSH2 0x15E1 JUMP JUMPDEST SWAP2 POP PUSH2 0x1B4E DUP3 PUSH2 0x1B0F JUMP JUMPDEST PUSH1 0x20 DUP3 ADD SWAP1 POP SWAP2 SWAP1 POP JUMP JUMPDEST PUSH0 PUSH1 0x20 DUP3 ADD SWAP1 POP DUP2 DUP2 SUB PUSH0 DUP4 ADD MSTORE PUSH2 0x1B70 DUP2 PUSH2 0x1B37 JUMP JUMPDEST SWAP1 POP SWAP2 SWAP1 POP JUMP JUMPDEST PUSH32 0x53656C6C65722061646472657373206973207A65726F00000000000000000000 PUSH0 DUP3 ADD MSTORE POP JUMP JUMPDEST PUSH0 PUSH2 0x1BAB PUSH1 0x16 DUP4 PUSH2 0x15E1 JUMP JUMPDEST SWAP2 POP PUSH2 0x1BB6 DUP3 PUSH2 0x1B77 JUMP JUMPDEST PUSH1 0x20 DUP3 ADD SWAP1 POP SWAP2 SWAP1 POP JUMP JUMPDEST PUSH0 PUSH1 0x20 DUP3 ADD SWAP1 POP DUP2 DUP2 SUB PUSH0 DUP4 ADD MSTORE PUSH2 0x1BD8 DUP2 PUSH2 0x1B9F JUMP JUMPDEST SWAP1 POP SWAP2 SWAP1 POP JUMP JUMPDEST PUSH32 0x4F776E65722061646472657373206973207A65726F0000000000000000000000 PUSH0 DUP3 ADD MSTORE POP JUMP JUMPDEST PUSH0 PUSH2 0x1C13 PUSH1 0x15 DUP4 PUSH2 0x15E1 JUMP JUMPDEST SWAP2 POP PUSH2 0x1C1E DUP3 PUSH2 0x1BDF JUMP JUMPDEST PUSH1 0x20 DUP3 ADD SWAP1 POP SWAP2 SWAP1 POP JUMP JUMPDEST PUSH0 PUSH1 0x20 DUP3 ADD SWAP1 POP DUP2 DUP2 SUB PUSH0 DUP4 ADD MSTORE PUSH2 0x1C40 DUP2 PUSH2 0x1C07 JUMP JUMPDEST SWAP1 POP SWAP2 SWAP1 POP JUMP JUMPDEST PUSH32 0x53656C6C6572206E6F206C6F6E676572206F776E732074686973204E46540000 PUSH0 DUP3 ADD MSTORE POP JUMP JUMPDEST PUSH0 PUSH2 0x1C7B PUSH1 0x1E DUP4 PUSH2 0x15E1 JUMP JUMPDEST SWAP2 POP PUSH2 0x1C86 DUP3 PUSH2 0x1C47 JUMP JUMPDEST PUSH1 0x20 DUP3 ADD SWAP1 POP SWAP2 SWAP1 POP JUMP JUMPDEST PUSH0 PUSH1 0x20 DUP3 ADD SWAP1 POP DUP2 DUP2 SUB PUSH0 DUP4 ADD MSTORE PUSH2 0x1CA8 DUP2 PUSH2 0x1C6F JUMP JUMPDEST SWAP1 POP SWAP2 SWAP1 POP JUMP JUMPDEST PUSH32 0x4E487B7100000000000000000000000000000000000000000000000000000000 PUSH0 MSTORE PUSH1 0x11 PUSH1 0x4 MSTORE PUSH1 0x24 PUSH0 REVERT JUMPDEST PUSH0 PUSH2 0x1CE6 DUP3 PUSH2 0x1512 JUMP JUMPDEST SWAP2 POP PUSH2 0x1CF1 DUP4 PUSH2 0x1512 JUMP JUMPDEST SWAP3 POP DUP3 DUP3 MUL PUSH2 0x1CFF DUP2 PUSH2 0x1512 JUMP JUMPDEST SWAP2 POP DUP3 DUP3 DIV DUP5 EQ DUP4 ISZERO OR PUSH2 0x1D16 JUMPI PUSH2 0x1D15 PUSH2 0x1CAF JUMP JUMPDEST JUMPDEST POP SWAP3 SWAP2 POP POP JUMP JUMPDEST PUSH32 0x4E487B7100000000000000000000000000000000000000000000000000000000 PUSH0 MSTORE PUSH1 0x12 PUSH1 0x4 MSTORE PUSH1 0x24 PUSH0 REVERT JUMPDEST PUSH0 PUSH2 0x1D54 DUP3 PUSH2 0x1512 JUMP JUMPDEST SWAP2 POP PUSH2 0x1D5F DUP4 PUSH2 0x1512 JUMP JUMPDEST SWAP3 POP DUP3 PUSH2 0x1D6F JUMPI PUSH2 0x1D6E PUSH2 0x1D1D JUMP JUMPDEST JUMPDEST DUP3 DUP3 DIV SWAP1 POP SWAP3 SWAP2 POP POP JUMP JUMPDEST PUSH0 PUSH2 0x1D84 DUP3 PUSH2 0x1512 JUMP JUMPDEST SWAP2 POP PUSH2 0x1D8F DUP4 PUSH2 0x1512 JUMP JUMPDEST SWAP3 POP DUP3 DUP3 SUB SWAP1 POP DUP2 DUP2 GT ISZERO PUSH2 0x1DA7 JUMPI PUSH2 0x1DA6 PUSH2 0x1CAF JUMP JUMPDEST JUMPDEST SWAP3 SWAP2 POP POP JUMP JUMPDEST PUSH0 DUP2 SWAP1 POP SWAP3 SWAP2 POP POP JUMP JUMPDEST POP JUMP JUMPDEST PUSH0 PUSH2 0x1DC5 PUSH0 DUP4 PUSH2 0x1DAD JUMP JUMPDEST SWAP2 POP PUSH2 0x1DD0 DUP3 PUSH2 0x1DB7 JUMP JUMPDEST PUSH0 DUP3 ADD SWAP1 POP SWAP2 SWAP1 POP JUMP JUMPDEST PUSH0 PUSH2 0x1DE4 DUP3 PUSH2 0x1DBA JUMP JUMPDEST SWAP2 POP DUP2 SWAP1 POP SWAP2 SWAP1 POP JUMP JUMPDEST PUSH32 0x4661696C656420746F2073656E642066656520746F206F776E65720000000000 PUSH0 DUP3 ADD MSTORE POP JUMP JUMPDEST PUSH0 PUSH2 0x1E22 PUSH1 0x1B DUP4 PUSH2 0x15E1 JUMP JUMPDEST SWAP2 POP PUSH2 0x1E2D DUP3 PUSH2 0x1DEE JUMP JUMPDEST PUSH1 0x20 DUP3 ADD SWAP1 POP SWAP2 SWAP1 POP JUMP JUMPDEST PUSH0 PUSH1 0x20 DUP3 ADD SWAP1 POP DUP2 DUP2 SUB PUSH0 DUP4 ADD MSTORE PUSH2 0x1E4F DUP2 PUSH2 0x1E16 JUMP JUMPDEST SWAP1 POP SWAP2 SWAP1 POP JUMP JUMPDEST PUSH32 0x4661696C656420746F2073656E6420616D6F756E7420746F2073656C6C657200 PUSH0 DUP3 ADD MSTORE POP JUMP JUMPDEST PUSH0 PUSH2 0x1E8A PUSH1 0x1F DUP4 PUSH2 0x15E1 JUMP JUMPDEST SWAP2 POP PUSH2 0x1E95 DUP3 PUSH2 0x1E56 JUMP JUMPDEST PUSH1 0x20 DUP3 ADD SWAP1 POP SWAP2 SWAP1 POP JUMP JUMPDEST PUSH0 PUSH1 0x20 DUP3 ADD SWAP1 POP DUP2 DUP2 SUB PUSH0 DUP4 ADD MSTORE PUSH2 0x1EB7 DUP2 PUSH2 0x1E7E JUMP JUMPDEST SWAP1 POP SWAP2 SWAP1 POP JUMP JUMPDEST PUSH32 0x4661696C656420746F20726566756E642065786365737320616D6F756E740000 PUSH0 DUP3 ADD MSTORE POP JUMP JUMPDEST PUSH0 PUSH2 0x1EF2 PUSH1 0x1E DUP4 PUSH2 0x15E1 JUMP JUMPDEST SWAP2 POP PUSH2 0x1EFD DUP3 PUSH2 0x1EBE JUMP JUMPDEST PUSH1 0x20 DUP3 ADD SWAP1 POP SWAP2 SWAP1 POP JUMP JUMPDEST PUSH0 PUSH1 0x20 DUP3 ADD SWAP1 POP DUP2 DUP2 SUB PUSH0 DUP4 ADD MSTORE PUSH2 0x1F1F DUP2 PUSH2 0x1EE6 JUMP JUMPDEST SWAP1 POP SWAP2 SWAP1 POP JUMP JUMPDEST PUSH0 PUSH1 0x40 DUP3 ADD SWAP1 POP PUSH2 0x1F39 PUSH0 DUP4 ADD DUP6 PUSH2 0x1570 JUMP JUMPDEST PUSH2 0x1F46 PUSH1 0x20 DUP4 ADD DUP5 PUSH2 0x1570 JUMP JUMPDEST SWAP4 SWAP3 POP POP POP JUMP JUMPDEST PUSH32 0x4E487B7100000000000000000000000000000000000000000000000000000000 PUSH0 MSTORE PUSH1 0x22 PUSH1 0x4 MSTORE PUSH1 0x24 PUSH0 REVERT JUMPDEST PUSH0 PUSH1 0x2 DUP3 DIV SWAP1 POP PUSH1 0x1 DUP3 AND DUP1 PUSH2 0x1F91 JUMPI PUSH1 0x7F DUP3 AND SWAP2 POP JUMPDEST PUSH1 0x20 DUP3 LT DUP2 SUB PUSH2 0x1FA4 JUMPI PUSH2 0x1FA3 PUSH2 0x1F4D JUMP JUMPDEST JUMPDEST POP SWAP2 SWAP1 POP JUMP JUMPDEST PUSH32 0x4E6F742074686520636F6E7472616374206F776E657200000000000000000000 PUSH0 DUP3 ADD MSTORE POP JUMP JUMPDEST PUSH0 PUSH2 0x1FDE PUSH1 0x16 DUP4 PUSH2 0x15E1 JUMP JUMPDEST SWAP2 POP PUSH2 0x1FE9 DUP3 PUSH2 0x1FAA JUMP JUMPDEST PUSH1 0x20 DUP3 ADD SWAP1 POP SWAP2 SWAP1 POP JUMP JUMPDEST PUSH0 PUSH1 0x20 DUP3 ADD SWAP1 POP DUP2 DUP2 SUB PUSH0 DUP4 ADD MSTORE PUSH2 0x200B DUP2 PUSH2 0x1FD2 JUMP JUMPDEST SWAP1 POP SWAP2 SWAP1 POP JUMP JUMPDEST PUSH32 0x4E6F7420746865206F776E657200000000000000000000000000000000000000 PUSH0 DUP3 ADD MSTORE POP JUMP JUMPDEST PUSH0 PUSH2 0x2046 PUSH1 0xD DUP4 PUSH2 0x15E1 JUMP JUMPDEST SWAP2 POP PUSH2 0x2051 DUP3 PUSH2 0x2012 JUMP JUMPDEST PUSH1 0x20 DUP3 ADD SWAP1 POP SWAP2 SWAP1 POP JUMP JUMPDEST PUSH0 PUSH1 0x20 DUP3 ADD SWAP1 POP DUP2 DUP2 SUB PUSH0 DUP4 ADD MSTORE PUSH2 0x2073 DUP2 PUSH2 0x203A JUMP JUMPDEST SWAP1 POP SWAP2 SWAP1 POP JUMP JUMPDEST PUSH32 0x5072696365206D7573742062652067726561746572207468616E207A65726F00 PUSH0 DUP3 ADD MSTORE POP JUMP JUMPDEST PUSH0 PUSH2 0x20AE PUSH1 0x1F DUP4 PUSH2 0x15E1 JUMP JUMPDEST SWAP2 POP PUSH2 0x20B9 DUP3 PUSH2 0x207A JUMP JUMPDEST PUSH1 0x20 DUP3 ADD SWAP1 POP SWAP2 SWAP1 POP JUMP JUMPDEST PUSH0 PUSH1 0x20 DUP3 ADD SWAP1 POP DUP2 DUP2 SUB PUSH0 DUP4 ADD MSTORE PUSH2 0x20DB DUP2 PUSH2 0x20A2 JUMP JUMPDEST SWAP1 POP SWAP2 SWAP1 POP JUMP JUMPDEST PUSH0 DUP2 SWAP1 POP SWAP3 SWAP2 POP POP JUMP JUMPDEST PUSH0 PUSH2 0x20F6 DUP3 PUSH2 0x15D7 JUMP JUMPDEST PUSH2 0x2100 DUP2 DUP6 PUSH2 0x20E2 JUMP JUMPDEST SWAP4 POP PUSH2 0x2110 DUP2 DUP6 PUSH1 0x20 DUP7 ADD PUSH2 0x15F1 JUMP JUMPDEST DUP1 DUP5 ADD SWAP2 POP POP SWAP3 SWAP2 POP POP JUMP JUMPDEST PUSH0 PUSH2 0x2127 DUP3 DUP5 PUSH2 0x20EC JUMP JUMPDEST SWAP2 POP DUP2 SWAP1 POP SWAP3 SWAP2 POP POP JUMP JUMPDEST PUSH32 0x546F6B656E2055524920616C7265616479206578697374730000000000000000 PUSH0 DUP3 ADD MSTORE POP JUMP JUMPDEST PUSH0 PUSH2 0x2166 PUSH1 0x18 DUP4 PUSH2 0x15E1 JUMP JUMPDEST SWAP2 POP PUSH2 0x2171 DUP3 PUSH2 0x2132 JUMP JUMPDEST PUSH1 0x20 DUP3 ADD SWAP1 POP SWAP2 SWAP1 POP JUMP JUMPDEST PUSH0 PUSH1 0x20 DUP3 ADD SWAP1 POP DUP2 DUP2 SUB PUSH0 DUP4 ADD MSTORE PUSH2 0x2193 DUP2 PUSH2 0x215A JUMP JUMPDEST SWAP1 POP SWAP2 SWAP1 POP JUMP JUMPDEST PUSH32 0x546F6B656E2055524920697320656D7074792100000000000000000000000000 PUSH0 DUP3 ADD MSTORE POP JUMP JUMPDEST PUSH0 PUSH2 0x21CE PUSH1 0x13 DUP4 PUSH2 0x15E1 JUMP JUMPDEST SWAP2 POP PUSH2 0x21D9 DUP3 PUSH2 0x219A JUMP JUMPDEST PUSH1 0x20 DUP3 ADD SWAP1 POP SWAP2 SWAP1 POP JUMP JUMPDEST PUSH0 PUSH1 0x20 DUP3 ADD SWAP1 POP DUP2 DUP2 SUB PUSH0 DUP4 ADD MSTORE PUSH2 0x21FB DUP2 PUSH2 0x21C2 JUMP JUMPDEST SWAP1 POP SWAP2 SWAP1 POP JUMP JUMPDEST PUSH0 PUSH2 0x220C DUP3 PUSH2 0x1512 JUMP JUMPDEST SWAP2 POP PUSH2 0x2217 DUP4 PUSH2 0x1512 JUMP JUMPDEST SWAP3 POP DUP3 DUP3 ADD SWAP1 POP DUP1 DUP3 GT ISZERO PUSH2 0x222F JUMPI PUSH2 0x222E PUSH2 0x1CAF JUMP JUMPDEST JUMPDEST SWAP3 SWAP2 POP POP JUMP JUMPDEST PUSH0 DUP2 SWAP1 POP DUP2 PUSH0 MSTORE PUSH1 0x20 PUSH0 KECCAK256 SWAP1 POP SWAP2 SWAP1 POP JUMP JUMPDEST PUSH0 PUSH1 0x20 PUSH1 0x1F DUP4 ADD DIV SWAP1 POP SWAP2 SWAP1 POP JUMP JUMPDEST PUSH0 DUP3 DUP3 SHL SWAP1 POP SWAP3 SWAP2 POP POP JUMP JUMPDEST PUSH0 PUSH1 0x8 DUP4 MUL PUSH2 0x2291 PUSH32 0xFFFFFFFFFFFFFFFFFFFFFFFFFFFFFFFFFFFFFFFFFFFFFFFFFFFFFFFFFFFFFFFF DUP3 PUSH2 0x2256 JUMP JUMPDEST PUSH2 0x229B DUP7 DUP4 PUSH2 0x2256 JUMP JUMPDEST SWAP6 POP DUP1 NOT DUP5 AND SWAP4 POP DUP1 DUP7 AND DUP5 OR SWAP3 POP POP POP SWAP4 SWAP3 POP POP POP JUMP JUMPDEST PUSH0 DUP2 SWAP1 POP SWAP2 SWAP1 POP JUMP JUMPDEST PUSH0 PUSH2 0x22D6 PUSH2 0x22D1 PUSH2 0x22CC DUP5 PUSH2 0x1512 JUMP JUMPDEST PUSH2 0x22B3 JUMP JUMPDEST PUSH2 0x1512 JUMP JUMPDEST SWAP1 POP SWAP2 SWAP1 POP JUMP JUMPDEST PUSH0 DUP2 SWAP1 POP SWAP2 SWAP1 POP JUMP JUMPDEST PUSH2 0x22EF DUP4 PUSH2 0x22BC JUMP JUMPDEST PUSH2 0x2303 PUSH2 0x22FB DUP3 PUSH2 0x22DD JUMP JUMPDEST DUP5 DUP5 SLOAD PUSH2 0x2262 JUMP JUMPDEST DUP3 SSTORE POP POP POP POP JUMP JUMPDEST PUSH0 PUSH0 SWAP1 POP SWAP1 JUMP JUMPDEST PUSH2 0x231A PUSH2 0x230B JUMP JUMPDEST PUSH2 0x2325 DUP2 DUP5 DUP5 PUSH2 0x22E6 JUMP JUMPDEST POP POP POP JUMP JUMPDEST JUMPDEST DUP2 DUP2 LT ISZERO PUSH2 0x2348 JUMPI PUSH2 0x233D PUSH0 DUP3 PUSH2 0x2312 JUMP JUMPDEST PUSH1 0x1 DUP2 ADD SWAP1 POP PUSH2 0x232B JUMP JUMPDEST POP POP JUMP JUMPDEST PUSH1 0x1F DUP3 GT ISZERO PUSH2 0x238D JUMPI PUSH2 0x235E DUP2 PUSH2 0x2235 JUMP JUMPDEST PUSH2 0x2367 DUP5 PUSH2 0x2247 JUMP JUMPDEST DUP2 ADD PUSH1 0x20 DUP6 LT ISZERO PUSH2 0x2376 JUMPI DUP2 SWAP1 POP JUMPDEST PUSH2 0x238A PUSH2 0x2382 DUP6 PUSH2 0x2247 JUMP JUMPDEST DUP4 ADD DUP3 PUSH2 0x232A JUMP JUMPDEST POP POP JUMPDEST POP POP POP JUMP JUMPDEST PUSH0 DUP3 DUP3 SHR SWAP1 POP SWAP3 SWAP2 POP POP JUMP JUMPDEST PUSH0 PUSH2 0x23AD PUSH0 NOT DUP5 PUSH1 0x8 MUL PUSH2 0x2392 JUMP JUMPDEST NOT DUP1 DUP4 AND SWAP2 POP POP SWAP3 SWAP2 POP POP JUMP JUMPDEST PUSH0 PUSH2 0x23C5 DUP4 DUP4 PUSH2 0x239E JUMP JUMPDEST SWAP2 POP DUP3 PUSH1 0x2 MUL DUP3 OR SWAP1 POP SWAP3 SWAP2 POP POP JUMP JUMPDEST PUSH2 0x23DE DUP3 PUSH2 0x15D7 JUMP JUMPDEST PUSH8 0xFFFFFFFFFFFFFFFF DUP2 GT ISZERO PUSH2 0x23F7 JUMPI PUSH2 0x23F6 PUSH2 0x189F JUMP JUMPDEST JUMPDEST PUSH2 0x2401 DUP3 SLOAD PUSH2 0x1F7A JUMP JUMPDEST PUSH2 0x240C DUP3 DUP3 DUP6 PUSH2 0x234C JUMP JUMPDEST PUSH0 PUSH1 0x20 SWAP1 POP PUSH1 0x1F DUP4 GT PUSH1 0x1 DUP2 EQ PUSH2 0x243D JUMPI PUSH0 DUP5 ISZERO PUSH2 0x242B JUMPI DUP3 DUP8 ADD MLOAD SWAP1 POP JUMPDEST PUSH2 0x2435 DUP6 DUP3 PUSH2 0x23BA JUMP JUMPDEST DUP7 SSTORE POP PUSH2 0x249C JUMP JUMPDEST PUSH1 0x1F NOT DUP5 AND PUSH2 0x244B DUP7 PUSH2 0x2235 JUMP JUMPDEST PUSH0 JUMPDEST DUP3 DUP2 LT ISZERO PUSH2 0x2472 JUMPI DUP5 DUP10 ADD MLOAD DUP3 SSTORE PUSH1 0x1 DUP3 ADD SWAP2 POP PUSH1 0x20 DUP6 ADD SWAP5 POP PUSH1 0x20 DUP2 ADD SWAP1 POP PUSH2 0x244D JUMP JUMPDEST DUP7 DUP4 LT ISZERO PUSH2 0x248F JUMPI DUP5 DUP10 ADD MLOAD PUSH2 0x248B PUSH1 0x1F DUP10 AND DUP3 PUSH2 0x239E JUMP JUMPDEST DUP4 SSTORE POP JUMPDEST PUSH1 0x1 PUSH1 0x2 DUP9 MUL ADD DUP9 SSTORE POP POP POP JUMPDEST POP POP POP POP POP POP JUMP JUMPDEST PUSH32 0x5265656E7472616E637947756172643A207265656E7472616E742063616C6C00 PUSH0 DUP3 ADD MSTORE POP JUMP JUMPDEST PUSH0 PUSH2 0x24D8 PUSH1 0x1F DUP4 PUSH2 0x15E1 JUMP JUMPDEST SWAP2 POP PUSH2 0x24E3 DUP3 PUSH2 0x24A4 JUMP JUMPDEST PUSH1 0x20 DUP3 ADD SWAP1 POP SWAP2 SWAP1 POP JUMP JUMPDEST PUSH0 PUSH1 0x20 DUP3 ADD SWAP1 POP DUP2 DUP2 SUB PUSH0 DUP4 ADD MSTORE PUSH2 0x2505 DUP2 PUSH2 0x24CC JUMP JUMPDEST SWAP1 POP SWAP2 SWAP1 POP JUMP JUMPDEST PUSH32 0x4E487B7100000000000000000000000000000000000000000000000000000000 PUSH0 MSTORE PUSH1 0x32 PUSH1 0x4 MSTORE PUSH1 0x24 PUSH0 REVERT JUMPDEST PUSH32 0x4E487B7100000000000000000000000000000000000000000000000000000000 PUSH0 MSTORE PUSH1 0x31 PUSH1 0x4 MSTORE PUSH1 0x24 PUSH0 REVERT JUMPDEST PUSH0 PUSH2 0x2570 DUP3 PUSH2 0x1512 JUMP JUMPDEST SWAP2 POP PUSH32 0xFFFFFFFFFFFFFFFFFFFFFFFFFFFFFFFFFFFFFFFFFFFFFFFFFFFFFFFFFFFFFFFF DUP3 SUB PUSH2 0x25A2 JUMPI PUSH2 0x25A1 PUSH2 0x1CAF JUMP JUMPDEST JUMPDEST PUSH1 0x1 DUP3 ADD SWAP1 POP SWAP2 SWAP1 POP JUMP INVALID LOG2 PUSH5 0x6970667358 0x22 SLT KECCAK256 PUSH19 0x82853F54C4556812027EC32E39668F917BDC01 0xBC 0x22 0xA6 PUSH1 0xF KECCAK256 EQ 0xD 0xA7 SMOD 0x28 0x1E PUSH5 0x736F6C6343 STOP ADDMOD SHL STOP CALLER "
				},
				"gasEstimates": {
					"creation": {
						"codeDepositCost": "1939800",
						"executionCost": "infinite",
						"totalCost": "infinite"
					},
					"external": {
						"fee()": "2491",
						"getOwnerTokens(address)": "infinite",
						"getTokenURI(uint256)": "infinite",
						"listNFT(uint256,uint256)": "infinite",
						"listings(uint256)": "infinite",
						"mint(string)": "infinite",
						"nfts(uint256)": "infinite",
						"owner()": "2553",
						"ownerTokens(address,uint256)": "infinite",
						"pause()": "27378",
						"paused()": "2555",
						"purchaseNFT(uint256)": "infinite",
						"totalSupply()": "2471",
						"unpause()": "27421"
					},
					"internal": {
						"_incrementTotalSupply()": "24363",
						"_isNotEmptyString(string memory)": "infinite",
						"_removeTokenFromOwner(address,uint256)": "infinite",
						"_setTotalSupply(uint256)": "infinite"
					}
				},
				"methodIdentifiers": {
					"fee()": "ddca3f43",
					"getOwnerTokens(address)": "d63d4af0",
					"getTokenURI(uint256)": "3bb3a24d",
					"listNFT(uint256,uint256)": "94383f14",
					"listings(uint256)": "de74e57b",
					"mint(string)": "d85d3d27",
					"nfts(uint256)": "265aa621",
					"owner()": "8da5cb5b",
					"ownerTokens(address,uint256)": "28b60031",
					"pause()": "8456cb59",
					"paused()": "5c975abb",
					"purchaseNFT(uint256)": "150bde03",
					"totalSupply()": "18160ddd",
					"unpause()": "3f4ba83a"
				}
			},
			"storageLayout": {
				"storage": [
					{
						"astId": 10,
						"contract": "CrNFTMarketPlace/contracts/CRNFTMarketplace.sol:NFTMarketplace",
						"label": "_status",
						"offset": 0,
						"slot": "0",
						"type": "t_uint256"
					},
					{
						"astId": 71,
						"contract": "CrNFTMarketPlace/contracts/CRNFTMarketplace.sol:NFTMarketplace",
						"label": "owner",
						"offset": 0,
						"slot": "1",
						"type": "t_address"
					},
					{
						"astId": 73,
						"contract": "CrNFTMarketPlace/contracts/CRNFTMarketplace.sol:NFTMarketplace",
						"label": "fee",
						"offset": 0,
						"slot": "2",
						"type": "t_uint256"
					},
					{
						"astId": 75,
						"contract": "CrNFTMarketPlace/contracts/CRNFTMarketplace.sol:NFTMarketplace",
						"label": "paused",
						"offset": 0,
						"slot": "3",
						"type": "t_bool"
					},
					{
						"astId": 117,
						"contract": "CrNFTMarketPlace/contracts/CRNFTMarketplace.sol:NFTMarketplace",
						"label": "totalSupply",
						"offset": 0,
						"slot": "4",
						"type": "t_uint256"
					},
					{
						"astId": 122,
						"contract": "CrNFTMarketPlace/contracts/CRNFTMarketplace.sol:NFTMarketplace",
						"label": "nfts",
						"offset": 0,
						"slot": "5",
						"type": "t_mapping(t_uint256,t_struct(NFT)108_storage)"
					},
					{
						"astId": 127,
						"contract": "CrNFTMarketPlace/contracts/CRNFTMarketplace.sol:NFTMarketplace",
						"label": "listings",
						"offset": 0,
						"slot": "6",
						"type": "t_mapping(t_uint256,t_struct(Listing)115_storage)"
					},
					{
						"astId": 132,
						"contract": "CrNFTMarketPlace/contracts/CRNFTMarketplace.sol:NFTMarketplace",
						"label": "ownerTokens",
						"offset": 0,
						"slot": "7",
						"type": "t_mapping(t_address,t_array(t_uint256)dyn_storage)"
					},
					{
						"astId": 136,
						"contract": "CrNFTMarketPlace/contracts/CRNFTMarketplace.sol:NFTMarketplace",
						"label": "_tokenURIExists",
						"offset": 0,
						"slot": "8",
						"type": "t_mapping(t_bytes32,t_bool)"
					}
				],
				"types": {
					"t_address": {
						"encoding": "inplace",
						"label": "address",
						"numberOfBytes": "20"
					},
					"t_array(t_uint256)dyn_storage": {
						"base": "t_uint256",
						"encoding": "dynamic_array",
						"label": "uint256[]",
						"numberOfBytes": "32"
					},
					"t_bool": {
						"encoding": "inplace",
						"label": "bool",
						"numberOfBytes": "1"
					},
					"t_bytes32": {
						"encoding": "inplace",
						"label": "bytes32",
						"numberOfBytes": "32"
					},
					"t_mapping(t_address,t_array(t_uint256)dyn_storage)": {
						"encoding": "mapping",
						"key": "t_address",
						"label": "mapping(address => uint256[])",
						"numberOfBytes": "32",
						"value": "t_array(t_uint256)dyn_storage"
					},
					"t_mapping(t_bytes32,t_bool)": {
						"encoding": "mapping",
						"key": "t_bytes32",
						"label": "mapping(bytes32 => bool)",
						"numberOfBytes": "32",
						"value": "t_bool"
					},
					"t_mapping(t_uint256,t_struct(Listing)115_storage)": {
						"encoding": "mapping",
						"key": "t_uint256",
						"label": "mapping(uint256 => struct NFTMarketplace.Listing)",
						"numberOfBytes": "32",
						"value": "t_struct(Listing)115_storage"
					},
					"t_mapping(t_uint256,t_struct(NFT)108_storage)": {
						"encoding": "mapping",
						"key": "t_uint256",
						"label": "mapping(uint256 => struct NFTMarketplace.NFT)",
						"numberOfBytes": "32",
						"value": "t_struct(NFT)108_storage"
					},
					"t_string_storage": {
						"encoding": "bytes",
						"label": "string",
						"numberOfBytes": "32"
					},
					"t_struct(Listing)115_storage": {
						"encoding": "inplace",
						"label": "struct NFTMarketplace.Listing",
						"members": [
							{
								"astId": 110,
								"contract": "CrNFTMarketPlace/contracts/CRNFTMarketplace.sol:NFTMarketplace",
								"label": "price",
								"offset": 0,
								"slot": "0",
								"type": "t_uint256"
							},
							{
								"astId": 112,
								"contract": "CrNFTMarketPlace/contracts/CRNFTMarketplace.sol:NFTMarketplace",
								"label": "seller",
								"offset": 0,
								"slot": "1",
								"type": "t_address"
							},
							{
								"astId": 114,
								"contract": "CrNFTMarketPlace/contracts/CRNFTMarketplace.sol:NFTMarketplace",
								"label": "active",
								"offset": 20,
								"slot": "1",
								"type": "t_bool"
							}
						],
						"numberOfBytes": "64"
					},
					"t_struct(NFT)108_storage": {
						"encoding": "inplace",
						"label": "struct NFTMarketplace.NFT",
						"members": [
							{
								"astId": 103,
								"contract": "CrNFTMarketPlace/contracts/CRNFTMarketplace.sol:NFTMarketplace",
								"label": "tokenId",
								"offset": 0,
								"slot": "0",
								"type": "t_uint256"
							},
							{
								"astId": 105,
								"contract": "CrNFTMarketPlace/contracts/CRNFTMarketplace.sol:NFTMarketplace",
								"label": "owner",
								"offset": 0,
								"slot": "1",
								"type": "t_address"
							},
							{
								"astId": 107,
								"contract": "CrNFTMarketPlace/contracts/CRNFTMarketplace.sol:NFTMarketplace",
								"label": "tokenURI",
								"offset": 0,
								"slot": "2",
								"type": "t_string_storage"
							}
						],
						"numberOfBytes": "96"
					},
					"t_uint256": {
						"encoding": "inplace",
						"label": "uint256",
						"numberOfBytes": "32"
					}
				}
			},
			"userdoc": {
				"kind": "user",
				"methods": {},
				"version": 1
			}
		}
	}
}